{"abi":[{"inputs":[],"stateMutability":"nonpayable","type":"constructor"},{"inputs":[{"internalType":"address","name":"","type":"address"}],"name":"boards","outputs":[{"internalType":"bool","name":"","type":"bool"}],"stateMutability":"view","type":"function"},{"inputs":[{"internalType":"string","name":"newBoardName","type":"string"}],"name":"create","outputs":[],"stateMutability":"nonpayable","type":"function"},{"inputs":[{"internalType":"address","name":"who","type":"address"}],"name":"isBoard","outputs":[{"internalType":"bool","name":"","type":"bool"}],"stateMutability":"view","type":"function"},{"inputs":[],"name":"memberNFTAddress","outputs":[{"internalType":"address","name":"","type":"address"}],"stateMutability":"view","type":"function"},{"inputs":[{"internalType":"address","name":"","type":"address"}],"name":"names","outputs":[{"internalType":"string","name":"","type":"string"}],"stateMutability":"view","type":"function"}],"devdoc":{"kind":"dev","methods":{},"version":1},"evm":{"assembly":"    /* \"MemberBoardFactory.sol\":119:769  contract MemberBoardFactory {... */\n  mstore(0x40, 0x80)\n    /* \"MemberBoardFactory.sol\":285:358  constructor() {... */\n  callvalue\n  dup1\n  iszero\n  tag_1\n  jumpi\n  0x00\n  dup1\n  revert\ntag_1:\n  pop\n    /* \"MemberBoardFactory.sol\":337:349  new Member() */\n  mload(0x40)\n  tag_4\n  swap1\n  tag_5\n  jump\t// in\ntag_4:\n  mload(0x40)\n  dup1\n  swap2\n  sub\n  swap1\n  0x00\n  create\n  dup1\n  iszero\n  dup1\n  iszero\n  tag_6\n  jumpi\n  returndatasize\n  0x00\n  dup1\n  returndatacopy\n  revert(0x00, returndatasize)\ntag_6:\n  pop\n    /* \"MemberBoardFactory.sol\":310:326  memberNFTAddress */\n  0x02\n  0x00\n    /* \"MemberBoardFactory.sol\":310:350  memberNFTAddress = address(new Member()) */\n  0x0100\n  exp\n  dup2\n  sload\n  dup2\n  0xffffffffffffffffffffffffffffffffffffffff\n  mul\n  not\n  and\n  swap1\n  dup4\n  0xffffffffffffffffffffffffffffffffffffffff\n  and\n  mul\n  or\n  swap1\n  sstore\n  pop\n    /* \"MemberBoardFactory.sol\":119:769  contract MemberBoardFactory {... */\n  jump(tag_7)\ntag_5:\n  dataSize(sub_1)\n  dup1\n  dataOffset(sub_1)\n  dup4\n  codecopy\n  add\n  swap1\n  jump\t// out\ntag_7:\n  dataSize(sub_0)\n  dup1\n  dataOffset(sub_0)\n  0x00\n  codecopy\n  0x00\n  return\nstop\n\nsub_0: assembly {\n        /* \"MemberBoardFactory.sol\":119:769  contract MemberBoardFactory {... */\n      mstore(0x40, 0x80)\n      callvalue\n      dup1\n      iszero\n      tag_1\n      jumpi\n      0x00\n      dup1\n      revert\n    tag_1:\n      pop\n      jumpi(tag_2, lt(calldatasize, 0x04))\n      shr(0xe0, calldataload(0x00))\n      dup1\n      0x0aab6cf6\n      eq\n      tag_3\n      jumpi\n      dup1\n      0x49a852e5\n      eq\n      tag_4\n      jumpi\n      dup1\n      0x5cf3d346\n      eq\n      tag_5\n      jumpi\n      dup1\n      0xb6a46b3b\n      eq\n      tag_6\n      jumpi\n      dup1\n      0xceecabf5\n      eq\n      tag_7\n      jumpi\n    tag_2:\n      0x00\n      dup1\n      revert\n        /* \"MemberBoardFactory.sol\":672:766  function isBoard(address who) public view returns (bool) {... */\n    tag_3:\n      tag_8\n      0x04\n      dup1\n      calldatasize\n      sub\n      dup2\n      add\n      swap1\n      tag_9\n      swap2\n      swap1\n      tag_10\n      jump\t// in\n    tag_9:\n      tag_11\n      jump\t// in\n    tag_8:\n      mload(0x40)\n      tag_12\n      swap2\n      swap1\n      tag_13\n      jump\t// in\n    tag_12:\n      mload(0x40)\n      dup1\n      swap2\n      sub\n      swap1\n      return\n        /* \"MemberBoardFactory.sol\":200:238  mapping(address => bool) public boards */\n    tag_4:\n      tag_14\n      0x04\n      dup1\n      calldatasize\n      sub\n      dup2\n      add\n      swap1\n      tag_15\n      swap2\n      swap1\n      tag_10\n      jump\t// in\n    tag_15:\n      tag_16\n      jump\t// in\n    tag_14:\n      mload(0x40)\n      tag_17\n      swap2\n      swap1\n      tag_13\n      jump\t// in\n    tag_17:\n      mload(0x40)\n      dup1\n      swap2\n      sub\n      swap1\n      return\n        /* \"MemberBoardFactory.sol\":154:193  mapping(address => string) public names */\n    tag_5:\n      tag_18\n      0x04\n      dup1\n      calldatasize\n      sub\n      dup2\n      add\n      swap1\n      tag_19\n      swap2\n      swap1\n      tag_10\n      jump\t// in\n    tag_19:\n      tag_20\n      jump\t// in\n    tag_18:\n      mload(0x40)\n      tag_21\n      swap2\n      swap1\n      tag_22\n      jump\t// in\n    tag_21:\n      mload(0x40)\n      dup1\n      swap2\n      sub\n      swap1\n      return\n        /* \"MemberBoardFactory.sol\":366:664  function create(string memory newBoardName) public {... */\n    tag_6:\n      tag_23\n      0x04\n      dup1\n      calldatasize\n      sub\n      dup2\n      add\n      swap1\n      tag_24\n      swap2\n      swap1\n      tag_25\n      jump\t// in\n    tag_24:\n      tag_26\n      jump\t// in\n    tag_23:\n      stop\n        /* \"MemberBoardFactory.sol\":245:276  address public memberNFTAddress */\n    tag_7:\n      tag_27\n      tag_28\n      jump\t// in\n    tag_27:\n      mload(0x40)\n      tag_29\n      swap2\n      swap1\n      tag_30\n      jump\t// in\n    tag_29:\n      mload(0x40)\n      dup1\n      swap2\n      sub\n      swap1\n      return\n        /* \"MemberBoardFactory.sol\":672:766  function isBoard(address who) public view returns (bool) {... */\n    tag_11:\n        /* \"MemberBoardFactory.sol\":723:727  bool */\n      0x00\n        /* \"MemberBoardFactory.sol\":747:753  boards */\n      0x01\n        /* \"MemberBoardFactory.sol\":747:758  boards[who] */\n      0x00\n        /* \"MemberBoardFactory.sol\":754:757  who */\n      dup4\n        /* \"MemberBoardFactory.sol\":747:758  boards[who] */\n      0xffffffffffffffffffffffffffffffffffffffff\n      and\n      0xffffffffffffffffffffffffffffffffffffffff\n      and\n      dup2\n      mstore\n      0x20\n      add\n      swap1\n      dup2\n      mstore\n      0x20\n      add\n      0x00\n      keccak256\n      0x00\n      swap1\n      sload\n      swap1\n      0x0100\n      exp\n      swap1\n      div\n      0xff\n      and\n        /* \"MemberBoardFactory.sol\":740:758  return boards[who] */\n      swap1\n      pop\n        /* \"MemberBoardFactory.sol\":672:766  function isBoard(address who) public view returns (bool) {... */\n      swap2\n      swap1\n      pop\n      jump\t// out\n        /* \"MemberBoardFactory.sol\":200:238  mapping(address => bool) public boards */\n    tag_16:\n      mstore(0x20, 0x01)\n      dup1\n      0x00\n      mstore\n      keccak256(0x00, 0x40)\n      0x00\n      swap2\n      pop\n      sload\n      swap1\n      0x0100\n      exp\n      swap1\n      div\n      0xff\n      and\n      dup2\n      jump\t// out\n        /* \"MemberBoardFactory.sol\":154:193  mapping(address => string) public names */\n    tag_20:\n      mstore(0x20, 0x00)\n      dup1\n      0x00\n      mstore\n      keccak256(0x00, 0x40)\n      0x00\n      swap2\n      pop\n      swap1\n      pop\n      dup1\n      sload\n      tag_32\n      swap1\n      tag_33\n      jump\t// in\n    tag_32:\n      dup1\n      0x1f\n      add\n      0x20\n      dup1\n      swap2\n      div\n      mul\n      0x20\n      add\n      mload(0x40)\n      swap1\n      dup2\n      add\n      0x40\n      mstore\n      dup1\n      swap3\n      swap2\n      swap1\n      dup2\n      dup2\n      mstore\n      0x20\n      add\n      dup3\n      dup1\n      sload\n      tag_34\n      swap1\n      tag_33\n      jump\t// in\n    tag_34:\n      dup1\n      iszero\n      tag_35\n      jumpi\n      dup1\n      0x1f\n      lt\n      tag_36\n      jumpi\n      0x0100\n      dup1\n      dup4\n      sload\n      div\n      mul\n      dup4\n      mstore\n      swap2\n      0x20\n      add\n      swap2\n      jump(tag_35)\n    tag_36:\n      dup3\n      add\n      swap2\n      swap1\n      0x00\n      mstore\n      keccak256(0x00, 0x20)\n      swap1\n    tag_37:\n      dup2\n      sload\n      dup2\n      mstore\n      swap1\n      0x01\n      add\n      swap1\n      0x20\n      add\n      dup1\n      dup4\n      gt\n      tag_37\n      jumpi\n      dup3\n      swap1\n      sub\n      0x1f\n      and\n      dup3\n      add\n      swap2\n    tag_35:\n      pop\n      pop\n      pop\n      pop\n      pop\n      dup2\n      jump\t// out\n        /* \"MemberBoardFactory.sol\":366:664  function create(string memory newBoardName) public {... */\n    tag_26:\n        /* \"MemberBoardFactory.sol\":428:448  address boardAddress */\n      0x00\n        /* \"MemberBoardFactory.sol\":459:476  new MemberBoard() */\n      mload(0x40)\n      tag_39\n      swap1\n      tag_40\n      jump\t// in\n    tag_39:\n      mload(0x40)\n      dup1\n      swap2\n      sub\n      swap1\n      0x00\n      create\n      dup1\n      iszero\n      dup1\n      iszero\n      tag_41\n      jumpi\n      returndatasize\n      0x00\n      dup1\n      returndatacopy\n      revert(0x00, returndatasize)\n    tag_41:\n      pop\n        /* \"MemberBoardFactory.sol\":428:477  address boardAddress = address(new MemberBoard()) */\n      swap1\n      pop\n        /* \"MemberBoardFactory.sol\":510:522  newBoardName */\n      dup2\n        /* \"MemberBoardFactory.sol\":488:493  names */\n      0x00\n        /* \"MemberBoardFactory.sol\":488:507  names[boardAddress] */\n      dup1\n        /* \"MemberBoardFactory.sol\":494:506  boardAddress */\n      dup4\n        /* \"MemberBoardFactory.sol\":488:507  names[boardAddress] */\n      0xffffffffffffffffffffffffffffffffffffffff\n      and\n      0xffffffffffffffffffffffffffffffffffffffff\n      and\n      dup2\n      mstore\n      0x20\n      add\n      swap1\n      dup2\n      mstore\n      0x20\n      add\n      0x00\n      keccak256\n        /* \"MemberBoardFactory.sol\":488:522  names[boardAddress] = newBoardName */\n      swap1\n      dup2\n      tag_42\n      swap2\n      swap1\n      tag_43\n      jump\t// in\n    tag_42:\n      pop\n        /* \"MemberBoardFactory.sol\":556:560  true */\n      0x01\n        /* \"MemberBoardFactory.sol\":533:539  boards */\n      dup1\n        /* \"MemberBoardFactory.sol\":533:553  boards[boardAddress] */\n      0x00\n        /* \"MemberBoardFactory.sol\":540:552  boardAddress */\n      dup4\n        /* \"MemberBoardFactory.sol\":533:553  boards[boardAddress] */\n      0xffffffffffffffffffffffffffffffffffffffff\n      and\n      0xffffffffffffffffffffffffffffffffffffffff\n      and\n      dup2\n      mstore\n      0x20\n      add\n      swap1\n      dup2\n      mstore\n      0x20\n      add\n      0x00\n      keccak256\n      0x00\n        /* \"MemberBoardFactory.sol\":533:560  boards[boardAddress] = true */\n      0x0100\n      exp\n      dup2\n      sload\n      dup2\n      0xff\n      mul\n      not\n      and\n      swap1\n      dup4\n      iszero\n      iszero\n      mul\n      or\n      swap1\n      sstore\n      pop\n        /* \"MemberBoardFactory.sol\":571:579  Member f */\n      0x00\n        /* \"MemberBoardFactory.sol\":589:605  memberNFTAddress */\n      0x02\n      0x00\n      swap1\n      sload\n      swap1\n      0x0100\n      exp\n      swap1\n      div\n      0xffffffffffffffffffffffffffffffffffffffff\n      and\n        /* \"MemberBoardFactory.sol\":571:606  Member f = Member(memberNFTAddress) */\n      swap1\n      pop\n        /* \"MemberBoardFactory.sol\":617:618  f */\n      dup1\n        /* \"MemberBoardFactory.sol\":617:630  f.mintToFirst */\n      0xffffffffffffffffffffffffffffffffffffffff\n      and\n      0x3a0a3444\n        /* \"MemberBoardFactory.sol\":631:641  msg.sender */\n      caller\n        /* \"MemberBoardFactory.sol\":643:655  boardAddress */\n      dup5\n        /* \"MemberBoardFactory.sol\":617:656  f.mintToFirst(msg.sender, boardAddress) */\n      mload(0x40)\n      dup4\n      0xffffffff\n      and\n      0xe0\n      shl\n      dup2\n      mstore\n      0x04\n      add\n      tag_44\n      swap3\n      swap2\n      swap1\n      tag_45\n      jump\t// in\n    tag_44:\n      0x00\n      mload(0x40)\n      dup1\n      dup4\n      sub\n      dup2\n      0x00\n      dup8\n      dup1\n      extcodesize\n      iszero\n      dup1\n      iszero\n      tag_46\n      jumpi\n      0x00\n      dup1\n      revert\n    tag_46:\n      pop\n      gas\n      call\n      iszero\n      dup1\n      iszero\n      tag_48\n      jumpi\n      returndatasize\n      0x00\n      dup1\n      returndatacopy\n      revert(0x00, returndatasize)\n    tag_48:\n      pop\n      pop\n      pop\n      pop\n        /* \"MemberBoardFactory.sol\":417:664  {... */\n      pop\n      pop\n        /* \"MemberBoardFactory.sol\":366:664  function create(string memory newBoardName) public {... */\n      pop\n      jump\t// out\n        /* \"MemberBoardFactory.sol\":245:276  address public memberNFTAddress */\n    tag_28:\n      0x02\n      0x00\n      swap1\n      sload\n      swap1\n      0x0100\n      exp\n      swap1\n      div\n      0xffffffffffffffffffffffffffffffffffffffff\n      and\n      dup2\n      jump\t// out\n    tag_40:\n      dataSize(sub_0)\n      dup1\n      dataOffset(sub_0)\n      dup4\n      codecopy\n      add\n      swap1\n      jump\t// out\n        /* \"#utility.yul\":7:82   */\n    tag_49:\n        /* \"#utility.yul\":40:46   */\n      0x00\n        /* \"#utility.yul\":73:75   */\n      0x40\n        /* \"#utility.yul\":67:76   */\n      mload\n        /* \"#utility.yul\":57:76   */\n      swap1\n      pop\n        /* \"#utility.yul\":7:82   */\n      swap1\n      jump\t// out\n        /* \"#utility.yul\":88:205   */\n    tag_50:\n        /* \"#utility.yul\":197:198   */\n      0x00\n        /* \"#utility.yul\":194:195   */\n      dup1\n        /* \"#utility.yul\":187:199   */\n      revert\n        /* \"#utility.yul\":211:328   */\n    tag_51:\n        /* \"#utility.yul\":320:321   */\n      0x00\n        /* \"#utility.yul\":317:318   */\n      dup1\n        /* \"#utility.yul\":310:322   */\n      revert\n        /* \"#utility.yul\":334:460   */\n    tag_52:\n        /* \"#utility.yul\":371:378   */\n      0x00\n        /* \"#utility.yul\":411:453   */\n      0xffffffffffffffffffffffffffffffffffffffff\n        /* \"#utility.yul\":404:409   */\n      dup3\n        /* \"#utility.yul\":400:454   */\n      and\n        /* \"#utility.yul\":389:454   */\n      swap1\n      pop\n        /* \"#utility.yul\":334:460   */\n      swap2\n      swap1\n      pop\n      jump\t// out\n        /* \"#utility.yul\":466:562   */\n    tag_53:\n        /* \"#utility.yul\":503:510   */\n      0x00\n        /* \"#utility.yul\":532:556   */\n      tag_96\n        /* \"#utility.yul\":550:555   */\n      dup3\n        /* \"#utility.yul\":532:556   */\n      tag_52\n      jump\t// in\n    tag_96:\n        /* \"#utility.yul\":521:556   */\n      swap1\n      pop\n        /* \"#utility.yul\":466:562   */\n      swap2\n      swap1\n      pop\n      jump\t// out\n        /* \"#utility.yul\":568:690   */\n    tag_54:\n        /* \"#utility.yul\":641:665   */\n      tag_98\n        /* \"#utility.yul\":659:664   */\n      dup2\n        /* \"#utility.yul\":641:665   */\n      tag_53\n      jump\t// in\n    tag_98:\n        /* \"#utility.yul\":634:639   */\n      dup2\n        /* \"#utility.yul\":631:666   */\n      eq\n        /* \"#utility.yul\":621:684   */\n      tag_99\n      jumpi\n        /* \"#utility.yul\":680:681   */\n      0x00\n        /* \"#utility.yul\":677:678   */\n      dup1\n        /* \"#utility.yul\":670:682   */\n      revert\n        /* \"#utility.yul\":621:684   */\n    tag_99:\n        /* \"#utility.yul\":568:690   */\n      pop\n      jump\t// out\n        /* \"#utility.yul\":696:835   */\n    tag_55:\n        /* \"#utility.yul\":742:747   */\n      0x00\n        /* \"#utility.yul\":780:786   */\n      dup2\n        /* \"#utility.yul\":767:787   */\n      calldataload\n        /* \"#utility.yul\":758:787   */\n      swap1\n      pop\n        /* \"#utility.yul\":796:829   */\n      tag_101\n        /* \"#utility.yul\":823:828   */\n      dup2\n        /* \"#utility.yul\":796:829   */\n      tag_54\n      jump\t// in\n    tag_101:\n        /* \"#utility.yul\":696:835   */\n      swap3\n      swap2\n      pop\n      pop\n      jump\t// out\n        /* \"#utility.yul\":841:1170   */\n    tag_10:\n        /* \"#utility.yul\":900:906   */\n      0x00\n        /* \"#utility.yul\":949:951   */\n      0x20\n        /* \"#utility.yul\":937:946   */\n      dup3\n        /* \"#utility.yul\":928:935   */\n      dup5\n        /* \"#utility.yul\":924:947   */\n      sub\n        /* \"#utility.yul\":920:952   */\n      slt\n        /* \"#utility.yul\":917:1036   */\n      iszero\n      tag_103\n      jumpi\n        /* \"#utility.yul\":955:1034   */\n      tag_104\n      tag_50\n      jump\t// in\n    tag_104:\n        /* \"#utility.yul\":917:1036   */\n    tag_103:\n        /* \"#utility.yul\":1075:1076   */\n      0x00\n        /* \"#utility.yul\":1100:1153   */\n      tag_105\n        /* \"#utility.yul\":1145:1152   */\n      dup5\n        /* \"#utility.yul\":1136:1142   */\n      dup3\n        /* \"#utility.yul\":1125:1134   */\n      dup6\n        /* \"#utility.yul\":1121:1143   */\n      add\n        /* \"#utility.yul\":1100:1153   */\n      tag_55\n      jump\t// in\n    tag_105:\n        /* \"#utility.yul\":1090:1153   */\n      swap2\n      pop\n        /* \"#utility.yul\":1046:1163   */\n      pop\n        /* \"#utility.yul\":841:1170   */\n      swap3\n      swap2\n      pop\n      pop\n      jump\t// out\n        /* \"#utility.yul\":1176:1266   */\n    tag_56:\n        /* \"#utility.yul\":1210:1217   */\n      0x00\n        /* \"#utility.yul\":1253:1258   */\n      dup2\n        /* \"#utility.yul\":1246:1259   */\n      iszero\n        /* \"#utility.yul\":1239:1260   */\n      iszero\n        /* \"#utility.yul\":1228:1260   */\n      swap1\n      pop\n        /* \"#utility.yul\":1176:1266   */\n      swap2\n      swap1\n      pop\n      jump\t// out\n        /* \"#utility.yul\":1272:1381   */\n    tag_57:\n        /* \"#utility.yul\":1353:1374   */\n      tag_108\n        /* \"#utility.yul\":1368:1373   */\n      dup2\n        /* \"#utility.yul\":1353:1374   */\n      tag_56\n      jump\t// in\n    tag_108:\n        /* \"#utility.yul\":1348:1351   */\n      dup3\n        /* \"#utility.yul\":1341:1375   */\n      mstore\n        /* \"#utility.yul\":1272:1381   */\n      pop\n      pop\n      jump\t// out\n        /* \"#utility.yul\":1387:1597   */\n    tag_13:\n        /* \"#utility.yul\":1474:1478   */\n      0x00\n        /* \"#utility.yul\":1512:1514   */\n      0x20\n        /* \"#utility.yul\":1501:1510   */\n      dup3\n        /* \"#utility.yul\":1497:1515   */\n      add\n        /* \"#utility.yul\":1489:1515   */\n      swap1\n      pop\n        /* \"#utility.yul\":1525:1590   */\n      tag_110\n        /* \"#utility.yul\":1587:1588   */\n      0x00\n        /* \"#utility.yul\":1576:1585   */\n      dup4\n        /* \"#utility.yul\":1572:1589   */\n      add\n        /* \"#utility.yul\":1563:1569   */\n      dup5\n        /* \"#utility.yul\":1525:1590   */\n      tag_57\n      jump\t// in\n    tag_110:\n        /* \"#utility.yul\":1387:1597   */\n      swap3\n      swap2\n      pop\n      pop\n      jump\t// out\n        /* \"#utility.yul\":1603:1702   */\n    tag_58:\n        /* \"#utility.yul\":1655:1661   */\n      0x00\n        /* \"#utility.yul\":1689:1694   */\n      dup2\n        /* \"#utility.yul\":1683:1695   */\n      mload\n        /* \"#utility.yul\":1673:1695   */\n      swap1\n      pop\n        /* \"#utility.yul\":1603:1702   */\n      swap2\n      swap1\n      pop\n      jump\t// out\n        /* \"#utility.yul\":1708:1877   */\n    tag_59:\n        /* \"#utility.yul\":1792:1803   */\n      0x00\n        /* \"#utility.yul\":1826:1832   */\n      dup3\n        /* \"#utility.yul\":1821:1824   */\n      dup3\n        /* \"#utility.yul\":1814:1833   */\n      mstore\n        /* \"#utility.yul\":1866:1870   */\n      0x20\n        /* \"#utility.yul\":1861:1864   */\n      dup3\n        /* \"#utility.yul\":1857:1871   */\n      add\n        /* \"#utility.yul\":1842:1871   */\n      swap1\n      pop\n        /* \"#utility.yul\":1708:1877   */\n      swap3\n      swap2\n      pop\n      pop\n      jump\t// out\n        /* \"#utility.yul\":1883:2129   */\n    tag_60:\n        /* \"#utility.yul\":1964:1965   */\n      0x00\n        /* \"#utility.yul\":1974:2087   */\n    tag_114:\n        /* \"#utility.yul\":1988:1994   */\n      dup4\n        /* \"#utility.yul\":1985:1986   */\n      dup2\n        /* \"#utility.yul\":1982:1995   */\n      lt\n        /* \"#utility.yul\":1974:2087   */\n      iszero\n      tag_116\n      jumpi\n        /* \"#utility.yul\":2073:2074   */\n      dup1\n        /* \"#utility.yul\":2068:2071   */\n      dup3\n        /* \"#utility.yul\":2064:2075   */\n      add\n        /* \"#utility.yul\":2058:2076   */\n      mload\n        /* \"#utility.yul\":2054:2055   */\n      dup2\n        /* \"#utility.yul\":2049:2052   */\n      dup5\n        /* \"#utility.yul\":2045:2056   */\n      add\n        /* \"#utility.yul\":2038:2077   */\n      mstore\n        /* \"#utility.yul\":2010:2012   */\n      0x20\n        /* \"#utility.yul\":2007:2008   */\n      dup2\n        /* \"#utility.yul\":2003:2013   */\n      add\n        /* \"#utility.yul\":1998:2013   */\n      swap1\n      pop\n        /* \"#utility.yul\":1974:2087   */\n      jump(tag_114)\n    tag_116:\n        /* \"#utility.yul\":2121:2122   */\n      0x00\n        /* \"#utility.yul\":2112:2118   */\n      dup5\n        /* \"#utility.yul\":2107:2110   */\n      dup5\n        /* \"#utility.yul\":2103:2119   */\n      add\n        /* \"#utility.yul\":2096:2123   */\n      mstore\n        /* \"#utility.yul\":1945:2129   */\n      pop\n        /* \"#utility.yul\":1883:2129   */\n      pop\n      pop\n      pop\n      jump\t// out\n        /* \"#utility.yul\":2135:2237   */\n    tag_61:\n        /* \"#utility.yul\":2176:2182   */\n      0x00\n        /* \"#utility.yul\":2227:2229   */\n      0x1f\n        /* \"#utility.yul\":2223:2230   */\n      not\n        /* \"#utility.yul\":2218:2220   */\n      0x1f\n        /* \"#utility.yul\":2211:2216   */\n      dup4\n        /* \"#utility.yul\":2207:2221   */\n      add\n        /* \"#utility.yul\":2203:2231   */\n      and\n        /* \"#utility.yul\":2193:2231   */\n      swap1\n      pop\n        /* \"#utility.yul\":2135:2237   */\n      swap2\n      swap1\n      pop\n      jump\t// out\n        /* \"#utility.yul\":2243:2620   */\n    tag_62:\n        /* \"#utility.yul\":2331:2334   */\n      0x00\n        /* \"#utility.yul\":2359:2398   */\n      tag_119\n        /* \"#utility.yul\":2392:2397   */\n      dup3\n        /* \"#utility.yul\":2359:2398   */\n      tag_58\n      jump\t// in\n    tag_119:\n        /* \"#utility.yul\":2414:2485   */\n      tag_120\n        /* \"#utility.yul\":2478:2484   */\n      dup2\n        /* \"#utility.yul\":2473:2476   */\n      dup6\n        /* \"#utility.yul\":2414:2485   */\n      tag_59\n      jump\t// in\n    tag_120:\n        /* \"#utility.yul\":2407:2485   */\n      swap4\n      pop\n        /* \"#utility.yul\":2494:2559   */\n      tag_121\n        /* \"#utility.yul\":2552:2558   */\n      dup2\n        /* \"#utility.yul\":2547:2550   */\n      dup6\n        /* \"#utility.yul\":2540:2544   */\n      0x20\n        /* \"#utility.yul\":2533:2538   */\n      dup7\n        /* \"#utility.yul\":2529:2545   */\n      add\n        /* \"#utility.yul\":2494:2559   */\n      tag_60\n      jump\t// in\n    tag_121:\n        /* \"#utility.yul\":2584:2613   */\n      tag_122\n        /* \"#utility.yul\":2606:2612   */\n      dup2\n        /* \"#utility.yul\":2584:2613   */\n      tag_61\n      jump\t// in\n    tag_122:\n        /* \"#utility.yul\":2579:2582   */\n      dup5\n        /* \"#utility.yul\":2575:2614   */\n      add\n        /* \"#utility.yul\":2568:2614   */\n      swap2\n      pop\n        /* \"#utility.yul\":2335:2620   */\n      pop\n        /* \"#utility.yul\":2243:2620   */\n      swap3\n      swap2\n      pop\n      pop\n      jump\t// out\n        /* \"#utility.yul\":2626:2939   */\n    tag_22:\n        /* \"#utility.yul\":2739:2743   */\n      0x00\n        /* \"#utility.yul\":2777:2779   */\n      0x20\n        /* \"#utility.yul\":2766:2775   */\n      dup3\n        /* \"#utility.yul\":2762:2780   */\n      add\n        /* \"#utility.yul\":2754:2780   */\n      swap1\n      pop\n        /* \"#utility.yul\":2826:2835   */\n      dup2\n        /* \"#utility.yul\":2820:2824   */\n      dup2\n        /* \"#utility.yul\":2816:2836   */\n      sub\n        /* \"#utility.yul\":2812:2813   */\n      0x00\n        /* \"#utility.yul\":2801:2810   */\n      dup4\n        /* \"#utility.yul\":2797:2814   */\n      add\n        /* \"#utility.yul\":2790:2837   */\n      mstore\n        /* \"#utility.yul\":2854:2932   */\n      tag_124\n        /* \"#utility.yul\":2927:2931   */\n      dup2\n        /* \"#utility.yul\":2918:2924   */\n      dup5\n        /* \"#utility.yul\":2854:2932   */\n      tag_62\n      jump\t// in\n    tag_124:\n        /* \"#utility.yul\":2846:2932   */\n      swap1\n      pop\n        /* \"#utility.yul\":2626:2939   */\n      swap3\n      swap2\n      pop\n      pop\n      jump\t// out\n        /* \"#utility.yul\":2945:3062   */\n    tag_63:\n        /* \"#utility.yul\":3054:3055   */\n      0x00\n        /* \"#utility.yul\":3051:3052   */\n      dup1\n        /* \"#utility.yul\":3044:3056   */\n      revert\n        /* \"#utility.yul\":3068:3185   */\n    tag_64:\n        /* \"#utility.yul\":3177:3178   */\n      0x00\n        /* \"#utility.yul\":3174:3175   */\n      dup1\n        /* \"#utility.yul\":3167:3179   */\n      revert\n        /* \"#utility.yul\":3191:3371   */\n    tag_65:\n        /* \"#utility.yul\":3239:3316   */\n      0x4e487b7100000000000000000000000000000000000000000000000000000000\n        /* \"#utility.yul\":3236:3237   */\n      0x00\n        /* \"#utility.yul\":3229:3317   */\n      mstore\n        /* \"#utility.yul\":3336:3340   */\n      0x41\n        /* \"#utility.yul\":3333:3334   */\n      0x04\n        /* \"#utility.yul\":3326:3341   */\n      mstore\n        /* \"#utility.yul\":3360:3364   */\n      0x24\n        /* \"#utility.yul\":3357:3358   */\n      0x00\n        /* \"#utility.yul\":3350:3365   */\n      revert\n        /* \"#utility.yul\":3377:3658   */\n    tag_66:\n        /* \"#utility.yul\":3460:3487   */\n      tag_129\n        /* \"#utility.yul\":3482:3486   */\n      dup3\n        /* \"#utility.yul\":3460:3487   */\n      tag_61\n      jump\t// in\n    tag_129:\n        /* \"#utility.yul\":3452:3458   */\n      dup2\n        /* \"#utility.yul\":3448:3488   */\n      add\n        /* \"#utility.yul\":3590:3596   */\n      dup2\n        /* \"#utility.yul\":3578:3588   */\n      dup2\n        /* \"#utility.yul\":3575:3597   */\n      lt\n        /* \"#utility.yul\":3554:3572   */\n      0xffffffffffffffff\n        /* \"#utility.yul\":3542:3552   */\n      dup3\n        /* \"#utility.yul\":3539:3573   */\n      gt\n        /* \"#utility.yul\":3536:3598   */\n      or\n        /* \"#utility.yul\":3533:3621   */\n      iszero\n      tag_130\n      jumpi\n        /* \"#utility.yul\":3601:3619   */\n      tag_131\n      tag_65\n      jump\t// in\n    tag_131:\n        /* \"#utility.yul\":3533:3621   */\n    tag_130:\n        /* \"#utility.yul\":3641:3651   */\n      dup1\n        /* \"#utility.yul\":3637:3639   */\n      0x40\n        /* \"#utility.yul\":3630:3652   */\n      mstore\n        /* \"#utility.yul\":3420:3658   */\n      pop\n        /* \"#utility.yul\":3377:3658   */\n      pop\n      pop\n      jump\t// out\n        /* \"#utility.yul\":3664:3793   */\n    tag_67:\n        /* \"#utility.yul\":3698:3704   */\n      0x00\n        /* \"#utility.yul\":3725:3745   */\n      tag_133\n      tag_49\n      jump\t// in\n    tag_133:\n        /* \"#utility.yul\":3715:3745   */\n      swap1\n      pop\n        /* \"#utility.yul\":3754:3787   */\n      tag_134\n        /* \"#utility.yul\":3782:3786   */\n      dup3\n        /* \"#utility.yul\":3774:3780   */\n      dup3\n        /* \"#utility.yul\":3754:3787   */\n      tag_66\n      jump\t// in\n    tag_134:\n        /* \"#utility.yul\":3664:3793   */\n      swap2\n      swap1\n      pop\n      jump\t// out\n        /* \"#utility.yul\":3799:4107   */\n    tag_68:\n        /* \"#utility.yul\":3861:3865   */\n      0x00\n        /* \"#utility.yul\":3951:3969   */\n      0xffffffffffffffff\n        /* \"#utility.yul\":3943:3949   */\n      dup3\n        /* \"#utility.yul\":3940:3970   */\n      gt\n        /* \"#utility.yul\":3937:3993   */\n      iszero\n      tag_136\n      jumpi\n        /* \"#utility.yul\":3973:3991   */\n      tag_137\n      tag_65\n      jump\t// in\n    tag_137:\n        /* \"#utility.yul\":3937:3993   */\n    tag_136:\n        /* \"#utility.yul\":4011:4040   */\n      tag_138\n        /* \"#utility.yul\":4033:4039   */\n      dup3\n        /* \"#utility.yul\":4011:4040   */\n      tag_61\n      jump\t// in\n    tag_138:\n        /* \"#utility.yul\":4003:4040   */\n      swap1\n      pop\n        /* \"#utility.yul\":4095:4099   */\n      0x20\n        /* \"#utility.yul\":4089:4093   */\n      dup2\n        /* \"#utility.yul\":4085:4100   */\n      add\n        /* \"#utility.yul\":4077:4100   */\n      swap1\n      pop\n        /* \"#utility.yul\":3799:4107   */\n      swap2\n      swap1\n      pop\n      jump\t// out\n        /* \"#utility.yul\":4113:4259   */\n    tag_69:\n        /* \"#utility.yul\":4210:4216   */\n      dup3\n        /* \"#utility.yul\":4205:4208   */\n      dup2\n        /* \"#utility.yul\":4200:4203   */\n      dup4\n        /* \"#utility.yul\":4187:4217   */\n      calldatacopy\n        /* \"#utility.yul\":4251:4252   */\n      0x00\n        /* \"#utility.yul\":4242:4248   */\n      dup4\n        /* \"#utility.yul\":4237:4240   */\n      dup4\n        /* \"#utility.yul\":4233:4249   */\n      add\n        /* \"#utility.yul\":4226:4253   */\n      mstore\n        /* \"#utility.yul\":4113:4259   */\n      pop\n      pop\n      pop\n      jump\t// out\n        /* \"#utility.yul\":4265:4690   */\n    tag_70:\n        /* \"#utility.yul\":4343:4348   */\n      0x00\n        /* \"#utility.yul\":4368:4434   */\n      tag_141\n        /* \"#utility.yul\":4384:4433   */\n      tag_142\n        /* \"#utility.yul\":4426:4432   */\n      dup5\n        /* \"#utility.yul\":4384:4433   */\n      tag_68\n      jump\t// in\n    tag_142:\n        /* \"#utility.yul\":4368:4434   */\n      tag_67\n      jump\t// in\n    tag_141:\n        /* \"#utility.yul\":4359:4434   */\n      swap1\n      pop\n        /* \"#utility.yul\":4457:4463   */\n      dup3\n        /* \"#utility.yul\":4450:4455   */\n      dup2\n        /* \"#utility.yul\":4443:4464   */\n      mstore\n        /* \"#utility.yul\":4495:4499   */\n      0x20\n        /* \"#utility.yul\":4488:4493   */\n      dup2\n        /* \"#utility.yul\":4484:4500   */\n      add\n        /* \"#utility.yul\":4533:4536   */\n      dup5\n        /* \"#utility.yul\":4524:4530   */\n      dup5\n        /* \"#utility.yul\":4519:4522   */\n      dup5\n        /* \"#utility.yul\":4515:4531   */\n      add\n        /* \"#utility.yul\":4512:4537   */\n      gt\n        /* \"#utility.yul\":4509:4621   */\n      iszero\n      tag_143\n      jumpi\n        /* \"#utility.yul\":4540:4619   */\n      tag_144\n      tag_64\n      jump\t// in\n    tag_144:\n        /* \"#utility.yul\":4509:4621   */\n    tag_143:\n        /* \"#utility.yul\":4630:4684   */\n      tag_145\n        /* \"#utility.yul\":4677:4683   */\n      dup5\n        /* \"#utility.yul\":4672:4675   */\n      dup3\n        /* \"#utility.yul\":4667:4670   */\n      dup6\n        /* \"#utility.yul\":4630:4684   */\n      tag_69\n      jump\t// in\n    tag_145:\n        /* \"#utility.yul\":4349:4690   */\n      pop\n        /* \"#utility.yul\":4265:4690   */\n      swap4\n      swap3\n      pop\n      pop\n      pop\n      jump\t// out\n        /* \"#utility.yul\":4710:5050   */\n    tag_71:\n        /* \"#utility.yul\":4766:4771   */\n      0x00\n        /* \"#utility.yul\":4815:4818   */\n      dup3\n        /* \"#utility.yul\":4808:4812   */\n      0x1f\n        /* \"#utility.yul\":4800:4806   */\n      dup4\n        /* \"#utility.yul\":4796:4813   */\n      add\n        /* \"#utility.yul\":4792:4819   */\n      slt\n        /* \"#utility.yul\":4782:4904   */\n      tag_147\n      jumpi\n        /* \"#utility.yul\":4823:4902   */\n      tag_148\n      tag_63\n      jump\t// in\n    tag_148:\n        /* \"#utility.yul\":4782:4904   */\n    tag_147:\n        /* \"#utility.yul\":4940:4946   */\n      dup2\n        /* \"#utility.yul\":4927:4947   */\n      calldataload\n        /* \"#utility.yul\":4965:5044   */\n      tag_149\n        /* \"#utility.yul\":5040:5043   */\n      dup5\n        /* \"#utility.yul\":5032:5038   */\n      dup3\n        /* \"#utility.yul\":5025:5029   */\n      0x20\n        /* \"#utility.yul\":5017:5023   */\n      dup7\n        /* \"#utility.yul\":5013:5030   */\n      add\n        /* \"#utility.yul\":4965:5044   */\n      tag_70\n      jump\t// in\n    tag_149:\n        /* \"#utility.yul\":4956:5044   */\n      swap2\n      pop\n        /* \"#utility.yul\":4772:5050   */\n      pop\n        /* \"#utility.yul\":4710:5050   */\n      swap3\n      swap2\n      pop\n      pop\n      jump\t// out\n        /* \"#utility.yul\":5056:5565   */\n    tag_25:\n        /* \"#utility.yul\":5125:5131   */\n      0x00\n        /* \"#utility.yul\":5174:5176   */\n      0x20\n        /* \"#utility.yul\":5162:5171   */\n      dup3\n        /* \"#utility.yul\":5153:5160   */\n      dup5\n        /* \"#utility.yul\":5149:5172   */\n      sub\n        /* \"#utility.yul\":5145:5177   */\n      slt\n        /* \"#utility.yul\":5142:5261   */\n      iszero\n      tag_151\n      jumpi\n        /* \"#utility.yul\":5180:5259   */\n      tag_152\n      tag_50\n      jump\t// in\n    tag_152:\n        /* \"#utility.yul\":5142:5261   */\n    tag_151:\n        /* \"#utility.yul\":5328:5329   */\n      0x00\n        /* \"#utility.yul\":5317:5326   */\n      dup3\n        /* \"#utility.yul\":5313:5330   */\n      add\n        /* \"#utility.yul\":5300:5331   */\n      calldataload\n        /* \"#utility.yul\":5358:5376   */\n      0xffffffffffffffff\n        /* \"#utility.yul\":5350:5356   */\n      dup2\n        /* \"#utility.yul\":5347:5377   */\n      gt\n        /* \"#utility.yul\":5344:5461   */\n      iszero\n      tag_153\n      jumpi\n        /* \"#utility.yul\":5380:5459   */\n      tag_154\n      tag_51\n      jump\t// in\n    tag_154:\n        /* \"#utility.yul\":5344:5461   */\n    tag_153:\n        /* \"#utility.yul\":5485:5548   */\n      tag_155\n        /* \"#utility.yul\":5540:5547   */\n      dup5\n        /* \"#utility.yul\":5531:5537   */\n      dup3\n        /* \"#utility.yul\":5520:5529   */\n      dup6\n        /* \"#utility.yul\":5516:5538   */\n      add\n        /* \"#utility.yul\":5485:5548   */\n      tag_71\n      jump\t// in\n    tag_155:\n        /* \"#utility.yul\":5475:5548   */\n      swap2\n      pop\n        /* \"#utility.yul\":5271:5558   */\n      pop\n        /* \"#utility.yul\":5056:5565   */\n      swap3\n      swap2\n      pop\n      pop\n      jump\t// out\n        /* \"#utility.yul\":5571:5689   */\n    tag_72:\n        /* \"#utility.yul\":5658:5682   */\n      tag_157\n        /* \"#utility.yul\":5676:5681   */\n      dup2\n        /* \"#utility.yul\":5658:5682   */\n      tag_53\n      jump\t// in\n    tag_157:\n        /* \"#utility.yul\":5653:5656   */\n      dup3\n        /* \"#utility.yul\":5646:5683   */\n      mstore\n        /* \"#utility.yul\":5571:5689   */\n      pop\n      pop\n      jump\t// out\n        /* \"#utility.yul\":5695:5917   */\n    tag_30:\n        /* \"#utility.yul\":5788:5792   */\n      0x00\n        /* \"#utility.yul\":5826:5828   */\n      0x20\n        /* \"#utility.yul\":5815:5824   */\n      dup3\n        /* \"#utility.yul\":5811:5829   */\n      add\n        /* \"#utility.yul\":5803:5829   */\n      swap1\n      pop\n        /* \"#utility.yul\":5839:5910   */\n      tag_159\n        /* \"#utility.yul\":5907:5908   */\n      0x00\n        /* \"#utility.yul\":5896:5905   */\n      dup4\n        /* \"#utility.yul\":5892:5909   */\n      add\n        /* \"#utility.yul\":5883:5889   */\n      dup5\n        /* \"#utility.yul\":5839:5910   */\n      tag_72\n      jump\t// in\n    tag_159:\n        /* \"#utility.yul\":5695:5917   */\n      swap3\n      swap2\n      pop\n      pop\n      jump\t// out\n        /* \"#utility.yul\":5923:6103   */\n    tag_73:\n        /* \"#utility.yul\":5971:6048   */\n      0x4e487b7100000000000000000000000000000000000000000000000000000000\n        /* \"#utility.yul\":5968:5969   */\n      0x00\n        /* \"#utility.yul\":5961:6049   */\n      mstore\n        /* \"#utility.yul\":6068:6072   */\n      0x22\n        /* \"#utility.yul\":6065:6066   */\n      0x04\n        /* \"#utility.yul\":6058:6073   */\n      mstore\n        /* \"#utility.yul\":6092:6096   */\n      0x24\n        /* \"#utility.yul\":6089:6090   */\n      0x00\n        /* \"#utility.yul\":6082:6097   */\n      revert\n        /* \"#utility.yul\":6109:6429   */\n    tag_33:\n        /* \"#utility.yul\":6153:6159   */\n      0x00\n        /* \"#utility.yul\":6190:6191   */\n      0x02\n        /* \"#utility.yul\":6184:6188   */\n      dup3\n        /* \"#utility.yul\":6180:6192   */\n      div\n        /* \"#utility.yul\":6170:6192   */\n      swap1\n      pop\n        /* \"#utility.yul\":6237:6238   */\n      0x01\n        /* \"#utility.yul\":6231:6235   */\n      dup3\n        /* \"#utility.yul\":6227:6239   */\n      and\n        /* \"#utility.yul\":6258:6276   */\n      dup1\n        /* \"#utility.yul\":6248:6329   */\n      tag_162\n      jumpi\n        /* \"#utility.yul\":6314:6318   */\n      0x7f\n        /* \"#utility.yul\":6306:6312   */\n      dup3\n        /* \"#utility.yul\":6302:6319   */\n      and\n        /* \"#utility.yul\":6292:6319   */\n      swap2\n      pop\n        /* \"#utility.yul\":6248:6329   */\n    tag_162:\n        /* \"#utility.yul\":6376:6378   */\n      0x20\n        /* \"#utility.yul\":6368:6374   */\n      dup3\n        /* \"#utility.yul\":6365:6379   */\n      lt\n        /* \"#utility.yul\":6345:6363   */\n      dup2\n        /* \"#utility.yul\":6342:6380   */\n      sub\n        /* \"#utility.yul\":6339:6423   */\n      tag_163\n      jumpi\n        /* \"#utility.yul\":6395:6413   */\n      tag_164\n      tag_73\n      jump\t// in\n    tag_164:\n        /* \"#utility.yul\":6339:6423   */\n    tag_163:\n        /* \"#utility.yul\":6160:6429   */\n      pop\n        /* \"#utility.yul\":6109:6429   */\n      swap2\n      swap1\n      pop\n      jump\t// out\n        /* \"#utility.yul\":6435:6576   */\n    tag_74:\n        /* \"#utility.yul\":6484:6488   */\n      0x00\n        /* \"#utility.yul\":6507:6510   */\n      dup2\n        /* \"#utility.yul\":6499:6510   */\n      swap1\n      pop\n        /* \"#utility.yul\":6530:6533   */\n      dup2\n        /* \"#utility.yul\":6527:6528   */\n      0x00\n        /* \"#utility.yul\":6520:6534   */\n      mstore\n        /* \"#utility.yul\":6564:6568   */\n      0x20\n        /* \"#utility.yul\":6561:6562   */\n      0x00\n        /* \"#utility.yul\":6551:6569   */\n      keccak256\n        /* \"#utility.yul\":6543:6569   */\n      swap1\n      pop\n        /* \"#utility.yul\":6435:6576   */\n      swap2\n      swap1\n      pop\n      jump\t// out\n        /* \"#utility.yul\":6582:6675   */\n    tag_75:\n        /* \"#utility.yul\":6619:6625   */\n      0x00\n        /* \"#utility.yul\":6666:6668   */\n      0x20\n        /* \"#utility.yul\":6661:6663   */\n      0x1f\n        /* \"#utility.yul\":6654:6659   */\n      dup4\n        /* \"#utility.yul\":6650:6664   */\n      add\n        /* \"#utility.yul\":6646:6669   */\n      div\n        /* \"#utility.yul\":6636:6669   */\n      swap1\n      pop\n        /* \"#utility.yul\":6582:6675   */\n      swap2\n      swap1\n      pop\n      jump\t// out\n        /* \"#utility.yul\":6681:6788   */\n    tag_76:\n        /* \"#utility.yul\":6725:6733   */\n      0x00\n        /* \"#utility.yul\":6775:6780   */\n      dup3\n        /* \"#utility.yul\":6769:6773   */\n      dup3\n        /* \"#utility.yul\":6765:6781   */\n      shl\n        /* \"#utility.yul\":6744:6781   */\n      swap1\n      pop\n        /* \"#utility.yul\":6681:6788   */\n      swap3\n      swap2\n      pop\n      pop\n      jump\t// out\n        /* \"#utility.yul\":6794:7187   */\n    tag_77:\n        /* \"#utility.yul\":6863:6869   */\n      0x00\n        /* \"#utility.yul\":6913:6914   */\n      0x08\n        /* \"#utility.yul\":6901:6911   */\n      dup4\n        /* \"#utility.yul\":6897:6915   */\n      mul\n        /* \"#utility.yul\":6936:7033   */\n      tag_169\n        /* \"#utility.yul\":6966:7032   */\n      0xffffffffffffffffffffffffffffffffffffffffffffffffffffffffffffffff\n        /* \"#utility.yul\":6955:6964   */\n      dup3\n        /* \"#utility.yul\":6936:7033   */\n      tag_76\n      jump\t// in\n    tag_169:\n        /* \"#utility.yul\":7054:7093   */\n      tag_170\n        /* \"#utility.yul\":7084:7092   */\n      dup7\n        /* \"#utility.yul\":7073:7082   */\n      dup4\n        /* \"#utility.yul\":7054:7093   */\n      tag_76\n      jump\t// in\n    tag_170:\n        /* \"#utility.yul\":7042:7093   */\n      swap6\n      pop\n        /* \"#utility.yul\":7126:7130   */\n      dup1\n        /* \"#utility.yul\":7122:7131   */\n      not\n        /* \"#utility.yul\":7115:7120   */\n      dup5\n        /* \"#utility.yul\":7111:7132   */\n      and\n        /* \"#utility.yul\":7102:7132   */\n      swap4\n      pop\n        /* \"#utility.yul\":7175:7179   */\n      dup1\n        /* \"#utility.yul\":7165:7173   */\n      dup7\n        /* \"#utility.yul\":7161:7180   */\n      and\n        /* \"#utility.yul\":7154:7159   */\n      dup5\n        /* \"#utility.yul\":7151:7181   */\n      or\n        /* \"#utility.yul\":7141:7181   */\n      swap3\n      pop\n        /* \"#utility.yul\":6870:7187   */\n      pop\n      pop\n        /* \"#utility.yul\":6794:7187   */\n      swap4\n      swap3\n      pop\n      pop\n      pop\n      jump\t// out\n        /* \"#utility.yul\":7193:7270   */\n    tag_78:\n        /* \"#utility.yul\":7230:7237   */\n      0x00\n        /* \"#utility.yul\":7259:7264   */\n      dup2\n        /* \"#utility.yul\":7248:7264   */\n      swap1\n      pop\n        /* \"#utility.yul\":7193:7270   */\n      swap2\n      swap1\n      pop\n      jump\t// out\n        /* \"#utility.yul\":7276:7336   */\n    tag_79:\n        /* \"#utility.yul\":7304:7307   */\n      0x00\n        /* \"#utility.yul\":7325:7330   */\n      dup2\n        /* \"#utility.yul\":7318:7330   */\n      swap1\n      pop\n        /* \"#utility.yul\":7276:7336   */\n      swap2\n      swap1\n      pop\n      jump\t// out\n        /* \"#utility.yul\":7342:7484   */\n    tag_80:\n        /* \"#utility.yul\":7392:7401   */\n      0x00\n        /* \"#utility.yul\":7425:7478   */\n      tag_174\n        /* \"#utility.yul\":7443:7477   */\n      tag_175\n        /* \"#utility.yul\":7452:7476   */\n      tag_176\n        /* \"#utility.yul\":7470:7475   */\n      dup5\n        /* \"#utility.yul\":7452:7476   */\n      tag_78\n      jump\t// in\n    tag_176:\n        /* \"#utility.yul\":7443:7477   */\n      tag_79\n      jump\t// in\n    tag_175:\n        /* \"#utility.yul\":7425:7478   */\n      tag_78\n      jump\t// in\n    tag_174:\n        /* \"#utility.yul\":7412:7478   */\n      swap1\n      pop\n        /* \"#utility.yul\":7342:7484   */\n      swap2\n      swap1\n      pop\n      jump\t// out\n        /* \"#utility.yul\":7490:7565   */\n    tag_81:\n        /* \"#utility.yul\":7533:7536   */\n      0x00\n        /* \"#utility.yul\":7554:7559   */\n      dup2\n        /* \"#utility.yul\":7547:7559   */\n      swap1\n      pop\n        /* \"#utility.yul\":7490:7565   */\n      swap2\n      swap1\n      pop\n      jump\t// out\n        /* \"#utility.yul\":7571:7840   */\n    tag_82:\n        /* \"#utility.yul\":7681:7720   */\n      tag_179\n        /* \"#utility.yul\":7712:7719   */\n      dup4\n        /* \"#utility.yul\":7681:7720   */\n      tag_80\n      jump\t// in\n    tag_179:\n        /* \"#utility.yul\":7742:7833   */\n      tag_180\n        /* \"#utility.yul\":7791:7832   */\n      tag_181\n        /* \"#utility.yul\":7815:7831   */\n      dup3\n        /* \"#utility.yul\":7791:7832   */\n      tag_81\n      jump\t// in\n    tag_181:\n        /* \"#utility.yul\":7783:7789   */\n      dup5\n        /* \"#utility.yul\":7776:7780   */\n      dup5\n        /* \"#utility.yul\":7770:7781   */\n      sload\n        /* \"#utility.yul\":7742:7833   */\n      tag_77\n      jump\t// in\n    tag_180:\n        /* \"#utility.yul\":7736:7740   */\n      dup3\n        /* \"#utility.yul\":7729:7834   */\n      sstore\n        /* \"#utility.yul\":7647:7840   */\n      pop\n        /* \"#utility.yul\":7571:7840   */\n      pop\n      pop\n      pop\n      jump\t// out\n        /* \"#utility.yul\":7846:7919   */\n    tag_83:\n        /* \"#utility.yul\":7891:7894   */\n      0x00\n        /* \"#utility.yul\":7846:7919   */\n      swap1\n      jump\t// out\n        /* \"#utility.yul\":7925:8114   */\n    tag_84:\n        /* \"#utility.yul\":8002:8034   */\n      tag_184\n      tag_83\n      jump\t// in\n    tag_184:\n        /* \"#utility.yul\":8043:8108   */\n      tag_185\n        /* \"#utility.yul\":8101:8107   */\n      dup2\n        /* \"#utility.yul\":8093:8099   */\n      dup5\n        /* \"#utility.yul\":8087:8091   */\n      dup5\n        /* \"#utility.yul\":8043:8108   */\n      tag_82\n      jump\t// in\n    tag_185:\n        /* \"#utility.yul\":7978:8114   */\n      pop\n        /* \"#utility.yul\":7925:8114   */\n      pop\n      pop\n      jump\t// out\n        /* \"#utility.yul\":8120:8306   */\n    tag_85:\n        /* \"#utility.yul\":8180:8300   */\n    tag_187:\n        /* \"#utility.yul\":8197:8200   */\n      dup2\n        /* \"#utility.yul\":8190:8195   */\n      dup2\n        /* \"#utility.yul\":8187:8201   */\n      lt\n        /* \"#utility.yul\":8180:8300   */\n      iszero\n      tag_189\n      jumpi\n        /* \"#utility.yul\":8251:8290   */\n      tag_190\n        /* \"#utility.yul\":8288:8289   */\n      0x00\n        /* \"#utility.yul\":8281:8286   */\n      dup3\n        /* \"#utility.yul\":8251:8290   */\n      tag_84\n      jump\t// in\n    tag_190:\n        /* \"#utility.yul\":8224:8225   */\n      0x01\n        /* \"#utility.yul\":8217:8222   */\n      dup2\n        /* \"#utility.yul\":8213:8226   */\n      add\n        /* \"#utility.yul\":8204:8226   */\n      swap1\n      pop\n        /* \"#utility.yul\":8180:8300   */\n      jump(tag_187)\n    tag_189:\n        /* \"#utility.yul\":8120:8306   */\n      pop\n      pop\n      jump\t// out\n        /* \"#utility.yul\":8312:8855   */\n    tag_86:\n        /* \"#utility.yul\":8413:8415   */\n      0x1f\n        /* \"#utility.yul\":8408:8411   */\n      dup3\n        /* \"#utility.yul\":8405:8416   */\n      gt\n        /* \"#utility.yul\":8402:8848   */\n      iszero\n      tag_192\n      jumpi\n        /* \"#utility.yul\":8447:8485   */\n      tag_193\n        /* \"#utility.yul\":8479:8484   */\n      dup2\n        /* \"#utility.yul\":8447:8485   */\n      tag_74\n      jump\t// in\n    tag_193:\n        /* \"#utility.yul\":8531:8560   */\n      tag_194\n        /* \"#utility.yul\":8549:8559   */\n      dup5\n        /* \"#utility.yul\":8531:8560   */\n      tag_75\n      jump\t// in\n    tag_194:\n        /* \"#utility.yul\":8521:8529   */\n      dup2\n        /* \"#utility.yul\":8517:8561   */\n      add\n        /* \"#utility.yul\":8714:8716   */\n      0x20\n        /* \"#utility.yul\":8702:8712   */\n      dup6\n        /* \"#utility.yul\":8699:8717   */\n      lt\n        /* \"#utility.yul\":8696:8745   */\n      iszero\n      tag_195\n      jumpi\n        /* \"#utility.yul\":8735:8743   */\n      dup2\n        /* \"#utility.yul\":8720:8743   */\n      swap1\n      pop\n        /* \"#utility.yul\":8696:8745   */\n    tag_195:\n        /* \"#utility.yul\":8758:8838   */\n      tag_196\n        /* \"#utility.yul\":8814:8836   */\n      tag_197\n        /* \"#utility.yul\":8832:8835   */\n      dup6\n        /* \"#utility.yul\":8814:8836   */\n      tag_75\n      jump\t// in\n    tag_197:\n        /* \"#utility.yul\":8804:8812   */\n      dup4\n        /* \"#utility.yul\":8800:8837   */\n      add\n        /* \"#utility.yul\":8787:8798   */\n      dup3\n        /* \"#utility.yul\":8758:8838   */\n      tag_85\n      jump\t// in\n    tag_196:\n        /* \"#utility.yul\":8417:8848   */\n      pop\n      pop\n        /* \"#utility.yul\":8402:8848   */\n    tag_192:\n        /* \"#utility.yul\":8312:8855   */\n      pop\n      pop\n      pop\n      jump\t// out\n        /* \"#utility.yul\":8861:8978   */\n    tag_87:\n        /* \"#utility.yul\":8915:8923   */\n      0x00\n        /* \"#utility.yul\":8965:8970   */\n      dup3\n        /* \"#utility.yul\":8959:8963   */\n      dup3\n        /* \"#utility.yul\":8955:8971   */\n      shr\n        /* \"#utility.yul\":8934:8971   */\n      swap1\n      pop\n        /* \"#utility.yul\":8861:8978   */\n      swap3\n      swap2\n      pop\n      pop\n      jump\t// out\n        /* \"#utility.yul\":8984:9153   */\n    tag_88:\n        /* \"#utility.yul\":9028:9034   */\n      0x00\n        /* \"#utility.yul\":9061:9112   */\n      tag_200\n        /* \"#utility.yul\":9109:9110   */\n      0x00\n        /* \"#utility.yul\":9105:9111   */\n      not\n        /* \"#utility.yul\":9097:9102   */\n      dup5\n        /* \"#utility.yul\":9094:9095   */\n      0x08\n        /* \"#utility.yul\":9090:9103   */\n      mul\n        /* \"#utility.yul\":9061:9112   */\n      tag_87\n      jump\t// in\n    tag_200:\n        /* \"#utility.yul\":9057:9113   */\n      not\n        /* \"#utility.yul\":9142:9146   */\n      dup1\n        /* \"#utility.yul\":9136:9140   */\n      dup4\n        /* \"#utility.yul\":9132:9147   */\n      and\n        /* \"#utility.yul\":9122:9147   */\n      swap2\n      pop\n        /* \"#utility.yul\":9035:9153   */\n      pop\n        /* \"#utility.yul\":8984:9153   */\n      swap3\n      swap2\n      pop\n      pop\n      jump\t// out\n        /* \"#utility.yul\":9158:9453   */\n    tag_89:\n        /* \"#utility.yul\":9234:9238   */\n      0x00\n        /* \"#utility.yul\":9380:9409   */\n      tag_202\n        /* \"#utility.yul\":9405:9408   */\n      dup4\n        /* \"#utility.yul\":9399:9403   */\n      dup4\n        /* \"#utility.yul\":9380:9409   */\n      tag_88\n      jump\t// in\n    tag_202:\n        /* \"#utility.yul\":9372:9409   */\n      swap2\n      pop\n        /* \"#utility.yul\":9442:9445   */\n      dup3\n        /* \"#utility.yul\":9439:9440   */\n      0x02\n        /* \"#utility.yul\":9435:9446   */\n      mul\n        /* \"#utility.yul\":9429:9433   */\n      dup3\n        /* \"#utility.yul\":9426:9447   */\n      or\n        /* \"#utility.yul\":9418:9447   */\n      swap1\n      pop\n        /* \"#utility.yul\":9158:9453   */\n      swap3\n      swap2\n      pop\n      pop\n      jump\t// out\n        /* \"#utility.yul\":9458:10853   */\n    tag_43:\n        /* \"#utility.yul\":9575:9612   */\n      tag_204\n        /* \"#utility.yul\":9608:9611   */\n      dup3\n        /* \"#utility.yul\":9575:9612   */\n      tag_58\n      jump\t// in\n    tag_204:\n        /* \"#utility.yul\":9677:9695   */\n      0xffffffffffffffff\n        /* \"#utility.yul\":9669:9675   */\n      dup2\n        /* \"#utility.yul\":9666:9696   */\n      gt\n        /* \"#utility.yul\":9663:9719   */\n      iszero\n      tag_205\n      jumpi\n        /* \"#utility.yul\":9699:9717   */\n      tag_206\n      tag_65\n      jump\t// in\n    tag_206:\n        /* \"#utility.yul\":9663:9719   */\n    tag_205:\n        /* \"#utility.yul\":9743:9781   */\n      tag_207\n        /* \"#utility.yul\":9775:9779   */\n      dup3\n        /* \"#utility.yul\":9769:9780   */\n      sload\n        /* \"#utility.yul\":9743:9781   */\n      tag_33\n      jump\t// in\n    tag_207:\n        /* \"#utility.yul\":9828:9895   */\n      tag_208\n        /* \"#utility.yul\":9888:9894   */\n      dup3\n        /* \"#utility.yul\":9880:9886   */\n      dup3\n        /* \"#utility.yul\":9874:9878   */\n      dup6\n        /* \"#utility.yul\":9828:9895   */\n      tag_86\n      jump\t// in\n    tag_208:\n        /* \"#utility.yul\":9922:9923   */\n      0x00\n        /* \"#utility.yul\":9946:9950   */\n      0x20\n        /* \"#utility.yul\":9933:9950   */\n      swap1\n      pop\n        /* \"#utility.yul\":9978:9980   */\n      0x1f\n        /* \"#utility.yul\":9970:9976   */\n      dup4\n        /* \"#utility.yul\":9967:9981   */\n      gt\n        /* \"#utility.yul\":9995:9996   */\n      0x01\n        /* \"#utility.yul\":9990:10608   */\n      dup2\n      eq\n      tag_210\n      jumpi\n        /* \"#utility.yul\":10652:10653   */\n      0x00\n        /* \"#utility.yul\":10669:10675   */\n      dup5\n        /* \"#utility.yul\":10666:10743   */\n      iszero\n      tag_211\n      jumpi\n        /* \"#utility.yul\":10718:10727   */\n      dup3\n        /* \"#utility.yul\":10713:10716   */\n      dup8\n        /* \"#utility.yul\":10709:10728   */\n      add\n        /* \"#utility.yul\":10703:10729   */\n      mload\n        /* \"#utility.yul\":10694:10729   */\n      swap1\n      pop\n        /* \"#utility.yul\":10666:10743   */\n    tag_211:\n        /* \"#utility.yul\":10769:10836   */\n      tag_212\n        /* \"#utility.yul\":10829:10835   */\n      dup6\n        /* \"#utility.yul\":10822:10827   */\n      dup3\n        /* \"#utility.yul\":10769:10836   */\n      tag_89\n      jump\t// in\n    tag_212:\n        /* \"#utility.yul\":10763:10767   */\n      dup7\n        /* \"#utility.yul\":10756:10837   */\n      sstore\n        /* \"#utility.yul\":10625:10847   */\n      pop\n        /* \"#utility.yul\":9960:10847   */\n      jump(tag_209)\n        /* \"#utility.yul\":9990:10608   */\n    tag_210:\n        /* \"#utility.yul\":10042:10046   */\n      0x1f\n        /* \"#utility.yul\":10038:10047   */\n      not\n        /* \"#utility.yul\":10030:10036   */\n      dup5\n        /* \"#utility.yul\":10026:10048   */\n      and\n        /* \"#utility.yul\":10076:10113   */\n      tag_213\n        /* \"#utility.yul\":10108:10112   */\n      dup7\n        /* \"#utility.yul\":10076:10113   */\n      tag_74\n      jump\t// in\n    tag_213:\n        /* \"#utility.yul\":10135:10136   */\n      0x00\n        /* \"#utility.yul\":10149:10357   */\n    tag_214:\n        /* \"#utility.yul\":10163:10170   */\n      dup3\n        /* \"#utility.yul\":10160:10161   */\n      dup2\n        /* \"#utility.yul\":10157:10171   */\n      lt\n        /* \"#utility.yul\":10149:10357   */\n      iszero\n      tag_216\n      jumpi\n        /* \"#utility.yul\":10242:10251   */\n      dup5\n        /* \"#utility.yul\":10237:10240   */\n      dup10\n        /* \"#utility.yul\":10233:10252   */\n      add\n        /* \"#utility.yul\":10227:10253   */\n      mload\n        /* \"#utility.yul\":10219:10225   */\n      dup3\n        /* \"#utility.yul\":10212:10254   */\n      sstore\n        /* \"#utility.yul\":10293:10294   */\n      0x01\n        /* \"#utility.yul\":10285:10291   */\n      dup3\n        /* \"#utility.yul\":10281:10295   */\n      add\n        /* \"#utility.yul\":10271:10295   */\n      swap2\n      pop\n        /* \"#utility.yul\":10340:10342   */\n      0x20\n        /* \"#utility.yul\":10329:10338   */\n      dup6\n        /* \"#utility.yul\":10325:10343   */\n      add\n        /* \"#utility.yul\":10312:10343   */\n      swap5\n      pop\n        /* \"#utility.yul\":10186:10190   */\n      0x20\n        /* \"#utility.yul\":10183:10184   */\n      dup2\n        /* \"#utility.yul\":10179:10191   */\n      add\n        /* \"#utility.yul\":10174:10191   */\n      swap1\n      pop\n        /* \"#utility.yul\":10149:10357   */\n      jump(tag_214)\n    tag_216:\n        /* \"#utility.yul\":10385:10391   */\n      dup7\n        /* \"#utility.yul\":10376:10383   */\n      dup4\n        /* \"#utility.yul\":10373:10392   */\n      lt\n        /* \"#utility.yul\":10370:10549   */\n      iszero\n      tag_217\n      jumpi\n        /* \"#utility.yul\":10443:10452   */\n      dup5\n        /* \"#utility.yul\":10438:10441   */\n      dup10\n        /* \"#utility.yul\":10434:10453   */\n      add\n        /* \"#utility.yul\":10428:10454   */\n      mload\n        /* \"#utility.yul\":10486:10534   */\n      tag_218\n        /* \"#utility.yul\":10528:10532   */\n      0x1f\n        /* \"#utility.yul\":10520:10526   */\n      dup10\n        /* \"#utility.yul\":10516:10533   */\n      and\n        /* \"#utility.yul\":10505:10514   */\n      dup3\n        /* \"#utility.yul\":10486:10534   */\n      tag_88\n      jump\t// in\n    tag_218:\n        /* \"#utility.yul\":10478:10484   */\n      dup4\n        /* \"#utility.yul\":10471:10535   */\n      sstore\n        /* \"#utility.yul\":10393:10549   */\n      pop\n        /* \"#utility.yul\":10370:10549   */\n    tag_217:\n        /* \"#utility.yul\":10595:10596   */\n      0x01\n        /* \"#utility.yul\":10591:10592   */\n      0x02\n        /* \"#utility.yul\":10583:10589   */\n      dup9\n        /* \"#utility.yul\":10579:10593   */\n      mul\n        /* \"#utility.yul\":10575:10597   */\n      add\n        /* \"#utility.yul\":10569:10573   */\n      dup9\n        /* \"#utility.yul\":10562:10598   */\n      sstore\n        /* \"#utility.yul\":9997:10608   */\n      pop\n      pop\n      pop\n        /* \"#utility.yul\":9960:10847   */\n    tag_209:\n      pop\n        /* \"#utility.yul\":9550:10853   */\n      pop\n      pop\n      pop\n        /* \"#utility.yul\":9458:10853   */\n      pop\n      pop\n      jump\t// out\n        /* \"#utility.yul\":10859:11191   */\n    tag_45:\n        /* \"#utility.yul\":10980:10984   */\n      0x00\n        /* \"#utility.yul\":11018:11020   */\n      0x40\n        /* \"#utility.yul\":11007:11016   */\n      dup3\n        /* \"#utility.yul\":11003:11021   */\n      add\n        /* \"#utility.yul\":10995:11021   */\n      swap1\n      pop\n        /* \"#utility.yul\":11031:11102   */\n      tag_220\n        /* \"#utility.yul\":11099:11100   */\n      0x00\n        /* \"#utility.yul\":11088:11097   */\n      dup4\n        /* \"#utility.yul\":11084:11101   */\n      add\n        /* \"#utility.yul\":11075:11081   */\n      dup6\n        /* \"#utility.yul\":11031:11102   */\n      tag_72\n      jump\t// in\n    tag_220:\n        /* \"#utility.yul\":11112:11184   */\n      tag_221\n        /* \"#utility.yul\":11180:11182   */\n      0x20\n        /* \"#utility.yul\":11169:11178   */\n      dup4\n        /* \"#utility.yul\":11165:11183   */\n      add\n        /* \"#utility.yul\":11156:11162   */\n      dup5\n        /* \"#utility.yul\":11112:11184   */\n      tag_72\n      jump\t// in\n    tag_221:\n        /* \"#utility.yul\":10859:11191   */\n      swap4\n      swap3\n      pop\n      pop\n      pop\n      jump\t// out\n    stop\n\n    sub_0: assembly {\n            /* \"MemberBoard.sol\":61:2499  contract MemberBoard {... */\n          mstore(0x40, 0x80)\n          callvalue\n          dup1\n          iszero\n          tag_1\n          jumpi\n          0x00\n          dup1\n          revert\n        tag_1:\n          pop\n          dataSize(sub_0)\n          dup1\n          dataOffset(sub_0)\n          0x00\n          codecopy\n          0x00\n          return\n        stop\n\n        sub_0: assembly {\n                /* \"MemberBoard.sol\":61:2499  contract MemberBoard {... */\n              mstore(0x40, 0x80)\n              jumpi(tag_1, lt(calldatasize, 0x04))\n              shr(0xe0, calldataload(0x00))\n              dup1\n              0x455772d2\n              gt\n              tag_15\n              jumpi\n              dup1\n              0x8c468cd4\n              gt\n              tag_16\n              jumpi\n              dup1\n              0x8c468cd4\n              eq\n              tag_11\n              jumpi\n              dup1\n              0xa324823c\n              eq\n              tag_12\n              jumpi\n              dup1\n              0xd9a87535\n              eq\n              tag_13\n              jumpi\n              dup1\n              0xe8afa68f\n              eq\n              tag_14\n              jumpi\n              jump(tag_1)\n            tag_16:\n              dup1\n              0x455772d2\n              eq\n              tag_8\n              jumpi\n              dup1\n              0x572099b9\n              eq\n              tag_9\n              jumpi\n              dup1\n              0x71942a01\n              eq\n              tag_10\n              jumpi\n              jump(tag_1)\n            tag_15:\n              dup1\n              0x0936098f\n              eq\n              tag_2\n              jumpi\n              dup1\n              0x0a2bc366\n              eq\n              tag_3\n              jumpi\n              dup1\n              0x1292a282\n              eq\n              tag_4\n              jumpi\n              dup1\n              0x273f868e\n              eq\n              tag_5\n              jumpi\n              dup1\n              0x28f4694c\n              eq\n              tag_6\n              jumpi\n              dup1\n              0x3c1ab2a3\n              eq\n              tag_7\n              jumpi\n            tag_1:\n              0x00\n              dup1\n              revert\n                /* \"MemberBoard.sol\":89:113  address public memberOne */\n            tag_2:\n              callvalue\n              dup1\n              iszero\n              tag_17\n              jumpi\n              0x00\n              dup1\n              revert\n            tag_17:\n              pop\n              tag_18\n              tag_19\n              jump\t// in\n            tag_18:\n              mload(0x40)\n              tag_20\n              swap2\n              swap1\n              tag_21\n              jump\t// in\n            tag_20:\n              mload(0x40)\n              dup1\n              swap2\n              sub\n              swap1\n              return\n                /* \"MemberBoard.sol\":695:981  function createApplicant() public payable {... */\n            tag_3:\n              tag_22\n              tag_23\n              jump\t// in\n            tag_22:\n              stop\n                /* \"MemberBoard.sol\":1675:1815  function approveApplicant(address applicant) public {... */\n            tag_4:\n              callvalue\n              dup1\n              iszero\n              tag_24\n              jumpi\n              0x00\n              dup1\n              revert\n            tag_24:\n              pop\n              tag_25\n              0x04\n              dup1\n              calldatasize\n              sub\n              dup2\n              add\n              swap1\n              tag_26\n              swap2\n              swap1\n              tag_27\n              jump\t// in\n            tag_26:\n              tag_28\n              jump\t// in\n            tag_25:\n              stop\n                /* \"MemberBoard.sol\":1823:2127  function rejectApplicant(address applicant) public {... */\n            tag_5:\n              callvalue\n              dup1\n              iszero\n              tag_29\n              jumpi\n              0x00\n              dup1\n              revert\n            tag_29:\n              pop\n              tag_30\n              0x04\n              dup1\n              calldatasize\n              sub\n              dup2\n              add\n              swap1\n              tag_31\n              swap2\n              swap1\n              tag_27\n              jump\t// in\n            tag_31:\n              tag_32\n              jump\t// in\n            tag_30:\n              stop\n                /* \"MemberBoard.sol\":989:1489  function voteForApplicant(address applicant) public {... */\n            tag_6:\n              callvalue\n              dup1\n              iszero\n              tag_33\n              jumpi\n              0x00\n              dup1\n              revert\n            tag_33:\n              pop\n              tag_34\n              0x04\n              dup1\n              calldatasize\n              sub\n              dup2\n              add\n              swap1\n              tag_35\n              swap2\n              swap1\n              tag_27\n              jump\t// in\n            tag_35:\n              tag_36\n              jump\t// in\n            tag_34:\n              stop\n                /* \"MemberBoard.sol\":373:390  string public URL */\n            tag_7:\n              callvalue\n              dup1\n              iszero\n              tag_37\n              jumpi\n              0x00\n              dup1\n              revert\n            tag_37:\n              pop\n              tag_38\n              tag_39\n              jump\t// in\n            tag_38:\n              mload(0x40)\n              tag_40\n              swap2\n              swap1\n              tag_41\n              jump\t// in\n            tag_40:\n              mload(0x40)\n              dup1\n              swap2\n              sub\n              swap1\n              return\n                /* \"MemberBoard.sol\":584:687  function getApplicants() public view returns (address[] memory) {... */\n            tag_8:\n              callvalue\n              dup1\n              iszero\n              tag_42\n              jumpi\n              0x00\n              dup1\n              revert\n            tag_42:\n              pop\n              tag_43\n              tag_44\n              jump\t// in\n            tag_43:\n              mload(0x40)\n              tag_45\n              swap2\n              swap1\n              tag_46\n              jump\t// in\n            tag_45:\n              mload(0x40)\n              dup1\n              swap2\n              sub\n              swap1\n              return\n                /* \"MemberBoard.sol\":151:177  address public memberThree */\n            tag_9:\n              callvalue\n              dup1\n              iszero\n              tag_47\n              jumpi\n              0x00\n              dup1\n              revert\n            tag_47:\n              pop\n              tag_48\n              tag_49\n              jump\t// in\n            tag_48:\n              mload(0x40)\n              tag_50\n              swap2\n              swap1\n              tag_21\n              jump\t// in\n            tag_50:\n              mload(0x40)\n              dup1\n              swap2\n              sub\n              swap1\n              return\n                /* \"MemberBoard.sol\":427:576  function isBoardMember(address who) public view returns (bool) {... */\n            tag_10:\n              callvalue\n              dup1\n              iszero\n              tag_51\n              jumpi\n              0x00\n              dup1\n              revert\n            tag_51:\n              pop\n              tag_52\n              0x04\n              dup1\n              calldatasize\n              sub\n              dup2\n              add\n              swap1\n              tag_53\n              swap2\n              swap1\n              tag_27\n              jump\t// in\n            tag_53:\n              tag_54\n              jump\t// in\n            tag_52:\n              mload(0x40)\n              tag_55\n              swap2\n              swap1\n              tag_56\n              jump\t// in\n            tag_55:\n              mload(0x40)\n              dup1\n              swap2\n              sub\n              swap1\n              return\n                /* \"MemberBoard.sol\":186:216  address[] public applicantList */\n            tag_11:\n              callvalue\n              dup1\n              iszero\n              tag_57\n              jumpi\n              0x00\n              dup1\n              revert\n            tag_57:\n              pop\n              tag_58\n              0x04\n              dup1\n              calldatasize\n              sub\n              dup2\n              add\n              swap1\n              tag_59\n              swap2\n              swap1\n              tag_60\n              jump\t// in\n            tag_59:\n              tag_61\n              jump\t// in\n            tag_58:\n              mload(0x40)\n              tag_62\n              swap2\n              swap1\n              tag_21\n              jump\t// in\n            tag_62:\n              mload(0x40)\n              dup1\n              swap2\n              sub\n              swap1\n              return\n                /* \"MemberBoard.sol\":397:418  string public METAURL */\n            tag_12:\n              callvalue\n              dup1\n              iszero\n              tag_63\n              jumpi\n              0x00\n              dup1\n              revert\n            tag_63:\n              pop\n              tag_64\n              tag_65\n              jump\t// in\n            tag_64:\n              mload(0x40)\n              tag_66\n              swap2\n              swap1\n              tag_41\n              jump\t// in\n            tag_66:\n              mload(0x40)\n              dup1\n              swap2\n              sub\n              swap1\n              return\n                /* \"MemberBoard.sol\":1497:1667  function getApplicantVoteCount(address applicant)... */\n            tag_13:\n              callvalue\n              dup1\n              iszero\n              tag_67\n              jumpi\n              0x00\n              dup1\n              revert\n            tag_67:\n              pop\n              tag_68\n              0x04\n              dup1\n              calldatasize\n              sub\n              dup2\n              add\n              swap1\n              tag_69\n              swap2\n              swap1\n              tag_27\n              jump\t// in\n            tag_69:\n              tag_70\n              jump\t// in\n            tag_68:\n              mload(0x40)\n              tag_71\n              swap2\n              swap1\n              tag_72\n              jump\t// in\n            tag_71:\n              mload(0x40)\n              dup1\n              swap2\n              sub\n              swap1\n              return\n                /* \"MemberBoard.sol\":120:144  address public memberTwo */\n            tag_14:\n              callvalue\n              dup1\n              iszero\n              tag_73\n              jumpi\n              0x00\n              dup1\n              revert\n            tag_73:\n              pop\n              tag_74\n              tag_75\n              jump\t// in\n            tag_74:\n              mload(0x40)\n              tag_76\n              swap2\n              swap1\n              tag_21\n              jump\t// in\n            tag_76:\n              mload(0x40)\n              dup1\n              swap2\n              sub\n              swap1\n              return\n                /* \"MemberBoard.sol\":89:113  address public memberOne */\n            tag_19:\n              0x00\n              dup1\n              sload\n              swap1\n              0x0100\n              exp\n              swap1\n              div\n              0xffffffffffffffffffffffffffffffffffffffff\n              and\n              dup2\n              jump\t// out\n                /* \"MemberBoard.sol\":695:981  function createApplicant() public payable {... */\n            tag_23:\n                /* \"MemberBoard.sol\":757:773  activeApplicants */\n              0x06\n                /* \"MemberBoard.sol\":757:785  activeApplicants[msg.sender] */\n              0x00\n                /* \"MemberBoard.sol\":774:784  msg.sender */\n              caller\n                /* \"MemberBoard.sol\":757:785  activeApplicants[msg.sender] */\n              0xffffffffffffffffffffffffffffffffffffffff\n              and\n              0xffffffffffffffffffffffffffffffffffffffff\n              and\n              dup2\n              mstore\n              0x20\n              add\n              swap1\n              dup2\n              mstore\n              0x20\n              add\n              0x00\n              keccak256\n              0x00\n              swap1\n              sload\n              swap1\n              0x0100\n              exp\n              swap1\n              div\n              0xff\n              and\n                /* \"MemberBoard.sol\":756:785  !activeApplicants[msg.sender] */\n              iszero\n                /* \"MemberBoard.sol\":748:814  require(!activeApplicants[msg.sender], \"Already active applicant\") */\n              tag_78\n              jumpi\n              mload(0x40)\n              0x08c379a000000000000000000000000000000000000000000000000000000000\n              dup2\n              mstore\n              0x04\n              add\n              tag_79\n              swap1\n              tag_80\n              jump\t// in\n            tag_79:\n              mload(0x40)\n              dup1\n              swap2\n              sub\n              swap1\n              revert\n            tag_78:\n                /* \"MemberBoard.sol\":863:865  -3 */\n              0xfffffffffffffffffffffffffffffffffffffffffffffffffffffffffffffffd\n                /* \"MemberBoard.sol\":833:848  applicantPoints */\n              0x05\n                /* \"MemberBoard.sol\":833:860  applicantPoints[msg.sender] */\n              0x00\n                /* \"MemberBoard.sol\":849:859  msg.sender */\n              caller\n                /* \"MemberBoard.sol\":833:860  applicantPoints[msg.sender] */\n              0xffffffffffffffffffffffffffffffffffffffff\n              and\n              0xffffffffffffffffffffffffffffffffffffffff\n              and\n              dup2\n              mstore\n              0x20\n              add\n              swap1\n              dup2\n              mstore\n              0x20\n              add\n              0x00\n              keccak256\n              sload\n                /* \"MemberBoard.sol\":833:865  applicantPoints[msg.sender] > -3 */\n              sgt\n                /* \"MemberBoard.sol\":825:886  require(applicantPoints[msg.sender] > -3, \"account rejected\") */\n              tag_81\n              jumpi\n              mload(0x40)\n              0x08c379a000000000000000000000000000000000000000000000000000000000\n              dup2\n              mstore\n              0x04\n              add\n              tag_82\n              swap1\n              tag_83\n              jump\t// in\n            tag_82:\n              mload(0x40)\n              dup1\n              swap2\n              sub\n              swap1\n              revert\n            tag_81:\n                /* \"MemberBoard.sol\":928:932  true */\n              0x01\n                /* \"MemberBoard.sol\":897:913  activeApplicants */\n              0x06\n                /* \"MemberBoard.sol\":897:925  activeApplicants[msg.sender] */\n              0x00\n                /* \"MemberBoard.sol\":914:924  msg.sender */\n              caller\n                /* \"MemberBoard.sol\":897:925  activeApplicants[msg.sender] */\n              0xffffffffffffffffffffffffffffffffffffffff\n              and\n              0xffffffffffffffffffffffffffffffffffffffff\n              and\n              dup2\n              mstore\n              0x20\n              add\n              swap1\n              dup2\n              mstore\n              0x20\n              add\n              0x00\n              keccak256\n              0x00\n                /* \"MemberBoard.sol\":897:932  activeApplicants[msg.sender] = true */\n              0x0100\n              exp\n              dup2\n              sload\n              dup2\n              0xff\n              mul\n              not\n              and\n              swap1\n              dup4\n              iszero\n              iszero\n              mul\n              or\n              swap1\n              sstore\n              pop\n                /* \"MemberBoard.sol\":943:956  applicantList */\n              0x03\n                /* \"MemberBoard.sol\":962:972  msg.sender */\n              caller\n                /* \"MemberBoard.sol\":943:973  applicantList.push(msg.sender) */\n              swap1\n              dup1\n              0x01\n              dup2\n              sload\n              add\n              dup1\n              dup3\n              sstore\n              dup1\n              swap2\n              pop\n              pop\n              0x01\n              swap1\n              sub\n              swap1\n              0x00\n              mstore\n              keccak256(0x00, 0x20)\n              add\n              0x00\n              swap1\n              swap2\n              swap1\n              swap2\n              swap1\n              swap2\n              0x0100\n              exp\n              dup2\n              sload\n              dup2\n              0xffffffffffffffffffffffffffffffffffffffff\n              mul\n              not\n              and\n              swap1\n              dup4\n              0xffffffffffffffffffffffffffffffffffffffff\n              and\n              mul\n              or\n              swap1\n              sstore\n              pop\n                /* \"MemberBoard.sol\":695:981  function createApplicant() public payable {... */\n              jump\t// out\n                /* \"MemberBoard.sol\":1675:1815  function approveApplicant(address applicant) public {... */\n            tag_28:\n                /* \"MemberBoard.sol\":1738:1763  _burnApplicant(applicant) */\n              tag_86\n                /* \"MemberBoard.sol\":1753:1762  applicant */\n              dup2\n                /* \"MemberBoard.sol\":1738:1752  _burnApplicant */\n              tag_87\n                /* \"MemberBoard.sol\":1738:1763  _burnApplicant(applicant) */\n              jump\t// in\n            tag_86:\n                /* \"MemberBoard.sol\":1781:1795  applicantVotes */\n              0x04\n                /* \"MemberBoard.sol\":1781:1807  applicantVotes[msg.sender] */\n              0x00\n                /* \"MemberBoard.sol\":1796:1806  msg.sender */\n              caller\n                /* \"MemberBoard.sol\":1781:1807  applicantVotes[msg.sender] */\n              0xffffffffffffffffffffffffffffffffffffffff\n              and\n              0xffffffffffffffffffffffffffffffffffffffff\n              and\n              dup2\n              mstore\n              0x20\n              add\n              swap1\n              dup2\n              mstore\n              0x20\n              add\n              0x00\n              keccak256\n              0x00\n                /* \"MemberBoard.sol\":1774:1807  delete applicantVotes[msg.sender] */\n              tag_88\n              swap2\n              swap1\n              tag_89\n              jump\t// in\n            tag_88:\n                /* \"MemberBoard.sol\":1675:1815  function approveApplicant(address applicant) public {... */\n              pop\n              jump\t// out\n                /* \"MemberBoard.sol\":1823:2127  function rejectApplicant(address applicant) public {... */\n            tag_32:\n                /* \"MemberBoard.sol\":1893:1909  activeApplicants */\n              0x06\n                /* \"MemberBoard.sol\":1893:1920  activeApplicants[applicant] */\n              0x00\n                /* \"MemberBoard.sol\":1910:1919  applicant */\n              dup3\n                /* \"MemberBoard.sol\":1893:1920  activeApplicants[applicant] */\n              0xffffffffffffffffffffffffffffffffffffffff\n              and\n              0xffffffffffffffffffffffffffffffffffffffff\n              and\n              dup2\n              mstore\n              0x20\n              add\n              swap1\n              dup2\n              mstore\n              0x20\n              add\n              0x00\n              keccak256\n              0x00\n              swap1\n              sload\n              swap1\n              0x0100\n              exp\n              swap1\n              div\n              0xff\n              and\n                /* \"MemberBoard.sol\":1885:1950  require(activeApplicants[applicant], \"Invalid applicant address\") */\n              tag_91\n              jumpi\n              mload(0x40)\n              0x08c379a000000000000000000000000000000000000000000000000000000000\n              dup2\n              mstore\n              0x04\n              add\n              tag_92\n              swap1\n              tag_93\n              jump\t// in\n            tag_92:\n              mload(0x40)\n              dup1\n              swap2\n              sub\n              swap1\n              revert\n            tag_91:\n                /* \"MemberBoard.sol\":1991:1996  false */\n              0x00\n                /* \"MemberBoard.sol\":1961:1977  activeApplicants */\n              0x06\n                /* \"MemberBoard.sol\":1961:1988  activeApplicants[applicant] */\n              0x00\n                /* \"MemberBoard.sol\":1978:1987  applicant */\n              dup4\n                /* \"MemberBoard.sol\":1961:1988  activeApplicants[applicant] */\n              0xffffffffffffffffffffffffffffffffffffffff\n              and\n              0xffffffffffffffffffffffffffffffffffffffff\n              and\n              dup2\n              mstore\n              0x20\n              add\n              swap1\n              dup2\n              mstore\n              0x20\n              add\n              0x00\n              keccak256\n              0x00\n                /* \"MemberBoard.sol\":1961:1996  activeApplicants[applicant] = false */\n              0x0100\n              exp\n              dup2\n              sload\n              dup2\n              0xff\n              mul\n              not\n              and\n              swap1\n              dup4\n              iszero\n              iszero\n              mul\n              or\n              swap1\n              sstore\n              pop\n                /* \"MemberBoard.sol\":2038:2039  1 */\n              0x01\n                /* \"MemberBoard.sol\":2007:2022  applicantPoints */\n              0x05\n                /* \"MemberBoard.sol\":2007:2034  applicantPoints[msg.sender] */\n              0x00\n                /* \"MemberBoard.sol\":2023:2033  msg.sender */\n              caller\n                /* \"MemberBoard.sol\":2007:2034  applicantPoints[msg.sender] */\n              0xffffffffffffffffffffffffffffffffffffffff\n              and\n              0xffffffffffffffffffffffffffffffffffffffff\n              and\n              dup2\n              mstore\n              0x20\n              add\n              swap1\n              dup2\n              mstore\n              0x20\n              add\n              0x00\n              keccak256\n              0x00\n                /* \"MemberBoard.sol\":2007:2039  applicantPoints[msg.sender] -= 1 */\n              dup3\n              dup3\n              sload\n              tag_94\n              swap2\n              swap1\n              tag_95\n              jump\t// in\n            tag_94:\n              swap3\n              pop\n              pop\n              dup2\n              swap1\n              sstore\n              pop\n                /* \"MemberBoard.sol\":2050:2075  _burnApplicant(applicant) */\n              tag_96\n                /* \"MemberBoard.sol\":2065:2074  applicant */\n              dup2\n                /* \"MemberBoard.sol\":2050:2064  _burnApplicant */\n              tag_87\n                /* \"MemberBoard.sol\":2050:2075  _burnApplicant(applicant) */\n              jump\t// in\n            tag_96:\n                /* \"MemberBoard.sol\":2093:2107  applicantVotes */\n              0x04\n                /* \"MemberBoard.sol\":2093:2119  applicantVotes[msg.sender] */\n              0x00\n                /* \"MemberBoard.sol\":2108:2118  msg.sender */\n              caller\n                /* \"MemberBoard.sol\":2093:2119  applicantVotes[msg.sender] */\n              0xffffffffffffffffffffffffffffffffffffffff\n              and\n              0xffffffffffffffffffffffffffffffffffffffff\n              and\n              dup2\n              mstore\n              0x20\n              add\n              swap1\n              dup2\n              mstore\n              0x20\n              add\n              0x00\n              keccak256\n              0x00\n                /* \"MemberBoard.sol\":2086:2119  delete applicantVotes[msg.sender] */\n              tag_97\n              swap2\n              swap1\n              tag_89\n              jump\t// in\n            tag_97:\n                /* \"MemberBoard.sol\":1823:2127  function rejectApplicant(address applicant) public {... */\n              pop\n              jump\t// out\n                /* \"MemberBoard.sol\":989:1489  function voteForApplicant(address applicant) public {... */\n            tag_36:\n                /* \"MemberBoard.sol\":1060:1076  activeApplicants */\n              0x06\n                /* \"MemberBoard.sol\":1060:1087  activeApplicants[applicant] */\n              0x00\n                /* \"MemberBoard.sol\":1077:1086  applicant */\n              dup3\n                /* \"MemberBoard.sol\":1060:1087  activeApplicants[applicant] */\n              0xffffffffffffffffffffffffffffffffffffffff\n              and\n              0xffffffffffffffffffffffffffffffffffffffff\n              and\n              dup2\n              mstore\n              0x20\n              add\n              swap1\n              dup2\n              mstore\n              0x20\n              add\n              0x00\n              keccak256\n              0x00\n              swap1\n              sload\n              swap1\n              0x0100\n              exp\n              swap1\n              div\n              0xff\n              and\n                /* \"MemberBoard.sol\":1052:1107  require(activeApplicants[applicant], \"Not a applicant\") */\n              tag_99\n              jumpi\n              mload(0x40)\n              0x08c379a000000000000000000000000000000000000000000000000000000000\n              dup2\n              mstore\n              0x04\n              add\n              tag_100\n              swap1\n              tag_101\n              jump\t// in\n            tag_100:\n              mload(0x40)\n              dup1\n              swap2\n              sub\n              swap1\n              revert\n            tag_99:\n                /* \"MemberBoard.sol\":1118:1130  bool didVote */\n              0x00\n                /* \"MemberBoard.sol\":1154:1163  uint256 i */\n              dup1\n                /* \"MemberBoard.sol\":1149:1335  for (uint256 i = 0; i < applicantVotes[applicant].length; i++) {... */\n            tag_102:\n                /* \"MemberBoard.sol\":1173:1187  applicantVotes */\n              0x04\n                /* \"MemberBoard.sol\":1173:1198  applicantVotes[applicant] */\n              0x00\n                /* \"MemberBoard.sol\":1188:1197  applicant */\n              dup5\n                /* \"MemberBoard.sol\":1173:1198  applicantVotes[applicant] */\n              0xffffffffffffffffffffffffffffffffffffffff\n              and\n              0xffffffffffffffffffffffffffffffffffffffff\n              and\n              dup2\n              mstore\n              0x20\n              add\n              swap1\n              dup2\n              mstore\n              0x20\n              add\n              0x00\n              keccak256\n                /* \"MemberBoard.sol\":1173:1205  applicantVotes[applicant].length */\n              dup1\n              sload\n              swap1\n              pop\n                /* \"MemberBoard.sol\":1169:1170  i */\n              dup2\n                /* \"MemberBoard.sol\":1169:1205  i < applicantVotes[applicant].length */\n              lt\n                /* \"MemberBoard.sol\":1149:1335  for (uint256 i = 0; i < applicantVotes[applicant].length; i++) {... */\n              iszero\n              tag_103\n              jumpi\n                /* \"MemberBoard.sol\":1263:1273  msg.sender */\n              caller\n                /* \"MemberBoard.sol\":1231:1273  applicantVotes[applicant][i] == msg.sender */\n              0xffffffffffffffffffffffffffffffffffffffff\n              and\n                /* \"MemberBoard.sol\":1231:1245  applicantVotes */\n              0x04\n                /* \"MemberBoard.sol\":1231:1256  applicantVotes[applicant] */\n              0x00\n                /* \"MemberBoard.sol\":1246:1255  applicant */\n              dup6\n                /* \"MemberBoard.sol\":1231:1256  applicantVotes[applicant] */\n              0xffffffffffffffffffffffffffffffffffffffff\n              and\n              0xffffffffffffffffffffffffffffffffffffffff\n              and\n              dup2\n              mstore\n              0x20\n              add\n              swap1\n              dup2\n              mstore\n              0x20\n              add\n              0x00\n              keccak256\n                /* \"MemberBoard.sol\":1257:1258  i */\n              dup3\n                /* \"MemberBoard.sol\":1231:1259  applicantVotes[applicant][i] */\n              dup2\n              sload\n              dup2\n              lt\n              tag_105\n              jumpi\n              tag_106\n              tag_107\n              jump\t// in\n            tag_106:\n            tag_105:\n              swap1\n              0x00\n              mstore\n              keccak256(0x00, 0x20)\n              add\n              0x00\n              swap1\n              sload\n              swap1\n              0x0100\n              exp\n              swap1\n              div\n              0xffffffffffffffffffffffffffffffffffffffff\n              and\n                /* \"MemberBoard.sol\":1231:1273  applicantVotes[applicant][i] == msg.sender */\n              0xffffffffffffffffffffffffffffffffffffffff\n              and\n              sub\n                /* \"MemberBoard.sol\":1227:1324  if (applicantVotes[applicant][i] == msg.sender) {... */\n              tag_109\n              jumpi\n                /* \"MemberBoard.sol\":1304:1308  true */\n              0x01\n                /* \"MemberBoard.sol\":1294:1308  didVote = true */\n              swap2\n              pop\n                /* \"MemberBoard.sol\":1227:1324  if (applicantVotes[applicant][i] == msg.sender) {... */\n            tag_109:\n                /* \"MemberBoard.sol\":1207:1210  i++ */\n              dup1\n              dup1\n              tag_110\n              swap1\n              tag_111\n              jump\t// in\n            tag_110:\n              swap2\n              pop\n              pop\n                /* \"MemberBoard.sol\":1149:1335  for (uint256 i = 0; i < applicantVotes[applicant].length; i++) {... */\n              jump(tag_102)\n            tag_103:\n              pop\n                /* \"MemberBoard.sol\":1354:1361  didVote */\n              dup1\n                /* \"MemberBoard.sol\":1353:1361  !didVote */\n              iszero\n                /* \"MemberBoard.sol\":1345:1386  require(!didVote, \"Sender already voted\") */\n              tag_112\n              jumpi\n              mload(0x40)\n              0x08c379a000000000000000000000000000000000000000000000000000000000\n              dup2\n              mstore\n              0x04\n              add\n              tag_113\n              swap1\n              tag_114\n              jump\t// in\n            tag_113:\n              mload(0x40)\n              dup1\n              swap2\n              sub\n              swap1\n              revert\n            tag_112:\n                /* \"MemberBoard.sol\":1397:1411  applicantVotes */\n              0x04\n                /* \"MemberBoard.sol\":1397:1422  applicantVotes[applicant] */\n              0x00\n                /* \"MemberBoard.sol\":1412:1421  applicant */\n              dup4\n                /* \"MemberBoard.sol\":1397:1422  applicantVotes[applicant] */\n              0xffffffffffffffffffffffffffffffffffffffff\n              and\n              0xffffffffffffffffffffffffffffffffffffffff\n              and\n              dup2\n              mstore\n              0x20\n              add\n              swap1\n              dup2\n              mstore\n              0x20\n              add\n              0x00\n              keccak256\n                /* \"MemberBoard.sol\":1428:1438  msg.sender */\n              caller\n                /* \"MemberBoard.sol\":1397:1439  applicantVotes[applicant].push(msg.sender) */\n              swap1\n              dup1\n              0x01\n              dup2\n              sload\n              add\n              dup1\n              dup3\n              sstore\n              dup1\n              swap2\n              pop\n              pop\n              0x01\n              swap1\n              sub\n              swap1\n              0x00\n              mstore\n              keccak256(0x00, 0x20)\n              add\n              0x00\n              swap1\n              swap2\n              swap1\n              swap2\n              swap1\n              swap2\n              0x0100\n              exp\n              dup2\n              sload\n              dup2\n              0xffffffffffffffffffffffffffffffffffffffff\n              mul\n              not\n              and\n              swap1\n              dup4\n              0xffffffffffffffffffffffffffffffffffffffff\n              and\n              mul\n              or\n              swap1\n              sstore\n              pop\n                /* \"MemberBoard.sol\":1480:1481  1 */\n              0x01\n                /* \"MemberBoard.sol\":1450:1465  applicantPoints */\n              0x05\n                /* \"MemberBoard.sol\":1450:1476  applicantPoints[applicant] */\n              0x00\n                /* \"MemberBoard.sol\":1466:1475  applicant */\n              dup5\n                /* \"MemberBoard.sol\":1450:1476  applicantPoints[applicant] */\n              0xffffffffffffffffffffffffffffffffffffffff\n              and\n              0xffffffffffffffffffffffffffffffffffffffff\n              and\n              dup2\n              mstore\n              0x20\n              add\n              swap1\n              dup2\n              mstore\n              0x20\n              add\n              0x00\n              keccak256\n              0x00\n                /* \"MemberBoard.sol\":1450:1481  applicantPoints[applicant] += 1 */\n              dup3\n              dup3\n              sload\n              tag_116\n              swap2\n              swap1\n              tag_117\n              jump\t// in\n            tag_116:\n              swap3\n              pop\n              pop\n              dup2\n              swap1\n              sstore\n              pop\n                /* \"MemberBoard.sol\":1041:1489  {... */\n              pop\n                /* \"MemberBoard.sol\":989:1489  function voteForApplicant(address applicant) public {... */\n              pop\n              jump\t// out\n                /* \"MemberBoard.sol\":373:390  string public URL */\n            tag_39:\n              0x07\n              dup1\n              sload\n              tag_118\n              swap1\n              tag_119\n              jump\t// in\n            tag_118:\n              dup1\n              0x1f\n              add\n              0x20\n              dup1\n              swap2\n              div\n              mul\n              0x20\n              add\n              mload(0x40)\n              swap1\n              dup2\n              add\n              0x40\n              mstore\n              dup1\n              swap3\n              swap2\n              swap1\n              dup2\n              dup2\n              mstore\n              0x20\n              add\n              dup3\n              dup1\n              sload\n              tag_120\n              swap1\n              tag_119\n              jump\t// in\n            tag_120:\n              dup1\n              iszero\n              tag_121\n              jumpi\n              dup1\n              0x1f\n              lt\n              tag_122\n              jumpi\n              0x0100\n              dup1\n              dup4\n              sload\n              div\n              mul\n              dup4\n              mstore\n              swap2\n              0x20\n              add\n              swap2\n              jump(tag_121)\n            tag_122:\n              dup3\n              add\n              swap2\n              swap1\n              0x00\n              mstore\n              keccak256(0x00, 0x20)\n              swap1\n            tag_123:\n              dup2\n              sload\n              dup2\n              mstore\n              swap1\n              0x01\n              add\n              swap1\n              0x20\n              add\n              dup1\n              dup4\n              gt\n              tag_123\n              jumpi\n              dup3\n              swap1\n              sub\n              0x1f\n              and\n              dup3\n              add\n              swap2\n            tag_121:\n              pop\n              pop\n              pop\n              pop\n              pop\n              dup2\n              jump\t// out\n                /* \"MemberBoard.sol\":584:687  function getApplicants() public view returns (address[] memory) {... */\n            tag_44:\n                /* \"MemberBoard.sol\":630:646  address[] memory */\n              0x60\n                /* \"MemberBoard.sol\":666:679  applicantList */\n              0x03\n                /* \"MemberBoard.sol\":659:679  return applicantList */\n              dup1\n              sload\n              dup1\n              0x20\n              mul\n              0x20\n              add\n              mload(0x40)\n              swap1\n              dup2\n              add\n              0x40\n              mstore\n              dup1\n              swap3\n              swap2\n              swap1\n              dup2\n              dup2\n              mstore\n              0x20\n              add\n              dup3\n              dup1\n              sload\n              dup1\n              iszero\n              tag_125\n              jumpi\n              0x20\n              mul\n              dup3\n              add\n              swap2\n              swap1\n              0x00\n              mstore\n              keccak256(0x00, 0x20)\n              swap1\n            tag_126:\n              dup2\n              0x00\n              swap1\n              sload\n              swap1\n              0x0100\n              exp\n              swap1\n              div\n              0xffffffffffffffffffffffffffffffffffffffff\n              and\n              0xffffffffffffffffffffffffffffffffffffffff\n              and\n              dup2\n              mstore\n              0x20\n              add\n              swap1\n              0x01\n              add\n              swap1\n              dup1\n              dup4\n              gt\n              tag_126\n              jumpi\n            tag_125:\n              pop\n              pop\n              pop\n              pop\n              pop\n              swap1\n              pop\n                /* \"MemberBoard.sol\":584:687  function getApplicants() public view returns (address[] memory) {... */\n              swap1\n              jump\t// out\n                /* \"MemberBoard.sol\":151:177  address public memberThree */\n            tag_49:\n              0x02\n              0x00\n              swap1\n              sload\n              swap1\n              0x0100\n              exp\n              swap1\n              div\n              0xffffffffffffffffffffffffffffffffffffffff\n              and\n              dup2\n              jump\t// out\n                /* \"MemberBoard.sol\":427:576  function isBoardMember(address who) public view returns (bool) {... */\n            tag_54:\n                /* \"MemberBoard.sol\":484:488  bool */\n              0x00\n                /* \"MemberBoard.sol\":516:525  memberOne */\n              dup1\n              0x00\n              swap1\n              sload\n              swap1\n              0x0100\n              exp\n              swap1\n              div\n              0xffffffffffffffffffffffffffffffffffffffff\n              and\n                /* \"MemberBoard.sol\":509:525  who == memberOne */\n              0xffffffffffffffffffffffffffffffffffffffff\n              and\n                /* \"MemberBoard.sol\":509:512  who */\n              dup3\n                /* \"MemberBoard.sol\":509:525  who == memberOne */\n              0xffffffffffffffffffffffffffffffffffffffff\n              and\n              eq\n                /* \"MemberBoard.sol\":509:545  who == memberOne || who == memberTwo */\n              dup1\n              tag_128\n              jumpi\n              pop\n                /* \"MemberBoard.sol\":536:545  memberTwo */\n              0x01\n              0x00\n              swap1\n              sload\n              swap1\n              0x0100\n              exp\n              swap1\n              div\n              0xffffffffffffffffffffffffffffffffffffffff\n              and\n                /* \"MemberBoard.sol\":529:545  who == memberTwo */\n              0xffffffffffffffffffffffffffffffffffffffff\n              and\n                /* \"MemberBoard.sol\":529:532  who */\n              dup3\n                /* \"MemberBoard.sol\":529:545  who == memberTwo */\n              0xffffffffffffffffffffffffffffffffffffffff\n              and\n              eq\n                /* \"MemberBoard.sol\":509:545  who == memberOne || who == memberTwo */\n            tag_128:\n                /* \"MemberBoard.sol\":509:567  who == memberOne || who == memberTwo || who == memberThree */\n              dup1\n              tag_129\n              jumpi\n              pop\n                /* \"MemberBoard.sol\":556:567  memberThree */\n              0x02\n              0x00\n              swap1\n              sload\n              swap1\n              0x0100\n              exp\n              swap1\n              div\n              0xffffffffffffffffffffffffffffffffffffffff\n              and\n                /* \"MemberBoard.sol\":549:567  who == memberThree */\n              0xffffffffffffffffffffffffffffffffffffffff\n              and\n                /* \"MemberBoard.sol\":549:552  who */\n              dup3\n                /* \"MemberBoard.sol\":549:567  who == memberThree */\n              0xffffffffffffffffffffffffffffffffffffffff\n              and\n              eq\n                /* \"MemberBoard.sol\":509:567  who == memberOne || who == memberTwo || who == memberThree */\n            tag_129:\n                /* \"MemberBoard.sol\":501:568  return (who == memberOne || who == memberTwo || who == memberThree) */\n              swap1\n              pop\n                /* \"MemberBoard.sol\":427:576  function isBoardMember(address who) public view returns (bool) {... */\n              swap2\n              swap1\n              pop\n              jump\t// out\n                /* \"MemberBoard.sol\":186:216  address[] public applicantList */\n            tag_61:\n              0x03\n              dup2\n              dup2\n              sload\n              dup2\n              lt\n              tag_130\n              jumpi\n              0x00\n              dup1\n              revert\n            tag_130:\n              swap1\n              0x00\n              mstore\n              keccak256(0x00, 0x20)\n              add\n              0x00\n              swap2\n              pop\n              sload\n              swap1\n              0x0100\n              exp\n              swap1\n              div\n              0xffffffffffffffffffffffffffffffffffffffff\n              and\n              dup2\n              jump\t// out\n                /* \"MemberBoard.sol\":397:418  string public METAURL */\n            tag_65:\n              0x08\n              dup1\n              sload\n              tag_132\n              swap1\n              tag_119\n              jump\t// in\n            tag_132:\n              dup1\n              0x1f\n              add\n              0x20\n              dup1\n              swap2\n              div\n              mul\n              0x20\n              add\n              mload(0x40)\n              swap1\n              dup2\n              add\n              0x40\n              mstore\n              dup1\n              swap3\n              swap2\n              swap1\n              dup2\n              dup2\n              mstore\n              0x20\n              add\n              dup3\n              dup1\n              sload\n              tag_133\n              swap1\n              tag_119\n              jump\t// in\n            tag_133:\n              dup1\n              iszero\n              tag_134\n              jumpi\n              dup1\n              0x1f\n              lt\n              tag_135\n              jumpi\n              0x0100\n              dup1\n              dup4\n              sload\n              div\n              mul\n              dup4\n              mstore\n              swap2\n              0x20\n              add\n              swap2\n              jump(tag_134)\n            tag_135:\n              dup3\n              add\n              swap2\n              swap1\n              0x00\n              mstore\n              keccak256(0x00, 0x20)\n              swap1\n            tag_136:\n              dup2\n              sload\n              dup2\n              mstore\n              swap1\n              0x01\n              add\n              swap1\n              0x20\n              add\n              dup1\n              dup4\n              gt\n              tag_136\n              jumpi\n              dup3\n              swap1\n              sub\n              0x1f\n              and\n              dup3\n              add\n              swap2\n            tag_134:\n              pop\n              pop\n              pop\n              pop\n              pop\n              dup2\n              jump\t// out\n                /* \"MemberBoard.sol\":1497:1667  function getApplicantVoteCount(address applicant)... */\n            tag_70:\n                /* \"MemberBoard.sol\":1595:1602  uint256 */\n              0x00\n                /* \"MemberBoard.sol\":1627:1641  applicantVotes */\n              0x04\n                /* \"MemberBoard.sol\":1627:1652  applicantVotes[applicant] */\n              0x00\n                /* \"MemberBoard.sol\":1642:1651  applicant */\n              dup4\n                /* \"MemberBoard.sol\":1627:1652  applicantVotes[applicant] */\n              0xffffffffffffffffffffffffffffffffffffffff\n              and\n              0xffffffffffffffffffffffffffffffffffffffff\n              and\n              dup2\n              mstore\n              0x20\n              add\n              swap1\n              dup2\n              mstore\n              0x20\n              add\n              0x00\n              keccak256\n                /* \"MemberBoard.sol\":1627:1659  applicantVotes[applicant].length */\n              dup1\n              sload\n              swap1\n              pop\n                /* \"MemberBoard.sol\":1620:1659  return applicantVotes[applicant].length */\n              swap1\n              pop\n                /* \"MemberBoard.sol\":1497:1667  function getApplicantVoteCount(address applicant)... */\n              swap2\n              swap1\n              pop\n              jump\t// out\n                /* \"MemberBoard.sol\":120:144  address public memberTwo */\n            tag_75:\n              0x01\n              0x00\n              swap1\n              sload\n              swap1\n              0x0100\n              exp\n              swap1\n              div\n              0xffffffffffffffffffffffffffffffffffffffff\n              and\n              dup2\n              jump\t// out\n                /* \"MemberBoard.sol\":2135:2496  function _burnApplicant(address applicant) internal {... */\n            tag_87:\n                /* \"MemberBoard.sol\":2198:2211  uint256 index */\n              0x00\n                /* \"MemberBoard.sol\":2226:2386  for (index = 0; index < applicantList.length; index++) {... */\n            tag_139:\n                /* \"MemberBoard.sol\":2250:2263  applicantList */\n              0x03\n                /* \"MemberBoard.sol\":2250:2270  applicantList.length */\n              dup1\n              sload\n              swap1\n              pop\n                /* \"MemberBoard.sol\":2242:2247  index */\n              dup2\n                /* \"MemberBoard.sol\":2242:2270  index < applicantList.length */\n              lt\n                /* \"MemberBoard.sol\":2226:2386  for (index = 0; index < applicantList.length; index++) {... */\n              iszero\n              tag_140\n              jumpi\n                /* \"MemberBoard.sol\":2324:2333  applicant */\n              dup2\n                /* \"MemberBoard.sol\":2300:2333  applicantList[index] == applicant */\n              0xffffffffffffffffffffffffffffffffffffffff\n              and\n                /* \"MemberBoard.sol\":2300:2313  applicantList */\n              0x03\n                /* \"MemberBoard.sol\":2314:2319  index */\n              dup3\n                /* \"MemberBoard.sol\":2300:2320  applicantList[index] */\n              dup2\n              sload\n              dup2\n              lt\n              tag_142\n              jumpi\n              tag_143\n              tag_107\n              jump\t// in\n            tag_143:\n            tag_142:\n              swap1\n              0x00\n              mstore\n              keccak256(0x00, 0x20)\n              add\n              0x00\n              swap1\n              sload\n              swap1\n              0x0100\n              exp\n              swap1\n              div\n              0xffffffffffffffffffffffffffffffffffffffff\n              and\n                /* \"MemberBoard.sol\":2300:2333  applicantList[index] == applicant */\n              0xffffffffffffffffffffffffffffffffffffffff\n              and\n              sub\n                /* \"MemberBoard.sol\":2296:2375  if (applicantList[index] == applicant) {... */\n              iszero\n                /* \"MemberBoard.sol\":2354:2359  break */\n              tag_140\n                /* \"MemberBoard.sol\":2296:2375  if (applicantList[index] == applicant) {... */\n              jumpi\n                /* \"MemberBoard.sol\":2272:2279  index++ */\n              dup1\n              dup1\n              tag_146\n              swap1\n              tag_111\n              jump\t// in\n            tag_146:\n              swap2\n              pop\n              pop\n                /* \"MemberBoard.sol\":2226:2386  for (index = 0; index < applicantList.length; index++) {... */\n              jump(tag_139)\n            tag_140:\n                /* \"MemberBoard.sol\":2419:2432  applicantList */\n              0x03\n                /* \"MemberBoard.sol\":2456:2457  1 */\n              0x01\n                /* \"MemberBoard.sol\":2433:2446  applicantList */\n              0x03\n                /* \"MemberBoard.sol\":2433:2453  applicantList.length */\n              dup1\n              sload\n              swap1\n              pop\n                /* \"MemberBoard.sol\":2433:2457  applicantList.length - 1 */\n              tag_147\n              swap2\n              swap1\n              tag_148\n              jump\t// in\n            tag_147:\n                /* \"MemberBoard.sol\":2419:2458  applicantList[applicantList.length - 1] */\n              dup2\n              sload\n              dup2\n              lt\n              tag_149\n              jumpi\n              tag_150\n              tag_107\n              jump\t// in\n            tag_150:\n            tag_149:\n              swap1\n              0x00\n              mstore\n              keccak256(0x00, 0x20)\n              add\n              0x00\n              swap1\n              sload\n              swap1\n              0x0100\n              exp\n              swap1\n              div\n              0xffffffffffffffffffffffffffffffffffffffff\n              and\n                /* \"MemberBoard.sol\":2396:2409  applicantList */\n              0x03\n                /* \"MemberBoard.sol\":2410:2415  index */\n              dup3\n                /* \"MemberBoard.sol\":2396:2416  applicantList[index] */\n              dup2\n              sload\n              dup2\n              lt\n              tag_152\n              jumpi\n              tag_153\n              tag_107\n              jump\t// in\n            tag_153:\n            tag_152:\n              swap1\n              0x00\n              mstore\n              keccak256(0x00, 0x20)\n              add\n              0x00\n                /* \"MemberBoard.sol\":2396:2458  applicantList[index] = applicantList[applicantList.length - 1] */\n              0x0100\n              exp\n              dup2\n              sload\n              dup2\n              0xffffffffffffffffffffffffffffffffffffffff\n              mul\n              not\n              and\n              swap1\n              dup4\n              0xffffffffffffffffffffffffffffffffffffffff\n              and\n              mul\n              or\n              swap1\n              sstore\n              pop\n                /* \"MemberBoard.sol\":2469:2482  applicantList */\n              0x03\n                /* \"MemberBoard.sol\":2469:2488  applicantList.pop() */\n              dup1\n              sload\n              dup1\n              tag_155\n              jumpi\n              tag_156\n              tag_157\n              jump\t// in\n            tag_156:\n            tag_155:\n              0x01\n              swap1\n              sub\n              dup2\n              dup2\n              swap1\n              0x00\n              mstore\n              keccak256(0x00, 0x20)\n              add\n              exp(0x0100, 0x00)\n              dup2\n              sload\n              swap1\n              0xffffffffffffffffffffffffffffffffffffffff\n              mul\n              not\n              and\n              swap1\n              sstore\n              swap1\n              sstore\n                /* \"MemberBoard.sol\":2187:2496  {... */\n              pop\n                /* \"MemberBoard.sol\":2135:2496  function _burnApplicant(address applicant) internal {... */\n              pop\n              jump\t// out\n            tag_89:\n              pop\n              dup1\n              sload\n              0x00\n              dup3\n              sstore\n              swap1\n              0x00\n              mstore\n              keccak256(0x00, 0x20)\n              swap1\n              dup2\n              add\n              swap1\n              tag_160\n              swap2\n              swap1\n              tag_161\n              jump\t// in\n            tag_160:\n              pop\n              jump\t// out\n            tag_161:\n            tag_162:\n              dup1\n              dup3\n              gt\n              iszero\n              tag_163\n              jumpi\n              0x00\n              dup2\n              0x00\n              swap1\n              sstore\n              pop\n              0x01\n              add\n              jump(tag_162)\n            tag_163:\n              pop\n              swap1\n              jump\t// out\n                /* \"#utility.yul\":7:133   */\n            tag_164:\n                /* \"#utility.yul\":44:51   */\n              0x00\n                /* \"#utility.yul\":84:126   */\n              0xffffffffffffffffffffffffffffffffffffffff\n                /* \"#utility.yul\":77:82   */\n              dup3\n                /* \"#utility.yul\":73:127   */\n              and\n                /* \"#utility.yul\":62:127   */\n              swap1\n              pop\n                /* \"#utility.yul\":7:133   */\n              swap2\n              swap1\n              pop\n              jump\t// out\n                /* \"#utility.yul\":139:235   */\n            tag_165:\n                /* \"#utility.yul\":176:183   */\n              0x00\n                /* \"#utility.yul\":205:229   */\n              tag_206\n                /* \"#utility.yul\":223:228   */\n              dup3\n                /* \"#utility.yul\":205:229   */\n              tag_164\n              jump\t// in\n            tag_206:\n                /* \"#utility.yul\":194:229   */\n              swap1\n              pop\n                /* \"#utility.yul\":139:235   */\n              swap2\n              swap1\n              pop\n              jump\t// out\n                /* \"#utility.yul\":241:359   */\n            tag_166:\n                /* \"#utility.yul\":328:352   */\n              tag_208\n                /* \"#utility.yul\":346:351   */\n              dup2\n                /* \"#utility.yul\":328:352   */\n              tag_165\n              jump\t// in\n            tag_208:\n                /* \"#utility.yul\":323:326   */\n              dup3\n                /* \"#utility.yul\":316:353   */\n              mstore\n                /* \"#utility.yul\":241:359   */\n              pop\n              pop\n              jump\t// out\n                /* \"#utility.yul\":365:587   */\n            tag_21:\n                /* \"#utility.yul\":458:462   */\n              0x00\n                /* \"#utility.yul\":496:498   */\n              0x20\n                /* \"#utility.yul\":485:494   */\n              dup3\n                /* \"#utility.yul\":481:499   */\n              add\n                /* \"#utility.yul\":473:499   */\n              swap1\n              pop\n                /* \"#utility.yul\":509:580   */\n              tag_210\n                /* \"#utility.yul\":577:578   */\n              0x00\n                /* \"#utility.yul\":566:575   */\n              dup4\n                /* \"#utility.yul\":562:579   */\n              add\n                /* \"#utility.yul\":553:559   */\n              dup5\n                /* \"#utility.yul\":509:580   */\n              tag_166\n              jump\t// in\n            tag_210:\n                /* \"#utility.yul\":365:587   */\n              swap3\n              swap2\n              pop\n              pop\n              jump\t// out\n                /* \"#utility.yul\":674:791   */\n            tag_168:\n                /* \"#utility.yul\":783:784   */\n              0x00\n                /* \"#utility.yul\":780:781   */\n              dup1\n                /* \"#utility.yul\":773:785   */\n              revert\n                /* \"#utility.yul\":920:1042   */\n            tag_170:\n                /* \"#utility.yul\":993:1017   */\n              tag_215\n                /* \"#utility.yul\":1011:1016   */\n              dup2\n                /* \"#utility.yul\":993:1017   */\n              tag_165\n              jump\t// in\n            tag_215:\n                /* \"#utility.yul\":986:991   */\n              dup2\n                /* \"#utility.yul\":983:1018   */\n              eq\n                /* \"#utility.yul\":973:1036   */\n              tag_216\n              jumpi\n                /* \"#utility.yul\":1032:1033   */\n              0x00\n                /* \"#utility.yul\":1029:1030   */\n              dup1\n                /* \"#utility.yul\":1022:1034   */\n              revert\n                /* \"#utility.yul\":973:1036   */\n            tag_216:\n                /* \"#utility.yul\":920:1042   */\n              pop\n              jump\t// out\n                /* \"#utility.yul\":1048:1187   */\n            tag_171:\n                /* \"#utility.yul\":1094:1099   */\n              0x00\n                /* \"#utility.yul\":1132:1138   */\n              dup2\n                /* \"#utility.yul\":1119:1139   */\n              calldataload\n                /* \"#utility.yul\":1110:1139   */\n              swap1\n              pop\n                /* \"#utility.yul\":1148:1181   */\n              tag_218\n                /* \"#utility.yul\":1175:1180   */\n              dup2\n                /* \"#utility.yul\":1148:1181   */\n              tag_170\n              jump\t// in\n            tag_218:\n                /* \"#utility.yul\":1048:1187   */\n              swap3\n              swap2\n              pop\n              pop\n              jump\t// out\n                /* \"#utility.yul\":1193:1522   */\n            tag_27:\n                /* \"#utility.yul\":1252:1258   */\n              0x00\n                /* \"#utility.yul\":1301:1303   */\n              0x20\n                /* \"#utility.yul\":1289:1298   */\n              dup3\n                /* \"#utility.yul\":1280:1287   */\n              dup5\n                /* \"#utility.yul\":1276:1299   */\n              sub\n                /* \"#utility.yul\":1272:1304   */\n              slt\n                /* \"#utility.yul\":1269:1388   */\n              iszero\n              tag_220\n              jumpi\n                /* \"#utility.yul\":1307:1386   */\n              tag_221\n              tag_168\n              jump\t// in\n            tag_221:\n                /* \"#utility.yul\":1269:1388   */\n            tag_220:\n                /* \"#utility.yul\":1427:1428   */\n              0x00\n                /* \"#utility.yul\":1452:1505   */\n              tag_222\n                /* \"#utility.yul\":1497:1504   */\n              dup5\n                /* \"#utility.yul\":1488:1494   */\n              dup3\n                /* \"#utility.yul\":1477:1486   */\n              dup6\n                /* \"#utility.yul\":1473:1495   */\n              add\n                /* \"#utility.yul\":1452:1505   */\n              tag_171\n              jump\t// in\n            tag_222:\n                /* \"#utility.yul\":1442:1505   */\n              swap2\n              pop\n                /* \"#utility.yul\":1398:1515   */\n              pop\n                /* \"#utility.yul\":1193:1522   */\n              swap3\n              swap2\n              pop\n              pop\n              jump\t// out\n                /* \"#utility.yul\":1528:1627   */\n            tag_172:\n                /* \"#utility.yul\":1580:1586   */\n              0x00\n                /* \"#utility.yul\":1614:1619   */\n              dup2\n                /* \"#utility.yul\":1608:1620   */\n              mload\n                /* \"#utility.yul\":1598:1620   */\n              swap1\n              pop\n                /* \"#utility.yul\":1528:1627   */\n              swap2\n              swap1\n              pop\n              jump\t// out\n                /* \"#utility.yul\":1633:1802   */\n            tag_173:\n                /* \"#utility.yul\":1717:1728   */\n              0x00\n                /* \"#utility.yul\":1751:1757   */\n              dup3\n                /* \"#utility.yul\":1746:1749   */\n              dup3\n                /* \"#utility.yul\":1739:1758   */\n              mstore\n                /* \"#utility.yul\":1791:1795   */\n              0x20\n                /* \"#utility.yul\":1786:1789   */\n              dup3\n                /* \"#utility.yul\":1782:1796   */\n              add\n                /* \"#utility.yul\":1767:1796   */\n              swap1\n              pop\n                /* \"#utility.yul\":1633:1802   */\n              swap3\n              swap2\n              pop\n              pop\n              jump\t// out\n                /* \"#utility.yul\":1808:2054   */\n            tag_174:\n                /* \"#utility.yul\":1889:1890   */\n              0x00\n                /* \"#utility.yul\":1899:2012   */\n            tag_226:\n                /* \"#utility.yul\":1913:1919   */\n              dup4\n                /* \"#utility.yul\":1910:1911   */\n              dup2\n                /* \"#utility.yul\":1907:1920   */\n              lt\n                /* \"#utility.yul\":1899:2012   */\n              iszero\n              tag_228\n              jumpi\n                /* \"#utility.yul\":1998:1999   */\n              dup1\n                /* \"#utility.yul\":1993:1996   */\n              dup3\n                /* \"#utility.yul\":1989:2000   */\n              add\n                /* \"#utility.yul\":1983:2001   */\n              mload\n                /* \"#utility.yul\":1979:1980   */\n              dup2\n                /* \"#utility.yul\":1974:1977   */\n              dup5\n                /* \"#utility.yul\":1970:1981   */\n              add\n                /* \"#utility.yul\":1963:2002   */\n              mstore\n                /* \"#utility.yul\":1935:1937   */\n              0x20\n                /* \"#utility.yul\":1932:1933   */\n              dup2\n                /* \"#utility.yul\":1928:1938   */\n              add\n                /* \"#utility.yul\":1923:1938   */\n              swap1\n              pop\n                /* \"#utility.yul\":1899:2012   */\n              jump(tag_226)\n            tag_228:\n                /* \"#utility.yul\":2046:2047   */\n              0x00\n                /* \"#utility.yul\":2037:2043   */\n              dup5\n                /* \"#utility.yul\":2032:2035   */\n              dup5\n                /* \"#utility.yul\":2028:2044   */\n              add\n                /* \"#utility.yul\":2021:2048   */\n              mstore\n                /* \"#utility.yul\":1870:2054   */\n              pop\n                /* \"#utility.yul\":1808:2054   */\n              pop\n              pop\n              pop\n              jump\t// out\n                /* \"#utility.yul\":2060:2162   */\n            tag_175:\n                /* \"#utility.yul\":2101:2107   */\n              0x00\n                /* \"#utility.yul\":2152:2154   */\n              0x1f\n                /* \"#utility.yul\":2148:2155   */\n              not\n                /* \"#utility.yul\":2143:2145   */\n              0x1f\n                /* \"#utility.yul\":2136:2141   */\n              dup4\n                /* \"#utility.yul\":2132:2146   */\n              add\n                /* \"#utility.yul\":2128:2156   */\n              and\n                /* \"#utility.yul\":2118:2156   */\n              swap1\n              pop\n                /* \"#utility.yul\":2060:2162   */\n              swap2\n              swap1\n              pop\n              jump\t// out\n                /* \"#utility.yul\":2168:2545   */\n            tag_176:\n                /* \"#utility.yul\":2256:2259   */\n              0x00\n                /* \"#utility.yul\":2284:2323   */\n              tag_231\n                /* \"#utility.yul\":2317:2322   */\n              dup3\n                /* \"#utility.yul\":2284:2323   */\n              tag_172\n              jump\t// in\n            tag_231:\n                /* \"#utility.yul\":2339:2410   */\n              tag_232\n                /* \"#utility.yul\":2403:2409   */\n              dup2\n                /* \"#utility.yul\":2398:2401   */\n              dup6\n                /* \"#utility.yul\":2339:2410   */\n              tag_173\n              jump\t// in\n            tag_232:\n                /* \"#utility.yul\":2332:2410   */\n              swap4\n              pop\n                /* \"#utility.yul\":2419:2484   */\n              tag_233\n                /* \"#utility.yul\":2477:2483   */\n              dup2\n                /* \"#utility.yul\":2472:2475   */\n              dup6\n                /* \"#utility.yul\":2465:2469   */\n              0x20\n                /* \"#utility.yul\":2458:2463   */\n              dup7\n                /* \"#utility.yul\":2454:2470   */\n              add\n                /* \"#utility.yul\":2419:2484   */\n              tag_174\n              jump\t// in\n            tag_233:\n                /* \"#utility.yul\":2509:2538   */\n              tag_234\n                /* \"#utility.yul\":2531:2537   */\n              dup2\n                /* \"#utility.yul\":2509:2538   */\n              tag_175\n              jump\t// in\n            tag_234:\n                /* \"#utility.yul\":2504:2507   */\n              dup5\n                /* \"#utility.yul\":2500:2539   */\n              add\n                /* \"#utility.yul\":2493:2539   */\n              swap2\n              pop\n                /* \"#utility.yul\":2260:2545   */\n              pop\n                /* \"#utility.yul\":2168:2545   */\n              swap3\n              swap2\n              pop\n              pop\n              jump\t// out\n                /* \"#utility.yul\":2551:2864   */\n            tag_41:\n                /* \"#utility.yul\":2664:2668   */\n              0x00\n                /* \"#utility.yul\":2702:2704   */\n              0x20\n                /* \"#utility.yul\":2691:2700   */\n              dup3\n                /* \"#utility.yul\":2687:2705   */\n              add\n                /* \"#utility.yul\":2679:2705   */\n              swap1\n              pop\n                /* \"#utility.yul\":2751:2760   */\n              dup2\n                /* \"#utility.yul\":2745:2749   */\n              dup2\n                /* \"#utility.yul\":2741:2761   */\n              sub\n                /* \"#utility.yul\":2737:2738   */\n              0x00\n                /* \"#utility.yul\":2726:2735   */\n              dup4\n                /* \"#utility.yul\":2722:2739   */\n              add\n                /* \"#utility.yul\":2715:2762   */\n              mstore\n                /* \"#utility.yul\":2779:2857   */\n              tag_236\n                /* \"#utility.yul\":2852:2856   */\n              dup2\n                /* \"#utility.yul\":2843:2849   */\n              dup5\n                /* \"#utility.yul\":2779:2857   */\n              tag_176\n              jump\t// in\n            tag_236:\n                /* \"#utility.yul\":2771:2857   */\n              swap1\n              pop\n                /* \"#utility.yul\":2551:2864   */\n              swap3\n              swap2\n              pop\n              pop\n              jump\t// out\n                /* \"#utility.yul\":2870:2984   */\n            tag_177:\n                /* \"#utility.yul\":2937:2943   */\n              0x00\n                /* \"#utility.yul\":2971:2976   */\n              dup2\n                /* \"#utility.yul\":2965:2977   */\n              mload\n                /* \"#utility.yul\":2955:2977   */\n              swap1\n              pop\n                /* \"#utility.yul\":2870:2984   */\n              swap2\n              swap1\n              pop\n              jump\t// out\n                /* \"#utility.yul\":2990:3174   */\n            tag_178:\n                /* \"#utility.yul\":3089:3100   */\n              0x00\n                /* \"#utility.yul\":3123:3129   */\n              dup3\n                /* \"#utility.yul\":3118:3121   */\n              dup3\n                /* \"#utility.yul\":3111:3130   */\n              mstore\n                /* \"#utility.yul\":3163:3167   */\n              0x20\n                /* \"#utility.yul\":3158:3161   */\n              dup3\n                /* \"#utility.yul\":3154:3168   */\n              add\n                /* \"#utility.yul\":3139:3168   */\n              swap1\n              pop\n                /* \"#utility.yul\":2990:3174   */\n              swap3\n              swap2\n              pop\n              pop\n              jump\t// out\n                /* \"#utility.yul\":3180:3312   */\n            tag_179:\n                /* \"#utility.yul\":3247:3251   */\n              0x00\n                /* \"#utility.yul\":3270:3273   */\n              dup2\n                /* \"#utility.yul\":3262:3273   */\n              swap1\n              pop\n                /* \"#utility.yul\":3300:3304   */\n              0x20\n                /* \"#utility.yul\":3295:3298   */\n              dup3\n                /* \"#utility.yul\":3291:3305   */\n              add\n                /* \"#utility.yul\":3283:3305   */\n              swap1\n              pop\n                /* \"#utility.yul\":3180:3312   */\n              swap2\n              swap1\n              pop\n              jump\t// out\n                /* \"#utility.yul\":3318:3426   */\n            tag_180:\n                /* \"#utility.yul\":3395:3419   */\n              tag_241\n                /* \"#utility.yul\":3413:3418   */\n              dup2\n                /* \"#utility.yul\":3395:3419   */\n              tag_165\n              jump\t// in\n            tag_241:\n                /* \"#utility.yul\":3390:3393   */\n              dup3\n                /* \"#utility.yul\":3383:3420   */\n              mstore\n                /* \"#utility.yul\":3318:3426   */\n              pop\n              pop\n              jump\t// out\n                /* \"#utility.yul\":3432:3611   */\n            tag_181:\n                /* \"#utility.yul\":3501:3511   */\n              0x00\n                /* \"#utility.yul\":3522:3568   */\n              tag_243\n                /* \"#utility.yul\":3564:3567   */\n              dup4\n                /* \"#utility.yul\":3556:3562   */\n              dup4\n                /* \"#utility.yul\":3522:3568   */\n              tag_180\n              jump\t// in\n            tag_243:\n                /* \"#utility.yul\":3600:3604   */\n              0x20\n                /* \"#utility.yul\":3595:3598   */\n              dup4\n                /* \"#utility.yul\":3591:3605   */\n              add\n                /* \"#utility.yul\":3577:3605   */\n              swap1\n              pop\n                /* \"#utility.yul\":3432:3611   */\n              swap3\n              swap2\n              pop\n              pop\n              jump\t// out\n                /* \"#utility.yul\":3617:3730   */\n            tag_182:\n                /* \"#utility.yul\":3687:3691   */\n              0x00\n                /* \"#utility.yul\":3719:3723   */\n              0x20\n                /* \"#utility.yul\":3714:3717   */\n              dup3\n                /* \"#utility.yul\":3710:3724   */\n              add\n                /* \"#utility.yul\":3702:3724   */\n              swap1\n              pop\n                /* \"#utility.yul\":3617:3730   */\n              swap2\n              swap1\n              pop\n              jump\t// out\n                /* \"#utility.yul\":3766:4498   */\n            tag_183:\n                /* \"#utility.yul\":3885:3888   */\n              0x00\n                /* \"#utility.yul\":3914:3968   */\n              tag_246\n                /* \"#utility.yul\":3962:3967   */\n              dup3\n                /* \"#utility.yul\":3914:3968   */\n              tag_177\n              jump\t// in\n            tag_246:\n                /* \"#utility.yul\":3984:4070   */\n              tag_247\n                /* \"#utility.yul\":4063:4069   */\n              dup2\n                /* \"#utility.yul\":4058:4061   */\n              dup6\n                /* \"#utility.yul\":3984:4070   */\n              tag_178\n              jump\t// in\n            tag_247:\n                /* \"#utility.yul\":3977:4070   */\n              swap4\n              pop\n                /* \"#utility.yul\":4094:4150   */\n              tag_248\n                /* \"#utility.yul\":4144:4149   */\n              dup4\n                /* \"#utility.yul\":4094:4150   */\n              tag_179\n              jump\t// in\n            tag_248:\n                /* \"#utility.yul\":4173:4180   */\n              dup1\n                /* \"#utility.yul\":4204:4205   */\n              0x00\n                /* \"#utility.yul\":4189:4473   */\n            tag_249:\n                /* \"#utility.yul\":4214:4220   */\n              dup4\n                /* \"#utility.yul\":4211:4212   */\n              dup2\n                /* \"#utility.yul\":4208:4221   */\n              lt\n                /* \"#utility.yul\":4189:4473   */\n              iszero\n              tag_251\n              jumpi\n                /* \"#utility.yul\":4290:4296   */\n              dup2\n                /* \"#utility.yul\":4284:4297   */\n              mload\n                /* \"#utility.yul\":4317:4380   */\n              tag_252\n                /* \"#utility.yul\":4376:4379   */\n              dup9\n                /* \"#utility.yul\":4361:4374   */\n              dup3\n                /* \"#utility.yul\":4317:4380   */\n              tag_181\n              jump\t// in\n            tag_252:\n                /* \"#utility.yul\":4310:4380   */\n              swap8\n              pop\n                /* \"#utility.yul\":4403:4463   */\n              tag_253\n                /* \"#utility.yul\":4456:4462   */\n              dup4\n                /* \"#utility.yul\":4403:4463   */\n              tag_182\n              jump\t// in\n            tag_253:\n                /* \"#utility.yul\":4393:4463   */\n              swap3\n              pop\n                /* \"#utility.yul\":4249:4473   */\n              pop\n                /* \"#utility.yul\":4236:4237   */\n              0x01\n                /* \"#utility.yul\":4233:4234   */\n              dup2\n                /* \"#utility.yul\":4229:4238   */\n              add\n                /* \"#utility.yul\":4224:4238   */\n              swap1\n              pop\n                /* \"#utility.yul\":4189:4473   */\n              jump(tag_249)\n            tag_251:\n                /* \"#utility.yul\":4193:4207   */\n              pop\n                /* \"#utility.yul\":4489:4492   */\n              dup6\n                /* \"#utility.yul\":4482:4492   */\n              swap4\n              pop\n                /* \"#utility.yul\":3890:4498   */\n              pop\n              pop\n              pop\n                /* \"#utility.yul\":3766:4498   */\n              swap3\n              swap2\n              pop\n              pop\n              jump\t// out\n                /* \"#utility.yul\":4504:4877   */\n            tag_46:\n                /* \"#utility.yul\":4647:4651   */\n              0x00\n                /* \"#utility.yul\":4685:4687   */\n              0x20\n                /* \"#utility.yul\":4674:4683   */\n              dup3\n                /* \"#utility.yul\":4670:4688   */\n              add\n                /* \"#utility.yul\":4662:4688   */\n              swap1\n              pop\n                /* \"#utility.yul\":4734:4743   */\n              dup2\n                /* \"#utility.yul\":4728:4732   */\n              dup2\n                /* \"#utility.yul\":4724:4744   */\n              sub\n                /* \"#utility.yul\":4720:4721   */\n              0x00\n                /* \"#utility.yul\":4709:4718   */\n              dup4\n                /* \"#utility.yul\":4705:4722   */\n              add\n                /* \"#utility.yul\":4698:4745   */\n              mstore\n                /* \"#utility.yul\":4762:4870   */\n              tag_255\n                /* \"#utility.yul\":4865:4869   */\n              dup2\n                /* \"#utility.yul\":4856:4862   */\n              dup5\n                /* \"#utility.yul\":4762:4870   */\n              tag_183\n              jump\t// in\n            tag_255:\n                /* \"#utility.yul\":4754:4870   */\n              swap1\n              pop\n                /* \"#utility.yul\":4504:4877   */\n              swap3\n              swap2\n              pop\n              pop\n              jump\t// out\n                /* \"#utility.yul\":4883:4973   */\n            tag_184:\n                /* \"#utility.yul\":4917:4924   */\n              0x00\n                /* \"#utility.yul\":4960:4965   */\n              dup2\n                /* \"#utility.yul\":4953:4966   */\n              iszero\n                /* \"#utility.yul\":4946:4967   */\n              iszero\n                /* \"#utility.yul\":4935:4967   */\n              swap1\n              pop\n                /* \"#utility.yul\":4883:4973   */\n              swap2\n              swap1\n              pop\n              jump\t// out\n                /* \"#utility.yul\":4979:5088   */\n            tag_185:\n                /* \"#utility.yul\":5060:5081   */\n              tag_258\n                /* \"#utility.yul\":5075:5080   */\n              dup2\n                /* \"#utility.yul\":5060:5081   */\n              tag_184\n              jump\t// in\n            tag_258:\n                /* \"#utility.yul\":5055:5058   */\n              dup3\n                /* \"#utility.yul\":5048:5082   */\n              mstore\n                /* \"#utility.yul\":4979:5088   */\n              pop\n              pop\n              jump\t// out\n                /* \"#utility.yul\":5094:5304   */\n            tag_56:\n                /* \"#utility.yul\":5181:5185   */\n              0x00\n                /* \"#utility.yul\":5219:5221   */\n              0x20\n                /* \"#utility.yul\":5208:5217   */\n              dup3\n                /* \"#utility.yul\":5204:5222   */\n              add\n                /* \"#utility.yul\":5196:5222   */\n              swap1\n              pop\n                /* \"#utility.yul\":5232:5297   */\n              tag_260\n                /* \"#utility.yul\":5294:5295   */\n              0x00\n                /* \"#utility.yul\":5283:5292   */\n              dup4\n                /* \"#utility.yul\":5279:5296   */\n              add\n                /* \"#utility.yul\":5270:5276   */\n              dup5\n                /* \"#utility.yul\":5232:5297   */\n              tag_185\n              jump\t// in\n            tag_260:\n                /* \"#utility.yul\":5094:5304   */\n              swap3\n              swap2\n              pop\n              pop\n              jump\t// out\n                /* \"#utility.yul\":5310:5387   */\n            tag_186:\n                /* \"#utility.yul\":5347:5354   */\n              0x00\n                /* \"#utility.yul\":5376:5381   */\n              dup2\n                /* \"#utility.yul\":5365:5381   */\n              swap1\n              pop\n                /* \"#utility.yul\":5310:5387   */\n              swap2\n              swap1\n              pop\n              jump\t// out\n                /* \"#utility.yul\":5393:5515   */\n            tag_187:\n                /* \"#utility.yul\":5466:5490   */\n              tag_263\n                /* \"#utility.yul\":5484:5489   */\n              dup2\n                /* \"#utility.yul\":5466:5490   */\n              tag_186\n              jump\t// in\n            tag_263:\n                /* \"#utility.yul\":5459:5464   */\n              dup2\n                /* \"#utility.yul\":5456:5491   */\n              eq\n                /* \"#utility.yul\":5446:5509   */\n              tag_264\n              jumpi\n                /* \"#utility.yul\":5505:5506   */\n              0x00\n                /* \"#utility.yul\":5502:5503   */\n              dup1\n                /* \"#utility.yul\":5495:5507   */\n              revert\n                /* \"#utility.yul\":5446:5509   */\n            tag_264:\n                /* \"#utility.yul\":5393:5515   */\n              pop\n              jump\t// out\n                /* \"#utility.yul\":5521:5660   */\n            tag_188:\n                /* \"#utility.yul\":5567:5572   */\n              0x00\n                /* \"#utility.yul\":5605:5611   */\n              dup2\n                /* \"#utility.yul\":5592:5612   */\n              calldataload\n                /* \"#utility.yul\":5583:5612   */\n              swap1\n              pop\n                /* \"#utility.yul\":5621:5654   */\n              tag_266\n                /* \"#utility.yul\":5648:5653   */\n              dup2\n                /* \"#utility.yul\":5621:5654   */\n              tag_187\n              jump\t// in\n            tag_266:\n                /* \"#utility.yul\":5521:5660   */\n              swap3\n              swap2\n              pop\n              pop\n              jump\t// out\n                /* \"#utility.yul\":5666:5995   */\n            tag_60:\n                /* \"#utility.yul\":5725:5731   */\n              0x00\n                /* \"#utility.yul\":5774:5776   */\n              0x20\n                /* \"#utility.yul\":5762:5771   */\n              dup3\n                /* \"#utility.yul\":5753:5760   */\n              dup5\n                /* \"#utility.yul\":5749:5772   */\n              sub\n                /* \"#utility.yul\":5745:5777   */\n              slt\n                /* \"#utility.yul\":5742:5861   */\n              iszero\n              tag_268\n              jumpi\n                /* \"#utility.yul\":5780:5859   */\n              tag_269\n              tag_168\n              jump\t// in\n            tag_269:\n                /* \"#utility.yul\":5742:5861   */\n            tag_268:\n                /* \"#utility.yul\":5900:5901   */\n              0x00\n                /* \"#utility.yul\":5925:5978   */\n              tag_270\n                /* \"#utility.yul\":5970:5977   */\n              dup5\n                /* \"#utility.yul\":5961:5967   */\n              dup3\n                /* \"#utility.yul\":5950:5959   */\n              dup6\n                /* \"#utility.yul\":5946:5968   */\n              add\n                /* \"#utility.yul\":5925:5978   */\n              tag_188\n              jump\t// in\n            tag_270:\n                /* \"#utility.yul\":5915:5978   */\n              swap2\n              pop\n                /* \"#utility.yul\":5871:5988   */\n              pop\n                /* \"#utility.yul\":5666:5995   */\n              swap3\n              swap2\n              pop\n              pop\n              jump\t// out\n                /* \"#utility.yul\":6001:6119   */\n            tag_189:\n                /* \"#utility.yul\":6088:6112   */\n              tag_272\n                /* \"#utility.yul\":6106:6111   */\n              dup2\n                /* \"#utility.yul\":6088:6112   */\n              tag_186\n              jump\t// in\n            tag_272:\n                /* \"#utility.yul\":6083:6086   */\n              dup3\n                /* \"#utility.yul\":6076:6113   */\n              mstore\n                /* \"#utility.yul\":6001:6119   */\n              pop\n              pop\n              jump\t// out\n                /* \"#utility.yul\":6125:6347   */\n            tag_72:\n                /* \"#utility.yul\":6218:6222   */\n              0x00\n                /* \"#utility.yul\":6256:6258   */\n              0x20\n                /* \"#utility.yul\":6245:6254   */\n              dup3\n                /* \"#utility.yul\":6241:6259   */\n              add\n                /* \"#utility.yul\":6233:6259   */\n              swap1\n              pop\n                /* \"#utility.yul\":6269:6340   */\n              tag_274\n                /* \"#utility.yul\":6337:6338   */\n              0x00\n                /* \"#utility.yul\":6326:6335   */\n              dup4\n                /* \"#utility.yul\":6322:6339   */\n              add\n                /* \"#utility.yul\":6313:6319   */\n              dup5\n                /* \"#utility.yul\":6269:6340   */\n              tag_189\n              jump\t// in\n            tag_274:\n                /* \"#utility.yul\":6125:6347   */\n              swap3\n              swap2\n              pop\n              pop\n              jump\t// out\n                /* \"#utility.yul\":6353:6527   */\n            tag_190:\n                /* \"#utility.yul\":6493:6519   */\n              0x416c726561647920616374697665206170706c6963616e740000000000000000\n                /* \"#utility.yul\":6489:6490   */\n              0x00\n                /* \"#utility.yul\":6481:6487   */\n              dup3\n                /* \"#utility.yul\":6477:6491   */\n              add\n                /* \"#utility.yul\":6470:6520   */\n              mstore\n                /* \"#utility.yul\":6353:6527   */\n              pop\n              jump\t// out\n                /* \"#utility.yul\":6533:6899   */\n            tag_191:\n                /* \"#utility.yul\":6675:6678   */\n              0x00\n                /* \"#utility.yul\":6696:6763   */\n              tag_277\n                /* \"#utility.yul\":6760:6762   */\n              0x18\n                /* \"#utility.yul\":6755:6758   */\n              dup4\n                /* \"#utility.yul\":6696:6763   */\n              tag_173\n              jump\t// in\n            tag_277:\n                /* \"#utility.yul\":6689:6763   */\n              swap2\n              pop\n                /* \"#utility.yul\":6772:6865   */\n              tag_278\n                /* \"#utility.yul\":6861:6864   */\n              dup3\n                /* \"#utility.yul\":6772:6865   */\n              tag_190\n              jump\t// in\n            tag_278:\n                /* \"#utility.yul\":6890:6892   */\n              0x20\n                /* \"#utility.yul\":6885:6888   */\n              dup3\n                /* \"#utility.yul\":6881:6893   */\n              add\n                /* \"#utility.yul\":6874:6893   */\n              swap1\n              pop\n                /* \"#utility.yul\":6533:6899   */\n              swap2\n              swap1\n              pop\n              jump\t// out\n                /* \"#utility.yul\":6905:7324   */\n            tag_80:\n                /* \"#utility.yul\":7071:7075   */\n              0x00\n                /* \"#utility.yul\":7109:7111   */\n              0x20\n                /* \"#utility.yul\":7098:7107   */\n              dup3\n                /* \"#utility.yul\":7094:7112   */\n              add\n                /* \"#utility.yul\":7086:7112   */\n              swap1\n              pop\n                /* \"#utility.yul\":7158:7167   */\n              dup2\n                /* \"#utility.yul\":7152:7156   */\n              dup2\n                /* \"#utility.yul\":7148:7168   */\n              sub\n                /* \"#utility.yul\":7144:7145   */\n              0x00\n                /* \"#utility.yul\":7133:7142   */\n              dup4\n                /* \"#utility.yul\":7129:7146   */\n              add\n                /* \"#utility.yul\":7122:7169   */\n              mstore\n                /* \"#utility.yul\":7186:7317   */\n              tag_280\n                /* \"#utility.yul\":7312:7316   */\n              dup2\n                /* \"#utility.yul\":7186:7317   */\n              tag_191\n              jump\t// in\n            tag_280:\n                /* \"#utility.yul\":7178:7317   */\n              swap1\n              pop\n                /* \"#utility.yul\":6905:7324   */\n              swap2\n              swap1\n              pop\n              jump\t// out\n                /* \"#utility.yul\":7330:7496   */\n            tag_192:\n                /* \"#utility.yul\":7470:7488   */\n              0x6163636f756e742072656a656374656400000000000000000000000000000000\n                /* \"#utility.yul\":7466:7467   */\n              0x00\n                /* \"#utility.yul\":7458:7464   */\n              dup3\n                /* \"#utility.yul\":7454:7468   */\n              add\n                /* \"#utility.yul\":7447:7489   */\n              mstore\n                /* \"#utility.yul\":7330:7496   */\n              pop\n              jump\t// out\n                /* \"#utility.yul\":7502:7868   */\n            tag_193:\n                /* \"#utility.yul\":7644:7647   */\n              0x00\n                /* \"#utility.yul\":7665:7732   */\n              tag_283\n                /* \"#utility.yul\":7729:7731   */\n              0x10\n                /* \"#utility.yul\":7724:7727   */\n              dup4\n                /* \"#utility.yul\":7665:7732   */\n              tag_173\n              jump\t// in\n            tag_283:\n                /* \"#utility.yul\":7658:7732   */\n              swap2\n              pop\n                /* \"#utility.yul\":7741:7834   */\n              tag_284\n                /* \"#utility.yul\":7830:7833   */\n              dup3\n                /* \"#utility.yul\":7741:7834   */\n              tag_192\n              jump\t// in\n            tag_284:\n                /* \"#utility.yul\":7859:7861   */\n              0x20\n                /* \"#utility.yul\":7854:7857   */\n              dup3\n                /* \"#utility.yul\":7850:7862   */\n              add\n                /* \"#utility.yul\":7843:7862   */\n              swap1\n              pop\n                /* \"#utility.yul\":7502:7868   */\n              swap2\n              swap1\n              pop\n              jump\t// out\n                /* \"#utility.yul\":7874:8293   */\n            tag_83:\n                /* \"#utility.yul\":8040:8044   */\n              0x00\n                /* \"#utility.yul\":8078:8080   */\n              0x20\n                /* \"#utility.yul\":8067:8076   */\n              dup3\n                /* \"#utility.yul\":8063:8081   */\n              add\n                /* \"#utility.yul\":8055:8081   */\n              swap1\n              pop\n                /* \"#utility.yul\":8127:8136   */\n              dup2\n                /* \"#utility.yul\":8121:8125   */\n              dup2\n                /* \"#utility.yul\":8117:8137   */\n              sub\n                /* \"#utility.yul\":8113:8114   */\n              0x00\n                /* \"#utility.yul\":8102:8111   */\n              dup4\n                /* \"#utility.yul\":8098:8115   */\n              add\n                /* \"#utility.yul\":8091:8138   */\n              mstore\n                /* \"#utility.yul\":8155:8286   */\n              tag_286\n                /* \"#utility.yul\":8281:8285   */\n              dup2\n                /* \"#utility.yul\":8155:8286   */\n              tag_193\n              jump\t// in\n            tag_286:\n                /* \"#utility.yul\":8147:8286   */\n              swap1\n              pop\n                /* \"#utility.yul\":7874:8293   */\n              swap2\n              swap1\n              pop\n              jump\t// out\n                /* \"#utility.yul\":8299:8474   */\n            tag_194:\n                /* \"#utility.yul\":8439:8466   */\n              0x496e76616c6964206170706c6963616e74206164647265737300000000000000\n                /* \"#utility.yul\":8435:8436   */\n              0x00\n                /* \"#utility.yul\":8427:8433   */\n              dup3\n                /* \"#utility.yul\":8423:8437   */\n              add\n                /* \"#utility.yul\":8416:8467   */\n              mstore\n                /* \"#utility.yul\":8299:8474   */\n              pop\n              jump\t// out\n                /* \"#utility.yul\":8480:8846   */\n            tag_195:\n                /* \"#utility.yul\":8622:8625   */\n              0x00\n                /* \"#utility.yul\":8643:8710   */\n              tag_289\n                /* \"#utility.yul\":8707:8709   */\n              0x19\n                /* \"#utility.yul\":8702:8705   */\n              dup4\n                /* \"#utility.yul\":8643:8710   */\n              tag_173\n              jump\t// in\n            tag_289:\n                /* \"#utility.yul\":8636:8710   */\n              swap2\n              pop\n                /* \"#utility.yul\":8719:8812   */\n              tag_290\n                /* \"#utility.yul\":8808:8811   */\n              dup3\n                /* \"#utility.yul\":8719:8812   */\n              tag_194\n              jump\t// in\n            tag_290:\n                /* \"#utility.yul\":8837:8839   */\n              0x20\n                /* \"#utility.yul\":8832:8835   */\n              dup3\n                /* \"#utility.yul\":8828:8840   */\n              add\n                /* \"#utility.yul\":8821:8840   */\n              swap1\n              pop\n                /* \"#utility.yul\":8480:8846   */\n              swap2\n              swap1\n              pop\n              jump\t// out\n                /* \"#utility.yul\":8852:9271   */\n            tag_93:\n                /* \"#utility.yul\":9018:9022   */\n              0x00\n                /* \"#utility.yul\":9056:9058   */\n              0x20\n                /* \"#utility.yul\":9045:9054   */\n              dup3\n                /* \"#utility.yul\":9041:9059   */\n              add\n                /* \"#utility.yul\":9033:9059   */\n              swap1\n              pop\n                /* \"#utility.yul\":9105:9114   */\n              dup2\n                /* \"#utility.yul\":9099:9103   */\n              dup2\n                /* \"#utility.yul\":9095:9115   */\n              sub\n                /* \"#utility.yul\":9091:9092   */\n              0x00\n                /* \"#utility.yul\":9080:9089   */\n              dup4\n                /* \"#utility.yul\":9076:9093   */\n              add\n                /* \"#utility.yul\":9069:9116   */\n              mstore\n                /* \"#utility.yul\":9133:9264   */\n              tag_292\n                /* \"#utility.yul\":9259:9263   */\n              dup2\n                /* \"#utility.yul\":9133:9264   */\n              tag_195\n              jump\t// in\n            tag_292:\n                /* \"#utility.yul\":9125:9264   */\n              swap1\n              pop\n                /* \"#utility.yul\":8852:9271   */\n              swap2\n              swap1\n              pop\n              jump\t// out\n                /* \"#utility.yul\":9277:9353   */\n            tag_196:\n                /* \"#utility.yul\":9313:9320   */\n              0x00\n                /* \"#utility.yul\":9342:9347   */\n              dup2\n                /* \"#utility.yul\":9331:9347   */\n              swap1\n              pop\n                /* \"#utility.yul\":9277:9353   */\n              swap2\n              swap1\n              pop\n              jump\t// out\n                /* \"#utility.yul\":9359:9539   */\n            tag_197:\n                /* \"#utility.yul\":9407:9484   */\n              0x4e487b7100000000000000000000000000000000000000000000000000000000\n                /* \"#utility.yul\":9404:9405   */\n              0x00\n                /* \"#utility.yul\":9397:9485   */\n              mstore\n                /* \"#utility.yul\":9504:9508   */\n              0x11\n                /* \"#utility.yul\":9501:9502   */\n              0x04\n                /* \"#utility.yul\":9494:9509   */\n              mstore\n                /* \"#utility.yul\":9528:9532   */\n              0x24\n                /* \"#utility.yul\":9525:9526   */\n              0x00\n                /* \"#utility.yul\":9518:9533   */\n              revert\n                /* \"#utility.yul\":9545:9917   */\n            tag_95:\n                /* \"#utility.yul\":9584:9588   */\n              0x00\n                /* \"#utility.yul\":9604:9623   */\n              tag_296\n                /* \"#utility.yul\":9621:9622   */\n              dup3\n                /* \"#utility.yul\":9604:9623   */\n              tag_196\n              jump\t// in\n            tag_296:\n                /* \"#utility.yul\":9599:9623   */\n              swap2\n              pop\n                /* \"#utility.yul\":9637:9656   */\n              tag_297\n                /* \"#utility.yul\":9654:9655   */\n              dup4\n                /* \"#utility.yul\":9637:9656   */\n              tag_196\n              jump\t// in\n            tag_297:\n                /* \"#utility.yul\":9632:9656   */\n              swap3\n              pop\n                /* \"#utility.yul\":9680:9681   */\n              dup3\n                /* \"#utility.yul\":9677:9678   */\n              dup3\n                /* \"#utility.yul\":9673:9682   */\n              sub\n                /* \"#utility.yul\":9665:9682   */\n              swap1\n              pop\n                /* \"#utility.yul\":9874:9875   */\n              dup2\n                /* \"#utility.yul\":9868:9872   */\n              dup2\n                /* \"#utility.yul\":9864:9876   */\n              slt\n                /* \"#utility.yul\":9860:9861   */\n              0x00\n                /* \"#utility.yul\":9857:9858   */\n              dup5\n                /* \"#utility.yul\":9853:9862   */\n              slt\n                /* \"#utility.yul\":9849:9877   */\n              and\n                /* \"#utility.yul\":9832:9833   */\n              dup3\n                /* \"#utility.yul\":9826:9830   */\n              dup3\n                /* \"#utility.yul\":9822:9834   */\n              sgt\n                /* \"#utility.yul\":9817:9818   */\n              0x00\n                /* \"#utility.yul\":9814:9815   */\n              dup6\n                /* \"#utility.yul\":9810:9819   */\n              slt\n                /* \"#utility.yul\":9803:9820   */\n              iszero\n                /* \"#utility.yul\":9799:9835   */\n              and\n                /* \"#utility.yul\":9783:9887   */\n              or\n                /* \"#utility.yul\":9780:9910   */\n              iszero\n              tag_298\n              jumpi\n                /* \"#utility.yul\":9890:9908   */\n              tag_299\n              tag_197\n              jump\t// in\n            tag_299:\n                /* \"#utility.yul\":9780:9910   */\n            tag_298:\n                /* \"#utility.yul\":9545:9917   */\n              swap3\n              swap2\n              pop\n              pop\n              jump\t// out\n                /* \"#utility.yul\":9923:10088   */\n            tag_198:\n                /* \"#utility.yul\":10063:10080   */\n              0x4e6f742061206170706c6963616e740000000000000000000000000000000000\n                /* \"#utility.yul\":10059:10060   */\n              0x00\n                /* \"#utility.yul\":10051:10057   */\n              dup3\n                /* \"#utility.yul\":10047:10061   */\n              add\n                /* \"#utility.yul\":10040:10081   */\n              mstore\n                /* \"#utility.yul\":9923:10088   */\n              pop\n              jump\t// out\n                /* \"#utility.yul\":10094:10460   */\n            tag_199:\n                /* \"#utility.yul\":10236:10239   */\n              0x00\n                /* \"#utility.yul\":10257:10324   */\n              tag_302\n                /* \"#utility.yul\":10321:10323   */\n              0x0f\n                /* \"#utility.yul\":10316:10319   */\n              dup4\n                /* \"#utility.yul\":10257:10324   */\n              tag_173\n              jump\t// in\n            tag_302:\n                /* \"#utility.yul\":10250:10324   */\n              swap2\n              pop\n                /* \"#utility.yul\":10333:10426   */\n              tag_303\n                /* \"#utility.yul\":10422:10425   */\n              dup3\n                /* \"#utility.yul\":10333:10426   */\n              tag_198\n              jump\t// in\n            tag_303:\n                /* \"#utility.yul\":10451:10453   */\n              0x20\n                /* \"#utility.yul\":10446:10449   */\n              dup3\n                /* \"#utility.yul\":10442:10454   */\n              add\n                /* \"#utility.yul\":10435:10454   */\n              swap1\n              pop\n                /* \"#utility.yul\":10094:10460   */\n              swap2\n              swap1\n              pop\n              jump\t// out\n                /* \"#utility.yul\":10466:10885   */\n            tag_101:\n                /* \"#utility.yul\":10632:10636   */\n              0x00\n                /* \"#utility.yul\":10670:10672   */\n              0x20\n                /* \"#utility.yul\":10659:10668   */\n              dup3\n                /* \"#utility.yul\":10655:10673   */\n              add\n                /* \"#utility.yul\":10647:10673   */\n              swap1\n              pop\n                /* \"#utility.yul\":10719:10728   */\n              dup2\n                /* \"#utility.yul\":10713:10717   */\n              dup2\n                /* \"#utility.yul\":10709:10729   */\n              sub\n                /* \"#utility.yul\":10705:10706   */\n              0x00\n                /* \"#utility.yul\":10694:10703   */\n              dup4\n                /* \"#utility.yul\":10690:10707   */\n              add\n                /* \"#utility.yul\":10683:10730   */\n              mstore\n                /* \"#utility.yul\":10747:10878   */\n              tag_305\n                /* \"#utility.yul\":10873:10877   */\n              dup2\n                /* \"#utility.yul\":10747:10878   */\n              tag_199\n              jump\t// in\n            tag_305:\n                /* \"#utility.yul\":10739:10878   */\n              swap1\n              pop\n                /* \"#utility.yul\":10466:10885   */\n              swap2\n              swap1\n              pop\n              jump\t// out\n                /* \"#utility.yul\":10891:11071   */\n            tag_107:\n                /* \"#utility.yul\":10939:11016   */\n              0x4e487b7100000000000000000000000000000000000000000000000000000000\n                /* \"#utility.yul\":10936:10937   */\n              0x00\n                /* \"#utility.yul\":10929:11017   */\n              mstore\n                /* \"#utility.yul\":11036:11040   */\n              0x32\n                /* \"#utility.yul\":11033:11034   */\n              0x04\n                /* \"#utility.yul\":11026:11041   */\n              mstore\n                /* \"#utility.yul\":11060:11064   */\n              0x24\n                /* \"#utility.yul\":11057:11058   */\n              0x00\n                /* \"#utility.yul\":11050:11065   */\n              revert\n                /* \"#utility.yul\":11077:11310   */\n            tag_111:\n                /* \"#utility.yul\":11116:11119   */\n              0x00\n                /* \"#utility.yul\":11139:11163   */\n              tag_308\n                /* \"#utility.yul\":11157:11162   */\n              dup3\n                /* \"#utility.yul\":11139:11163   */\n              tag_186\n              jump\t// in\n            tag_308:\n                /* \"#utility.yul\":11130:11163   */\n              swap2\n              pop\n                /* \"#utility.yul\":11185:11251   */\n              0xffffffffffffffffffffffffffffffffffffffffffffffffffffffffffffffff\n                /* \"#utility.yul\":11178:11183   */\n              dup3\n                /* \"#utility.yul\":11175:11252   */\n              sub\n                /* \"#utility.yul\":11172:11275   */\n              tag_309\n              jumpi\n                /* \"#utility.yul\":11255:11273   */\n              tag_310\n              tag_197\n              jump\t// in\n            tag_310:\n                /* \"#utility.yul\":11172:11275   */\n            tag_309:\n                /* \"#utility.yul\":11302:11303   */\n              0x01\n                /* \"#utility.yul\":11295:11300   */\n              dup3\n                /* \"#utility.yul\":11291:11304   */\n              add\n                /* \"#utility.yul\":11284:11304   */\n              swap1\n              pop\n                /* \"#utility.yul\":11077:11310   */\n              swap2\n              swap1\n              pop\n              jump\t// out\n                /* \"#utility.yul\":11316:11486   */\n            tag_200:\n                /* \"#utility.yul\":11456:11478   */\n              0x53656e64657220616c726561647920766f746564000000000000000000000000\n                /* \"#utility.yul\":11452:11453   */\n              0x00\n                /* \"#utility.yul\":11444:11450   */\n              dup3\n                /* \"#utility.yul\":11440:11454   */\n              add\n                /* \"#utility.yul\":11433:11479   */\n              mstore\n                /* \"#utility.yul\":11316:11486   */\n              pop\n              jump\t// out\n                /* \"#utility.yul\":11492:11858   */\n            tag_201:\n                /* \"#utility.yul\":11634:11637   */\n              0x00\n                /* \"#utility.yul\":11655:11722   */\n              tag_313\n                /* \"#utility.yul\":11719:11721   */\n              0x14\n                /* \"#utility.yul\":11714:11717   */\n              dup4\n                /* \"#utility.yul\":11655:11722   */\n              tag_173\n              jump\t// in\n            tag_313:\n                /* \"#utility.yul\":11648:11722   */\n              swap2\n              pop\n                /* \"#utility.yul\":11731:11824   */\n              tag_314\n                /* \"#utility.yul\":11820:11823   */\n              dup3\n                /* \"#utility.yul\":11731:11824   */\n              tag_200\n              jump\t// in\n            tag_314:\n                /* \"#utility.yul\":11849:11851   */\n              0x20\n                /* \"#utility.yul\":11844:11847   */\n              dup3\n                /* \"#utility.yul\":11840:11852   */\n              add\n                /* \"#utility.yul\":11833:11852   */\n              swap1\n              pop\n                /* \"#utility.yul\":11492:11858   */\n              swap2\n              swap1\n              pop\n              jump\t// out\n                /* \"#utility.yul\":11864:12283   */\n            tag_114:\n                /* \"#utility.yul\":12030:12034   */\n              0x00\n                /* \"#utility.yul\":12068:12070   */\n              0x20\n                /* \"#utility.yul\":12057:12066   */\n              dup3\n                /* \"#utility.yul\":12053:12071   */\n              add\n                /* \"#utility.yul\":12045:12071   */\n              swap1\n              pop\n                /* \"#utility.yul\":12117:12126   */\n              dup2\n                /* \"#utility.yul\":12111:12115   */\n              dup2\n                /* \"#utility.yul\":12107:12127   */\n              sub\n                /* \"#utility.yul\":12103:12104   */\n              0x00\n                /* \"#utility.yul\":12092:12101   */\n              dup4\n                /* \"#utility.yul\":12088:12105   */\n              add\n                /* \"#utility.yul\":12081:12128   */\n              mstore\n                /* \"#utility.yul\":12145:12276   */\n              tag_316\n                /* \"#utility.yul\":12271:12275   */\n              dup2\n                /* \"#utility.yul\":12145:12276   */\n              tag_201\n              jump\t// in\n            tag_316:\n                /* \"#utility.yul\":12137:12276   */\n              swap1\n              pop\n                /* \"#utility.yul\":11864:12283   */\n              swap2\n              swap1\n              pop\n              jump\t// out\n                /* \"#utility.yul\":12289:12664   */\n            tag_117:\n                /* \"#utility.yul\":12328:12331   */\n              0x00\n                /* \"#utility.yul\":12347:12366   */\n              tag_318\n                /* \"#utility.yul\":12364:12365   */\n              dup3\n                /* \"#utility.yul\":12347:12366   */\n              tag_196\n              jump\t// in\n            tag_318:\n                /* \"#utility.yul\":12342:12366   */\n              swap2\n              pop\n                /* \"#utility.yul\":12380:12399   */\n              tag_319\n                /* \"#utility.yul\":12397:12398   */\n              dup4\n                /* \"#utility.yul\":12380:12399   */\n              tag_196\n              jump\t// in\n            tag_319:\n                /* \"#utility.yul\":12375:12399   */\n              swap3\n              pop\n                /* \"#utility.yul\":12422:12423   */\n              dup3\n                /* \"#utility.yul\":12419:12420   */\n              dup3\n                /* \"#utility.yul\":12415:12424   */\n              add\n                /* \"#utility.yul\":12408:12424   */\n              swap1\n              pop\n                /* \"#utility.yul\":12620:12621   */\n              dup3\n                /* \"#utility.yul\":12615:12618   */\n              dup2\n                /* \"#utility.yul\":12611:12622   */\n              slt\n                /* \"#utility.yul\":12604:12623   */\n              iszero\n                /* \"#utility.yul\":12600:12601   */\n              0x00\n                /* \"#utility.yul\":12597:12598   */\n              dup4\n                /* \"#utility.yul\":12593:12602   */\n              slt\n                /* \"#utility.yul\":12589:12624   */\n              and\n                /* \"#utility.yul\":12572:12573   */\n              dup4\n                /* \"#utility.yul\":12567:12570   */\n              dup3\n                /* \"#utility.yul\":12563:12574   */\n              slt\n                /* \"#utility.yul\":12558:12559   */\n              0x00\n                /* \"#utility.yul\":12555:12556   */\n              dup5\n                /* \"#utility.yul\":12551:12560   */\n              slt\n                /* \"#utility.yul\":12544:12561   */\n              iszero\n                /* \"#utility.yul\":12540:12575   */\n              and\n                /* \"#utility.yul\":12524:12634   */\n              or\n                /* \"#utility.yul\":12521:12657   */\n              iszero\n              tag_320\n              jumpi\n                /* \"#utility.yul\":12637:12655   */\n              tag_321\n              tag_197\n              jump\t// in\n            tag_321:\n                /* \"#utility.yul\":12521:12657   */\n            tag_320:\n                /* \"#utility.yul\":12289:12664   */\n              swap3\n              swap2\n              pop\n              pop\n              jump\t// out\n                /* \"#utility.yul\":12670:12850   */\n            tag_202:\n                /* \"#utility.yul\":12718:12795   */\n              0x4e487b7100000000000000000000000000000000000000000000000000000000\n                /* \"#utility.yul\":12715:12716   */\n              0x00\n                /* \"#utility.yul\":12708:12796   */\n              mstore\n                /* \"#utility.yul\":12815:12819   */\n              0x22\n                /* \"#utility.yul\":12812:12813   */\n              0x04\n                /* \"#utility.yul\":12805:12820   */\n              mstore\n                /* \"#utility.yul\":12839:12843   */\n              0x24\n                /* \"#utility.yul\":12836:12837   */\n              0x00\n                /* \"#utility.yul\":12829:12844   */\n              revert\n                /* \"#utility.yul\":12856:13176   */\n            tag_119:\n                /* \"#utility.yul\":12900:12906   */\n              0x00\n                /* \"#utility.yul\":12937:12938   */\n              0x02\n                /* \"#utility.yul\":12931:12935   */\n              dup3\n                /* \"#utility.yul\":12927:12939   */\n              div\n                /* \"#utility.yul\":12917:12939   */\n              swap1\n              pop\n                /* \"#utility.yul\":12984:12985   */\n              0x01\n                /* \"#utility.yul\":12978:12982   */\n              dup3\n                /* \"#utility.yul\":12974:12986   */\n              and\n                /* \"#utility.yul\":13005:13023   */\n              dup1\n                /* \"#utility.yul\":12995:13076   */\n              tag_324\n              jumpi\n                /* \"#utility.yul\":13061:13065   */\n              0x7f\n                /* \"#utility.yul\":13053:13059   */\n              dup3\n                /* \"#utility.yul\":13049:13066   */\n              and\n                /* \"#utility.yul\":13039:13066   */\n              swap2\n              pop\n                /* \"#utility.yul\":12995:13076   */\n            tag_324:\n                /* \"#utility.yul\":13123:13125   */\n              0x20\n                /* \"#utility.yul\":13115:13121   */\n              dup3\n                /* \"#utility.yul\":13112:13126   */\n              lt\n                /* \"#utility.yul\":13092:13110   */\n              dup2\n                /* \"#utility.yul\":13089:13127   */\n              sub\n                /* \"#utility.yul\":13086:13170   */\n              tag_325\n              jumpi\n                /* \"#utility.yul\":13142:13160   */\n              tag_326\n              tag_202\n              jump\t// in\n            tag_326:\n                /* \"#utility.yul\":13086:13170   */\n            tag_325:\n                /* \"#utility.yul\":12907:13176   */\n              pop\n                /* \"#utility.yul\":12856:13176   */\n              swap2\n              swap1\n              pop\n              jump\t// out\n                /* \"#utility.yul\":13182:13376   */\n            tag_148:\n                /* \"#utility.yul\":13222:13226   */\n              0x00\n                /* \"#utility.yul\":13242:13262   */\n              tag_328\n                /* \"#utility.yul\":13260:13261   */\n              dup3\n                /* \"#utility.yul\":13242:13262   */\n              tag_186\n              jump\t// in\n            tag_328:\n                /* \"#utility.yul\":13237:13262   */\n              swap2\n              pop\n                /* \"#utility.yul\":13276:13296   */\n              tag_329\n                /* \"#utility.yul\":13294:13295   */\n              dup4\n                /* \"#utility.yul\":13276:13296   */\n              tag_186\n              jump\t// in\n            tag_329:\n                /* \"#utility.yul\":13271:13296   */\n              swap3\n              pop\n                /* \"#utility.yul\":13320:13321   */\n              dup3\n                /* \"#utility.yul\":13317:13318   */\n              dup3\n                /* \"#utility.yul\":13313:13322   */\n              sub\n                /* \"#utility.yul\":13305:13322   */\n              swap1\n              pop\n                /* \"#utility.yul\":13344:13345   */\n              dup2\n                /* \"#utility.yul\":13338:13342   */\n              dup2\n                /* \"#utility.yul\":13335:13346   */\n              gt\n                /* \"#utility.yul\":13332:13369   */\n              iszero\n              tag_330\n              jumpi\n                /* \"#utility.yul\":13349:13367   */\n              tag_331\n              tag_197\n              jump\t// in\n            tag_331:\n                /* \"#utility.yul\":13332:13369   */\n            tag_330:\n                /* \"#utility.yul\":13182:13376   */\n              swap3\n              swap2\n              pop\n              pop\n              jump\t// out\n                /* \"#utility.yul\":13382:13562   */\n            tag_157:\n                /* \"#utility.yul\":13430:13507   */\n              0x4e487b7100000000000000000000000000000000000000000000000000000000\n                /* \"#utility.yul\":13427:13428   */\n              0x00\n                /* \"#utility.yul\":13420:13508   */\n              mstore\n                /* \"#utility.yul\":13527:13531   */\n              0x31\n                /* \"#utility.yul\":13524:13525   */\n              0x04\n                /* \"#utility.yul\":13517:13532   */\n              mstore\n                /* \"#utility.yul\":13551:13555   */\n              0x24\n                /* \"#utility.yul\":13548:13549   */\n              0x00\n                /* \"#utility.yul\":13541:13556   */\n              revert\n\n            auxdata: 0xa264697066735822122034af5c71adf3e1ca18da8f8e101769d05f0c8c163f8b7da7107ec56f520bc8a864736f6c63430008110033\n        }\n    }\n\n    auxdata: 0xa2646970667358221220bf02f7dbac8ad2b4c844c09c5c02fdffae1a26a3ed0c628eb1a71ecf71c0811f64736f6c63430008110033\n}\n\nsub_1: assembly {\n        /* \"MemberNFT.sol\":363:9159  contract Member is ERC165, IERC721, IERC721Metadata {... */\n      mstore(0x40, 0x80)\n        /* \"MemberNFT.sol\":456:485  string public name = \"Member\" */\n      mload(0x40)\n      dup1\n      0x40\n      add\n      0x40\n      mstore\n      dup1\n      0x06\n      dup2\n      mstore\n      0x20\n      add\n      0x4d656d6265720000000000000000000000000000000000000000000000000000\n      dup2\n      mstore\n      pop\n      0x00\n      swap1\n      dup2\n      tag_1\n      swap2\n      swap1\n      tag_2\n      jump\t// in\n    tag_1:\n      pop\n        /* \"MemberNFT.sol\":492:519  string public symbol = \"MM\" */\n      mload(0x40)\n      dup1\n      0x40\n      add\n      0x40\n      mstore\n      dup1\n      0x02\n      dup2\n      mstore\n      0x20\n      add\n      0x4d4d000000000000000000000000000000000000000000000000000000000000\n      dup2\n      mstore\n      pop\n      0x01\n      swap1\n      dup2\n      tag_3\n      swap2\n      swap1\n      tag_2\n      jump\t// in\n    tag_3:\n      pop\n        /* \"MemberNFT.sol\":846:847  0 */\n      0x00\n        /* \"MemberNFT.sol\":823:847  uint256 public count = 0 */\n      0x07\n      sstore\n        /* \"MemberNFT.sol\":904:976  constructor() {... */\n      callvalue\n      dup1\n      iszero\n      tag_4\n      jumpi\n      0x00\n      dup1\n      revert\n    tag_4:\n      pop\n        /* \"MemberNFT.sol\":958:968  msg.sender */\n      caller\n        /* \"MemberNFT.sol\":929:955  boardMemberContractAddress */\n      0x08\n      0x00\n        /* \"MemberNFT.sol\":929:968  boardMemberContractAddress = msg.sender */\n      0x0100\n      exp\n      dup2\n      sload\n      dup2\n      0xffffffffffffffffffffffffffffffffffffffff\n      mul\n      not\n      and\n      swap1\n      dup4\n      0xffffffffffffffffffffffffffffffffffffffff\n      and\n      mul\n      or\n      swap1\n      sstore\n      pop\n        /* \"MemberNFT.sol\":363:9159  contract Member is ERC165, IERC721, IERC721Metadata {... */\n      jump(tag_7)\n        /* \"#utility.yul\":7:106   */\n    tag_8:\n        /* \"#utility.yul\":59:65   */\n      0x00\n        /* \"#utility.yul\":93:98   */\n      dup2\n        /* \"#utility.yul\":87:99   */\n      mload\n        /* \"#utility.yul\":77:99   */\n      swap1\n      pop\n        /* \"#utility.yul\":7:106   */\n      swap2\n      swap1\n      pop\n      jump\t// out\n        /* \"#utility.yul\":112:292   */\n    tag_9:\n        /* \"#utility.yul\":160:237   */\n      0x4e487b7100000000000000000000000000000000000000000000000000000000\n        /* \"#utility.yul\":157:158   */\n      0x00\n        /* \"#utility.yul\":150:238   */\n      mstore\n        /* \"#utility.yul\":257:261   */\n      0x41\n        /* \"#utility.yul\":254:255   */\n      0x04\n        /* \"#utility.yul\":247:262   */\n      mstore\n        /* \"#utility.yul\":281:285   */\n      0x24\n        /* \"#utility.yul\":278:279   */\n      0x00\n        /* \"#utility.yul\":271:286   */\n      revert\n        /* \"#utility.yul\":298:478   */\n    tag_10:\n        /* \"#utility.yul\":346:423   */\n      0x4e487b7100000000000000000000000000000000000000000000000000000000\n        /* \"#utility.yul\":343:344   */\n      0x00\n        /* \"#utility.yul\":336:424   */\n      mstore\n        /* \"#utility.yul\":443:447   */\n      0x22\n        /* \"#utility.yul\":440:441   */\n      0x04\n        /* \"#utility.yul\":433:448   */\n      mstore\n        /* \"#utility.yul\":467:471   */\n      0x24\n        /* \"#utility.yul\":464:465   */\n      0x00\n        /* \"#utility.yul\":457:472   */\n      revert\n        /* \"#utility.yul\":484:804   */\n    tag_11:\n        /* \"#utility.yul\":528:534   */\n      0x00\n        /* \"#utility.yul\":565:566   */\n      0x02\n        /* \"#utility.yul\":559:563   */\n      dup3\n        /* \"#utility.yul\":555:567   */\n      div\n        /* \"#utility.yul\":545:567   */\n      swap1\n      pop\n        /* \"#utility.yul\":612:613   */\n      0x01\n        /* \"#utility.yul\":606:610   */\n      dup3\n        /* \"#utility.yul\":602:614   */\n      and\n        /* \"#utility.yul\":633:651   */\n      dup1\n        /* \"#utility.yul\":623:704   */\n      tag_33\n      jumpi\n        /* \"#utility.yul\":689:693   */\n      0x7f\n        /* \"#utility.yul\":681:687   */\n      dup3\n        /* \"#utility.yul\":677:694   */\n      and\n        /* \"#utility.yul\":667:694   */\n      swap2\n      pop\n        /* \"#utility.yul\":623:704   */\n    tag_33:\n        /* \"#utility.yul\":751:753   */\n      0x20\n        /* \"#utility.yul\":743:749   */\n      dup3\n        /* \"#utility.yul\":740:754   */\n      lt\n        /* \"#utility.yul\":720:738   */\n      dup2\n        /* \"#utility.yul\":717:755   */\n      sub\n        /* \"#utility.yul\":714:798   */\n      tag_34\n      jumpi\n        /* \"#utility.yul\":770:788   */\n      tag_35\n      tag_10\n      jump\t// in\n    tag_35:\n        /* \"#utility.yul\":714:798   */\n    tag_34:\n        /* \"#utility.yul\":535:804   */\n      pop\n        /* \"#utility.yul\":484:804   */\n      swap2\n      swap1\n      pop\n      jump\t// out\n        /* \"#utility.yul\":810:951   */\n    tag_12:\n        /* \"#utility.yul\":859:863   */\n      0x00\n        /* \"#utility.yul\":882:885   */\n      dup2\n        /* \"#utility.yul\":874:885   */\n      swap1\n      pop\n        /* \"#utility.yul\":905:908   */\n      dup2\n        /* \"#utility.yul\":902:903   */\n      0x00\n        /* \"#utility.yul\":895:909   */\n      mstore\n        /* \"#utility.yul\":939:943   */\n      0x20\n        /* \"#utility.yul\":936:937   */\n      0x00\n        /* \"#utility.yul\":926:944   */\n      keccak256\n        /* \"#utility.yul\":918:944   */\n      swap1\n      pop\n        /* \"#utility.yul\":810:951   */\n      swap2\n      swap1\n      pop\n      jump\t// out\n        /* \"#utility.yul\":957:1050   */\n    tag_13:\n        /* \"#utility.yul\":994:1000   */\n      0x00\n        /* \"#utility.yul\":1041:1043   */\n      0x20\n        /* \"#utility.yul\":1036:1038   */\n      0x1f\n        /* \"#utility.yul\":1029:1034   */\n      dup4\n        /* \"#utility.yul\":1025:1039   */\n      add\n        /* \"#utility.yul\":1021:1044   */\n      div\n        /* \"#utility.yul\":1011:1044   */\n      swap1\n      pop\n        /* \"#utility.yul\":957:1050   */\n      swap2\n      swap1\n      pop\n      jump\t// out\n        /* \"#utility.yul\":1056:1163   */\n    tag_14:\n        /* \"#utility.yul\":1100:1108   */\n      0x00\n        /* \"#utility.yul\":1150:1155   */\n      dup3\n        /* \"#utility.yul\":1144:1148   */\n      dup3\n        /* \"#utility.yul\":1140:1156   */\n      shl\n        /* \"#utility.yul\":1119:1156   */\n      swap1\n      pop\n        /* \"#utility.yul\":1056:1163   */\n      swap3\n      swap2\n      pop\n      pop\n      jump\t// out\n        /* \"#utility.yul\":1169:1562   */\n    tag_15:\n        /* \"#utility.yul\":1238:1244   */\n      0x00\n        /* \"#utility.yul\":1288:1289   */\n      0x08\n        /* \"#utility.yul\":1276:1286   */\n      dup4\n        /* \"#utility.yul\":1272:1290   */\n      mul\n        /* \"#utility.yul\":1311:1408   */\n      tag_40\n        /* \"#utility.yul\":1341:1407   */\n      0xffffffffffffffffffffffffffffffffffffffffffffffffffffffffffffffff\n        /* \"#utility.yul\":1330:1339   */\n      dup3\n        /* \"#utility.yul\":1311:1408   */\n      tag_14\n      jump\t// in\n    tag_40:\n        /* \"#utility.yul\":1429:1468   */\n      tag_41\n        /* \"#utility.yul\":1459:1467   */\n      dup7\n        /* \"#utility.yul\":1448:1457   */\n      dup4\n        /* \"#utility.yul\":1429:1468   */\n      tag_14\n      jump\t// in\n    tag_41:\n        /* \"#utility.yul\":1417:1468   */\n      swap6\n      pop\n        /* \"#utility.yul\":1501:1505   */\n      dup1\n        /* \"#utility.yul\":1497:1506   */\n      not\n        /* \"#utility.yul\":1490:1495   */\n      dup5\n        /* \"#utility.yul\":1486:1507   */\n      and\n        /* \"#utility.yul\":1477:1507   */\n      swap4\n      pop\n        /* \"#utility.yul\":1550:1554   */\n      dup1\n        /* \"#utility.yul\":1540:1548   */\n      dup7\n        /* \"#utility.yul\":1536:1555   */\n      and\n        /* \"#utility.yul\":1529:1534   */\n      dup5\n        /* \"#utility.yul\":1526:1556   */\n      or\n        /* \"#utility.yul\":1516:1556   */\n      swap3\n      pop\n        /* \"#utility.yul\":1245:1562   */\n      pop\n      pop\n        /* \"#utility.yul\":1169:1562   */\n      swap4\n      swap3\n      pop\n      pop\n      pop\n      jump\t// out\n        /* \"#utility.yul\":1568:1645   */\n    tag_16:\n        /* \"#utility.yul\":1605:1612   */\n      0x00\n        /* \"#utility.yul\":1634:1639   */\n      dup2\n        /* \"#utility.yul\":1623:1639   */\n      swap1\n      pop\n        /* \"#utility.yul\":1568:1645   */\n      swap2\n      swap1\n      pop\n      jump\t// out\n        /* \"#utility.yul\":1651:1711   */\n    tag_17:\n        /* \"#utility.yul\":1679:1682   */\n      0x00\n        /* \"#utility.yul\":1700:1705   */\n      dup2\n        /* \"#utility.yul\":1693:1705   */\n      swap1\n      pop\n        /* \"#utility.yul\":1651:1711   */\n      swap2\n      swap1\n      pop\n      jump\t// out\n        /* \"#utility.yul\":1717:1859   */\n    tag_18:\n        /* \"#utility.yul\":1767:1776   */\n      0x00\n        /* \"#utility.yul\":1800:1853   */\n      tag_45\n        /* \"#utility.yul\":1818:1852   */\n      tag_46\n        /* \"#utility.yul\":1827:1851   */\n      tag_47\n        /* \"#utility.yul\":1845:1850   */\n      dup5\n        /* \"#utility.yul\":1827:1851   */\n      tag_16\n      jump\t// in\n    tag_47:\n        /* \"#utility.yul\":1818:1852   */\n      tag_17\n      jump\t// in\n    tag_46:\n        /* \"#utility.yul\":1800:1853   */\n      tag_16\n      jump\t// in\n    tag_45:\n        /* \"#utility.yul\":1787:1853   */\n      swap1\n      pop\n        /* \"#utility.yul\":1717:1859   */\n      swap2\n      swap1\n      pop\n      jump\t// out\n        /* \"#utility.yul\":1865:1940   */\n    tag_19:\n        /* \"#utility.yul\":1908:1911   */\n      0x00\n        /* \"#utility.yul\":1929:1934   */\n      dup2\n        /* \"#utility.yul\":1922:1934   */\n      swap1\n      pop\n        /* \"#utility.yul\":1865:1940   */\n      swap2\n      swap1\n      pop\n      jump\t// out\n        /* \"#utility.yul\":1946:2215   */\n    tag_20:\n        /* \"#utility.yul\":2056:2095   */\n      tag_50\n        /* \"#utility.yul\":2087:2094   */\n      dup4\n        /* \"#utility.yul\":2056:2095   */\n      tag_18\n      jump\t// in\n    tag_50:\n        /* \"#utility.yul\":2117:2208   */\n      tag_51\n        /* \"#utility.yul\":2166:2207   */\n      tag_52\n        /* \"#utility.yul\":2190:2206   */\n      dup3\n        /* \"#utility.yul\":2166:2207   */\n      tag_19\n      jump\t// in\n    tag_52:\n        /* \"#utility.yul\":2158:2164   */\n      dup5\n        /* \"#utility.yul\":2151:2155   */\n      dup5\n        /* \"#utility.yul\":2145:2156   */\n      sload\n        /* \"#utility.yul\":2117:2208   */\n      tag_15\n      jump\t// in\n    tag_51:\n        /* \"#utility.yul\":2111:2115   */\n      dup3\n        /* \"#utility.yul\":2104:2209   */\n      sstore\n        /* \"#utility.yul\":2022:2215   */\n      pop\n        /* \"#utility.yul\":1946:2215   */\n      pop\n      pop\n      pop\n      jump\t// out\n        /* \"#utility.yul\":2221:2294   */\n    tag_21:\n        /* \"#utility.yul\":2266:2269   */\n      0x00\n        /* \"#utility.yul\":2221:2294   */\n      swap1\n      jump\t// out\n        /* \"#utility.yul\":2300:2489   */\n    tag_22:\n        /* \"#utility.yul\":2377:2409   */\n      tag_55\n      tag_21\n      jump\t// in\n    tag_55:\n        /* \"#utility.yul\":2418:2483   */\n      tag_56\n        /* \"#utility.yul\":2476:2482   */\n      dup2\n        /* \"#utility.yul\":2468:2474   */\n      dup5\n        /* \"#utility.yul\":2462:2466   */\n      dup5\n        /* \"#utility.yul\":2418:2483   */\n      tag_20\n      jump\t// in\n    tag_56:\n        /* \"#utility.yul\":2353:2489   */\n      pop\n        /* \"#utility.yul\":2300:2489   */\n      pop\n      pop\n      jump\t// out\n        /* \"#utility.yul\":2495:2681   */\n    tag_23:\n        /* \"#utility.yul\":2555:2675   */\n    tag_58:\n        /* \"#utility.yul\":2572:2575   */\n      dup2\n        /* \"#utility.yul\":2565:2570   */\n      dup2\n        /* \"#utility.yul\":2562:2576   */\n      lt\n        /* \"#utility.yul\":2555:2675   */\n      iszero\n      tag_60\n      jumpi\n        /* \"#utility.yul\":2626:2665   */\n      tag_61\n        /* \"#utility.yul\":2663:2664   */\n      0x00\n        /* \"#utility.yul\":2656:2661   */\n      dup3\n        /* \"#utility.yul\":2626:2665   */\n      tag_22\n      jump\t// in\n    tag_61:\n        /* \"#utility.yul\":2599:2600   */\n      0x01\n        /* \"#utility.yul\":2592:2597   */\n      dup2\n        /* \"#utility.yul\":2588:2601   */\n      add\n        /* \"#utility.yul\":2579:2601   */\n      swap1\n      pop\n        /* \"#utility.yul\":2555:2675   */\n      jump(tag_58)\n    tag_60:\n        /* \"#utility.yul\":2495:2681   */\n      pop\n      pop\n      jump\t// out\n        /* \"#utility.yul\":2687:3230   */\n    tag_24:\n        /* \"#utility.yul\":2788:2790   */\n      0x1f\n        /* \"#utility.yul\":2783:2786   */\n      dup3\n        /* \"#utility.yul\":2780:2791   */\n      gt\n        /* \"#utility.yul\":2777:3223   */\n      iszero\n      tag_63\n      jumpi\n        /* \"#utility.yul\":2822:2860   */\n      tag_64\n        /* \"#utility.yul\":2854:2859   */\n      dup2\n        /* \"#utility.yul\":2822:2860   */\n      tag_12\n      jump\t// in\n    tag_64:\n        /* \"#utility.yul\":2906:2935   */\n      tag_65\n        /* \"#utility.yul\":2924:2934   */\n      dup5\n        /* \"#utility.yul\":2906:2935   */\n      tag_13\n      jump\t// in\n    tag_65:\n        /* \"#utility.yul\":2896:2904   */\n      dup2\n        /* \"#utility.yul\":2892:2936   */\n      add\n        /* \"#utility.yul\":3089:3091   */\n      0x20\n        /* \"#utility.yul\":3077:3087   */\n      dup6\n        /* \"#utility.yul\":3074:3092   */\n      lt\n        /* \"#utility.yul\":3071:3120   */\n      iszero\n      tag_66\n      jumpi\n        /* \"#utility.yul\":3110:3118   */\n      dup2\n        /* \"#utility.yul\":3095:3118   */\n      swap1\n      pop\n        /* \"#utility.yul\":3071:3120   */\n    tag_66:\n        /* \"#utility.yul\":3133:3213   */\n      tag_67\n        /* \"#utility.yul\":3189:3211   */\n      tag_68\n        /* \"#utility.yul\":3207:3210   */\n      dup6\n        /* \"#utility.yul\":3189:3211   */\n      tag_13\n      jump\t// in\n    tag_68:\n        /* \"#utility.yul\":3179:3187   */\n      dup4\n        /* \"#utility.yul\":3175:3212   */\n      add\n        /* \"#utility.yul\":3162:3173   */\n      dup3\n        /* \"#utility.yul\":3133:3213   */\n      tag_23\n      jump\t// in\n    tag_67:\n        /* \"#utility.yul\":2792:3223   */\n      pop\n      pop\n        /* \"#utility.yul\":2777:3223   */\n    tag_63:\n        /* \"#utility.yul\":2687:3230   */\n      pop\n      pop\n      pop\n      jump\t// out\n        /* \"#utility.yul\":3236:3353   */\n    tag_25:\n        /* \"#utility.yul\":3290:3298   */\n      0x00\n        /* \"#utility.yul\":3340:3345   */\n      dup3\n        /* \"#utility.yul\":3334:3338   */\n      dup3\n        /* \"#utility.yul\":3330:3346   */\n      shr\n        /* \"#utility.yul\":3309:3346   */\n      swap1\n      pop\n        /* \"#utility.yul\":3236:3353   */\n      swap3\n      swap2\n      pop\n      pop\n      jump\t// out\n        /* \"#utility.yul\":3359:3528   */\n    tag_26:\n        /* \"#utility.yul\":3403:3409   */\n      0x00\n        /* \"#utility.yul\":3436:3487   */\n      tag_71\n        /* \"#utility.yul\":3484:3485   */\n      0x00\n        /* \"#utility.yul\":3480:3486   */\n      not\n        /* \"#utility.yul\":3472:3477   */\n      dup5\n        /* \"#utility.yul\":3469:3470   */\n      0x08\n        /* \"#utility.yul\":3465:3478   */\n      mul\n        /* \"#utility.yul\":3436:3487   */\n      tag_25\n      jump\t// in\n    tag_71:\n        /* \"#utility.yul\":3432:3488   */\n      not\n        /* \"#utility.yul\":3517:3521   */\n      dup1\n        /* \"#utility.yul\":3511:3515   */\n      dup4\n        /* \"#utility.yul\":3507:3522   */\n      and\n        /* \"#utility.yul\":3497:3522   */\n      swap2\n      pop\n        /* \"#utility.yul\":3410:3528   */\n      pop\n        /* \"#utility.yul\":3359:3528   */\n      swap3\n      swap2\n      pop\n      pop\n      jump\t// out\n        /* \"#utility.yul\":3533:3828   */\n    tag_27:\n        /* \"#utility.yul\":3609:3613   */\n      0x00\n        /* \"#utility.yul\":3755:3784   */\n      tag_73\n        /* \"#utility.yul\":3780:3783   */\n      dup4\n        /* \"#utility.yul\":3774:3778   */\n      dup4\n        /* \"#utility.yul\":3755:3784   */\n      tag_26\n      jump\t// in\n    tag_73:\n        /* \"#utility.yul\":3747:3784   */\n      swap2\n      pop\n        /* \"#utility.yul\":3817:3820   */\n      dup3\n        /* \"#utility.yul\":3814:3815   */\n      0x02\n        /* \"#utility.yul\":3810:3821   */\n      mul\n        /* \"#utility.yul\":3804:3808   */\n      dup3\n        /* \"#utility.yul\":3801:3822   */\n      or\n        /* \"#utility.yul\":3793:3822   */\n      swap1\n      pop\n        /* \"#utility.yul\":3533:3828   */\n      swap3\n      swap2\n      pop\n      pop\n      jump\t// out\n        /* \"#utility.yul\":3833:5228   */\n    tag_2:\n        /* \"#utility.yul\":3950:3987   */\n      tag_75\n        /* \"#utility.yul\":3983:3986   */\n      dup3\n        /* \"#utility.yul\":3950:3987   */\n      tag_8\n      jump\t// in\n    tag_75:\n        /* \"#utility.yul\":4052:4070   */\n      0xffffffffffffffff\n        /* \"#utility.yul\":4044:4050   */\n      dup2\n        /* \"#utility.yul\":4041:4071   */\n      gt\n        /* \"#utility.yul\":4038:4094   */\n      iszero\n      tag_76\n      jumpi\n        /* \"#utility.yul\":4074:4092   */\n      tag_77\n      tag_9\n      jump\t// in\n    tag_77:\n        /* \"#utility.yul\":4038:4094   */\n    tag_76:\n        /* \"#utility.yul\":4118:4156   */\n      tag_78\n        /* \"#utility.yul\":4150:4154   */\n      dup3\n        /* \"#utility.yul\":4144:4155   */\n      sload\n        /* \"#utility.yul\":4118:4156   */\n      tag_11\n      jump\t// in\n    tag_78:\n        /* \"#utility.yul\":4203:4270   */\n      tag_79\n        /* \"#utility.yul\":4263:4269   */\n      dup3\n        /* \"#utility.yul\":4255:4261   */\n      dup3\n        /* \"#utility.yul\":4249:4253   */\n      dup6\n        /* \"#utility.yul\":4203:4270   */\n      tag_24\n      jump\t// in\n    tag_79:\n        /* \"#utility.yul\":4297:4298   */\n      0x00\n        /* \"#utility.yul\":4321:4325   */\n      0x20\n        /* \"#utility.yul\":4308:4325   */\n      swap1\n      pop\n        /* \"#utility.yul\":4353:4355   */\n      0x1f\n        /* \"#utility.yul\":4345:4351   */\n      dup4\n        /* \"#utility.yul\":4342:4356   */\n      gt\n        /* \"#utility.yul\":4370:4371   */\n      0x01\n        /* \"#utility.yul\":4365:4983   */\n      dup2\n      eq\n      tag_81\n      jumpi\n        /* \"#utility.yul\":5027:5028   */\n      0x00\n        /* \"#utility.yul\":5044:5050   */\n      dup5\n        /* \"#utility.yul\":5041:5118   */\n      iszero\n      tag_82\n      jumpi\n        /* \"#utility.yul\":5093:5102   */\n      dup3\n        /* \"#utility.yul\":5088:5091   */\n      dup8\n        /* \"#utility.yul\":5084:5103   */\n      add\n        /* \"#utility.yul\":5078:5104   */\n      mload\n        /* \"#utility.yul\":5069:5104   */\n      swap1\n      pop\n        /* \"#utility.yul\":5041:5118   */\n    tag_82:\n        /* \"#utility.yul\":5144:5211   */\n      tag_83\n        /* \"#utility.yul\":5204:5210   */\n      dup6\n        /* \"#utility.yul\":5197:5202   */\n      dup3\n        /* \"#utility.yul\":5144:5211   */\n      tag_27\n      jump\t// in\n    tag_83:\n        /* \"#utility.yul\":5138:5142   */\n      dup7\n        /* \"#utility.yul\":5131:5212   */\n      sstore\n        /* \"#utility.yul\":5000:5222   */\n      pop\n        /* \"#utility.yul\":4335:5222   */\n      jump(tag_80)\n        /* \"#utility.yul\":4365:4983   */\n    tag_81:\n        /* \"#utility.yul\":4417:4421   */\n      0x1f\n        /* \"#utility.yul\":4413:4422   */\n      not\n        /* \"#utility.yul\":4405:4411   */\n      dup5\n        /* \"#utility.yul\":4401:4423   */\n      and\n        /* \"#utility.yul\":4451:4488   */\n      tag_84\n        /* \"#utility.yul\":4483:4487   */\n      dup7\n        /* \"#utility.yul\":4451:4488   */\n      tag_12\n      jump\t// in\n    tag_84:\n        /* \"#utility.yul\":4510:4511   */\n      0x00\n        /* \"#utility.yul\":4524:4732   */\n    tag_85:\n        /* \"#utility.yul\":4538:4545   */\n      dup3\n        /* \"#utility.yul\":4535:4536   */\n      dup2\n        /* \"#utility.yul\":4532:4546   */\n      lt\n        /* \"#utility.yul\":4524:4732   */\n      iszero\n      tag_87\n      jumpi\n        /* \"#utility.yul\":4617:4626   */\n      dup5\n        /* \"#utility.yul\":4612:4615   */\n      dup10\n        /* \"#utility.yul\":4608:4627   */\n      add\n        /* \"#utility.yul\":4602:4628   */\n      mload\n        /* \"#utility.yul\":4594:4600   */\n      dup3\n        /* \"#utility.yul\":4587:4629   */\n      sstore\n        /* \"#utility.yul\":4668:4669   */\n      0x01\n        /* \"#utility.yul\":4660:4666   */\n      dup3\n        /* \"#utility.yul\":4656:4670   */\n      add\n        /* \"#utility.yul\":4646:4670   */\n      swap2\n      pop\n        /* \"#utility.yul\":4715:4717   */\n      0x20\n        /* \"#utility.yul\":4704:4713   */\n      dup6\n        /* \"#utility.yul\":4700:4718   */\n      add\n        /* \"#utility.yul\":4687:4718   */\n      swap5\n      pop\n        /* \"#utility.yul\":4561:4565   */\n      0x20\n        /* \"#utility.yul\":4558:4559   */\n      dup2\n        /* \"#utility.yul\":4554:4566   */\n      add\n        /* \"#utility.yul\":4549:4566   */\n      swap1\n      pop\n        /* \"#utility.yul\":4524:4732   */\n      jump(tag_85)\n    tag_87:\n        /* \"#utility.yul\":4760:4766   */\n      dup7\n        /* \"#utility.yul\":4751:4758   */\n      dup4\n        /* \"#utility.yul\":4748:4767   */\n      lt\n        /* \"#utility.yul\":4745:4924   */\n      iszero\n      tag_88\n      jumpi\n        /* \"#utility.yul\":4818:4827   */\n      dup5\n        /* \"#utility.yul\":4813:4816   */\n      dup10\n        /* \"#utility.yul\":4809:4828   */\n      add\n        /* \"#utility.yul\":4803:4829   */\n      mload\n        /* \"#utility.yul\":4861:4909   */\n      tag_89\n        /* \"#utility.yul\":4903:4907   */\n      0x1f\n        /* \"#utility.yul\":4895:4901   */\n      dup10\n        /* \"#utility.yul\":4891:4908   */\n      and\n        /* \"#utility.yul\":4880:4889   */\n      dup3\n        /* \"#utility.yul\":4861:4909   */\n      tag_26\n      jump\t// in\n    tag_89:\n        /* \"#utility.yul\":4853:4859   */\n      dup4\n        /* \"#utility.yul\":4846:4910   */\n      sstore\n        /* \"#utility.yul\":4768:4924   */\n      pop\n        /* \"#utility.yul\":4745:4924   */\n    tag_88:\n        /* \"#utility.yul\":4970:4971   */\n      0x01\n        /* \"#utility.yul\":4966:4967   */\n      0x02\n        /* \"#utility.yul\":4958:4964   */\n      dup9\n        /* \"#utility.yul\":4954:4968   */\n      mul\n        /* \"#utility.yul\":4950:4972   */\n      add\n        /* \"#utility.yul\":4944:4948   */\n      dup9\n        /* \"#utility.yul\":4937:4973   */\n      sstore\n        /* \"#utility.yul\":4372:4983   */\n      pop\n      pop\n      pop\n        /* \"#utility.yul\":4335:5222   */\n    tag_80:\n      pop\n        /* \"#utility.yul\":3925:5228   */\n      pop\n      pop\n      pop\n        /* \"#utility.yul\":3833:5228   */\n      pop\n      pop\n      jump\t// out\n        /* \"MemberNFT.sol\":363:9159  contract Member is ERC165, IERC721, IERC721Metadata {... */\n    tag_7:\n      dataSize(sub_0)\n      dup1\n      dataOffset(sub_0)\n      0x00\n      codecopy\n      0x00\n      return\n    stop\n\n    sub_0: assembly {\n            /* \"MemberNFT.sol\":363:9159  contract Member is ERC165, IERC721, IERC721Metadata {... */\n          mstore(0x40, 0x80)\n          callvalue\n          dup1\n          iszero\n          tag_1\n          jumpi\n          0x00\n          dup1\n          revert\n        tag_1:\n          pop\n          jumpi(tag_2, lt(calldatasize, 0x04))\n          shr(0xe0, calldataload(0x00))\n          dup1\n          0x70a08231\n          gt\n          tag_21\n          jumpi\n          dup1\n          0xa22cb465\n          gt\n          tag_22\n          jumpi\n          dup1\n          0xa22cb465\n          eq\n          tag_16\n          jumpi\n          dup1\n          0xb88d4fde\n          eq\n          tag_17\n          jumpi\n          dup1\n          0xc87b56dd\n          eq\n          tag_18\n          jumpi\n          dup1\n          0xe3c5e2cf\n          eq\n          tag_19\n          jumpi\n          dup1\n          0xe985e9c5\n          eq\n          tag_20\n          jumpi\n          jump(tag_2)\n        tag_22:\n          dup1\n          0x70a08231\n          eq\n          tag_12\n          jumpi\n          dup1\n          0x8c2be833\n          eq\n          tag_13\n          jumpi\n          dup1\n          0x951b6c02\n          eq\n          tag_14\n          jumpi\n          dup1\n          0x95d89b41\n          eq\n          tag_15\n          jumpi\n          jump(tag_2)\n        tag_21:\n          dup1\n          0x095ea7b3\n          gt\n          tag_23\n          jumpi\n          dup1\n          0x095ea7b3\n          eq\n          tag_7\n          jumpi\n          dup1\n          0x23b872dd\n          eq\n          tag_8\n          jumpi\n          dup1\n          0x3a0a3444\n          eq\n          tag_9\n          jumpi\n          dup1\n          0x42842e0e\n          eq\n          tag_10\n          jumpi\n          dup1\n          0x6352211e\n          eq\n          tag_11\n          jumpi\n          jump(tag_2)\n        tag_23:\n          dup1\n          0x01ffc9a7\n          eq\n          tag_3\n          jumpi\n          dup1\n          0x06661abd\n          eq\n          tag_4\n          jumpi\n          dup1\n          0x06fdde03\n          eq\n          tag_5\n          jumpi\n          dup1\n          0x081812fc\n          eq\n          tag_6\n          jumpi\n        tag_2:\n          0x00\n          dup1\n          revert\n            /* \"MemberNFT.sol\":1775:2130  function supportsInterface(bytes4 interfaceId)... */\n        tag_3:\n          tag_24\n          0x04\n          dup1\n          calldatasize\n          sub\n          dup2\n          add\n          swap1\n          tag_25\n          swap2\n          swap1\n          tag_26\n          jump\t// in\n        tag_25:\n          tag_27\n          jump\t// in\n        tag_24:\n          mload(0x40)\n          tag_28\n          swap2\n          swap1\n          tag_29\n          jump\t// in\n        tag_28:\n          mload(0x40)\n          dup1\n          swap2\n          sub\n          swap1\n          return\n            /* \"MemberNFT.sol\":823:847  uint256 public count = 0 */\n        tag_4:\n          tag_30\n          tag_31\n          jump\t// in\n        tag_30:\n          mload(0x40)\n          tag_32\n          swap2\n          swap1\n          tag_33\n          jump\t// in\n        tag_32:\n          mload(0x40)\n          dup1\n          swap2\n          sub\n          swap1\n          return\n            /* \"MemberNFT.sol\":456:485  string public name = \"Member\" */\n        tag_5:\n          tag_34\n          tag_35\n          jump\t// in\n        tag_34:\n          mload(0x40)\n          tag_36\n          swap2\n          swap1\n          tag_37\n          jump\t// in\n        tag_36:\n          mload(0x40)\n          dup1\n          swap2\n          sub\n          swap1\n          return\n            /* \"MemberNFT.sol\":3683:3904  function getApproved(uint256 tokenId)... */\n        tag_6:\n          tag_38\n          0x04\n          dup1\n          calldatasize\n          sub\n          dup2\n          add\n          swap1\n          tag_39\n          swap2\n          swap1\n          tag_40\n          jump\t// in\n        tag_39:\n          tag_41\n          jump\t// in\n        tag_38:\n          mload(0x40)\n          tag_42\n          swap2\n          swap1\n          tag_43\n          jump\t// in\n        tag_42:\n          mload(0x40)\n          dup1\n          swap2\n          sub\n          swap1\n          return\n            /* \"MemberNFT.sol\":3246:3675  function approve(address to, uint256 tokenId) public virtual override {... */\n        tag_7:\n          tag_44\n          0x04\n          dup1\n          calldatasize\n          sub\n          dup2\n          add\n          swap1\n          tag_45\n          swap2\n          swap1\n          tag_46\n          jump\t// in\n        tag_45:\n          tag_47\n          jump\t// in\n        tag_44:\n          stop\n            /* \"MemberNFT.sol\":4335:4706  function transferFrom(... */\n        tag_8:\n          tag_48\n          0x04\n          dup1\n          calldatasize\n          sub\n          dup2\n          add\n          swap1\n          tag_49\n          swap2\n          swap1\n          tag_50\n          jump\t// in\n        tag_49:\n          tag_51\n          jump\t// in\n        tag_48:\n          stop\n            /* \"MemberNFT.sol\":1535:1767  function mintToFirst(address who, address group) public {... */\n        tag_9:\n          tag_52\n          0x04\n          dup1\n          calldatasize\n          sub\n          dup2\n          add\n          swap1\n          tag_53\n          swap2\n          swap1\n          tag_54\n          jump\t// in\n        tag_53:\n          tag_55\n          jump\t// in\n        tag_52:\n          stop\n            /* \"MemberNFT.sol\":4714:4899  function safeTransferFrom(... */\n        tag_10:\n          tag_56\n          0x04\n          dup1\n          calldatasize\n          sub\n          dup2\n          add\n          swap1\n          tag_57\n          swap2\n          swap1\n          tag_50\n          jump\t// in\n        tag_57:\n          tag_58\n          jump\t// in\n        tag_56:\n          stop\n            /* \"MemberNFT.sol\":2443:2730  function ownerOf(uint256 tokenId)... */\n        tag_11:\n          tag_59\n          0x04\n          dup1\n          calldatasize\n          sub\n          dup2\n          add\n          swap1\n          tag_60\n          swap2\n          swap1\n          tag_40\n          jump\t// in\n        tag_60:\n          tag_61\n          jump\t// in\n        tag_59:\n          mload(0x40)\n          tag_62\n          swap2\n          swap1\n          tag_43\n          jump\t// in\n        tag_62:\n          mload(0x40)\n          dup1\n          swap2\n          sub\n          swap1\n          return\n            /* \"MemberNFT.sol\":2138:2435  function balanceOf(address owner_)... */\n        tag_12:\n          tag_63\n          0x04\n          dup1\n          calldatasize\n          sub\n          dup2\n          add\n          swap1\n          tag_64\n          swap2\n          swap1\n          tag_65\n          jump\t// in\n        tag_64:\n          tag_66\n          jump\t// in\n        tag_63:\n          mload(0x40)\n          tag_67\n          swap2\n          swap1\n          tag_33\n          jump\t// in\n        tag_67:\n          mload(0x40)\n          dup1\n          swap2\n          sub\n          swap1\n          return\n            /* \"MemberNFT.sol\":854:895  address public boardMemberContractAddress */\n        tag_13:\n          tag_68\n          tag_69\n          jump\t// in\n        tag_68:\n          mload(0x40)\n          tag_70\n          swap2\n          swap1\n          tag_43\n          jump\t// in\n        tag_70:\n          mload(0x40)\n          dup1\n          swap2\n          sub\n          swap1\n          return\n            /* \"MemberNFT.sol\":984:1527  function mintTo(address newMember, address boardAddress) public {... */\n        tag_14:\n          tag_71\n          0x04\n          dup1\n          calldatasize\n          sub\n          dup2\n          add\n          swap1\n          tag_72\n          swap2\n          swap1\n          tag_54\n          jump\t// in\n        tag_72:\n          tag_73\n          jump\t// in\n        tag_71:\n          stop\n            /* \"MemberNFT.sol\":492:519  string public symbol = \"MM\" */\n        tag_15:\n          tag_74\n          tag_75\n          jump\t// in\n        tag_74:\n          mload(0x40)\n          tag_76\n          swap2\n          swap1\n          tag_37\n          jump\t// in\n        tag_76:\n          mload(0x40)\n          dup1\n          swap2\n          sub\n          swap1\n          return\n            /* \"MemberNFT.sol\":3912:4097  function setApprovalForAll(address operator, bool approved)... */\n        tag_16:\n          tag_77\n          0x04\n          dup1\n          calldatasize\n          sub\n          dup2\n          add\n          swap1\n          tag_78\n          swap2\n          swap1\n          tag_79\n          jump\t// in\n        tag_78:\n          tag_80\n          jump\t// in\n        tag_77:\n          stop\n            /* \"MemberNFT.sol\":4907:5265  function safeTransferFrom(... */\n        tag_17:\n          tag_81\n          0x04\n          dup1\n          calldatasize\n          sub\n          dup2\n          add\n          swap1\n          tag_82\n          swap2\n          swap1\n          tag_83\n          jump\t// in\n        tag_82:\n          tag_84\n          jump\t// in\n        tag_81:\n          stop\n            /* \"MemberNFT.sol\":2738:3072  function tokenURI(uint256 tokenId)... */\n        tag_18:\n          tag_85\n          0x04\n          dup1\n          calldatasize\n          sub\n          dup2\n          add\n          swap1\n          tag_86\n          swap2\n          swap1\n          tag_40\n          jump\t// in\n        tag_86:\n          tag_87\n          jump\t// in\n        tag_85:\n          mload(0x40)\n          tag_88\n          swap2\n          swap1\n          tag_37\n          jump\t// in\n        tag_88:\n          mload(0x40)\n          dup1\n          swap2\n          sub\n          swap1\n          return\n            /* \"MemberNFT.sol\":3080:3238  function getTokenIdGroupAddress(uint256 tokenId)... */\n        tag_19:\n          tag_89\n          0x04\n          dup1\n          calldatasize\n          sub\n          dup2\n          add\n          swap1\n          tag_90\n          swap2\n          swap1\n          tag_40\n          jump\t// in\n        tag_90:\n          tag_91\n          jump\t// in\n        tag_89:\n          mload(0x40)\n          tag_92\n          swap2\n          swap1\n          tag_43\n          jump\t// in\n        tag_92:\n          mload(0x40)\n          dup1\n          swap2\n          sub\n          swap1\n          return\n            /* \"MemberNFT.sol\":4105:4327  function isApprovedForAll(address tokeOwner, address operator)... */\n        tag_20:\n          tag_93\n          0x04\n          dup1\n          calldatasize\n          sub\n          dup2\n          add\n          swap1\n          tag_94\n          swap2\n          swap1\n          tag_54\n          jump\t// in\n        tag_94:\n          tag_95\n          jump\t// in\n        tag_93:\n          mload(0x40)\n          tag_96\n          swap2\n          swap1\n          tag_29\n          jump\t// in\n        tag_96:\n          mload(0x40)\n          dup1\n          swap2\n          sub\n          swap1\n          return\n            /* \"MemberNFT.sol\":1775:2130  function supportsInterface(bytes4 interfaceId)... */\n        tag_27:\n            /* \"MemberNFT.sol\":1922:1926  bool */\n          0x00\n            /* \"MemberNFT.sol\":1979:2004  type(IERC721).interfaceId */\n          0x80ac58cd00000000000000000000000000000000000000000000000000000000\n            /* \"MemberNFT.sol\":1964:2004  interfaceId == type(IERC721).interfaceId */\n          not(0xffffffffffffffffffffffffffffffffffffffffffffffffffffffff)\n          and\n            /* \"MemberNFT.sol\":1964:1975  interfaceId */\n          dup3\n            /* \"MemberNFT.sol\":1964:2004  interfaceId == type(IERC721).interfaceId */\n          not(0xffffffffffffffffffffffffffffffffffffffffffffffffffffffff)\n          and\n          eq\n            /* \"MemberNFT.sol\":1964:2069  interfaceId == type(IERC721).interfaceId ||... */\n          dup1\n          tag_98\n          jumpi\n          pop\n            /* \"MemberNFT.sol\":2036:2069  type(IERC721Metadata).interfaceId */\n          0x5b5e139f00000000000000000000000000000000000000000000000000000000\n            /* \"MemberNFT.sol\":2021:2069  interfaceId == type(IERC721Metadata).interfaceId */\n          not(0xffffffffffffffffffffffffffffffffffffffffffffffffffffffff)\n          and\n            /* \"MemberNFT.sol\":2021:2032  interfaceId */\n          dup3\n            /* \"MemberNFT.sol\":2021:2069  interfaceId == type(IERC721Metadata).interfaceId */\n          not(0xffffffffffffffffffffffffffffffffffffffffffffffffffffffff)\n          and\n          eq\n            /* \"MemberNFT.sol\":1964:2069  interfaceId == type(IERC721).interfaceId ||... */\n        tag_98:\n            /* \"MemberNFT.sol\":1964:2122  interfaceId == type(IERC721).interfaceId ||... */\n          dup1\n          tag_99\n          jumpi\n          pop\n            /* \"MemberNFT.sol\":2086:2122  super.supportsInterface(interfaceId) */\n          tag_100\n            /* \"MemberNFT.sol\":2110:2121  interfaceId */\n          dup3\n            /* \"MemberNFT.sol\":2086:2109  super.supportsInterface */\n          tag_101\n            /* \"MemberNFT.sol\":2086:2122  super.supportsInterface(interfaceId) */\n          jump\t// in\n        tag_100:\n            /* \"MemberNFT.sol\":1964:2122  interfaceId == type(IERC721).interfaceId ||... */\n        tag_99:\n            /* \"MemberNFT.sol\":1944:2122  return... */\n          swap1\n          pop\n            /* \"MemberNFT.sol\":1775:2130  function supportsInterface(bytes4 interfaceId)... */\n          swap2\n          swap1\n          pop\n          jump\t// out\n            /* \"MemberNFT.sol\":823:847  uint256 public count = 0 */\n        tag_31:\n          sload(0x07)\n          dup2\n          jump\t// out\n            /* \"MemberNFT.sol\":456:485  string public name = \"Member\" */\n        tag_35:\n          0x00\n          dup1\n          sload\n          tag_102\n          swap1\n          tag_103\n          jump\t// in\n        tag_102:\n          dup1\n          0x1f\n          add\n          0x20\n          dup1\n          swap2\n          div\n          mul\n          0x20\n          add\n          mload(0x40)\n          swap1\n          dup2\n          add\n          0x40\n          mstore\n          dup1\n          swap3\n          swap2\n          swap1\n          dup2\n          dup2\n          mstore\n          0x20\n          add\n          dup3\n          dup1\n          sload\n          tag_104\n          swap1\n          tag_103\n          jump\t// in\n        tag_104:\n          dup1\n          iszero\n          tag_105\n          jumpi\n          dup1\n          0x1f\n          lt\n          tag_106\n          jumpi\n          0x0100\n          dup1\n          dup4\n          sload\n          div\n          mul\n          dup4\n          mstore\n          swap2\n          0x20\n          add\n          swap2\n          jump(tag_105)\n        tag_106:\n          dup3\n          add\n          swap2\n          swap1\n          0x00\n          mstore\n          keccak256(0x00, 0x20)\n          swap1\n        tag_107:\n          dup2\n          sload\n          dup2\n          mstore\n          swap1\n          0x01\n          add\n          swap1\n          0x20\n          add\n          dup1\n          dup4\n          gt\n          tag_107\n          jumpi\n          dup3\n          swap1\n          sub\n          0x1f\n          and\n          dup3\n          add\n          swap2\n        tag_105:\n          pop\n          pop\n          pop\n          pop\n          pop\n          dup2\n          jump\t// out\n            /* \"MemberNFT.sol\":3683:3904  function getApproved(uint256 tokenId)... */\n        tag_41:\n            /* \"MemberNFT.sol\":3804:3811  address */\n          0x00\n            /* \"MemberNFT.sol\":3829:3852  _requireMinted(tokenId) */\n          tag_109\n            /* \"MemberNFT.sol\":3844:3851  tokenId */\n          dup3\n            /* \"MemberNFT.sol\":3829:3843  _requireMinted */\n          tag_110\n            /* \"MemberNFT.sol\":3829:3852  _requireMinted(tokenId) */\n          jump\t// in\n        tag_109:\n            /* \"MemberNFT.sol\":3872:3887  _tokenApprovals */\n          0x05\n            /* \"MemberNFT.sol\":3872:3896  _tokenApprovals[tokenId] */\n          0x00\n            /* \"MemberNFT.sol\":3888:3895  tokenId */\n          dup4\n            /* \"MemberNFT.sol\":3872:3896  _tokenApprovals[tokenId] */\n          dup2\n          mstore\n          0x20\n          add\n          swap1\n          dup2\n          mstore\n          0x20\n          add\n          0x00\n          keccak256\n          0x00\n          swap1\n          sload\n          swap1\n          0x0100\n          exp\n          swap1\n          div\n          0xffffffffffffffffffffffffffffffffffffffff\n          and\n            /* \"MemberNFT.sol\":3865:3896  return _tokenApprovals[tokenId] */\n          swap1\n          pop\n            /* \"MemberNFT.sol\":3683:3904  function getApproved(uint256 tokenId)... */\n          swap2\n          swap1\n          pop\n          jump\t// out\n            /* \"MemberNFT.sol\":3246:3675  function approve(address to, uint256 tokenId) public virtual override {... */\n        tag_47:\n            /* \"MemberNFT.sol\":3327:3344  address tokeOwner */\n          0x00\n            /* \"MemberNFT.sol\":3347:3370  Member.ownerOf(tokenId) */\n          tag_112\n            /* \"MemberNFT.sol\":3362:3369  tokenId */\n          dup3\n            /* \"MemberNFT.sol\":3347:3361  Member.ownerOf */\n          tag_61\n            /* \"MemberNFT.sol\":3347:3370  Member.ownerOf(tokenId) */\n          jump\t// in\n        tag_112:\n            /* \"MemberNFT.sol\":3327:3370  address tokeOwner = Member.ownerOf(tokenId) */\n          swap1\n          pop\n            /* \"MemberNFT.sol\":3395:3404  tokeOwner */\n          dup1\n            /* \"MemberNFT.sol\":3389:3404  to != tokeOwner */\n          0xffffffffffffffffffffffffffffffffffffffff\n          and\n            /* \"MemberNFT.sol\":3389:3391  to */\n          dup4\n            /* \"MemberNFT.sol\":3389:3404  to != tokeOwner */\n          0xffffffffffffffffffffffffffffffffffffffff\n          and\n          sub\n            /* \"MemberNFT.sol\":3381:3442  require(to != tokeOwner, \"ERC721: approval to current owner\") */\n          tag_113\n          jumpi\n          mload(0x40)\n          0x08c379a000000000000000000000000000000000000000000000000000000000\n          dup2\n          mstore\n          0x04\n          add\n          tag_114\n          swap1\n          tag_115\n          jump\t// in\n        tag_114:\n          mload(0x40)\n          dup1\n          swap2\n          sub\n          swap1\n          revert\n        tag_113:\n            /* \"MemberNFT.sol\":3491:3500  tokeOwner */\n          dup1\n            /* \"MemberNFT.sol\":3477:3500  msg.sender == tokeOwner */\n          0xffffffffffffffffffffffffffffffffffffffff\n          and\n            /* \"MemberNFT.sol\":3477:3487  msg.sender */\n          caller\n            /* \"MemberNFT.sol\":3477:3500  msg.sender == tokeOwner */\n          0xffffffffffffffffffffffffffffffffffffffff\n          and\n          eq\n            /* \"MemberNFT.sol\":3477:3543  msg.sender == tokeOwner || isApprovedForAll(tokeOwner, msg.sender) */\n          dup1\n          tag_116\n          jumpi\n          pop\n            /* \"MemberNFT.sol\":3504:3543  isApprovedForAll(tokeOwner, msg.sender) */\n          tag_117\n            /* \"MemberNFT.sol\":3521:3530  tokeOwner */\n          dup2\n            /* \"MemberNFT.sol\":3532:3542  msg.sender */\n          caller\n            /* \"MemberNFT.sol\":3504:3520  isApprovedForAll */\n          tag_95\n            /* \"MemberNFT.sol\":3504:3543  isApprovedForAll(tokeOwner, msg.sender) */\n          jump\t// in\n        tag_117:\n            /* \"MemberNFT.sol\":3477:3543  msg.sender == tokeOwner || isApprovedForAll(tokeOwner, msg.sender) */\n        tag_116:\n            /* \"MemberNFT.sol\":3455:3633  require(... */\n          tag_118\n          jumpi\n          mload(0x40)\n          0x08c379a000000000000000000000000000000000000000000000000000000000\n          dup2\n          mstore\n          0x04\n          add\n          tag_119\n          swap1\n          tag_120\n          jump\t// in\n        tag_119:\n          mload(0x40)\n          dup1\n          swap2\n          sub\n          swap1\n          revert\n        tag_118:\n            /* \"MemberNFT.sol\":3646:3667  _approve(to, tokenId) */\n          tag_121\n            /* \"MemberNFT.sol\":3655:3657  to */\n          dup4\n            /* \"MemberNFT.sol\":3659:3666  tokenId */\n          dup4\n            /* \"MemberNFT.sol\":3646:3654  _approve */\n          tag_122\n            /* \"MemberNFT.sol\":3646:3667  _approve(to, tokenId) */\n          jump\t// in\n        tag_121:\n            /* \"MemberNFT.sol\":3316:3675  {... */\n          pop\n            /* \"MemberNFT.sol\":3246:3675  function approve(address to, uint256 tokenId) public virtual override {... */\n          pop\n          pop\n          jump\t// out\n            /* \"MemberNFT.sol\":4335:4706  function transferFrom(... */\n        tag_51:\n            /* \"MemberNFT.sol\":4544:4583  _isApprovedOrOwner(msg.sender, tokenId) */\n          tag_124\n            /* \"MemberNFT.sol\":4563:4573  msg.sender */\n          caller\n            /* \"MemberNFT.sol\":4575:4582  tokenId */\n          dup3\n            /* \"MemberNFT.sol\":4544:4562  _isApprovedOrOwner */\n          tag_125\n            /* \"MemberNFT.sol\":4544:4583  _isApprovedOrOwner(msg.sender, tokenId) */\n          jump\t// in\n        tag_124:\n            /* \"MemberNFT.sol\":4522:4657  require(... */\n          tag_126\n          jumpi\n          mload(0x40)\n          0x08c379a000000000000000000000000000000000000000000000000000000000\n          dup2\n          mstore\n          0x04\n          add\n          tag_127\n          swap1\n          tag_128\n          jump\t// in\n        tag_127:\n          mload(0x40)\n          dup1\n          swap2\n          sub\n          swap1\n          revert\n        tag_126:\n            /* \"MemberNFT.sol\":4670:4698  _transfer(from, to, tokenId) */\n          tag_129\n            /* \"MemberNFT.sol\":4680:4684  from */\n          dup4\n            /* \"MemberNFT.sol\":4686:4688  to */\n          dup4\n            /* \"MemberNFT.sol\":4690:4697  tokenId */\n          dup4\n            /* \"MemberNFT.sol\":4670:4679  _transfer */\n          tag_130\n            /* \"MemberNFT.sol\":4670:4698  _transfer(from, to, tokenId) */\n          jump\t// in\n        tag_129:\n            /* \"MemberNFT.sol\":4335:4706  function transferFrom(... */\n          pop\n          pop\n          pop\n          jump\t// out\n            /* \"MemberNFT.sol\":1535:1767  function mintToFirst(address who, address group) public {... */\n        tag_55:\n            /* \"MemberNFT.sol\":1624:1650  boardMemberContractAddress */\n          0x08\n          0x00\n          swap1\n          sload\n          swap1\n          0x0100\n          exp\n          swap1\n          div\n          0xffffffffffffffffffffffffffffffffffffffff\n          and\n            /* \"MemberNFT.sol\":1610:1650  msg.sender == boardMemberContractAddress */\n          0xffffffffffffffffffffffffffffffffffffffff\n          and\n            /* \"MemberNFT.sol\":1610:1620  msg.sender */\n          caller\n            /* \"MemberNFT.sol\":1610:1650  msg.sender == boardMemberContractAddress */\n          0xffffffffffffffffffffffffffffffffffffffff\n          and\n          eq\n            /* \"MemberNFT.sol\":1602:1668  require(msg.sender == boardMemberContractAddress, \"Wrong address\") */\n          tag_132\n          jumpi\n          mload(0x40)\n          0x08c379a000000000000000000000000000000000000000000000000000000000\n          dup2\n          mstore\n          0x04\n          add\n          tag_133\n          swap1\n          tag_134\n          jump\t// in\n        tag_133:\n          mload(0x40)\n          dup1\n          swap2\n          sub\n          swap1\n          revert\n        tag_132:\n            /* \"MemberNFT.sol\":1679:1700  _safeMint(who, count) */\n          tag_135\n            /* \"MemberNFT.sol\":1689:1692  who */\n          dup3\n            /* \"MemberNFT.sol\":1694:1699  count */\n          sload(0x07)\n            /* \"MemberNFT.sol\":1679:1688  _safeMint */\n          tag_136\n            /* \"MemberNFT.sol\":1679:1700  _safeMint(who, count) */\n          jump\t// in\n        tag_135:\n            /* \"MemberNFT.sol\":1733:1738  group */\n          dup1\n            /* \"MemberNFT.sol\":1711:1723  memberGroups */\n          0x02\n            /* \"MemberNFT.sol\":1711:1730  memberGroups[count] */\n          0x00\n            /* \"MemberNFT.sol\":1724:1729  count */\n          sload(0x07)\n            /* \"MemberNFT.sol\":1711:1730  memberGroups[count] */\n          dup2\n          mstore\n          0x20\n          add\n          swap1\n          dup2\n          mstore\n          0x20\n          add\n          0x00\n          keccak256\n          0x00\n            /* \"MemberNFT.sol\":1711:1738  memberGroups[count] = group */\n          0x0100\n          exp\n          dup2\n          sload\n          dup2\n          0xffffffffffffffffffffffffffffffffffffffff\n          mul\n          not\n          and\n          swap1\n          dup4\n          0xffffffffffffffffffffffffffffffffffffffff\n          and\n          mul\n          or\n          swap1\n          sstore\n          pop\n            /* \"MemberNFT.sol\":1758:1759  1 */\n          0x01\n            /* \"MemberNFT.sol\":1749:1754  count */\n          0x07\n          0x00\n            /* \"MemberNFT.sol\":1749:1759  count += 1 */\n          dup3\n          dup3\n          sload\n          tag_137\n          swap2\n          swap1\n          tag_138\n          jump\t// in\n        tag_137:\n          swap3\n          pop\n          pop\n          dup2\n          swap1\n          sstore\n          pop\n            /* \"MemberNFT.sol\":1535:1767  function mintToFirst(address who, address group) public {... */\n          pop\n          pop\n          jump\t// out\n            /* \"MemberNFT.sol\":4714:4899  function safeTransferFrom(... */\n        tag_58:\n            /* \"MemberNFT.sol\":4852:4891  safeTransferFrom(from, to, tokenId, \"\") */\n          tag_140\n            /* \"MemberNFT.sol\":4869:4873  from */\n          dup4\n            /* \"MemberNFT.sol\":4875:4877  to */\n          dup4\n            /* \"MemberNFT.sol\":4879:4886  tokenId */\n          dup4\n            /* \"MemberNFT.sol\":4852:4891  safeTransferFrom(from, to, tokenId, \"\") */\n          mload(0x40)\n          dup1\n          0x20\n          add\n          0x40\n          mstore\n          dup1\n          0x00\n          dup2\n          mstore\n          pop\n            /* \"MemberNFT.sol\":4852:4868  safeTransferFrom */\n          tag_84\n            /* \"MemberNFT.sol\":4852:4891  safeTransferFrom(from, to, tokenId, \"\") */\n          jump\t// in\n        tag_140:\n            /* \"MemberNFT.sol\":4714:4899  function safeTransferFrom(... */\n          pop\n          pop\n          pop\n          jump\t// out\n            /* \"MemberNFT.sol\":2443:2730  function ownerOf(uint256 tokenId)... */\n        tag_61:\n            /* \"MemberNFT.sol\":2560:2567  address */\n          0x00\n            /* \"MemberNFT.sol\":2585:2603  address tokenOwner */\n          dup1\n            /* \"MemberNFT.sol\":2606:2613  _owners */\n          0x03\n            /* \"MemberNFT.sol\":2606:2622  _owners[tokenId] */\n          0x00\n            /* \"MemberNFT.sol\":2614:2621  tokenId */\n          dup5\n            /* \"MemberNFT.sol\":2606:2622  _owners[tokenId] */\n          dup2\n          mstore\n          0x20\n          add\n          swap1\n          dup2\n          mstore\n          0x20\n          add\n          0x00\n          keccak256\n          0x00\n          swap1\n          sload\n          swap1\n          0x0100\n          exp\n          swap1\n          div\n          0xffffffffffffffffffffffffffffffffffffffff\n          and\n            /* \"MemberNFT.sol\":2585:2622  address tokenOwner = _owners[tokenId] */\n          swap1\n          pop\n            /* \"MemberNFT.sol\":2663:2664  0 */\n          0x00\n            /* \"MemberNFT.sol\":2641:2665  tokenOwner != address(0) */\n          0xffffffffffffffffffffffffffffffffffffffff\n          and\n            /* \"MemberNFT.sol\":2641:2651  tokenOwner */\n          dup2\n            /* \"MemberNFT.sol\":2641:2665  tokenOwner != address(0) */\n          0xffffffffffffffffffffffffffffffffffffffff\n          and\n          sub\n            /* \"MemberNFT.sol\":2633:2694  require(tokenOwner != address(0), \"ERC721: invalid token ID\") */\n          tag_142\n          jumpi\n          mload(0x40)\n          0x08c379a000000000000000000000000000000000000000000000000000000000\n          dup2\n          mstore\n          0x04\n          add\n          tag_143\n          swap1\n          tag_144\n          jump\t// in\n        tag_143:\n          mload(0x40)\n          dup1\n          swap2\n          sub\n          swap1\n          revert\n        tag_142:\n            /* \"MemberNFT.sol\":2712:2722  tokenOwner */\n          dup1\n            /* \"MemberNFT.sol\":2705:2722  return tokenOwner */\n          swap2\n          pop\n          pop\n            /* \"MemberNFT.sol\":2443:2730  function ownerOf(uint256 tokenId)... */\n          swap2\n          swap1\n          pop\n          jump\t// out\n            /* \"MemberNFT.sol\":2138:2435  function balanceOf(address owner_)... */\n        tag_66:\n            /* \"MemberNFT.sol\":2256:2263  uint256 */\n          0x00\n            /* \"MemberNFT.sol\":2321:2322  0 */\n          dup1\n            /* \"MemberNFT.sol\":2303:2323  owner_ != address(0) */\n          0xffffffffffffffffffffffffffffffffffffffff\n          and\n            /* \"MemberNFT.sol\":2303:2309  owner_ */\n          dup3\n            /* \"MemberNFT.sol\":2303:2323  owner_ != address(0) */\n          0xffffffffffffffffffffffffffffffffffffffff\n          and\n          sub\n            /* \"MemberNFT.sol\":2281:2392  require(... */\n          tag_146\n          jumpi\n          mload(0x40)\n          0x08c379a000000000000000000000000000000000000000000000000000000000\n          dup2\n          mstore\n          0x04\n          add\n          tag_147\n          swap1\n          tag_148\n          jump\t// in\n        tag_147:\n          mload(0x40)\n          dup1\n          swap2\n          sub\n          swap1\n          revert\n        tag_146:\n            /* \"MemberNFT.sol\":2410:2419  _balances */\n          0x04\n            /* \"MemberNFT.sol\":2410:2427  _balances[owner_] */\n          0x00\n            /* \"MemberNFT.sol\":2420:2426  owner_ */\n          dup4\n            /* \"MemberNFT.sol\":2410:2427  _balances[owner_] */\n          0xffffffffffffffffffffffffffffffffffffffff\n          and\n          0xffffffffffffffffffffffffffffffffffffffff\n          and\n          dup2\n          mstore\n          0x20\n          add\n          swap1\n          dup2\n          mstore\n          0x20\n          add\n          0x00\n          keccak256\n          sload\n            /* \"MemberNFT.sol\":2403:2427  return _balances[owner_] */\n          swap1\n          pop\n            /* \"MemberNFT.sol\":2138:2435  function balanceOf(address owner_)... */\n          swap2\n          swap1\n          pop\n          jump\t// out\n            /* \"MemberNFT.sol\":854:895  address public boardMemberContractAddress */\n        tag_69:\n          0x08\n          0x00\n          swap1\n          sload\n          swap1\n          0x0100\n          exp\n          swap1\n          div\n          0xffffffffffffffffffffffffffffffffffffffff\n          and\n          dup2\n          jump\t// out\n            /* \"MemberNFT.sol\":984:1527  function mintTo(address newMember, address boardAddress) public {... */\n        tag_73:\n            /* \"MemberNFT.sol\":1059:1079  MemberBoardFactory x */\n          0x00\n            /* \"MemberNFT.sol\":1101:1127  boardMemberContractAddress */\n          0x08\n          0x00\n          swap1\n          sload\n          swap1\n          0x0100\n          exp\n          swap1\n          div\n          0xffffffffffffffffffffffffffffffffffffffff\n          and\n            /* \"MemberNFT.sol\":1059:1128  MemberBoardFactory x = MemberBoardFactory(boardMemberContractAddress) */\n          swap1\n          pop\n            /* \"MemberNFT.sol\":1139:1151  bool isBoard */\n          0x00\n            /* \"MemberNFT.sol\":1154:1155  x */\n          dup2\n            /* \"MemberNFT.sol\":1154:1163  x.isBoard */\n          0xffffffffffffffffffffffffffffffffffffffff\n          and\n          0x0aab6cf6\n            /* \"MemberNFT.sol\":1164:1176  boardAddress */\n          dup5\n            /* \"MemberNFT.sol\":1154:1177  x.isBoard(boardAddress) */\n          mload(0x40)\n          dup3\n          0xffffffff\n          and\n          0xe0\n          shl\n          dup2\n          mstore\n          0x04\n          add\n          tag_150\n          swap2\n          swap1\n          tag_43\n          jump\t// in\n        tag_150:\n          0x20\n          mload(0x40)\n          dup1\n          dup4\n          sub\n          dup2\n          dup7\n          gas\n          staticcall\n          iszero\n          dup1\n          iszero\n          tag_152\n          jumpi\n          returndatasize\n          0x00\n          dup1\n          returndatacopy\n          revert(0x00, returndatasize)\n        tag_152:\n          pop\n          pop\n          pop\n          pop\n          mload(0x40)\n          returndatasize\n          not(0x1f)\n          0x1f\n          dup3\n          add\n          and\n          dup3\n          add\n          dup1\n          0x40\n          mstore\n          pop\n          dup2\n          add\n          swap1\n          tag_153\n          swap2\n          swap1\n          tag_154\n          jump\t// in\n        tag_153:\n            /* \"MemberNFT.sol\":1139:1177  bool isBoard = x.isBoard(boardAddress) */\n          swap1\n          pop\n            /* \"MemberNFT.sol\":1196:1203  isBoard */\n          dup1\n            /* \"MemberNFT.sol\":1188:1233  require(isBoard, \"Not a valid board address\") */\n          tag_155\n          jumpi\n          mload(0x40)\n          0x08c379a000000000000000000000000000000000000000000000000000000000\n          dup2\n          mstore\n          0x04\n          add\n          tag_156\n          swap1\n          tag_157\n          jump\t// in\n        tag_156:\n          mload(0x40)\n          dup1\n          swap2\n          sub\n          swap1\n          revert\n        tag_155:\n            /* \"MemberNFT.sol\":1244:1257  MemberBoard b */\n          0x00\n            /* \"MemberNFT.sol\":1272:1284  boardAddress */\n          dup4\n            /* \"MemberNFT.sol\":1244:1285  MemberBoard b = MemberBoard(boardAddress) */\n          swap1\n          pop\n            /* \"MemberNFT.sol\":1296:1320  bool senderIsBoardMember */\n          0x00\n            /* \"MemberNFT.sol\":1323:1324  b */\n          dup2\n            /* \"MemberNFT.sol\":1323:1338  b.isBoardMember */\n          0xffffffffffffffffffffffffffffffffffffffff\n          and\n          0x71942a01\n            /* \"MemberNFT.sol\":1339:1349  msg.sender */\n          caller\n            /* \"MemberNFT.sol\":1323:1350  b.isBoardMember(msg.sender) */\n          mload(0x40)\n          dup3\n          0xffffffff\n          and\n          0xe0\n          shl\n          dup2\n          mstore\n          0x04\n          add\n          tag_158\n          swap2\n          swap1\n          tag_43\n          jump\t// in\n        tag_158:\n          0x20\n          mload(0x40)\n          dup1\n          dup4\n          sub\n          dup2\n          dup7\n          gas\n          staticcall\n          iszero\n          dup1\n          iszero\n          tag_160\n          jumpi\n          returndatasize\n          0x00\n          dup1\n          returndatacopy\n          revert(0x00, returndatasize)\n        tag_160:\n          pop\n          pop\n          pop\n          pop\n          mload(0x40)\n          returndatasize\n          not(0x1f)\n          0x1f\n          dup3\n          add\n          and\n          dup3\n          add\n          dup1\n          0x40\n          mstore\n          pop\n          dup2\n          add\n          swap1\n          tag_161\n          swap2\n          swap1\n          tag_154\n          jump\t// in\n        tag_161:\n            /* \"MemberNFT.sol\":1296:1350  bool senderIsBoardMember = b.isBoardMember(msg.sender) */\n          swap1\n          pop\n            /* \"MemberNFT.sol\":1369:1388  senderIsBoardMember */\n          dup1\n            /* \"MemberNFT.sol\":1361:1415  require(senderIsBoardMember, \"Must be a board member\") */\n          tag_162\n          jumpi\n          mload(0x40)\n          0x08c379a000000000000000000000000000000000000000000000000000000000\n          dup2\n          mstore\n          0x04\n          add\n          tag_163\n          swap1\n          tag_164\n          jump\t// in\n        tag_163:\n          mload(0x40)\n          dup1\n          swap2\n          sub\n          swap1\n          revert\n        tag_162:\n            /* \"MemberNFT.sol\":1426:1453  _safeMint(newMember, count) */\n          tag_165\n            /* \"MemberNFT.sol\":1436:1445  newMember */\n          dup7\n            /* \"MemberNFT.sol\":1447:1452  count */\n          sload(0x07)\n            /* \"MemberNFT.sol\":1426:1435  _safeMint */\n          tag_136\n            /* \"MemberNFT.sol\":1426:1453  _safeMint(newMember, count) */\n          jump\t// in\n        tag_165:\n            /* \"MemberNFT.sol\":1486:1498  boardAddress */\n          dup5\n            /* \"MemberNFT.sol\":1464:1476  memberGroups */\n          0x02\n            /* \"MemberNFT.sol\":1464:1483  memberGroups[count] */\n          0x00\n            /* \"MemberNFT.sol\":1477:1482  count */\n          sload(0x07)\n            /* \"MemberNFT.sol\":1464:1483  memberGroups[count] */\n          dup2\n          mstore\n          0x20\n          add\n          swap1\n          dup2\n          mstore\n          0x20\n          add\n          0x00\n          keccak256\n          0x00\n            /* \"MemberNFT.sol\":1464:1498  memberGroups[count] = boardAddress */\n          0x0100\n          exp\n          dup2\n          sload\n          dup2\n          0xffffffffffffffffffffffffffffffffffffffff\n          mul\n          not\n          and\n          swap1\n          dup4\n          0xffffffffffffffffffffffffffffffffffffffff\n          and\n          mul\n          or\n          swap1\n          sstore\n          pop\n            /* \"MemberNFT.sol\":1518:1519  1 */\n          0x01\n            /* \"MemberNFT.sol\":1509:1514  count */\n          0x07\n          0x00\n            /* \"MemberNFT.sol\":1509:1519  count += 1 */\n          dup3\n          dup3\n          sload\n          tag_166\n          swap2\n          swap1\n          tag_138\n          jump\t// in\n        tag_166:\n          swap3\n          pop\n          pop\n          dup2\n          swap1\n          sstore\n          pop\n            /* \"MemberNFT.sol\":1048:1527  {... */\n          pop\n          pop\n          pop\n          pop\n            /* \"MemberNFT.sol\":984:1527  function mintTo(address newMember, address boardAddress) public {... */\n          pop\n          pop\n          jump\t// out\n            /* \"MemberNFT.sol\":492:519  string public symbol = \"MM\" */\n        tag_75:\n          0x01\n          dup1\n          sload\n          tag_167\n          swap1\n          tag_103\n          jump\t// in\n        tag_167:\n          dup1\n          0x1f\n          add\n          0x20\n          dup1\n          swap2\n          div\n          mul\n          0x20\n          add\n          mload(0x40)\n          swap1\n          dup2\n          add\n          0x40\n          mstore\n          dup1\n          swap3\n          swap2\n          swap1\n          dup2\n          dup2\n          mstore\n          0x20\n          add\n          dup3\n          dup1\n          sload\n          tag_168\n          swap1\n          tag_103\n          jump\t// in\n        tag_168:\n          dup1\n          iszero\n          tag_169\n          jumpi\n          dup1\n          0x1f\n          lt\n          tag_170\n          jumpi\n          0x0100\n          dup1\n          dup4\n          sload\n          div\n          mul\n          dup4\n          mstore\n          swap2\n          0x20\n          add\n          swap2\n          jump(tag_169)\n        tag_170:\n          dup3\n          add\n          swap2\n          swap1\n          0x00\n          mstore\n          keccak256(0x00, 0x20)\n          swap1\n        tag_171:\n          dup2\n          sload\n          dup2\n          mstore\n          swap1\n          0x01\n          add\n          swap1\n          0x20\n          add\n          dup1\n          dup4\n          gt\n          tag_171\n          jumpi\n          dup3\n          swap1\n          sub\n          0x1f\n          and\n          dup3\n          add\n          swap2\n        tag_169:\n          pop\n          pop\n          pop\n          pop\n          pop\n          dup2\n          jump\t// out\n            /* \"MemberNFT.sol\":3912:4097  function setApprovalForAll(address operator, bool approved)... */\n        tag_80:\n            /* \"MemberNFT.sol\":4039:4089  _setApprovalForAll(msg.sender, operator, approved) */\n          tag_173\n            /* \"MemberNFT.sol\":4058:4068  msg.sender */\n          caller\n            /* \"MemberNFT.sol\":4070:4078  operator */\n          dup4\n            /* \"MemberNFT.sol\":4080:4088  approved */\n          dup4\n            /* \"MemberNFT.sol\":4039:4057  _setApprovalForAll */\n          tag_174\n            /* \"MemberNFT.sol\":4039:4089  _setApprovalForAll(msg.sender, operator, approved) */\n          jump\t// in\n        tag_173:\n            /* \"MemberNFT.sol\":3912:4097  function setApprovalForAll(address operator, bool approved)... */\n          pop\n          pop\n          jump\t// out\n            /* \"MemberNFT.sol\":4907:5265  function safeTransferFrom(... */\n        tag_84:\n            /* \"MemberNFT.sol\":5095:5134  _isApprovedOrOwner(msg.sender, tokenId) */\n          tag_176\n            /* \"MemberNFT.sol\":5114:5124  msg.sender */\n          caller\n            /* \"MemberNFT.sol\":5126:5133  tokenId */\n          dup4\n            /* \"MemberNFT.sol\":5095:5113  _isApprovedOrOwner */\n          tag_125\n            /* \"MemberNFT.sol\":5095:5134  _isApprovedOrOwner(msg.sender, tokenId) */\n          jump\t// in\n        tag_176:\n            /* \"MemberNFT.sol\":5073:5208  require(... */\n          tag_177\n          jumpi\n          mload(0x40)\n          0x08c379a000000000000000000000000000000000000000000000000000000000\n          dup2\n          mstore\n          0x04\n          add\n          tag_178\n          swap1\n          tag_128\n          jump\t// in\n        tag_178:\n          mload(0x40)\n          dup1\n          swap2\n          sub\n          swap1\n          revert\n        tag_177:\n            /* \"MemberNFT.sol\":5219:5257  _safeTransfer(from, to, tokenId, data) */\n          tag_179\n            /* \"MemberNFT.sol\":5233:5237  from */\n          dup5\n            /* \"MemberNFT.sol\":5239:5241  to */\n          dup5\n            /* \"MemberNFT.sol\":5243:5250  tokenId */\n          dup5\n            /* \"MemberNFT.sol\":5252:5256  data */\n          dup5\n            /* \"MemberNFT.sol\":5219:5232  _safeTransfer */\n          tag_180\n            /* \"MemberNFT.sol\":5219:5257  _safeTransfer(from, to, tokenId, data) */\n          jump\t// in\n        tag_179:\n            /* \"MemberNFT.sol\":4907:5265  function safeTransferFrom(... */\n          pop\n          pop\n          pop\n          pop\n          jump\t// out\n            /* \"MemberNFT.sol\":2738:3072  function tokenURI(uint256 tokenId)... */\n        tag_87:\n            /* \"MemberNFT.sol\":2856:2869  string memory */\n          0x60\n            /* \"MemberNFT.sol\":2887:2910  _requireMinted(tokenId) */\n          tag_182\n            /* \"MemberNFT.sol\":2902:2909  tokenId */\n          dup3\n            /* \"MemberNFT.sol\":2887:2901  _requireMinted */\n          tag_110\n            /* \"MemberNFT.sol\":2887:2910  _requireMinted(tokenId) */\n          jump\t// in\n        tag_182:\n            /* \"MemberNFT.sol\":3024:3049  Strings.toString(tokenId) */\n          tag_183\n            /* \"MemberNFT.sol\":3041:3048  tokenId */\n          dup3\n            /* \"MemberNFT.sol\":3024:3040  Strings.toString */\n          tag_184\n            /* \"MemberNFT.sol\":3024:3049  Strings.toString(tokenId) */\n          jump\t// in\n        tag_183:\n            /* \"MemberNFT.sol\":2941:3064  string.concat(... */\n          add(0x20, mload(0x40))\n          tag_185\n          swap2\n          swap1\n          tag_186\n          jump\t// in\n        tag_185:\n          mload(0x40)\n          0x20\n          dup2\n          dup4\n          sub\n          sub\n          dup2\n          mstore\n          swap1\n          0x40\n          mstore\n            /* \"MemberNFT.sol\":2921:3064  return... */\n          swap1\n          pop\n            /* \"MemberNFT.sol\":2738:3072  function tokenURI(uint256 tokenId)... */\n          swap2\n          swap1\n          pop\n          jump\t// out\n            /* \"MemberNFT.sol\":3080:3238  function getTokenIdGroupAddress(uint256 tokenId)... */\n        tag_91:\n            /* \"MemberNFT.sol\":3177:3184  address */\n          0x00\n            /* \"MemberNFT.sol\":3209:3221  memberGroups */\n          0x02\n            /* \"MemberNFT.sol\":3209:3230  memberGroups[tokenId] */\n          0x00\n            /* \"MemberNFT.sol\":3222:3229  tokenId */\n          dup4\n            /* \"MemberNFT.sol\":3209:3230  memberGroups[tokenId] */\n          dup2\n          mstore\n          0x20\n          add\n          swap1\n          dup2\n          mstore\n          0x20\n          add\n          0x00\n          keccak256\n          0x00\n          swap1\n          sload\n          swap1\n          0x0100\n          exp\n          swap1\n          div\n          0xffffffffffffffffffffffffffffffffffffffff\n          and\n            /* \"MemberNFT.sol\":3202:3230  return memberGroups[tokenId] */\n          swap1\n          pop\n            /* \"MemberNFT.sol\":3080:3238  function getTokenIdGroupAddress(uint256 tokenId)... */\n          swap2\n          swap1\n          pop\n          jump\t// out\n            /* \"MemberNFT.sol\":4105:4327  function isApprovedForAll(address tokeOwner, address operator)... */\n        tag_95:\n            /* \"MemberNFT.sol\":4251:4255  bool */\n          0x00\n            /* \"MemberNFT.sol\":4280:4298  _operatorApprovals */\n          0x06\n            /* \"MemberNFT.sol\":4280:4309  _operatorApprovals[tokeOwner] */\n          0x00\n            /* \"MemberNFT.sol\":4299:4308  tokeOwner */\n          dup5\n            /* \"MemberNFT.sol\":4280:4309  _operatorApprovals[tokeOwner] */\n          0xffffffffffffffffffffffffffffffffffffffff\n          and\n          0xffffffffffffffffffffffffffffffffffffffff\n          and\n          dup2\n          mstore\n          0x20\n          add\n          swap1\n          dup2\n          mstore\n          0x20\n          add\n          0x00\n          keccak256\n            /* \"MemberNFT.sol\":4280:4319  _operatorApprovals[tokeOwner][operator] */\n          0x00\n            /* \"MemberNFT.sol\":4310:4318  operator */\n          dup4\n            /* \"MemberNFT.sol\":4280:4319  _operatorApprovals[tokeOwner][operator] */\n          0xffffffffffffffffffffffffffffffffffffffff\n          and\n          0xffffffffffffffffffffffffffffffffffffffff\n          and\n          dup2\n          mstore\n          0x20\n          add\n          swap1\n          dup2\n          mstore\n          0x20\n          add\n          0x00\n          keccak256\n          0x00\n          swap1\n          sload\n          swap1\n          0x0100\n          exp\n          swap1\n          div\n          0xff\n          and\n            /* \"MemberNFT.sol\":4273:4319  return _operatorApprovals[tokeOwner][operator] */\n          swap1\n          pop\n            /* \"MemberNFT.sol\":4105:4327  function isApprovedForAll(address tokeOwner, address operator)... */\n          swap3\n          swap2\n          pop\n          pop\n          jump\t// out\n            /* \"lib/ERC165.sol\":855:1012   */\n        tag_101:\n            /* \"lib/ERC165.sol\":940:944   */\n          0x00\n            /* \"lib/ERC165.sol\":979:1004   */\n          0x01ffc9a700000000000000000000000000000000000000000000000000000000\n            /* \"lib/ERC165.sol\":964:1004   */\n          not(0xffffffffffffffffffffffffffffffffffffffffffffffffffffffff)\n          and\n            /* \"lib/ERC165.sol\":964:975   */\n          dup3\n            /* \"lib/ERC165.sol\":964:1004   */\n          not(0xffffffffffffffffffffffffffffffffffffffffffffffffffffffff)\n          and\n          eq\n            /* \"lib/ERC165.sol\":957:1004   */\n          swap1\n          pop\n            /* \"lib/ERC165.sol\":855:1012   */\n          swap2\n          swap1\n          pop\n          jump\t// out\n            /* \"MemberNFT.sol\":7978:8113  function _requireMinted(uint256 tokenId) internal view virtual {... */\n        tag_110:\n            /* \"MemberNFT.sol\":8060:8076  _exists(tokenId) */\n          tag_191\n            /* \"MemberNFT.sol\":8068:8075  tokenId */\n          dup2\n            /* \"MemberNFT.sol\":8060:8067  _exists */\n          tag_192\n            /* \"MemberNFT.sol\":8060:8076  _exists(tokenId) */\n          jump\t// in\n        tag_191:\n            /* \"MemberNFT.sol\":8052:8105  require(_exists(tokenId), \"ERC721: invalid token ID\") */\n          tag_193\n          jumpi\n          mload(0x40)\n          0x08c379a000000000000000000000000000000000000000000000000000000000\n          dup2\n          mstore\n          0x04\n          add\n          tag_194\n          swap1\n          tag_144\n          jump\t// in\n        tag_194:\n          mload(0x40)\n          dup1\n          swap2\n          sub\n          swap1\n          revert\n        tag_193:\n            /* \"MemberNFT.sol\":7978:8113  function _requireMinted(uint256 tokenId) internal view virtual {... */\n          pop\n          jump\t// out\n            /* \"MemberNFT.sol\":7457:7631  function _approve(address to, uint256 tokenId) internal virtual {... */\n        tag_122:\n            /* \"MemberNFT.sol\":7559:7561  to */\n          dup2\n            /* \"MemberNFT.sol\":7532:7547  _tokenApprovals */\n          0x05\n            /* \"MemberNFT.sol\":7532:7556  _tokenApprovals[tokenId] */\n          0x00\n            /* \"MemberNFT.sol\":7548:7555  tokenId */\n          dup4\n            /* \"MemberNFT.sol\":7532:7556  _tokenApprovals[tokenId] */\n          dup2\n          mstore\n          0x20\n          add\n          swap1\n          dup2\n          mstore\n          0x20\n          add\n          0x00\n          keccak256\n          0x00\n            /* \"MemberNFT.sol\":7532:7561  _tokenApprovals[tokenId] = to */\n          0x0100\n          exp\n          dup2\n          sload\n          dup2\n          0xffffffffffffffffffffffffffffffffffffffff\n          mul\n          not\n          and\n          swap1\n          dup4\n          0xffffffffffffffffffffffffffffffffffffffff\n          and\n          mul\n          or\n          swap1\n          sstore\n          pop\n            /* \"MemberNFT.sol\":7615:7622  tokenId */\n          dup1\n            /* \"MemberNFT.sol\":7611:7613  to */\n          dup3\n            /* \"MemberNFT.sol\":7577:7623  Approval(Member.ownerOf(tokenId), to, tokenId) */\n          0xffffffffffffffffffffffffffffffffffffffff\n          and\n            /* \"MemberNFT.sol\":7586:7609  Member.ownerOf(tokenId) */\n          tag_196\n            /* \"MemberNFT.sol\":7601:7608  tokenId */\n          dup4\n            /* \"MemberNFT.sol\":7586:7600  Member.ownerOf */\n          tag_61\n            /* \"MemberNFT.sol\":7586:7609  Member.ownerOf(tokenId) */\n          jump\t// in\n        tag_196:\n            /* \"MemberNFT.sol\":7577:7623  Approval(Member.ownerOf(tokenId), to, tokenId) */\n          0xffffffffffffffffffffffffffffffffffffffff\n          and\n          0x8c5be1e5ebec7d5bd14f71427d1e84f3dd0314c0f7b2291e5b200ac8c7c3b925\n          mload(0x40)\n          mload(0x40)\n          dup1\n          swap2\n          sub\n          swap1\n          log4\n            /* \"MemberNFT.sol\":7457:7631  function _approve(address to, uint256 tokenId) internal virtual {... */\n          pop\n          pop\n          jump\t// out\n            /* \"MemberNFT.sol\":5766:6109  function _isApprovedOrOwner(address spender, uint256 tokenId)... */\n        tag_125:\n            /* \"MemberNFT.sol\":5895:5899  bool */\n          0x00\n            /* \"MemberNFT.sol\":5917:5934  address tokeOwner */\n          dup1\n            /* \"MemberNFT.sol\":5937:5960  Member.ownerOf(tokenId) */\n          tag_198\n            /* \"MemberNFT.sol\":5952:5959  tokenId */\n          dup4\n            /* \"MemberNFT.sol\":5937:5951  Member.ownerOf */\n          tag_61\n            /* \"MemberNFT.sol\":5937:5960  Member.ownerOf(tokenId) */\n          jump\t// in\n        tag_198:\n            /* \"MemberNFT.sol\":5917:5960  address tokeOwner = Member.ownerOf(tokenId) */\n          swap1\n          pop\n            /* \"MemberNFT.sol\":5990:5999  tokeOwner */\n          dup1\n            /* \"MemberNFT.sol\":5979:5999  spender == tokeOwner */\n          0xffffffffffffffffffffffffffffffffffffffff\n          and\n            /* \"MemberNFT.sol\":5979:5986  spender */\n          dup5\n            /* \"MemberNFT.sol\":5979:5999  spender == tokeOwner */\n          0xffffffffffffffffffffffffffffffffffffffff\n          and\n          eq\n            /* \"MemberNFT.sol\":5979:6052  spender == tokeOwner ||... */\n          dup1\n          tag_199\n          jumpi\n          pop\n            /* \"MemberNFT.sol\":6016:6052  isApprovedForAll(tokeOwner, spender) */\n          tag_200\n            /* \"MemberNFT.sol\":6033:6042  tokeOwner */\n          dup2\n            /* \"MemberNFT.sol\":6044:6051  spender */\n          dup6\n            /* \"MemberNFT.sol\":6016:6032  isApprovedForAll */\n          tag_95\n            /* \"MemberNFT.sol\":6016:6052  isApprovedForAll(tokeOwner, spender) */\n          jump\t// in\n        tag_200:\n            /* \"MemberNFT.sol\":5979:6052  spender == tokeOwner ||... */\n        tag_199:\n            /* \"MemberNFT.sol\":5979:6100  spender == tokeOwner ||... */\n          dup1\n          tag_201\n          jumpi\n          pop\n            /* \"MemberNFT.sol\":6093:6100  spender */\n          dup4\n            /* \"MemberNFT.sol\":6069:6100  getApproved(tokenId) == spender */\n          0xffffffffffffffffffffffffffffffffffffffff\n          and\n            /* \"MemberNFT.sol\":6069:6089  getApproved(tokenId) */\n          tag_202\n            /* \"MemberNFT.sol\":6081:6088  tokenId */\n          dup5\n            /* \"MemberNFT.sol\":6069:6080  getApproved */\n          tag_41\n            /* \"MemberNFT.sol\":6069:6089  getApproved(tokenId) */\n          jump\t// in\n        tag_202:\n            /* \"MemberNFT.sol\":6069:6100  getApproved(tokenId) == spender */\n          0xffffffffffffffffffffffffffffffffffffffff\n          and\n          eq\n            /* \"MemberNFT.sol\":5979:6100  spender == tokeOwner ||... */\n        tag_201:\n            /* \"MemberNFT.sol\":5971:6101  return (spender == tokeOwner ||... */\n          swap2\n          pop\n          pop\n            /* \"MemberNFT.sol\":5766:6109  function _isApprovedOrOwner(address spender, uint256 tokenId)... */\n          swap3\n          swap2\n          pop\n          pop\n          jump\t// out\n            /* \"MemberNFT.sol\":6890:7449  function _transfer(... */\n        tag_130:\n            /* \"MemberNFT.sol\":7063:7067  from */\n          dup3\n            /* \"MemberNFT.sol\":7036:7067  Member.ownerOf(tokenId) == from */\n          0xffffffffffffffffffffffffffffffffffffffff\n          and\n            /* \"MemberNFT.sol\":7036:7059  Member.ownerOf(tokenId) */\n          tag_204\n            /* \"MemberNFT.sol\":7051:7058  tokenId */\n          dup3\n            /* \"MemberNFT.sol\":7036:7050  Member.ownerOf */\n          tag_61\n            /* \"MemberNFT.sol\":7036:7059  Member.ownerOf(tokenId) */\n          jump\t// in\n        tag_204:\n            /* \"MemberNFT.sol\":7036:7067  Member.ownerOf(tokenId) == from */\n          0xffffffffffffffffffffffffffffffffffffffff\n          and\n          eq\n            /* \"MemberNFT.sol\":7014:7132  require(... */\n          tag_205\n          jumpi\n          mload(0x40)\n          0x08c379a000000000000000000000000000000000000000000000000000000000\n          dup2\n          mstore\n          0x04\n          add\n          tag_206\n          swap1\n          tag_207\n          jump\t// in\n        tag_206:\n          mload(0x40)\n          dup1\n          swap2\n          sub\n          swap1\n          revert\n        tag_205:\n            /* \"MemberNFT.sol\":7165:7166  0 */\n          0x00\n            /* \"MemberNFT.sol\":7151:7167  to != address(0) */\n          0xffffffffffffffffffffffffffffffffffffffff\n          and\n            /* \"MemberNFT.sol\":7151:7153  to */\n          dup3\n            /* \"MemberNFT.sol\":7151:7167  to != address(0) */\n          0xffffffffffffffffffffffffffffffffffffffff\n          and\n          sub\n            /* \"MemberNFT.sol\":7143:7208  require(to != address(0), \"ERC721: transfer to the zero address\") */\n          tag_208\n          jumpi\n          mload(0x40)\n          0x08c379a000000000000000000000000000000000000000000000000000000000\n          dup2\n          mstore\n          0x04\n          add\n          tag_209\n          swap1\n          tag_210\n          jump\t// in\n        tag_209:\n          mload(0x40)\n          dup1\n          swap2\n          sub\n          swap1\n          revert\n        tag_208:\n            /* \"MemberNFT.sol\":7273:7302  _approve(address(0), tokenId) */\n          tag_211\n            /* \"MemberNFT.sol\":7290:7291  0 */\n          0x00\n            /* \"MemberNFT.sol\":7294:7301  tokenId */\n          dup3\n            /* \"MemberNFT.sol\":7273:7281  _approve */\n          tag_122\n            /* \"MemberNFT.sol\":7273:7302  _approve(address(0), tokenId) */\n          jump\t// in\n        tag_211:\n            /* \"MemberNFT.sol\":7334:7335  1 */\n          0x01\n            /* \"MemberNFT.sol\":7315:7324  _balances */\n          0x04\n            /* \"MemberNFT.sol\":7315:7330  _balances[from] */\n          0x00\n            /* \"MemberNFT.sol\":7325:7329  from */\n          dup6\n            /* \"MemberNFT.sol\":7315:7330  _balances[from] */\n          0xffffffffffffffffffffffffffffffffffffffff\n          and\n          0xffffffffffffffffffffffffffffffffffffffff\n          and\n          dup2\n          mstore\n          0x20\n          add\n          swap1\n          dup2\n          mstore\n          0x20\n          add\n          0x00\n          keccak256\n          0x00\n            /* \"MemberNFT.sol\":7315:7335  _balances[from] -= 1 */\n          dup3\n          dup3\n          sload\n          tag_212\n          swap2\n          swap1\n          tag_213\n          jump\t// in\n        tag_212:\n          swap3\n          pop\n          pop\n          dup2\n          swap1\n          sstore\n          pop\n            /* \"MemberNFT.sol\":7363:7364  1 */\n          0x01\n            /* \"MemberNFT.sol\":7346:7355  _balances */\n          0x04\n            /* \"MemberNFT.sol\":7346:7359  _balances[to] */\n          0x00\n            /* \"MemberNFT.sol\":7356:7358  to */\n          dup5\n            /* \"MemberNFT.sol\":7346:7359  _balances[to] */\n          0xffffffffffffffffffffffffffffffffffffffff\n          and\n          0xffffffffffffffffffffffffffffffffffffffff\n          and\n          dup2\n          mstore\n          0x20\n          add\n          swap1\n          dup2\n          mstore\n          0x20\n          add\n          0x00\n          keccak256\n          0x00\n            /* \"MemberNFT.sol\":7346:7364  _balances[to] += 1 */\n          dup3\n          dup3\n          sload\n          tag_214\n          swap2\n          swap1\n          tag_138\n          jump\t// in\n        tag_214:\n          swap3\n          pop\n          pop\n          dup2\n          swap1\n          sstore\n          pop\n            /* \"MemberNFT.sol\":7394:7396  to */\n          dup2\n            /* \"MemberNFT.sol\":7375:7382  _owners */\n          0x03\n            /* \"MemberNFT.sol\":7375:7391  _owners[tokenId] */\n          0x00\n            /* \"MemberNFT.sol\":7383:7390  tokenId */\n          dup4\n            /* \"MemberNFT.sol\":7375:7391  _owners[tokenId] */\n          dup2\n          mstore\n          0x20\n          add\n          swap1\n          dup2\n          mstore\n          0x20\n          add\n          0x00\n          keccak256\n          0x00\n            /* \"MemberNFT.sol\":7375:7396  _owners[tokenId] = to */\n          0x0100\n          exp\n          dup2\n          sload\n          dup2\n          0xffffffffffffffffffffffffffffffffffffffff\n          mul\n          not\n          and\n          swap1\n          dup4\n          0xffffffffffffffffffffffffffffffffffffffff\n          and\n          mul\n          or\n          swap1\n          sstore\n          pop\n            /* \"MemberNFT.sol\":7433:7440  tokenId */\n          dup1\n            /* \"MemberNFT.sol\":7429:7431  to */\n          dup3\n            /* \"MemberNFT.sol\":7414:7441  Transfer(from, to, tokenId) */\n          0xffffffffffffffffffffffffffffffffffffffff\n          and\n            /* \"MemberNFT.sol\":7423:7427  from */\n          dup5\n            /* \"MemberNFT.sol\":7414:7441  Transfer(from, to, tokenId) */\n          0xffffffffffffffffffffffffffffffffffffffff\n          and\n          0xddf252ad1be2c89b69c2b068fc378daa952ba7f163c4a11628f55a4df523b3ef\n          mload(0x40)\n          mload(0x40)\n          dup1\n          swap2\n          sub\n          swap1\n          log4\n            /* \"MemberNFT.sol\":6890:7449  function _transfer(... */\n          pop\n          pop\n          pop\n          jump\t// out\n            /* \"MemberNFT.sol\":6117:6227  function _safeMint(address to, uint256 tokenId) internal virtual {... */\n        tag_136:\n            /* \"MemberNFT.sol\":6193:6219  _safeMint(to, tokenId, \"\") */\n          tag_216\n            /* \"MemberNFT.sol\":6203:6205  to */\n          dup3\n            /* \"MemberNFT.sol\":6207:6214  tokenId */\n          dup3\n            /* \"MemberNFT.sol\":6193:6219  _safeMint(to, tokenId, \"\") */\n          mload(0x40)\n          dup1\n          0x20\n          add\n          0x40\n          mstore\n          dup1\n          0x00\n          dup2\n          mstore\n          pop\n            /* \"MemberNFT.sol\":6193:6202  _safeMint */\n          tag_217\n            /* \"MemberNFT.sol\":6193:6219  _safeMint(to, tokenId, \"\") */\n          jump\t// in\n        tag_216:\n            /* \"MemberNFT.sol\":6117:6227  function _safeMint(address to, uint256 tokenId) internal virtual {... */\n          pop\n          pop\n          jump\t// out\n            /* \"MemberNFT.sol\":7639:7970  function _setApprovalForAll(... */\n        tag_174:\n            /* \"MemberNFT.sol\":7802:7810  operator */\n          dup2\n            /* \"MemberNFT.sol\":7789:7810  tokeOwner != operator */\n          0xffffffffffffffffffffffffffffffffffffffff\n          and\n            /* \"MemberNFT.sol\":7789:7798  tokeOwner */\n          dup4\n            /* \"MemberNFT.sol\":7789:7810  tokeOwner != operator */\n          0xffffffffffffffffffffffffffffffffffffffff\n          and\n          sub\n            /* \"MemberNFT.sol\":7781:7840  require(tokeOwner != operator, \"ERC721: approve to caller\") */\n          tag_219\n          jumpi\n          mload(0x40)\n          0x08c379a000000000000000000000000000000000000000000000000000000000\n          dup2\n          mstore\n          0x04\n          add\n          tag_220\n          swap1\n          tag_221\n          jump\t// in\n        tag_220:\n          mload(0x40)\n          dup1\n          swap2\n          sub\n          swap1\n          revert\n        tag_219:\n            /* \"MemberNFT.sol\":7893:7901  approved */\n          dup1\n            /* \"MemberNFT.sol\":7851:7869  _operatorApprovals */\n          0x06\n            /* \"MemberNFT.sol\":7851:7880  _operatorApprovals[tokeOwner] */\n          0x00\n            /* \"MemberNFT.sol\":7870:7879  tokeOwner */\n          dup6\n            /* \"MemberNFT.sol\":7851:7880  _operatorApprovals[tokeOwner] */\n          0xffffffffffffffffffffffffffffffffffffffff\n          and\n          0xffffffffffffffffffffffffffffffffffffffff\n          and\n          dup2\n          mstore\n          0x20\n          add\n          swap1\n          dup2\n          mstore\n          0x20\n          add\n          0x00\n          keccak256\n            /* \"MemberNFT.sol\":7851:7890  _operatorApprovals[tokeOwner][operator] */\n          0x00\n            /* \"MemberNFT.sol\":7881:7889  operator */\n          dup5\n            /* \"MemberNFT.sol\":7851:7890  _operatorApprovals[tokeOwner][operator] */\n          0xffffffffffffffffffffffffffffffffffffffff\n          and\n          0xffffffffffffffffffffffffffffffffffffffff\n          and\n          dup2\n          mstore\n          0x20\n          add\n          swap1\n          dup2\n          mstore\n          0x20\n          add\n          0x00\n          keccak256\n          0x00\n            /* \"MemberNFT.sol\":7851:7901  _operatorApprovals[tokeOwner][operator] = approved */\n          0x0100\n          exp\n          dup2\n          sload\n          dup2\n          0xff\n          mul\n          not\n          and\n          swap1\n          dup4\n          iszero\n          iszero\n          mul\n          or\n          swap1\n          sstore\n          pop\n            /* \"MemberNFT.sol\":7943:7951  operator */\n          dup2\n            /* \"MemberNFT.sol\":7917:7962  ApprovalForAll(tokeOwner, operator, approved) */\n          0xffffffffffffffffffffffffffffffffffffffff\n          and\n            /* \"MemberNFT.sol\":7932:7941  tokeOwner */\n          dup4\n            /* \"MemberNFT.sol\":7917:7962  ApprovalForAll(tokeOwner, operator, approved) */\n          0xffffffffffffffffffffffffffffffffffffffff\n          and\n          0x17307eab39ab6107e8899845ad3d59bd9653f200f220920489ca2b5937696c31\n            /* \"MemberNFT.sol\":7953:7961  approved */\n          dup4\n            /* \"MemberNFT.sol\":7917:7962  ApprovalForAll(tokeOwner, operator, approved) */\n          mload(0x40)\n          tag_222\n          swap2\n          swap1\n          tag_29\n          jump\t// in\n        tag_222:\n          mload(0x40)\n          dup1\n          swap2\n          sub\n          swap1\n          log3\n            /* \"MemberNFT.sol\":7639:7970  function _setApprovalForAll(... */\n          pop\n          pop\n          pop\n          jump\t// out\n            /* \"MemberNFT.sol\":5273:5623  function _safeTransfer(... */\n        tag_180:\n            /* \"MemberNFT.sol\":5429:5457  _transfer(from, to, tokenId) */\n          tag_224\n            /* \"MemberNFT.sol\":5439:5443  from */\n          dup5\n            /* \"MemberNFT.sol\":5445:5447  to */\n          dup5\n            /* \"MemberNFT.sol\":5449:5456  tokenId */\n          dup5\n            /* \"MemberNFT.sol\":5429:5438  _transfer */\n          tag_130\n            /* \"MemberNFT.sol\":5429:5457  _transfer(from, to, tokenId) */\n          jump\t// in\n        tag_224:\n            /* \"MemberNFT.sol\":5490:5537  _checkOnERC721Received(from, to, tokenId, data) */\n          tag_225\n            /* \"MemberNFT.sol\":5513:5517  from */\n          dup5\n            /* \"MemberNFT.sol\":5519:5521  to */\n          dup5\n            /* \"MemberNFT.sol\":5523:5530  tokenId */\n          dup5\n            /* \"MemberNFT.sol\":5532:5536  data */\n          dup5\n            /* \"MemberNFT.sol\":5490:5512  _checkOnERC721Received */\n          tag_226\n            /* \"MemberNFT.sol\":5490:5537  _checkOnERC721Received(from, to, tokenId, data) */\n          jump\t// in\n        tag_225:\n            /* \"MemberNFT.sol\":5468:5615  require(... */\n          tag_227\n          jumpi\n          mload(0x40)\n          0x08c379a000000000000000000000000000000000000000000000000000000000\n          dup2\n          mstore\n          0x04\n          add\n          tag_228\n          swap1\n          tag_229\n          jump\t// in\n        tag_228:\n          mload(0x40)\n          dup1\n          swap2\n          sub\n          swap1\n          revert\n        tag_227:\n            /* \"MemberNFT.sol\":5273:5623  function _safeTransfer(... */\n          pop\n          pop\n          pop\n          pop\n          jump\t// out\n            /* \"lib/Strings.sol\":408:1131   */\n        tag_184:\n            /* \"lib/Strings.sol\":464:477   */\n          0x60\n            /* \"lib/Strings.sol\":694:695   */\n          0x00\n            /* \"lib/Strings.sol\":685:690   */\n          dup3\n            /* \"lib/Strings.sol\":685:695   */\n          sub\n            /* \"lib/Strings.sol\":681:734   */\n          tag_231\n          jumpi\n            /* \"lib/Strings.sol\":712:722   */\n          mload(0x40)\n          dup1\n          0x40\n          add\n          0x40\n          mstore\n          dup1\n          0x01\n          dup2\n          mstore\n          0x20\n          add\n          0x3000000000000000000000000000000000000000000000000000000000000000\n          dup2\n          mstore\n          pop\n          swap1\n          pop\n          jump(tag_230)\n            /* \"lib/Strings.sol\":681:734   */\n        tag_231:\n            /* \"lib/Strings.sol\":744:756   */\n          0x00\n            /* \"lib/Strings.sol\":759:764   */\n          dup3\n            /* \"lib/Strings.sol\":744:764   */\n          swap1\n          pop\n            /* \"lib/Strings.sol\":775:789   */\n          0x00\n            /* \"lib/Strings.sol\":800:878   */\n        tag_232:\n            /* \"lib/Strings.sol\":815:816   */\n          0x00\n            /* \"lib/Strings.sol\":807:811   */\n          dup3\n            /* \"lib/Strings.sol\":807:816   */\n          eq\n            /* \"lib/Strings.sol\":800:878   */\n          tag_233\n          jumpi\n            /* \"lib/Strings.sol\":833:841   */\n          dup1\n          dup1\n          tag_234\n          swap1\n          tag_235\n          jump\t// in\n        tag_234:\n          swap2\n          pop\n          pop\n            /* \"lib/Strings.sol\":864:866   */\n          0x0a\n            /* \"lib/Strings.sol\":856:866   */\n          dup3\n          tag_236\n          swap2\n          swap1\n          tag_237\n          jump\t// in\n        tag_236:\n          swap2\n          pop\n            /* \"lib/Strings.sol\":800:878   */\n          jump(tag_232)\n        tag_233:\n            /* \"lib/Strings.sol\":888:907   */\n          0x00\n            /* \"lib/Strings.sol\":920:926   */\n          dup2\n            /* \"lib/Strings.sol\":910:927   */\n          0xffffffffffffffff\n          dup2\n          gt\n          iszero\n          tag_238\n          jumpi\n          tag_239\n          tag_240\n          jump\t// in\n        tag_239:\n        tag_238:\n          mload(0x40)\n          swap1\n          dup1\n          dup3\n          mstore\n          dup1\n          0x1f\n          add\n          not(0x1f)\n          and\n          0x20\n          add\n          dup3\n          add\n          0x40\n          mstore\n          dup1\n          iszero\n          tag_241\n          jumpi\n          dup2\n          0x20\n          add\n          0x01\n          dup3\n          mul\n          dup1\n          calldatasize\n          dup4\n          calldatacopy\n          dup1\n          dup3\n          add\n          swap2\n          pop\n          pop\n          swap1\n          pop\n        tag_241:\n          pop\n            /* \"lib/Strings.sol\":888:927   */\n          swap1\n          pop\n            /* \"lib/Strings.sol\":938:1092   */\n        tag_242:\n            /* \"lib/Strings.sol\":954:955   */\n          0x00\n            /* \"lib/Strings.sol\":945:950   */\n          dup6\n            /* \"lib/Strings.sol\":945:955   */\n          eq\n            /* \"lib/Strings.sol\":938:1092   */\n          tag_243\n          jumpi\n            /* \"lib/Strings.sol\":982:983   */\n          0x01\n            /* \"lib/Strings.sol\":972:983   */\n          dup3\n          tag_244\n          swap2\n          swap1\n          tag_213\n          jump\t// in\n        tag_244:\n          swap2\n          pop\n            /* \"lib/Strings.sol\":1049:1051   */\n          0x0a\n            /* \"lib/Strings.sol\":1041:1046   */\n          dup6\n            /* \"lib/Strings.sol\":1041:1051   */\n          tag_245\n          swap2\n          swap1\n          tag_246\n          jump\t// in\n        tag_245:\n            /* \"lib/Strings.sol\":1028:1030   */\n          0x30\n            /* \"lib/Strings.sol\":1028:1052   */\n          tag_247\n          swap2\n          swap1\n          tag_138\n          jump\t// in\n        tag_247:\n            /* \"lib/Strings.sol\":1015:1054   */\n          0xf8\n          shl\n            /* \"lib/Strings.sol\":998:1004   */\n          dup2\n            /* \"lib/Strings.sol\":1005:1011   */\n          dup4\n            /* \"lib/Strings.sol\":998:1012   */\n          dup2\n          mload\n          dup2\n          lt\n          tag_248\n          jumpi\n          tag_249\n          tag_250\n          jump\t// in\n        tag_249:\n        tag_248:\n          0x20\n          add\n          add\n            /* \"lib/Strings.sol\":998:1054   */\n          swap1\n          not(0xffffffffffffffffffffffffffffffffffffffffffffffffffffffffffffff)\n          and\n          swap1\n          dup2\n          0x00\n          byte\n          swap1\n          mstore8\n          pop\n            /* \"lib/Strings.sol\":1078:1080   */\n          0x0a\n            /* \"lib/Strings.sol\":1069:1080   */\n          dup6\n          tag_251\n          swap2\n          swap1\n          tag_237\n          jump\t// in\n        tag_251:\n          swap5\n          pop\n            /* \"lib/Strings.sol\":938:1092   */\n          jump(tag_242)\n        tag_243:\n            /* \"lib/Strings.sol\":1116:1122   */\n          dup1\n            /* \"lib/Strings.sol\":1102:1123   */\n          swap4\n          pop\n          pop\n          pop\n          pop\n            /* \"lib/Strings.sol\":408:1131   */\n        tag_230:\n          swap2\n          swap1\n          pop\n          jump\t// out\n            /* \"MemberNFT.sol\":5631:5758  function _exists(uint256 tokenId) internal view virtual returns (bool) {... */\n        tag_192:\n            /* \"MemberNFT.sol\":5696:5700  bool */\n          0x00\n            /* \"MemberNFT.sol\":5748:5749  0 */\n          dup1\n            /* \"MemberNFT.sol\":5720:5750  _owners[tokenId] != address(0) */\n          0xffffffffffffffffffffffffffffffffffffffff\n          and\n            /* \"MemberNFT.sol\":5720:5727  _owners */\n          0x03\n            /* \"MemberNFT.sol\":5720:5736  _owners[tokenId] */\n          0x00\n            /* \"MemberNFT.sol\":5728:5735  tokenId */\n          dup5\n            /* \"MemberNFT.sol\":5720:5736  _owners[tokenId] */\n          dup2\n          mstore\n          0x20\n          add\n          swap1\n          dup2\n          mstore\n          0x20\n          add\n          0x00\n          keccak256\n          0x00\n          swap1\n          sload\n          swap1\n          0x0100\n          exp\n          swap1\n          div\n          0xffffffffffffffffffffffffffffffffffffffff\n          and\n            /* \"MemberNFT.sol\":5720:5750  _owners[tokenId] != address(0) */\n          0xffffffffffffffffffffffffffffffffffffffff\n          and\n          eq\n          iszero\n            /* \"MemberNFT.sol\":5713:5750  return _owners[tokenId] != address(0) */\n          swap1\n          pop\n            /* \"MemberNFT.sol\":5631:5758  function _exists(uint256 tokenId) internal view virtual returns (bool) {... */\n          swap2\n          swap1\n          pop\n          jump\t// out\n            /* \"MemberNFT.sol\":6235:6554  function _safeMint(... */\n        tag_217:\n            /* \"MemberNFT.sol\":6364:6382  _mint(to, tokenId) */\n          tag_254\n            /* \"MemberNFT.sol\":6370:6372  to */\n          dup4\n            /* \"MemberNFT.sol\":6374:6381  tokenId */\n          dup4\n            /* \"MemberNFT.sol\":6364:6369  _mint */\n          tag_255\n            /* \"MemberNFT.sol\":6364:6382  _mint(to, tokenId) */\n          jump\t// in\n        tag_254:\n            /* \"MemberNFT.sol\":6415:6468  _checkOnERC721Received(address(0), to, tokenId, data) */\n          tag_256\n            /* \"MemberNFT.sol\":6446:6447  0 */\n          0x00\n            /* \"MemberNFT.sol\":6450:6452  to */\n          dup5\n            /* \"MemberNFT.sol\":6454:6461  tokenId */\n          dup5\n            /* \"MemberNFT.sol\":6463:6467  data */\n          dup5\n            /* \"MemberNFT.sol\":6415:6437  _checkOnERC721Received */\n          tag_226\n            /* \"MemberNFT.sol\":6415:6468  _checkOnERC721Received(address(0), to, tokenId, data) */\n          jump\t// in\n        tag_256:\n            /* \"MemberNFT.sol\":6393:6546  require(... */\n          tag_257\n          jumpi\n          mload(0x40)\n          0x08c379a000000000000000000000000000000000000000000000000000000000\n          dup2\n          mstore\n          0x04\n          add\n          tag_258\n          swap1\n          tag_229\n          jump\t// in\n        tag_258:\n          mload(0x40)\n          dup1\n          swap2\n          sub\n          swap1\n          revert\n        tag_257:\n            /* \"MemberNFT.sol\":6235:6554  function _safeMint(... */\n          pop\n          pop\n          pop\n          jump\t// out\n            /* \"MemberNFT.sol\":8121:9156  function _checkOnERC721Received(... */\n        tag_226:\n            /* \"MemberNFT.sol\":8275:8279  bool */\n          0x00\n            /* \"MemberNFT.sol\":8313:8314  0 */\n          dup1\n            /* \"MemberNFT.sol\":8296:8298  to */\n          dup5\n            /* \"MemberNFT.sol\":8296:8310  to.code.length */\n          0xffffffffffffffffffffffffffffffffffffffff\n          and\n          extcodesize\n            /* \"MemberNFT.sol\":8296:8314  to.code.length > 0 */\n          gt\n            /* \"MemberNFT.sol\":8292:9149  if (to.code.length > 0) {... */\n          iszero\n          tag_260\n          jumpi\n            /* \"MemberNFT.sol\":8368:8370  to */\n          dup4\n            /* \"MemberNFT.sol\":8352:8388  IERC721Receiver(to).onERC721Received */\n          0xffffffffffffffffffffffffffffffffffffffff\n          and\n          0x150b7a02\n            /* \"MemberNFT.sol\":8411:8421  msg.sender */\n          caller\n            /* \"MemberNFT.sol\":8444:8448  from */\n          dup8\n            /* \"MemberNFT.sol\":8471:8478  tokenId */\n          dup7\n            /* \"MemberNFT.sol\":8501:8505  data */\n          dup7\n            /* \"MemberNFT.sol\":8352:8524  IERC721Receiver(to).onERC721Received(... */\n          mload(0x40)\n          dup6\n          0xffffffff\n          and\n          0xe0\n          shl\n          dup2\n          mstore\n          0x04\n          add\n          tag_261\n          swap5\n          swap4\n          swap3\n          swap2\n          swap1\n          tag_262\n          jump\t// in\n        tag_261:\n          0x20\n          mload(0x40)\n          dup1\n          dup4\n          sub\n          dup2\n          0x00\n          dup8\n          gas\n          call\n          swap3\n          pop\n          pop\n          pop\n          dup1\n          iszero\n          tag_263\n          jumpi\n          pop\n          mload(0x40)\n          returndatasize\n          not(0x1f)\n          0x1f\n          dup3\n          add\n          and\n          dup3\n          add\n          dup1\n          0x40\n          mstore\n          pop\n          dup2\n          add\n          swap1\n          tag_264\n          swap2\n          swap1\n          tag_265\n          jump\t// in\n        tag_264:\n          0x01\n        tag_263:\n            /* \"MemberNFT.sol\":8331:9094  try... */\n          tag_266\n          jumpi\n          returndatasize\n          dup1\n          0x00\n          dup2\n          eq\n          tag_271\n          jumpi\n          mload(0x40)\n          swap2\n          pop\n          and(add(returndatasize, 0x3f), not(0x1f))\n          dup3\n          add\n          0x40\n          mstore\n          returndatasize\n          dup3\n          mstore\n          returndatasize\n          0x00\n          0x20\n          dup5\n          add\n          returndatacopy\n          jump(tag_270)\n        tag_271:\n          0x60\n          swap2\n          pop\n        tag_270:\n          pop\n            /* \"MemberNFT.sol\":8724:8725  0 */\n          0x00\n            /* \"MemberNFT.sol\":8707:8713  reason */\n          dup2\n            /* \"MemberNFT.sol\":8707:8720  reason.length */\n          mload\n            /* \"MemberNFT.sol\":8707:8725  reason.length == 0 */\n          sub\n            /* \"MemberNFT.sol\":8703:9079  if (reason.length == 0) {... */\n          tag_272\n          jumpi\n            /* \"MemberNFT.sol\":8750:8858  revert(... */\n          mload(0x40)\n          0x08c379a000000000000000000000000000000000000000000000000000000000\n          dup2\n          mstore\n          0x04\n          add\n          tag_273\n          swap1\n          tag_229\n          jump\t// in\n        tag_273:\n          mload(0x40)\n          dup1\n          swap2\n          sub\n          swap1\n          revert\n            /* \"MemberNFT.sol\":8703:9079  if (reason.length == 0) {... */\n        tag_272:\n            /* \"MemberNFT.sol\":9029:9035  reason */\n          dup1\n            /* \"MemberNFT.sol\":9023:9036  mload(reason) */\n          mload\n            /* \"MemberNFT.sol\":9014:9020  reason */\n          dup2\n            /* \"MemberNFT.sol\":9010:9012  32 */\n          0x20\n            /* \"MemberNFT.sol\":9006:9021  add(32, reason) */\n          add\n            /* \"MemberNFT.sol\":8999:9037  revert(add(32, reason), mload(reason)) */\n          revert\n            /* \"MemberNFT.sol\":8331:9094  try... */\n        tag_266:\n            /* \"MemberNFT.sol\":8598:8639  IERC721Receiver.onERC721Received.selector */\n          shl(0xe0, 0x150b7a02)\n            /* \"MemberNFT.sol\":8588:8639  retval == IERC721Receiver.onERC721Received.selector */\n          not(0xffffffffffffffffffffffffffffffffffffffffffffffffffffffff)\n          and\n            /* \"MemberNFT.sol\":8588:8594  retval */\n          dup2\n            /* \"MemberNFT.sol\":8588:8639  retval == IERC721Receiver.onERC721Received.selector */\n          not(0xffffffffffffffffffffffffffffffffffffffffffffffffffffffff)\n          and\n          eq\n            /* \"MemberNFT.sol\":8581:8639  return retval == IERC721Receiver.onERC721Received.selector */\n          swap2\n          pop\n          pop\n          jump(tag_259)\n            /* \"MemberNFT.sol\":8292:9149  if (to.code.length > 0) {... */\n        tag_260:\n            /* \"MemberNFT.sol\":9133:9137  true */\n          0x01\n            /* \"MemberNFT.sol\":9126:9137  return true */\n          swap1\n          pop\n            /* \"MemberNFT.sol\":8121:9156  function _checkOnERC721Received(... */\n        tag_259:\n          swap5\n          swap4\n          pop\n          pop\n          pop\n          pop\n          jump\t// out\n            /* \"MemberNFT.sol\":6562:6882  function _mint(address to, uint256 tokenId) internal virtual {... */\n        tag_255:\n            /* \"MemberNFT.sol\":6656:6657  0 */\n          0x00\n            /* \"MemberNFT.sol\":6642:6658  to != address(0) */\n          0xffffffffffffffffffffffffffffffffffffffff\n          and\n            /* \"MemberNFT.sol\":6642:6644  to */\n          dup3\n            /* \"MemberNFT.sol\":6642:6658  to != address(0) */\n          0xffffffffffffffffffffffffffffffffffffffff\n          and\n          sub\n            /* \"MemberNFT.sol\":6634:6695  require(to != address(0), \"ERC721: mint to the zero address\") */\n          tag_278\n          jumpi\n          mload(0x40)\n          0x08c379a000000000000000000000000000000000000000000000000000000000\n          dup2\n          mstore\n          0x04\n          add\n          tag_279\n          swap1\n          tag_280\n          jump\t// in\n        tag_279:\n          mload(0x40)\n          dup1\n          swap2\n          sub\n          swap1\n          revert\n        tag_278:\n            /* \"MemberNFT.sol\":6715:6731  _exists(tokenId) */\n          tag_281\n            /* \"MemberNFT.sol\":6723:6730  tokenId */\n          dup2\n            /* \"MemberNFT.sol\":6715:6722  _exists */\n          tag_192\n            /* \"MemberNFT.sol\":6715:6731  _exists(tokenId) */\n          jump\t// in\n        tag_281:\n            /* \"MemberNFT.sol\":6714:6731  !_exists(tokenId) */\n          iszero\n            /* \"MemberNFT.sol\":6706:6764  require(!_exists(tokenId), \"ERC721: token already minted\") */\n          tag_282\n          jumpi\n          mload(0x40)\n          0x08c379a000000000000000000000000000000000000000000000000000000000\n          dup2\n          mstore\n          0x04\n          add\n          tag_283\n          swap1\n          tag_284\n          jump\t// in\n        tag_283:\n          mload(0x40)\n          dup1\n          swap2\n          sub\n          swap1\n          revert\n        tag_282:\n            /* \"MemberNFT.sol\":6792:6793  1 */\n          0x01\n            /* \"MemberNFT.sol\":6775:6784  _balances */\n          0x04\n            /* \"MemberNFT.sol\":6775:6788  _balances[to] */\n          0x00\n            /* \"MemberNFT.sol\":6785:6787  to */\n          dup5\n            /* \"MemberNFT.sol\":6775:6788  _balances[to] */\n          0xffffffffffffffffffffffffffffffffffffffff\n          and\n          0xffffffffffffffffffffffffffffffffffffffff\n          and\n          dup2\n          mstore\n          0x20\n          add\n          swap1\n          dup2\n          mstore\n          0x20\n          add\n          0x00\n          keccak256\n          0x00\n            /* \"MemberNFT.sol\":6775:6793  _balances[to] += 1 */\n          dup3\n          dup3\n          sload\n          tag_285\n          swap2\n          swap1\n          tag_138\n          jump\t// in\n        tag_285:\n          swap3\n          pop\n          pop\n          dup2\n          swap1\n          sstore\n          pop\n            /* \"MemberNFT.sol\":6823:6825  to */\n          dup2\n            /* \"MemberNFT.sol\":6804:6811  _owners */\n          0x03\n            /* \"MemberNFT.sol\":6804:6820  _owners[tokenId] */\n          0x00\n            /* \"MemberNFT.sol\":6812:6819  tokenId */\n          dup4\n            /* \"MemberNFT.sol\":6804:6820  _owners[tokenId] */\n          dup2\n          mstore\n          0x20\n          add\n          swap1\n          dup2\n          mstore\n          0x20\n          add\n          0x00\n          keccak256\n          0x00\n            /* \"MemberNFT.sol\":6804:6825  _owners[tokenId] = to */\n          0x0100\n          exp\n          dup2\n          sload\n          dup2\n          0xffffffffffffffffffffffffffffffffffffffff\n          mul\n          not\n          and\n          swap1\n          dup4\n          0xffffffffffffffffffffffffffffffffffffffff\n          and\n          mul\n          or\n          swap1\n          sstore\n          pop\n            /* \"MemberNFT.sol\":6866:6873  tokenId */\n          dup1\n            /* \"MemberNFT.sol\":6862:6864  to */\n          dup3\n            /* \"MemberNFT.sol\":6841:6874  Transfer(address(0), to, tokenId) */\n          0xffffffffffffffffffffffffffffffffffffffff\n          and\n            /* \"MemberNFT.sol\":6858:6859  0 */\n          0x00\n            /* \"MemberNFT.sol\":6841:6874  Transfer(address(0), to, tokenId) */\n          0xffffffffffffffffffffffffffffffffffffffff\n          and\n          0xddf252ad1be2c89b69c2b068fc378daa952ba7f163c4a11628f55a4df523b3ef\n          mload(0x40)\n          mload(0x40)\n          dup1\n          swap2\n          sub\n          swap1\n          log4\n            /* \"MemberNFT.sol\":6562:6882  function _mint(address to, uint256 tokenId) internal virtual {... */\n          pop\n          pop\n          jump\t// out\n            /* \"#utility.yul\":7:82   */\n        tag_286:\n            /* \"#utility.yul\":40:46   */\n          0x00\n            /* \"#utility.yul\":73:75   */\n          0x40\n            /* \"#utility.yul\":67:76   */\n          mload\n            /* \"#utility.yul\":57:76   */\n          swap1\n          pop\n            /* \"#utility.yul\":7:82   */\n          swap1\n          jump\t// out\n            /* \"#utility.yul\":88:205   */\n        tag_287:\n            /* \"#utility.yul\":197:198   */\n          0x00\n            /* \"#utility.yul\":194:195   */\n          dup1\n            /* \"#utility.yul\":187:199   */\n          revert\n            /* \"#utility.yul\":211:328   */\n        tag_288:\n            /* \"#utility.yul\":320:321   */\n          0x00\n            /* \"#utility.yul\":317:318   */\n          dup1\n            /* \"#utility.yul\":310:322   */\n          revert\n            /* \"#utility.yul\":334:483   */\n        tag_289:\n            /* \"#utility.yul\":370:377   */\n          0x00\n            /* \"#utility.yul\":410:476   */\n          0xffffffff00000000000000000000000000000000000000000000000000000000\n            /* \"#utility.yul\":403:408   */\n          dup3\n            /* \"#utility.yul\":399:477   */\n          and\n            /* \"#utility.yul\":388:477   */\n          swap1\n          pop\n            /* \"#utility.yul\":334:483   */\n          swap2\n          swap1\n          pop\n          jump\t// out\n            /* \"#utility.yul\":489:609   */\n        tag_290:\n            /* \"#utility.yul\":561:584   */\n          tag_363\n            /* \"#utility.yul\":578:583   */\n          dup2\n            /* \"#utility.yul\":561:584   */\n          tag_289\n          jump\t// in\n        tag_363:\n            /* \"#utility.yul\":554:559   */\n          dup2\n            /* \"#utility.yul\":551:585   */\n          eq\n            /* \"#utility.yul\":541:603   */\n          tag_364\n          jumpi\n            /* \"#utility.yul\":599:600   */\n          0x00\n            /* \"#utility.yul\":596:597   */\n          dup1\n            /* \"#utility.yul\":589:601   */\n          revert\n            /* \"#utility.yul\":541:603   */\n        tag_364:\n            /* \"#utility.yul\":489:609   */\n          pop\n          jump\t// out\n            /* \"#utility.yul\":615:752   */\n        tag_291:\n            /* \"#utility.yul\":660:665   */\n          0x00\n            /* \"#utility.yul\":698:704   */\n          dup2\n            /* \"#utility.yul\":685:705   */\n          calldataload\n            /* \"#utility.yul\":676:705   */\n          swap1\n          pop\n            /* \"#utility.yul\":714:746   */\n          tag_366\n            /* \"#utility.yul\":740:745   */\n          dup2\n            /* \"#utility.yul\":714:746   */\n          tag_290\n          jump\t// in\n        tag_366:\n            /* \"#utility.yul\":615:752   */\n          swap3\n          swap2\n          pop\n          pop\n          jump\t// out\n            /* \"#utility.yul\":758:1085   */\n        tag_26:\n            /* \"#utility.yul\":816:822   */\n          0x00\n            /* \"#utility.yul\":865:867   */\n          0x20\n            /* \"#utility.yul\":853:862   */\n          dup3\n            /* \"#utility.yul\":844:851   */\n          dup5\n            /* \"#utility.yul\":840:863   */\n          sub\n            /* \"#utility.yul\":836:868   */\n          slt\n            /* \"#utility.yul\":833:952   */\n          iszero\n          tag_368\n          jumpi\n            /* \"#utility.yul\":871:950   */\n          tag_369\n          tag_287\n          jump\t// in\n        tag_369:\n            /* \"#utility.yul\":833:952   */\n        tag_368:\n            /* \"#utility.yul\":991:992   */\n          0x00\n            /* \"#utility.yul\":1016:1068   */\n          tag_370\n            /* \"#utility.yul\":1060:1067   */\n          dup5\n            /* \"#utility.yul\":1051:1057   */\n          dup3\n            /* \"#utility.yul\":1040:1049   */\n          dup6\n            /* \"#utility.yul\":1036:1058   */\n          add\n            /* \"#utility.yul\":1016:1068   */\n          tag_291\n          jump\t// in\n        tag_370:\n            /* \"#utility.yul\":1006:1068   */\n          swap2\n          pop\n            /* \"#utility.yul\":962:1078   */\n          pop\n            /* \"#utility.yul\":758:1085   */\n          swap3\n          swap2\n          pop\n          pop\n          jump\t// out\n            /* \"#utility.yul\":1091:1181   */\n        tag_292:\n            /* \"#utility.yul\":1125:1132   */\n          0x00\n            /* \"#utility.yul\":1168:1173   */\n          dup2\n            /* \"#utility.yul\":1161:1174   */\n          iszero\n            /* \"#utility.yul\":1154:1175   */\n          iszero\n            /* \"#utility.yul\":1143:1175   */\n          swap1\n          pop\n            /* \"#utility.yul\":1091:1181   */\n          swap2\n          swap1\n          pop\n          jump\t// out\n            /* \"#utility.yul\":1187:1296   */\n        tag_293:\n            /* \"#utility.yul\":1268:1289   */\n          tag_373\n            /* \"#utility.yul\":1283:1288   */\n          dup2\n            /* \"#utility.yul\":1268:1289   */\n          tag_292\n          jump\t// in\n        tag_373:\n            /* \"#utility.yul\":1263:1266   */\n          dup3\n            /* \"#utility.yul\":1256:1290   */\n          mstore\n            /* \"#utility.yul\":1187:1296   */\n          pop\n          pop\n          jump\t// out\n            /* \"#utility.yul\":1302:1512   */\n        tag_29:\n            /* \"#utility.yul\":1389:1393   */\n          0x00\n            /* \"#utility.yul\":1427:1429   */\n          0x20\n            /* \"#utility.yul\":1416:1425   */\n          dup3\n            /* \"#utility.yul\":1412:1430   */\n          add\n            /* \"#utility.yul\":1404:1430   */\n          swap1\n          pop\n            /* \"#utility.yul\":1440:1505   */\n          tag_375\n            /* \"#utility.yul\":1502:1503   */\n          0x00\n            /* \"#utility.yul\":1491:1500   */\n          dup4\n            /* \"#utility.yul\":1487:1504   */\n          add\n            /* \"#utility.yul\":1478:1484   */\n          dup5\n            /* \"#utility.yul\":1440:1505   */\n          tag_293\n          jump\t// in\n        tag_375:\n            /* \"#utility.yul\":1302:1512   */\n          swap3\n          swap2\n          pop\n          pop\n          jump\t// out\n            /* \"#utility.yul\":1518:1595   */\n        tag_294:\n            /* \"#utility.yul\":1555:1562   */\n          0x00\n            /* \"#utility.yul\":1584:1589   */\n          dup2\n            /* \"#utility.yul\":1573:1589   */\n          swap1\n          pop\n            /* \"#utility.yul\":1518:1595   */\n          swap2\n          swap1\n          pop\n          jump\t// out\n            /* \"#utility.yul\":1601:1719   */\n        tag_295:\n            /* \"#utility.yul\":1688:1712   */\n          tag_378\n            /* \"#utility.yul\":1706:1711   */\n          dup2\n            /* \"#utility.yul\":1688:1712   */\n          tag_294\n          jump\t// in\n        tag_378:\n            /* \"#utility.yul\":1683:1686   */\n          dup3\n            /* \"#utility.yul\":1676:1713   */\n          mstore\n            /* \"#utility.yul\":1601:1719   */\n          pop\n          pop\n          jump\t// out\n            /* \"#utility.yul\":1725:1947   */\n        tag_33:\n            /* \"#utility.yul\":1818:1822   */\n          0x00\n            /* \"#utility.yul\":1856:1858   */\n          0x20\n            /* \"#utility.yul\":1845:1854   */\n          dup3\n            /* \"#utility.yul\":1841:1859   */\n          add\n            /* \"#utility.yul\":1833:1859   */\n          swap1\n          pop\n            /* \"#utility.yul\":1869:1940   */\n          tag_380\n            /* \"#utility.yul\":1937:1938   */\n          0x00\n            /* \"#utility.yul\":1926:1935   */\n          dup4\n            /* \"#utility.yul\":1922:1939   */\n          add\n            /* \"#utility.yul\":1913:1919   */\n          dup5\n            /* \"#utility.yul\":1869:1940   */\n          tag_295\n          jump\t// in\n        tag_380:\n            /* \"#utility.yul\":1725:1947   */\n          swap3\n          swap2\n          pop\n          pop\n          jump\t// out\n            /* \"#utility.yul\":1953:2052   */\n        tag_296:\n            /* \"#utility.yul\":2005:2011   */\n          0x00\n            /* \"#utility.yul\":2039:2044   */\n          dup2\n            /* \"#utility.yul\":2033:2045   */\n          mload\n            /* \"#utility.yul\":2023:2045   */\n          swap1\n          pop\n            /* \"#utility.yul\":1953:2052   */\n          swap2\n          swap1\n          pop\n          jump\t// out\n            /* \"#utility.yul\":2058:2227   */\n        tag_297:\n            /* \"#utility.yul\":2142:2153   */\n          0x00\n            /* \"#utility.yul\":2176:2182   */\n          dup3\n            /* \"#utility.yul\":2171:2174   */\n          dup3\n            /* \"#utility.yul\":2164:2183   */\n          mstore\n            /* \"#utility.yul\":2216:2220   */\n          0x20\n            /* \"#utility.yul\":2211:2214   */\n          dup3\n            /* \"#utility.yul\":2207:2221   */\n          add\n            /* \"#utility.yul\":2192:2221   */\n          swap1\n          pop\n            /* \"#utility.yul\":2058:2227   */\n          swap3\n          swap2\n          pop\n          pop\n          jump\t// out\n            /* \"#utility.yul\":2233:2479   */\n        tag_298:\n            /* \"#utility.yul\":2314:2315   */\n          0x00\n            /* \"#utility.yul\":2324:2437   */\n        tag_384:\n            /* \"#utility.yul\":2338:2344   */\n          dup4\n            /* \"#utility.yul\":2335:2336   */\n          dup2\n            /* \"#utility.yul\":2332:2345   */\n          lt\n            /* \"#utility.yul\":2324:2437   */\n          iszero\n          tag_386\n          jumpi\n            /* \"#utility.yul\":2423:2424   */\n          dup1\n            /* \"#utility.yul\":2418:2421   */\n          dup3\n            /* \"#utility.yul\":2414:2425   */\n          add\n            /* \"#utility.yul\":2408:2426   */\n          mload\n            /* \"#utility.yul\":2404:2405   */\n          dup2\n            /* \"#utility.yul\":2399:2402   */\n          dup5\n            /* \"#utility.yul\":2395:2406   */\n          add\n            /* \"#utility.yul\":2388:2427   */\n          mstore\n            /* \"#utility.yul\":2360:2362   */\n          0x20\n            /* \"#utility.yul\":2357:2358   */\n          dup2\n            /* \"#utility.yul\":2353:2363   */\n          add\n            /* \"#utility.yul\":2348:2363   */\n          swap1\n          pop\n            /* \"#utility.yul\":2324:2437   */\n          jump(tag_384)\n        tag_386:\n            /* \"#utility.yul\":2471:2472   */\n          0x00\n            /* \"#utility.yul\":2462:2468   */\n          dup5\n            /* \"#utility.yul\":2457:2460   */\n          dup5\n            /* \"#utility.yul\":2453:2469   */\n          add\n            /* \"#utility.yul\":2446:2473   */\n          mstore\n            /* \"#utility.yul\":2295:2479   */\n          pop\n            /* \"#utility.yul\":2233:2479   */\n          pop\n          pop\n          pop\n          jump\t// out\n            /* \"#utility.yul\":2485:2587   */\n        tag_299:\n            /* \"#utility.yul\":2526:2532   */\n          0x00\n            /* \"#utility.yul\":2577:2579   */\n          0x1f\n            /* \"#utility.yul\":2573:2580   */\n          not\n            /* \"#utility.yul\":2568:2570   */\n          0x1f\n            /* \"#utility.yul\":2561:2566   */\n          dup4\n            /* \"#utility.yul\":2557:2571   */\n          add\n            /* \"#utility.yul\":2553:2581   */\n          and\n            /* \"#utility.yul\":2543:2581   */\n          swap1\n          pop\n            /* \"#utility.yul\":2485:2587   */\n          swap2\n          swap1\n          pop\n          jump\t// out\n            /* \"#utility.yul\":2593:2970   */\n        tag_300:\n            /* \"#utility.yul\":2681:2684   */\n          0x00\n            /* \"#utility.yul\":2709:2748   */\n          tag_389\n            /* \"#utility.yul\":2742:2747   */\n          dup3\n            /* \"#utility.yul\":2709:2748   */\n          tag_296\n          jump\t// in\n        tag_389:\n            /* \"#utility.yul\":2764:2835   */\n          tag_390\n            /* \"#utility.yul\":2828:2834   */\n          dup2\n            /* \"#utility.yul\":2823:2826   */\n          dup6\n            /* \"#utility.yul\":2764:2835   */\n          tag_297\n          jump\t// in\n        tag_390:\n            /* \"#utility.yul\":2757:2835   */\n          swap4\n          pop\n            /* \"#utility.yul\":2844:2909   */\n          tag_391\n            /* \"#utility.yul\":2902:2908   */\n          dup2\n            /* \"#utility.yul\":2897:2900   */\n          dup6\n            /* \"#utility.yul\":2890:2894   */\n          0x20\n            /* \"#utility.yul\":2883:2888   */\n          dup7\n            /* \"#utility.yul\":2879:2895   */\n          add\n            /* \"#utility.yul\":2844:2909   */\n          tag_298\n          jump\t// in\n        tag_391:\n            /* \"#utility.yul\":2934:2963   */\n          tag_392\n            /* \"#utility.yul\":2956:2962   */\n          dup2\n            /* \"#utility.yul\":2934:2963   */\n          tag_299\n          jump\t// in\n        tag_392:\n            /* \"#utility.yul\":2929:2932   */\n          dup5\n            /* \"#utility.yul\":2925:2964   */\n          add\n            /* \"#utility.yul\":2918:2964   */\n          swap2\n          pop\n            /* \"#utility.yul\":2685:2970   */\n          pop\n            /* \"#utility.yul\":2593:2970   */\n          swap3\n          swap2\n          pop\n          pop\n          jump\t// out\n            /* \"#utility.yul\":2976:3289   */\n        tag_37:\n            /* \"#utility.yul\":3089:3093   */\n          0x00\n            /* \"#utility.yul\":3127:3129   */\n          0x20\n            /* \"#utility.yul\":3116:3125   */\n          dup3\n            /* \"#utility.yul\":3112:3130   */\n          add\n            /* \"#utility.yul\":3104:3130   */\n          swap1\n          pop\n            /* \"#utility.yul\":3176:3185   */\n          dup2\n            /* \"#utility.yul\":3170:3174   */\n          dup2\n            /* \"#utility.yul\":3166:3186   */\n          sub\n            /* \"#utility.yul\":3162:3163   */\n          0x00\n            /* \"#utility.yul\":3151:3160   */\n          dup4\n            /* \"#utility.yul\":3147:3164   */\n          add\n            /* \"#utility.yul\":3140:3187   */\n          mstore\n            /* \"#utility.yul\":3204:3282   */\n          tag_394\n            /* \"#utility.yul\":3277:3281   */\n          dup2\n            /* \"#utility.yul\":3268:3274   */\n          dup5\n            /* \"#utility.yul\":3204:3282   */\n          tag_300\n          jump\t// in\n        tag_394:\n            /* \"#utility.yul\":3196:3282   */\n          swap1\n          pop\n            /* \"#utility.yul\":2976:3289   */\n          swap3\n          swap2\n          pop\n          pop\n          jump\t// out\n            /* \"#utility.yul\":3295:3417   */\n        tag_301:\n            /* \"#utility.yul\":3368:3392   */\n          tag_396\n            /* \"#utility.yul\":3386:3391   */\n          dup2\n            /* \"#utility.yul\":3368:3392   */\n          tag_294\n          jump\t// in\n        tag_396:\n            /* \"#utility.yul\":3361:3366   */\n          dup2\n            /* \"#utility.yul\":3358:3393   */\n          eq\n            /* \"#utility.yul\":3348:3411   */\n          tag_397\n          jumpi\n            /* \"#utility.yul\":3407:3408   */\n          0x00\n            /* \"#utility.yul\":3404:3405   */\n          dup1\n            /* \"#utility.yul\":3397:3409   */\n          revert\n            /* \"#utility.yul\":3348:3411   */\n        tag_397:\n            /* \"#utility.yul\":3295:3417   */\n          pop\n          jump\t// out\n            /* \"#utility.yul\":3423:3562   */\n        tag_302:\n            /* \"#utility.yul\":3469:3474   */\n          0x00\n            /* \"#utility.yul\":3507:3513   */\n          dup2\n            /* \"#utility.yul\":3494:3514   */\n          calldataload\n            /* \"#utility.yul\":3485:3514   */\n          swap1\n          pop\n            /* \"#utility.yul\":3523:3556   */\n          tag_399\n            /* \"#utility.yul\":3550:3555   */\n          dup2\n            /* \"#utility.yul\":3523:3556   */\n          tag_301\n          jump\t// in\n        tag_399:\n            /* \"#utility.yul\":3423:3562   */\n          swap3\n          swap2\n          pop\n          pop\n          jump\t// out\n            /* \"#utility.yul\":3568:3897   */\n        tag_40:\n            /* \"#utility.yul\":3627:3633   */\n          0x00\n            /* \"#utility.yul\":3676:3678   */\n          0x20\n            /* \"#utility.yul\":3664:3673   */\n          dup3\n            /* \"#utility.yul\":3655:3662   */\n          dup5\n            /* \"#utility.yul\":3651:3674   */\n          sub\n            /* \"#utility.yul\":3647:3679   */\n          slt\n            /* \"#utility.yul\":3644:3763   */\n          iszero\n          tag_401\n          jumpi\n            /* \"#utility.yul\":3682:3761   */\n          tag_402\n          tag_287\n          jump\t// in\n        tag_402:\n            /* \"#utility.yul\":3644:3763   */\n        tag_401:\n            /* \"#utility.yul\":3802:3803   */\n          0x00\n            /* \"#utility.yul\":3827:3880   */\n          tag_403\n            /* \"#utility.yul\":3872:3879   */\n          dup5\n            /* \"#utility.yul\":3863:3869   */\n          dup3\n            /* \"#utility.yul\":3852:3861   */\n          dup6\n            /* \"#utility.yul\":3848:3870   */\n          add\n            /* \"#utility.yul\":3827:3880   */\n          tag_302\n          jump\t// in\n        tag_403:\n            /* \"#utility.yul\":3817:3880   */\n          swap2\n          pop\n            /* \"#utility.yul\":3773:3890   */\n          pop\n            /* \"#utility.yul\":3568:3897   */\n          swap3\n          swap2\n          pop\n          pop\n          jump\t// out\n            /* \"#utility.yul\":3903:4029   */\n        tag_303:\n            /* \"#utility.yul\":3940:3947   */\n          0x00\n            /* \"#utility.yul\":3980:4022   */\n          0xffffffffffffffffffffffffffffffffffffffff\n            /* \"#utility.yul\":3973:3978   */\n          dup3\n            /* \"#utility.yul\":3969:4023   */\n          and\n            /* \"#utility.yul\":3958:4023   */\n          swap1\n          pop\n            /* \"#utility.yul\":3903:4029   */\n          swap2\n          swap1\n          pop\n          jump\t// out\n            /* \"#utility.yul\":4035:4131   */\n        tag_304:\n            /* \"#utility.yul\":4072:4079   */\n          0x00\n            /* \"#utility.yul\":4101:4125   */\n          tag_406\n            /* \"#utility.yul\":4119:4124   */\n          dup3\n            /* \"#utility.yul\":4101:4125   */\n          tag_303\n          jump\t// in\n        tag_406:\n            /* \"#utility.yul\":4090:4125   */\n          swap1\n          pop\n            /* \"#utility.yul\":4035:4131   */\n          swap2\n          swap1\n          pop\n          jump\t// out\n            /* \"#utility.yul\":4137:4255   */\n        tag_305:\n            /* \"#utility.yul\":4224:4248   */\n          tag_408\n            /* \"#utility.yul\":4242:4247   */\n          dup2\n            /* \"#utility.yul\":4224:4248   */\n          tag_304\n          jump\t// in\n        tag_408:\n            /* \"#utility.yul\":4219:4222   */\n          dup3\n            /* \"#utility.yul\":4212:4249   */\n          mstore\n            /* \"#utility.yul\":4137:4255   */\n          pop\n          pop\n          jump\t// out\n            /* \"#utility.yul\":4261:4483   */\n        tag_43:\n            /* \"#utility.yul\":4354:4358   */\n          0x00\n            /* \"#utility.yul\":4392:4394   */\n          0x20\n            /* \"#utility.yul\":4381:4390   */\n          dup3\n            /* \"#utility.yul\":4377:4395   */\n          add\n            /* \"#utility.yul\":4369:4395   */\n          swap1\n          pop\n            /* \"#utility.yul\":4405:4476   */\n          tag_410\n            /* \"#utility.yul\":4473:4474   */\n          0x00\n            /* \"#utility.yul\":4462:4471   */\n          dup4\n            /* \"#utility.yul\":4458:4475   */\n          add\n            /* \"#utility.yul\":4449:4455   */\n          dup5\n            /* \"#utility.yul\":4405:4476   */\n          tag_305\n          jump\t// in\n        tag_410:\n            /* \"#utility.yul\":4261:4483   */\n          swap3\n          swap2\n          pop\n          pop\n          jump\t// out\n            /* \"#utility.yul\":4489:4611   */\n        tag_306:\n            /* \"#utility.yul\":4562:4586   */\n          tag_412\n            /* \"#utility.yul\":4580:4585   */\n          dup2\n            /* \"#utility.yul\":4562:4586   */\n          tag_304\n          jump\t// in\n        tag_412:\n            /* \"#utility.yul\":4555:4560   */\n          dup2\n            /* \"#utility.yul\":4552:4587   */\n          eq\n            /* \"#utility.yul\":4542:4605   */\n          tag_413\n          jumpi\n            /* \"#utility.yul\":4601:4602   */\n          0x00\n            /* \"#utility.yul\":4598:4599   */\n          dup1\n            /* \"#utility.yul\":4591:4603   */\n          revert\n            /* \"#utility.yul\":4542:4605   */\n        tag_413:\n            /* \"#utility.yul\":4489:4611   */\n          pop\n          jump\t// out\n            /* \"#utility.yul\":4617:4756   */\n        tag_307:\n            /* \"#utility.yul\":4663:4668   */\n          0x00\n            /* \"#utility.yul\":4701:4707   */\n          dup2\n            /* \"#utility.yul\":4688:4708   */\n          calldataload\n            /* \"#utility.yul\":4679:4708   */\n          swap1\n          pop\n            /* \"#utility.yul\":4717:4750   */\n          tag_415\n            /* \"#utility.yul\":4744:4749   */\n          dup2\n            /* \"#utility.yul\":4717:4750   */\n          tag_306\n          jump\t// in\n        tag_415:\n            /* \"#utility.yul\":4617:4756   */\n          swap3\n          swap2\n          pop\n          pop\n          jump\t// out\n            /* \"#utility.yul\":4762:5236   */\n        tag_46:\n            /* \"#utility.yul\":4830:4836   */\n          0x00\n            /* \"#utility.yul\":4838:4844   */\n          dup1\n            /* \"#utility.yul\":4887:4889   */\n          0x40\n            /* \"#utility.yul\":4875:4884   */\n          dup4\n            /* \"#utility.yul\":4866:4873   */\n          dup6\n            /* \"#utility.yul\":4862:4885   */\n          sub\n            /* \"#utility.yul\":4858:4890   */\n          slt\n            /* \"#utility.yul\":4855:4974   */\n          iszero\n          tag_417\n          jumpi\n            /* \"#utility.yul\":4893:4972   */\n          tag_418\n          tag_287\n          jump\t// in\n        tag_418:\n            /* \"#utility.yul\":4855:4974   */\n        tag_417:\n            /* \"#utility.yul\":5013:5014   */\n          0x00\n            /* \"#utility.yul\":5038:5091   */\n          tag_419\n            /* \"#utility.yul\":5083:5090   */\n          dup6\n            /* \"#utility.yul\":5074:5080   */\n          dup3\n            /* \"#utility.yul\":5063:5072   */\n          dup7\n            /* \"#utility.yul\":5059:5081   */\n          add\n            /* \"#utility.yul\":5038:5091   */\n          tag_307\n          jump\t// in\n        tag_419:\n            /* \"#utility.yul\":5028:5091   */\n          swap3\n          pop\n            /* \"#utility.yul\":4984:5101   */\n          pop\n            /* \"#utility.yul\":5140:5142   */\n          0x20\n            /* \"#utility.yul\":5166:5219   */\n          tag_420\n            /* \"#utility.yul\":5211:5218   */\n          dup6\n            /* \"#utility.yul\":5202:5208   */\n          dup3\n            /* \"#utility.yul\":5191:5200   */\n          dup7\n            /* \"#utility.yul\":5187:5209   */\n          add\n            /* \"#utility.yul\":5166:5219   */\n          tag_302\n          jump\t// in\n        tag_420:\n            /* \"#utility.yul\":5156:5219   */\n          swap2\n          pop\n            /* \"#utility.yul\":5111:5229   */\n          pop\n            /* \"#utility.yul\":4762:5236   */\n          swap3\n          pop\n          swap3\n          swap1\n          pop\n          jump\t// out\n            /* \"#utility.yul\":5242:5861   */\n        tag_50:\n            /* \"#utility.yul\":5319:5325   */\n          0x00\n            /* \"#utility.yul\":5327:5333   */\n          dup1\n            /* \"#utility.yul\":5335:5341   */\n          0x00\n            /* \"#utility.yul\":5384:5386   */\n          0x60\n            /* \"#utility.yul\":5372:5381   */\n          dup5\n            /* \"#utility.yul\":5363:5370   */\n          dup7\n            /* \"#utility.yul\":5359:5382   */\n          sub\n            /* \"#utility.yul\":5355:5387   */\n          slt\n            /* \"#utility.yul\":5352:5471   */\n          iszero\n          tag_422\n          jumpi\n            /* \"#utility.yul\":5390:5469   */\n          tag_423\n          tag_287\n          jump\t// in\n        tag_423:\n            /* \"#utility.yul\":5352:5471   */\n        tag_422:\n            /* \"#utility.yul\":5510:5511   */\n          0x00\n            /* \"#utility.yul\":5535:5588   */\n          tag_424\n            /* \"#utility.yul\":5580:5587   */\n          dup7\n            /* \"#utility.yul\":5571:5577   */\n          dup3\n            /* \"#utility.yul\":5560:5569   */\n          dup8\n            /* \"#utility.yul\":5556:5578   */\n          add\n            /* \"#utility.yul\":5535:5588   */\n          tag_307\n          jump\t// in\n        tag_424:\n            /* \"#utility.yul\":5525:5588   */\n          swap4\n          pop\n            /* \"#utility.yul\":5481:5598   */\n          pop\n            /* \"#utility.yul\":5637:5639   */\n          0x20\n            /* \"#utility.yul\":5663:5716   */\n          tag_425\n            /* \"#utility.yul\":5708:5715   */\n          dup7\n            /* \"#utility.yul\":5699:5705   */\n          dup3\n            /* \"#utility.yul\":5688:5697   */\n          dup8\n            /* \"#utility.yul\":5684:5706   */\n          add\n            /* \"#utility.yul\":5663:5716   */\n          tag_307\n          jump\t// in\n        tag_425:\n            /* \"#utility.yul\":5653:5716   */\n          swap3\n          pop\n            /* \"#utility.yul\":5608:5726   */\n          pop\n            /* \"#utility.yul\":5765:5767   */\n          0x40\n            /* \"#utility.yul\":5791:5844   */\n          tag_426\n            /* \"#utility.yul\":5836:5843   */\n          dup7\n            /* \"#utility.yul\":5827:5833   */\n          dup3\n            /* \"#utility.yul\":5816:5825   */\n          dup8\n            /* \"#utility.yul\":5812:5834   */\n          add\n            /* \"#utility.yul\":5791:5844   */\n          tag_302\n          jump\t// in\n        tag_426:\n            /* \"#utility.yul\":5781:5844   */\n          swap2\n          pop\n            /* \"#utility.yul\":5736:5854   */\n          pop\n            /* \"#utility.yul\":5242:5861   */\n          swap3\n          pop\n          swap3\n          pop\n          swap3\n          jump\t// out\n            /* \"#utility.yul\":5867:6341   */\n        tag_54:\n            /* \"#utility.yul\":5935:5941   */\n          0x00\n            /* \"#utility.yul\":5943:5949   */\n          dup1\n            /* \"#utility.yul\":5992:5994   */\n          0x40\n            /* \"#utility.yul\":5980:5989   */\n          dup4\n            /* \"#utility.yul\":5971:5978   */\n          dup6\n            /* \"#utility.yul\":5967:5990   */\n          sub\n            /* \"#utility.yul\":5963:5995   */\n          slt\n            /* \"#utility.yul\":5960:6079   */\n          iszero\n          tag_428\n          jumpi\n            /* \"#utility.yul\":5998:6077   */\n          tag_429\n          tag_287\n          jump\t// in\n        tag_429:\n            /* \"#utility.yul\":5960:6079   */\n        tag_428:\n            /* \"#utility.yul\":6118:6119   */\n          0x00\n            /* \"#utility.yul\":6143:6196   */\n          tag_430\n            /* \"#utility.yul\":6188:6195   */\n          dup6\n            /* \"#utility.yul\":6179:6185   */\n          dup3\n            /* \"#utility.yul\":6168:6177   */\n          dup7\n            /* \"#utility.yul\":6164:6186   */\n          add\n            /* \"#utility.yul\":6143:6196   */\n          tag_307\n          jump\t// in\n        tag_430:\n            /* \"#utility.yul\":6133:6196   */\n          swap3\n          pop\n            /* \"#utility.yul\":6089:6206   */\n          pop\n            /* \"#utility.yul\":6245:6247   */\n          0x20\n            /* \"#utility.yul\":6271:6324   */\n          tag_431\n            /* \"#utility.yul\":6316:6323   */\n          dup6\n            /* \"#utility.yul\":6307:6313   */\n          dup3\n            /* \"#utility.yul\":6296:6305   */\n          dup7\n            /* \"#utility.yul\":6292:6314   */\n          add\n            /* \"#utility.yul\":6271:6324   */\n          tag_307\n          jump\t// in\n        tag_431:\n            /* \"#utility.yul\":6261:6324   */\n          swap2\n          pop\n            /* \"#utility.yul\":6216:6334   */\n          pop\n            /* \"#utility.yul\":5867:6341   */\n          swap3\n          pop\n          swap3\n          swap1\n          pop\n          jump\t// out\n            /* \"#utility.yul\":6347:6676   */\n        tag_65:\n            /* \"#utility.yul\":6406:6412   */\n          0x00\n            /* \"#utility.yul\":6455:6457   */\n          0x20\n            /* \"#utility.yul\":6443:6452   */\n          dup3\n            /* \"#utility.yul\":6434:6441   */\n          dup5\n            /* \"#utility.yul\":6430:6453   */\n          sub\n            /* \"#utility.yul\":6426:6458   */\n          slt\n            /* \"#utility.yul\":6423:6542   */\n          iszero\n          tag_433\n          jumpi\n            /* \"#utility.yul\":6461:6540   */\n          tag_434\n          tag_287\n          jump\t// in\n        tag_434:\n            /* \"#utility.yul\":6423:6542   */\n        tag_433:\n            /* \"#utility.yul\":6581:6582   */\n          0x00\n            /* \"#utility.yul\":6606:6659   */\n          tag_435\n            /* \"#utility.yul\":6651:6658   */\n          dup5\n            /* \"#utility.yul\":6642:6648   */\n          dup3\n            /* \"#utility.yul\":6631:6640   */\n          dup6\n            /* \"#utility.yul\":6627:6649   */\n          add\n            /* \"#utility.yul\":6606:6659   */\n          tag_307\n          jump\t// in\n        tag_435:\n            /* \"#utility.yul\":6596:6659   */\n          swap2\n          pop\n            /* \"#utility.yul\":6552:6669   */\n          pop\n            /* \"#utility.yul\":6347:6676   */\n          swap3\n          swap2\n          pop\n          pop\n          jump\t// out\n            /* \"#utility.yul\":6682:6798   */\n        tag_308:\n            /* \"#utility.yul\":6752:6773   */\n          tag_437\n            /* \"#utility.yul\":6767:6772   */\n          dup2\n            /* \"#utility.yul\":6752:6773   */\n          tag_292\n          jump\t// in\n        tag_437:\n            /* \"#utility.yul\":6745:6750   */\n          dup2\n            /* \"#utility.yul\":6742:6774   */\n          eq\n            /* \"#utility.yul\":6732:6792   */\n          tag_438\n          jumpi\n            /* \"#utility.yul\":6788:6789   */\n          0x00\n            /* \"#utility.yul\":6785:6786   */\n          dup1\n            /* \"#utility.yul\":6778:6790   */\n          revert\n            /* \"#utility.yul\":6732:6792   */\n        tag_438:\n            /* \"#utility.yul\":6682:6798   */\n          pop\n          jump\t// out\n            /* \"#utility.yul\":6804:6937   */\n        tag_309:\n            /* \"#utility.yul\":6847:6852   */\n          0x00\n            /* \"#utility.yul\":6885:6891   */\n          dup2\n            /* \"#utility.yul\":6872:6892   */\n          calldataload\n            /* \"#utility.yul\":6863:6892   */\n          swap1\n          pop\n            /* \"#utility.yul\":6901:6931   */\n          tag_440\n            /* \"#utility.yul\":6925:6930   */\n          dup2\n            /* \"#utility.yul\":6901:6931   */\n          tag_308\n          jump\t// in\n        tag_440:\n            /* \"#utility.yul\":6804:6937   */\n          swap3\n          swap2\n          pop\n          pop\n          jump\t// out\n            /* \"#utility.yul\":6943:7411   */\n        tag_79:\n            /* \"#utility.yul\":7008:7014   */\n          0x00\n            /* \"#utility.yul\":7016:7022   */\n          dup1\n            /* \"#utility.yul\":7065:7067   */\n          0x40\n            /* \"#utility.yul\":7053:7062   */\n          dup4\n            /* \"#utility.yul\":7044:7051   */\n          dup6\n            /* \"#utility.yul\":7040:7063   */\n          sub\n            /* \"#utility.yul\":7036:7068   */\n          slt\n            /* \"#utility.yul\":7033:7152   */\n          iszero\n          tag_442\n          jumpi\n            /* \"#utility.yul\":7071:7150   */\n          tag_443\n          tag_287\n          jump\t// in\n        tag_443:\n            /* \"#utility.yul\":7033:7152   */\n        tag_442:\n            /* \"#utility.yul\":7191:7192   */\n          0x00\n            /* \"#utility.yul\":7216:7269   */\n          tag_444\n            /* \"#utility.yul\":7261:7268   */\n          dup6\n            /* \"#utility.yul\":7252:7258   */\n          dup3\n            /* \"#utility.yul\":7241:7250   */\n          dup7\n            /* \"#utility.yul\":7237:7259   */\n          add\n            /* \"#utility.yul\":7216:7269   */\n          tag_307\n          jump\t// in\n        tag_444:\n            /* \"#utility.yul\":7206:7269   */\n          swap3\n          pop\n            /* \"#utility.yul\":7162:7279   */\n          pop\n            /* \"#utility.yul\":7318:7320   */\n          0x20\n            /* \"#utility.yul\":7344:7394   */\n          tag_445\n            /* \"#utility.yul\":7386:7393   */\n          dup6\n            /* \"#utility.yul\":7377:7383   */\n          dup3\n            /* \"#utility.yul\":7366:7375   */\n          dup7\n            /* \"#utility.yul\":7362:7384   */\n          add\n            /* \"#utility.yul\":7344:7394   */\n          tag_309\n          jump\t// in\n        tag_445:\n            /* \"#utility.yul\":7334:7394   */\n          swap2\n          pop\n            /* \"#utility.yul\":7289:7404   */\n          pop\n            /* \"#utility.yul\":6943:7411   */\n          swap3\n          pop\n          swap3\n          swap1\n          pop\n          jump\t// out\n            /* \"#utility.yul\":7417:7534   */\n        tag_310:\n            /* \"#utility.yul\":7526:7527   */\n          0x00\n            /* \"#utility.yul\":7523:7524   */\n          dup1\n            /* \"#utility.yul\":7516:7528   */\n          revert\n            /* \"#utility.yul\":7540:7657   */\n        tag_311:\n            /* \"#utility.yul\":7649:7650   */\n          0x00\n            /* \"#utility.yul\":7646:7647   */\n          dup1\n            /* \"#utility.yul\":7639:7651   */\n          revert\n            /* \"#utility.yul\":7663:7843   */\n        tag_240:\n            /* \"#utility.yul\":7711:7788   */\n          0x4e487b7100000000000000000000000000000000000000000000000000000000\n            /* \"#utility.yul\":7708:7709   */\n          0x00\n            /* \"#utility.yul\":7701:7789   */\n          mstore\n            /* \"#utility.yul\":7808:7812   */\n          0x41\n            /* \"#utility.yul\":7805:7806   */\n          0x04\n            /* \"#utility.yul\":7798:7813   */\n          mstore\n            /* \"#utility.yul\":7832:7836   */\n          0x24\n            /* \"#utility.yul\":7829:7830   */\n          0x00\n            /* \"#utility.yul\":7822:7837   */\n          revert\n            /* \"#utility.yul\":7849:8130   */\n        tag_312:\n            /* \"#utility.yul\":7932:7959   */\n          tag_450\n            /* \"#utility.yul\":7954:7958   */\n          dup3\n            /* \"#utility.yul\":7932:7959   */\n          tag_299\n          jump\t// in\n        tag_450:\n            /* \"#utility.yul\":7924:7930   */\n          dup2\n            /* \"#utility.yul\":7920:7960   */\n          add\n            /* \"#utility.yul\":8062:8068   */\n          dup2\n            /* \"#utility.yul\":8050:8060   */\n          dup2\n            /* \"#utility.yul\":8047:8069   */\n          lt\n            /* \"#utility.yul\":8026:8044   */\n          0xffffffffffffffff\n            /* \"#utility.yul\":8014:8024   */\n          dup3\n            /* \"#utility.yul\":8011:8045   */\n          gt\n            /* \"#utility.yul\":8008:8070   */\n          or\n            /* \"#utility.yul\":8005:8093   */\n          iszero\n          tag_451\n          jumpi\n            /* \"#utility.yul\":8073:8091   */\n          tag_452\n          tag_240\n          jump\t// in\n        tag_452:\n            /* \"#utility.yul\":8005:8093   */\n        tag_451:\n            /* \"#utility.yul\":8113:8123   */\n          dup1\n            /* \"#utility.yul\":8109:8111   */\n          0x40\n            /* \"#utility.yul\":8102:8124   */\n          mstore\n            /* \"#utility.yul\":7892:8130   */\n          pop\n            /* \"#utility.yul\":7849:8130   */\n          pop\n          pop\n          jump\t// out\n            /* \"#utility.yul\":8136:8265   */\n        tag_313:\n            /* \"#utility.yul\":8170:8176   */\n          0x00\n            /* \"#utility.yul\":8197:8217   */\n          tag_454\n          tag_286\n          jump\t// in\n        tag_454:\n            /* \"#utility.yul\":8187:8217   */\n          swap1\n          pop\n            /* \"#utility.yul\":8226:8259   */\n          tag_455\n            /* \"#utility.yul\":8254:8258   */\n          dup3\n            /* \"#utility.yul\":8246:8252   */\n          dup3\n            /* \"#utility.yul\":8226:8259   */\n          tag_312\n          jump\t// in\n        tag_455:\n            /* \"#utility.yul\":8136:8265   */\n          swap2\n          swap1\n          pop\n          jump\t// out\n            /* \"#utility.yul\":8271:8578   */\n        tag_314:\n            /* \"#utility.yul\":8332:8336   */\n          0x00\n            /* \"#utility.yul\":8422:8440   */\n          0xffffffffffffffff\n            /* \"#utility.yul\":8414:8420   */\n          dup3\n            /* \"#utility.yul\":8411:8441   */\n          gt\n            /* \"#utility.yul\":8408:8464   */\n          iszero\n          tag_457\n          jumpi\n            /* \"#utility.yul\":8444:8462   */\n          tag_458\n          tag_240\n          jump\t// in\n        tag_458:\n            /* \"#utility.yul\":8408:8464   */\n        tag_457:\n            /* \"#utility.yul\":8482:8511   */\n          tag_459\n            /* \"#utility.yul\":8504:8510   */\n          dup3\n            /* \"#utility.yul\":8482:8511   */\n          tag_299\n          jump\t// in\n        tag_459:\n            /* \"#utility.yul\":8474:8511   */\n          swap1\n          pop\n            /* \"#utility.yul\":8566:8570   */\n          0x20\n            /* \"#utility.yul\":8560:8564   */\n          dup2\n            /* \"#utility.yul\":8556:8571   */\n          add\n            /* \"#utility.yul\":8548:8571   */\n          swap1\n          pop\n            /* \"#utility.yul\":8271:8578   */\n          swap2\n          swap1\n          pop\n          jump\t// out\n            /* \"#utility.yul\":8584:8730   */\n        tag_315:\n            /* \"#utility.yul\":8681:8687   */\n          dup3\n            /* \"#utility.yul\":8676:8679   */\n          dup2\n            /* \"#utility.yul\":8671:8674   */\n          dup4\n            /* \"#utility.yul\":8658:8688   */\n          calldatacopy\n            /* \"#utility.yul\":8722:8723   */\n          0x00\n            /* \"#utility.yul\":8713:8719   */\n          dup4\n            /* \"#utility.yul\":8708:8711   */\n          dup4\n            /* \"#utility.yul\":8704:8720   */\n          add\n            /* \"#utility.yul\":8697:8724   */\n          mstore\n            /* \"#utility.yul\":8584:8730   */\n          pop\n          pop\n          pop\n          jump\t// out\n            /* \"#utility.yul\":8736:9159   */\n        tag_316:\n            /* \"#utility.yul\":8813:8818   */\n          0x00\n            /* \"#utility.yul\":8838:8903   */\n          tag_462\n            /* \"#utility.yul\":8854:8902   */\n          tag_463\n            /* \"#utility.yul\":8895:8901   */\n          dup5\n            /* \"#utility.yul\":8854:8902   */\n          tag_314\n          jump\t// in\n        tag_463:\n            /* \"#utility.yul\":8838:8903   */\n          tag_313\n          jump\t// in\n        tag_462:\n            /* \"#utility.yul\":8829:8903   */\n          swap1\n          pop\n            /* \"#utility.yul\":8926:8932   */\n          dup3\n            /* \"#utility.yul\":8919:8924   */\n          dup2\n            /* \"#utility.yul\":8912:8933   */\n          mstore\n            /* \"#utility.yul\":8964:8968   */\n          0x20\n            /* \"#utility.yul\":8957:8962   */\n          dup2\n            /* \"#utility.yul\":8953:8969   */\n          add\n            /* \"#utility.yul\":9002:9005   */\n          dup5\n            /* \"#utility.yul\":8993:8999   */\n          dup5\n            /* \"#utility.yul\":8988:8991   */\n          dup5\n            /* \"#utility.yul\":8984:9000   */\n          add\n            /* \"#utility.yul\":8981:9006   */\n          gt\n            /* \"#utility.yul\":8978:9090   */\n          iszero\n          tag_464\n          jumpi\n            /* \"#utility.yul\":9009:9088   */\n          tag_465\n          tag_311\n          jump\t// in\n        tag_465:\n            /* \"#utility.yul\":8978:9090   */\n        tag_464:\n            /* \"#utility.yul\":9099:9153   */\n          tag_466\n            /* \"#utility.yul\":9146:9152   */\n          dup5\n            /* \"#utility.yul\":9141:9144   */\n          dup3\n            /* \"#utility.yul\":9136:9139   */\n          dup6\n            /* \"#utility.yul\":9099:9153   */\n          tag_315\n          jump\t// in\n        tag_466:\n            /* \"#utility.yul\":8819:9159   */\n          pop\n            /* \"#utility.yul\":8736:9159   */\n          swap4\n          swap3\n          pop\n          pop\n          pop\n          jump\t// out\n            /* \"#utility.yul\":9178:9516   */\n        tag_317:\n            /* \"#utility.yul\":9233:9238   */\n          0x00\n            /* \"#utility.yul\":9282:9285   */\n          dup3\n            /* \"#utility.yul\":9275:9279   */\n          0x1f\n            /* \"#utility.yul\":9267:9273   */\n          dup4\n            /* \"#utility.yul\":9263:9280   */\n          add\n            /* \"#utility.yul\":9259:9286   */\n          slt\n            /* \"#utility.yul\":9249:9371   */\n          tag_468\n          jumpi\n            /* \"#utility.yul\":9290:9369   */\n          tag_469\n          tag_310\n          jump\t// in\n        tag_469:\n            /* \"#utility.yul\":9249:9371   */\n        tag_468:\n            /* \"#utility.yul\":9407:9413   */\n          dup2\n            /* \"#utility.yul\":9394:9414   */\n          calldataload\n            /* \"#utility.yul\":9432:9510   */\n          tag_470\n            /* \"#utility.yul\":9506:9509   */\n          dup5\n            /* \"#utility.yul\":9498:9504   */\n          dup3\n            /* \"#utility.yul\":9491:9495   */\n          0x20\n            /* \"#utility.yul\":9483:9489   */\n          dup7\n            /* \"#utility.yul\":9479:9496   */\n          add\n            /* \"#utility.yul\":9432:9510   */\n          tag_316\n          jump\t// in\n        tag_470:\n            /* \"#utility.yul\":9423:9510   */\n          swap2\n          pop\n            /* \"#utility.yul\":9239:9516   */\n          pop\n            /* \"#utility.yul\":9178:9516   */\n          swap3\n          swap2\n          pop\n          pop\n          jump\t// out\n            /* \"#utility.yul\":9522:10465   */\n        tag_83:\n            /* \"#utility.yul\":9617:9623   */\n          0x00\n            /* \"#utility.yul\":9625:9631   */\n          dup1\n            /* \"#utility.yul\":9633:9639   */\n          0x00\n            /* \"#utility.yul\":9641:9647   */\n          dup1\n            /* \"#utility.yul\":9690:9693   */\n          0x80\n            /* \"#utility.yul\":9678:9687   */\n          dup6\n            /* \"#utility.yul\":9669:9676   */\n          dup8\n            /* \"#utility.yul\":9665:9688   */\n          sub\n            /* \"#utility.yul\":9661:9694   */\n          slt\n            /* \"#utility.yul\":9658:9778   */\n          iszero\n          tag_472\n          jumpi\n            /* \"#utility.yul\":9697:9776   */\n          tag_473\n          tag_287\n          jump\t// in\n        tag_473:\n            /* \"#utility.yul\":9658:9778   */\n        tag_472:\n            /* \"#utility.yul\":9817:9818   */\n          0x00\n            /* \"#utility.yul\":9842:9895   */\n          tag_474\n            /* \"#utility.yul\":9887:9894   */\n          dup8\n            /* \"#utility.yul\":9878:9884   */\n          dup3\n            /* \"#utility.yul\":9867:9876   */\n          dup9\n            /* \"#utility.yul\":9863:9885   */\n          add\n            /* \"#utility.yul\":9842:9895   */\n          tag_307\n          jump\t// in\n        tag_474:\n            /* \"#utility.yul\":9832:9895   */\n          swap5\n          pop\n            /* \"#utility.yul\":9788:9905   */\n          pop\n            /* \"#utility.yul\":9944:9946   */\n          0x20\n            /* \"#utility.yul\":9970:10023   */\n          tag_475\n            /* \"#utility.yul\":10015:10022   */\n          dup8\n            /* \"#utility.yul\":10006:10012   */\n          dup3\n            /* \"#utility.yul\":9995:10004   */\n          dup9\n            /* \"#utility.yul\":9991:10013   */\n          add\n            /* \"#utility.yul\":9970:10023   */\n          tag_307\n          jump\t// in\n        tag_475:\n            /* \"#utility.yul\":9960:10023   */\n          swap4\n          pop\n            /* \"#utility.yul\":9915:10033   */\n          pop\n            /* \"#utility.yul\":10072:10074   */\n          0x40\n            /* \"#utility.yul\":10098:10151   */\n          tag_476\n            /* \"#utility.yul\":10143:10150   */\n          dup8\n            /* \"#utility.yul\":10134:10140   */\n          dup3\n            /* \"#utility.yul\":10123:10132   */\n          dup9\n            /* \"#utility.yul\":10119:10141   */\n          add\n            /* \"#utility.yul\":10098:10151   */\n          tag_302\n          jump\t// in\n        tag_476:\n            /* \"#utility.yul\":10088:10151   */\n          swap3\n          pop\n            /* \"#utility.yul\":10043:10161   */\n          pop\n            /* \"#utility.yul\":10228:10230   */\n          0x60\n            /* \"#utility.yul\":10217:10226   */\n          dup6\n            /* \"#utility.yul\":10213:10231   */\n          add\n            /* \"#utility.yul\":10200:10232   */\n          calldataload\n            /* \"#utility.yul\":10259:10277   */\n          0xffffffffffffffff\n            /* \"#utility.yul\":10251:10257   */\n          dup2\n            /* \"#utility.yul\":10248:10278   */\n          gt\n            /* \"#utility.yul\":10245:10362   */\n          iszero\n          tag_477\n          jumpi\n            /* \"#utility.yul\":10281:10360   */\n          tag_478\n          tag_288\n          jump\t// in\n        tag_478:\n            /* \"#utility.yul\":10245:10362   */\n        tag_477:\n            /* \"#utility.yul\":10386:10448   */\n          tag_479\n            /* \"#utility.yul\":10440:10447   */\n          dup8\n            /* \"#utility.yul\":10431:10437   */\n          dup3\n            /* \"#utility.yul\":10420:10429   */\n          dup9\n            /* \"#utility.yul\":10416:10438   */\n          add\n            /* \"#utility.yul\":10386:10448   */\n          tag_317\n          jump\t// in\n        tag_479:\n            /* \"#utility.yul\":10376:10448   */\n          swap2\n          pop\n            /* \"#utility.yul\":10171:10458   */\n          pop\n            /* \"#utility.yul\":9522:10465   */\n          swap3\n          swap6\n          swap2\n          swap5\n          pop\n          swap3\n          pop\n          jump\t// out\n            /* \"#utility.yul\":10471:10651   */\n        tag_318:\n            /* \"#utility.yul\":10519:10596   */\n          0x4e487b7100000000000000000000000000000000000000000000000000000000\n            /* \"#utility.yul\":10516:10517   */\n          0x00\n            /* \"#utility.yul\":10509:10597   */\n          mstore\n            /* \"#utility.yul\":10616:10620   */\n          0x22\n            /* \"#utility.yul\":10613:10614   */\n          0x04\n            /* \"#utility.yul\":10606:10621   */\n          mstore\n            /* \"#utility.yul\":10640:10644   */\n          0x24\n            /* \"#utility.yul\":10637:10638   */\n          0x00\n            /* \"#utility.yul\":10630:10645   */\n          revert\n            /* \"#utility.yul\":10657:10977   */\n        tag_103:\n            /* \"#utility.yul\":10701:10707   */\n          0x00\n            /* \"#utility.yul\":10738:10739   */\n          0x02\n            /* \"#utility.yul\":10732:10736   */\n          dup3\n            /* \"#utility.yul\":10728:10740   */\n          div\n            /* \"#utility.yul\":10718:10740   */\n          swap1\n          pop\n            /* \"#utility.yul\":10785:10786   */\n          0x01\n            /* \"#utility.yul\":10779:10783   */\n          dup3\n            /* \"#utility.yul\":10775:10787   */\n          and\n            /* \"#utility.yul\":10806:10824   */\n          dup1\n            /* \"#utility.yul\":10796:10877   */\n          tag_482\n          jumpi\n            /* \"#utility.yul\":10862:10866   */\n          0x7f\n            /* \"#utility.yul\":10854:10860   */\n          dup3\n            /* \"#utility.yul\":10850:10867   */\n          and\n            /* \"#utility.yul\":10840:10867   */\n          swap2\n          pop\n            /* \"#utility.yul\":10796:10877   */\n        tag_482:\n            /* \"#utility.yul\":10924:10926   */\n          0x20\n            /* \"#utility.yul\":10916:10922   */\n          dup3\n            /* \"#utility.yul\":10913:10927   */\n          lt\n            /* \"#utility.yul\":10893:10911   */\n          dup2\n            /* \"#utility.yul\":10890:10928   */\n          sub\n            /* \"#utility.yul\":10887:10971   */\n          tag_483\n          jumpi\n            /* \"#utility.yul\":10943:10961   */\n          tag_484\n          tag_318\n          jump\t// in\n        tag_484:\n            /* \"#utility.yul\":10887:10971   */\n        tag_483:\n            /* \"#utility.yul\":10708:10977   */\n          pop\n            /* \"#utility.yul\":10657:10977   */\n          swap2\n          swap1\n          pop\n          jump\t// out\n            /* \"#utility.yul\":10983:11203   */\n        tag_319:\n            /* \"#utility.yul\":11123:11157   */\n          0x4552433732313a20617070726f76616c20746f2063757272656e74206f776e65\n            /* \"#utility.yul\":11119:11120   */\n          0x00\n            /* \"#utility.yul\":11111:11117   */\n          dup3\n            /* \"#utility.yul\":11107:11121   */\n          add\n            /* \"#utility.yul\":11100:11158   */\n          mstore\n            /* \"#utility.yul\":11192:11195   */\n          0x7200000000000000000000000000000000000000000000000000000000000000\n            /* \"#utility.yul\":11187:11189   */\n          0x20\n            /* \"#utility.yul\":11179:11185   */\n          dup3\n            /* \"#utility.yul\":11175:11190   */\n          add\n            /* \"#utility.yul\":11168:11196   */\n          mstore\n            /* \"#utility.yul\":10983:11203   */\n          pop\n          jump\t// out\n            /* \"#utility.yul\":11209:11575   */\n        tag_320:\n            /* \"#utility.yul\":11351:11354   */\n          0x00\n            /* \"#utility.yul\":11372:11439   */\n          tag_487\n            /* \"#utility.yul\":11436:11438   */\n          0x21\n            /* \"#utility.yul\":11431:11434   */\n          dup4\n            /* \"#utility.yul\":11372:11439   */\n          tag_297\n          jump\t// in\n        tag_487:\n            /* \"#utility.yul\":11365:11439   */\n          swap2\n          pop\n            /* \"#utility.yul\":11448:11541   */\n          tag_488\n            /* \"#utility.yul\":11537:11540   */\n          dup3\n            /* \"#utility.yul\":11448:11541   */\n          tag_319\n          jump\t// in\n        tag_488:\n            /* \"#utility.yul\":11566:11568   */\n          0x40\n            /* \"#utility.yul\":11561:11564   */\n          dup3\n            /* \"#utility.yul\":11557:11569   */\n          add\n            /* \"#utility.yul\":11550:11569   */\n          swap1\n          pop\n            /* \"#utility.yul\":11209:11575   */\n          swap2\n          swap1\n          pop\n          jump\t// out\n            /* \"#utility.yul\":11581:12000   */\n        tag_115:\n            /* \"#utility.yul\":11747:11751   */\n          0x00\n            /* \"#utility.yul\":11785:11787   */\n          0x20\n            /* \"#utility.yul\":11774:11783   */\n          dup3\n            /* \"#utility.yul\":11770:11788   */\n          add\n            /* \"#utility.yul\":11762:11788   */\n          swap1\n          pop\n            /* \"#utility.yul\":11834:11843   */\n          dup2\n            /* \"#utility.yul\":11828:11832   */\n          dup2\n            /* \"#utility.yul\":11824:11844   */\n          sub\n            /* \"#utility.yul\":11820:11821   */\n          0x00\n            /* \"#utility.yul\":11809:11818   */\n          dup4\n            /* \"#utility.yul\":11805:11822   */\n          add\n            /* \"#utility.yul\":11798:11845   */\n          mstore\n            /* \"#utility.yul\":11862:11993   */\n          tag_490\n            /* \"#utility.yul\":11988:11992   */\n          dup2\n            /* \"#utility.yul\":11862:11993   */\n          tag_320\n          jump\t// in\n        tag_490:\n            /* \"#utility.yul\":11854:11993   */\n          swap1\n          pop\n            /* \"#utility.yul\":11581:12000   */\n          swap2\n          swap1\n          pop\n          jump\t// out\n            /* \"#utility.yul\":12006:12255   */\n        tag_321:\n            /* \"#utility.yul\":12146:12180   */\n          0x4552433732313a20617070726f76652063616c6c6572206973206e6f7420746f\n            /* \"#utility.yul\":12142:12143   */\n          0x00\n            /* \"#utility.yul\":12134:12140   */\n          dup3\n            /* \"#utility.yul\":12130:12144   */\n          add\n            /* \"#utility.yul\":12123:12181   */\n          mstore\n            /* \"#utility.yul\":12215:12247   */\n          0x6b656e206f776e6572206e6f7220617070726f76656420666f7220616c6c0000\n            /* \"#utility.yul\":12210:12212   */\n          0x20\n            /* \"#utility.yul\":12202:12208   */\n          dup3\n            /* \"#utility.yul\":12198:12213   */\n          add\n            /* \"#utility.yul\":12191:12248   */\n          mstore\n            /* \"#utility.yul\":12006:12255   */\n          pop\n          jump\t// out\n            /* \"#utility.yul\":12261:12627   */\n        tag_322:\n            /* \"#utility.yul\":12403:12406   */\n          0x00\n            /* \"#utility.yul\":12424:12491   */\n          tag_493\n            /* \"#utility.yul\":12488:12490   */\n          0x3e\n            /* \"#utility.yul\":12483:12486   */\n          dup4\n            /* \"#utility.yul\":12424:12491   */\n          tag_297\n          jump\t// in\n        tag_493:\n            /* \"#utility.yul\":12417:12491   */\n          swap2\n          pop\n            /* \"#utility.yul\":12500:12593   */\n          tag_494\n            /* \"#utility.yul\":12589:12592   */\n          dup3\n            /* \"#utility.yul\":12500:12593   */\n          tag_321\n          jump\t// in\n        tag_494:\n            /* \"#utility.yul\":12618:12620   */\n          0x40\n            /* \"#utility.yul\":12613:12616   */\n          dup3\n            /* \"#utility.yul\":12609:12621   */\n          add\n            /* \"#utility.yul\":12602:12621   */\n          swap1\n          pop\n            /* \"#utility.yul\":12261:12627   */\n          swap2\n          swap1\n          pop\n          jump\t// out\n            /* \"#utility.yul\":12633:13052   */\n        tag_120:\n            /* \"#utility.yul\":12799:12803   */\n          0x00\n            /* \"#utility.yul\":12837:12839   */\n          0x20\n            /* \"#utility.yul\":12826:12835   */\n          dup3\n            /* \"#utility.yul\":12822:12840   */\n          add\n            /* \"#utility.yul\":12814:12840   */\n          swap1\n          pop\n            /* \"#utility.yul\":12886:12895   */\n          dup2\n            /* \"#utility.yul\":12880:12884   */\n          dup2\n            /* \"#utility.yul\":12876:12896   */\n          sub\n            /* \"#utility.yul\":12872:12873   */\n          0x00\n            /* \"#utility.yul\":12861:12870   */\n          dup4\n            /* \"#utility.yul\":12857:12874   */\n          add\n            /* \"#utility.yul\":12850:12897   */\n          mstore\n            /* \"#utility.yul\":12914:13045   */\n          tag_496\n            /* \"#utility.yul\":13040:13044   */\n          dup2\n            /* \"#utility.yul\":12914:13045   */\n          tag_322\n          jump\t// in\n        tag_496:\n            /* \"#utility.yul\":12906:13045   */\n          swap1\n          pop\n            /* \"#utility.yul\":12633:13052   */\n          swap2\n          swap1\n          pop\n          jump\t// out\n            /* \"#utility.yul\":13058:13291   */\n        tag_323:\n            /* \"#utility.yul\":13198:13232   */\n          0x4552433732313a2063616c6c6572206973206e6f7420746f6b656e206f776e65\n            /* \"#utility.yul\":13194:13195   */\n          0x00\n            /* \"#utility.yul\":13186:13192   */\n          dup3\n            /* \"#utility.yul\":13182:13196   */\n          add\n            /* \"#utility.yul\":13175:13233   */\n          mstore\n            /* \"#utility.yul\":13267:13283   */\n          0x72206e6f7220617070726f766564000000000000000000000000000000000000\n            /* \"#utility.yul\":13262:13264   */\n          0x20\n            /* \"#utility.yul\":13254:13260   */\n          dup3\n            /* \"#utility.yul\":13250:13265   */\n          add\n            /* \"#utility.yul\":13243:13284   */\n          mstore\n            /* \"#utility.yul\":13058:13291   */\n          pop\n          jump\t// out\n            /* \"#utility.yul\":13297:13663   */\n        tag_324:\n            /* \"#utility.yul\":13439:13442   */\n          0x00\n            /* \"#utility.yul\":13460:13527   */\n          tag_499\n            /* \"#utility.yul\":13524:13526   */\n          0x2e\n            /* \"#utility.yul\":13519:13522   */\n          dup4\n            /* \"#utility.yul\":13460:13527   */\n          tag_297\n          jump\t// in\n        tag_499:\n            /* \"#utility.yul\":13453:13527   */\n          swap2\n          pop\n            /* \"#utility.yul\":13536:13629   */\n          tag_500\n            /* \"#utility.yul\":13625:13628   */\n          dup3\n            /* \"#utility.yul\":13536:13629   */\n          tag_323\n          jump\t// in\n        tag_500:\n            /* \"#utility.yul\":13654:13656   */\n          0x40\n            /* \"#utility.yul\":13649:13652   */\n          dup3\n            /* \"#utility.yul\":13645:13657   */\n          add\n            /* \"#utility.yul\":13638:13657   */\n          swap1\n          pop\n            /* \"#utility.yul\":13297:13663   */\n          swap2\n          swap1\n          pop\n          jump\t// out\n            /* \"#utility.yul\":13669:14088   */\n        tag_128:\n            /* \"#utility.yul\":13835:13839   */\n          0x00\n            /* \"#utility.yul\":13873:13875   */\n          0x20\n            /* \"#utility.yul\":13862:13871   */\n          dup3\n            /* \"#utility.yul\":13858:13876   */\n          add\n            /* \"#utility.yul\":13850:13876   */\n          swap1\n          pop\n            /* \"#utility.yul\":13922:13931   */\n          dup2\n            /* \"#utility.yul\":13916:13920   */\n          dup2\n            /* \"#utility.yul\":13912:13932   */\n          sub\n            /* \"#utility.yul\":13908:13909   */\n          0x00\n            /* \"#utility.yul\":13897:13906   */\n          dup4\n            /* \"#utility.yul\":13893:13910   */\n          add\n            /* \"#utility.yul\":13886:13933   */\n          mstore\n            /* \"#utility.yul\":13950:14081   */\n          tag_502\n            /* \"#utility.yul\":14076:14080   */\n          dup2\n            /* \"#utility.yul\":13950:14081   */\n          tag_324\n          jump\t// in\n        tag_502:\n            /* \"#utility.yul\":13942:14081   */\n          swap1\n          pop\n            /* \"#utility.yul\":13669:14088   */\n          swap2\n          swap1\n          pop\n          jump\t// out\n            /* \"#utility.yul\":14094:14257   */\n        tag_325:\n            /* \"#utility.yul\":14234:14249   */\n          0x57726f6e67206164647265737300000000000000000000000000000000000000\n            /* \"#utility.yul\":14230:14231   */\n          0x00\n            /* \"#utility.yul\":14222:14228   */\n          dup3\n            /* \"#utility.yul\":14218:14232   */\n          add\n            /* \"#utility.yul\":14211:14250   */\n          mstore\n            /* \"#utility.yul\":14094:14257   */\n          pop\n          jump\t// out\n            /* \"#utility.yul\":14263:14629   */\n        tag_326:\n            /* \"#utility.yul\":14405:14408   */\n          0x00\n            /* \"#utility.yul\":14426:14493   */\n          tag_505\n            /* \"#utility.yul\":14490:14492   */\n          0x0d\n            /* \"#utility.yul\":14485:14488   */\n          dup4\n            /* \"#utility.yul\":14426:14493   */\n          tag_297\n          jump\t// in\n        tag_505:\n            /* \"#utility.yul\":14419:14493   */\n          swap2\n          pop\n            /* \"#utility.yul\":14502:14595   */\n          tag_506\n            /* \"#utility.yul\":14591:14594   */\n          dup3\n            /* \"#utility.yul\":14502:14595   */\n          tag_325\n          jump\t// in\n        tag_506:\n            /* \"#utility.yul\":14620:14622   */\n          0x20\n            /* \"#utility.yul\":14615:14618   */\n          dup3\n            /* \"#utility.yul\":14611:14623   */\n          add\n            /* \"#utility.yul\":14604:14623   */\n          swap1\n          pop\n            /* \"#utility.yul\":14263:14629   */\n          swap2\n          swap1\n          pop\n          jump\t// out\n            /* \"#utility.yul\":14635:15054   */\n        tag_134:\n            /* \"#utility.yul\":14801:14805   */\n          0x00\n            /* \"#utility.yul\":14839:14841   */\n          0x20\n            /* \"#utility.yul\":14828:14837   */\n          dup3\n            /* \"#utility.yul\":14824:14842   */\n          add\n            /* \"#utility.yul\":14816:14842   */\n          swap1\n          pop\n            /* \"#utility.yul\":14888:14897   */\n          dup2\n            /* \"#utility.yul\":14882:14886   */\n          dup2\n            /* \"#utility.yul\":14878:14898   */\n          sub\n            /* \"#utility.yul\":14874:14875   */\n          0x00\n            /* \"#utility.yul\":14863:14872   */\n          dup4\n            /* \"#utility.yul\":14859:14876   */\n          add\n            /* \"#utility.yul\":14852:14899   */\n          mstore\n            /* \"#utility.yul\":14916:15047   */\n          tag_508\n            /* \"#utility.yul\":15042:15046   */\n          dup2\n            /* \"#utility.yul\":14916:15047   */\n          tag_326\n          jump\t// in\n        tag_508:\n            /* \"#utility.yul\":14908:15047   */\n          swap1\n          pop\n            /* \"#utility.yul\":14635:15054   */\n          swap2\n          swap1\n          pop\n          jump\t// out\n            /* \"#utility.yul\":15060:15240   */\n        tag_327:\n            /* \"#utility.yul\":15108:15185   */\n          0x4e487b7100000000000000000000000000000000000000000000000000000000\n            /* \"#utility.yul\":15105:15106   */\n          0x00\n            /* \"#utility.yul\":15098:15186   */\n          mstore\n            /* \"#utility.yul\":15205:15209   */\n          0x11\n            /* \"#utility.yul\":15202:15203   */\n          0x04\n            /* \"#utility.yul\":15195:15210   */\n          mstore\n            /* \"#utility.yul\":15229:15233   */\n          0x24\n            /* \"#utility.yul\":15226:15227   */\n          0x00\n            /* \"#utility.yul\":15219:15234   */\n          revert\n            /* \"#utility.yul\":15246:15437   */\n        tag_138:\n            /* \"#utility.yul\":15286:15289   */\n          0x00\n            /* \"#utility.yul\":15305:15325   */\n          tag_511\n            /* \"#utility.yul\":15323:15324   */\n          dup3\n            /* \"#utility.yul\":15305:15325   */\n          tag_294\n          jump\t// in\n        tag_511:\n            /* \"#utility.yul\":15300:15325   */\n          swap2\n          pop\n            /* \"#utility.yul\":15339:15359   */\n          tag_512\n            /* \"#utility.yul\":15357:15358   */\n          dup4\n            /* \"#utility.yul\":15339:15359   */\n          tag_294\n          jump\t// in\n        tag_512:\n            /* \"#utility.yul\":15334:15359   */\n          swap3\n          pop\n            /* \"#utility.yul\":15382:15383   */\n          dup3\n            /* \"#utility.yul\":15379:15380   */\n          dup3\n            /* \"#utility.yul\":15375:15384   */\n          add\n            /* \"#utility.yul\":15368:15384   */\n          swap1\n          pop\n            /* \"#utility.yul\":15403:15406   */\n          dup1\n            /* \"#utility.yul\":15400:15401   */\n          dup3\n            /* \"#utility.yul\":15397:15407   */\n          gt\n            /* \"#utility.yul\":15394:15430   */\n          iszero\n          tag_513\n          jumpi\n            /* \"#utility.yul\":15410:15428   */\n          tag_514\n          tag_327\n          jump\t// in\n        tag_514:\n            /* \"#utility.yul\":15394:15430   */\n        tag_513:\n            /* \"#utility.yul\":15246:15437   */\n          swap3\n          swap2\n          pop\n          pop\n          jump\t// out\n            /* \"#utility.yul\":15443:15617   */\n        tag_328:\n            /* \"#utility.yul\":15583:15609   */\n          0x4552433732313a20696e76616c696420746f6b656e2049440000000000000000\n            /* \"#utility.yul\":15579:15580   */\n          0x00\n            /* \"#utility.yul\":15571:15577   */\n          dup3\n            /* \"#utility.yul\":15567:15581   */\n          add\n            /* \"#utility.yul\":15560:15610   */\n          mstore\n            /* \"#utility.yul\":15443:15617   */\n          pop\n          jump\t// out\n            /* \"#utility.yul\":15623:15989   */\n        tag_329:\n            /* \"#utility.yul\":15765:15768   */\n          0x00\n            /* \"#utility.yul\":15786:15853   */\n          tag_517\n            /* \"#utility.yul\":15850:15852   */\n          0x18\n            /* \"#utility.yul\":15845:15848   */\n          dup4\n            /* \"#utility.yul\":15786:15853   */\n          tag_297\n          jump\t// in\n        tag_517:\n            /* \"#utility.yul\":15779:15853   */\n          swap2\n          pop\n            /* \"#utility.yul\":15862:15955   */\n          tag_518\n            /* \"#utility.yul\":15951:15954   */\n          dup3\n            /* \"#utility.yul\":15862:15955   */\n          tag_328\n          jump\t// in\n        tag_518:\n            /* \"#utility.yul\":15980:15982   */\n          0x20\n            /* \"#utility.yul\":15975:15978   */\n          dup3\n            /* \"#utility.yul\":15971:15983   */\n          add\n            /* \"#utility.yul\":15964:15983   */\n          swap1\n          pop\n            /* \"#utility.yul\":15623:15989   */\n          swap2\n          swap1\n          pop\n          jump\t// out\n            /* \"#utility.yul\":15995:16414   */\n        tag_144:\n            /* \"#utility.yul\":16161:16165   */\n          0x00\n            /* \"#utility.yul\":16199:16201   */\n          0x20\n            /* \"#utility.yul\":16188:16197   */\n          dup3\n            /* \"#utility.yul\":16184:16202   */\n          add\n            /* \"#utility.yul\":16176:16202   */\n          swap1\n          pop\n            /* \"#utility.yul\":16248:16257   */\n          dup2\n            /* \"#utility.yul\":16242:16246   */\n          dup2\n            /* \"#utility.yul\":16238:16258   */\n          sub\n            /* \"#utility.yul\":16234:16235   */\n          0x00\n            /* \"#utility.yul\":16223:16232   */\n          dup4\n            /* \"#utility.yul\":16219:16236   */\n          add\n            /* \"#utility.yul\":16212:16259   */\n          mstore\n            /* \"#utility.yul\":16276:16407   */\n          tag_520\n            /* \"#utility.yul\":16402:16406   */\n          dup2\n            /* \"#utility.yul\":16276:16407   */\n          tag_329\n          jump\t// in\n        tag_520:\n            /* \"#utility.yul\":16268:16407   */\n          swap1\n          pop\n            /* \"#utility.yul\":15995:16414   */\n          swap2\n          swap1\n          pop\n          jump\t// out\n            /* \"#utility.yul\":16420:16648   */\n        tag_330:\n            /* \"#utility.yul\":16560:16594   */\n          0x4552433732313a2061646472657373207a65726f206973206e6f742061207661\n            /* \"#utility.yul\":16556:16557   */\n          0x00\n            /* \"#utility.yul\":16548:16554   */\n          dup3\n            /* \"#utility.yul\":16544:16558   */\n          add\n            /* \"#utility.yul\":16537:16595   */\n          mstore\n            /* \"#utility.yul\":16629:16640   */\n          0x6c6964206f776e65720000000000000000000000000000000000000000000000\n            /* \"#utility.yul\":16624:16626   */\n          0x20\n            /* \"#utility.yul\":16616:16622   */\n          dup3\n            /* \"#utility.yul\":16612:16627   */\n          add\n            /* \"#utility.yul\":16605:16641   */\n          mstore\n            /* \"#utility.yul\":16420:16648   */\n          pop\n          jump\t// out\n            /* \"#utility.yul\":16654:17020   */\n        tag_331:\n            /* \"#utility.yul\":16796:16799   */\n          0x00\n            /* \"#utility.yul\":16817:16884   */\n          tag_523\n            /* \"#utility.yul\":16881:16883   */\n          0x29\n            /* \"#utility.yul\":16876:16879   */\n          dup4\n            /* \"#utility.yul\":16817:16884   */\n          tag_297\n          jump\t// in\n        tag_523:\n            /* \"#utility.yul\":16810:16884   */\n          swap2\n          pop\n            /* \"#utility.yul\":16893:16986   */\n          tag_524\n            /* \"#utility.yul\":16982:16985   */\n          dup3\n            /* \"#utility.yul\":16893:16986   */\n          tag_330\n          jump\t// in\n        tag_524:\n            /* \"#utility.yul\":17011:17013   */\n          0x40\n            /* \"#utility.yul\":17006:17009   */\n          dup3\n            /* \"#utility.yul\":17002:17014   */\n          add\n            /* \"#utility.yul\":16995:17014   */\n          swap1\n          pop\n            /* \"#utility.yul\":16654:17020   */\n          swap2\n          swap1\n          pop\n          jump\t// out\n            /* \"#utility.yul\":17026:17445   */\n        tag_148:\n            /* \"#utility.yul\":17192:17196   */\n          0x00\n            /* \"#utility.yul\":17230:17232   */\n          0x20\n            /* \"#utility.yul\":17219:17228   */\n          dup3\n            /* \"#utility.yul\":17215:17233   */\n          add\n            /* \"#utility.yul\":17207:17233   */\n          swap1\n          pop\n            /* \"#utility.yul\":17279:17288   */\n          dup2\n            /* \"#utility.yul\":17273:17277   */\n          dup2\n            /* \"#utility.yul\":17269:17289   */\n          sub\n            /* \"#utility.yul\":17265:17266   */\n          0x00\n            /* \"#utility.yul\":17254:17263   */\n          dup4\n            /* \"#utility.yul\":17250:17267   */\n          add\n            /* \"#utility.yul\":17243:17290   */\n          mstore\n            /* \"#utility.yul\":17307:17438   */\n          tag_526\n            /* \"#utility.yul\":17433:17437   */\n          dup2\n            /* \"#utility.yul\":17307:17438   */\n          tag_331\n          jump\t// in\n        tag_526:\n            /* \"#utility.yul\":17299:17438   */\n          swap1\n          pop\n            /* \"#utility.yul\":17026:17445   */\n          swap2\n          swap1\n          pop\n          jump\t// out\n            /* \"#utility.yul\":17451:17588   */\n        tag_332:\n            /* \"#utility.yul\":17505:17510   */\n          0x00\n            /* \"#utility.yul\":17536:17542   */\n          dup2\n            /* \"#utility.yul\":17530:17543   */\n          mload\n            /* \"#utility.yul\":17521:17543   */\n          swap1\n          pop\n            /* \"#utility.yul\":17552:17582   */\n          tag_528\n            /* \"#utility.yul\":17576:17581   */\n          dup2\n            /* \"#utility.yul\":17552:17582   */\n          tag_308\n          jump\t// in\n        tag_528:\n            /* \"#utility.yul\":17451:17588   */\n          swap3\n          swap2\n          pop\n          pop\n          jump\t// out\n            /* \"#utility.yul\":17594:17939   */\n        tag_154:\n            /* \"#utility.yul\":17661:17667   */\n          0x00\n            /* \"#utility.yul\":17710:17712   */\n          0x20\n            /* \"#utility.yul\":17698:17707   */\n          dup3\n            /* \"#utility.yul\":17689:17696   */\n          dup5\n            /* \"#utility.yul\":17685:17708   */\n          sub\n            /* \"#utility.yul\":17681:17713   */\n          slt\n            /* \"#utility.yul\":17678:17797   */\n          iszero\n          tag_530\n          jumpi\n            /* \"#utility.yul\":17716:17795   */\n          tag_531\n          tag_287\n          jump\t// in\n        tag_531:\n            /* \"#utility.yul\":17678:17797   */\n        tag_530:\n            /* \"#utility.yul\":17836:17837   */\n          0x00\n            /* \"#utility.yul\":17861:17922   */\n          tag_532\n            /* \"#utility.yul\":17914:17921   */\n          dup5\n            /* \"#utility.yul\":17905:17911   */\n          dup3\n            /* \"#utility.yul\":17894:17903   */\n          dup6\n            /* \"#utility.yul\":17890:17912   */\n          add\n            /* \"#utility.yul\":17861:17922   */\n          tag_332\n          jump\t// in\n        tag_532:\n            /* \"#utility.yul\":17851:17922   */\n          swap2\n          pop\n            /* \"#utility.yul\":17807:17932   */\n          pop\n            /* \"#utility.yul\":17594:17939   */\n          swap3\n          swap2\n          pop\n          pop\n          jump\t// out\n            /* \"#utility.yul\":17945:18120   */\n        tag_333:\n            /* \"#utility.yul\":18085:18112   */\n          0x4e6f7420612076616c696420626f617264206164647265737300000000000000\n            /* \"#utility.yul\":18081:18082   */\n          0x00\n            /* \"#utility.yul\":18073:18079   */\n          dup3\n            /* \"#utility.yul\":18069:18083   */\n          add\n            /* \"#utility.yul\":18062:18113   */\n          mstore\n            /* \"#utility.yul\":17945:18120   */\n          pop\n          jump\t// out\n            /* \"#utility.yul\":18126:18492   */\n        tag_334:\n            /* \"#utility.yul\":18268:18271   */\n          0x00\n            /* \"#utility.yul\":18289:18356   */\n          tag_535\n            /* \"#utility.yul\":18353:18355   */\n          0x19\n            /* \"#utility.yul\":18348:18351   */\n          dup4\n            /* \"#utility.yul\":18289:18356   */\n          tag_297\n          jump\t// in\n        tag_535:\n            /* \"#utility.yul\":18282:18356   */\n          swap2\n          pop\n            /* \"#utility.yul\":18365:18458   */\n          tag_536\n            /* \"#utility.yul\":18454:18457   */\n          dup3\n            /* \"#utility.yul\":18365:18458   */\n          tag_333\n          jump\t// in\n        tag_536:\n            /* \"#utility.yul\":18483:18485   */\n          0x20\n            /* \"#utility.yul\":18478:18481   */\n          dup3\n            /* \"#utility.yul\":18474:18486   */\n          add\n            /* \"#utility.yul\":18467:18486   */\n          swap1\n          pop\n            /* \"#utility.yul\":18126:18492   */\n          swap2\n          swap1\n          pop\n          jump\t// out\n            /* \"#utility.yul\":18498:18917   */\n        tag_157:\n            /* \"#utility.yul\":18664:18668   */\n          0x00\n            /* \"#utility.yul\":18702:18704   */\n          0x20\n            /* \"#utility.yul\":18691:18700   */\n          dup3\n            /* \"#utility.yul\":18687:18705   */\n          add\n            /* \"#utility.yul\":18679:18705   */\n          swap1\n          pop\n            /* \"#utility.yul\":18751:18760   */\n          dup2\n            /* \"#utility.yul\":18745:18749   */\n          dup2\n            /* \"#utility.yul\":18741:18761   */\n          sub\n            /* \"#utility.yul\":18737:18738   */\n          0x00\n            /* \"#utility.yul\":18726:18735   */\n          dup4\n            /* \"#utility.yul\":18722:18739   */\n          add\n            /* \"#utility.yul\":18715:18762   */\n          mstore\n            /* \"#utility.yul\":18779:18910   */\n          tag_538\n            /* \"#utility.yul\":18905:18909   */\n          dup2\n            /* \"#utility.yul\":18779:18910   */\n          tag_334\n          jump\t// in\n        tag_538:\n            /* \"#utility.yul\":18771:18910   */\n          swap1\n          pop\n            /* \"#utility.yul\":18498:18917   */\n          swap2\n          swap1\n          pop\n          jump\t// out\n            /* \"#utility.yul\":18923:19095   */\n        tag_335:\n            /* \"#utility.yul\":19063:19087   */\n          0x4d757374206265206120626f617264206d656d62657200000000000000000000\n            /* \"#utility.yul\":19059:19060   */\n          0x00\n            /* \"#utility.yul\":19051:19057   */\n          dup3\n            /* \"#utility.yul\":19047:19061   */\n          add\n            /* \"#utility.yul\":19040:19088   */\n          mstore\n            /* \"#utility.yul\":18923:19095   */\n          pop\n          jump\t// out\n            /* \"#utility.yul\":19101:19467   */\n        tag_336:\n            /* \"#utility.yul\":19243:19246   */\n          0x00\n            /* \"#utility.yul\":19264:19331   */\n          tag_541\n            /* \"#utility.yul\":19328:19330   */\n          0x16\n            /* \"#utility.yul\":19323:19326   */\n          dup4\n            /* \"#utility.yul\":19264:19331   */\n          tag_297\n          jump\t// in\n        tag_541:\n            /* \"#utility.yul\":19257:19331   */\n          swap2\n          pop\n            /* \"#utility.yul\":19340:19433   */\n          tag_542\n            /* \"#utility.yul\":19429:19432   */\n          dup3\n            /* \"#utility.yul\":19340:19433   */\n          tag_335\n          jump\t// in\n        tag_542:\n            /* \"#utility.yul\":19458:19460   */\n          0x20\n            /* \"#utility.yul\":19453:19456   */\n          dup3\n            /* \"#utility.yul\":19449:19461   */\n          add\n            /* \"#utility.yul\":19442:19461   */\n          swap1\n          pop\n            /* \"#utility.yul\":19101:19467   */\n          swap2\n          swap1\n          pop\n          jump\t// out\n            /* \"#utility.yul\":19473:19892   */\n        tag_164:\n            /* \"#utility.yul\":19639:19643   */\n          0x00\n            /* \"#utility.yul\":19677:19679   */\n          0x20\n            /* \"#utility.yul\":19666:19675   */\n          dup3\n            /* \"#utility.yul\":19662:19680   */\n          add\n            /* \"#utility.yul\":19654:19680   */\n          swap1\n          pop\n            /* \"#utility.yul\":19726:19735   */\n          dup2\n            /* \"#utility.yul\":19720:19724   */\n          dup2\n            /* \"#utility.yul\":19716:19736   */\n          sub\n            /* \"#utility.yul\":19712:19713   */\n          0x00\n            /* \"#utility.yul\":19701:19710   */\n          dup4\n            /* \"#utility.yul\":19697:19714   */\n          add\n            /* \"#utility.yul\":19690:19737   */\n          mstore\n            /* \"#utility.yul\":19754:19885   */\n          tag_544\n            /* \"#utility.yul\":19880:19884   */\n          dup2\n            /* \"#utility.yul\":19754:19885   */\n          tag_336\n          jump\t// in\n        tag_544:\n            /* \"#utility.yul\":19746:19885   */\n          swap1\n          pop\n            /* \"#utility.yul\":19473:19892   */\n          swap2\n          swap1\n          pop\n          jump\t// out\n            /* \"#utility.yul\":19898:20110   */\n        tag_337:\n            /* \"#utility.yul\":20067:20099   */\n          0x68747470733a2f2f7777772e6c61626f722e6c616e642f6d656d6265722f0000\n            /* \"#utility.yul\":20062:20065   */\n          dup2\n            /* \"#utility.yul\":20055:20100   */\n          mstore\n            /* \"#utility.yul\":19898:20110   */\n          pop\n          jump\t// out\n            /* \"#utility.yul\":20120:20276   */\n        tag_338:\n            /* \"#utility.yul\":20222:20233   */\n          0x00\n            /* \"#utility.yul\":20263:20266   */\n          dup2\n            /* \"#utility.yul\":20248:20266   */\n          swap1\n          pop\n            /* \"#utility.yul\":20120:20276   */\n          swap3\n          swap2\n          pop\n          pop\n          jump\t// out\n            /* \"#utility.yul\":20286:20696   */\n        tag_339:\n            /* \"#utility.yul\":20392:20395   */\n          0x00\n            /* \"#utility.yul\":20424:20463   */\n          tag_548\n            /* \"#utility.yul\":20457:20462   */\n          dup3\n            /* \"#utility.yul\":20424:20463   */\n          tag_296\n          jump\t// in\n        tag_548:\n            /* \"#utility.yul\":20483:20572   */\n          tag_549\n            /* \"#utility.yul\":20565:20571   */\n          dup2\n            /* \"#utility.yul\":20560:20563   */\n          dup6\n            /* \"#utility.yul\":20483:20572   */\n          tag_338\n          jump\t// in\n        tag_549:\n            /* \"#utility.yul\":20476:20572   */\n          swap4\n          pop\n            /* \"#utility.yul\":20585:20650   */\n          tag_550\n            /* \"#utility.yul\":20643:20649   */\n          dup2\n            /* \"#utility.yul\":20638:20641   */\n          dup6\n            /* \"#utility.yul\":20631:20635   */\n          0x20\n            /* \"#utility.yul\":20624:20629   */\n          dup7\n            /* \"#utility.yul\":20620:20636   */\n          add\n            /* \"#utility.yul\":20585:20650   */\n          tag_298\n          jump\t// in\n        tag_550:\n            /* \"#utility.yul\":20679:20685   */\n          dup1\n            /* \"#utility.yul\":20674:20677   */\n          dup5\n            /* \"#utility.yul\":20670:20686   */\n          add\n            /* \"#utility.yul\":20663:20686   */\n          swap2\n          pop\n            /* \"#utility.yul\":20396:20696   */\n          pop\n            /* \"#utility.yul\":20286:20696   */\n          swap3\n          swap2\n          pop\n          pop\n          jump\t// out\n            /* \"#utility.yul\":20706:21268   */\n        tag_186:\n            /* \"#utility.yul\":20929:20932   */\n          0x00\n            /* \"#utility.yul\":20948:21086   */\n          tag_552\n            /* \"#utility.yul\":21082:21085   */\n          dup3\n            /* \"#utility.yul\":20948:21086   */\n          tag_337\n          jump\t// in\n        tag_552:\n            /* \"#utility.yul\":21115:21117   */\n          0x1e\n            /* \"#utility.yul\":21110:21113   */\n          dup3\n            /* \"#utility.yul\":21106:21118   */\n          add\n            /* \"#utility.yul\":21099:21118   */\n          swap2\n          pop\n            /* \"#utility.yul\":21139:21234   */\n          tag_553\n            /* \"#utility.yul\":21230:21233   */\n          dup3\n            /* \"#utility.yul\":21221:21227   */\n          dup5\n            /* \"#utility.yul\":21139:21234   */\n          tag_339\n          jump\t// in\n        tag_553:\n            /* \"#utility.yul\":21132:21234   */\n          swap2\n          pop\n            /* \"#utility.yul\":21255:21258   */\n          dup2\n            /* \"#utility.yul\":21248:21258   */\n          swap1\n          pop\n            /* \"#utility.yul\":20706:21268   */\n          swap3\n          swap2\n          pop\n          pop\n          jump\t// out\n            /* \"#utility.yul\":21278:21514   */\n        tag_340:\n            /* \"#utility.yul\":21422:21456   */\n          0x4552433732313a207472616e736665722066726f6d20696e636f727265637420\n            /* \"#utility.yul\":21418:21419   */\n          0x00\n            /* \"#utility.yul\":21410:21416   */\n          dup3\n            /* \"#utility.yul\":21406:21420   */\n          add\n            /* \"#utility.yul\":21399:21457   */\n          mstore\n            /* \"#utility.yul\":21495:21502   */\n          0x6f776e6572000000000000000000000000000000000000000000000000000000\n            /* \"#utility.yul\":21490:21492   */\n          0x20\n            /* \"#utility.yul\":21482:21488   */\n          dup3\n            /* \"#utility.yul\":21478:21493   */\n          add\n            /* \"#utility.yul\":21471:21503   */\n          mstore\n            /* \"#utility.yul\":21278:21514   */\n          pop\n          jump\t// out\n            /* \"#utility.yul\":21524:21906   */\n        tag_341:\n            /* \"#utility.yul\":21666:21669   */\n          0x00\n            /* \"#utility.yul\":21691:21758   */\n          tag_556\n            /* \"#utility.yul\":21755:21757   */\n          0x25\n            /* \"#utility.yul\":21750:21753   */\n          dup4\n            /* \"#utility.yul\":21691:21758   */\n          tag_297\n          jump\t// in\n        tag_556:\n            /* \"#utility.yul\":21684:21758   */\n          swap2\n          pop\n            /* \"#utility.yul\":21771:21864   */\n          tag_557\n            /* \"#utility.yul\":21860:21863   */\n          dup3\n            /* \"#utility.yul\":21771:21864   */\n          tag_340\n          jump\t// in\n        tag_557:\n            /* \"#utility.yul\":21893:21895   */\n          0x40\n            /* \"#utility.yul\":21888:21891   */\n          dup3\n            /* \"#utility.yul\":21884:21896   */\n          add\n            /* \"#utility.yul\":21877:21896   */\n          swap1\n          pop\n            /* \"#utility.yul\":21524:21906   */\n          swap2\n          swap1\n          pop\n          jump\t// out\n            /* \"#utility.yul\":21916:22351   */\n        tag_207:\n            /* \"#utility.yul\":22082:22086   */\n          0x00\n            /* \"#utility.yul\":22124:22126   */\n          0x20\n            /* \"#utility.yul\":22113:22122   */\n          dup3\n            /* \"#utility.yul\":22109:22127   */\n          add\n            /* \"#utility.yul\":22101:22127   */\n          swap1\n          pop\n            /* \"#utility.yul\":22177:22186   */\n          dup2\n            /* \"#utility.yul\":22171:22175   */\n          dup2\n            /* \"#utility.yul\":22167:22187   */\n          sub\n            /* \"#utility.yul\":22163:22164   */\n          0x00\n            /* \"#utility.yul\":22152:22161   */\n          dup4\n            /* \"#utility.yul\":22148:22165   */\n          add\n            /* \"#utility.yul\":22141:22188   */\n          mstore\n            /* \"#utility.yul\":22209:22340   */\n          tag_559\n            /* \"#utility.yul\":22335:22339   */\n          dup2\n            /* \"#utility.yul\":22209:22340   */\n          tag_341\n          jump\t// in\n        tag_559:\n            /* \"#utility.yul\":22201:22340   */\n          swap1\n          pop\n            /* \"#utility.yul\":21916:22351   */\n          swap2\n          swap1\n          pop\n          jump\t// out\n            /* \"#utility.yul\":22361:22596   */\n        tag_342:\n            /* \"#utility.yul\":22505:22539   */\n          0x4552433732313a207472616e7366657220746f20746865207a65726f20616464\n            /* \"#utility.yul\":22501:22502   */\n          0x00\n            /* \"#utility.yul\":22493:22499   */\n          dup3\n            /* \"#utility.yul\":22489:22503   */\n          add\n            /* \"#utility.yul\":22482:22540   */\n          mstore\n            /* \"#utility.yul\":22578:22584   */\n          0x7265737300000000000000000000000000000000000000000000000000000000\n            /* \"#utility.yul\":22573:22575   */\n          0x20\n            /* \"#utility.yul\":22565:22571   */\n          dup3\n            /* \"#utility.yul\":22561:22576   */\n          add\n            /* \"#utility.yul\":22554:22585   */\n          mstore\n            /* \"#utility.yul\":22361:22596   */\n          pop\n          jump\t// out\n            /* \"#utility.yul\":22606:22988   */\n        tag_343:\n            /* \"#utility.yul\":22748:22751   */\n          0x00\n            /* \"#utility.yul\":22773:22840   */\n          tag_562\n            /* \"#utility.yul\":22837:22839   */\n          0x24\n            /* \"#utility.yul\":22832:22835   */\n          dup4\n            /* \"#utility.yul\":22773:22840   */\n          tag_297\n          jump\t// in\n        tag_562:\n            /* \"#utility.yul\":22766:22840   */\n          swap2\n          pop\n            /* \"#utility.yul\":22853:22946   */\n          tag_563\n            /* \"#utility.yul\":22942:22945   */\n          dup3\n            /* \"#utility.yul\":22853:22946   */\n          tag_342\n          jump\t// in\n        tag_563:\n            /* \"#utility.yul\":22975:22977   */\n          0x40\n            /* \"#utility.yul\":22970:22973   */\n          dup3\n            /* \"#utility.yul\":22966:22978   */\n          add\n            /* \"#utility.yul\":22959:22978   */\n          swap1\n          pop\n            /* \"#utility.yul\":22606:22988   */\n          swap2\n          swap1\n          pop\n          jump\t// out\n            /* \"#utility.yul\":22998:23433   */\n        tag_210:\n            /* \"#utility.yul\":23164:23168   */\n          0x00\n            /* \"#utility.yul\":23206:23208   */\n          0x20\n            /* \"#utility.yul\":23195:23204   */\n          dup3\n            /* \"#utility.yul\":23191:23209   */\n          add\n            /* \"#utility.yul\":23183:23209   */\n          swap1\n          pop\n            /* \"#utility.yul\":23259:23268   */\n          dup2\n            /* \"#utility.yul\":23253:23257   */\n          dup2\n            /* \"#utility.yul\":23249:23269   */\n          sub\n            /* \"#utility.yul\":23245:23246   */\n          0x00\n            /* \"#utility.yul\":23234:23243   */\n          dup4\n            /* \"#utility.yul\":23230:23247   */\n          add\n            /* \"#utility.yul\":23223:23270   */\n          mstore\n            /* \"#utility.yul\":23291:23422   */\n          tag_565\n            /* \"#utility.yul\":23417:23421   */\n          dup2\n            /* \"#utility.yul\":23291:23422   */\n          tag_343\n          jump\t// in\n        tag_565:\n            /* \"#utility.yul\":23283:23422   */\n          swap1\n          pop\n            /* \"#utility.yul\":22998:23433   */\n          swap2\n          swap1\n          pop\n          jump\t// out\n            /* \"#utility.yul\":23443:23657   */\n        tag_213:\n            /* \"#utility.yul\":23483:23487   */\n          0x00\n            /* \"#utility.yul\":23507:23527   */\n          tag_567\n            /* \"#utility.yul\":23525:23526   */\n          dup3\n            /* \"#utility.yul\":23507:23527   */\n          tag_294\n          jump\t// in\n        tag_567:\n            /* \"#utility.yul\":23502:23527   */\n          swap2\n          pop\n            /* \"#utility.yul\":23545:23565   */\n          tag_568\n            /* \"#utility.yul\":23563:23564   */\n          dup4\n            /* \"#utility.yul\":23545:23565   */\n          tag_294\n          jump\t// in\n        tag_568:\n            /* \"#utility.yul\":23540:23565   */\n          swap3\n          pop\n            /* \"#utility.yul\":23593:23594   */\n          dup3\n            /* \"#utility.yul\":23590:23591   */\n          dup3\n            /* \"#utility.yul\":23586:23595   */\n          sub\n            /* \"#utility.yul\":23578:23595   */\n          swap1\n          pop\n            /* \"#utility.yul\":23621:23622   */\n          dup2\n            /* \"#utility.yul\":23615:23619   */\n          dup2\n            /* \"#utility.yul\":23612:23623   */\n          gt\n            /* \"#utility.yul\":23609:23646   */\n          iszero\n          tag_569\n          jumpi\n            /* \"#utility.yul\":23626:23644   */\n          tag_570\n          tag_327\n          jump\t// in\n        tag_570:\n            /* \"#utility.yul\":23609:23646   */\n        tag_569:\n            /* \"#utility.yul\":23443:23657   */\n          swap3\n          swap2\n          pop\n          pop\n          jump\t// out\n            /* \"#utility.yul\":23667:23850   */\n        tag_344:\n            /* \"#utility.yul\":23811:23838   */\n          0x4552433732313a20617070726f766520746f2063616c6c657200000000000000\n            /* \"#utility.yul\":23807:23808   */\n          0x00\n            /* \"#utility.yul\":23799:23805   */\n          dup3\n            /* \"#utility.yul\":23795:23809   */\n          add\n            /* \"#utility.yul\":23788:23839   */\n          mstore\n            /* \"#utility.yul\":23667:23850   */\n          pop\n          jump\t// out\n            /* \"#utility.yul\":23860:24242   */\n        tag_345:\n            /* \"#utility.yul\":24002:24005   */\n          0x00\n            /* \"#utility.yul\":24027:24094   */\n          tag_573\n            /* \"#utility.yul\":24091:24093   */\n          0x19\n            /* \"#utility.yul\":24086:24089   */\n          dup4\n            /* \"#utility.yul\":24027:24094   */\n          tag_297\n          jump\t// in\n        tag_573:\n            /* \"#utility.yul\":24020:24094   */\n          swap2\n          pop\n            /* \"#utility.yul\":24107:24200   */\n          tag_574\n            /* \"#utility.yul\":24196:24199   */\n          dup3\n            /* \"#utility.yul\":24107:24200   */\n          tag_344\n          jump\t// in\n        tag_574:\n            /* \"#utility.yul\":24229:24231   */\n          0x20\n            /* \"#utility.yul\":24224:24227   */\n          dup3\n            /* \"#utility.yul\":24220:24232   */\n          add\n            /* \"#utility.yul\":24213:24232   */\n          swap1\n          pop\n            /* \"#utility.yul\":23860:24242   */\n          swap2\n          swap1\n          pop\n          jump\t// out\n            /* \"#utility.yul\":24252:24687   */\n        tag_221:\n            /* \"#utility.yul\":24418:24422   */\n          0x00\n            /* \"#utility.yul\":24460:24462   */\n          0x20\n            /* \"#utility.yul\":24449:24458   */\n          dup3\n            /* \"#utility.yul\":24445:24463   */\n          add\n            /* \"#utility.yul\":24437:24463   */\n          swap1\n          pop\n            /* \"#utility.yul\":24513:24522   */\n          dup2\n            /* \"#utility.yul\":24507:24511   */\n          dup2\n            /* \"#utility.yul\":24503:24523   */\n          sub\n            /* \"#utility.yul\":24499:24500   */\n          0x00\n            /* \"#utility.yul\":24488:24497   */\n          dup4\n            /* \"#utility.yul\":24484:24501   */\n          add\n            /* \"#utility.yul\":24477:24524   */\n          mstore\n            /* \"#utility.yul\":24545:24676   */\n          tag_576\n            /* \"#utility.yul\":24671:24675   */\n          dup2\n            /* \"#utility.yul\":24545:24676   */\n          tag_345\n          jump\t// in\n        tag_576:\n            /* \"#utility.yul\":24537:24676   */\n          swap1\n          pop\n            /* \"#utility.yul\":24252:24687   */\n          swap2\n          swap1\n          pop\n          jump\t// out\n            /* \"#utility.yul\":24697:24946   */\n        tag_346:\n            /* \"#utility.yul\":24841:24875   */\n          0x4552433732313a207472616e7366657220746f206e6f6e204552433732315265\n            /* \"#utility.yul\":24837:24838   */\n          0x00\n            /* \"#utility.yul\":24829:24835   */\n          dup3\n            /* \"#utility.yul\":24825:24839   */\n          add\n            /* \"#utility.yul\":24818:24876   */\n          mstore\n            /* \"#utility.yul\":24914:24934   */\n          0x63656976657220696d706c656d656e7465720000000000000000000000000000\n            /* \"#utility.yul\":24909:24911   */\n          0x20\n            /* \"#utility.yul\":24901:24907   */\n          dup3\n            /* \"#utility.yul\":24897:24912   */\n          add\n            /* \"#utility.yul\":24890:24935   */\n          mstore\n            /* \"#utility.yul\":24697:24946   */\n          pop\n          jump\t// out\n            /* \"#utility.yul\":24956:25338   */\n        tag_347:\n            /* \"#utility.yul\":25098:25101   */\n          0x00\n            /* \"#utility.yul\":25123:25190   */\n          tag_579\n            /* \"#utility.yul\":25187:25189   */\n          0x32\n            /* \"#utility.yul\":25182:25185   */\n          dup4\n            /* \"#utility.yul\":25123:25190   */\n          tag_297\n          jump\t// in\n        tag_579:\n            /* \"#utility.yul\":25116:25190   */\n          swap2\n          pop\n            /* \"#utility.yul\":25203:25296   */\n          tag_580\n            /* \"#utility.yul\":25292:25295   */\n          dup3\n            /* \"#utility.yul\":25203:25296   */\n          tag_346\n          jump\t// in\n        tag_580:\n            /* \"#utility.yul\":25325:25327   */\n          0x40\n            /* \"#utility.yul\":25320:25323   */\n          dup3\n            /* \"#utility.yul\":25316:25328   */\n          add\n            /* \"#utility.yul\":25309:25328   */\n          swap1\n          pop\n            /* \"#utility.yul\":24956:25338   */\n          swap2\n          swap1\n          pop\n          jump\t// out\n            /* \"#utility.yul\":25348:25783   */\n        tag_229:\n            /* \"#utility.yul\":25514:25518   */\n          0x00\n            /* \"#utility.yul\":25556:25558   */\n          0x20\n            /* \"#utility.yul\":25545:25554   */\n          dup3\n            /* \"#utility.yul\":25541:25559   */\n          add\n            /* \"#utility.yul\":25533:25559   */\n          swap1\n          pop\n            /* \"#utility.yul\":25609:25618   */\n          dup2\n            /* \"#utility.yul\":25603:25607   */\n          dup2\n            /* \"#utility.yul\":25599:25619   */\n          sub\n            /* \"#utility.yul\":25595:25596   */\n          0x00\n            /* \"#utility.yul\":25584:25593   */\n          dup4\n            /* \"#utility.yul\":25580:25597   */\n          add\n            /* \"#utility.yul\":25573:25620   */\n          mstore\n            /* \"#utility.yul\":25641:25772   */\n          tag_582\n            /* \"#utility.yul\":25767:25771   */\n          dup2\n            /* \"#utility.yul\":25641:25772   */\n          tag_347\n          jump\t// in\n        tag_582:\n            /* \"#utility.yul\":25633:25772   */\n          swap1\n          pop\n            /* \"#utility.yul\":25348:25783   */\n          swap2\n          swap1\n          pop\n          jump\t// out\n            /* \"#utility.yul\":25793:26042   */\n        tag_235:\n            /* \"#utility.yul\":25832:25835   */\n          0x00\n            /* \"#utility.yul\":25859:25883   */\n          tag_584\n            /* \"#utility.yul\":25877:25882   */\n          dup3\n            /* \"#utility.yul\":25859:25883   */\n          tag_294\n          jump\t// in\n        tag_584:\n            /* \"#utility.yul\":25850:25883   */\n          swap2\n          pop\n            /* \"#utility.yul\":25909:25975   */\n          0xffffffffffffffffffffffffffffffffffffffffffffffffffffffffffffffff\n            /* \"#utility.yul\":25902:25907   */\n          dup3\n            /* \"#utility.yul\":25899:25976   */\n          sub\n            /* \"#utility.yul\":25896:25999   */\n          tag_585\n          jumpi\n            /* \"#utility.yul\":25979:25997   */\n          tag_586\n          tag_327\n          jump\t// in\n        tag_586:\n            /* \"#utility.yul\":25896:25999   */\n        tag_585:\n            /* \"#utility.yul\":26030:26031   */\n          0x01\n            /* \"#utility.yul\":26023:26028   */\n          dup3\n            /* \"#utility.yul\":26019:26032   */\n          add\n            /* \"#utility.yul\":26012:26032   */\n          swap1\n          pop\n            /* \"#utility.yul\":25793:26042   */\n          swap2\n          swap1\n          pop\n          jump\t// out\n            /* \"#utility.yul\":26052:26248   */\n        tag_348:\n            /* \"#utility.yul\":26104:26181   */\n          0x4e487b7100000000000000000000000000000000000000000000000000000000\n            /* \"#utility.yul\":26101:26102   */\n          0x00\n            /* \"#utility.yul\":26094:26182   */\n          mstore\n            /* \"#utility.yul\":26205:26209   */\n          0x12\n            /* \"#utility.yul\":26202:26203   */\n          0x04\n            /* \"#utility.yul\":26195:26210   */\n          mstore\n            /* \"#utility.yul\":26233:26237   */\n          0x24\n            /* \"#utility.yul\":26230:26231   */\n          0x00\n            /* \"#utility.yul\":26223:26238   */\n          revert\n            /* \"#utility.yul\":26258:26463   */\n        tag_237:\n            /* \"#utility.yul\":26298:26299   */\n          0x00\n            /* \"#utility.yul\":26319:26339   */\n          tag_589\n            /* \"#utility.yul\":26337:26338   */\n          dup3\n            /* \"#utility.yul\":26319:26339   */\n          tag_294\n          jump\t// in\n        tag_589:\n            /* \"#utility.yul\":26314:26339   */\n          swap2\n          pop\n            /* \"#utility.yul\":26357:26377   */\n          tag_590\n            /* \"#utility.yul\":26375:26376   */\n          dup4\n            /* \"#utility.yul\":26357:26377   */\n          tag_294\n          jump\t// in\n        tag_590:\n            /* \"#utility.yul\":26352:26377   */\n          swap3\n          pop\n            /* \"#utility.yul\":26400:26401   */\n          dup3\n            /* \"#utility.yul\":26390:26425   */\n          tag_591\n          jumpi\n            /* \"#utility.yul\":26405:26423   */\n          tag_592\n          tag_348\n          jump\t// in\n        tag_592:\n            /* \"#utility.yul\":26390:26425   */\n        tag_591:\n            /* \"#utility.yul\":26451:26452   */\n          dup3\n            /* \"#utility.yul\":26448:26449   */\n          dup3\n            /* \"#utility.yul\":26444:26453   */\n          div\n            /* \"#utility.yul\":26439:26453   */\n          swap1\n          pop\n            /* \"#utility.yul\":26258:26463   */\n          swap3\n          swap2\n          pop\n          pop\n          jump\t// out\n            /* \"#utility.yul\":26473:26669   */\n        tag_246:\n            /* \"#utility.yul\":26505:26506   */\n          0x00\n            /* \"#utility.yul\":26526:26546   */\n          tag_594\n            /* \"#utility.yul\":26544:26545   */\n          dup3\n            /* \"#utility.yul\":26526:26546   */\n          tag_294\n          jump\t// in\n        tag_594:\n            /* \"#utility.yul\":26521:26546   */\n          swap2\n          pop\n            /* \"#utility.yul\":26564:26584   */\n          tag_595\n            /* \"#utility.yul\":26582:26583   */\n          dup4\n            /* \"#utility.yul\":26564:26584   */\n          tag_294\n          jump\t// in\n        tag_595:\n            /* \"#utility.yul\":26559:26584   */\n          swap3\n          pop\n            /* \"#utility.yul\":26607:26608   */\n          dup3\n            /* \"#utility.yul\":26597:26632   */\n          tag_596\n          jumpi\n            /* \"#utility.yul\":26612:26630   */\n          tag_597\n          tag_348\n          jump\t// in\n        tag_597:\n            /* \"#utility.yul\":26597:26632   */\n        tag_596:\n            /* \"#utility.yul\":26657:26658   */\n          dup3\n            /* \"#utility.yul\":26654:26655   */\n          dup3\n            /* \"#utility.yul\":26650:26659   */\n          mod\n            /* \"#utility.yul\":26645:26659   */\n          swap1\n          pop\n            /* \"#utility.yul\":26473:26669   */\n          swap3\n          swap2\n          pop\n          pop\n          jump\t// out\n            /* \"#utility.yul\":26679:26875   */\n        tag_250:\n            /* \"#utility.yul\":26731:26808   */\n          0x4e487b7100000000000000000000000000000000000000000000000000000000\n            /* \"#utility.yul\":26728:26729   */\n          0x00\n            /* \"#utility.yul\":26721:26809   */\n          mstore\n            /* \"#utility.yul\":26832:26836   */\n          0x32\n            /* \"#utility.yul\":26829:26830   */\n          0x04\n            /* \"#utility.yul\":26822:26837   */\n          mstore\n            /* \"#utility.yul\":26860:26864   */\n          0x24\n            /* \"#utility.yul\":26857:26858   */\n          0x00\n            /* \"#utility.yul\":26850:26865   */\n          revert\n            /* \"#utility.yul\":26885:26991   */\n        tag_349:\n            /* \"#utility.yul\":26936:26942   */\n          0x00\n            /* \"#utility.yul\":26974:26979   */\n          dup2\n            /* \"#utility.yul\":26968:26980   */\n          mload\n            /* \"#utility.yul\":26958:26980   */\n          swap1\n          pop\n            /* \"#utility.yul\":26885:26991   */\n          swap2\n          swap1\n          pop\n          jump\t// out\n            /* \"#utility.yul\":27001:27181   */\n        tag_350:\n            /* \"#utility.yul\":27084:27095   */\n          0x00\n            /* \"#utility.yul\":27122:27128   */\n          dup3\n            /* \"#utility.yul\":27117:27120   */\n          dup3\n            /* \"#utility.yul\":27110:27129   */\n          mstore\n            /* \"#utility.yul\":27166:27170   */\n          0x20\n            /* \"#utility.yul\":27161:27164   */\n          dup3\n            /* \"#utility.yul\":27157:27171   */\n          add\n            /* \"#utility.yul\":27142:27171   */\n          swap1\n          pop\n            /* \"#utility.yul\":27001:27181   */\n          swap3\n          swap2\n          pop\n          pop\n          jump\t// out\n            /* \"#utility.yul\":27191:27584   */\n        tag_351:\n            /* \"#utility.yul\":27277:27280   */\n          0x00\n            /* \"#utility.yul\":27309:27347   */\n          tag_602\n            /* \"#utility.yul\":27341:27346   */\n          dup3\n            /* \"#utility.yul\":27309:27347   */\n          tag_349\n          jump\t// in\n        tag_602:\n            /* \"#utility.yul\":27367:27437   */\n          tag_603\n            /* \"#utility.yul\":27430:27436   */\n          dup2\n            /* \"#utility.yul\":27425:27428   */\n          dup6\n            /* \"#utility.yul\":27367:27437   */\n          tag_350\n          jump\t// in\n        tag_603:\n            /* \"#utility.yul\":27360:27437   */\n          swap4\n          pop\n            /* \"#utility.yul\":27450:27515   */\n          tag_604\n            /* \"#utility.yul\":27508:27514   */\n          dup2\n            /* \"#utility.yul\":27503:27506   */\n          dup6\n            /* \"#utility.yul\":27496:27500   */\n          0x20\n            /* \"#utility.yul\":27489:27494   */\n          dup7\n            /* \"#utility.yul\":27485:27501   */\n          add\n            /* \"#utility.yul\":27450:27515   */\n          tag_298\n          jump\t// in\n        tag_604:\n            /* \"#utility.yul\":27544:27573   */\n          tag_605\n            /* \"#utility.yul\":27566:27572   */\n          dup2\n            /* \"#utility.yul\":27544:27573   */\n          tag_299\n          jump\t// in\n        tag_605:\n            /* \"#utility.yul\":27539:27542   */\n          dup5\n            /* \"#utility.yul\":27535:27574   */\n          add\n            /* \"#utility.yul\":27528:27574   */\n          swap2\n          pop\n            /* \"#utility.yul\":27281:27584   */\n          pop\n            /* \"#utility.yul\":27191:27584   */\n          swap3\n          swap2\n          pop\n          pop\n          jump\t// out\n            /* \"#utility.yul\":27594:28262   */\n        tag_262:\n            /* \"#utility.yul\":27789:27793   */\n          0x00\n            /* \"#utility.yul\":27831:27834   */\n          0x80\n            /* \"#utility.yul\":27820:27829   */\n          dup3\n            /* \"#utility.yul\":27816:27835   */\n          add\n            /* \"#utility.yul\":27808:27835   */\n          swap1\n          pop\n            /* \"#utility.yul\":27849:27920   */\n          tag_607\n            /* \"#utility.yul\":27917:27918   */\n          0x00\n            /* \"#utility.yul\":27906:27915   */\n          dup4\n            /* \"#utility.yul\":27902:27919   */\n          add\n            /* \"#utility.yul\":27893:27899   */\n          dup8\n            /* \"#utility.yul\":27849:27920   */\n          tag_305\n          jump\t// in\n        tag_607:\n            /* \"#utility.yul\":27934:28006   */\n          tag_608\n            /* \"#utility.yul\":28002:28004   */\n          0x20\n            /* \"#utility.yul\":27991:28000   */\n          dup4\n            /* \"#utility.yul\":27987:28005   */\n          add\n            /* \"#utility.yul\":27978:27984   */\n          dup7\n            /* \"#utility.yul\":27934:28006   */\n          tag_305\n          jump\t// in\n        tag_608:\n            /* \"#utility.yul\":28020:28092   */\n          tag_609\n            /* \"#utility.yul\":28088:28090   */\n          0x40\n            /* \"#utility.yul\":28077:28086   */\n          dup4\n            /* \"#utility.yul\":28073:28091   */\n          add\n            /* \"#utility.yul\":28064:28070   */\n          dup6\n            /* \"#utility.yul\":28020:28092   */\n          tag_295\n          jump\t// in\n        tag_609:\n            /* \"#utility.yul\":28143:28152   */\n          dup2\n            /* \"#utility.yul\":28137:28141   */\n          dup2\n            /* \"#utility.yul\":28133:28153   */\n          sub\n            /* \"#utility.yul\":28128:28130   */\n          0x60\n            /* \"#utility.yul\":28117:28126   */\n          dup4\n            /* \"#utility.yul\":28113:28131   */\n          add\n            /* \"#utility.yul\":28106:28154   */\n          mstore\n            /* \"#utility.yul\":28175:28251   */\n          tag_610\n            /* \"#utility.yul\":28246:28250   */\n          dup2\n            /* \"#utility.yul\":28237:28243   */\n          dup5\n            /* \"#utility.yul\":28175:28251   */\n          tag_351\n          jump\t// in\n        tag_610:\n            /* \"#utility.yul\":28167:28251   */\n          swap1\n          pop\n            /* \"#utility.yul\":27594:28262   */\n          swap6\n          swap5\n          pop\n          pop\n          pop\n          pop\n          pop\n          jump\t// out\n            /* \"#utility.yul\":28272:28425   */\n        tag_352:\n            /* \"#utility.yul\":28328:28333   */\n          0x00\n            /* \"#utility.yul\":28363:28369   */\n          dup2\n            /* \"#utility.yul\":28357:28370   */\n          mload\n            /* \"#utility.yul\":28348:28370   */\n          swap1\n          pop\n            /* \"#utility.yul\":28383:28415   */\n          tag_612\n            /* \"#utility.yul\":28409:28414   */\n          dup2\n            /* \"#utility.yul\":28383:28415   */\n          tag_290\n          jump\t// in\n        tag_612:\n            /* \"#utility.yul\":28272:28425   */\n          swap3\n          swap2\n          pop\n          pop\n          jump\t// out\n            /* \"#utility.yul\":28435:28808   */\n        tag_265:\n            /* \"#utility.yul\":28504:28510   */\n          0x00\n            /* \"#utility.yul\":28557:28559   */\n          0x20\n            /* \"#utility.yul\":28545:28554   */\n          dup3\n            /* \"#utility.yul\":28536:28543   */\n          dup5\n            /* \"#utility.yul\":28532:28555   */\n          sub\n            /* \"#utility.yul\":28528:28560   */\n          slt\n            /* \"#utility.yul\":28525:28644   */\n          iszero\n          tag_614\n          jumpi\n            /* \"#utility.yul\":28563:28642   */\n          tag_615\n          tag_287\n          jump\t// in\n        tag_615:\n            /* \"#utility.yul\":28525:28644   */\n        tag_614:\n            /* \"#utility.yul\":28691:28692   */\n          0x00\n            /* \"#utility.yul\":28720:28783   */\n          tag_616\n            /* \"#utility.yul\":28775:28782   */\n          dup5\n            /* \"#utility.yul\":28766:28772   */\n          dup3\n            /* \"#utility.yul\":28755:28764   */\n          dup6\n            /* \"#utility.yul\":28751:28773   */\n          add\n            /* \"#utility.yul\":28720:28783   */\n          tag_352\n          jump\t// in\n        tag_616:\n            /* \"#utility.yul\":28710:28783   */\n          swap2\n          pop\n            /* \"#utility.yul\":28658:28797   */\n          pop\n            /* \"#utility.yul\":28435:28808   */\n          swap3\n          swap2\n          pop\n          pop\n          jump\t// out\n            /* \"#utility.yul\":28818:29008   */\n        tag_353:\n            /* \"#utility.yul\":28962:28996   */\n          0x4552433732313a206d696e7420746f20746865207a65726f2061646472657373\n            /* \"#utility.yul\":28958:28959   */\n          0x00\n            /* \"#utility.yul\":28950:28956   */\n          dup3\n            /* \"#utility.yul\":28946:28960   */\n          add\n            /* \"#utility.yul\":28939:28997   */\n          mstore\n            /* \"#utility.yul\":28818:29008   */\n          pop\n          jump\t// out\n            /* \"#utility.yul\":29018:29400   */\n        tag_354:\n            /* \"#utility.yul\":29160:29163   */\n          0x00\n            /* \"#utility.yul\":29185:29252   */\n          tag_619\n            /* \"#utility.yul\":29249:29251   */\n          0x20\n            /* \"#utility.yul\":29244:29247   */\n          dup4\n            /* \"#utility.yul\":29185:29252   */\n          tag_297\n          jump\t// in\n        tag_619:\n            /* \"#utility.yul\":29178:29252   */\n          swap2\n          pop\n            /* \"#utility.yul\":29265:29358   */\n          tag_620\n            /* \"#utility.yul\":29354:29357   */\n          dup3\n            /* \"#utility.yul\":29265:29358   */\n          tag_353\n          jump\t// in\n        tag_620:\n            /* \"#utility.yul\":29387:29389   */\n          0x20\n            /* \"#utility.yul\":29382:29385   */\n          dup3\n            /* \"#utility.yul\":29378:29390   */\n          add\n            /* \"#utility.yul\":29371:29390   */\n          swap1\n          pop\n            /* \"#utility.yul\":29018:29400   */\n          swap2\n          swap1\n          pop\n          jump\t// out\n            /* \"#utility.yul\":29410:29845   */\n        tag_280:\n            /* \"#utility.yul\":29576:29580   */\n          0x00\n            /* \"#utility.yul\":29618:29620   */\n          0x20\n            /* \"#utility.yul\":29607:29616   */\n          dup3\n            /* \"#utility.yul\":29603:29621   */\n          add\n            /* \"#utility.yul\":29595:29621   */\n          swap1\n          pop\n            /* \"#utility.yul\":29671:29680   */\n          dup2\n            /* \"#utility.yul\":29665:29669   */\n          dup2\n            /* \"#utility.yul\":29661:29681   */\n          sub\n            /* \"#utility.yul\":29657:29658   */\n          0x00\n            /* \"#utility.yul\":29646:29655   */\n          dup4\n            /* \"#utility.yul\":29642:29659   */\n          add\n            /* \"#utility.yul\":29635:29682   */\n          mstore\n            /* \"#utility.yul\":29703:29834   */\n          tag_622\n            /* \"#utility.yul\":29829:29833   */\n          dup2\n            /* \"#utility.yul\":29703:29834   */\n          tag_354\n          jump\t// in\n        tag_622:\n            /* \"#utility.yul\":29695:29834   */\n          swap1\n          pop\n            /* \"#utility.yul\":29410:29845   */\n          swap2\n          swap1\n          pop\n          jump\t// out\n            /* \"#utility.yul\":29855:30041   */\n        tag_355:\n            /* \"#utility.yul\":29999:30029   */\n          0x4552433732313a20746f6b656e20616c7265616479206d696e74656400000000\n            /* \"#utility.yul\":29995:29996   */\n          0x00\n            /* \"#utility.yul\":29987:29993   */\n          dup3\n            /* \"#utility.yul\":29983:29997   */\n          add\n            /* \"#utility.yul\":29976:30030   */\n          mstore\n            /* \"#utility.yul\":29855:30041   */\n          pop\n          jump\t// out\n            /* \"#utility.yul\":30051:30433   */\n        tag_356:\n            /* \"#utility.yul\":30193:30196   */\n          0x00\n            /* \"#utility.yul\":30218:30285   */\n          tag_625\n            /* \"#utility.yul\":30282:30284   */\n          0x1c\n            /* \"#utility.yul\":30277:30280   */\n          dup4\n            /* \"#utility.yul\":30218:30285   */\n          tag_297\n          jump\t// in\n        tag_625:\n            /* \"#utility.yul\":30211:30285   */\n          swap2\n          pop\n            /* \"#utility.yul\":30298:30391   */\n          tag_626\n            /* \"#utility.yul\":30387:30390   */\n          dup3\n            /* \"#utility.yul\":30298:30391   */\n          tag_355\n          jump\t// in\n        tag_626:\n            /* \"#utility.yul\":30420:30422   */\n          0x20\n            /* \"#utility.yul\":30415:30418   */\n          dup3\n            /* \"#utility.yul\":30411:30423   */\n          add\n            /* \"#utility.yul\":30404:30423   */\n          swap1\n          pop\n            /* \"#utility.yul\":30051:30433   */\n          swap2\n          swap1\n          pop\n          jump\t// out\n            /* \"#utility.yul\":30443:30878   */\n        tag_284:\n            /* \"#utility.yul\":30609:30613   */\n          0x00\n            /* \"#utility.yul\":30651:30653   */\n          0x20\n            /* \"#utility.yul\":30640:30649   */\n          dup3\n            /* \"#utility.yul\":30636:30654   */\n          add\n            /* \"#utility.yul\":30628:30654   */\n          swap1\n          pop\n            /* \"#utility.yul\":30704:30713   */\n          dup2\n            /* \"#utility.yul\":30698:30702   */\n          dup2\n            /* \"#utility.yul\":30694:30714   */\n          sub\n            /* \"#utility.yul\":30690:30691   */\n          0x00\n            /* \"#utility.yul\":30679:30688   */\n          dup4\n            /* \"#utility.yul\":30675:30692   */\n          add\n            /* \"#utility.yul\":30668:30715   */\n          mstore\n            /* \"#utility.yul\":30736:30867   */\n          tag_628\n            /* \"#utility.yul\":30862:30866   */\n          dup2\n            /* \"#utility.yul\":30736:30867   */\n          tag_356\n          jump\t// in\n        tag_628:\n            /* \"#utility.yul\":30728:30867   */\n          swap1\n          pop\n            /* \"#utility.yul\":30443:30878   */\n          swap2\n          swap1\n          pop\n          jump\t// out\n\n        auxdata: 0xa2646970667358221220191cd2290478ea6ae39a37ad3aefdcf5e1d41637baf38022554914a74912e0aa64736f6c63430008110033\n    }\n}\n","bytecode":{"linkReferences":{},"object":"608060405234801561001057600080fd5b5060405161001d9061007f565b604051809103906000f080158015610039573d6000803e3d6000fd5b50600260006101000a81548173ffffffffffffffffffffffffffffffffffffffff021916908373ffffffffffffffffffffffffffffffffffffffff16021790555061008c565b612e358061219283390190565b6120f78061009b6000396000f3fe608060405234801561001057600080fd5b50600436106100575760003560e01c80630aab6cf61461005c57806349a852e51461008c5780635cf3d346146100bc578063b6a46b3b146100ec578063ceecabf514610108575b600080fd5b6100766004803603810190610071919061044a565b610126565b6040516100839190610492565b60405180910390f35b6100a660048036038101906100a1919061044a565b61017c565b6040516100b39190610492565b60405180910390f35b6100d660048036038101906100d1919061044a565b61019c565b6040516100e3919061053d565b60405180910390f35b61010660048036038101906101019190610694565b61023c565b005b6101106103a5565b60405161011d91906106ec565b60405180910390f35b6000600160008373ffffffffffffffffffffffffffffffffffffffff1673ffffffffffffffffffffffffffffffffffffffff16815260200190815260200160002060009054906101000a900460ff169050919050565b60016020528060005260406000206000915054906101000a900460ff1681565b600060205280600052604060002060009150905080546101bb90610736565b80601f01602080910402602001604051908101604052809291908181526020018280546101e790610736565b80156102345780601f1061020957610100808354040283529160200191610234565b820191906000526020600020905b81548152906001019060200180831161021757829003601f168201915b505050505081565b600060405161024a906103cb565b604051809103906000f080158015610266573d6000803e3d6000fd5b509050816000808373ffffffffffffffffffffffffffffffffffffffff1673ffffffffffffffffffffffffffffffffffffffff16815260200190815260200160002090816102b4919061091d565b5060018060008373ffffffffffffffffffffffffffffffffffffffff1673ffffffffffffffffffffffffffffffffffffffff16815260200190815260200160002060006101000a81548160ff0219169083151502179055506000600260009054906101000a900473ffffffffffffffffffffffffffffffffffffffff1690508073ffffffffffffffffffffffffffffffffffffffff16633a0a344433846040518363ffffffff1660e01b815260040161036e9291906109ef565b600060405180830381600087803b15801561038857600080fd5b505af115801561039c573d6000803e3d6000fd5b50505050505050565b600260009054906101000a900473ffffffffffffffffffffffffffffffffffffffff1681565b6116a980610a1983390190565b6000604051905090565b600080fd5b600080fd5b600073ffffffffffffffffffffffffffffffffffffffff82169050919050565b6000610417826103ec565b9050919050565b6104278161040c565b811461043257600080fd5b50565b6000813590506104448161041e565b92915050565b6000602082840312156104605761045f6103e2565b5b600061046e84828501610435565b91505092915050565b60008115159050919050565b61048c81610477565b82525050565b60006020820190506104a76000830184610483565b92915050565b600081519050919050565b600082825260208201905092915050565b60005b838110156104e75780820151818401526020810190506104cc565b60008484015250505050565b6000601f19601f8301169050919050565b600061050f826104ad565b61051981856104b8565b93506105298185602086016104c9565b610532816104f3565b840191505092915050565b600060208201905081810360008301526105578184610504565b905092915050565b600080fd5b600080fd5b7f4e487b7100000000000000000000000000000000000000000000000000000000600052604160045260246000fd5b6105a1826104f3565b810181811067ffffffffffffffff821117156105c0576105bf610569565b5b80604052505050565b60006105d36103d8565b90506105df8282610598565b919050565b600067ffffffffffffffff8211156105ff576105fe610569565b5b610608826104f3565b9050602081019050919050565b82818337600083830152505050565b6000610637610632846105e4565b6105c9565b90508281526020810184848401111561065357610652610564565b5b61065e848285610615565b509392505050565b600082601f83011261067b5761067a61055f565b5b813561068b848260208601610624565b91505092915050565b6000602082840312156106aa576106a96103e2565b5b600082013567ffffffffffffffff8111156106c8576106c76103e7565b5b6106d484828501610666565b91505092915050565b6106e68161040c565b82525050565b600060208201905061070160008301846106dd565b92915050565b7f4e487b7100000000000000000000000000000000000000000000000000000000600052602260045260246000fd5b6000600282049050600182168061074e57607f821691505b60208210810361076157610760610707565b5b50919050565b60008190508160005260206000209050919050565b60006020601f8301049050919050565b600082821b905092915050565b6000600883026107c97fffffffffffffffffffffffffffffffffffffffffffffffffffffffffffffffff8261078c565b6107d3868361078c565b95508019841693508086168417925050509392505050565b6000819050919050565b6000819050919050565b600061081a610815610810846107eb565b6107f5565b6107eb565b9050919050565b6000819050919050565b610834836107ff565b61084861084082610821565b848454610799565b825550505050565b600090565b61085d610850565b61086881848461082b565b505050565b5b8181101561088c57610881600082610855565b60018101905061086e565b5050565b601f8211156108d1576108a281610767565b6108ab8461077c565b810160208510156108ba578190505b6108ce6108c68561077c565b83018261086d565b50505b505050565b600082821c905092915050565b60006108f4600019846008026108d6565b1980831691505092915050565b600061090d83836108e3565b9150826002028217905092915050565b610926826104ad565b67ffffffffffffffff81111561093f5761093e610569565b5b6109498254610736565b610954828285610890565b600060209050601f8311600181146109875760008415610975578287015190505b61097f8582610901565b8655506109e7565b601f19841661099586610767565b60005b828110156109bd57848901518255600182019150602085019450602081019050610998565b868310156109da57848901516109d6601f8916826108e3565b8355505b6001600288020188555050505b505050505050565b6000604082019050610a0460008301856106dd565b610a1160208301846106dd565b939250505056fe608060405234801561001057600080fd5b50611689806100206000396000f3fe6080604052600436106100c25760003560e01c8063455772d21161007f5780638c468cd4116100595780638c468cd414610235578063a324823c14610272578063d9a875351461029d578063e8afa68f146102da576100c2565b8063455772d2146101a2578063572099b9146101cd57806371942a01146101f8576100c2565b80630936098f146100c75780630a2bc366146100f25780631292a282146100fc578063273f868e1461012557806328f4694c1461014e5780633c1ab2a314610177575b600080fd5b3480156100d357600080fd5b506100dc610305565b6040516100e99190610f6f565b60405180910390f35b6100fa610329565b005b34801561010857600080fd5b50610123600480360381019061011e9190610fbb565b610514565b005b34801561013157600080fd5b5061014c60048036038101906101479190610fbb565b61056b565b005b34801561015a57600080fd5b5061017560048036038101906101709190610fbb565b6106fd565b005b34801561018357600080fd5b5061018c6109da565b6040516101999190611078565b60405180910390f35b3480156101ae57600080fd5b506101b7610a68565b6040516101c49190611158565b60405180910390f35b3480156101d957600080fd5b506101e2610af6565b6040516101ef9190610f6f565b60405180910390f35b34801561020457600080fd5b5061021f600480360381019061021a9190610fbb565b610b1c565b60405161022c9190611195565b60405180910390f35b34801561024157600080fd5b5061025c600480360381019061025791906111e6565b610c25565b6040516102699190610f6f565b60405180910390f35b34801561027e57600080fd5b50610287610c64565b6040516102949190611078565b60405180910390f35b3480156102a957600080fd5b506102c460048036038101906102bf9190610fbb565b610cf2565b6040516102d19190611222565b60405180910390f35b3480156102e657600080fd5b506102ef610d3e565b6040516102fc9190610f6f565b60405180910390f35b60008054906101000a900473ffffffffffffffffffffffffffffffffffffffff1681565b600660003373ffffffffffffffffffffffffffffffffffffffff1673ffffffffffffffffffffffffffffffffffffffff16815260200190815260200160002060009054906101000a900460ff16156103b6576040517f08c379a00000000000000000000000000000000000000000000000000000000081526004016103ad90611289565b60405180910390fd5b7ffffffffffffffffffffffffffffffffffffffffffffffffffffffffffffffffd600560003373ffffffffffffffffffffffffffffffffffffffff1673ffffffffffffffffffffffffffffffffffffffff1681526020019081526020016000205413610457576040517f08c379a000000000000000000000000000000000000000000000000000000000815260040161044e906112f5565b60405180910390fd5b6001600660003373ffffffffffffffffffffffffffffffffffffffff1673ffffffffffffffffffffffffffffffffffffffff16815260200190815260200160002060006101000a81548160ff0219169083151502179055506003339080600181540180825580915050600190039060005260206000200160009091909190916101000a81548173ffffffffffffffffffffffffffffffffffffffff021916908373ffffffffffffffffffffffffffffffffffffffff160217905550565b61051d81610d64565b600460003373ffffffffffffffffffffffffffffffffffffffff1673ffffffffffffffffffffffffffffffffffffffff16815260200190815260200160002060006105689190610ef0565b50565b600660008273ffffffffffffffffffffffffffffffffffffffff1673ffffffffffffffffffffffffffffffffffffffff16815260200190815260200160002060009054906101000a900460ff166105f7576040517f08c379a00000000000000000000000000000000000000000000000000000000081526004016105ee90611361565b60405180910390fd5b6000600660008373ffffffffffffffffffffffffffffffffffffffff1673ffffffffffffffffffffffffffffffffffffffff16815260200190815260200160002060006101000a81548160ff0219169083151502179055506001600560003373ffffffffffffffffffffffffffffffffffffffff1673ffffffffffffffffffffffffffffffffffffffff168152602001908152602001600020600082825461069f91906113ba565b925050819055506106af81610d64565b600460003373ffffffffffffffffffffffffffffffffffffffff1673ffffffffffffffffffffffffffffffffffffffff16815260200190815260200160002060006106fa9190610ef0565b50565b600660008273ffffffffffffffffffffffffffffffffffffffff1673ffffffffffffffffffffffffffffffffffffffff16815260200190815260200160002060009054906101000a900460ff16610789576040517f08c379a000000000000000000000000000000000000000000000000000000000815260040161078090611449565b60405180910390fd5b6000805b600460008473ffffffffffffffffffffffffffffffffffffffff1673ffffffffffffffffffffffffffffffffffffffff1681526020019081526020016000208054905081101561089d573373ffffffffffffffffffffffffffffffffffffffff16600460008573ffffffffffffffffffffffffffffffffffffffff1673ffffffffffffffffffffffffffffffffffffffff168152602001908152602001600020828154811061083f5761083e611469565b5b9060005260206000200160009054906101000a900473ffffffffffffffffffffffffffffffffffffffff1673ffffffffffffffffffffffffffffffffffffffff160361088a57600191505b808061089590611498565b91505061078d565b5080156108df576040517f08c379a00000000000000000000000000000000000000000000000000000000081526004016108d69061152c565b60405180910390fd5b600460008373ffffffffffffffffffffffffffffffffffffffff1673ffffffffffffffffffffffffffffffffffffffff168152602001908152602001600020339080600181540180825580915050600190039060005260206000200160009091909190916101000a81548173ffffffffffffffffffffffffffffffffffffffff021916908373ffffffffffffffffffffffffffffffffffffffff1602179055506001600560008473ffffffffffffffffffffffffffffffffffffffff1673ffffffffffffffffffffffffffffffffffffffff16815260200190815260200160002060008282546109cf919061154c565b925050819055505050565b600780546109e7906115bf565b80601f0160208091040260200160405190810160405280929190818152602001828054610a13906115bf565b8015610a605780601f10610a3557610100808354040283529160200191610a60565b820191906000526020600020905b815481529060010190602001808311610a4357829003601f168201915b505050505081565b60606003805480602002602001604051908101604052809291908181526020018280548015610aec57602002820191906000526020600020905b8160009054906101000a900473ffffffffffffffffffffffffffffffffffffffff1673ffffffffffffffffffffffffffffffffffffffff1681526020019060010190808311610aa2575b5050505050905090565b600260009054906101000a900473ffffffffffffffffffffffffffffffffffffffff1681565b60008060009054906101000a900473ffffffffffffffffffffffffffffffffffffffff1673ffffffffffffffffffffffffffffffffffffffff168273ffffffffffffffffffffffffffffffffffffffff161480610bc65750600160009054906101000a900473ffffffffffffffffffffffffffffffffffffffff1673ffffffffffffffffffffffffffffffffffffffff168273ffffffffffffffffffffffffffffffffffffffff16145b80610c1e5750600260009054906101000a900473ffffffffffffffffffffffffffffffffffffffff1673ffffffffffffffffffffffffffffffffffffffff168273ffffffffffffffffffffffffffffffffffffffff16145b9050919050565b60038181548110610c3557600080fd5b906000526020600020016000915054906101000a900473ffffffffffffffffffffffffffffffffffffffff1681565b60088054610c71906115bf565b80601f0160208091040260200160405190810160405280929190818152602001828054610c9d906115bf565b8015610cea5780601f10610cbf57610100808354040283529160200191610cea565b820191906000526020600020905b815481529060010190602001808311610ccd57829003601f168201915b505050505081565b6000600460008373ffffffffffffffffffffffffffffffffffffffff1673ffffffffffffffffffffffffffffffffffffffff168152602001908152602001600020805490509050919050565b600160009054906101000a900473ffffffffffffffffffffffffffffffffffffffff1681565b60005b600380549050811015610df9578173ffffffffffffffffffffffffffffffffffffffff1660038281548110610d9f57610d9e611469565b5b9060005260206000200160009054906101000a900473ffffffffffffffffffffffffffffffffffffffff1673ffffffffffffffffffffffffffffffffffffffff160315610df9578080610df190611498565b915050610d67565b60036001600380549050610e0d91906115f0565b81548110610e1e57610e1d611469565b5b9060005260206000200160009054906101000a900473ffffffffffffffffffffffffffffffffffffffff1660038281548110610e5d57610e5c611469565b5b9060005260206000200160006101000a81548173ffffffffffffffffffffffffffffffffffffffff021916908373ffffffffffffffffffffffffffffffffffffffff1602179055506003805480610eb757610eb6611624565b5b6001900381819060005260206000200160006101000a81549073ffffffffffffffffffffffffffffffffffffffff021916905590555050565b5080546000825590600052602060002090810190610f0e9190610f11565b50565b5b80821115610f2a576000816000905550600101610f12565b5090565b600073ffffffffffffffffffffffffffffffffffffffff82169050919050565b6000610f5982610f2e565b9050919050565b610f6981610f4e565b82525050565b6000602082019050610f846000830184610f60565b92915050565b600080fd5b610f9881610f4e565b8114610fa357600080fd5b50565b600081359050610fb581610f8f565b92915050565b600060208284031215610fd157610fd0610f8a565b5b6000610fdf84828501610fa6565b91505092915050565b600081519050919050565b600082825260208201905092915050565b60005b83811015611022578082015181840152602081019050611007565b60008484015250505050565b6000601f19601f8301169050919050565b600061104a82610fe8565b6110548185610ff3565b9350611064818560208601611004565b61106d8161102e565b840191505092915050565b60006020820190508181036000830152611092818461103f565b905092915050565b600081519050919050565b600082825260208201905092915050565b6000819050602082019050919050565b6110cf81610f4e565b82525050565b60006110e183836110c6565b60208301905092915050565b6000602082019050919050565b60006111058261109a565b61110f81856110a5565b935061111a836110b6565b8060005b8381101561114b57815161113288826110d5565b975061113d836110ed565b92505060018101905061111e565b5085935050505092915050565b6000602082019050818103600083015261117281846110fa565b905092915050565b60008115159050919050565b61118f8161117a565b82525050565b60006020820190506111aa6000830184611186565b92915050565b6000819050919050565b6111c3816111b0565b81146111ce57600080fd5b50565b6000813590506111e0816111ba565b92915050565b6000602082840312156111fc576111fb610f8a565b5b600061120a848285016111d1565b91505092915050565b61121c816111b0565b82525050565b60006020820190506112376000830184611213565b92915050565b7f416c726561647920616374697665206170706c6963616e740000000000000000600082015250565b6000611273601883610ff3565b915061127e8261123d565b602082019050919050565b600060208201905081810360008301526112a281611266565b9050919050565b7f6163636f756e742072656a656374656400000000000000000000000000000000600082015250565b60006112df601083610ff3565b91506112ea826112a9565b602082019050919050565b6000602082019050818103600083015261130e816112d2565b9050919050565b7f496e76616c6964206170706c6963616e74206164647265737300000000000000600082015250565b600061134b601983610ff3565b915061135682611315565b602082019050919050565b6000602082019050818103600083015261137a8161133e565b9050919050565b6000819050919050565b7f4e487b7100000000000000000000000000000000000000000000000000000000600052601160045260246000fd5b60006113c582611381565b91506113d083611381565b92508282039050818112600084121682821360008512151617156113f7576113f661138b565b5b92915050565b7f4e6f742061206170706c6963616e740000000000000000000000000000000000600082015250565b6000611433600f83610ff3565b915061143e826113fd565b602082019050919050565b6000602082019050818103600083015261146281611426565b9050919050565b7f4e487b7100000000000000000000000000000000000000000000000000000000600052603260045260246000fd5b60006114a3826111b0565b91507fffffffffffffffffffffffffffffffffffffffffffffffffffffffffffffffff82036114d5576114d461138b565b5b600182019050919050565b7f53656e64657220616c726561647920766f746564000000000000000000000000600082015250565b6000611516601483610ff3565b9150611521826114e0565b602082019050919050565b6000602082019050818103600083015261154581611509565b9050919050565b600061155782611381565b915061156283611381565b92508282019050828112156000831216838212600084121516171561158a5761158961138b565b5b92915050565b7f4e487b7100000000000000000000000000000000000000000000000000000000600052602260045260246000fd5b600060028204905060018216806115d757607f821691505b6020821081036115ea576115e9611590565b5b50919050565b60006115fb826111b0565b9150611606836111b0565b925082820390508181111561161e5761161d61138b565b5b92915050565b7f4e487b7100000000000000000000000000000000000000000000000000000000600052603160045260246000fdfea264697066735822122034af5c71adf3e1ca18da8f8e101769d05f0c8c163f8b7da7107ec56f520bc8a864736f6c63430008110033a2646970667358221220bf02f7dbac8ad2b4c844c09c5c02fdffae1a26a3ed0c628eb1a71ecf71c0811f64736f6c6343000811003360806040526040518060400160405280600681526020017f4d656d6265720000000000000000000000000000000000000000000000000000815250600090816200004a919062000366565b506040518060400160405280600281526020017f4d4d0000000000000000000000000000000000000000000000000000000000008152506001908162000091919062000366565b506000600755348015620000a457600080fd5b5033600860006101000a81548173ffffffffffffffffffffffffffffffffffffffff021916908373ffffffffffffffffffffffffffffffffffffffff1602179055506200044d565b600081519050919050565b7f4e487b7100000000000000000000000000000000000000000000000000000000600052604160045260246000fd5b7f4e487b7100000000000000000000000000000000000000000000000000000000600052602260045260246000fd5b600060028204905060018216806200016e57607f821691505b60208210810362000184576200018362000126565b5b50919050565b60008190508160005260206000209050919050565b60006020601f8301049050919050565b600082821b905092915050565b600060088302620001ee7fffffffffffffffffffffffffffffffffffffffffffffffffffffffffffffffff82620001af565b620001fa8683620001af565b95508019841693508086168417925050509392505050565b6000819050919050565b6000819050919050565b600062000247620002416200023b8462000212565b6200021c565b62000212565b9050919050565b6000819050919050565b620002638362000226565b6200027b62000272826200024e565b848454620001bc565b825550505050565b600090565b6200029262000283565b6200029f81848462000258565b505050565b5b81811015620002c757620002bb60008262000288565b600181019050620002a5565b5050565b601f8211156200031657620002e0816200018a565b620002eb846200019f565b81016020851015620002fb578190505b620003136200030a856200019f565b830182620002a4565b50505b505050565b600082821c905092915050565b60006200033b600019846008026200031b565b1980831691505092915050565b600062000356838362000328565b9150826002028217905092915050565b6200037182620000ec565b67ffffffffffffffff8111156200038d576200038c620000f7565b5b62000399825462000155565b620003a6828285620002cb565b600060209050601f831160018114620003de5760008415620003c9578287015190505b620003d5858262000348565b86555062000445565b601f198416620003ee866200018a565b60005b828110156200041857848901518255600182019150602085019450602081019050620003f1565b8683101562000438578489015162000434601f89168262000328565b8355505b6001600288020188555050505b505050505050565b6129d8806200045d6000396000f3fe608060405234801561001057600080fd5b50600436106101165760003560e01c806370a08231116100a2578063a22cb46511610071578063a22cb465146102df578063b88d4fde146102fb578063c87b56dd14610317578063e3c5e2cf14610347578063e985e9c51461037757610116565b806370a08231146102575780638c2be83314610287578063951b6c02146102a557806395d89b41146102c157610116565b8063095ea7b3116100e9578063095ea7b3146101b757806323b872dd146101d35780633a0a3444146101ef57806342842e0e1461020b5780636352211e1461022757610116565b806301ffc9a71461011b57806306661abd1461014b57806306fdde0314610169578063081812fc14610187575b600080fd5b610135600480360381019061013091906119b6565b6103a7565b60405161014291906119fe565b60405180910390f35b610153610489565b6040516101609190611a32565b60405180910390f35b61017161048f565b60405161017e9190611add565b60405180910390f35b6101a1600480360381019061019c9190611b2b565b61051d565b6040516101ae9190611b99565b60405180910390f35b6101d160048036038101906101cc9190611be0565b610563565b005b6101ed60048036038101906101e89190611c20565b61066c565b005b61020960048036038101906102049190611c73565b6106c5565b005b61022560048036038101906102209190611c20565b6107d3565b005b610241600480360381019061023c9190611b2b565b6107f3565b60405161024e9190611b99565b60405180910390f35b610271600480360381019061026c9190611cb3565b6108a4565b60405161027e9190611a32565b60405180910390f35b61028f61095b565b60405161029c9190611b99565b60405180910390f35b6102bf60048036038101906102ba9190611c73565b610981565b005b6102c9610bab565b6040516102d69190611add565b60405180910390f35b6102f960048036038101906102f49190611d0c565b610c39565b005b61031560048036038101906103109190611e81565b610c48565b005b610331600480360381019061032c9190611b2b565b610ca3565b60405161033e9190611add565b60405180910390f35b610361600480360381019061035c9190611b2b565b610cdd565b60405161036e9190611b99565b60405180910390f35b610391600480360381019061038c9190611c73565b610d1a565b60405161039e91906119fe565b60405180910390f35b60007f80ac58cd000000000000000000000000000000000000000000000000000000007bffffffffffffffffffffffffffffffffffffffffffffffffffffffff1916827bffffffffffffffffffffffffffffffffffffffffffffffffffffffff1916148061047257507f5b5e139f000000000000000000000000000000000000000000000000000000007bffffffffffffffffffffffffffffffffffffffffffffffffffffffff1916827bffffffffffffffffffffffffffffffffffffffffffffffffffffffff1916145b80610482575061048182610dae565b5b9050919050565b60075481565b6000805461049c90611f33565b80601f01602080910402602001604051908101604052809291908181526020018280546104c890611f33565b80156105155780601f106104ea57610100808354040283529160200191610515565b820191906000526020600020905b8154815290600101906020018083116104f857829003601f168201915b505050505081565b600061052882610e18565b6005600083815260200190815260200160002060009054906101000a900473ffffffffffffffffffffffffffffffffffffffff169050919050565b600061056e826107f3565b90508073ffffffffffffffffffffffffffffffffffffffff168373ffffffffffffffffffffffffffffffffffffffff16036105de576040517f08c379a00000000000000000000000000000000000000000000000000000000081526004016105d590611fd6565b60405180910390fd5b8073ffffffffffffffffffffffffffffffffffffffff163373ffffffffffffffffffffffffffffffffffffffff16148061061e575061061d8133610d1a565b5b61065d576040517f08c379a000000000000000000000000000000000000000000000000000000000815260040161065490612068565b60405180910390fd5b6106678383610e63565b505050565b6106763382610f1c565b6106b5576040517f08c379a00000000000000000000000000000000000000000000000000000000081526004016106ac906120fa565b60405180910390fd5b6106c0838383610fb1565b505050565b600860009054906101000a900473ffffffffffffffffffffffffffffffffffffffff1673ffffffffffffffffffffffffffffffffffffffff163373ffffffffffffffffffffffffffffffffffffffff1614610755576040517f08c379a000000000000000000000000000000000000000000000000000000000815260040161074c90612166565b60405180910390fd5b61076182600754611201565b8060026000600754815260200190815260200160002060006101000a81548173ffffffffffffffffffffffffffffffffffffffff021916908373ffffffffffffffffffffffffffffffffffffffff1602179055506001600760008282546107c891906121b5565b925050819055505050565b6107ee83838360405180602001604052806000815250610c48565b505050565b6000806003600084815260200190815260200160002060009054906101000a900473ffffffffffffffffffffffffffffffffffffffff169050600073ffffffffffffffffffffffffffffffffffffffff168173ffffffffffffffffffffffffffffffffffffffff160361089b576040517f08c379a000000000000000000000000000000000000000000000000000000000815260040161089290612235565b60405180910390fd5b80915050919050565b60008073ffffffffffffffffffffffffffffffffffffffff168273ffffffffffffffffffffffffffffffffffffffff1603610914576040517f08c379a000000000000000000000000000000000000000000000000000000000815260040161090b906122c7565b60405180910390fd5b600460008373ffffffffffffffffffffffffffffffffffffffff1673ffffffffffffffffffffffffffffffffffffffff168152602001908152602001600020549050919050565b600860009054906101000a900473ffffffffffffffffffffffffffffffffffffffff1681565b6000600860009054906101000a900473ffffffffffffffffffffffffffffffffffffffff16905060008173ffffffffffffffffffffffffffffffffffffffff16630aab6cf6846040518263ffffffff1660e01b81526004016109e39190611b99565b602060405180830381865afa158015610a00573d6000803e3d6000fd5b505050506040513d601f19601f82011682018060405250810190610a2491906122fc565b905080610a66576040517f08c379a0000000000000000000000000000000000000000000000000000000008152600401610a5d90612375565b60405180910390fd5b600083905060008173ffffffffffffffffffffffffffffffffffffffff166371942a01336040518263ffffffff1660e01b8152600401610aa69190611b99565b602060405180830381865afa158015610ac3573d6000803e3d6000fd5b505050506040513d601f19601f82011682018060405250810190610ae791906122fc565b905080610b29576040517f08c379a0000000000000000000000000000000000000000000000000000000008152600401610b20906123e1565b60405180910390fd5b610b3586600754611201565b8460026000600754815260200190815260200160002060006101000a81548173ffffffffffffffffffffffffffffffffffffffff021916908373ffffffffffffffffffffffffffffffffffffffff160217905550600160076000828254610b9c91906121b5565b92505081905550505050505050565b60018054610bb890611f33565b80601f0160208091040260200160405190810160405280929190818152602001828054610be490611f33565b8015610c315780601f10610c0657610100808354040283529160200191610c31565b820191906000526020600020905b815481529060010190602001808311610c1457829003601f168201915b505050505081565b610c4433838361121f565b5050565b610c523383610f1c565b610c91576040517f08c379a0000000000000000000000000000000000000000000000000000000008152600401610c88906120fa565b60405180910390fd5b610c9d8484848461138b565b50505050565b6060610cae82610e18565b610cb7826113e7565b604051602001610cc79190612463565b6040516020818303038152906040529050919050565b60006002600083815260200190815260200160002060009054906101000a900473ffffffffffffffffffffffffffffffffffffffff169050919050565b6000600660008473ffffffffffffffffffffffffffffffffffffffff1673ffffffffffffffffffffffffffffffffffffffff16815260200190815260200160002060008373ffffffffffffffffffffffffffffffffffffffff1673ffffffffffffffffffffffffffffffffffffffff16815260200190815260200160002060009054906101000a900460ff16905092915050565b60007f01ffc9a7000000000000000000000000000000000000000000000000000000007bffffffffffffffffffffffffffffffffffffffffffffffffffffffff1916827bffffffffffffffffffffffffffffffffffffffffffffffffffffffff1916149050919050565b610e2181611547565b610e60576040517f08c379a0000000000000000000000000000000000000000000000000000000008152600401610e5790612235565b60405180910390fd5b50565b816005600083815260200190815260200160002060006101000a81548173ffffffffffffffffffffffffffffffffffffffff021916908373ffffffffffffffffffffffffffffffffffffffff160217905550808273ffffffffffffffffffffffffffffffffffffffff16610ed6836107f3565b73ffffffffffffffffffffffffffffffffffffffff167f8c5be1e5ebec7d5bd14f71427d1e84f3dd0314c0f7b2291e5b200ac8c7c3b92560405160405180910390a45050565b600080610f28836107f3565b90508073ffffffffffffffffffffffffffffffffffffffff168473ffffffffffffffffffffffffffffffffffffffff161480610f6a5750610f698185610d1a565b5b80610fa857508373ffffffffffffffffffffffffffffffffffffffff16610f908461051d565b73ffffffffffffffffffffffffffffffffffffffff16145b91505092915050565b8273ffffffffffffffffffffffffffffffffffffffff16610fd1826107f3565b73ffffffffffffffffffffffffffffffffffffffff1614611027576040517f08c379a000000000000000000000000000000000000000000000000000000000815260040161101e906124fb565b60405180910390fd5b600073ffffffffffffffffffffffffffffffffffffffff168273ffffffffffffffffffffffffffffffffffffffff1603611096576040517f08c379a000000000000000000000000000000000000000000000000000000000815260040161108d9061258d565b60405180910390fd5b6110a1600082610e63565b6001600460008573ffffffffffffffffffffffffffffffffffffffff1673ffffffffffffffffffffffffffffffffffffffff16815260200190815260200160002060008282546110f191906125ad565b925050819055506001600460008473ffffffffffffffffffffffffffffffffffffffff1673ffffffffffffffffffffffffffffffffffffffff168152602001908152602001600020600082825461114891906121b5565b92505081905550816003600083815260200190815260200160002060006101000a81548173ffffffffffffffffffffffffffffffffffffffff021916908373ffffffffffffffffffffffffffffffffffffffff160217905550808273ffffffffffffffffffffffffffffffffffffffff168473ffffffffffffffffffffffffffffffffffffffff167fddf252ad1be2c89b69c2b068fc378daa952ba7f163c4a11628f55a4df523b3ef60405160405180910390a4505050565b61121b8282604051806020016040528060008152506115b3565b5050565b8173ffffffffffffffffffffffffffffffffffffffff168373ffffffffffffffffffffffffffffffffffffffff160361128d576040517f08c379a00000000000000000000000000000000000000000000000000000000081526004016112849061262d565b60405180910390fd5b80600660008573ffffffffffffffffffffffffffffffffffffffff1673ffffffffffffffffffffffffffffffffffffffff16815260200190815260200160002060008473ffffffffffffffffffffffffffffffffffffffff1673ffffffffffffffffffffffffffffffffffffffff16815260200190815260200160002060006101000a81548160ff0219169083151502179055508173ffffffffffffffffffffffffffffffffffffffff168373ffffffffffffffffffffffffffffffffffffffff167f17307eab39ab6107e8899845ad3d59bd9653f200f220920489ca2b5937696c318360405161137e91906119fe565b60405180910390a3505050565b611396848484610fb1565b6113a28484848461160e565b6113e1576040517f08c379a00000000000000000000000000000000000000000000000000000000081526004016113d8906126bf565b60405180910390fd5b50505050565b60606000820361142e576040518060400160405280600181526020017f30000000000000000000000000000000000000000000000000000000000000008152509050611542565b600082905060005b60008214611460578080611449906126df565b915050600a826114599190612756565b9150611436565b60008167ffffffffffffffff81111561147c5761147b611d56565b5b6040519080825280601f01601f1916602001820160405280156114ae5781602001600182028036833780820191505090505b5090505b6000851461153b576001826114c791906125ad565b9150600a856114d69190612787565b60306114e291906121b5565b60f81b8183815181106114f8576114f76127b8565b5b60200101907effffffffffffffffffffffffffffffffffffffffffffffffffffffffffffff1916908160001a905350600a856115349190612756565b94506114b2565b8093505050505b919050565b60008073ffffffffffffffffffffffffffffffffffffffff166003600084815260200190815260200160002060009054906101000a900473ffffffffffffffffffffffffffffffffffffffff1673ffffffffffffffffffffffffffffffffffffffff1614159050919050565b6115bd8383611789565b6115ca600084848461160e565b611609576040517f08c379a0000000000000000000000000000000000000000000000000000000008152600401611600906126bf565b60405180910390fd5b505050565b6000808473ffffffffffffffffffffffffffffffffffffffff163b111561177c578373ffffffffffffffffffffffffffffffffffffffff1663150b7a02338786866040518563ffffffff1660e01b815260040161166e949392919061283c565b6020604051808303816000875af19250505080156116aa57506040513d601f19601f820116820180604052508101906116a7919061289d565b60015b61172c573d80600081146116da576040519150601f19603f3d011682016040523d82523d6000602084013e6116df565b606091505b506000815103611724576040517f08c379a000000000000000000000000000000000000000000000000000000000815260040161171b906126bf565b60405180910390fd5b805181602001fd5b63150b7a0260e01b7bffffffffffffffffffffffffffffffffffffffffffffffffffffffff1916817bffffffffffffffffffffffffffffffffffffffffffffffffffffffff191614915050611781565b600190505b949350505050565b600073ffffffffffffffffffffffffffffffffffffffff168273ffffffffffffffffffffffffffffffffffffffff16036117f8576040517f08c379a00000000000000000000000000000000000000000000000000000000081526004016117ef90612916565b60405180910390fd5b61180181611547565b15611841576040517f08c379a000000000000000000000000000000000000000000000000000000000815260040161183890612982565b60405180910390fd5b6001600460008473ffffffffffffffffffffffffffffffffffffffff1673ffffffffffffffffffffffffffffffffffffffff168152602001908152602001600020600082825461189191906121b5565b92505081905550816003600083815260200190815260200160002060006101000a81548173ffffffffffffffffffffffffffffffffffffffff021916908373ffffffffffffffffffffffffffffffffffffffff160217905550808273ffffffffffffffffffffffffffffffffffffffff16600073ffffffffffffffffffffffffffffffffffffffff167fddf252ad1be2c89b69c2b068fc378daa952ba7f163c4a11628f55a4df523b3ef60405160405180910390a45050565b6000604051905090565b600080fd5b600080fd5b60007fffffffff0000000000000000000000000000000000000000000000000000000082169050919050565b6119938161195e565b811461199e57600080fd5b50565b6000813590506119b08161198a565b92915050565b6000602082840312156119cc576119cb611954565b5b60006119da848285016119a1565b91505092915050565b60008115159050919050565b6119f8816119e3565b82525050565b6000602082019050611a1360008301846119ef565b92915050565b6000819050919050565b611a2c81611a19565b82525050565b6000602082019050611a476000830184611a23565b92915050565b600081519050919050565b600082825260208201905092915050565b60005b83811015611a87578082015181840152602081019050611a6c565b60008484015250505050565b6000601f19601f8301169050919050565b6000611aaf82611a4d565b611ab98185611a58565b9350611ac9818560208601611a69565b611ad281611a93565b840191505092915050565b60006020820190508181036000830152611af78184611aa4565b905092915050565b611b0881611a19565b8114611b1357600080fd5b50565b600081359050611b2581611aff565b92915050565b600060208284031215611b4157611b40611954565b5b6000611b4f84828501611b16565b91505092915050565b600073ffffffffffffffffffffffffffffffffffffffff82169050919050565b6000611b8382611b58565b9050919050565b611b9381611b78565b82525050565b6000602082019050611bae6000830184611b8a565b92915050565b611bbd81611b78565b8114611bc857600080fd5b50565b600081359050611bda81611bb4565b92915050565b60008060408385031215611bf757611bf6611954565b5b6000611c0585828601611bcb565b9250506020611c1685828601611b16565b9150509250929050565b600080600060608486031215611c3957611c38611954565b5b6000611c4786828701611bcb565b9350506020611c5886828701611bcb565b9250506040611c6986828701611b16565b9150509250925092565b60008060408385031215611c8a57611c89611954565b5b6000611c9885828601611bcb565b9250506020611ca985828601611bcb565b9150509250929050565b600060208284031215611cc957611cc8611954565b5b6000611cd784828501611bcb565b91505092915050565b611ce9816119e3565b8114611cf457600080fd5b50565b600081359050611d0681611ce0565b92915050565b60008060408385031215611d2357611d22611954565b5b6000611d3185828601611bcb565b9250506020611d4285828601611cf7565b9150509250929050565b600080fd5b600080fd5b7f4e487b7100000000000000000000000000000000000000000000000000000000600052604160045260246000fd5b611d8e82611a93565b810181811067ffffffffffffffff82111715611dad57611dac611d56565b5b80604052505050565b6000611dc061194a565b9050611dcc8282611d85565b919050565b600067ffffffffffffffff821115611dec57611deb611d56565b5b611df582611a93565b9050602081019050919050565b82818337600083830152505050565b6000611e24611e1f84611dd1565b611db6565b905082815260208101848484011115611e4057611e3f611d51565b5b611e4b848285611e02565b509392505050565b600082601f830112611e6857611e67611d4c565b5b8135611e78848260208601611e11565b91505092915050565b60008060008060808587031215611e9b57611e9a611954565b5b6000611ea987828801611bcb565b9450506020611eba87828801611bcb565b9350506040611ecb87828801611b16565b925050606085013567ffffffffffffffff811115611eec57611eeb611959565b5b611ef887828801611e53565b91505092959194509250565b7f4e487b7100000000000000000000000000000000000000000000000000000000600052602260045260246000fd5b60006002820490506001821680611f4b57607f821691505b602082108103611f5e57611f5d611f04565b5b50919050565b7f4552433732313a20617070726f76616c20746f2063757272656e74206f776e6560008201527f7200000000000000000000000000000000000000000000000000000000000000602082015250565b6000611fc0602183611a58565b9150611fcb82611f64565b604082019050919050565b60006020820190508181036000830152611fef81611fb3565b9050919050565b7f4552433732313a20617070726f76652063616c6c6572206973206e6f7420746f60008201527f6b656e206f776e6572206e6f7220617070726f76656420666f7220616c6c0000602082015250565b6000612052603e83611a58565b915061205d82611ff6565b604082019050919050565b6000602082019050818103600083015261208181612045565b9050919050565b7f4552433732313a2063616c6c6572206973206e6f7420746f6b656e206f776e6560008201527f72206e6f7220617070726f766564000000000000000000000000000000000000602082015250565b60006120e4602e83611a58565b91506120ef82612088565b604082019050919050565b60006020820190508181036000830152612113816120d7565b9050919050565b7f57726f6e67206164647265737300000000000000000000000000000000000000600082015250565b6000612150600d83611a58565b915061215b8261211a565b602082019050919050565b6000602082019050818103600083015261217f81612143565b9050919050565b7f4e487b7100000000000000000000000000000000000000000000000000000000600052601160045260246000fd5b60006121c082611a19565b91506121cb83611a19565b92508282019050808211156121e3576121e2612186565b5b92915050565b7f4552433732313a20696e76616c696420746f6b656e2049440000000000000000600082015250565b600061221f601883611a58565b915061222a826121e9565b602082019050919050565b6000602082019050818103600083015261224e81612212565b9050919050565b7f4552433732313a2061646472657373207a65726f206973206e6f74206120766160008201527f6c6964206f776e65720000000000000000000000000000000000000000000000602082015250565b60006122b1602983611a58565b91506122bc82612255565b604082019050919050565b600060208201905081810360008301526122e0816122a4565b9050919050565b6000815190506122f681611ce0565b92915050565b60006020828403121561231257612311611954565b5b6000612320848285016122e7565b91505092915050565b7f4e6f7420612076616c696420626f617264206164647265737300000000000000600082015250565b600061235f601983611a58565b915061236a82612329565b602082019050919050565b6000602082019050818103600083015261238e81612352565b9050919050565b7f4d757374206265206120626f617264206d656d62657200000000000000000000600082015250565b60006123cb601683611a58565b91506123d682612395565b602082019050919050565b600060208201905081810360008301526123fa816123be565b9050919050565b7f68747470733a2f2f7777772e6c61626f722e6c616e642f6d656d6265722f0000815250565b600081905092915050565b600061243d82611a4d565b6124478185612427565b9350612457818560208601611a69565b80840191505092915050565b600061246e82612401565b601e8201915061247e8284612432565b915081905092915050565b7f4552433732313a207472616e736665722066726f6d20696e636f72726563742060008201527f6f776e6572000000000000000000000000000000000000000000000000000000602082015250565b60006124e5602583611a58565b91506124f082612489565b604082019050919050565b60006020820190508181036000830152612514816124d8565b9050919050565b7f4552433732313a207472616e7366657220746f20746865207a65726f2061646460008201527f7265737300000000000000000000000000000000000000000000000000000000602082015250565b6000612577602483611a58565b91506125828261251b565b604082019050919050565b600060208201905081810360008301526125a68161256a565b9050919050565b60006125b882611a19565b91506125c383611a19565b92508282039050818111156125db576125da612186565b5b92915050565b7f4552433732313a20617070726f766520746f2063616c6c657200000000000000600082015250565b6000612617601983611a58565b9150612622826125e1565b602082019050919050565b600060208201905081810360008301526126468161260a565b9050919050565b7f4552433732313a207472616e7366657220746f206e6f6e20455243373231526560008201527f63656976657220696d706c656d656e7465720000000000000000000000000000602082015250565b60006126a9603283611a58565b91506126b48261264d565b604082019050919050565b600060208201905081810360008301526126d88161269c565b9050919050565b60006126ea82611a19565b91507fffffffffffffffffffffffffffffffffffffffffffffffffffffffffffffffff820361271c5761271b612186565b5b600182019050919050565b7f4e487b7100000000000000000000000000000000000000000000000000000000600052601260045260246000fd5b600061276182611a19565b915061276c83611a19565b92508261277c5761277b612727565b5b828204905092915050565b600061279282611a19565b915061279d83611a19565b9250826127ad576127ac612727565b5b828206905092915050565b7f4e487b7100000000000000000000000000000000000000000000000000000000600052603260045260246000fd5b600081519050919050565b600082825260208201905092915050565b600061280e826127e7565b61281881856127f2565b9350612828818560208601611a69565b61283181611a93565b840191505092915050565b60006080820190506128516000830187611b8a565b61285e6020830186611b8a565b61286b6040830185611a23565b818103606083015261287d8184612803565b905095945050505050565b6000815190506128978161198a565b92915050565b6000602082840312156128b3576128b2611954565b5b60006128c184828501612888565b91505092915050565b7f4552433732313a206d696e7420746f20746865207a65726f2061646472657373600082015250565b6000612900602083611a58565b915061290b826128ca565b602082019050919050565b6000602082019050818103600083015261292f816128f3565b9050919050565b7f4552433732313a20746f6b656e20616c7265616479206d696e74656400000000600082015250565b600061296c601c83611a58565b915061297782612936565b602082019050919050565b6000602082019050818103600083015261299b8161295f565b905091905056fea2646970667358221220191cd2290478ea6ae39a37ad3aefdcf5e1d41637baf38022554914a74912e0aa64736f6c63430008110033","opcodes":"PUSH1 0x80 PUSH1 0x40 MSTORE CALLVALUE DUP1 ISZERO PUSH2 0x10 JUMPI PUSH1 0x0 DUP1 REVERT JUMPDEST POP PUSH1 0x40 MLOAD PUSH2 0x1D SWAP1 PUSH2 0x7F JUMP JUMPDEST PUSH1 0x40 MLOAD DUP1 SWAP2 SUB SWAP1 PUSH1 0x0 CREATE DUP1 ISZERO DUP1 ISZERO PUSH2 0x39 JUMPI RETURNDATASIZE PUSH1 0x0 DUP1 RETURNDATACOPY RETURNDATASIZE PUSH1 0x0 REVERT JUMPDEST POP PUSH1 0x2 PUSH1 0x0 PUSH2 0x100 EXP DUP2 SLOAD DUP2 PUSH20 0xFFFFFFFFFFFFFFFFFFFFFFFFFFFFFFFFFFFFFFFF MUL NOT AND SWAP1 DUP4 PUSH20 0xFFFFFFFFFFFFFFFFFFFFFFFFFFFFFFFFFFFFFFFF AND MUL OR SWAP1 SSTORE POP PUSH2 0x8C JUMP JUMPDEST PUSH2 0x2E35 DUP1 PUSH2 0x2192 DUP4 CODECOPY ADD SWAP1 JUMP JUMPDEST PUSH2 0x20F7 DUP1 PUSH2 0x9B PUSH1 0x0 CODECOPY PUSH1 0x0 RETURN INVALID PUSH1 0x80 PUSH1 0x40 MSTORE CALLVALUE DUP1 ISZERO PUSH2 0x10 JUMPI PUSH1 0x0 DUP1 REVERT JUMPDEST POP PUSH1 0x4 CALLDATASIZE LT PUSH2 0x57 JUMPI PUSH1 0x0 CALLDATALOAD PUSH1 0xE0 SHR DUP1 PUSH4 0xAAB6CF6 EQ PUSH2 0x5C JUMPI DUP1 PUSH4 0x49A852E5 EQ PUSH2 0x8C JUMPI DUP1 PUSH4 0x5CF3D346 EQ PUSH2 0xBC JUMPI DUP1 PUSH4 0xB6A46B3B EQ PUSH2 0xEC JUMPI DUP1 PUSH4 0xCEECABF5 EQ PUSH2 0x108 JUMPI JUMPDEST PUSH1 0x0 DUP1 REVERT JUMPDEST PUSH2 0x76 PUSH1 0x4 DUP1 CALLDATASIZE SUB DUP2 ADD SWAP1 PUSH2 0x71 SWAP2 SWAP1 PUSH2 0x44A JUMP JUMPDEST PUSH2 0x126 JUMP JUMPDEST PUSH1 0x40 MLOAD PUSH2 0x83 SWAP2 SWAP1 PUSH2 0x492 JUMP JUMPDEST PUSH1 0x40 MLOAD DUP1 SWAP2 SUB SWAP1 RETURN JUMPDEST PUSH2 0xA6 PUSH1 0x4 DUP1 CALLDATASIZE SUB DUP2 ADD SWAP1 PUSH2 0xA1 SWAP2 SWAP1 PUSH2 0x44A JUMP JUMPDEST PUSH2 0x17C JUMP JUMPDEST PUSH1 0x40 MLOAD PUSH2 0xB3 SWAP2 SWAP1 PUSH2 0x492 JUMP JUMPDEST PUSH1 0x40 MLOAD DUP1 SWAP2 SUB SWAP1 RETURN JUMPDEST PUSH2 0xD6 PUSH1 0x4 DUP1 CALLDATASIZE SUB DUP2 ADD SWAP1 PUSH2 0xD1 SWAP2 SWAP1 PUSH2 0x44A JUMP JUMPDEST PUSH2 0x19C JUMP JUMPDEST PUSH1 0x40 MLOAD PUSH2 0xE3 SWAP2 SWAP1 PUSH2 0x53D JUMP JUMPDEST PUSH1 0x40 MLOAD DUP1 SWAP2 SUB SWAP1 RETURN JUMPDEST PUSH2 0x106 PUSH1 0x4 DUP1 CALLDATASIZE SUB DUP2 ADD SWAP1 PUSH2 0x101 SWAP2 SWAP1 PUSH2 0x694 JUMP JUMPDEST PUSH2 0x23C JUMP JUMPDEST STOP JUMPDEST PUSH2 0x110 PUSH2 0x3A5 JUMP JUMPDEST PUSH1 0x40 MLOAD PUSH2 0x11D SWAP2 SWAP1 PUSH2 0x6EC JUMP JUMPDEST PUSH1 0x40 MLOAD DUP1 SWAP2 SUB SWAP1 RETURN JUMPDEST PUSH1 0x0 PUSH1 0x1 PUSH1 0x0 DUP4 PUSH20 0xFFFFFFFFFFFFFFFFFFFFFFFFFFFFFFFFFFFFFFFF AND PUSH20 0xFFFFFFFFFFFFFFFFFFFFFFFFFFFFFFFFFFFFFFFF AND DUP2 MSTORE PUSH1 0x20 ADD SWAP1 DUP2 MSTORE PUSH1 0x20 ADD PUSH1 0x0 KECCAK256 PUSH1 0x0 SWAP1 SLOAD SWAP1 PUSH2 0x100 EXP SWAP1 DIV PUSH1 0xFF AND SWAP1 POP SWAP2 SWAP1 POP JUMP JUMPDEST PUSH1 0x1 PUSH1 0x20 MSTORE DUP1 PUSH1 0x0 MSTORE PUSH1 0x40 PUSH1 0x0 KECCAK256 PUSH1 0x0 SWAP2 POP SLOAD SWAP1 PUSH2 0x100 EXP SWAP1 DIV PUSH1 0xFF AND DUP2 JUMP JUMPDEST PUSH1 0x0 PUSH1 0x20 MSTORE DUP1 PUSH1 0x0 MSTORE PUSH1 0x40 PUSH1 0x0 KECCAK256 PUSH1 0x0 SWAP2 POP SWAP1 POP DUP1 SLOAD PUSH2 0x1BB SWAP1 PUSH2 0x736 JUMP JUMPDEST DUP1 PUSH1 0x1F ADD PUSH1 0x20 DUP1 SWAP2 DIV MUL PUSH1 0x20 ADD PUSH1 0x40 MLOAD SWAP1 DUP2 ADD PUSH1 0x40 MSTORE DUP1 SWAP3 SWAP2 SWAP1 DUP2 DUP2 MSTORE PUSH1 0x20 ADD DUP3 DUP1 SLOAD PUSH2 0x1E7 SWAP1 PUSH2 0x736 JUMP JUMPDEST DUP1 ISZERO PUSH2 0x234 JUMPI DUP1 PUSH1 0x1F LT PUSH2 0x209 JUMPI PUSH2 0x100 DUP1 DUP4 SLOAD DIV MUL DUP4 MSTORE SWAP2 PUSH1 0x20 ADD SWAP2 PUSH2 0x234 JUMP JUMPDEST DUP3 ADD SWAP2 SWAP1 PUSH1 0x0 MSTORE PUSH1 0x20 PUSH1 0x0 KECCAK256 SWAP1 JUMPDEST DUP2 SLOAD DUP2 MSTORE SWAP1 PUSH1 0x1 ADD SWAP1 PUSH1 0x20 ADD DUP1 DUP4 GT PUSH2 0x217 JUMPI DUP3 SWAP1 SUB PUSH1 0x1F AND DUP3 ADD SWAP2 JUMPDEST POP POP POP POP POP DUP2 JUMP JUMPDEST PUSH1 0x0 PUSH1 0x40 MLOAD PUSH2 0x24A SWAP1 PUSH2 0x3CB JUMP JUMPDEST PUSH1 0x40 MLOAD DUP1 SWAP2 SUB SWAP1 PUSH1 0x0 CREATE DUP1 ISZERO DUP1 ISZERO PUSH2 0x266 JUMPI RETURNDATASIZE PUSH1 0x0 DUP1 RETURNDATACOPY RETURNDATASIZE PUSH1 0x0 REVERT JUMPDEST POP SWAP1 POP DUP2 PUSH1 0x0 DUP1 DUP4 PUSH20 0xFFFFFFFFFFFFFFFFFFFFFFFFFFFFFFFFFFFFFFFF AND PUSH20 0xFFFFFFFFFFFFFFFFFFFFFFFFFFFFFFFFFFFFFFFF AND DUP2 MSTORE PUSH1 0x20 ADD SWAP1 DUP2 MSTORE PUSH1 0x20 ADD PUSH1 0x0 KECCAK256 SWAP1 DUP2 PUSH2 0x2B4 SWAP2 SWAP1 PUSH2 0x91D JUMP JUMPDEST POP PUSH1 0x1 DUP1 PUSH1 0x0 DUP4 PUSH20 0xFFFFFFFFFFFFFFFFFFFFFFFFFFFFFFFFFFFFFFFF AND PUSH20 0xFFFFFFFFFFFFFFFFFFFFFFFFFFFFFFFFFFFFFFFF AND DUP2 MSTORE PUSH1 0x20 ADD SWAP1 DUP2 MSTORE PUSH1 0x20 ADD PUSH1 0x0 KECCAK256 PUSH1 0x0 PUSH2 0x100 EXP DUP2 SLOAD DUP2 PUSH1 0xFF MUL NOT AND SWAP1 DUP4 ISZERO ISZERO MUL OR SWAP1 SSTORE POP PUSH1 0x0 PUSH1 0x2 PUSH1 0x0 SWAP1 SLOAD SWAP1 PUSH2 0x100 EXP SWAP1 DIV PUSH20 0xFFFFFFFFFFFFFFFFFFFFFFFFFFFFFFFFFFFFFFFF AND SWAP1 POP DUP1 PUSH20 0xFFFFFFFFFFFFFFFFFFFFFFFFFFFFFFFFFFFFFFFF AND PUSH4 0x3A0A3444 CALLER DUP5 PUSH1 0x40 MLOAD DUP4 PUSH4 0xFFFFFFFF AND PUSH1 0xE0 SHL DUP2 MSTORE PUSH1 0x4 ADD PUSH2 0x36E SWAP3 SWAP2 SWAP1 PUSH2 0x9EF JUMP JUMPDEST PUSH1 0x0 PUSH1 0x40 MLOAD DUP1 DUP4 SUB DUP2 PUSH1 0x0 DUP8 DUP1 EXTCODESIZE ISZERO DUP1 ISZERO PUSH2 0x388 JUMPI PUSH1 0x0 DUP1 REVERT JUMPDEST POP GAS CALL ISZERO DUP1 ISZERO PUSH2 0x39C JUMPI RETURNDATASIZE PUSH1 0x0 DUP1 RETURNDATACOPY RETURNDATASIZE PUSH1 0x0 REVERT JUMPDEST POP POP POP POP POP POP POP JUMP JUMPDEST PUSH1 0x2 PUSH1 0x0 SWAP1 SLOAD SWAP1 PUSH2 0x100 EXP SWAP1 DIV PUSH20 0xFFFFFFFFFFFFFFFFFFFFFFFFFFFFFFFFFFFFFFFF AND DUP2 JUMP JUMPDEST PUSH2 0x16A9 DUP1 PUSH2 0xA19 DUP4 CODECOPY ADD SWAP1 JUMP JUMPDEST PUSH1 0x0 PUSH1 0x40 MLOAD SWAP1 POP SWAP1 JUMP JUMPDEST PUSH1 0x0 DUP1 REVERT JUMPDEST PUSH1 0x0 DUP1 REVERT JUMPDEST PUSH1 0x0 PUSH20 0xFFFFFFFFFFFFFFFFFFFFFFFFFFFFFFFFFFFFFFFF DUP3 AND SWAP1 POP SWAP2 SWAP1 POP JUMP JUMPDEST PUSH1 0x0 PUSH2 0x417 DUP3 PUSH2 0x3EC JUMP JUMPDEST SWAP1 POP SWAP2 SWAP1 POP JUMP JUMPDEST PUSH2 0x427 DUP2 PUSH2 0x40C JUMP JUMPDEST DUP2 EQ PUSH2 0x432 JUMPI PUSH1 0x0 DUP1 REVERT JUMPDEST POP JUMP JUMPDEST PUSH1 0x0 DUP2 CALLDATALOAD SWAP1 POP PUSH2 0x444 DUP2 PUSH2 0x41E JUMP JUMPDEST SWAP3 SWAP2 POP POP JUMP JUMPDEST PUSH1 0x0 PUSH1 0x20 DUP3 DUP5 SUB SLT ISZERO PUSH2 0x460 JUMPI PUSH2 0x45F PUSH2 0x3E2 JUMP JUMPDEST JUMPDEST PUSH1 0x0 PUSH2 0x46E DUP5 DUP3 DUP6 ADD PUSH2 0x435 JUMP JUMPDEST SWAP2 POP POP SWAP3 SWAP2 POP POP JUMP JUMPDEST PUSH1 0x0 DUP2 ISZERO ISZERO SWAP1 POP SWAP2 SWAP1 POP JUMP JUMPDEST PUSH2 0x48C DUP2 PUSH2 0x477 JUMP JUMPDEST DUP3 MSTORE POP POP JUMP JUMPDEST PUSH1 0x0 PUSH1 0x20 DUP3 ADD SWAP1 POP PUSH2 0x4A7 PUSH1 0x0 DUP4 ADD DUP5 PUSH2 0x483 JUMP JUMPDEST SWAP3 SWAP2 POP POP JUMP JUMPDEST PUSH1 0x0 DUP2 MLOAD SWAP1 POP SWAP2 SWAP1 POP JUMP JUMPDEST PUSH1 0x0 DUP3 DUP3 MSTORE PUSH1 0x20 DUP3 ADD SWAP1 POP SWAP3 SWAP2 POP POP JUMP JUMPDEST PUSH1 0x0 JUMPDEST DUP4 DUP2 LT ISZERO PUSH2 0x4E7 JUMPI DUP1 DUP3 ADD MLOAD DUP2 DUP5 ADD MSTORE PUSH1 0x20 DUP2 ADD SWAP1 POP PUSH2 0x4CC JUMP JUMPDEST PUSH1 0x0 DUP5 DUP5 ADD MSTORE POP POP POP POP JUMP JUMPDEST PUSH1 0x0 PUSH1 0x1F NOT PUSH1 0x1F DUP4 ADD AND SWAP1 POP SWAP2 SWAP1 POP JUMP JUMPDEST PUSH1 0x0 PUSH2 0x50F DUP3 PUSH2 0x4AD JUMP JUMPDEST PUSH2 0x519 DUP2 DUP6 PUSH2 0x4B8 JUMP JUMPDEST SWAP4 POP PUSH2 0x529 DUP2 DUP6 PUSH1 0x20 DUP7 ADD PUSH2 0x4C9 JUMP JUMPDEST PUSH2 0x532 DUP2 PUSH2 0x4F3 JUMP JUMPDEST DUP5 ADD SWAP2 POP POP SWAP3 SWAP2 POP POP JUMP JUMPDEST PUSH1 0x0 PUSH1 0x20 DUP3 ADD SWAP1 POP DUP2 DUP2 SUB PUSH1 0x0 DUP4 ADD MSTORE PUSH2 0x557 DUP2 DUP5 PUSH2 0x504 JUMP JUMPDEST SWAP1 POP SWAP3 SWAP2 POP POP JUMP JUMPDEST PUSH1 0x0 DUP1 REVERT JUMPDEST PUSH1 0x0 DUP1 REVERT JUMPDEST PUSH32 0x4E487B7100000000000000000000000000000000000000000000000000000000 PUSH1 0x0 MSTORE PUSH1 0x41 PUSH1 0x4 MSTORE PUSH1 0x24 PUSH1 0x0 REVERT JUMPDEST PUSH2 0x5A1 DUP3 PUSH2 0x4F3 JUMP JUMPDEST DUP2 ADD DUP2 DUP2 LT PUSH8 0xFFFFFFFFFFFFFFFF DUP3 GT OR ISZERO PUSH2 0x5C0 JUMPI PUSH2 0x5BF PUSH2 0x569 JUMP JUMPDEST JUMPDEST DUP1 PUSH1 0x40 MSTORE POP POP POP JUMP JUMPDEST PUSH1 0x0 PUSH2 0x5D3 PUSH2 0x3D8 JUMP JUMPDEST SWAP1 POP PUSH2 0x5DF DUP3 DUP3 PUSH2 0x598 JUMP JUMPDEST SWAP2 SWAP1 POP JUMP JUMPDEST PUSH1 0x0 PUSH8 0xFFFFFFFFFFFFFFFF DUP3 GT ISZERO PUSH2 0x5FF JUMPI PUSH2 0x5FE PUSH2 0x569 JUMP JUMPDEST JUMPDEST PUSH2 0x608 DUP3 PUSH2 0x4F3 JUMP JUMPDEST SWAP1 POP PUSH1 0x20 DUP2 ADD SWAP1 POP SWAP2 SWAP1 POP JUMP JUMPDEST DUP3 DUP2 DUP4 CALLDATACOPY PUSH1 0x0 DUP4 DUP4 ADD MSTORE POP POP POP JUMP JUMPDEST PUSH1 0x0 PUSH2 0x637 PUSH2 0x632 DUP5 PUSH2 0x5E4 JUMP JUMPDEST PUSH2 0x5C9 JUMP JUMPDEST SWAP1 POP DUP3 DUP2 MSTORE PUSH1 0x20 DUP2 ADD DUP5 DUP5 DUP5 ADD GT ISZERO PUSH2 0x653 JUMPI PUSH2 0x652 PUSH2 0x564 JUMP JUMPDEST JUMPDEST PUSH2 0x65E DUP5 DUP3 DUP6 PUSH2 0x615 JUMP JUMPDEST POP SWAP4 SWAP3 POP POP POP JUMP JUMPDEST PUSH1 0x0 DUP3 PUSH1 0x1F DUP4 ADD SLT PUSH2 0x67B JUMPI PUSH2 0x67A PUSH2 0x55F JUMP JUMPDEST JUMPDEST DUP2 CALLDATALOAD PUSH2 0x68B DUP5 DUP3 PUSH1 0x20 DUP7 ADD PUSH2 0x624 JUMP JUMPDEST SWAP2 POP POP SWAP3 SWAP2 POP POP JUMP JUMPDEST PUSH1 0x0 PUSH1 0x20 DUP3 DUP5 SUB SLT ISZERO PUSH2 0x6AA JUMPI PUSH2 0x6A9 PUSH2 0x3E2 JUMP JUMPDEST JUMPDEST PUSH1 0x0 DUP3 ADD CALLDATALOAD PUSH8 0xFFFFFFFFFFFFFFFF DUP2 GT ISZERO PUSH2 0x6C8 JUMPI PUSH2 0x6C7 PUSH2 0x3E7 JUMP JUMPDEST JUMPDEST PUSH2 0x6D4 DUP5 DUP3 DUP6 ADD PUSH2 0x666 JUMP JUMPDEST SWAP2 POP POP SWAP3 SWAP2 POP POP JUMP JUMPDEST PUSH2 0x6E6 DUP2 PUSH2 0x40C JUMP JUMPDEST DUP3 MSTORE POP POP JUMP JUMPDEST PUSH1 0x0 PUSH1 0x20 DUP3 ADD SWAP1 POP PUSH2 0x701 PUSH1 0x0 DUP4 ADD DUP5 PUSH2 0x6DD JUMP JUMPDEST SWAP3 SWAP2 POP POP JUMP JUMPDEST PUSH32 0x4E487B7100000000000000000000000000000000000000000000000000000000 PUSH1 0x0 MSTORE PUSH1 0x22 PUSH1 0x4 MSTORE PUSH1 0x24 PUSH1 0x0 REVERT JUMPDEST PUSH1 0x0 PUSH1 0x2 DUP3 DIV SWAP1 POP PUSH1 0x1 DUP3 AND DUP1 PUSH2 0x74E JUMPI PUSH1 0x7F DUP3 AND SWAP2 POP JUMPDEST PUSH1 0x20 DUP3 LT DUP2 SUB PUSH2 0x761 JUMPI PUSH2 0x760 PUSH2 0x707 JUMP JUMPDEST JUMPDEST POP SWAP2 SWAP1 POP JUMP JUMPDEST PUSH1 0x0 DUP2 SWAP1 POP DUP2 PUSH1 0x0 MSTORE PUSH1 0x20 PUSH1 0x0 KECCAK256 SWAP1 POP SWAP2 SWAP1 POP JUMP JUMPDEST PUSH1 0x0 PUSH1 0x20 PUSH1 0x1F DUP4 ADD DIV SWAP1 POP SWAP2 SWAP1 POP JUMP JUMPDEST PUSH1 0x0 DUP3 DUP3 SHL SWAP1 POP SWAP3 SWAP2 POP POP JUMP JUMPDEST PUSH1 0x0 PUSH1 0x8 DUP4 MUL PUSH2 0x7C9 PUSH32 0xFFFFFFFFFFFFFFFFFFFFFFFFFFFFFFFFFFFFFFFFFFFFFFFFFFFFFFFFFFFFFFFF DUP3 PUSH2 0x78C JUMP JUMPDEST PUSH2 0x7D3 DUP7 DUP4 PUSH2 0x78C JUMP JUMPDEST SWAP6 POP DUP1 NOT DUP5 AND SWAP4 POP DUP1 DUP7 AND DUP5 OR SWAP3 POP POP POP SWAP4 SWAP3 POP POP POP JUMP JUMPDEST PUSH1 0x0 DUP2 SWAP1 POP SWAP2 SWAP1 POP JUMP JUMPDEST PUSH1 0x0 DUP2 SWAP1 POP SWAP2 SWAP1 POP JUMP JUMPDEST PUSH1 0x0 PUSH2 0x81A PUSH2 0x815 PUSH2 0x810 DUP5 PUSH2 0x7EB JUMP JUMPDEST PUSH2 0x7F5 JUMP JUMPDEST PUSH2 0x7EB JUMP JUMPDEST SWAP1 POP SWAP2 SWAP1 POP JUMP JUMPDEST PUSH1 0x0 DUP2 SWAP1 POP SWAP2 SWAP1 POP JUMP JUMPDEST PUSH2 0x834 DUP4 PUSH2 0x7FF JUMP JUMPDEST PUSH2 0x848 PUSH2 0x840 DUP3 PUSH2 0x821 JUMP JUMPDEST DUP5 DUP5 SLOAD PUSH2 0x799 JUMP JUMPDEST DUP3 SSTORE POP POP POP POP JUMP JUMPDEST PUSH1 0x0 SWAP1 JUMP JUMPDEST PUSH2 0x85D PUSH2 0x850 JUMP JUMPDEST PUSH2 0x868 DUP2 DUP5 DUP5 PUSH2 0x82B JUMP JUMPDEST POP POP POP JUMP JUMPDEST JUMPDEST DUP2 DUP2 LT ISZERO PUSH2 0x88C JUMPI PUSH2 0x881 PUSH1 0x0 DUP3 PUSH2 0x855 JUMP JUMPDEST PUSH1 0x1 DUP2 ADD SWAP1 POP PUSH2 0x86E JUMP JUMPDEST POP POP JUMP JUMPDEST PUSH1 0x1F DUP3 GT ISZERO PUSH2 0x8D1 JUMPI PUSH2 0x8A2 DUP2 PUSH2 0x767 JUMP JUMPDEST PUSH2 0x8AB DUP5 PUSH2 0x77C JUMP JUMPDEST DUP2 ADD PUSH1 0x20 DUP6 LT ISZERO PUSH2 0x8BA JUMPI DUP2 SWAP1 POP JUMPDEST PUSH2 0x8CE PUSH2 0x8C6 DUP6 PUSH2 0x77C JUMP JUMPDEST DUP4 ADD DUP3 PUSH2 0x86D JUMP JUMPDEST POP POP JUMPDEST POP POP POP JUMP JUMPDEST PUSH1 0x0 DUP3 DUP3 SHR SWAP1 POP SWAP3 SWAP2 POP POP JUMP JUMPDEST PUSH1 0x0 PUSH2 0x8F4 PUSH1 0x0 NOT DUP5 PUSH1 0x8 MUL PUSH2 0x8D6 JUMP JUMPDEST NOT DUP1 DUP4 AND SWAP2 POP POP SWAP3 SWAP2 POP POP JUMP JUMPDEST PUSH1 0x0 PUSH2 0x90D DUP4 DUP4 PUSH2 0x8E3 JUMP JUMPDEST SWAP2 POP DUP3 PUSH1 0x2 MUL DUP3 OR SWAP1 POP SWAP3 SWAP2 POP POP JUMP JUMPDEST PUSH2 0x926 DUP3 PUSH2 0x4AD JUMP JUMPDEST PUSH8 0xFFFFFFFFFFFFFFFF DUP2 GT ISZERO PUSH2 0x93F JUMPI PUSH2 0x93E PUSH2 0x569 JUMP JUMPDEST JUMPDEST PUSH2 0x949 DUP3 SLOAD PUSH2 0x736 JUMP JUMPDEST PUSH2 0x954 DUP3 DUP3 DUP6 PUSH2 0x890 JUMP JUMPDEST PUSH1 0x0 PUSH1 0x20 SWAP1 POP PUSH1 0x1F DUP4 GT PUSH1 0x1 DUP2 EQ PUSH2 0x987 JUMPI PUSH1 0x0 DUP5 ISZERO PUSH2 0x975 JUMPI DUP3 DUP8 ADD MLOAD SWAP1 POP JUMPDEST PUSH2 0x97F DUP6 DUP3 PUSH2 0x901 JUMP JUMPDEST DUP7 SSTORE POP PUSH2 0x9E7 JUMP JUMPDEST PUSH1 0x1F NOT DUP5 AND PUSH2 0x995 DUP7 PUSH2 0x767 JUMP JUMPDEST PUSH1 0x0 JUMPDEST DUP3 DUP2 LT ISZERO PUSH2 0x9BD JUMPI DUP5 DUP10 ADD MLOAD DUP3 SSTORE PUSH1 0x1 DUP3 ADD SWAP2 POP PUSH1 0x20 DUP6 ADD SWAP5 POP PUSH1 0x20 DUP2 ADD SWAP1 POP PUSH2 0x998 JUMP JUMPDEST DUP7 DUP4 LT ISZERO PUSH2 0x9DA JUMPI DUP5 DUP10 ADD MLOAD PUSH2 0x9D6 PUSH1 0x1F DUP10 AND DUP3 PUSH2 0x8E3 JUMP JUMPDEST DUP4 SSTORE POP JUMPDEST PUSH1 0x1 PUSH1 0x2 DUP9 MUL ADD DUP9 SSTORE POP POP POP JUMPDEST POP POP POP POP POP POP JUMP JUMPDEST PUSH1 0x0 PUSH1 0x40 DUP3 ADD SWAP1 POP PUSH2 0xA04 PUSH1 0x0 DUP4 ADD DUP6 PUSH2 0x6DD JUMP JUMPDEST PUSH2 0xA11 PUSH1 0x20 DUP4 ADD DUP5 PUSH2 0x6DD JUMP JUMPDEST SWAP4 SWAP3 POP POP POP JUMP INVALID PUSH1 0x80 PUSH1 0x40 MSTORE CALLVALUE DUP1 ISZERO PUSH2 0x10 JUMPI PUSH1 0x0 DUP1 REVERT JUMPDEST POP PUSH2 0x1689 DUP1 PUSH2 0x20 PUSH1 0x0 CODECOPY PUSH1 0x0 RETURN INVALID PUSH1 0x80 PUSH1 0x40 MSTORE PUSH1 0x4 CALLDATASIZE LT PUSH2 0xC2 JUMPI PUSH1 0x0 CALLDATALOAD PUSH1 0xE0 SHR DUP1 PUSH4 0x455772D2 GT PUSH2 0x7F JUMPI DUP1 PUSH4 0x8C468CD4 GT PUSH2 0x59 JUMPI DUP1 PUSH4 0x8C468CD4 EQ PUSH2 0x235 JUMPI DUP1 PUSH4 0xA324823C EQ PUSH2 0x272 JUMPI DUP1 PUSH4 0xD9A87535 EQ PUSH2 0x29D JUMPI DUP1 PUSH4 0xE8AFA68F EQ PUSH2 0x2DA JUMPI PUSH2 0xC2 JUMP JUMPDEST DUP1 PUSH4 0x455772D2 EQ PUSH2 0x1A2 JUMPI DUP1 PUSH4 0x572099B9 EQ PUSH2 0x1CD JUMPI DUP1 PUSH4 0x71942A01 EQ PUSH2 0x1F8 JUMPI PUSH2 0xC2 JUMP JUMPDEST DUP1 PUSH4 0x936098F EQ PUSH2 0xC7 JUMPI DUP1 PUSH4 0xA2BC366 EQ PUSH2 0xF2 JUMPI DUP1 PUSH4 0x1292A282 EQ PUSH2 0xFC JUMPI DUP1 PUSH4 0x273F868E EQ PUSH2 0x125 JUMPI DUP1 PUSH4 0x28F4694C EQ PUSH2 0x14E JUMPI DUP1 PUSH4 0x3C1AB2A3 EQ PUSH2 0x177 JUMPI JUMPDEST PUSH1 0x0 DUP1 REVERT JUMPDEST CALLVALUE DUP1 ISZERO PUSH2 0xD3 JUMPI PUSH1 0x0 DUP1 REVERT JUMPDEST POP PUSH2 0xDC PUSH2 0x305 JUMP JUMPDEST PUSH1 0x40 MLOAD PUSH2 0xE9 SWAP2 SWAP1 PUSH2 0xF6F JUMP JUMPDEST PUSH1 0x40 MLOAD DUP1 SWAP2 SUB SWAP1 RETURN JUMPDEST PUSH2 0xFA PUSH2 0x329 JUMP JUMPDEST STOP JUMPDEST CALLVALUE DUP1 ISZERO PUSH2 0x108 JUMPI PUSH1 0x0 DUP1 REVERT JUMPDEST POP PUSH2 0x123 PUSH1 0x4 DUP1 CALLDATASIZE SUB DUP2 ADD SWAP1 PUSH2 0x11E SWAP2 SWAP1 PUSH2 0xFBB JUMP JUMPDEST PUSH2 0x514 JUMP JUMPDEST STOP JUMPDEST CALLVALUE DUP1 ISZERO PUSH2 0x131 JUMPI PUSH1 0x0 DUP1 REVERT JUMPDEST POP PUSH2 0x14C PUSH1 0x4 DUP1 CALLDATASIZE SUB DUP2 ADD SWAP1 PUSH2 0x147 SWAP2 SWAP1 PUSH2 0xFBB JUMP JUMPDEST PUSH2 0x56B JUMP JUMPDEST STOP JUMPDEST CALLVALUE DUP1 ISZERO PUSH2 0x15A JUMPI PUSH1 0x0 DUP1 REVERT JUMPDEST POP PUSH2 0x175 PUSH1 0x4 DUP1 CALLDATASIZE SUB DUP2 ADD SWAP1 PUSH2 0x170 SWAP2 SWAP1 PUSH2 0xFBB JUMP JUMPDEST PUSH2 0x6FD JUMP JUMPDEST STOP JUMPDEST CALLVALUE DUP1 ISZERO PUSH2 0x183 JUMPI PUSH1 0x0 DUP1 REVERT JUMPDEST POP PUSH2 0x18C PUSH2 0x9DA JUMP JUMPDEST PUSH1 0x40 MLOAD PUSH2 0x199 SWAP2 SWAP1 PUSH2 0x1078 JUMP JUMPDEST PUSH1 0x40 MLOAD DUP1 SWAP2 SUB SWAP1 RETURN JUMPDEST CALLVALUE DUP1 ISZERO PUSH2 0x1AE JUMPI PUSH1 0x0 DUP1 REVERT JUMPDEST POP PUSH2 0x1B7 PUSH2 0xA68 JUMP JUMPDEST PUSH1 0x40 MLOAD PUSH2 0x1C4 SWAP2 SWAP1 PUSH2 0x1158 JUMP JUMPDEST PUSH1 0x40 MLOAD DUP1 SWAP2 SUB SWAP1 RETURN JUMPDEST CALLVALUE DUP1 ISZERO PUSH2 0x1D9 JUMPI PUSH1 0x0 DUP1 REVERT JUMPDEST POP PUSH2 0x1E2 PUSH2 0xAF6 JUMP JUMPDEST PUSH1 0x40 MLOAD PUSH2 0x1EF SWAP2 SWAP1 PUSH2 0xF6F JUMP JUMPDEST PUSH1 0x40 MLOAD DUP1 SWAP2 SUB SWAP1 RETURN JUMPDEST CALLVALUE DUP1 ISZERO PUSH2 0x204 JUMPI PUSH1 0x0 DUP1 REVERT JUMPDEST POP PUSH2 0x21F PUSH1 0x4 DUP1 CALLDATASIZE SUB DUP2 ADD SWAP1 PUSH2 0x21A SWAP2 SWAP1 PUSH2 0xFBB JUMP JUMPDEST PUSH2 0xB1C JUMP JUMPDEST PUSH1 0x40 MLOAD PUSH2 0x22C SWAP2 SWAP1 PUSH2 0x1195 JUMP JUMPDEST PUSH1 0x40 MLOAD DUP1 SWAP2 SUB SWAP1 RETURN JUMPDEST CALLVALUE DUP1 ISZERO PUSH2 0x241 JUMPI PUSH1 0x0 DUP1 REVERT JUMPDEST POP PUSH2 0x25C PUSH1 0x4 DUP1 CALLDATASIZE SUB DUP2 ADD SWAP1 PUSH2 0x257 SWAP2 SWAP1 PUSH2 0x11E6 JUMP JUMPDEST PUSH2 0xC25 JUMP JUMPDEST PUSH1 0x40 MLOAD PUSH2 0x269 SWAP2 SWAP1 PUSH2 0xF6F JUMP JUMPDEST PUSH1 0x40 MLOAD DUP1 SWAP2 SUB SWAP1 RETURN JUMPDEST CALLVALUE DUP1 ISZERO PUSH2 0x27E JUMPI PUSH1 0x0 DUP1 REVERT JUMPDEST POP PUSH2 0x287 PUSH2 0xC64 JUMP JUMPDEST PUSH1 0x40 MLOAD PUSH2 0x294 SWAP2 SWAP1 PUSH2 0x1078 JUMP JUMPDEST PUSH1 0x40 MLOAD DUP1 SWAP2 SUB SWAP1 RETURN JUMPDEST CALLVALUE DUP1 ISZERO PUSH2 0x2A9 JUMPI PUSH1 0x0 DUP1 REVERT JUMPDEST POP PUSH2 0x2C4 PUSH1 0x4 DUP1 CALLDATASIZE SUB DUP2 ADD SWAP1 PUSH2 0x2BF SWAP2 SWAP1 PUSH2 0xFBB JUMP JUMPDEST PUSH2 0xCF2 JUMP JUMPDEST PUSH1 0x40 MLOAD PUSH2 0x2D1 SWAP2 SWAP1 PUSH2 0x1222 JUMP JUMPDEST PUSH1 0x40 MLOAD DUP1 SWAP2 SUB SWAP1 RETURN JUMPDEST CALLVALUE DUP1 ISZERO PUSH2 0x2E6 JUMPI PUSH1 0x0 DUP1 REVERT JUMPDEST POP PUSH2 0x2EF PUSH2 0xD3E JUMP JUMPDEST PUSH1 0x40 MLOAD PUSH2 0x2FC SWAP2 SWAP1 PUSH2 0xF6F JUMP JUMPDEST PUSH1 0x40 MLOAD DUP1 SWAP2 SUB SWAP1 RETURN JUMPDEST PUSH1 0x0 DUP1 SLOAD SWAP1 PUSH2 0x100 EXP SWAP1 DIV PUSH20 0xFFFFFFFFFFFFFFFFFFFFFFFFFFFFFFFFFFFFFFFF AND DUP2 JUMP JUMPDEST PUSH1 0x6 PUSH1 0x0 CALLER PUSH20 0xFFFFFFFFFFFFFFFFFFFFFFFFFFFFFFFFFFFFFFFF AND PUSH20 0xFFFFFFFFFFFFFFFFFFFFFFFFFFFFFFFFFFFFFFFF AND DUP2 MSTORE PUSH1 0x20 ADD SWAP1 DUP2 MSTORE PUSH1 0x20 ADD PUSH1 0x0 KECCAK256 PUSH1 0x0 SWAP1 SLOAD SWAP1 PUSH2 0x100 EXP SWAP1 DIV PUSH1 0xFF AND ISZERO PUSH2 0x3B6 JUMPI PUSH1 0x40 MLOAD PUSH32 0x8C379A000000000000000000000000000000000000000000000000000000000 DUP2 MSTORE PUSH1 0x4 ADD PUSH2 0x3AD SWAP1 PUSH2 0x1289 JUMP JUMPDEST PUSH1 0x40 MLOAD DUP1 SWAP2 SUB SWAP1 REVERT JUMPDEST PUSH32 0xFFFFFFFFFFFFFFFFFFFFFFFFFFFFFFFFFFFFFFFFFFFFFFFFFFFFFFFFFFFFFFFD PUSH1 0x5 PUSH1 0x0 CALLER PUSH20 0xFFFFFFFFFFFFFFFFFFFFFFFFFFFFFFFFFFFFFFFF AND PUSH20 0xFFFFFFFFFFFFFFFFFFFFFFFFFFFFFFFFFFFFFFFF AND DUP2 MSTORE PUSH1 0x20 ADD SWAP1 DUP2 MSTORE PUSH1 0x20 ADD PUSH1 0x0 KECCAK256 SLOAD SGT PUSH2 0x457 JUMPI PUSH1 0x40 MLOAD PUSH32 0x8C379A000000000000000000000000000000000000000000000000000000000 DUP2 MSTORE PUSH1 0x4 ADD PUSH2 0x44E SWAP1 PUSH2 0x12F5 JUMP JUMPDEST PUSH1 0x40 MLOAD DUP1 SWAP2 SUB SWAP1 REVERT JUMPDEST PUSH1 0x1 PUSH1 0x6 PUSH1 0x0 CALLER PUSH20 0xFFFFFFFFFFFFFFFFFFFFFFFFFFFFFFFFFFFFFFFF AND PUSH20 0xFFFFFFFFFFFFFFFFFFFFFFFFFFFFFFFFFFFFFFFF AND DUP2 MSTORE PUSH1 0x20 ADD SWAP1 DUP2 MSTORE PUSH1 0x20 ADD PUSH1 0x0 KECCAK256 PUSH1 0x0 PUSH2 0x100 EXP DUP2 SLOAD DUP2 PUSH1 0xFF MUL NOT AND SWAP1 DUP4 ISZERO ISZERO MUL OR SWAP1 SSTORE POP PUSH1 0x3 CALLER SWAP1 DUP1 PUSH1 0x1 DUP2 SLOAD ADD DUP1 DUP3 SSTORE DUP1 SWAP2 POP POP PUSH1 0x1 SWAP1 SUB SWAP1 PUSH1 0x0 MSTORE PUSH1 0x20 PUSH1 0x0 KECCAK256 ADD PUSH1 0x0 SWAP1 SWAP2 SWAP1 SWAP2 SWAP1 SWAP2 PUSH2 0x100 EXP DUP2 SLOAD DUP2 PUSH20 0xFFFFFFFFFFFFFFFFFFFFFFFFFFFFFFFFFFFFFFFF MUL NOT AND SWAP1 DUP4 PUSH20 0xFFFFFFFFFFFFFFFFFFFFFFFFFFFFFFFFFFFFFFFF AND MUL OR SWAP1 SSTORE POP JUMP JUMPDEST PUSH2 0x51D DUP2 PUSH2 0xD64 JUMP JUMPDEST PUSH1 0x4 PUSH1 0x0 CALLER PUSH20 0xFFFFFFFFFFFFFFFFFFFFFFFFFFFFFFFFFFFFFFFF AND PUSH20 0xFFFFFFFFFFFFFFFFFFFFFFFFFFFFFFFFFFFFFFFF AND DUP2 MSTORE PUSH1 0x20 ADD SWAP1 DUP2 MSTORE PUSH1 0x20 ADD PUSH1 0x0 KECCAK256 PUSH1 0x0 PUSH2 0x568 SWAP2 SWAP1 PUSH2 0xEF0 JUMP JUMPDEST POP JUMP JUMPDEST PUSH1 0x6 PUSH1 0x0 DUP3 PUSH20 0xFFFFFFFFFFFFFFFFFFFFFFFFFFFFFFFFFFFFFFFF AND PUSH20 0xFFFFFFFFFFFFFFFFFFFFFFFFFFFFFFFFFFFFFFFF AND DUP2 MSTORE PUSH1 0x20 ADD SWAP1 DUP2 MSTORE PUSH1 0x20 ADD PUSH1 0x0 KECCAK256 PUSH1 0x0 SWAP1 SLOAD SWAP1 PUSH2 0x100 EXP SWAP1 DIV PUSH1 0xFF AND PUSH2 0x5F7 JUMPI PUSH1 0x40 MLOAD PUSH32 0x8C379A000000000000000000000000000000000000000000000000000000000 DUP2 MSTORE PUSH1 0x4 ADD PUSH2 0x5EE SWAP1 PUSH2 0x1361 JUMP JUMPDEST PUSH1 0x40 MLOAD DUP1 SWAP2 SUB SWAP1 REVERT JUMPDEST PUSH1 0x0 PUSH1 0x6 PUSH1 0x0 DUP4 PUSH20 0xFFFFFFFFFFFFFFFFFFFFFFFFFFFFFFFFFFFFFFFF AND PUSH20 0xFFFFFFFFFFFFFFFFFFFFFFFFFFFFFFFFFFFFFFFF AND DUP2 MSTORE PUSH1 0x20 ADD SWAP1 DUP2 MSTORE PUSH1 0x20 ADD PUSH1 0x0 KECCAK256 PUSH1 0x0 PUSH2 0x100 EXP DUP2 SLOAD DUP2 PUSH1 0xFF MUL NOT AND SWAP1 DUP4 ISZERO ISZERO MUL OR SWAP1 SSTORE POP PUSH1 0x1 PUSH1 0x5 PUSH1 0x0 CALLER PUSH20 0xFFFFFFFFFFFFFFFFFFFFFFFFFFFFFFFFFFFFFFFF AND PUSH20 0xFFFFFFFFFFFFFFFFFFFFFFFFFFFFFFFFFFFFFFFF AND DUP2 MSTORE PUSH1 0x20 ADD SWAP1 DUP2 MSTORE PUSH1 0x20 ADD PUSH1 0x0 KECCAK256 PUSH1 0x0 DUP3 DUP3 SLOAD PUSH2 0x69F SWAP2 SWAP1 PUSH2 0x13BA JUMP JUMPDEST SWAP3 POP POP DUP2 SWAP1 SSTORE POP PUSH2 0x6AF DUP2 PUSH2 0xD64 JUMP JUMPDEST PUSH1 0x4 PUSH1 0x0 CALLER PUSH20 0xFFFFFFFFFFFFFFFFFFFFFFFFFFFFFFFFFFFFFFFF AND PUSH20 0xFFFFFFFFFFFFFFFFFFFFFFFFFFFFFFFFFFFFFFFF AND DUP2 MSTORE PUSH1 0x20 ADD SWAP1 DUP2 MSTORE PUSH1 0x20 ADD PUSH1 0x0 KECCAK256 PUSH1 0x0 PUSH2 0x6FA SWAP2 SWAP1 PUSH2 0xEF0 JUMP JUMPDEST POP JUMP JUMPDEST PUSH1 0x6 PUSH1 0x0 DUP3 PUSH20 0xFFFFFFFFFFFFFFFFFFFFFFFFFFFFFFFFFFFFFFFF AND PUSH20 0xFFFFFFFFFFFFFFFFFFFFFFFFFFFFFFFFFFFFFFFF AND DUP2 MSTORE PUSH1 0x20 ADD SWAP1 DUP2 MSTORE PUSH1 0x20 ADD PUSH1 0x0 KECCAK256 PUSH1 0x0 SWAP1 SLOAD SWAP1 PUSH2 0x100 EXP SWAP1 DIV PUSH1 0xFF AND PUSH2 0x789 JUMPI PUSH1 0x40 MLOAD PUSH32 0x8C379A000000000000000000000000000000000000000000000000000000000 DUP2 MSTORE PUSH1 0x4 ADD PUSH2 0x780 SWAP1 PUSH2 0x1449 JUMP JUMPDEST PUSH1 0x40 MLOAD DUP1 SWAP2 SUB SWAP1 REVERT JUMPDEST PUSH1 0x0 DUP1 JUMPDEST PUSH1 0x4 PUSH1 0x0 DUP5 PUSH20 0xFFFFFFFFFFFFFFFFFFFFFFFFFFFFFFFFFFFFFFFF AND PUSH20 0xFFFFFFFFFFFFFFFFFFFFFFFFFFFFFFFFFFFFFFFF AND DUP2 MSTORE PUSH1 0x20 ADD SWAP1 DUP2 MSTORE PUSH1 0x20 ADD PUSH1 0x0 KECCAK256 DUP1 SLOAD SWAP1 POP DUP2 LT ISZERO PUSH2 0x89D JUMPI CALLER PUSH20 0xFFFFFFFFFFFFFFFFFFFFFFFFFFFFFFFFFFFFFFFF AND PUSH1 0x4 PUSH1 0x0 DUP6 PUSH20 0xFFFFFFFFFFFFFFFFFFFFFFFFFFFFFFFFFFFFFFFF AND PUSH20 0xFFFFFFFFFFFFFFFFFFFFFFFFFFFFFFFFFFFFFFFF AND DUP2 MSTORE PUSH1 0x20 ADD SWAP1 DUP2 MSTORE PUSH1 0x20 ADD PUSH1 0x0 KECCAK256 DUP3 DUP2 SLOAD DUP2 LT PUSH2 0x83F JUMPI PUSH2 0x83E PUSH2 0x1469 JUMP JUMPDEST JUMPDEST SWAP1 PUSH1 0x0 MSTORE PUSH1 0x20 PUSH1 0x0 KECCAK256 ADD PUSH1 0x0 SWAP1 SLOAD SWAP1 PUSH2 0x100 EXP SWAP1 DIV PUSH20 0xFFFFFFFFFFFFFFFFFFFFFFFFFFFFFFFFFFFFFFFF AND PUSH20 0xFFFFFFFFFFFFFFFFFFFFFFFFFFFFFFFFFFFFFFFF AND SUB PUSH2 0x88A JUMPI PUSH1 0x1 SWAP2 POP JUMPDEST DUP1 DUP1 PUSH2 0x895 SWAP1 PUSH2 0x1498 JUMP JUMPDEST SWAP2 POP POP PUSH2 0x78D JUMP JUMPDEST POP DUP1 ISZERO PUSH2 0x8DF JUMPI PUSH1 0x40 MLOAD PUSH32 0x8C379A000000000000000000000000000000000000000000000000000000000 DUP2 MSTORE PUSH1 0x4 ADD PUSH2 0x8D6 SWAP1 PUSH2 0x152C JUMP JUMPDEST PUSH1 0x40 MLOAD DUP1 SWAP2 SUB SWAP1 REVERT JUMPDEST PUSH1 0x4 PUSH1 0x0 DUP4 PUSH20 0xFFFFFFFFFFFFFFFFFFFFFFFFFFFFFFFFFFFFFFFF AND PUSH20 0xFFFFFFFFFFFFFFFFFFFFFFFFFFFFFFFFFFFFFFFF AND DUP2 MSTORE PUSH1 0x20 ADD SWAP1 DUP2 MSTORE PUSH1 0x20 ADD PUSH1 0x0 KECCAK256 CALLER SWAP1 DUP1 PUSH1 0x1 DUP2 SLOAD ADD DUP1 DUP3 SSTORE DUP1 SWAP2 POP POP PUSH1 0x1 SWAP1 SUB SWAP1 PUSH1 0x0 MSTORE PUSH1 0x20 PUSH1 0x0 KECCAK256 ADD PUSH1 0x0 SWAP1 SWAP2 SWAP1 SWAP2 SWAP1 SWAP2 PUSH2 0x100 EXP DUP2 SLOAD DUP2 PUSH20 0xFFFFFFFFFFFFFFFFFFFFFFFFFFFFFFFFFFFFFFFF MUL NOT AND SWAP1 DUP4 PUSH20 0xFFFFFFFFFFFFFFFFFFFFFFFFFFFFFFFFFFFFFFFF AND MUL OR SWAP1 SSTORE POP PUSH1 0x1 PUSH1 0x5 PUSH1 0x0 DUP5 PUSH20 0xFFFFFFFFFFFFFFFFFFFFFFFFFFFFFFFFFFFFFFFF AND PUSH20 0xFFFFFFFFFFFFFFFFFFFFFFFFFFFFFFFFFFFFFFFF AND DUP2 MSTORE PUSH1 0x20 ADD SWAP1 DUP2 MSTORE PUSH1 0x20 ADD PUSH1 0x0 KECCAK256 PUSH1 0x0 DUP3 DUP3 SLOAD PUSH2 0x9CF SWAP2 SWAP1 PUSH2 0x154C JUMP JUMPDEST SWAP3 POP POP DUP2 SWAP1 SSTORE POP POP POP JUMP JUMPDEST PUSH1 0x7 DUP1 SLOAD PUSH2 0x9E7 SWAP1 PUSH2 0x15BF JUMP JUMPDEST DUP1 PUSH1 0x1F ADD PUSH1 0x20 DUP1 SWAP2 DIV MUL PUSH1 0x20 ADD PUSH1 0x40 MLOAD SWAP1 DUP2 ADD PUSH1 0x40 MSTORE DUP1 SWAP3 SWAP2 SWAP1 DUP2 DUP2 MSTORE PUSH1 0x20 ADD DUP3 DUP1 SLOAD PUSH2 0xA13 SWAP1 PUSH2 0x15BF JUMP JUMPDEST DUP1 ISZERO PUSH2 0xA60 JUMPI DUP1 PUSH1 0x1F LT PUSH2 0xA35 JUMPI PUSH2 0x100 DUP1 DUP4 SLOAD DIV MUL DUP4 MSTORE SWAP2 PUSH1 0x20 ADD SWAP2 PUSH2 0xA60 JUMP JUMPDEST DUP3 ADD SWAP2 SWAP1 PUSH1 0x0 MSTORE PUSH1 0x20 PUSH1 0x0 KECCAK256 SWAP1 JUMPDEST DUP2 SLOAD DUP2 MSTORE SWAP1 PUSH1 0x1 ADD SWAP1 PUSH1 0x20 ADD DUP1 DUP4 GT PUSH2 0xA43 JUMPI DUP3 SWAP1 SUB PUSH1 0x1F AND DUP3 ADD SWAP2 JUMPDEST POP POP POP POP POP DUP2 JUMP JUMPDEST PUSH1 0x60 PUSH1 0x3 DUP1 SLOAD DUP1 PUSH1 0x20 MUL PUSH1 0x20 ADD PUSH1 0x40 MLOAD SWAP1 DUP2 ADD PUSH1 0x40 MSTORE DUP1 SWAP3 SWAP2 SWAP1 DUP2 DUP2 MSTORE PUSH1 0x20 ADD DUP3 DUP1 SLOAD DUP1 ISZERO PUSH2 0xAEC JUMPI PUSH1 0x20 MUL DUP3 ADD SWAP2 SWAP1 PUSH1 0x0 MSTORE PUSH1 0x20 PUSH1 0x0 KECCAK256 SWAP1 JUMPDEST DUP2 PUSH1 0x0 SWAP1 SLOAD SWAP1 PUSH2 0x100 EXP SWAP1 DIV PUSH20 0xFFFFFFFFFFFFFFFFFFFFFFFFFFFFFFFFFFFFFFFF AND PUSH20 0xFFFFFFFFFFFFFFFFFFFFFFFFFFFFFFFFFFFFFFFF AND DUP2 MSTORE PUSH1 0x20 ADD SWAP1 PUSH1 0x1 ADD SWAP1 DUP1 DUP4 GT PUSH2 0xAA2 JUMPI JUMPDEST POP POP POP POP POP SWAP1 POP SWAP1 JUMP JUMPDEST PUSH1 0x2 PUSH1 0x0 SWAP1 SLOAD SWAP1 PUSH2 0x100 EXP SWAP1 DIV PUSH20 0xFFFFFFFFFFFFFFFFFFFFFFFFFFFFFFFFFFFFFFFF AND DUP2 JUMP JUMPDEST PUSH1 0x0 DUP1 PUSH1 0x0 SWAP1 SLOAD SWAP1 PUSH2 0x100 EXP SWAP1 DIV PUSH20 0xFFFFFFFFFFFFFFFFFFFFFFFFFFFFFFFFFFFFFFFF AND PUSH20 0xFFFFFFFFFFFFFFFFFFFFFFFFFFFFFFFFFFFFFFFF AND DUP3 PUSH20 0xFFFFFFFFFFFFFFFFFFFFFFFFFFFFFFFFFFFFFFFF AND EQ DUP1 PUSH2 0xBC6 JUMPI POP PUSH1 0x1 PUSH1 0x0 SWAP1 SLOAD SWAP1 PUSH2 0x100 EXP SWAP1 DIV PUSH20 0xFFFFFFFFFFFFFFFFFFFFFFFFFFFFFFFFFFFFFFFF AND PUSH20 0xFFFFFFFFFFFFFFFFFFFFFFFFFFFFFFFFFFFFFFFF AND DUP3 PUSH20 0xFFFFFFFFFFFFFFFFFFFFFFFFFFFFFFFFFFFFFFFF AND EQ JUMPDEST DUP1 PUSH2 0xC1E JUMPI POP PUSH1 0x2 PUSH1 0x0 SWAP1 SLOAD SWAP1 PUSH2 0x100 EXP SWAP1 DIV PUSH20 0xFFFFFFFFFFFFFFFFFFFFFFFFFFFFFFFFFFFFFFFF AND PUSH20 0xFFFFFFFFFFFFFFFFFFFFFFFFFFFFFFFFFFFFFFFF AND DUP3 PUSH20 0xFFFFFFFFFFFFFFFFFFFFFFFFFFFFFFFFFFFFFFFF AND EQ JUMPDEST SWAP1 POP SWAP2 SWAP1 POP JUMP JUMPDEST PUSH1 0x3 DUP2 DUP2 SLOAD DUP2 LT PUSH2 0xC35 JUMPI PUSH1 0x0 DUP1 REVERT JUMPDEST SWAP1 PUSH1 0x0 MSTORE PUSH1 0x20 PUSH1 0x0 KECCAK256 ADD PUSH1 0x0 SWAP2 POP SLOAD SWAP1 PUSH2 0x100 EXP SWAP1 DIV PUSH20 0xFFFFFFFFFFFFFFFFFFFFFFFFFFFFFFFFFFFFFFFF AND DUP2 JUMP JUMPDEST PUSH1 0x8 DUP1 SLOAD PUSH2 0xC71 SWAP1 PUSH2 0x15BF JUMP JUMPDEST DUP1 PUSH1 0x1F ADD PUSH1 0x20 DUP1 SWAP2 DIV MUL PUSH1 0x20 ADD PUSH1 0x40 MLOAD SWAP1 DUP2 ADD PUSH1 0x40 MSTORE DUP1 SWAP3 SWAP2 SWAP1 DUP2 DUP2 MSTORE PUSH1 0x20 ADD DUP3 DUP1 SLOAD PUSH2 0xC9D SWAP1 PUSH2 0x15BF JUMP JUMPDEST DUP1 ISZERO PUSH2 0xCEA JUMPI DUP1 PUSH1 0x1F LT PUSH2 0xCBF JUMPI PUSH2 0x100 DUP1 DUP4 SLOAD DIV MUL DUP4 MSTORE SWAP2 PUSH1 0x20 ADD SWAP2 PUSH2 0xCEA JUMP JUMPDEST DUP3 ADD SWAP2 SWAP1 PUSH1 0x0 MSTORE PUSH1 0x20 PUSH1 0x0 KECCAK256 SWAP1 JUMPDEST DUP2 SLOAD DUP2 MSTORE SWAP1 PUSH1 0x1 ADD SWAP1 PUSH1 0x20 ADD DUP1 DUP4 GT PUSH2 0xCCD JUMPI DUP3 SWAP1 SUB PUSH1 0x1F AND DUP3 ADD SWAP2 JUMPDEST POP POP POP POP POP DUP2 JUMP JUMPDEST PUSH1 0x0 PUSH1 0x4 PUSH1 0x0 DUP4 PUSH20 0xFFFFFFFFFFFFFFFFFFFFFFFFFFFFFFFFFFFFFFFF AND PUSH20 0xFFFFFFFFFFFFFFFFFFFFFFFFFFFFFFFFFFFFFFFF AND DUP2 MSTORE PUSH1 0x20 ADD SWAP1 DUP2 MSTORE PUSH1 0x20 ADD PUSH1 0x0 KECCAK256 DUP1 SLOAD SWAP1 POP SWAP1 POP SWAP2 SWAP1 POP JUMP JUMPDEST PUSH1 0x1 PUSH1 0x0 SWAP1 SLOAD SWAP1 PUSH2 0x100 EXP SWAP1 DIV PUSH20 0xFFFFFFFFFFFFFFFFFFFFFFFFFFFFFFFFFFFFFFFF AND DUP2 JUMP JUMPDEST PUSH1 0x0 JUMPDEST PUSH1 0x3 DUP1 SLOAD SWAP1 POP DUP2 LT ISZERO PUSH2 0xDF9 JUMPI DUP2 PUSH20 0xFFFFFFFFFFFFFFFFFFFFFFFFFFFFFFFFFFFFFFFF AND PUSH1 0x3 DUP3 DUP2 SLOAD DUP2 LT PUSH2 0xD9F JUMPI PUSH2 0xD9E PUSH2 0x1469 JUMP JUMPDEST JUMPDEST SWAP1 PUSH1 0x0 MSTORE PUSH1 0x20 PUSH1 0x0 KECCAK256 ADD PUSH1 0x0 SWAP1 SLOAD SWAP1 PUSH2 0x100 EXP SWAP1 DIV PUSH20 0xFFFFFFFFFFFFFFFFFFFFFFFFFFFFFFFFFFFFFFFF AND PUSH20 0xFFFFFFFFFFFFFFFFFFFFFFFFFFFFFFFFFFFFFFFF AND SUB ISZERO PUSH2 0xDF9 JUMPI DUP1 DUP1 PUSH2 0xDF1 SWAP1 PUSH2 0x1498 JUMP JUMPDEST SWAP2 POP POP PUSH2 0xD67 JUMP JUMPDEST PUSH1 0x3 PUSH1 0x1 PUSH1 0x3 DUP1 SLOAD SWAP1 POP PUSH2 0xE0D SWAP2 SWAP1 PUSH2 0x15F0 JUMP JUMPDEST DUP2 SLOAD DUP2 LT PUSH2 0xE1E JUMPI PUSH2 0xE1D PUSH2 0x1469 JUMP JUMPDEST JUMPDEST SWAP1 PUSH1 0x0 MSTORE PUSH1 0x20 PUSH1 0x0 KECCAK256 ADD PUSH1 0x0 SWAP1 SLOAD SWAP1 PUSH2 0x100 EXP SWAP1 DIV PUSH20 0xFFFFFFFFFFFFFFFFFFFFFFFFFFFFFFFFFFFFFFFF AND PUSH1 0x3 DUP3 DUP2 SLOAD DUP2 LT PUSH2 0xE5D JUMPI PUSH2 0xE5C PUSH2 0x1469 JUMP JUMPDEST JUMPDEST SWAP1 PUSH1 0x0 MSTORE PUSH1 0x20 PUSH1 0x0 KECCAK256 ADD PUSH1 0x0 PUSH2 0x100 EXP DUP2 SLOAD DUP2 PUSH20 0xFFFFFFFFFFFFFFFFFFFFFFFFFFFFFFFFFFFFFFFF MUL NOT AND SWAP1 DUP4 PUSH20 0xFFFFFFFFFFFFFFFFFFFFFFFFFFFFFFFFFFFFFFFF AND MUL OR SWAP1 SSTORE POP PUSH1 0x3 DUP1 SLOAD DUP1 PUSH2 0xEB7 JUMPI PUSH2 0xEB6 PUSH2 0x1624 JUMP JUMPDEST JUMPDEST PUSH1 0x1 SWAP1 SUB DUP2 DUP2 SWAP1 PUSH1 0x0 MSTORE PUSH1 0x20 PUSH1 0x0 KECCAK256 ADD PUSH1 0x0 PUSH2 0x100 EXP DUP2 SLOAD SWAP1 PUSH20 0xFFFFFFFFFFFFFFFFFFFFFFFFFFFFFFFFFFFFFFFF MUL NOT AND SWAP1 SSTORE SWAP1 SSTORE POP POP JUMP JUMPDEST POP DUP1 SLOAD PUSH1 0x0 DUP3 SSTORE SWAP1 PUSH1 0x0 MSTORE PUSH1 0x20 PUSH1 0x0 KECCAK256 SWAP1 DUP2 ADD SWAP1 PUSH2 0xF0E SWAP2 SWAP1 PUSH2 0xF11 JUMP JUMPDEST POP JUMP JUMPDEST JUMPDEST DUP1 DUP3 GT ISZERO PUSH2 0xF2A JUMPI PUSH1 0x0 DUP2 PUSH1 0x0 SWAP1 SSTORE POP PUSH1 0x1 ADD PUSH2 0xF12 JUMP JUMPDEST POP SWAP1 JUMP JUMPDEST PUSH1 0x0 PUSH20 0xFFFFFFFFFFFFFFFFFFFFFFFFFFFFFFFFFFFFFFFF DUP3 AND SWAP1 POP SWAP2 SWAP1 POP JUMP JUMPDEST PUSH1 0x0 PUSH2 0xF59 DUP3 PUSH2 0xF2E JUMP JUMPDEST SWAP1 POP SWAP2 SWAP1 POP JUMP JUMPDEST PUSH2 0xF69 DUP2 PUSH2 0xF4E JUMP JUMPDEST DUP3 MSTORE POP POP JUMP JUMPDEST PUSH1 0x0 PUSH1 0x20 DUP3 ADD SWAP1 POP PUSH2 0xF84 PUSH1 0x0 DUP4 ADD DUP5 PUSH2 0xF60 JUMP JUMPDEST SWAP3 SWAP2 POP POP JUMP JUMPDEST PUSH1 0x0 DUP1 REVERT JUMPDEST PUSH2 0xF98 DUP2 PUSH2 0xF4E JUMP JUMPDEST DUP2 EQ PUSH2 0xFA3 JUMPI PUSH1 0x0 DUP1 REVERT JUMPDEST POP JUMP JUMPDEST PUSH1 0x0 DUP2 CALLDATALOAD SWAP1 POP PUSH2 0xFB5 DUP2 PUSH2 0xF8F JUMP JUMPDEST SWAP3 SWAP2 POP POP JUMP JUMPDEST PUSH1 0x0 PUSH1 0x20 DUP3 DUP5 SUB SLT ISZERO PUSH2 0xFD1 JUMPI PUSH2 0xFD0 PUSH2 0xF8A JUMP JUMPDEST JUMPDEST PUSH1 0x0 PUSH2 0xFDF DUP5 DUP3 DUP6 ADD PUSH2 0xFA6 JUMP JUMPDEST SWAP2 POP POP SWAP3 SWAP2 POP POP JUMP JUMPDEST PUSH1 0x0 DUP2 MLOAD SWAP1 POP SWAP2 SWAP1 POP JUMP JUMPDEST PUSH1 0x0 DUP3 DUP3 MSTORE PUSH1 0x20 DUP3 ADD SWAP1 POP SWAP3 SWAP2 POP POP JUMP JUMPDEST PUSH1 0x0 JUMPDEST DUP4 DUP2 LT ISZERO PUSH2 0x1022 JUMPI DUP1 DUP3 ADD MLOAD DUP2 DUP5 ADD MSTORE PUSH1 0x20 DUP2 ADD SWAP1 POP PUSH2 0x1007 JUMP JUMPDEST PUSH1 0x0 DUP5 DUP5 ADD MSTORE POP POP POP POP JUMP JUMPDEST PUSH1 0x0 PUSH1 0x1F NOT PUSH1 0x1F DUP4 ADD AND SWAP1 POP SWAP2 SWAP1 POP JUMP JUMPDEST PUSH1 0x0 PUSH2 0x104A DUP3 PUSH2 0xFE8 JUMP JUMPDEST PUSH2 0x1054 DUP2 DUP6 PUSH2 0xFF3 JUMP JUMPDEST SWAP4 POP PUSH2 0x1064 DUP2 DUP6 PUSH1 0x20 DUP7 ADD PUSH2 0x1004 JUMP JUMPDEST PUSH2 0x106D DUP2 PUSH2 0x102E JUMP JUMPDEST DUP5 ADD SWAP2 POP POP SWAP3 SWAP2 POP POP JUMP JUMPDEST PUSH1 0x0 PUSH1 0x20 DUP3 ADD SWAP1 POP DUP2 DUP2 SUB PUSH1 0x0 DUP4 ADD MSTORE PUSH2 0x1092 DUP2 DUP5 PUSH2 0x103F JUMP JUMPDEST SWAP1 POP SWAP3 SWAP2 POP POP JUMP JUMPDEST PUSH1 0x0 DUP2 MLOAD SWAP1 POP SWAP2 SWAP1 POP JUMP JUMPDEST PUSH1 0x0 DUP3 DUP3 MSTORE PUSH1 0x20 DUP3 ADD SWAP1 POP SWAP3 SWAP2 POP POP JUMP JUMPDEST PUSH1 0x0 DUP2 SWAP1 POP PUSH1 0x20 DUP3 ADD SWAP1 POP SWAP2 SWAP1 POP JUMP JUMPDEST PUSH2 0x10CF DUP2 PUSH2 0xF4E JUMP JUMPDEST DUP3 MSTORE POP POP JUMP JUMPDEST PUSH1 0x0 PUSH2 0x10E1 DUP4 DUP4 PUSH2 0x10C6 JUMP JUMPDEST PUSH1 0x20 DUP4 ADD SWAP1 POP SWAP3 SWAP2 POP POP JUMP JUMPDEST PUSH1 0x0 PUSH1 0x20 DUP3 ADD SWAP1 POP SWAP2 SWAP1 POP JUMP JUMPDEST PUSH1 0x0 PUSH2 0x1105 DUP3 PUSH2 0x109A JUMP JUMPDEST PUSH2 0x110F DUP2 DUP6 PUSH2 0x10A5 JUMP JUMPDEST SWAP4 POP PUSH2 0x111A DUP4 PUSH2 0x10B6 JUMP JUMPDEST DUP1 PUSH1 0x0 JUMPDEST DUP4 DUP2 LT ISZERO PUSH2 0x114B JUMPI DUP2 MLOAD PUSH2 0x1132 DUP9 DUP3 PUSH2 0x10D5 JUMP JUMPDEST SWAP8 POP PUSH2 0x113D DUP4 PUSH2 0x10ED JUMP JUMPDEST SWAP3 POP POP PUSH1 0x1 DUP2 ADD SWAP1 POP PUSH2 0x111E JUMP JUMPDEST POP DUP6 SWAP4 POP POP POP POP SWAP3 SWAP2 POP POP JUMP JUMPDEST PUSH1 0x0 PUSH1 0x20 DUP3 ADD SWAP1 POP DUP2 DUP2 SUB PUSH1 0x0 DUP4 ADD MSTORE PUSH2 0x1172 DUP2 DUP5 PUSH2 0x10FA JUMP JUMPDEST SWAP1 POP SWAP3 SWAP2 POP POP JUMP JUMPDEST PUSH1 0x0 DUP2 ISZERO ISZERO SWAP1 POP SWAP2 SWAP1 POP JUMP JUMPDEST PUSH2 0x118F DUP2 PUSH2 0x117A JUMP JUMPDEST DUP3 MSTORE POP POP JUMP JUMPDEST PUSH1 0x0 PUSH1 0x20 DUP3 ADD SWAP1 POP PUSH2 0x11AA PUSH1 0x0 DUP4 ADD DUP5 PUSH2 0x1186 JUMP JUMPDEST SWAP3 SWAP2 POP POP JUMP JUMPDEST PUSH1 0x0 DUP2 SWAP1 POP SWAP2 SWAP1 POP JUMP JUMPDEST PUSH2 0x11C3 DUP2 PUSH2 0x11B0 JUMP JUMPDEST DUP2 EQ PUSH2 0x11CE JUMPI PUSH1 0x0 DUP1 REVERT JUMPDEST POP JUMP JUMPDEST PUSH1 0x0 DUP2 CALLDATALOAD SWAP1 POP PUSH2 0x11E0 DUP2 PUSH2 0x11BA JUMP JUMPDEST SWAP3 SWAP2 POP POP JUMP JUMPDEST PUSH1 0x0 PUSH1 0x20 DUP3 DUP5 SUB SLT ISZERO PUSH2 0x11FC JUMPI PUSH2 0x11FB PUSH2 0xF8A JUMP JUMPDEST JUMPDEST PUSH1 0x0 PUSH2 0x120A DUP5 DUP3 DUP6 ADD PUSH2 0x11D1 JUMP JUMPDEST SWAP2 POP POP SWAP3 SWAP2 POP POP JUMP JUMPDEST PUSH2 0x121C DUP2 PUSH2 0x11B0 JUMP JUMPDEST DUP3 MSTORE POP POP JUMP JUMPDEST PUSH1 0x0 PUSH1 0x20 DUP3 ADD SWAP1 POP PUSH2 0x1237 PUSH1 0x0 DUP4 ADD DUP5 PUSH2 0x1213 JUMP JUMPDEST SWAP3 SWAP2 POP POP JUMP JUMPDEST PUSH32 0x416C726561647920616374697665206170706C6963616E740000000000000000 PUSH1 0x0 DUP3 ADD MSTORE POP JUMP JUMPDEST PUSH1 0x0 PUSH2 0x1273 PUSH1 0x18 DUP4 PUSH2 0xFF3 JUMP JUMPDEST SWAP2 POP PUSH2 0x127E DUP3 PUSH2 0x123D JUMP JUMPDEST PUSH1 0x20 DUP3 ADD SWAP1 POP SWAP2 SWAP1 POP JUMP JUMPDEST PUSH1 0x0 PUSH1 0x20 DUP3 ADD SWAP1 POP DUP2 DUP2 SUB PUSH1 0x0 DUP4 ADD MSTORE PUSH2 0x12A2 DUP2 PUSH2 0x1266 JUMP JUMPDEST SWAP1 POP SWAP2 SWAP1 POP JUMP JUMPDEST PUSH32 0x6163636F756E742072656A656374656400000000000000000000000000000000 PUSH1 0x0 DUP3 ADD MSTORE POP JUMP JUMPDEST PUSH1 0x0 PUSH2 0x12DF PUSH1 0x10 DUP4 PUSH2 0xFF3 JUMP JUMPDEST SWAP2 POP PUSH2 0x12EA DUP3 PUSH2 0x12A9 JUMP JUMPDEST PUSH1 0x20 DUP3 ADD SWAP1 POP SWAP2 SWAP1 POP JUMP JUMPDEST PUSH1 0x0 PUSH1 0x20 DUP3 ADD SWAP1 POP DUP2 DUP2 SUB PUSH1 0x0 DUP4 ADD MSTORE PUSH2 0x130E DUP2 PUSH2 0x12D2 JUMP JUMPDEST SWAP1 POP SWAP2 SWAP1 POP JUMP JUMPDEST PUSH32 0x496E76616C6964206170706C6963616E74206164647265737300000000000000 PUSH1 0x0 DUP3 ADD MSTORE POP JUMP JUMPDEST PUSH1 0x0 PUSH2 0x134B PUSH1 0x19 DUP4 PUSH2 0xFF3 JUMP JUMPDEST SWAP2 POP PUSH2 0x1356 DUP3 PUSH2 0x1315 JUMP JUMPDEST PUSH1 0x20 DUP3 ADD SWAP1 POP SWAP2 SWAP1 POP JUMP JUMPDEST PUSH1 0x0 PUSH1 0x20 DUP3 ADD SWAP1 POP DUP2 DUP2 SUB PUSH1 0x0 DUP4 ADD MSTORE PUSH2 0x137A DUP2 PUSH2 0x133E JUMP JUMPDEST SWAP1 POP SWAP2 SWAP1 POP JUMP JUMPDEST PUSH1 0x0 DUP2 SWAP1 POP SWAP2 SWAP1 POP JUMP JUMPDEST PUSH32 0x4E487B7100000000000000000000000000000000000000000000000000000000 PUSH1 0x0 MSTORE PUSH1 0x11 PUSH1 0x4 MSTORE PUSH1 0x24 PUSH1 0x0 REVERT JUMPDEST PUSH1 0x0 PUSH2 0x13C5 DUP3 PUSH2 0x1381 JUMP JUMPDEST SWAP2 POP PUSH2 0x13D0 DUP4 PUSH2 0x1381 JUMP JUMPDEST SWAP3 POP DUP3 DUP3 SUB SWAP1 POP DUP2 DUP2 SLT PUSH1 0x0 DUP5 SLT AND DUP3 DUP3 SGT PUSH1 0x0 DUP6 SLT ISZERO AND OR ISZERO PUSH2 0x13F7 JUMPI PUSH2 0x13F6 PUSH2 0x138B JUMP JUMPDEST JUMPDEST SWAP3 SWAP2 POP POP JUMP JUMPDEST PUSH32 0x4E6F742061206170706C6963616E740000000000000000000000000000000000 PUSH1 0x0 DUP3 ADD MSTORE POP JUMP JUMPDEST PUSH1 0x0 PUSH2 0x1433 PUSH1 0xF DUP4 PUSH2 0xFF3 JUMP JUMPDEST SWAP2 POP PUSH2 0x143E DUP3 PUSH2 0x13FD JUMP JUMPDEST PUSH1 0x20 DUP3 ADD SWAP1 POP SWAP2 SWAP1 POP JUMP JUMPDEST PUSH1 0x0 PUSH1 0x20 DUP3 ADD SWAP1 POP DUP2 DUP2 SUB PUSH1 0x0 DUP4 ADD MSTORE PUSH2 0x1462 DUP2 PUSH2 0x1426 JUMP JUMPDEST SWAP1 POP SWAP2 SWAP1 POP JUMP JUMPDEST PUSH32 0x4E487B7100000000000000000000000000000000000000000000000000000000 PUSH1 0x0 MSTORE PUSH1 0x32 PUSH1 0x4 MSTORE PUSH1 0x24 PUSH1 0x0 REVERT JUMPDEST PUSH1 0x0 PUSH2 0x14A3 DUP3 PUSH2 0x11B0 JUMP JUMPDEST SWAP2 POP PUSH32 0xFFFFFFFFFFFFFFFFFFFFFFFFFFFFFFFFFFFFFFFFFFFFFFFFFFFFFFFFFFFFFFFF DUP3 SUB PUSH2 0x14D5 JUMPI PUSH2 0x14D4 PUSH2 0x138B JUMP JUMPDEST JUMPDEST PUSH1 0x1 DUP3 ADD SWAP1 POP SWAP2 SWAP1 POP JUMP JUMPDEST PUSH32 0x53656E64657220616C726561647920766F746564000000000000000000000000 PUSH1 0x0 DUP3 ADD MSTORE POP JUMP JUMPDEST PUSH1 0x0 PUSH2 0x1516 PUSH1 0x14 DUP4 PUSH2 0xFF3 JUMP JUMPDEST SWAP2 POP PUSH2 0x1521 DUP3 PUSH2 0x14E0 JUMP JUMPDEST PUSH1 0x20 DUP3 ADD SWAP1 POP SWAP2 SWAP1 POP JUMP JUMPDEST PUSH1 0x0 PUSH1 0x20 DUP3 ADD SWAP1 POP DUP2 DUP2 SUB PUSH1 0x0 DUP4 ADD MSTORE PUSH2 0x1545 DUP2 PUSH2 0x1509 JUMP JUMPDEST SWAP1 POP SWAP2 SWAP1 POP JUMP JUMPDEST PUSH1 0x0 PUSH2 0x1557 DUP3 PUSH2 0x1381 JUMP JUMPDEST SWAP2 POP PUSH2 0x1562 DUP4 PUSH2 0x1381 JUMP JUMPDEST SWAP3 POP DUP3 DUP3 ADD SWAP1 POP DUP3 DUP2 SLT ISZERO PUSH1 0x0 DUP4 SLT AND DUP4 DUP3 SLT PUSH1 0x0 DUP5 SLT ISZERO AND OR ISZERO PUSH2 0x158A JUMPI PUSH2 0x1589 PUSH2 0x138B JUMP JUMPDEST JUMPDEST SWAP3 SWAP2 POP POP JUMP JUMPDEST PUSH32 0x4E487B7100000000000000000000000000000000000000000000000000000000 PUSH1 0x0 MSTORE PUSH1 0x22 PUSH1 0x4 MSTORE PUSH1 0x24 PUSH1 0x0 REVERT JUMPDEST PUSH1 0x0 PUSH1 0x2 DUP3 DIV SWAP1 POP PUSH1 0x1 DUP3 AND DUP1 PUSH2 0x15D7 JUMPI PUSH1 0x7F DUP3 AND SWAP2 POP JUMPDEST PUSH1 0x20 DUP3 LT DUP2 SUB PUSH2 0x15EA JUMPI PUSH2 0x15E9 PUSH2 0x1590 JUMP JUMPDEST JUMPDEST POP SWAP2 SWAP1 POP JUMP JUMPDEST PUSH1 0x0 PUSH2 0x15FB DUP3 PUSH2 0x11B0 JUMP JUMPDEST SWAP2 POP PUSH2 0x1606 DUP4 PUSH2 0x11B0 JUMP JUMPDEST SWAP3 POP DUP3 DUP3 SUB SWAP1 POP DUP2 DUP2 GT ISZERO PUSH2 0x161E JUMPI PUSH2 0x161D PUSH2 0x138B JUMP JUMPDEST JUMPDEST SWAP3 SWAP2 POP POP JUMP JUMPDEST PUSH32 0x4E487B7100000000000000000000000000000000000000000000000000000000 PUSH1 0x0 MSTORE PUSH1 0x31 PUSH1 0x4 MSTORE PUSH1 0x24 PUSH1 0x0 REVERT INVALID LOG2 PUSH5 0x6970667358 0x22 SLT KECCAK256 CALLVALUE 0xAF 0x5C PUSH18 0xADF3E1CA18DA8F8E101769D05F0C8C163F8B PUSH30 0xA7107EC56F520BC8A864736F6C63430008110033A2646970667358221220 0xBF MUL 0xF7 0xDB 0xAC DUP11 0xD2 0xB4 0xC8 DIFFICULTY 0xC0 SWAP13 0x5C MUL REVERT SELFDESTRUCT 0xAE BYTE 0x26 LOG3 0xED 0xC PUSH3 0x8EB1A7 0x1E 0xCF PUSH18 0xC0811F64736F6C6343000811003360806040 MSTORE PUSH1 0x40 MLOAD DUP1 PUSH1 0x40 ADD PUSH1 0x40 MSTORE DUP1 PUSH1 0x6 DUP2 MSTORE PUSH1 0x20 ADD PUSH32 0x4D656D6265720000000000000000000000000000000000000000000000000000 DUP2 MSTORE POP PUSH1 0x0 SWAP1 DUP2 PUSH3 0x4A SWAP2 SWAP1 PUSH3 0x366 JUMP JUMPDEST POP PUSH1 0x40 MLOAD DUP1 PUSH1 0x40 ADD PUSH1 0x40 MSTORE DUP1 PUSH1 0x2 DUP2 MSTORE PUSH1 0x20 ADD PUSH32 0x4D4D000000000000000000000000000000000000000000000000000000000000 DUP2 MSTORE POP PUSH1 0x1 SWAP1 DUP2 PUSH3 0x91 SWAP2 SWAP1 PUSH3 0x366 JUMP JUMPDEST POP PUSH1 0x0 PUSH1 0x7 SSTORE CALLVALUE DUP1 ISZERO PUSH3 0xA4 JUMPI PUSH1 0x0 DUP1 REVERT JUMPDEST POP CALLER PUSH1 0x8 PUSH1 0x0 PUSH2 0x100 EXP DUP2 SLOAD DUP2 PUSH20 0xFFFFFFFFFFFFFFFFFFFFFFFFFFFFFFFFFFFFFFFF MUL NOT AND SWAP1 DUP4 PUSH20 0xFFFFFFFFFFFFFFFFFFFFFFFFFFFFFFFFFFFFFFFF AND MUL OR SWAP1 SSTORE POP PUSH3 0x44D JUMP JUMPDEST PUSH1 0x0 DUP2 MLOAD SWAP1 POP SWAP2 SWAP1 POP JUMP JUMPDEST PUSH32 0x4E487B7100000000000000000000000000000000000000000000000000000000 PUSH1 0x0 MSTORE PUSH1 0x41 PUSH1 0x4 MSTORE PUSH1 0x24 PUSH1 0x0 REVERT JUMPDEST PUSH32 0x4E487B7100000000000000000000000000000000000000000000000000000000 PUSH1 0x0 MSTORE PUSH1 0x22 PUSH1 0x4 MSTORE PUSH1 0x24 PUSH1 0x0 REVERT JUMPDEST PUSH1 0x0 PUSH1 0x2 DUP3 DIV SWAP1 POP PUSH1 0x1 DUP3 AND DUP1 PUSH3 0x16E JUMPI PUSH1 0x7F DUP3 AND SWAP2 POP JUMPDEST PUSH1 0x20 DUP3 LT DUP2 SUB PUSH3 0x184 JUMPI PUSH3 0x183 PUSH3 0x126 JUMP JUMPDEST JUMPDEST POP SWAP2 SWAP1 POP JUMP JUMPDEST PUSH1 0x0 DUP2 SWAP1 POP DUP2 PUSH1 0x0 MSTORE PUSH1 0x20 PUSH1 0x0 KECCAK256 SWAP1 POP SWAP2 SWAP1 POP JUMP JUMPDEST PUSH1 0x0 PUSH1 0x20 PUSH1 0x1F DUP4 ADD DIV SWAP1 POP SWAP2 SWAP1 POP JUMP JUMPDEST PUSH1 0x0 DUP3 DUP3 SHL SWAP1 POP SWAP3 SWAP2 POP POP JUMP JUMPDEST PUSH1 0x0 PUSH1 0x8 DUP4 MUL PUSH3 0x1EE PUSH32 0xFFFFFFFFFFFFFFFFFFFFFFFFFFFFFFFFFFFFFFFFFFFFFFFFFFFFFFFFFFFFFFFF DUP3 PUSH3 0x1AF JUMP JUMPDEST PUSH3 0x1FA DUP7 DUP4 PUSH3 0x1AF JUMP JUMPDEST SWAP6 POP DUP1 NOT DUP5 AND SWAP4 POP DUP1 DUP7 AND DUP5 OR SWAP3 POP POP POP SWAP4 SWAP3 POP POP POP JUMP JUMPDEST PUSH1 0x0 DUP2 SWAP1 POP SWAP2 SWAP1 POP JUMP JUMPDEST PUSH1 0x0 DUP2 SWAP1 POP SWAP2 SWAP1 POP JUMP JUMPDEST PUSH1 0x0 PUSH3 0x247 PUSH3 0x241 PUSH3 0x23B DUP5 PUSH3 0x212 JUMP JUMPDEST PUSH3 0x21C JUMP JUMPDEST PUSH3 0x212 JUMP JUMPDEST SWAP1 POP SWAP2 SWAP1 POP JUMP JUMPDEST PUSH1 0x0 DUP2 SWAP1 POP SWAP2 SWAP1 POP JUMP JUMPDEST PUSH3 0x263 DUP4 PUSH3 0x226 JUMP JUMPDEST PUSH3 0x27B PUSH3 0x272 DUP3 PUSH3 0x24E JUMP JUMPDEST DUP5 DUP5 SLOAD PUSH3 0x1BC JUMP JUMPDEST DUP3 SSTORE POP POP POP POP JUMP JUMPDEST PUSH1 0x0 SWAP1 JUMP JUMPDEST PUSH3 0x292 PUSH3 0x283 JUMP JUMPDEST PUSH3 0x29F DUP2 DUP5 DUP5 PUSH3 0x258 JUMP JUMPDEST POP POP POP JUMP JUMPDEST JUMPDEST DUP2 DUP2 LT ISZERO PUSH3 0x2C7 JUMPI PUSH3 0x2BB PUSH1 0x0 DUP3 PUSH3 0x288 JUMP JUMPDEST PUSH1 0x1 DUP2 ADD SWAP1 POP PUSH3 0x2A5 JUMP JUMPDEST POP POP JUMP JUMPDEST PUSH1 0x1F DUP3 GT ISZERO PUSH3 0x316 JUMPI PUSH3 0x2E0 DUP2 PUSH3 0x18A JUMP JUMPDEST PUSH3 0x2EB DUP5 PUSH3 0x19F JUMP JUMPDEST DUP2 ADD PUSH1 0x20 DUP6 LT ISZERO PUSH3 0x2FB JUMPI DUP2 SWAP1 POP JUMPDEST PUSH3 0x313 PUSH3 0x30A DUP6 PUSH3 0x19F JUMP JUMPDEST DUP4 ADD DUP3 PUSH3 0x2A4 JUMP JUMPDEST POP POP JUMPDEST POP POP POP JUMP JUMPDEST PUSH1 0x0 DUP3 DUP3 SHR SWAP1 POP SWAP3 SWAP2 POP POP JUMP JUMPDEST PUSH1 0x0 PUSH3 0x33B PUSH1 0x0 NOT DUP5 PUSH1 0x8 MUL PUSH3 0x31B JUMP JUMPDEST NOT DUP1 DUP4 AND SWAP2 POP POP SWAP3 SWAP2 POP POP JUMP JUMPDEST PUSH1 0x0 PUSH3 0x356 DUP4 DUP4 PUSH3 0x328 JUMP JUMPDEST SWAP2 POP DUP3 PUSH1 0x2 MUL DUP3 OR SWAP1 POP SWAP3 SWAP2 POP POP JUMP JUMPDEST PUSH3 0x371 DUP3 PUSH3 0xEC JUMP JUMPDEST PUSH8 0xFFFFFFFFFFFFFFFF DUP2 GT ISZERO PUSH3 0x38D JUMPI PUSH3 0x38C PUSH3 0xF7 JUMP JUMPDEST JUMPDEST PUSH3 0x399 DUP3 SLOAD PUSH3 0x155 JUMP JUMPDEST PUSH3 0x3A6 DUP3 DUP3 DUP6 PUSH3 0x2CB JUMP JUMPDEST PUSH1 0x0 PUSH1 0x20 SWAP1 POP PUSH1 0x1F DUP4 GT PUSH1 0x1 DUP2 EQ PUSH3 0x3DE JUMPI PUSH1 0x0 DUP5 ISZERO PUSH3 0x3C9 JUMPI DUP3 DUP8 ADD MLOAD SWAP1 POP JUMPDEST PUSH3 0x3D5 DUP6 DUP3 PUSH3 0x348 JUMP JUMPDEST DUP7 SSTORE POP PUSH3 0x445 JUMP JUMPDEST PUSH1 0x1F NOT DUP5 AND PUSH3 0x3EE DUP7 PUSH3 0x18A JUMP JUMPDEST PUSH1 0x0 JUMPDEST DUP3 DUP2 LT ISZERO PUSH3 0x418 JUMPI DUP5 DUP10 ADD MLOAD DUP3 SSTORE PUSH1 0x1 DUP3 ADD SWAP2 POP PUSH1 0x20 DUP6 ADD SWAP5 POP PUSH1 0x20 DUP2 ADD SWAP1 POP PUSH3 0x3F1 JUMP JUMPDEST DUP7 DUP4 LT ISZERO PUSH3 0x438 JUMPI DUP5 DUP10 ADD MLOAD PUSH3 0x434 PUSH1 0x1F DUP10 AND DUP3 PUSH3 0x328 JUMP JUMPDEST DUP4 SSTORE POP JUMPDEST PUSH1 0x1 PUSH1 0x2 DUP9 MUL ADD DUP9 SSTORE POP POP POP JUMPDEST POP POP POP POP POP POP JUMP JUMPDEST PUSH2 0x29D8 DUP1 PUSH3 0x45D PUSH1 0x0 CODECOPY PUSH1 0x0 RETURN INVALID PUSH1 0x80 PUSH1 0x40 MSTORE CALLVALUE DUP1 ISZERO PUSH2 0x10 JUMPI PUSH1 0x0 DUP1 REVERT JUMPDEST POP PUSH1 0x4 CALLDATASIZE LT PUSH2 0x116 JUMPI PUSH1 0x0 CALLDATALOAD PUSH1 0xE0 SHR DUP1 PUSH4 0x70A08231 GT PUSH2 0xA2 JUMPI DUP1 PUSH4 0xA22CB465 GT PUSH2 0x71 JUMPI DUP1 PUSH4 0xA22CB465 EQ PUSH2 0x2DF JUMPI DUP1 PUSH4 0xB88D4FDE EQ PUSH2 0x2FB JUMPI DUP1 PUSH4 0xC87B56DD EQ PUSH2 0x317 JUMPI DUP1 PUSH4 0xE3C5E2CF EQ PUSH2 0x347 JUMPI DUP1 PUSH4 0xE985E9C5 EQ PUSH2 0x377 JUMPI PUSH2 0x116 JUMP JUMPDEST DUP1 PUSH4 0x70A08231 EQ PUSH2 0x257 JUMPI DUP1 PUSH4 0x8C2BE833 EQ PUSH2 0x287 JUMPI DUP1 PUSH4 0x951B6C02 EQ PUSH2 0x2A5 JUMPI DUP1 PUSH4 0x95D89B41 EQ PUSH2 0x2C1 JUMPI PUSH2 0x116 JUMP JUMPDEST DUP1 PUSH4 0x95EA7B3 GT PUSH2 0xE9 JUMPI DUP1 PUSH4 0x95EA7B3 EQ PUSH2 0x1B7 JUMPI DUP1 PUSH4 0x23B872DD EQ PUSH2 0x1D3 JUMPI DUP1 PUSH4 0x3A0A3444 EQ PUSH2 0x1EF JUMPI DUP1 PUSH4 0x42842E0E EQ PUSH2 0x20B JUMPI DUP1 PUSH4 0x6352211E EQ PUSH2 0x227 JUMPI PUSH2 0x116 JUMP JUMPDEST DUP1 PUSH4 0x1FFC9A7 EQ PUSH2 0x11B JUMPI DUP1 PUSH4 0x6661ABD EQ PUSH2 0x14B JUMPI DUP1 PUSH4 0x6FDDE03 EQ PUSH2 0x169 JUMPI DUP1 PUSH4 0x81812FC EQ PUSH2 0x187 JUMPI JUMPDEST PUSH1 0x0 DUP1 REVERT JUMPDEST PUSH2 0x135 PUSH1 0x4 DUP1 CALLDATASIZE SUB DUP2 ADD SWAP1 PUSH2 0x130 SWAP2 SWAP1 PUSH2 0x19B6 JUMP JUMPDEST PUSH2 0x3A7 JUMP JUMPDEST PUSH1 0x40 MLOAD PUSH2 0x142 SWAP2 SWAP1 PUSH2 0x19FE JUMP JUMPDEST PUSH1 0x40 MLOAD DUP1 SWAP2 SUB SWAP1 RETURN JUMPDEST PUSH2 0x153 PUSH2 0x489 JUMP JUMPDEST PUSH1 0x40 MLOAD PUSH2 0x160 SWAP2 SWAP1 PUSH2 0x1A32 JUMP JUMPDEST PUSH1 0x40 MLOAD DUP1 SWAP2 SUB SWAP1 RETURN JUMPDEST PUSH2 0x171 PUSH2 0x48F JUMP JUMPDEST PUSH1 0x40 MLOAD PUSH2 0x17E SWAP2 SWAP1 PUSH2 0x1ADD JUMP JUMPDEST PUSH1 0x40 MLOAD DUP1 SWAP2 SUB SWAP1 RETURN JUMPDEST PUSH2 0x1A1 PUSH1 0x4 DUP1 CALLDATASIZE SUB DUP2 ADD SWAP1 PUSH2 0x19C SWAP2 SWAP1 PUSH2 0x1B2B JUMP JUMPDEST PUSH2 0x51D JUMP JUMPDEST PUSH1 0x40 MLOAD PUSH2 0x1AE SWAP2 SWAP1 PUSH2 0x1B99 JUMP JUMPDEST PUSH1 0x40 MLOAD DUP1 SWAP2 SUB SWAP1 RETURN JUMPDEST PUSH2 0x1D1 PUSH1 0x4 DUP1 CALLDATASIZE SUB DUP2 ADD SWAP1 PUSH2 0x1CC SWAP2 SWAP1 PUSH2 0x1BE0 JUMP JUMPDEST PUSH2 0x563 JUMP JUMPDEST STOP JUMPDEST PUSH2 0x1ED PUSH1 0x4 DUP1 CALLDATASIZE SUB DUP2 ADD SWAP1 PUSH2 0x1E8 SWAP2 SWAP1 PUSH2 0x1C20 JUMP JUMPDEST PUSH2 0x66C JUMP JUMPDEST STOP JUMPDEST PUSH2 0x209 PUSH1 0x4 DUP1 CALLDATASIZE SUB DUP2 ADD SWAP1 PUSH2 0x204 SWAP2 SWAP1 PUSH2 0x1C73 JUMP JUMPDEST PUSH2 0x6C5 JUMP JUMPDEST STOP JUMPDEST PUSH2 0x225 PUSH1 0x4 DUP1 CALLDATASIZE SUB DUP2 ADD SWAP1 PUSH2 0x220 SWAP2 SWAP1 PUSH2 0x1C20 JUMP JUMPDEST PUSH2 0x7D3 JUMP JUMPDEST STOP JUMPDEST PUSH2 0x241 PUSH1 0x4 DUP1 CALLDATASIZE SUB DUP2 ADD SWAP1 PUSH2 0x23C SWAP2 SWAP1 PUSH2 0x1B2B JUMP JUMPDEST PUSH2 0x7F3 JUMP JUMPDEST PUSH1 0x40 MLOAD PUSH2 0x24E SWAP2 SWAP1 PUSH2 0x1B99 JUMP JUMPDEST PUSH1 0x40 MLOAD DUP1 SWAP2 SUB SWAP1 RETURN JUMPDEST PUSH2 0x271 PUSH1 0x4 DUP1 CALLDATASIZE SUB DUP2 ADD SWAP1 PUSH2 0x26C SWAP2 SWAP1 PUSH2 0x1CB3 JUMP JUMPDEST PUSH2 0x8A4 JUMP JUMPDEST PUSH1 0x40 MLOAD PUSH2 0x27E SWAP2 SWAP1 PUSH2 0x1A32 JUMP JUMPDEST PUSH1 0x40 MLOAD DUP1 SWAP2 SUB SWAP1 RETURN JUMPDEST PUSH2 0x28F PUSH2 0x95B JUMP JUMPDEST PUSH1 0x40 MLOAD PUSH2 0x29C SWAP2 SWAP1 PUSH2 0x1B99 JUMP JUMPDEST PUSH1 0x40 MLOAD DUP1 SWAP2 SUB SWAP1 RETURN JUMPDEST PUSH2 0x2BF PUSH1 0x4 DUP1 CALLDATASIZE SUB DUP2 ADD SWAP1 PUSH2 0x2BA SWAP2 SWAP1 PUSH2 0x1C73 JUMP JUMPDEST PUSH2 0x981 JUMP JUMPDEST STOP JUMPDEST PUSH2 0x2C9 PUSH2 0xBAB JUMP JUMPDEST PUSH1 0x40 MLOAD PUSH2 0x2D6 SWAP2 SWAP1 PUSH2 0x1ADD JUMP JUMPDEST PUSH1 0x40 MLOAD DUP1 SWAP2 SUB SWAP1 RETURN JUMPDEST PUSH2 0x2F9 PUSH1 0x4 DUP1 CALLDATASIZE SUB DUP2 ADD SWAP1 PUSH2 0x2F4 SWAP2 SWAP1 PUSH2 0x1D0C JUMP JUMPDEST PUSH2 0xC39 JUMP JUMPDEST STOP JUMPDEST PUSH2 0x315 PUSH1 0x4 DUP1 CALLDATASIZE SUB DUP2 ADD SWAP1 PUSH2 0x310 SWAP2 SWAP1 PUSH2 0x1E81 JUMP JUMPDEST PUSH2 0xC48 JUMP JUMPDEST STOP JUMPDEST PUSH2 0x331 PUSH1 0x4 DUP1 CALLDATASIZE SUB DUP2 ADD SWAP1 PUSH2 0x32C SWAP2 SWAP1 PUSH2 0x1B2B JUMP JUMPDEST PUSH2 0xCA3 JUMP JUMPDEST PUSH1 0x40 MLOAD PUSH2 0x33E SWAP2 SWAP1 PUSH2 0x1ADD JUMP JUMPDEST PUSH1 0x40 MLOAD DUP1 SWAP2 SUB SWAP1 RETURN JUMPDEST PUSH2 0x361 PUSH1 0x4 DUP1 CALLDATASIZE SUB DUP2 ADD SWAP1 PUSH2 0x35C SWAP2 SWAP1 PUSH2 0x1B2B JUMP JUMPDEST PUSH2 0xCDD JUMP JUMPDEST PUSH1 0x40 MLOAD PUSH2 0x36E SWAP2 SWAP1 PUSH2 0x1B99 JUMP JUMPDEST PUSH1 0x40 MLOAD DUP1 SWAP2 SUB SWAP1 RETURN JUMPDEST PUSH2 0x391 PUSH1 0x4 DUP1 CALLDATASIZE SUB DUP2 ADD SWAP1 PUSH2 0x38C SWAP2 SWAP1 PUSH2 0x1C73 JUMP JUMPDEST PUSH2 0xD1A JUMP JUMPDEST PUSH1 0x40 MLOAD PUSH2 0x39E SWAP2 SWAP1 PUSH2 0x19FE JUMP JUMPDEST PUSH1 0x40 MLOAD DUP1 SWAP2 SUB SWAP1 RETURN JUMPDEST PUSH1 0x0 PUSH32 0x80AC58CD00000000000000000000000000000000000000000000000000000000 PUSH28 0xFFFFFFFFFFFFFFFFFFFFFFFFFFFFFFFFFFFFFFFFFFFFFFFFFFFFFFFF NOT AND DUP3 PUSH28 0xFFFFFFFFFFFFFFFFFFFFFFFFFFFFFFFFFFFFFFFFFFFFFFFFFFFFFFFF NOT AND EQ DUP1 PUSH2 0x472 JUMPI POP PUSH32 0x5B5E139F00000000000000000000000000000000000000000000000000000000 PUSH28 0xFFFFFFFFFFFFFFFFFFFFFFFFFFFFFFFFFFFFFFFFFFFFFFFFFFFFFFFF NOT AND DUP3 PUSH28 0xFFFFFFFFFFFFFFFFFFFFFFFFFFFFFFFFFFFFFFFFFFFFFFFFFFFFFFFF NOT AND EQ JUMPDEST DUP1 PUSH2 0x482 JUMPI POP PUSH2 0x481 DUP3 PUSH2 0xDAE JUMP JUMPDEST JUMPDEST SWAP1 POP SWAP2 SWAP1 POP JUMP JUMPDEST PUSH1 0x7 SLOAD DUP2 JUMP JUMPDEST PUSH1 0x0 DUP1 SLOAD PUSH2 0x49C SWAP1 PUSH2 0x1F33 JUMP JUMPDEST DUP1 PUSH1 0x1F ADD PUSH1 0x20 DUP1 SWAP2 DIV MUL PUSH1 0x20 ADD PUSH1 0x40 MLOAD SWAP1 DUP2 ADD PUSH1 0x40 MSTORE DUP1 SWAP3 SWAP2 SWAP1 DUP2 DUP2 MSTORE PUSH1 0x20 ADD DUP3 DUP1 SLOAD PUSH2 0x4C8 SWAP1 PUSH2 0x1F33 JUMP JUMPDEST DUP1 ISZERO PUSH2 0x515 JUMPI DUP1 PUSH1 0x1F LT PUSH2 0x4EA JUMPI PUSH2 0x100 DUP1 DUP4 SLOAD DIV MUL DUP4 MSTORE SWAP2 PUSH1 0x20 ADD SWAP2 PUSH2 0x515 JUMP JUMPDEST DUP3 ADD SWAP2 SWAP1 PUSH1 0x0 MSTORE PUSH1 0x20 PUSH1 0x0 KECCAK256 SWAP1 JUMPDEST DUP2 SLOAD DUP2 MSTORE SWAP1 PUSH1 0x1 ADD SWAP1 PUSH1 0x20 ADD DUP1 DUP4 GT PUSH2 0x4F8 JUMPI DUP3 SWAP1 SUB PUSH1 0x1F AND DUP3 ADD SWAP2 JUMPDEST POP POP POP POP POP DUP2 JUMP JUMPDEST PUSH1 0x0 PUSH2 0x528 DUP3 PUSH2 0xE18 JUMP JUMPDEST PUSH1 0x5 PUSH1 0x0 DUP4 DUP2 MSTORE PUSH1 0x20 ADD SWAP1 DUP2 MSTORE PUSH1 0x20 ADD PUSH1 0x0 KECCAK256 PUSH1 0x0 SWAP1 SLOAD SWAP1 PUSH2 0x100 EXP SWAP1 DIV PUSH20 0xFFFFFFFFFFFFFFFFFFFFFFFFFFFFFFFFFFFFFFFF AND SWAP1 POP SWAP2 SWAP1 POP JUMP JUMPDEST PUSH1 0x0 PUSH2 0x56E DUP3 PUSH2 0x7F3 JUMP JUMPDEST SWAP1 POP DUP1 PUSH20 0xFFFFFFFFFFFFFFFFFFFFFFFFFFFFFFFFFFFFFFFF AND DUP4 PUSH20 0xFFFFFFFFFFFFFFFFFFFFFFFFFFFFFFFFFFFFFFFF AND SUB PUSH2 0x5DE JUMPI PUSH1 0x40 MLOAD PUSH32 0x8C379A000000000000000000000000000000000000000000000000000000000 DUP2 MSTORE PUSH1 0x4 ADD PUSH2 0x5D5 SWAP1 PUSH2 0x1FD6 JUMP JUMPDEST PUSH1 0x40 MLOAD DUP1 SWAP2 SUB SWAP1 REVERT JUMPDEST DUP1 PUSH20 0xFFFFFFFFFFFFFFFFFFFFFFFFFFFFFFFFFFFFFFFF AND CALLER PUSH20 0xFFFFFFFFFFFFFFFFFFFFFFFFFFFFFFFFFFFFFFFF AND EQ DUP1 PUSH2 0x61E JUMPI POP PUSH2 0x61D DUP2 CALLER PUSH2 0xD1A JUMP JUMPDEST JUMPDEST PUSH2 0x65D JUMPI PUSH1 0x40 MLOAD PUSH32 0x8C379A000000000000000000000000000000000000000000000000000000000 DUP2 MSTORE PUSH1 0x4 ADD PUSH2 0x654 SWAP1 PUSH2 0x2068 JUMP JUMPDEST PUSH1 0x40 MLOAD DUP1 SWAP2 SUB SWAP1 REVERT JUMPDEST PUSH2 0x667 DUP4 DUP4 PUSH2 0xE63 JUMP JUMPDEST POP POP POP JUMP JUMPDEST PUSH2 0x676 CALLER DUP3 PUSH2 0xF1C JUMP JUMPDEST PUSH2 0x6B5 JUMPI PUSH1 0x40 MLOAD PUSH32 0x8C379A000000000000000000000000000000000000000000000000000000000 DUP2 MSTORE PUSH1 0x4 ADD PUSH2 0x6AC SWAP1 PUSH2 0x20FA JUMP JUMPDEST PUSH1 0x40 MLOAD DUP1 SWAP2 SUB SWAP1 REVERT JUMPDEST PUSH2 0x6C0 DUP4 DUP4 DUP4 PUSH2 0xFB1 JUMP JUMPDEST POP POP POP JUMP JUMPDEST PUSH1 0x8 PUSH1 0x0 SWAP1 SLOAD SWAP1 PUSH2 0x100 EXP SWAP1 DIV PUSH20 0xFFFFFFFFFFFFFFFFFFFFFFFFFFFFFFFFFFFFFFFF AND PUSH20 0xFFFFFFFFFFFFFFFFFFFFFFFFFFFFFFFFFFFFFFFF AND CALLER PUSH20 0xFFFFFFFFFFFFFFFFFFFFFFFFFFFFFFFFFFFFFFFF AND EQ PUSH2 0x755 JUMPI PUSH1 0x40 MLOAD PUSH32 0x8C379A000000000000000000000000000000000000000000000000000000000 DUP2 MSTORE PUSH1 0x4 ADD PUSH2 0x74C SWAP1 PUSH2 0x2166 JUMP JUMPDEST PUSH1 0x40 MLOAD DUP1 SWAP2 SUB SWAP1 REVERT JUMPDEST PUSH2 0x761 DUP3 PUSH1 0x7 SLOAD PUSH2 0x1201 JUMP JUMPDEST DUP1 PUSH1 0x2 PUSH1 0x0 PUSH1 0x7 SLOAD DUP2 MSTORE PUSH1 0x20 ADD SWAP1 DUP2 MSTORE PUSH1 0x20 ADD PUSH1 0x0 KECCAK256 PUSH1 0x0 PUSH2 0x100 EXP DUP2 SLOAD DUP2 PUSH20 0xFFFFFFFFFFFFFFFFFFFFFFFFFFFFFFFFFFFFFFFF MUL NOT AND SWAP1 DUP4 PUSH20 0xFFFFFFFFFFFFFFFFFFFFFFFFFFFFFFFFFFFFFFFF AND MUL OR SWAP1 SSTORE POP PUSH1 0x1 PUSH1 0x7 PUSH1 0x0 DUP3 DUP3 SLOAD PUSH2 0x7C8 SWAP2 SWAP1 PUSH2 0x21B5 JUMP JUMPDEST SWAP3 POP POP DUP2 SWAP1 SSTORE POP POP POP JUMP JUMPDEST PUSH2 0x7EE DUP4 DUP4 DUP4 PUSH1 0x40 MLOAD DUP1 PUSH1 0x20 ADD PUSH1 0x40 MSTORE DUP1 PUSH1 0x0 DUP2 MSTORE POP PUSH2 0xC48 JUMP JUMPDEST POP POP POP JUMP JUMPDEST PUSH1 0x0 DUP1 PUSH1 0x3 PUSH1 0x0 DUP5 DUP2 MSTORE PUSH1 0x20 ADD SWAP1 DUP2 MSTORE PUSH1 0x20 ADD PUSH1 0x0 KECCAK256 PUSH1 0x0 SWAP1 SLOAD SWAP1 PUSH2 0x100 EXP SWAP1 DIV PUSH20 0xFFFFFFFFFFFFFFFFFFFFFFFFFFFFFFFFFFFFFFFF AND SWAP1 POP PUSH1 0x0 PUSH20 0xFFFFFFFFFFFFFFFFFFFFFFFFFFFFFFFFFFFFFFFF AND DUP2 PUSH20 0xFFFFFFFFFFFFFFFFFFFFFFFFFFFFFFFFFFFFFFFF AND SUB PUSH2 0x89B JUMPI PUSH1 0x40 MLOAD PUSH32 0x8C379A000000000000000000000000000000000000000000000000000000000 DUP2 MSTORE PUSH1 0x4 ADD PUSH2 0x892 SWAP1 PUSH2 0x2235 JUMP JUMPDEST PUSH1 0x40 MLOAD DUP1 SWAP2 SUB SWAP1 REVERT JUMPDEST DUP1 SWAP2 POP POP SWAP2 SWAP1 POP JUMP JUMPDEST PUSH1 0x0 DUP1 PUSH20 0xFFFFFFFFFFFFFFFFFFFFFFFFFFFFFFFFFFFFFFFF AND DUP3 PUSH20 0xFFFFFFFFFFFFFFFFFFFFFFFFFFFFFFFFFFFFFFFF AND SUB PUSH2 0x914 JUMPI PUSH1 0x40 MLOAD PUSH32 0x8C379A000000000000000000000000000000000000000000000000000000000 DUP2 MSTORE PUSH1 0x4 ADD PUSH2 0x90B SWAP1 PUSH2 0x22C7 JUMP JUMPDEST PUSH1 0x40 MLOAD DUP1 SWAP2 SUB SWAP1 REVERT JUMPDEST PUSH1 0x4 PUSH1 0x0 DUP4 PUSH20 0xFFFFFFFFFFFFFFFFFFFFFFFFFFFFFFFFFFFFFFFF AND PUSH20 0xFFFFFFFFFFFFFFFFFFFFFFFFFFFFFFFFFFFFFFFF AND DUP2 MSTORE PUSH1 0x20 ADD SWAP1 DUP2 MSTORE PUSH1 0x20 ADD PUSH1 0x0 KECCAK256 SLOAD SWAP1 POP SWAP2 SWAP1 POP JUMP JUMPDEST PUSH1 0x8 PUSH1 0x0 SWAP1 SLOAD SWAP1 PUSH2 0x100 EXP SWAP1 DIV PUSH20 0xFFFFFFFFFFFFFFFFFFFFFFFFFFFFFFFFFFFFFFFF AND DUP2 JUMP JUMPDEST PUSH1 0x0 PUSH1 0x8 PUSH1 0x0 SWAP1 SLOAD SWAP1 PUSH2 0x100 EXP SWAP1 DIV PUSH20 0xFFFFFFFFFFFFFFFFFFFFFFFFFFFFFFFFFFFFFFFF AND SWAP1 POP PUSH1 0x0 DUP2 PUSH20 0xFFFFFFFFFFFFFFFFFFFFFFFFFFFFFFFFFFFFFFFF AND PUSH4 0xAAB6CF6 DUP5 PUSH1 0x40 MLOAD DUP3 PUSH4 0xFFFFFFFF AND PUSH1 0xE0 SHL DUP2 MSTORE PUSH1 0x4 ADD PUSH2 0x9E3 SWAP2 SWAP1 PUSH2 0x1B99 JUMP JUMPDEST PUSH1 0x20 PUSH1 0x40 MLOAD DUP1 DUP4 SUB DUP2 DUP7 GAS STATICCALL ISZERO DUP1 ISZERO PUSH2 0xA00 JUMPI RETURNDATASIZE PUSH1 0x0 DUP1 RETURNDATACOPY RETURNDATASIZE PUSH1 0x0 REVERT JUMPDEST POP POP POP POP PUSH1 0x40 MLOAD RETURNDATASIZE PUSH1 0x1F NOT PUSH1 0x1F DUP3 ADD AND DUP3 ADD DUP1 PUSH1 0x40 MSTORE POP DUP2 ADD SWAP1 PUSH2 0xA24 SWAP2 SWAP1 PUSH2 0x22FC JUMP JUMPDEST SWAP1 POP DUP1 PUSH2 0xA66 JUMPI PUSH1 0x40 MLOAD PUSH32 0x8C379A000000000000000000000000000000000000000000000000000000000 DUP2 MSTORE PUSH1 0x4 ADD PUSH2 0xA5D SWAP1 PUSH2 0x2375 JUMP JUMPDEST PUSH1 0x40 MLOAD DUP1 SWAP2 SUB SWAP1 REVERT JUMPDEST PUSH1 0x0 DUP4 SWAP1 POP PUSH1 0x0 DUP2 PUSH20 0xFFFFFFFFFFFFFFFFFFFFFFFFFFFFFFFFFFFFFFFF AND PUSH4 0x71942A01 CALLER PUSH1 0x40 MLOAD DUP3 PUSH4 0xFFFFFFFF AND PUSH1 0xE0 SHL DUP2 MSTORE PUSH1 0x4 ADD PUSH2 0xAA6 SWAP2 SWAP1 PUSH2 0x1B99 JUMP JUMPDEST PUSH1 0x20 PUSH1 0x40 MLOAD DUP1 DUP4 SUB DUP2 DUP7 GAS STATICCALL ISZERO DUP1 ISZERO PUSH2 0xAC3 JUMPI RETURNDATASIZE PUSH1 0x0 DUP1 RETURNDATACOPY RETURNDATASIZE PUSH1 0x0 REVERT JUMPDEST POP POP POP POP PUSH1 0x40 MLOAD RETURNDATASIZE PUSH1 0x1F NOT PUSH1 0x1F DUP3 ADD AND DUP3 ADD DUP1 PUSH1 0x40 MSTORE POP DUP2 ADD SWAP1 PUSH2 0xAE7 SWAP2 SWAP1 PUSH2 0x22FC JUMP JUMPDEST SWAP1 POP DUP1 PUSH2 0xB29 JUMPI PUSH1 0x40 MLOAD PUSH32 0x8C379A000000000000000000000000000000000000000000000000000000000 DUP2 MSTORE PUSH1 0x4 ADD PUSH2 0xB20 SWAP1 PUSH2 0x23E1 JUMP JUMPDEST PUSH1 0x40 MLOAD DUP1 SWAP2 SUB SWAP1 REVERT JUMPDEST PUSH2 0xB35 DUP7 PUSH1 0x7 SLOAD PUSH2 0x1201 JUMP JUMPDEST DUP5 PUSH1 0x2 PUSH1 0x0 PUSH1 0x7 SLOAD DUP2 MSTORE PUSH1 0x20 ADD SWAP1 DUP2 MSTORE PUSH1 0x20 ADD PUSH1 0x0 KECCAK256 PUSH1 0x0 PUSH2 0x100 EXP DUP2 SLOAD DUP2 PUSH20 0xFFFFFFFFFFFFFFFFFFFFFFFFFFFFFFFFFFFFFFFF MUL NOT AND SWAP1 DUP4 PUSH20 0xFFFFFFFFFFFFFFFFFFFFFFFFFFFFFFFFFFFFFFFF AND MUL OR SWAP1 SSTORE POP PUSH1 0x1 PUSH1 0x7 PUSH1 0x0 DUP3 DUP3 SLOAD PUSH2 0xB9C SWAP2 SWAP1 PUSH2 0x21B5 JUMP JUMPDEST SWAP3 POP POP DUP2 SWAP1 SSTORE POP POP POP POP POP POP POP JUMP JUMPDEST PUSH1 0x1 DUP1 SLOAD PUSH2 0xBB8 SWAP1 PUSH2 0x1F33 JUMP JUMPDEST DUP1 PUSH1 0x1F ADD PUSH1 0x20 DUP1 SWAP2 DIV MUL PUSH1 0x20 ADD PUSH1 0x40 MLOAD SWAP1 DUP2 ADD PUSH1 0x40 MSTORE DUP1 SWAP3 SWAP2 SWAP1 DUP2 DUP2 MSTORE PUSH1 0x20 ADD DUP3 DUP1 SLOAD PUSH2 0xBE4 SWAP1 PUSH2 0x1F33 JUMP JUMPDEST DUP1 ISZERO PUSH2 0xC31 JUMPI DUP1 PUSH1 0x1F LT PUSH2 0xC06 JUMPI PUSH2 0x100 DUP1 DUP4 SLOAD DIV MUL DUP4 MSTORE SWAP2 PUSH1 0x20 ADD SWAP2 PUSH2 0xC31 JUMP JUMPDEST DUP3 ADD SWAP2 SWAP1 PUSH1 0x0 MSTORE PUSH1 0x20 PUSH1 0x0 KECCAK256 SWAP1 JUMPDEST DUP2 SLOAD DUP2 MSTORE SWAP1 PUSH1 0x1 ADD SWAP1 PUSH1 0x20 ADD DUP1 DUP4 GT PUSH2 0xC14 JUMPI DUP3 SWAP1 SUB PUSH1 0x1F AND DUP3 ADD SWAP2 JUMPDEST POP POP POP POP POP DUP2 JUMP JUMPDEST PUSH2 0xC44 CALLER DUP4 DUP4 PUSH2 0x121F JUMP JUMPDEST POP POP JUMP JUMPDEST PUSH2 0xC52 CALLER DUP4 PUSH2 0xF1C JUMP JUMPDEST PUSH2 0xC91 JUMPI PUSH1 0x40 MLOAD PUSH32 0x8C379A000000000000000000000000000000000000000000000000000000000 DUP2 MSTORE PUSH1 0x4 ADD PUSH2 0xC88 SWAP1 PUSH2 0x20FA JUMP JUMPDEST PUSH1 0x40 MLOAD DUP1 SWAP2 SUB SWAP1 REVERT JUMPDEST PUSH2 0xC9D DUP5 DUP5 DUP5 DUP5 PUSH2 0x138B JUMP JUMPDEST POP POP POP POP JUMP JUMPDEST PUSH1 0x60 PUSH2 0xCAE DUP3 PUSH2 0xE18 JUMP JUMPDEST PUSH2 0xCB7 DUP3 PUSH2 0x13E7 JUMP JUMPDEST PUSH1 0x40 MLOAD PUSH1 0x20 ADD PUSH2 0xCC7 SWAP2 SWAP1 PUSH2 0x2463 JUMP JUMPDEST PUSH1 0x40 MLOAD PUSH1 0x20 DUP2 DUP4 SUB SUB DUP2 MSTORE SWAP1 PUSH1 0x40 MSTORE SWAP1 POP SWAP2 SWAP1 POP JUMP JUMPDEST PUSH1 0x0 PUSH1 0x2 PUSH1 0x0 DUP4 DUP2 MSTORE PUSH1 0x20 ADD SWAP1 DUP2 MSTORE PUSH1 0x20 ADD PUSH1 0x0 KECCAK256 PUSH1 0x0 SWAP1 SLOAD SWAP1 PUSH2 0x100 EXP SWAP1 DIV PUSH20 0xFFFFFFFFFFFFFFFFFFFFFFFFFFFFFFFFFFFFFFFF AND SWAP1 POP SWAP2 SWAP1 POP JUMP JUMPDEST PUSH1 0x0 PUSH1 0x6 PUSH1 0x0 DUP5 PUSH20 0xFFFFFFFFFFFFFFFFFFFFFFFFFFFFFFFFFFFFFFFF AND PUSH20 0xFFFFFFFFFFFFFFFFFFFFFFFFFFFFFFFFFFFFFFFF AND DUP2 MSTORE PUSH1 0x20 ADD SWAP1 DUP2 MSTORE PUSH1 0x20 ADD PUSH1 0x0 KECCAK256 PUSH1 0x0 DUP4 PUSH20 0xFFFFFFFFFFFFFFFFFFFFFFFFFFFFFFFFFFFFFFFF AND PUSH20 0xFFFFFFFFFFFFFFFFFFFFFFFFFFFFFFFFFFFFFFFF AND DUP2 MSTORE PUSH1 0x20 ADD SWAP1 DUP2 MSTORE PUSH1 0x20 ADD PUSH1 0x0 KECCAK256 PUSH1 0x0 SWAP1 SLOAD SWAP1 PUSH2 0x100 EXP SWAP1 DIV PUSH1 0xFF AND SWAP1 POP SWAP3 SWAP2 POP POP JUMP JUMPDEST PUSH1 0x0 PUSH32 0x1FFC9A700000000000000000000000000000000000000000000000000000000 PUSH28 0xFFFFFFFFFFFFFFFFFFFFFFFFFFFFFFFFFFFFFFFFFFFFFFFFFFFFFFFF NOT AND DUP3 PUSH28 0xFFFFFFFFFFFFFFFFFFFFFFFFFFFFFFFFFFFFFFFFFFFFFFFFFFFFFFFF NOT AND EQ SWAP1 POP SWAP2 SWAP1 POP JUMP JUMPDEST PUSH2 0xE21 DUP2 PUSH2 0x1547 JUMP JUMPDEST PUSH2 0xE60 JUMPI PUSH1 0x40 MLOAD PUSH32 0x8C379A000000000000000000000000000000000000000000000000000000000 DUP2 MSTORE PUSH1 0x4 ADD PUSH2 0xE57 SWAP1 PUSH2 0x2235 JUMP JUMPDEST PUSH1 0x40 MLOAD DUP1 SWAP2 SUB SWAP1 REVERT JUMPDEST POP JUMP JUMPDEST DUP2 PUSH1 0x5 PUSH1 0x0 DUP4 DUP2 MSTORE PUSH1 0x20 ADD SWAP1 DUP2 MSTORE PUSH1 0x20 ADD PUSH1 0x0 KECCAK256 PUSH1 0x0 PUSH2 0x100 EXP DUP2 SLOAD DUP2 PUSH20 0xFFFFFFFFFFFFFFFFFFFFFFFFFFFFFFFFFFFFFFFF MUL NOT AND SWAP1 DUP4 PUSH20 0xFFFFFFFFFFFFFFFFFFFFFFFFFFFFFFFFFFFFFFFF AND MUL OR SWAP1 SSTORE POP DUP1 DUP3 PUSH20 0xFFFFFFFFFFFFFFFFFFFFFFFFFFFFFFFFFFFFFFFF AND PUSH2 0xED6 DUP4 PUSH2 0x7F3 JUMP JUMPDEST PUSH20 0xFFFFFFFFFFFFFFFFFFFFFFFFFFFFFFFFFFFFFFFF AND PUSH32 0x8C5BE1E5EBEC7D5BD14F71427D1E84F3DD0314C0F7B2291E5B200AC8C7C3B925 PUSH1 0x40 MLOAD PUSH1 0x40 MLOAD DUP1 SWAP2 SUB SWAP1 LOG4 POP POP JUMP JUMPDEST PUSH1 0x0 DUP1 PUSH2 0xF28 DUP4 PUSH2 0x7F3 JUMP JUMPDEST SWAP1 POP DUP1 PUSH20 0xFFFFFFFFFFFFFFFFFFFFFFFFFFFFFFFFFFFFFFFF AND DUP5 PUSH20 0xFFFFFFFFFFFFFFFFFFFFFFFFFFFFFFFFFFFFFFFF AND EQ DUP1 PUSH2 0xF6A JUMPI POP PUSH2 0xF69 DUP2 DUP6 PUSH2 0xD1A JUMP JUMPDEST JUMPDEST DUP1 PUSH2 0xFA8 JUMPI POP DUP4 PUSH20 0xFFFFFFFFFFFFFFFFFFFFFFFFFFFFFFFFFFFFFFFF AND PUSH2 0xF90 DUP5 PUSH2 0x51D JUMP JUMPDEST PUSH20 0xFFFFFFFFFFFFFFFFFFFFFFFFFFFFFFFFFFFFFFFF AND EQ JUMPDEST SWAP2 POP POP SWAP3 SWAP2 POP POP JUMP JUMPDEST DUP3 PUSH20 0xFFFFFFFFFFFFFFFFFFFFFFFFFFFFFFFFFFFFFFFF AND PUSH2 0xFD1 DUP3 PUSH2 0x7F3 JUMP JUMPDEST PUSH20 0xFFFFFFFFFFFFFFFFFFFFFFFFFFFFFFFFFFFFFFFF AND EQ PUSH2 0x1027 JUMPI PUSH1 0x40 MLOAD PUSH32 0x8C379A000000000000000000000000000000000000000000000000000000000 DUP2 MSTORE PUSH1 0x4 ADD PUSH2 0x101E SWAP1 PUSH2 0x24FB JUMP JUMPDEST PUSH1 0x40 MLOAD DUP1 SWAP2 SUB SWAP1 REVERT JUMPDEST PUSH1 0x0 PUSH20 0xFFFFFFFFFFFFFFFFFFFFFFFFFFFFFFFFFFFFFFFF AND DUP3 PUSH20 0xFFFFFFFFFFFFFFFFFFFFFFFFFFFFFFFFFFFFFFFF AND SUB PUSH2 0x1096 JUMPI PUSH1 0x40 MLOAD PUSH32 0x8C379A000000000000000000000000000000000000000000000000000000000 DUP2 MSTORE PUSH1 0x4 ADD PUSH2 0x108D SWAP1 PUSH2 0x258D JUMP JUMPDEST PUSH1 0x40 MLOAD DUP1 SWAP2 SUB SWAP1 REVERT JUMPDEST PUSH2 0x10A1 PUSH1 0x0 DUP3 PUSH2 0xE63 JUMP JUMPDEST PUSH1 0x1 PUSH1 0x4 PUSH1 0x0 DUP6 PUSH20 0xFFFFFFFFFFFFFFFFFFFFFFFFFFFFFFFFFFFFFFFF AND PUSH20 0xFFFFFFFFFFFFFFFFFFFFFFFFFFFFFFFFFFFFFFFF AND DUP2 MSTORE PUSH1 0x20 ADD SWAP1 DUP2 MSTORE PUSH1 0x20 ADD PUSH1 0x0 KECCAK256 PUSH1 0x0 DUP3 DUP3 SLOAD PUSH2 0x10F1 SWAP2 SWAP1 PUSH2 0x25AD JUMP JUMPDEST SWAP3 POP POP DUP2 SWAP1 SSTORE POP PUSH1 0x1 PUSH1 0x4 PUSH1 0x0 DUP5 PUSH20 0xFFFFFFFFFFFFFFFFFFFFFFFFFFFFFFFFFFFFFFFF AND PUSH20 0xFFFFFFFFFFFFFFFFFFFFFFFFFFFFFFFFFFFFFFFF AND DUP2 MSTORE PUSH1 0x20 ADD SWAP1 DUP2 MSTORE PUSH1 0x20 ADD PUSH1 0x0 KECCAK256 PUSH1 0x0 DUP3 DUP3 SLOAD PUSH2 0x1148 SWAP2 SWAP1 PUSH2 0x21B5 JUMP JUMPDEST SWAP3 POP POP DUP2 SWAP1 SSTORE POP DUP2 PUSH1 0x3 PUSH1 0x0 DUP4 DUP2 MSTORE PUSH1 0x20 ADD SWAP1 DUP2 MSTORE PUSH1 0x20 ADD PUSH1 0x0 KECCAK256 PUSH1 0x0 PUSH2 0x100 EXP DUP2 SLOAD DUP2 PUSH20 0xFFFFFFFFFFFFFFFFFFFFFFFFFFFFFFFFFFFFFFFF MUL NOT AND SWAP1 DUP4 PUSH20 0xFFFFFFFFFFFFFFFFFFFFFFFFFFFFFFFFFFFFFFFF AND MUL OR SWAP1 SSTORE POP DUP1 DUP3 PUSH20 0xFFFFFFFFFFFFFFFFFFFFFFFFFFFFFFFFFFFFFFFF AND DUP5 PUSH20 0xFFFFFFFFFFFFFFFFFFFFFFFFFFFFFFFFFFFFFFFF AND PUSH32 0xDDF252AD1BE2C89B69C2B068FC378DAA952BA7F163C4A11628F55A4DF523B3EF PUSH1 0x40 MLOAD PUSH1 0x40 MLOAD DUP1 SWAP2 SUB SWAP1 LOG4 POP POP POP JUMP JUMPDEST PUSH2 0x121B DUP3 DUP3 PUSH1 0x40 MLOAD DUP1 PUSH1 0x20 ADD PUSH1 0x40 MSTORE DUP1 PUSH1 0x0 DUP2 MSTORE POP PUSH2 0x15B3 JUMP JUMPDEST POP POP JUMP JUMPDEST DUP2 PUSH20 0xFFFFFFFFFFFFFFFFFFFFFFFFFFFFFFFFFFFFFFFF AND DUP4 PUSH20 0xFFFFFFFFFFFFFFFFFFFFFFFFFFFFFFFFFFFFFFFF AND SUB PUSH2 0x128D JUMPI PUSH1 0x40 MLOAD PUSH32 0x8C379A000000000000000000000000000000000000000000000000000000000 DUP2 MSTORE PUSH1 0x4 ADD PUSH2 0x1284 SWAP1 PUSH2 0x262D JUMP JUMPDEST PUSH1 0x40 MLOAD DUP1 SWAP2 SUB SWAP1 REVERT JUMPDEST DUP1 PUSH1 0x6 PUSH1 0x0 DUP6 PUSH20 0xFFFFFFFFFFFFFFFFFFFFFFFFFFFFFFFFFFFFFFFF AND PUSH20 0xFFFFFFFFFFFFFFFFFFFFFFFFFFFFFFFFFFFFFFFF AND DUP2 MSTORE PUSH1 0x20 ADD SWAP1 DUP2 MSTORE PUSH1 0x20 ADD PUSH1 0x0 KECCAK256 PUSH1 0x0 DUP5 PUSH20 0xFFFFFFFFFFFFFFFFFFFFFFFFFFFFFFFFFFFFFFFF AND PUSH20 0xFFFFFFFFFFFFFFFFFFFFFFFFFFFFFFFFFFFFFFFF AND DUP2 MSTORE PUSH1 0x20 ADD SWAP1 DUP2 MSTORE PUSH1 0x20 ADD PUSH1 0x0 KECCAK256 PUSH1 0x0 PUSH2 0x100 EXP DUP2 SLOAD DUP2 PUSH1 0xFF MUL NOT AND SWAP1 DUP4 ISZERO ISZERO MUL OR SWAP1 SSTORE POP DUP2 PUSH20 0xFFFFFFFFFFFFFFFFFFFFFFFFFFFFFFFFFFFFFFFF AND DUP4 PUSH20 0xFFFFFFFFFFFFFFFFFFFFFFFFFFFFFFFFFFFFFFFF AND PUSH32 0x17307EAB39AB6107E8899845AD3D59BD9653F200F220920489CA2B5937696C31 DUP4 PUSH1 0x40 MLOAD PUSH2 0x137E SWAP2 SWAP1 PUSH2 0x19FE JUMP JUMPDEST PUSH1 0x40 MLOAD DUP1 SWAP2 SUB SWAP1 LOG3 POP POP POP JUMP JUMPDEST PUSH2 0x1396 DUP5 DUP5 DUP5 PUSH2 0xFB1 JUMP JUMPDEST PUSH2 0x13A2 DUP5 DUP5 DUP5 DUP5 PUSH2 0x160E JUMP JUMPDEST PUSH2 0x13E1 JUMPI PUSH1 0x40 MLOAD PUSH32 0x8C379A000000000000000000000000000000000000000000000000000000000 DUP2 MSTORE PUSH1 0x4 ADD PUSH2 0x13D8 SWAP1 PUSH2 0x26BF JUMP JUMPDEST PUSH1 0x40 MLOAD DUP1 SWAP2 SUB SWAP1 REVERT JUMPDEST POP POP POP POP JUMP JUMPDEST PUSH1 0x60 PUSH1 0x0 DUP3 SUB PUSH2 0x142E JUMPI PUSH1 0x40 MLOAD DUP1 PUSH1 0x40 ADD PUSH1 0x40 MSTORE DUP1 PUSH1 0x1 DUP2 MSTORE PUSH1 0x20 ADD PUSH32 0x3000000000000000000000000000000000000000000000000000000000000000 DUP2 MSTORE POP SWAP1 POP PUSH2 0x1542 JUMP JUMPDEST PUSH1 0x0 DUP3 SWAP1 POP PUSH1 0x0 JUMPDEST PUSH1 0x0 DUP3 EQ PUSH2 0x1460 JUMPI DUP1 DUP1 PUSH2 0x1449 SWAP1 PUSH2 0x26DF JUMP JUMPDEST SWAP2 POP POP PUSH1 0xA DUP3 PUSH2 0x1459 SWAP2 SWAP1 PUSH2 0x2756 JUMP JUMPDEST SWAP2 POP PUSH2 0x1436 JUMP JUMPDEST PUSH1 0x0 DUP2 PUSH8 0xFFFFFFFFFFFFFFFF DUP2 GT ISZERO PUSH2 0x147C JUMPI PUSH2 0x147B PUSH2 0x1D56 JUMP JUMPDEST JUMPDEST PUSH1 0x40 MLOAD SWAP1 DUP1 DUP3 MSTORE DUP1 PUSH1 0x1F ADD PUSH1 0x1F NOT AND PUSH1 0x20 ADD DUP3 ADD PUSH1 0x40 MSTORE DUP1 ISZERO PUSH2 0x14AE JUMPI DUP2 PUSH1 0x20 ADD PUSH1 0x1 DUP3 MUL DUP1 CALLDATASIZE DUP4 CALLDATACOPY DUP1 DUP3 ADD SWAP2 POP POP SWAP1 POP JUMPDEST POP SWAP1 POP JUMPDEST PUSH1 0x0 DUP6 EQ PUSH2 0x153B JUMPI PUSH1 0x1 DUP3 PUSH2 0x14C7 SWAP2 SWAP1 PUSH2 0x25AD JUMP JUMPDEST SWAP2 POP PUSH1 0xA DUP6 PUSH2 0x14D6 SWAP2 SWAP1 PUSH2 0x2787 JUMP JUMPDEST PUSH1 0x30 PUSH2 0x14E2 SWAP2 SWAP1 PUSH2 0x21B5 JUMP JUMPDEST PUSH1 0xF8 SHL DUP2 DUP4 DUP2 MLOAD DUP2 LT PUSH2 0x14F8 JUMPI PUSH2 0x14F7 PUSH2 0x27B8 JUMP JUMPDEST JUMPDEST PUSH1 0x20 ADD ADD SWAP1 PUSH31 0xFFFFFFFFFFFFFFFFFFFFFFFFFFFFFFFFFFFFFFFFFFFFFFFFFFFFFFFFFFFFFF NOT AND SWAP1 DUP2 PUSH1 0x0 BYTE SWAP1 MSTORE8 POP PUSH1 0xA DUP6 PUSH2 0x1534 SWAP2 SWAP1 PUSH2 0x2756 JUMP JUMPDEST SWAP5 POP PUSH2 0x14B2 JUMP JUMPDEST DUP1 SWAP4 POP POP POP POP JUMPDEST SWAP2 SWAP1 POP JUMP JUMPDEST PUSH1 0x0 DUP1 PUSH20 0xFFFFFFFFFFFFFFFFFFFFFFFFFFFFFFFFFFFFFFFF AND PUSH1 0x3 PUSH1 0x0 DUP5 DUP2 MSTORE PUSH1 0x20 ADD SWAP1 DUP2 MSTORE PUSH1 0x20 ADD PUSH1 0x0 KECCAK256 PUSH1 0x0 SWAP1 SLOAD SWAP1 PUSH2 0x100 EXP SWAP1 DIV PUSH20 0xFFFFFFFFFFFFFFFFFFFFFFFFFFFFFFFFFFFFFFFF AND PUSH20 0xFFFFFFFFFFFFFFFFFFFFFFFFFFFFFFFFFFFFFFFF AND EQ ISZERO SWAP1 POP SWAP2 SWAP1 POP JUMP JUMPDEST PUSH2 0x15BD DUP4 DUP4 PUSH2 0x1789 JUMP JUMPDEST PUSH2 0x15CA PUSH1 0x0 DUP5 DUP5 DUP5 PUSH2 0x160E JUMP JUMPDEST PUSH2 0x1609 JUMPI PUSH1 0x40 MLOAD PUSH32 0x8C379A000000000000000000000000000000000000000000000000000000000 DUP2 MSTORE PUSH1 0x4 ADD PUSH2 0x1600 SWAP1 PUSH2 0x26BF JUMP JUMPDEST PUSH1 0x40 MLOAD DUP1 SWAP2 SUB SWAP1 REVERT JUMPDEST POP POP POP JUMP JUMPDEST PUSH1 0x0 DUP1 DUP5 PUSH20 0xFFFFFFFFFFFFFFFFFFFFFFFFFFFFFFFFFFFFFFFF AND EXTCODESIZE GT ISZERO PUSH2 0x177C JUMPI DUP4 PUSH20 0xFFFFFFFFFFFFFFFFFFFFFFFFFFFFFFFFFFFFFFFF AND PUSH4 0x150B7A02 CALLER DUP8 DUP7 DUP7 PUSH1 0x40 MLOAD DUP6 PUSH4 0xFFFFFFFF AND PUSH1 0xE0 SHL DUP2 MSTORE PUSH1 0x4 ADD PUSH2 0x166E SWAP5 SWAP4 SWAP3 SWAP2 SWAP1 PUSH2 0x283C JUMP JUMPDEST PUSH1 0x20 PUSH1 0x40 MLOAD DUP1 DUP4 SUB DUP2 PUSH1 0x0 DUP8 GAS CALL SWAP3 POP POP POP DUP1 ISZERO PUSH2 0x16AA JUMPI POP PUSH1 0x40 MLOAD RETURNDATASIZE PUSH1 0x1F NOT PUSH1 0x1F DUP3 ADD AND DUP3 ADD DUP1 PUSH1 0x40 MSTORE POP DUP2 ADD SWAP1 PUSH2 0x16A7 SWAP2 SWAP1 PUSH2 0x289D JUMP JUMPDEST PUSH1 0x1 JUMPDEST PUSH2 0x172C JUMPI RETURNDATASIZE DUP1 PUSH1 0x0 DUP2 EQ PUSH2 0x16DA JUMPI PUSH1 0x40 MLOAD SWAP2 POP PUSH1 0x1F NOT PUSH1 0x3F RETURNDATASIZE ADD AND DUP3 ADD PUSH1 0x40 MSTORE RETURNDATASIZE DUP3 MSTORE RETURNDATASIZE PUSH1 0x0 PUSH1 0x20 DUP5 ADD RETURNDATACOPY PUSH2 0x16DF JUMP JUMPDEST PUSH1 0x60 SWAP2 POP JUMPDEST POP PUSH1 0x0 DUP2 MLOAD SUB PUSH2 0x1724 JUMPI PUSH1 0x40 MLOAD PUSH32 0x8C379A000000000000000000000000000000000000000000000000000000000 DUP2 MSTORE PUSH1 0x4 ADD PUSH2 0x171B SWAP1 PUSH2 0x26BF JUMP JUMPDEST PUSH1 0x40 MLOAD DUP1 SWAP2 SUB SWAP1 REVERT JUMPDEST DUP1 MLOAD DUP2 PUSH1 0x20 ADD REVERT JUMPDEST PUSH4 0x150B7A02 PUSH1 0xE0 SHL PUSH28 0xFFFFFFFFFFFFFFFFFFFFFFFFFFFFFFFFFFFFFFFFFFFFFFFFFFFFFFFF NOT AND DUP2 PUSH28 0xFFFFFFFFFFFFFFFFFFFFFFFFFFFFFFFFFFFFFFFFFFFFFFFFFFFFFFFF NOT AND EQ SWAP2 POP POP PUSH2 0x1781 JUMP JUMPDEST PUSH1 0x1 SWAP1 POP JUMPDEST SWAP5 SWAP4 POP POP POP POP JUMP JUMPDEST PUSH1 0x0 PUSH20 0xFFFFFFFFFFFFFFFFFFFFFFFFFFFFFFFFFFFFFFFF AND DUP3 PUSH20 0xFFFFFFFFFFFFFFFFFFFFFFFFFFFFFFFFFFFFFFFF AND SUB PUSH2 0x17F8 JUMPI PUSH1 0x40 MLOAD PUSH32 0x8C379A000000000000000000000000000000000000000000000000000000000 DUP2 MSTORE PUSH1 0x4 ADD PUSH2 0x17EF SWAP1 PUSH2 0x2916 JUMP JUMPDEST PUSH1 0x40 MLOAD DUP1 SWAP2 SUB SWAP1 REVERT JUMPDEST PUSH2 0x1801 DUP2 PUSH2 0x1547 JUMP JUMPDEST ISZERO PUSH2 0x1841 JUMPI PUSH1 0x40 MLOAD PUSH32 0x8C379A000000000000000000000000000000000000000000000000000000000 DUP2 MSTORE PUSH1 0x4 ADD PUSH2 0x1838 SWAP1 PUSH2 0x2982 JUMP JUMPDEST PUSH1 0x40 MLOAD DUP1 SWAP2 SUB SWAP1 REVERT JUMPDEST PUSH1 0x1 PUSH1 0x4 PUSH1 0x0 DUP5 PUSH20 0xFFFFFFFFFFFFFFFFFFFFFFFFFFFFFFFFFFFFFFFF AND PUSH20 0xFFFFFFFFFFFFFFFFFFFFFFFFFFFFFFFFFFFFFFFF AND DUP2 MSTORE PUSH1 0x20 ADD SWAP1 DUP2 MSTORE PUSH1 0x20 ADD PUSH1 0x0 KECCAK256 PUSH1 0x0 DUP3 DUP3 SLOAD PUSH2 0x1891 SWAP2 SWAP1 PUSH2 0x21B5 JUMP JUMPDEST SWAP3 POP POP DUP2 SWAP1 SSTORE POP DUP2 PUSH1 0x3 PUSH1 0x0 DUP4 DUP2 MSTORE PUSH1 0x20 ADD SWAP1 DUP2 MSTORE PUSH1 0x20 ADD PUSH1 0x0 KECCAK256 PUSH1 0x0 PUSH2 0x100 EXP DUP2 SLOAD DUP2 PUSH20 0xFFFFFFFFFFFFFFFFFFFFFFFFFFFFFFFFFFFFFFFF MUL NOT AND SWAP1 DUP4 PUSH20 0xFFFFFFFFFFFFFFFFFFFFFFFFFFFFFFFFFFFFFFFF AND MUL OR SWAP1 SSTORE POP DUP1 DUP3 PUSH20 0xFFFFFFFFFFFFFFFFFFFFFFFFFFFFFFFFFFFFFFFF AND PUSH1 0x0 PUSH20 0xFFFFFFFFFFFFFFFFFFFFFFFFFFFFFFFFFFFFFFFF AND PUSH32 0xDDF252AD1BE2C89B69C2B068FC378DAA952BA7F163C4A11628F55A4DF523B3EF PUSH1 0x40 MLOAD PUSH1 0x40 MLOAD DUP1 SWAP2 SUB SWAP1 LOG4 POP POP JUMP JUMPDEST PUSH1 0x0 PUSH1 0x40 MLOAD SWAP1 POP SWAP1 JUMP JUMPDEST PUSH1 0x0 DUP1 REVERT JUMPDEST PUSH1 0x0 DUP1 REVERT JUMPDEST PUSH1 0x0 PUSH32 0xFFFFFFFF00000000000000000000000000000000000000000000000000000000 DUP3 AND SWAP1 POP SWAP2 SWAP1 POP JUMP JUMPDEST PUSH2 0x1993 DUP2 PUSH2 0x195E JUMP JUMPDEST DUP2 EQ PUSH2 0x199E JUMPI PUSH1 0x0 DUP1 REVERT JUMPDEST POP JUMP JUMPDEST PUSH1 0x0 DUP2 CALLDATALOAD SWAP1 POP PUSH2 0x19B0 DUP2 PUSH2 0x198A JUMP JUMPDEST SWAP3 SWAP2 POP POP JUMP JUMPDEST PUSH1 0x0 PUSH1 0x20 DUP3 DUP5 SUB SLT ISZERO PUSH2 0x19CC JUMPI PUSH2 0x19CB PUSH2 0x1954 JUMP JUMPDEST JUMPDEST PUSH1 0x0 PUSH2 0x19DA DUP5 DUP3 DUP6 ADD PUSH2 0x19A1 JUMP JUMPDEST SWAP2 POP POP SWAP3 SWAP2 POP POP JUMP JUMPDEST PUSH1 0x0 DUP2 ISZERO ISZERO SWAP1 POP SWAP2 SWAP1 POP JUMP JUMPDEST PUSH2 0x19F8 DUP2 PUSH2 0x19E3 JUMP JUMPDEST DUP3 MSTORE POP POP JUMP JUMPDEST PUSH1 0x0 PUSH1 0x20 DUP3 ADD SWAP1 POP PUSH2 0x1A13 PUSH1 0x0 DUP4 ADD DUP5 PUSH2 0x19EF JUMP JUMPDEST SWAP3 SWAP2 POP POP JUMP JUMPDEST PUSH1 0x0 DUP2 SWAP1 POP SWAP2 SWAP1 POP JUMP JUMPDEST PUSH2 0x1A2C DUP2 PUSH2 0x1A19 JUMP JUMPDEST DUP3 MSTORE POP POP JUMP JUMPDEST PUSH1 0x0 PUSH1 0x20 DUP3 ADD SWAP1 POP PUSH2 0x1A47 PUSH1 0x0 DUP4 ADD DUP5 PUSH2 0x1A23 JUMP JUMPDEST SWAP3 SWAP2 POP POP JUMP JUMPDEST PUSH1 0x0 DUP2 MLOAD SWAP1 POP SWAP2 SWAP1 POP JUMP JUMPDEST PUSH1 0x0 DUP3 DUP3 MSTORE PUSH1 0x20 DUP3 ADD SWAP1 POP SWAP3 SWAP2 POP POP JUMP JUMPDEST PUSH1 0x0 JUMPDEST DUP4 DUP2 LT ISZERO PUSH2 0x1A87 JUMPI DUP1 DUP3 ADD MLOAD DUP2 DUP5 ADD MSTORE PUSH1 0x20 DUP2 ADD SWAP1 POP PUSH2 0x1A6C JUMP JUMPDEST PUSH1 0x0 DUP5 DUP5 ADD MSTORE POP POP POP POP JUMP JUMPDEST PUSH1 0x0 PUSH1 0x1F NOT PUSH1 0x1F DUP4 ADD AND SWAP1 POP SWAP2 SWAP1 POP JUMP JUMPDEST PUSH1 0x0 PUSH2 0x1AAF DUP3 PUSH2 0x1A4D JUMP JUMPDEST PUSH2 0x1AB9 DUP2 DUP6 PUSH2 0x1A58 JUMP JUMPDEST SWAP4 POP PUSH2 0x1AC9 DUP2 DUP6 PUSH1 0x20 DUP7 ADD PUSH2 0x1A69 JUMP JUMPDEST PUSH2 0x1AD2 DUP2 PUSH2 0x1A93 JUMP JUMPDEST DUP5 ADD SWAP2 POP POP SWAP3 SWAP2 POP POP JUMP JUMPDEST PUSH1 0x0 PUSH1 0x20 DUP3 ADD SWAP1 POP DUP2 DUP2 SUB PUSH1 0x0 DUP4 ADD MSTORE PUSH2 0x1AF7 DUP2 DUP5 PUSH2 0x1AA4 JUMP JUMPDEST SWAP1 POP SWAP3 SWAP2 POP POP JUMP JUMPDEST PUSH2 0x1B08 DUP2 PUSH2 0x1A19 JUMP JUMPDEST DUP2 EQ PUSH2 0x1B13 JUMPI PUSH1 0x0 DUP1 REVERT JUMPDEST POP JUMP JUMPDEST PUSH1 0x0 DUP2 CALLDATALOAD SWAP1 POP PUSH2 0x1B25 DUP2 PUSH2 0x1AFF JUMP JUMPDEST SWAP3 SWAP2 POP POP JUMP JUMPDEST PUSH1 0x0 PUSH1 0x20 DUP3 DUP5 SUB SLT ISZERO PUSH2 0x1B41 JUMPI PUSH2 0x1B40 PUSH2 0x1954 JUMP JUMPDEST JUMPDEST PUSH1 0x0 PUSH2 0x1B4F DUP5 DUP3 DUP6 ADD PUSH2 0x1B16 JUMP JUMPDEST SWAP2 POP POP SWAP3 SWAP2 POP POP JUMP JUMPDEST PUSH1 0x0 PUSH20 0xFFFFFFFFFFFFFFFFFFFFFFFFFFFFFFFFFFFFFFFF DUP3 AND SWAP1 POP SWAP2 SWAP1 POP JUMP JUMPDEST PUSH1 0x0 PUSH2 0x1B83 DUP3 PUSH2 0x1B58 JUMP JUMPDEST SWAP1 POP SWAP2 SWAP1 POP JUMP JUMPDEST PUSH2 0x1B93 DUP2 PUSH2 0x1B78 JUMP JUMPDEST DUP3 MSTORE POP POP JUMP JUMPDEST PUSH1 0x0 PUSH1 0x20 DUP3 ADD SWAP1 POP PUSH2 0x1BAE PUSH1 0x0 DUP4 ADD DUP5 PUSH2 0x1B8A JUMP JUMPDEST SWAP3 SWAP2 POP POP JUMP JUMPDEST PUSH2 0x1BBD DUP2 PUSH2 0x1B78 JUMP JUMPDEST DUP2 EQ PUSH2 0x1BC8 JUMPI PUSH1 0x0 DUP1 REVERT JUMPDEST POP JUMP JUMPDEST PUSH1 0x0 DUP2 CALLDATALOAD SWAP1 POP PUSH2 0x1BDA DUP2 PUSH2 0x1BB4 JUMP JUMPDEST SWAP3 SWAP2 POP POP JUMP JUMPDEST PUSH1 0x0 DUP1 PUSH1 0x40 DUP4 DUP6 SUB SLT ISZERO PUSH2 0x1BF7 JUMPI PUSH2 0x1BF6 PUSH2 0x1954 JUMP JUMPDEST JUMPDEST PUSH1 0x0 PUSH2 0x1C05 DUP6 DUP3 DUP7 ADD PUSH2 0x1BCB JUMP JUMPDEST SWAP3 POP POP PUSH1 0x20 PUSH2 0x1C16 DUP6 DUP3 DUP7 ADD PUSH2 0x1B16 JUMP JUMPDEST SWAP2 POP POP SWAP3 POP SWAP3 SWAP1 POP JUMP JUMPDEST PUSH1 0x0 DUP1 PUSH1 0x0 PUSH1 0x60 DUP5 DUP7 SUB SLT ISZERO PUSH2 0x1C39 JUMPI PUSH2 0x1C38 PUSH2 0x1954 JUMP JUMPDEST JUMPDEST PUSH1 0x0 PUSH2 0x1C47 DUP7 DUP3 DUP8 ADD PUSH2 0x1BCB JUMP JUMPDEST SWAP4 POP POP PUSH1 0x20 PUSH2 0x1C58 DUP7 DUP3 DUP8 ADD PUSH2 0x1BCB JUMP JUMPDEST SWAP3 POP POP PUSH1 0x40 PUSH2 0x1C69 DUP7 DUP3 DUP8 ADD PUSH2 0x1B16 JUMP JUMPDEST SWAP2 POP POP SWAP3 POP SWAP3 POP SWAP3 JUMP JUMPDEST PUSH1 0x0 DUP1 PUSH1 0x40 DUP4 DUP6 SUB SLT ISZERO PUSH2 0x1C8A JUMPI PUSH2 0x1C89 PUSH2 0x1954 JUMP JUMPDEST JUMPDEST PUSH1 0x0 PUSH2 0x1C98 DUP6 DUP3 DUP7 ADD PUSH2 0x1BCB JUMP JUMPDEST SWAP3 POP POP PUSH1 0x20 PUSH2 0x1CA9 DUP6 DUP3 DUP7 ADD PUSH2 0x1BCB JUMP JUMPDEST SWAP2 POP POP SWAP3 POP SWAP3 SWAP1 POP JUMP JUMPDEST PUSH1 0x0 PUSH1 0x20 DUP3 DUP5 SUB SLT ISZERO PUSH2 0x1CC9 JUMPI PUSH2 0x1CC8 PUSH2 0x1954 JUMP JUMPDEST JUMPDEST PUSH1 0x0 PUSH2 0x1CD7 DUP5 DUP3 DUP6 ADD PUSH2 0x1BCB JUMP JUMPDEST SWAP2 POP POP SWAP3 SWAP2 POP POP JUMP JUMPDEST PUSH2 0x1CE9 DUP2 PUSH2 0x19E3 JUMP JUMPDEST DUP2 EQ PUSH2 0x1CF4 JUMPI PUSH1 0x0 DUP1 REVERT JUMPDEST POP JUMP JUMPDEST PUSH1 0x0 DUP2 CALLDATALOAD SWAP1 POP PUSH2 0x1D06 DUP2 PUSH2 0x1CE0 JUMP JUMPDEST SWAP3 SWAP2 POP POP JUMP JUMPDEST PUSH1 0x0 DUP1 PUSH1 0x40 DUP4 DUP6 SUB SLT ISZERO PUSH2 0x1D23 JUMPI PUSH2 0x1D22 PUSH2 0x1954 JUMP JUMPDEST JUMPDEST PUSH1 0x0 PUSH2 0x1D31 DUP6 DUP3 DUP7 ADD PUSH2 0x1BCB JUMP JUMPDEST SWAP3 POP POP PUSH1 0x20 PUSH2 0x1D42 DUP6 DUP3 DUP7 ADD PUSH2 0x1CF7 JUMP JUMPDEST SWAP2 POP POP SWAP3 POP SWAP3 SWAP1 POP JUMP JUMPDEST PUSH1 0x0 DUP1 REVERT JUMPDEST PUSH1 0x0 DUP1 REVERT JUMPDEST PUSH32 0x4E487B7100000000000000000000000000000000000000000000000000000000 PUSH1 0x0 MSTORE PUSH1 0x41 PUSH1 0x4 MSTORE PUSH1 0x24 PUSH1 0x0 REVERT JUMPDEST PUSH2 0x1D8E DUP3 PUSH2 0x1A93 JUMP JUMPDEST DUP2 ADD DUP2 DUP2 LT PUSH8 0xFFFFFFFFFFFFFFFF DUP3 GT OR ISZERO PUSH2 0x1DAD JUMPI PUSH2 0x1DAC PUSH2 0x1D56 JUMP JUMPDEST JUMPDEST DUP1 PUSH1 0x40 MSTORE POP POP POP JUMP JUMPDEST PUSH1 0x0 PUSH2 0x1DC0 PUSH2 0x194A JUMP JUMPDEST SWAP1 POP PUSH2 0x1DCC DUP3 DUP3 PUSH2 0x1D85 JUMP JUMPDEST SWAP2 SWAP1 POP JUMP JUMPDEST PUSH1 0x0 PUSH8 0xFFFFFFFFFFFFFFFF DUP3 GT ISZERO PUSH2 0x1DEC JUMPI PUSH2 0x1DEB PUSH2 0x1D56 JUMP JUMPDEST JUMPDEST PUSH2 0x1DF5 DUP3 PUSH2 0x1A93 JUMP JUMPDEST SWAP1 POP PUSH1 0x20 DUP2 ADD SWAP1 POP SWAP2 SWAP1 POP JUMP JUMPDEST DUP3 DUP2 DUP4 CALLDATACOPY PUSH1 0x0 DUP4 DUP4 ADD MSTORE POP POP POP JUMP JUMPDEST PUSH1 0x0 PUSH2 0x1E24 PUSH2 0x1E1F DUP5 PUSH2 0x1DD1 JUMP JUMPDEST PUSH2 0x1DB6 JUMP JUMPDEST SWAP1 POP DUP3 DUP2 MSTORE PUSH1 0x20 DUP2 ADD DUP5 DUP5 DUP5 ADD GT ISZERO PUSH2 0x1E40 JUMPI PUSH2 0x1E3F PUSH2 0x1D51 JUMP JUMPDEST JUMPDEST PUSH2 0x1E4B DUP5 DUP3 DUP6 PUSH2 0x1E02 JUMP JUMPDEST POP SWAP4 SWAP3 POP POP POP JUMP JUMPDEST PUSH1 0x0 DUP3 PUSH1 0x1F DUP4 ADD SLT PUSH2 0x1E68 JUMPI PUSH2 0x1E67 PUSH2 0x1D4C JUMP JUMPDEST JUMPDEST DUP2 CALLDATALOAD PUSH2 0x1E78 DUP5 DUP3 PUSH1 0x20 DUP7 ADD PUSH2 0x1E11 JUMP JUMPDEST SWAP2 POP POP SWAP3 SWAP2 POP POP JUMP JUMPDEST PUSH1 0x0 DUP1 PUSH1 0x0 DUP1 PUSH1 0x80 DUP6 DUP8 SUB SLT ISZERO PUSH2 0x1E9B JUMPI PUSH2 0x1E9A PUSH2 0x1954 JUMP JUMPDEST JUMPDEST PUSH1 0x0 PUSH2 0x1EA9 DUP8 DUP3 DUP9 ADD PUSH2 0x1BCB JUMP JUMPDEST SWAP5 POP POP PUSH1 0x20 PUSH2 0x1EBA DUP8 DUP3 DUP9 ADD PUSH2 0x1BCB JUMP JUMPDEST SWAP4 POP POP PUSH1 0x40 PUSH2 0x1ECB DUP8 DUP3 DUP9 ADD PUSH2 0x1B16 JUMP JUMPDEST SWAP3 POP POP PUSH1 0x60 DUP6 ADD CALLDATALOAD PUSH8 0xFFFFFFFFFFFFFFFF DUP2 GT ISZERO PUSH2 0x1EEC JUMPI PUSH2 0x1EEB PUSH2 0x1959 JUMP JUMPDEST JUMPDEST PUSH2 0x1EF8 DUP8 DUP3 DUP9 ADD PUSH2 0x1E53 JUMP JUMPDEST SWAP2 POP POP SWAP3 SWAP6 SWAP2 SWAP5 POP SWAP3 POP JUMP JUMPDEST PUSH32 0x4E487B7100000000000000000000000000000000000000000000000000000000 PUSH1 0x0 MSTORE PUSH1 0x22 PUSH1 0x4 MSTORE PUSH1 0x24 PUSH1 0x0 REVERT JUMPDEST PUSH1 0x0 PUSH1 0x2 DUP3 DIV SWAP1 POP PUSH1 0x1 DUP3 AND DUP1 PUSH2 0x1F4B JUMPI PUSH1 0x7F DUP3 AND SWAP2 POP JUMPDEST PUSH1 0x20 DUP3 LT DUP2 SUB PUSH2 0x1F5E JUMPI PUSH2 0x1F5D PUSH2 0x1F04 JUMP JUMPDEST JUMPDEST POP SWAP2 SWAP1 POP JUMP JUMPDEST PUSH32 0x4552433732313A20617070726F76616C20746F2063757272656E74206F776E65 PUSH1 0x0 DUP3 ADD MSTORE PUSH32 0x7200000000000000000000000000000000000000000000000000000000000000 PUSH1 0x20 DUP3 ADD MSTORE POP JUMP JUMPDEST PUSH1 0x0 PUSH2 0x1FC0 PUSH1 0x21 DUP4 PUSH2 0x1A58 JUMP JUMPDEST SWAP2 POP PUSH2 0x1FCB DUP3 PUSH2 0x1F64 JUMP JUMPDEST PUSH1 0x40 DUP3 ADD SWAP1 POP SWAP2 SWAP1 POP JUMP JUMPDEST PUSH1 0x0 PUSH1 0x20 DUP3 ADD SWAP1 POP DUP2 DUP2 SUB PUSH1 0x0 DUP4 ADD MSTORE PUSH2 0x1FEF DUP2 PUSH2 0x1FB3 JUMP JUMPDEST SWAP1 POP SWAP2 SWAP1 POP JUMP JUMPDEST PUSH32 0x4552433732313A20617070726F76652063616C6C6572206973206E6F7420746F PUSH1 0x0 DUP3 ADD MSTORE PUSH32 0x6B656E206F776E6572206E6F7220617070726F76656420666F7220616C6C0000 PUSH1 0x20 DUP3 ADD MSTORE POP JUMP JUMPDEST PUSH1 0x0 PUSH2 0x2052 PUSH1 0x3E DUP4 PUSH2 0x1A58 JUMP JUMPDEST SWAP2 POP PUSH2 0x205D DUP3 PUSH2 0x1FF6 JUMP JUMPDEST PUSH1 0x40 DUP3 ADD SWAP1 POP SWAP2 SWAP1 POP JUMP JUMPDEST PUSH1 0x0 PUSH1 0x20 DUP3 ADD SWAP1 POP DUP2 DUP2 SUB PUSH1 0x0 DUP4 ADD MSTORE PUSH2 0x2081 DUP2 PUSH2 0x2045 JUMP JUMPDEST SWAP1 POP SWAP2 SWAP1 POP JUMP JUMPDEST PUSH32 0x4552433732313A2063616C6C6572206973206E6F7420746F6B656E206F776E65 PUSH1 0x0 DUP3 ADD MSTORE PUSH32 0x72206E6F7220617070726F766564000000000000000000000000000000000000 PUSH1 0x20 DUP3 ADD MSTORE POP JUMP JUMPDEST PUSH1 0x0 PUSH2 0x20E4 PUSH1 0x2E DUP4 PUSH2 0x1A58 JUMP JUMPDEST SWAP2 POP PUSH2 0x20EF DUP3 PUSH2 0x2088 JUMP JUMPDEST PUSH1 0x40 DUP3 ADD SWAP1 POP SWAP2 SWAP1 POP JUMP JUMPDEST PUSH1 0x0 PUSH1 0x20 DUP3 ADD SWAP1 POP DUP2 DUP2 SUB PUSH1 0x0 DUP4 ADD MSTORE PUSH2 0x2113 DUP2 PUSH2 0x20D7 JUMP JUMPDEST SWAP1 POP SWAP2 SWAP1 POP JUMP JUMPDEST PUSH32 0x57726F6E67206164647265737300000000000000000000000000000000000000 PUSH1 0x0 DUP3 ADD MSTORE POP JUMP JUMPDEST PUSH1 0x0 PUSH2 0x2150 PUSH1 0xD DUP4 PUSH2 0x1A58 JUMP JUMPDEST SWAP2 POP PUSH2 0x215B DUP3 PUSH2 0x211A JUMP JUMPDEST PUSH1 0x20 DUP3 ADD SWAP1 POP SWAP2 SWAP1 POP JUMP JUMPDEST PUSH1 0x0 PUSH1 0x20 DUP3 ADD SWAP1 POP DUP2 DUP2 SUB PUSH1 0x0 DUP4 ADD MSTORE PUSH2 0x217F DUP2 PUSH2 0x2143 JUMP JUMPDEST SWAP1 POP SWAP2 SWAP1 POP JUMP JUMPDEST PUSH32 0x4E487B7100000000000000000000000000000000000000000000000000000000 PUSH1 0x0 MSTORE PUSH1 0x11 PUSH1 0x4 MSTORE PUSH1 0x24 PUSH1 0x0 REVERT JUMPDEST PUSH1 0x0 PUSH2 0x21C0 DUP3 PUSH2 0x1A19 JUMP JUMPDEST SWAP2 POP PUSH2 0x21CB DUP4 PUSH2 0x1A19 JUMP JUMPDEST SWAP3 POP DUP3 DUP3 ADD SWAP1 POP DUP1 DUP3 GT ISZERO PUSH2 0x21E3 JUMPI PUSH2 0x21E2 PUSH2 0x2186 JUMP JUMPDEST JUMPDEST SWAP3 SWAP2 POP POP JUMP JUMPDEST PUSH32 0x4552433732313A20696E76616C696420746F6B656E2049440000000000000000 PUSH1 0x0 DUP3 ADD MSTORE POP JUMP JUMPDEST PUSH1 0x0 PUSH2 0x221F PUSH1 0x18 DUP4 PUSH2 0x1A58 JUMP JUMPDEST SWAP2 POP PUSH2 0x222A DUP3 PUSH2 0x21E9 JUMP JUMPDEST PUSH1 0x20 DUP3 ADD SWAP1 POP SWAP2 SWAP1 POP JUMP JUMPDEST PUSH1 0x0 PUSH1 0x20 DUP3 ADD SWAP1 POP DUP2 DUP2 SUB PUSH1 0x0 DUP4 ADD MSTORE PUSH2 0x224E DUP2 PUSH2 0x2212 JUMP JUMPDEST SWAP1 POP SWAP2 SWAP1 POP JUMP JUMPDEST PUSH32 0x4552433732313A2061646472657373207A65726F206973206E6F742061207661 PUSH1 0x0 DUP3 ADD MSTORE PUSH32 0x6C6964206F776E65720000000000000000000000000000000000000000000000 PUSH1 0x20 DUP3 ADD MSTORE POP JUMP JUMPDEST PUSH1 0x0 PUSH2 0x22B1 PUSH1 0x29 DUP4 PUSH2 0x1A58 JUMP JUMPDEST SWAP2 POP PUSH2 0x22BC DUP3 PUSH2 0x2255 JUMP JUMPDEST PUSH1 0x40 DUP3 ADD SWAP1 POP SWAP2 SWAP1 POP JUMP JUMPDEST PUSH1 0x0 PUSH1 0x20 DUP3 ADD SWAP1 POP DUP2 DUP2 SUB PUSH1 0x0 DUP4 ADD MSTORE PUSH2 0x22E0 DUP2 PUSH2 0x22A4 JUMP JUMPDEST SWAP1 POP SWAP2 SWAP1 POP JUMP JUMPDEST PUSH1 0x0 DUP2 MLOAD SWAP1 POP PUSH2 0x22F6 DUP2 PUSH2 0x1CE0 JUMP JUMPDEST SWAP3 SWAP2 POP POP JUMP JUMPDEST PUSH1 0x0 PUSH1 0x20 DUP3 DUP5 SUB SLT ISZERO PUSH2 0x2312 JUMPI PUSH2 0x2311 PUSH2 0x1954 JUMP JUMPDEST JUMPDEST PUSH1 0x0 PUSH2 0x2320 DUP5 DUP3 DUP6 ADD PUSH2 0x22E7 JUMP JUMPDEST SWAP2 POP POP SWAP3 SWAP2 POP POP JUMP JUMPDEST PUSH32 0x4E6F7420612076616C696420626F617264206164647265737300000000000000 PUSH1 0x0 DUP3 ADD MSTORE POP JUMP JUMPDEST PUSH1 0x0 PUSH2 0x235F PUSH1 0x19 DUP4 PUSH2 0x1A58 JUMP JUMPDEST SWAP2 POP PUSH2 0x236A DUP3 PUSH2 0x2329 JUMP JUMPDEST PUSH1 0x20 DUP3 ADD SWAP1 POP SWAP2 SWAP1 POP JUMP JUMPDEST PUSH1 0x0 PUSH1 0x20 DUP3 ADD SWAP1 POP DUP2 DUP2 SUB PUSH1 0x0 DUP4 ADD MSTORE PUSH2 0x238E DUP2 PUSH2 0x2352 JUMP JUMPDEST SWAP1 POP SWAP2 SWAP1 POP JUMP JUMPDEST PUSH32 0x4D757374206265206120626F617264206D656D62657200000000000000000000 PUSH1 0x0 DUP3 ADD MSTORE POP JUMP JUMPDEST PUSH1 0x0 PUSH2 0x23CB PUSH1 0x16 DUP4 PUSH2 0x1A58 JUMP JUMPDEST SWAP2 POP PUSH2 0x23D6 DUP3 PUSH2 0x2395 JUMP JUMPDEST PUSH1 0x20 DUP3 ADD SWAP1 POP SWAP2 SWAP1 POP JUMP JUMPDEST PUSH1 0x0 PUSH1 0x20 DUP3 ADD SWAP1 POP DUP2 DUP2 SUB PUSH1 0x0 DUP4 ADD MSTORE PUSH2 0x23FA DUP2 PUSH2 0x23BE JUMP JUMPDEST SWAP1 POP SWAP2 SWAP1 POP JUMP JUMPDEST PUSH32 0x68747470733A2F2F7777772E6C61626F722E6C616E642F6D656D6265722F0000 DUP2 MSTORE POP JUMP JUMPDEST PUSH1 0x0 DUP2 SWAP1 POP SWAP3 SWAP2 POP POP JUMP JUMPDEST PUSH1 0x0 PUSH2 0x243D DUP3 PUSH2 0x1A4D JUMP JUMPDEST PUSH2 0x2447 DUP2 DUP6 PUSH2 0x2427 JUMP JUMPDEST SWAP4 POP PUSH2 0x2457 DUP2 DUP6 PUSH1 0x20 DUP7 ADD PUSH2 0x1A69 JUMP JUMPDEST DUP1 DUP5 ADD SWAP2 POP POP SWAP3 SWAP2 POP POP JUMP JUMPDEST PUSH1 0x0 PUSH2 0x246E DUP3 PUSH2 0x2401 JUMP JUMPDEST PUSH1 0x1E DUP3 ADD SWAP2 POP PUSH2 0x247E DUP3 DUP5 PUSH2 0x2432 JUMP JUMPDEST SWAP2 POP DUP2 SWAP1 POP SWAP3 SWAP2 POP POP JUMP JUMPDEST PUSH32 0x4552433732313A207472616E736665722066726F6D20696E636F727265637420 PUSH1 0x0 DUP3 ADD MSTORE PUSH32 0x6F776E6572000000000000000000000000000000000000000000000000000000 PUSH1 0x20 DUP3 ADD MSTORE POP JUMP JUMPDEST PUSH1 0x0 PUSH2 0x24E5 PUSH1 0x25 DUP4 PUSH2 0x1A58 JUMP JUMPDEST SWAP2 POP PUSH2 0x24F0 DUP3 PUSH2 0x2489 JUMP JUMPDEST PUSH1 0x40 DUP3 ADD SWAP1 POP SWAP2 SWAP1 POP JUMP JUMPDEST PUSH1 0x0 PUSH1 0x20 DUP3 ADD SWAP1 POP DUP2 DUP2 SUB PUSH1 0x0 DUP4 ADD MSTORE PUSH2 0x2514 DUP2 PUSH2 0x24D8 JUMP JUMPDEST SWAP1 POP SWAP2 SWAP1 POP JUMP JUMPDEST PUSH32 0x4552433732313A207472616E7366657220746F20746865207A65726F20616464 PUSH1 0x0 DUP3 ADD MSTORE PUSH32 0x7265737300000000000000000000000000000000000000000000000000000000 PUSH1 0x20 DUP3 ADD MSTORE POP JUMP JUMPDEST PUSH1 0x0 PUSH2 0x2577 PUSH1 0x24 DUP4 PUSH2 0x1A58 JUMP JUMPDEST SWAP2 POP PUSH2 0x2582 DUP3 PUSH2 0x251B JUMP JUMPDEST PUSH1 0x40 DUP3 ADD SWAP1 POP SWAP2 SWAP1 POP JUMP JUMPDEST PUSH1 0x0 PUSH1 0x20 DUP3 ADD SWAP1 POP DUP2 DUP2 SUB PUSH1 0x0 DUP4 ADD MSTORE PUSH2 0x25A6 DUP2 PUSH2 0x256A JUMP JUMPDEST SWAP1 POP SWAP2 SWAP1 POP JUMP JUMPDEST PUSH1 0x0 PUSH2 0x25B8 DUP3 PUSH2 0x1A19 JUMP JUMPDEST SWAP2 POP PUSH2 0x25C3 DUP4 PUSH2 0x1A19 JUMP JUMPDEST SWAP3 POP DUP3 DUP3 SUB SWAP1 POP DUP2 DUP2 GT ISZERO PUSH2 0x25DB JUMPI PUSH2 0x25DA PUSH2 0x2186 JUMP JUMPDEST JUMPDEST SWAP3 SWAP2 POP POP JUMP JUMPDEST PUSH32 0x4552433732313A20617070726F766520746F2063616C6C657200000000000000 PUSH1 0x0 DUP3 ADD MSTORE POP JUMP JUMPDEST PUSH1 0x0 PUSH2 0x2617 PUSH1 0x19 DUP4 PUSH2 0x1A58 JUMP JUMPDEST SWAP2 POP PUSH2 0x2622 DUP3 PUSH2 0x25E1 JUMP JUMPDEST PUSH1 0x20 DUP3 ADD SWAP1 POP SWAP2 SWAP1 POP JUMP JUMPDEST PUSH1 0x0 PUSH1 0x20 DUP3 ADD SWAP1 POP DUP2 DUP2 SUB PUSH1 0x0 DUP4 ADD MSTORE PUSH2 0x2646 DUP2 PUSH2 0x260A JUMP JUMPDEST SWAP1 POP SWAP2 SWAP1 POP JUMP JUMPDEST PUSH32 0x4552433732313A207472616E7366657220746F206E6F6E204552433732315265 PUSH1 0x0 DUP3 ADD MSTORE PUSH32 0x63656976657220696D706C656D656E7465720000000000000000000000000000 PUSH1 0x20 DUP3 ADD MSTORE POP JUMP JUMPDEST PUSH1 0x0 PUSH2 0x26A9 PUSH1 0x32 DUP4 PUSH2 0x1A58 JUMP JUMPDEST SWAP2 POP PUSH2 0x26B4 DUP3 PUSH2 0x264D JUMP JUMPDEST PUSH1 0x40 DUP3 ADD SWAP1 POP SWAP2 SWAP1 POP JUMP JUMPDEST PUSH1 0x0 PUSH1 0x20 DUP3 ADD SWAP1 POP DUP2 DUP2 SUB PUSH1 0x0 DUP4 ADD MSTORE PUSH2 0x26D8 DUP2 PUSH2 0x269C JUMP JUMPDEST SWAP1 POP SWAP2 SWAP1 POP JUMP JUMPDEST PUSH1 0x0 PUSH2 0x26EA DUP3 PUSH2 0x1A19 JUMP JUMPDEST SWAP2 POP PUSH32 0xFFFFFFFFFFFFFFFFFFFFFFFFFFFFFFFFFFFFFFFFFFFFFFFFFFFFFFFFFFFFFFFF DUP3 SUB PUSH2 0x271C JUMPI PUSH2 0x271B PUSH2 0x2186 JUMP JUMPDEST JUMPDEST PUSH1 0x1 DUP3 ADD SWAP1 POP SWAP2 SWAP1 POP JUMP JUMPDEST PUSH32 0x4E487B7100000000000000000000000000000000000000000000000000000000 PUSH1 0x0 MSTORE PUSH1 0x12 PUSH1 0x4 MSTORE PUSH1 0x24 PUSH1 0x0 REVERT JUMPDEST PUSH1 0x0 PUSH2 0x2761 DUP3 PUSH2 0x1A19 JUMP JUMPDEST SWAP2 POP PUSH2 0x276C DUP4 PUSH2 0x1A19 JUMP JUMPDEST SWAP3 POP DUP3 PUSH2 0x277C JUMPI PUSH2 0x277B PUSH2 0x2727 JUMP JUMPDEST JUMPDEST DUP3 DUP3 DIV SWAP1 POP SWAP3 SWAP2 POP POP JUMP JUMPDEST PUSH1 0x0 PUSH2 0x2792 DUP3 PUSH2 0x1A19 JUMP JUMPDEST SWAP2 POP PUSH2 0x279D DUP4 PUSH2 0x1A19 JUMP JUMPDEST SWAP3 POP DUP3 PUSH2 0x27AD JUMPI PUSH2 0x27AC PUSH2 0x2727 JUMP JUMPDEST JUMPDEST DUP3 DUP3 MOD SWAP1 POP SWAP3 SWAP2 POP POP JUMP JUMPDEST PUSH32 0x4E487B7100000000000000000000000000000000000000000000000000000000 PUSH1 0x0 MSTORE PUSH1 0x32 PUSH1 0x4 MSTORE PUSH1 0x24 PUSH1 0x0 REVERT JUMPDEST PUSH1 0x0 DUP2 MLOAD SWAP1 POP SWAP2 SWAP1 POP JUMP JUMPDEST PUSH1 0x0 DUP3 DUP3 MSTORE PUSH1 0x20 DUP3 ADD SWAP1 POP SWAP3 SWAP2 POP POP JUMP JUMPDEST PUSH1 0x0 PUSH2 0x280E DUP3 PUSH2 0x27E7 JUMP JUMPDEST PUSH2 0x2818 DUP2 DUP6 PUSH2 0x27F2 JUMP JUMPDEST SWAP4 POP PUSH2 0x2828 DUP2 DUP6 PUSH1 0x20 DUP7 ADD PUSH2 0x1A69 JUMP JUMPDEST PUSH2 0x2831 DUP2 PUSH2 0x1A93 JUMP JUMPDEST DUP5 ADD SWAP2 POP POP SWAP3 SWAP2 POP POP JUMP JUMPDEST PUSH1 0x0 PUSH1 0x80 DUP3 ADD SWAP1 POP PUSH2 0x2851 PUSH1 0x0 DUP4 ADD DUP8 PUSH2 0x1B8A JUMP JUMPDEST PUSH2 0x285E PUSH1 0x20 DUP4 ADD DUP7 PUSH2 0x1B8A JUMP JUMPDEST PUSH2 0x286B PUSH1 0x40 DUP4 ADD DUP6 PUSH2 0x1A23 JUMP JUMPDEST DUP2 DUP2 SUB PUSH1 0x60 DUP4 ADD MSTORE PUSH2 0x287D DUP2 DUP5 PUSH2 0x2803 JUMP JUMPDEST SWAP1 POP SWAP6 SWAP5 POP POP POP POP POP JUMP JUMPDEST PUSH1 0x0 DUP2 MLOAD SWAP1 POP PUSH2 0x2897 DUP2 PUSH2 0x198A JUMP JUMPDEST SWAP3 SWAP2 POP POP JUMP JUMPDEST PUSH1 0x0 PUSH1 0x20 DUP3 DUP5 SUB SLT ISZERO PUSH2 0x28B3 JUMPI PUSH2 0x28B2 PUSH2 0x1954 JUMP JUMPDEST JUMPDEST PUSH1 0x0 PUSH2 0x28C1 DUP5 DUP3 DUP6 ADD PUSH2 0x2888 JUMP JUMPDEST SWAP2 POP POP SWAP3 SWAP2 POP POP JUMP JUMPDEST PUSH32 0x4552433732313A206D696E7420746F20746865207A65726F2061646472657373 PUSH1 0x0 DUP3 ADD MSTORE POP JUMP JUMPDEST PUSH1 0x0 PUSH2 0x2900 PUSH1 0x20 DUP4 PUSH2 0x1A58 JUMP JUMPDEST SWAP2 POP PUSH2 0x290B DUP3 PUSH2 0x28CA JUMP JUMPDEST PUSH1 0x20 DUP3 ADD SWAP1 POP SWAP2 SWAP1 POP JUMP JUMPDEST PUSH1 0x0 PUSH1 0x20 DUP3 ADD SWAP1 POP DUP2 DUP2 SUB PUSH1 0x0 DUP4 ADD MSTORE PUSH2 0x292F DUP2 PUSH2 0x28F3 JUMP JUMPDEST SWAP1 POP SWAP2 SWAP1 POP JUMP JUMPDEST PUSH32 0x4552433732313A20746F6B656E20616C7265616479206D696E74656400000000 PUSH1 0x0 DUP3 ADD MSTORE POP JUMP JUMPDEST PUSH1 0x0 PUSH2 0x296C PUSH1 0x1C DUP4 PUSH2 0x1A58 JUMP JUMPDEST SWAP2 POP PUSH2 0x2977 DUP3 PUSH2 0x2936 JUMP JUMPDEST PUSH1 0x20 DUP3 ADD SWAP1 POP SWAP2 SWAP1 POP JUMP JUMPDEST PUSH1 0x0 PUSH1 0x20 DUP3 ADD SWAP1 POP DUP2 DUP2 SUB PUSH1 0x0 DUP4 ADD MSTORE PUSH2 0x299B DUP2 PUSH2 0x295F JUMP JUMPDEST SWAP1 POP SWAP2 SWAP1 POP JUMP INVALID LOG2 PUSH5 0x6970667358 0x22 SLT KECCAK256 NOT SHR 0xD2 0x29 DIV PUSH25 0xEA6AE39A37AD3AEFDCF5E1D41637BAF38022554914A74912E0 0xAA PUSH5 0x736F6C6343 STOP ADDMOD GT STOP CALLER "},"gasEstimates":{"creation":{"codeDepositCost":"1687800","executionCost":"infinite","totalCost":"infinite"},"external":{"boards(address)":"2845","create(string)":"infinite","isBoard(address)":"2861","memberNFTAddress()":"2580","names(address)":"infinite"}},"methodIdentifiers":{"boards(address)":"49a852e5","create(string)":"b6a46b3b","isBoard(address)":"0aab6cf6","memberNFTAddress()":"ceecabf5","names(address)":"5cf3d346"}},"storageLayout":{"storage":[{"astId":282,"contract":"MemberBoardFactory.sol:MemberBoardFactory","label":"names","offset":0,"slot":"0","type":"t_mapping(t_address,t_string_storage)"},{"astId":286,"contract":"MemberBoardFactory.sol:MemberBoardFactory","label":"boards","offset":0,"slot":"1","type":"t_mapping(t_address,t_bool)"},{"astId":288,"contract":"MemberBoardFactory.sol:MemberBoardFactory","label":"memberNFTAddress","offset":0,"slot":"2","type":"t_address"}],"types":{"t_address":{"encoding":"inplace","label":"address","numberOfBytes":"20"},"t_bool":{"encoding":"inplace","label":"bool","numberOfBytes":"1"},"t_mapping(t_address,t_bool)":{"encoding":"mapping","key":"t_address","label":"mapping(address => bool)","numberOfBytes":"32","value":"t_bool"},"t_mapping(t_address,t_string_storage)":{"encoding":"mapping","key":"t_address","label":"mapping(address => string)","numberOfBytes":"32","value":"t_string_storage"},"t_string_storage":{"encoding":"bytes","label":"string","numberOfBytes":"32"}}},"userdoc":{"kind":"user","methods":{},"version":1}}