{"abi":[{"inputs":[{"internalType":"address","name":"__memberNFTContract","type":"address"}],"stateMutability":"nonpayable","type":"constructor"},{"anonymous":false,"inputs":[{"indexed":true,"internalType":"address","name":"owner","type":"address"},{"indexed":true,"internalType":"address","name":"approved","type":"address"},{"indexed":true,"internalType":"uint256","name":"tokenId","type":"uint256"}],"name":"Approval","type":"event"},{"anonymous":false,"inputs":[{"indexed":true,"internalType":"address","name":"owner","type":"address"},{"indexed":true,"internalType":"address","name":"operator","type":"address"},{"indexed":false,"internalType":"bool","name":"approved","type":"bool"}],"name":"ApprovalForAll","type":"event"},{"anonymous":false,"inputs":[{"indexed":true,"internalType":"address","name":"from","type":"address"},{"indexed":true,"internalType":"address","name":"to","type":"address"},{"indexed":true,"internalType":"uint256","name":"tokenId","type":"uint256"}],"name":"Transfer","type":"event"},{"inputs":[{"internalType":"address","name":"to","type":"address"},{"internalType":"uint256","name":"tokenId","type":"uint256"}],"name":"approve","outputs":[],"stateMutability":"nonpayable","type":"function"},{"inputs":[{"internalType":"address","name":"owner_","type":"address"}],"name":"balanceOf","outputs":[{"internalType":"uint256","name":"","type":"uint256"}],"stateMutability":"view","type":"function"},{"inputs":[],"name":"count","outputs":[{"internalType":"uint256","name":"","type":"uint256"}],"stateMutability":"view","type":"function"},{"inputs":[{"internalType":"uint256","name":"tokenId","type":"uint256"}],"name":"getApproved","outputs":[{"internalType":"address","name":"","type":"address"}],"stateMutability":"view","type":"function"},{"inputs":[{"internalType":"address","name":"tokeOwner","type":"address"},{"internalType":"address","name":"operator","type":"address"}],"name":"isApprovedForAll","outputs":[{"internalType":"bool","name":"","type":"bool"}],"stateMutability":"view","type":"function"},{"inputs":[],"name":"memberNFTContract","outputs":[{"internalType":"address","name":"","type":"address"}],"stateMutability":"view","type":"function"},{"inputs":[{"internalType":"address","name":"who","type":"address"}],"name":"mintTo","outputs":[],"stateMutability":"nonpayable","type":"function"},{"inputs":[],"name":"name","outputs":[{"internalType":"string","name":"","type":"string"}],"stateMutability":"view","type":"function"},{"inputs":[{"internalType":"uint256","name":"tokenId","type":"uint256"}],"name":"ownerOf","outputs":[{"internalType":"address","name":"","type":"address"}],"stateMutability":"view","type":"function"},{"inputs":[{"internalType":"address","name":"from","type":"address"},{"internalType":"address","name":"to","type":"address"},{"internalType":"uint256","name":"tokenId","type":"uint256"}],"name":"safeTransferFrom","outputs":[],"stateMutability":"nonpayable","type":"function"},{"inputs":[{"internalType":"address","name":"from","type":"address"},{"internalType":"address","name":"to","type":"address"},{"internalType":"uint256","name":"tokenId","type":"uint256"},{"internalType":"bytes","name":"data","type":"bytes"}],"name":"safeTransferFrom","outputs":[],"stateMutability":"nonpayable","type":"function"},{"inputs":[{"internalType":"address","name":"operator","type":"address"},{"internalType":"bool","name":"approved","type":"bool"}],"name":"setApprovalForAll","outputs":[],"stateMutability":"nonpayable","type":"function"},{"inputs":[{"internalType":"bytes4","name":"interfaceId","type":"bytes4"}],"name":"supportsInterface","outputs":[{"internalType":"bool","name":"","type":"bool"}],"stateMutability":"view","type":"function"},{"inputs":[],"name":"symbol","outputs":[{"internalType":"string","name":"","type":"string"}],"stateMutability":"view","type":"function"},{"inputs":[{"internalType":"uint256","name":"tokenId","type":"uint256"}],"name":"tokenURI","outputs":[{"internalType":"string","name":"","type":"string"}],"stateMutability":"view","type":"function"},{"inputs":[{"internalType":"address","name":"from","type":"address"},{"internalType":"address","name":"to","type":"address"},{"internalType":"uint256","name":"tokenId","type":"uint256"}],"name":"transferFrom","outputs":[],"stateMutability":"nonpayable","type":"function"}],"devdoc":{"kind":"dev","methods":{"approve(address,uint256)":{"details":"Gives permission to `to` to transfer `tokenId` token to another account. The approval is cleared when the token is transferred. Only a single account can be approved at a time, so approving the zero address clears previous approvals. Requirements: - The caller must own the token or be an approved operator. - `tokenId` must exist. Emits an {Approval} event."},"getApproved(uint256)":{"details":"Returns the account approved for `tokenId` token. Requirements: - `tokenId` must exist."},"ownerOf(uint256)":{"details":"Returns the owner of the `tokenId` token. Requirements: - `tokenId` must exist."},"safeTransferFrom(address,address,uint256)":{"details":"Safely transfers `tokenId` token from `from` to `to`, checking first that contract recipients are aware of the ERC721 protocol to prevent tokens from being forever locked. Requirements: - `from` cannot be the zero address. - `to` cannot be the zero address. - `tokenId` token must exist and be owned by `from`. - If the caller is not `from`, it must have been allowed to move this token by either {approve} or {setApprovalForAll}. - If `to` refers to a smart contract, it must implement {IERC721Receiver-onERC721Received}, which is called upon a safe transfer. Emits a {Transfer} event."},"safeTransferFrom(address,address,uint256,bytes)":{"details":"Safely transfers `tokenId` token from `from` to `to`. Requirements: - `from` cannot be the zero address. - `to` cannot be the zero address. - `tokenId` token must exist and be owned by `from`. - If the caller is not `from`, it must be approved to move this token by either {approve} or {setApprovalForAll}. - If `to` refers to a smart contract, it must implement {IERC721Receiver-onERC721Received}, which is called upon a safe transfer. Emits a {Transfer} event."},"tokenURI(uint256)":{"details":"Returns the Uniform Resource Identifier (URI) for `tokenId` token."},"transferFrom(address,address,uint256)":{"details":"Transfers `tokenId` token from `from` to `to`. WARNING: Usage of this method is discouraged, use {safeTransferFrom} whenever possible. Requirements: - `from` cannot be the zero address. - `to` cannot be the zero address. - `tokenId` token must be owned by `from`. - If the caller is not `from`, it must be approved to move this token by either {approve} or {setApprovalForAll}. Emits a {Transfer} event."}},"stateVariables":{"name":{"details":"Returns the token collection name."},"symbol":{"details":"Returns the token collection symbol."}},"version":1},"evm":{"assembly":"    /* \"ProposalNFT.sol\":325:8247  contract Proposal is ERC165, IERC721, IERC721Metadata {... */\n  mstore(0x40, 0x80)\n    /* \"ProposalNFT.sol\":420:451  string public name = \"Proposal\" */\n  mload(0x40)\n  dup1\n  0x40\n  add\n  0x40\n  mstore\n  dup1\n  0x08\n  dup2\n  mstore\n  0x20\n  add\n  0x50726f706f73616c000000000000000000000000000000000000000000000000\n  dup2\n  mstore\n  pop\n  0x00\n  swap1\n  dup2\n  tag_1\n  swap2\n  swap1\n  tag_2\n  jump\t// in\ntag_1:\n  pop\n    /* \"ProposalNFT.sol\":458:486  string public symbol = \"PRO\" */\n  mload(0x40)\n  dup1\n  0x40\n  add\n  0x40\n  mstore\n  dup1\n  0x03\n  dup2\n  mstore\n  0x20\n  add\n  0x50524f0000000000000000000000000000000000000000000000000000000000\n  dup2\n  mstore\n  pop\n  0x01\n  swap1\n  dup2\n  tag_3\n  swap2\n  swap1\n  tag_2\n  jump\t// in\ntag_3:\n  pop\n    /* \"ProposalNFT.sol\":758:759  0 */\n  0x00\n    /* \"ProposalNFT.sol\":735:759  uint256 public count = 0 */\n  0x06\n  sstore\n    /* \"ProposalNFT.sol\":807:906  constructor(address __memberNFTContract) {... */\n  callvalue\n  dup1\n  iszero\n  tag_4\n  jumpi\n  0x00\n  dup1\n  revert\ntag_4:\n  pop\n  mload(0x40)\n  sub(codesize, bytecodeSize)\n  dup1\n  bytecodeSize\n  dup4\n  codecopy\n  dup2\n  dup2\n  add\n  0x40\n  mstore\n  dup2\n  add\n  swap1\n  tag_5\n  swap2\n  swap1\n  tag_6\n  jump\t// in\ntag_5:\n    /* \"ProposalNFT.sol\":879:898  __memberNFTContract */\n  dup1\n    /* \"ProposalNFT.sol\":859:876  memberNFTContract */\n  0x07\n  0x00\n    /* \"ProposalNFT.sol\":859:898  memberNFTContract = __memberNFTContract */\n  0x0100\n  exp\n  dup2\n  sload\n  dup2\n  0xffffffffffffffffffffffffffffffffffffffff\n  mul\n  not\n  and\n  swap1\n  dup4\n  0xffffffffffffffffffffffffffffffffffffffff\n  and\n  mul\n  or\n  swap1\n  sstore\n  pop\n    /* \"ProposalNFT.sol\":807:906  constructor(address __memberNFTContract) {... */\n  pop\n    /* \"ProposalNFT.sol\":325:8247  contract Proposal is ERC165, IERC721, IERC721Metadata {... */\n  jump(tag_9)\n    /* \"#utility.yul\":7:106   */\ntag_10:\n    /* \"#utility.yul\":59:65   */\n  0x00\n    /* \"#utility.yul\":93:98   */\n  dup2\n    /* \"#utility.yul\":87:99   */\n  mload\n    /* \"#utility.yul\":77:99   */\n  swap1\n  pop\n    /* \"#utility.yul\":7:106   */\n  swap2\n  swap1\n  pop\n  jump\t// out\n    /* \"#utility.yul\":112:292   */\ntag_11:\n    /* \"#utility.yul\":160:237   */\n  0x4e487b7100000000000000000000000000000000000000000000000000000000\n    /* \"#utility.yul\":157:158   */\n  0x00\n    /* \"#utility.yul\":150:238   */\n  mstore\n    /* \"#utility.yul\":257:261   */\n  0x41\n    /* \"#utility.yul\":254:255   */\n  0x04\n    /* \"#utility.yul\":247:262   */\n  mstore\n    /* \"#utility.yul\":281:285   */\n  0x24\n    /* \"#utility.yul\":278:279   */\n  0x00\n    /* \"#utility.yul\":271:286   */\n  revert\n    /* \"#utility.yul\":298:478   */\ntag_12:\n    /* \"#utility.yul\":346:423   */\n  0x4e487b7100000000000000000000000000000000000000000000000000000000\n    /* \"#utility.yul\":343:344   */\n  0x00\n    /* \"#utility.yul\":336:424   */\n  mstore\n    /* \"#utility.yul\":443:447   */\n  0x22\n    /* \"#utility.yul\":440:441   */\n  0x04\n    /* \"#utility.yul\":433:448   */\n  mstore\n    /* \"#utility.yul\":467:471   */\n  0x24\n    /* \"#utility.yul\":464:465   */\n  0x00\n    /* \"#utility.yul\":457:472   */\n  revert\n    /* \"#utility.yul\":484:804   */\ntag_13:\n    /* \"#utility.yul\":528:534   */\n  0x00\n    /* \"#utility.yul\":565:566   */\n  0x02\n    /* \"#utility.yul\":559:563   */\n  dup3\n    /* \"#utility.yul\":555:567   */\n  div\n    /* \"#utility.yul\":545:567   */\n  swap1\n  pop\n    /* \"#utility.yul\":612:613   */\n  0x01\n    /* \"#utility.yul\":606:610   */\n  dup3\n    /* \"#utility.yul\":602:614   */\n  and\n    /* \"#utility.yul\":633:651   */\n  dup1\n    /* \"#utility.yul\":623:704   */\n  tag_42\n  jumpi\n    /* \"#utility.yul\":689:693   */\n  0x7f\n    /* \"#utility.yul\":681:687   */\n  dup3\n    /* \"#utility.yul\":677:694   */\n  and\n    /* \"#utility.yul\":667:694   */\n  swap2\n  pop\n    /* \"#utility.yul\":623:704   */\ntag_42:\n    /* \"#utility.yul\":751:753   */\n  0x20\n    /* \"#utility.yul\":743:749   */\n  dup3\n    /* \"#utility.yul\":740:754   */\n  lt\n    /* \"#utility.yul\":720:738   */\n  dup2\n    /* \"#utility.yul\":717:755   */\n  sub\n    /* \"#utility.yul\":714:798   */\n  tag_43\n  jumpi\n    /* \"#utility.yul\":770:788   */\n  tag_44\n  tag_12\n  jump\t// in\ntag_44:\n    /* \"#utility.yul\":714:798   */\ntag_43:\n    /* \"#utility.yul\":535:804   */\n  pop\n    /* \"#utility.yul\":484:804   */\n  swap2\n  swap1\n  pop\n  jump\t// out\n    /* \"#utility.yul\":810:951   */\ntag_14:\n    /* \"#utility.yul\":859:863   */\n  0x00\n    /* \"#utility.yul\":882:885   */\n  dup2\n    /* \"#utility.yul\":874:885   */\n  swap1\n  pop\n    /* \"#utility.yul\":905:908   */\n  dup2\n    /* \"#utility.yul\":902:903   */\n  0x00\n    /* \"#utility.yul\":895:909   */\n  mstore\n    /* \"#utility.yul\":939:943   */\n  0x20\n    /* \"#utility.yul\":936:937   */\n  0x00\n    /* \"#utility.yul\":926:944   */\n  keccak256\n    /* \"#utility.yul\":918:944   */\n  swap1\n  pop\n    /* \"#utility.yul\":810:951   */\n  swap2\n  swap1\n  pop\n  jump\t// out\n    /* \"#utility.yul\":957:1050   */\ntag_15:\n    /* \"#utility.yul\":994:1000   */\n  0x00\n    /* \"#utility.yul\":1041:1043   */\n  0x20\n    /* \"#utility.yul\":1036:1038   */\n  0x1f\n    /* \"#utility.yul\":1029:1034   */\n  dup4\n    /* \"#utility.yul\":1025:1039   */\n  add\n    /* \"#utility.yul\":1021:1044   */\n  div\n    /* \"#utility.yul\":1011:1044   */\n  swap1\n  pop\n    /* \"#utility.yul\":957:1050   */\n  swap2\n  swap1\n  pop\n  jump\t// out\n    /* \"#utility.yul\":1056:1163   */\ntag_16:\n    /* \"#utility.yul\":1100:1108   */\n  0x00\n    /* \"#utility.yul\":1150:1155   */\n  dup3\n    /* \"#utility.yul\":1144:1148   */\n  dup3\n    /* \"#utility.yul\":1140:1156   */\n  shl\n    /* \"#utility.yul\":1119:1156   */\n  swap1\n  pop\n    /* \"#utility.yul\":1056:1163   */\n  swap3\n  swap2\n  pop\n  pop\n  jump\t// out\n    /* \"#utility.yul\":1169:1562   */\ntag_17:\n    /* \"#utility.yul\":1238:1244   */\n  0x00\n    /* \"#utility.yul\":1288:1289   */\n  0x08\n    /* \"#utility.yul\":1276:1286   */\n  dup4\n    /* \"#utility.yul\":1272:1290   */\n  mul\n    /* \"#utility.yul\":1311:1408   */\n  tag_49\n    /* \"#utility.yul\":1341:1407   */\n  0xffffffffffffffffffffffffffffffffffffffffffffffffffffffffffffffff\n    /* \"#utility.yul\":1330:1339   */\n  dup3\n    /* \"#utility.yul\":1311:1408   */\n  tag_16\n  jump\t// in\ntag_49:\n    /* \"#utility.yul\":1429:1468   */\n  tag_50\n    /* \"#utility.yul\":1459:1467   */\n  dup7\n    /* \"#utility.yul\":1448:1457   */\n  dup4\n    /* \"#utility.yul\":1429:1468   */\n  tag_16\n  jump\t// in\ntag_50:\n    /* \"#utility.yul\":1417:1468   */\n  swap6\n  pop\n    /* \"#utility.yul\":1501:1505   */\n  dup1\n    /* \"#utility.yul\":1497:1506   */\n  not\n    /* \"#utility.yul\":1490:1495   */\n  dup5\n    /* \"#utility.yul\":1486:1507   */\n  and\n    /* \"#utility.yul\":1477:1507   */\n  swap4\n  pop\n    /* \"#utility.yul\":1550:1554   */\n  dup1\n    /* \"#utility.yul\":1540:1548   */\n  dup7\n    /* \"#utility.yul\":1536:1555   */\n  and\n    /* \"#utility.yul\":1529:1534   */\n  dup5\n    /* \"#utility.yul\":1526:1556   */\n  or\n    /* \"#utility.yul\":1516:1556   */\n  swap3\n  pop\n    /* \"#utility.yul\":1245:1562   */\n  pop\n  pop\n    /* \"#utility.yul\":1169:1562   */\n  swap4\n  swap3\n  pop\n  pop\n  pop\n  jump\t// out\n    /* \"#utility.yul\":1568:1645   */\ntag_18:\n    /* \"#utility.yul\":1605:1612   */\n  0x00\n    /* \"#utility.yul\":1634:1639   */\n  dup2\n    /* \"#utility.yul\":1623:1639   */\n  swap1\n  pop\n    /* \"#utility.yul\":1568:1645   */\n  swap2\n  swap1\n  pop\n  jump\t// out\n    /* \"#utility.yul\":1651:1711   */\ntag_19:\n    /* \"#utility.yul\":1679:1682   */\n  0x00\n    /* \"#utility.yul\":1700:1705   */\n  dup2\n    /* \"#utility.yul\":1693:1705   */\n  swap1\n  pop\n    /* \"#utility.yul\":1651:1711   */\n  swap2\n  swap1\n  pop\n  jump\t// out\n    /* \"#utility.yul\":1717:1859   */\ntag_20:\n    /* \"#utility.yul\":1767:1776   */\n  0x00\n    /* \"#utility.yul\":1800:1853   */\n  tag_54\n    /* \"#utility.yul\":1818:1852   */\n  tag_55\n    /* \"#utility.yul\":1827:1851   */\n  tag_56\n    /* \"#utility.yul\":1845:1850   */\n  dup5\n    /* \"#utility.yul\":1827:1851   */\n  tag_18\n  jump\t// in\ntag_56:\n    /* \"#utility.yul\":1818:1852   */\n  tag_19\n  jump\t// in\ntag_55:\n    /* \"#utility.yul\":1800:1853   */\n  tag_18\n  jump\t// in\ntag_54:\n    /* \"#utility.yul\":1787:1853   */\n  swap1\n  pop\n    /* \"#utility.yul\":1717:1859   */\n  swap2\n  swap1\n  pop\n  jump\t// out\n    /* \"#utility.yul\":1865:1940   */\ntag_21:\n    /* \"#utility.yul\":1908:1911   */\n  0x00\n    /* \"#utility.yul\":1929:1934   */\n  dup2\n    /* \"#utility.yul\":1922:1934   */\n  swap1\n  pop\n    /* \"#utility.yul\":1865:1940   */\n  swap2\n  swap1\n  pop\n  jump\t// out\n    /* \"#utility.yul\":1946:2215   */\ntag_22:\n    /* \"#utility.yul\":2056:2095   */\n  tag_59\n    /* \"#utility.yul\":2087:2094   */\n  dup4\n    /* \"#utility.yul\":2056:2095   */\n  tag_20\n  jump\t// in\ntag_59:\n    /* \"#utility.yul\":2117:2208   */\n  tag_60\n    /* \"#utility.yul\":2166:2207   */\n  tag_61\n    /* \"#utility.yul\":2190:2206   */\n  dup3\n    /* \"#utility.yul\":2166:2207   */\n  tag_21\n  jump\t// in\ntag_61:\n    /* \"#utility.yul\":2158:2164   */\n  dup5\n    /* \"#utility.yul\":2151:2155   */\n  dup5\n    /* \"#utility.yul\":2145:2156   */\n  sload\n    /* \"#utility.yul\":2117:2208   */\n  tag_17\n  jump\t// in\ntag_60:\n    /* \"#utility.yul\":2111:2115   */\n  dup3\n    /* \"#utility.yul\":2104:2209   */\n  sstore\n    /* \"#utility.yul\":2022:2215   */\n  pop\n    /* \"#utility.yul\":1946:2215   */\n  pop\n  pop\n  pop\n  jump\t// out\n    /* \"#utility.yul\":2221:2294   */\ntag_23:\n    /* \"#utility.yul\":2266:2269   */\n  0x00\n    /* \"#utility.yul\":2221:2294   */\n  swap1\n  jump\t// out\n    /* \"#utility.yul\":2300:2489   */\ntag_24:\n    /* \"#utility.yul\":2377:2409   */\n  tag_64\n  tag_23\n  jump\t// in\ntag_64:\n    /* \"#utility.yul\":2418:2483   */\n  tag_65\n    /* \"#utility.yul\":2476:2482   */\n  dup2\n    /* \"#utility.yul\":2468:2474   */\n  dup5\n    /* \"#utility.yul\":2462:2466   */\n  dup5\n    /* \"#utility.yul\":2418:2483   */\n  tag_22\n  jump\t// in\ntag_65:\n    /* \"#utility.yul\":2353:2489   */\n  pop\n    /* \"#utility.yul\":2300:2489   */\n  pop\n  pop\n  jump\t// out\n    /* \"#utility.yul\":2495:2681   */\ntag_25:\n    /* \"#utility.yul\":2555:2675   */\ntag_67:\n    /* \"#utility.yul\":2572:2575   */\n  dup2\n    /* \"#utility.yul\":2565:2570   */\n  dup2\n    /* \"#utility.yul\":2562:2576   */\n  lt\n    /* \"#utility.yul\":2555:2675   */\n  iszero\n  tag_69\n  jumpi\n    /* \"#utility.yul\":2626:2665   */\n  tag_70\n    /* \"#utility.yul\":2663:2664   */\n  0x00\n    /* \"#utility.yul\":2656:2661   */\n  dup3\n    /* \"#utility.yul\":2626:2665   */\n  tag_24\n  jump\t// in\ntag_70:\n    /* \"#utility.yul\":2599:2600   */\n  0x01\n    /* \"#utility.yul\":2592:2597   */\n  dup2\n    /* \"#utility.yul\":2588:2601   */\n  add\n    /* \"#utility.yul\":2579:2601   */\n  swap1\n  pop\n    /* \"#utility.yul\":2555:2675   */\n  jump(tag_67)\ntag_69:\n    /* \"#utility.yul\":2495:2681   */\n  pop\n  pop\n  jump\t// out\n    /* \"#utility.yul\":2687:3230   */\ntag_26:\n    /* \"#utility.yul\":2788:2790   */\n  0x1f\n    /* \"#utility.yul\":2783:2786   */\n  dup3\n    /* \"#utility.yul\":2780:2791   */\n  gt\n    /* \"#utility.yul\":2777:3223   */\n  iszero\n  tag_72\n  jumpi\n    /* \"#utility.yul\":2822:2860   */\n  tag_73\n    /* \"#utility.yul\":2854:2859   */\n  dup2\n    /* \"#utility.yul\":2822:2860   */\n  tag_14\n  jump\t// in\ntag_73:\n    /* \"#utility.yul\":2906:2935   */\n  tag_74\n    /* \"#utility.yul\":2924:2934   */\n  dup5\n    /* \"#utility.yul\":2906:2935   */\n  tag_15\n  jump\t// in\ntag_74:\n    /* \"#utility.yul\":2896:2904   */\n  dup2\n    /* \"#utility.yul\":2892:2936   */\n  add\n    /* \"#utility.yul\":3089:3091   */\n  0x20\n    /* \"#utility.yul\":3077:3087   */\n  dup6\n    /* \"#utility.yul\":3074:3092   */\n  lt\n    /* \"#utility.yul\":3071:3120   */\n  iszero\n  tag_75\n  jumpi\n    /* \"#utility.yul\":3110:3118   */\n  dup2\n    /* \"#utility.yul\":3095:3118   */\n  swap1\n  pop\n    /* \"#utility.yul\":3071:3120   */\ntag_75:\n    /* \"#utility.yul\":3133:3213   */\n  tag_76\n    /* \"#utility.yul\":3189:3211   */\n  tag_77\n    /* \"#utility.yul\":3207:3210   */\n  dup6\n    /* \"#utility.yul\":3189:3211   */\n  tag_15\n  jump\t// in\ntag_77:\n    /* \"#utility.yul\":3179:3187   */\n  dup4\n    /* \"#utility.yul\":3175:3212   */\n  add\n    /* \"#utility.yul\":3162:3173   */\n  dup3\n    /* \"#utility.yul\":3133:3213   */\n  tag_25\n  jump\t// in\ntag_76:\n    /* \"#utility.yul\":2792:3223   */\n  pop\n  pop\n    /* \"#utility.yul\":2777:3223   */\ntag_72:\n    /* \"#utility.yul\":2687:3230   */\n  pop\n  pop\n  pop\n  jump\t// out\n    /* \"#utility.yul\":3236:3353   */\ntag_27:\n    /* \"#utility.yul\":3290:3298   */\n  0x00\n    /* \"#utility.yul\":3340:3345   */\n  dup3\n    /* \"#utility.yul\":3334:3338   */\n  dup3\n    /* \"#utility.yul\":3330:3346   */\n  shr\n    /* \"#utility.yul\":3309:3346   */\n  swap1\n  pop\n    /* \"#utility.yul\":3236:3353   */\n  swap3\n  swap2\n  pop\n  pop\n  jump\t// out\n    /* \"#utility.yul\":3359:3528   */\ntag_28:\n    /* \"#utility.yul\":3403:3409   */\n  0x00\n    /* \"#utility.yul\":3436:3487   */\n  tag_80\n    /* \"#utility.yul\":3484:3485   */\n  0x00\n    /* \"#utility.yul\":3480:3486   */\n  not\n    /* \"#utility.yul\":3472:3477   */\n  dup5\n    /* \"#utility.yul\":3469:3470   */\n  0x08\n    /* \"#utility.yul\":3465:3478   */\n  mul\n    /* \"#utility.yul\":3436:3487   */\n  tag_27\n  jump\t// in\ntag_80:\n    /* \"#utility.yul\":3432:3488   */\n  not\n    /* \"#utility.yul\":3517:3521   */\n  dup1\n    /* \"#utility.yul\":3511:3515   */\n  dup4\n    /* \"#utility.yul\":3507:3522   */\n  and\n    /* \"#utility.yul\":3497:3522   */\n  swap2\n  pop\n    /* \"#utility.yul\":3410:3528   */\n  pop\n    /* \"#utility.yul\":3359:3528   */\n  swap3\n  swap2\n  pop\n  pop\n  jump\t// out\n    /* \"#utility.yul\":3533:3828   */\ntag_29:\n    /* \"#utility.yul\":3609:3613   */\n  0x00\n    /* \"#utility.yul\":3755:3784   */\n  tag_82\n    /* \"#utility.yul\":3780:3783   */\n  dup4\n    /* \"#utility.yul\":3774:3778   */\n  dup4\n    /* \"#utility.yul\":3755:3784   */\n  tag_28\n  jump\t// in\ntag_82:\n    /* \"#utility.yul\":3747:3784   */\n  swap2\n  pop\n    /* \"#utility.yul\":3817:3820   */\n  dup3\n    /* \"#utility.yul\":3814:3815   */\n  0x02\n    /* \"#utility.yul\":3810:3821   */\n  mul\n    /* \"#utility.yul\":3804:3808   */\n  dup3\n    /* \"#utility.yul\":3801:3822   */\n  or\n    /* \"#utility.yul\":3793:3822   */\n  swap1\n  pop\n    /* \"#utility.yul\":3533:3828   */\n  swap3\n  swap2\n  pop\n  pop\n  jump\t// out\n    /* \"#utility.yul\":3833:5228   */\ntag_2:\n    /* \"#utility.yul\":3950:3987   */\n  tag_84\n    /* \"#utility.yul\":3983:3986   */\n  dup3\n    /* \"#utility.yul\":3950:3987   */\n  tag_10\n  jump\t// in\ntag_84:\n    /* \"#utility.yul\":4052:4070   */\n  0xffffffffffffffff\n    /* \"#utility.yul\":4044:4050   */\n  dup2\n    /* \"#utility.yul\":4041:4071   */\n  gt\n    /* \"#utility.yul\":4038:4094   */\n  iszero\n  tag_85\n  jumpi\n    /* \"#utility.yul\":4074:4092   */\n  tag_86\n  tag_11\n  jump\t// in\ntag_86:\n    /* \"#utility.yul\":4038:4094   */\ntag_85:\n    /* \"#utility.yul\":4118:4156   */\n  tag_87\n    /* \"#utility.yul\":4150:4154   */\n  dup3\n    /* \"#utility.yul\":4144:4155   */\n  sload\n    /* \"#utility.yul\":4118:4156   */\n  tag_13\n  jump\t// in\ntag_87:\n    /* \"#utility.yul\":4203:4270   */\n  tag_88\n    /* \"#utility.yul\":4263:4269   */\n  dup3\n    /* \"#utility.yul\":4255:4261   */\n  dup3\n    /* \"#utility.yul\":4249:4253   */\n  dup6\n    /* \"#utility.yul\":4203:4270   */\n  tag_26\n  jump\t// in\ntag_88:\n    /* \"#utility.yul\":4297:4298   */\n  0x00\n    /* \"#utility.yul\":4321:4325   */\n  0x20\n    /* \"#utility.yul\":4308:4325   */\n  swap1\n  pop\n    /* \"#utility.yul\":4353:4355   */\n  0x1f\n    /* \"#utility.yul\":4345:4351   */\n  dup4\n    /* \"#utility.yul\":4342:4356   */\n  gt\n    /* \"#utility.yul\":4370:4371   */\n  0x01\n    /* \"#utility.yul\":4365:4983   */\n  dup2\n  eq\n  tag_90\n  jumpi\n    /* \"#utility.yul\":5027:5028   */\n  0x00\n    /* \"#utility.yul\":5044:5050   */\n  dup5\n    /* \"#utility.yul\":5041:5118   */\n  iszero\n  tag_91\n  jumpi\n    /* \"#utility.yul\":5093:5102   */\n  dup3\n    /* \"#utility.yul\":5088:5091   */\n  dup8\n    /* \"#utility.yul\":5084:5103   */\n  add\n    /* \"#utility.yul\":5078:5104   */\n  mload\n    /* \"#utility.yul\":5069:5104   */\n  swap1\n  pop\n    /* \"#utility.yul\":5041:5118   */\ntag_91:\n    /* \"#utility.yul\":5144:5211   */\n  tag_92\n    /* \"#utility.yul\":5204:5210   */\n  dup6\n    /* \"#utility.yul\":5197:5202   */\n  dup3\n    /* \"#utility.yul\":5144:5211   */\n  tag_29\n  jump\t// in\ntag_92:\n    /* \"#utility.yul\":5138:5142   */\n  dup7\n    /* \"#utility.yul\":5131:5212   */\n  sstore\n    /* \"#utility.yul\":5000:5222   */\n  pop\n    /* \"#utility.yul\":4335:5222   */\n  jump(tag_89)\n    /* \"#utility.yul\":4365:4983   */\ntag_90:\n    /* \"#utility.yul\":4417:4421   */\n  0x1f\n    /* \"#utility.yul\":4413:4422   */\n  not\n    /* \"#utility.yul\":4405:4411   */\n  dup5\n    /* \"#utility.yul\":4401:4423   */\n  and\n    /* \"#utility.yul\":4451:4488   */\n  tag_93\n    /* \"#utility.yul\":4483:4487   */\n  dup7\n    /* \"#utility.yul\":4451:4488   */\n  tag_14\n  jump\t// in\ntag_93:\n    /* \"#utility.yul\":4510:4511   */\n  0x00\n    /* \"#utility.yul\":4524:4732   */\ntag_94:\n    /* \"#utility.yul\":4538:4545   */\n  dup3\n    /* \"#utility.yul\":4535:4536   */\n  dup2\n    /* \"#utility.yul\":4532:4546   */\n  lt\n    /* \"#utility.yul\":4524:4732   */\n  iszero\n  tag_96\n  jumpi\n    /* \"#utility.yul\":4617:4626   */\n  dup5\n    /* \"#utility.yul\":4612:4615   */\n  dup10\n    /* \"#utility.yul\":4608:4627   */\n  add\n    /* \"#utility.yul\":4602:4628   */\n  mload\n    /* \"#utility.yul\":4594:4600   */\n  dup3\n    /* \"#utility.yul\":4587:4629   */\n  sstore\n    /* \"#utility.yul\":4668:4669   */\n  0x01\n    /* \"#utility.yul\":4660:4666   */\n  dup3\n    /* \"#utility.yul\":4656:4670   */\n  add\n    /* \"#utility.yul\":4646:4670   */\n  swap2\n  pop\n    /* \"#utility.yul\":4715:4717   */\n  0x20\n    /* \"#utility.yul\":4704:4713   */\n  dup6\n    /* \"#utility.yul\":4700:4718   */\n  add\n    /* \"#utility.yul\":4687:4718   */\n  swap5\n  pop\n    /* \"#utility.yul\":4561:4565   */\n  0x20\n    /* \"#utility.yul\":4558:4559   */\n  dup2\n    /* \"#utility.yul\":4554:4566   */\n  add\n    /* \"#utility.yul\":4549:4566   */\n  swap1\n  pop\n    /* \"#utility.yul\":4524:4732   */\n  jump(tag_94)\ntag_96:\n    /* \"#utility.yul\":4760:4766   */\n  dup7\n    /* \"#utility.yul\":4751:4758   */\n  dup4\n    /* \"#utility.yul\":4748:4767   */\n  lt\n    /* \"#utility.yul\":4745:4924   */\n  iszero\n  tag_97\n  jumpi\n    /* \"#utility.yul\":4818:4827   */\n  dup5\n    /* \"#utility.yul\":4813:4816   */\n  dup10\n    /* \"#utility.yul\":4809:4828   */\n  add\n    /* \"#utility.yul\":4803:4829   */\n  mload\n    /* \"#utility.yul\":4861:4909   */\n  tag_98\n    /* \"#utility.yul\":4903:4907   */\n  0x1f\n    /* \"#utility.yul\":4895:4901   */\n  dup10\n    /* \"#utility.yul\":4891:4908   */\n  and\n    /* \"#utility.yul\":4880:4889   */\n  dup3\n    /* \"#utility.yul\":4861:4909   */\n  tag_28\n  jump\t// in\ntag_98:\n    /* \"#utility.yul\":4853:4859   */\n  dup4\n    /* \"#utility.yul\":4846:4910   */\n  sstore\n    /* \"#utility.yul\":4768:4924   */\n  pop\n    /* \"#utility.yul\":4745:4924   */\ntag_97:\n    /* \"#utility.yul\":4970:4971   */\n  0x01\n    /* \"#utility.yul\":4966:4967   */\n  0x02\n    /* \"#utility.yul\":4958:4964   */\n  dup9\n    /* \"#utility.yul\":4954:4968   */\n  mul\n    /* \"#utility.yul\":4950:4972   */\n  add\n    /* \"#utility.yul\":4944:4948   */\n  dup9\n    /* \"#utility.yul\":4937:4973   */\n  sstore\n    /* \"#utility.yul\":4372:4983   */\n  pop\n  pop\n  pop\n    /* \"#utility.yul\":4335:5222   */\ntag_89:\n  pop\n    /* \"#utility.yul\":3925:5228   */\n  pop\n  pop\n  pop\n    /* \"#utility.yul\":3833:5228   */\n  pop\n  pop\n  jump\t// out\n    /* \"#utility.yul\":5315:5432   */\ntag_31:\n    /* \"#utility.yul\":5424:5425   */\n  0x00\n    /* \"#utility.yul\":5421:5422   */\n  dup1\n    /* \"#utility.yul\":5414:5426   */\n  revert\n    /* \"#utility.yul\":5561:5687   */\ntag_33:\n    /* \"#utility.yul\":5598:5605   */\n  0x00\n    /* \"#utility.yul\":5638:5680   */\n  0xffffffffffffffffffffffffffffffffffffffff\n    /* \"#utility.yul\":5631:5636   */\n  dup3\n    /* \"#utility.yul\":5627:5681   */\n  and\n    /* \"#utility.yul\":5616:5681   */\n  swap1\n  pop\n    /* \"#utility.yul\":5561:5687   */\n  swap2\n  swap1\n  pop\n  jump\t// out\n    /* \"#utility.yul\":5693:5789   */\ntag_34:\n    /* \"#utility.yul\":5730:5737   */\n  0x00\n    /* \"#utility.yul\":5759:5783   */\n  tag_104\n    /* \"#utility.yul\":5777:5782   */\n  dup3\n    /* \"#utility.yul\":5759:5783   */\n  tag_33\n  jump\t// in\ntag_104:\n    /* \"#utility.yul\":5748:5783   */\n  swap1\n  pop\n    /* \"#utility.yul\":5693:5789   */\n  swap2\n  swap1\n  pop\n  jump\t// out\n    /* \"#utility.yul\":5795:5917   */\ntag_35:\n    /* \"#utility.yul\":5868:5892   */\n  tag_106\n    /* \"#utility.yul\":5886:5891   */\n  dup2\n    /* \"#utility.yul\":5868:5892   */\n  tag_34\n  jump\t// in\ntag_106:\n    /* \"#utility.yul\":5861:5866   */\n  dup2\n    /* \"#utility.yul\":5858:5893   */\n  eq\n    /* \"#utility.yul\":5848:5911   */\n  tag_107\n  jumpi\n    /* \"#utility.yul\":5907:5908   */\n  0x00\n    /* \"#utility.yul\":5904:5905   */\n  dup1\n    /* \"#utility.yul\":5897:5909   */\n  revert\n    /* \"#utility.yul\":5848:5911   */\ntag_107:\n    /* \"#utility.yul\":5795:5917   */\n  pop\n  jump\t// out\n    /* \"#utility.yul\":5923:6066   */\ntag_36:\n    /* \"#utility.yul\":5980:5985   */\n  0x00\n    /* \"#utility.yul\":6011:6017   */\n  dup2\n    /* \"#utility.yul\":6005:6018   */\n  mload\n    /* \"#utility.yul\":5996:6018   */\n  swap1\n  pop\n    /* \"#utility.yul\":6027:6060   */\n  tag_109\n    /* \"#utility.yul\":6054:6059   */\n  dup2\n    /* \"#utility.yul\":6027:6060   */\n  tag_35\n  jump\t// in\ntag_109:\n    /* \"#utility.yul\":5923:6066   */\n  swap3\n  swap2\n  pop\n  pop\n  jump\t// out\n    /* \"#utility.yul\":6072:6423   */\ntag_6:\n    /* \"#utility.yul\":6142:6148   */\n  0x00\n    /* \"#utility.yul\":6191:6193   */\n  0x20\n    /* \"#utility.yul\":6179:6188   */\n  dup3\n    /* \"#utility.yul\":6170:6177   */\n  dup5\n    /* \"#utility.yul\":6166:6189   */\n  sub\n    /* \"#utility.yul\":6162:6194   */\n  slt\n    /* \"#utility.yul\":6159:6278   */\n  iszero\n  tag_111\n  jumpi\n    /* \"#utility.yul\":6197:6276   */\n  tag_112\n  tag_31\n  jump\t// in\ntag_112:\n    /* \"#utility.yul\":6159:6278   */\ntag_111:\n    /* \"#utility.yul\":6317:6318   */\n  0x00\n    /* \"#utility.yul\":6342:6406   */\n  tag_113\n    /* \"#utility.yul\":6398:6405   */\n  dup5\n    /* \"#utility.yul\":6389:6395   */\n  dup3\n    /* \"#utility.yul\":6378:6387   */\n  dup6\n    /* \"#utility.yul\":6374:6396   */\n  add\n    /* \"#utility.yul\":6342:6406   */\n  tag_36\n  jump\t// in\ntag_113:\n    /* \"#utility.yul\":6332:6406   */\n  swap2\n  pop\n    /* \"#utility.yul\":6288:6416   */\n  pop\n    /* \"#utility.yul\":6072:6423   */\n  swap3\n  swap2\n  pop\n  pop\n  jump\t// out\n    /* \"ProposalNFT.sol\":325:8247  contract Proposal is ERC165, IERC721, IERC721Metadata {... */\ntag_9:\n  dataSize(sub_0)\n  dup1\n  dataOffset(sub_0)\n  0x00\n  codecopy\n  0x00\n  return\nstop\n\nsub_0: assembly {\n        /* \"ProposalNFT.sol\":325:8247  contract Proposal is ERC165, IERC721, IERC721Metadata {... */\n      mstore(0x40, 0x80)\n      callvalue\n      dup1\n      iszero\n      tag_1\n      jumpi\n      0x00\n      dup1\n      revert\n    tag_1:\n      pop\n      jumpi(tag_2, lt(calldatasize, 0x04))\n      shr(0xe0, calldataload(0x00))\n      dup1\n      0x70a08231\n      gt\n      tag_19\n      jumpi\n      dup1\n      0xa22cb465\n      gt\n      tag_20\n      jumpi\n      dup1\n      0xa22cb465\n      eq\n      tag_15\n      jumpi\n      dup1\n      0xb88d4fde\n      eq\n      tag_16\n      jumpi\n      dup1\n      0xc87b56dd\n      eq\n      tag_17\n      jumpi\n      dup1\n      0xe985e9c5\n      eq\n      tag_18\n      jumpi\n      jump(tag_2)\n    tag_20:\n      dup1\n      0x70a08231\n      eq\n      tag_11\n      jumpi\n      dup1\n      0x755edd17\n      eq\n      tag_12\n      jumpi\n      dup1\n      0x7c2c25ae\n      eq\n      tag_13\n      jumpi\n      dup1\n      0x95d89b41\n      eq\n      tag_14\n      jumpi\n      jump(tag_2)\n    tag_19:\n      dup1\n      0x095ea7b3\n      gt\n      tag_21\n      jumpi\n      dup1\n      0x095ea7b3\n      eq\n      tag_7\n      jumpi\n      dup1\n      0x23b872dd\n      eq\n      tag_8\n      jumpi\n      dup1\n      0x42842e0e\n      eq\n      tag_9\n      jumpi\n      dup1\n      0x6352211e\n      eq\n      tag_10\n      jumpi\n      jump(tag_2)\n    tag_21:\n      dup1\n      0x01ffc9a7\n      eq\n      tag_3\n      jumpi\n      dup1\n      0x06661abd\n      eq\n      tag_4\n      jumpi\n      dup1\n      0x06fdde03\n      eq\n      tag_5\n      jumpi\n      dup1\n      0x081812fc\n      eq\n      tag_6\n      jumpi\n    tag_2:\n      0x00\n      dup1\n      revert\n        /* \"ProposalNFT.sol\":1019:1374  function supportsInterface(bytes4 interfaceId)... */\n    tag_3:\n      tag_22\n      0x04\n      dup1\n      calldatasize\n      sub\n      dup2\n      add\n      swap1\n      tag_23\n      swap2\n      swap1\n      tag_24\n      jump\t// in\n    tag_23:\n      tag_25\n      jump\t// in\n    tag_22:\n      mload(0x40)\n      tag_26\n      swap2\n      swap1\n      tag_27\n      jump\t// in\n    tag_26:\n      mload(0x40)\n      dup1\n      swap2\n      sub\n      swap1\n      return\n        /* \"ProposalNFT.sol\":735:759  uint256 public count = 0 */\n    tag_4:\n      tag_28\n      tag_29\n      jump\t// in\n    tag_28:\n      mload(0x40)\n      tag_30\n      swap2\n      swap1\n      tag_31\n      jump\t// in\n    tag_30:\n      mload(0x40)\n      dup1\n      swap2\n      sub\n      swap1\n      return\n        /* \"ProposalNFT.sol\":420:451  string public name = \"Proposal\" */\n    tag_5:\n      tag_32\n      tag_33\n      jump\t// in\n    tag_32:\n      mload(0x40)\n      tag_34\n      swap2\n      swap1\n      tag_35\n      jump\t// in\n    tag_34:\n      mload(0x40)\n      dup1\n      swap2\n      sub\n      swap1\n      return\n        /* \"ProposalNFT.sol\":2765:2986  function getApproved(uint256 tokenId)... */\n    tag_6:\n      tag_36\n      0x04\n      dup1\n      calldatasize\n      sub\n      dup2\n      add\n      swap1\n      tag_37\n      swap2\n      swap1\n      tag_38\n      jump\t// in\n    tag_37:\n      tag_39\n      jump\t// in\n    tag_36:\n      mload(0x40)\n      tag_40\n      swap2\n      swap1\n      tag_41\n      jump\t// in\n    tag_40:\n      mload(0x40)\n      dup1\n      swap2\n      sub\n      swap1\n      return\n        /* \"ProposalNFT.sol\":2326:2757  function approve(address to, uint256 tokenId) public virtual override {... */\n    tag_7:\n      tag_42\n      0x04\n      dup1\n      calldatasize\n      sub\n      dup2\n      add\n      swap1\n      tag_43\n      swap2\n      swap1\n      tag_44\n      jump\t// in\n    tag_43:\n      tag_45\n      jump\t// in\n    tag_42:\n      stop\n        /* \"ProposalNFT.sol\":3417:3788  function transferFrom(... */\n    tag_8:\n      tag_46\n      0x04\n      dup1\n      calldatasize\n      sub\n      dup2\n      add\n      swap1\n      tag_47\n      swap2\n      swap1\n      tag_48\n      jump\t// in\n    tag_47:\n      tag_49\n      jump\t// in\n    tag_46:\n      stop\n        /* \"ProposalNFT.sol\":3796:3981  function safeTransferFrom(... */\n    tag_9:\n      tag_50\n      0x04\n      dup1\n      calldatasize\n      sub\n      dup2\n      add\n      swap1\n      tag_51\n      swap2\n      swap1\n      tag_48\n      jump\t// in\n    tag_51:\n      tag_52\n      jump\t// in\n    tag_50:\n      stop\n        /* \"ProposalNFT.sol\":1687:1974  function ownerOf(uint256 tokenId)... */\n    tag_10:\n      tag_53\n      0x04\n      dup1\n      calldatasize\n      sub\n      dup2\n      add\n      swap1\n      tag_54\n      swap2\n      swap1\n      tag_38\n      jump\t// in\n    tag_54:\n      tag_55\n      jump\t// in\n    tag_53:\n      mload(0x40)\n      tag_56\n      swap2\n      swap1\n      tag_41\n      jump\t// in\n    tag_56:\n      mload(0x40)\n      dup1\n      swap2\n      sub\n      swap1\n      return\n        /* \"ProposalNFT.sol\":1382:1679  function balanceOf(address owner_)... */\n    tag_11:\n      tag_57\n      0x04\n      dup1\n      calldatasize\n      sub\n      dup2\n      add\n      swap1\n      tag_58\n      swap2\n      swap1\n      tag_59\n      jump\t// in\n    tag_58:\n      tag_60\n      jump\t// in\n    tag_57:\n      mload(0x40)\n      tag_61\n      swap2\n      swap1\n      tag_31\n      jump\t// in\n    tag_61:\n      mload(0x40)\n      dup1\n      swap2\n      sub\n      swap1\n      return\n        /* \"ProposalNFT.sol\":914:1011  function mintTo(address who) public {... */\n    tag_12:\n      tag_62\n      0x04\n      dup1\n      calldatasize\n      sub\n      dup2\n      add\n      swap1\n      tag_63\n      swap2\n      swap1\n      tag_59\n      jump\t// in\n    tag_63:\n      tag_64\n      jump\t// in\n    tag_62:\n      stop\n        /* \"ProposalNFT.sol\":766:798  address public memberNFTContract */\n    tag_13:\n      tag_65\n      tag_66\n      jump\t// in\n    tag_65:\n      mload(0x40)\n      tag_67\n      swap2\n      swap1\n      tag_41\n      jump\t// in\n    tag_67:\n      mload(0x40)\n      dup1\n      swap2\n      sub\n      swap1\n      return\n        /* \"ProposalNFT.sol\":458:486  string public symbol = \"PRO\" */\n    tag_14:\n      tag_68\n      tag_69\n      jump\t// in\n    tag_68:\n      mload(0x40)\n      tag_70\n      swap2\n      swap1\n      tag_35\n      jump\t// in\n    tag_70:\n      mload(0x40)\n      dup1\n      swap2\n      sub\n      swap1\n      return\n        /* \"ProposalNFT.sol\":2994:3179  function setApprovalForAll(address operator, bool approved)... */\n    tag_15:\n      tag_71\n      0x04\n      dup1\n      calldatasize\n      sub\n      dup2\n      add\n      swap1\n      tag_72\n      swap2\n      swap1\n      tag_73\n      jump\t// in\n    tag_72:\n      tag_74\n      jump\t// in\n    tag_71:\n      stop\n        /* \"ProposalNFT.sol\":3989:4347  function safeTransferFrom(... */\n    tag_16:\n      tag_75\n      0x04\n      dup1\n      calldatasize\n      sub\n      dup2\n      add\n      swap1\n      tag_76\n      swap2\n      swap1\n      tag_77\n      jump\t// in\n    tag_76:\n      tag_78\n      jump\t// in\n    tag_75:\n      stop\n        /* \"ProposalNFT.sol\":1982:2318  function tokenURI(uint256 tokenId)... */\n    tag_17:\n      tag_79\n      0x04\n      dup1\n      calldatasize\n      sub\n      dup2\n      add\n      swap1\n      tag_80\n      swap2\n      swap1\n      tag_38\n      jump\t// in\n    tag_80:\n      tag_81\n      jump\t// in\n    tag_79:\n      mload(0x40)\n      tag_82\n      swap2\n      swap1\n      tag_35\n      jump\t// in\n    tag_82:\n      mload(0x40)\n      dup1\n      swap2\n      sub\n      swap1\n      return\n        /* \"ProposalNFT.sol\":3187:3409  function isApprovedForAll(address tokeOwner, address operator)... */\n    tag_18:\n      tag_83\n      0x04\n      dup1\n      calldatasize\n      sub\n      dup2\n      add\n      swap1\n      tag_84\n      swap2\n      swap1\n      tag_85\n      jump\t// in\n    tag_84:\n      tag_86\n      jump\t// in\n    tag_83:\n      mload(0x40)\n      tag_87\n      swap2\n      swap1\n      tag_27\n      jump\t// in\n    tag_87:\n      mload(0x40)\n      dup1\n      swap2\n      sub\n      swap1\n      return\n        /* \"ProposalNFT.sol\":1019:1374  function supportsInterface(bytes4 interfaceId)... */\n    tag_25:\n        /* \"ProposalNFT.sol\":1166:1170  bool */\n      0x00\n        /* \"ProposalNFT.sol\":1223:1248  type(IERC721).interfaceId */\n      0x80ac58cd00000000000000000000000000000000000000000000000000000000\n        /* \"ProposalNFT.sol\":1208:1248  interfaceId == type(IERC721).interfaceId */\n      not(0xffffffffffffffffffffffffffffffffffffffffffffffffffffffff)\n      and\n        /* \"ProposalNFT.sol\":1208:1219  interfaceId */\n      dup3\n        /* \"ProposalNFT.sol\":1208:1248  interfaceId == type(IERC721).interfaceId */\n      not(0xffffffffffffffffffffffffffffffffffffffffffffffffffffffff)\n      and\n      eq\n        /* \"ProposalNFT.sol\":1208:1313  interfaceId == type(IERC721).interfaceId ||... */\n      dup1\n      tag_89\n      jumpi\n      pop\n        /* \"ProposalNFT.sol\":1280:1313  type(IERC721Metadata).interfaceId */\n      0x5b5e139f00000000000000000000000000000000000000000000000000000000\n        /* \"ProposalNFT.sol\":1265:1313  interfaceId == type(IERC721Metadata).interfaceId */\n      not(0xffffffffffffffffffffffffffffffffffffffffffffffffffffffff)\n      and\n        /* \"ProposalNFT.sol\":1265:1276  interfaceId */\n      dup3\n        /* \"ProposalNFT.sol\":1265:1313  interfaceId == type(IERC721Metadata).interfaceId */\n      not(0xffffffffffffffffffffffffffffffffffffffffffffffffffffffff)\n      and\n      eq\n        /* \"ProposalNFT.sol\":1208:1313  interfaceId == type(IERC721).interfaceId ||... */\n    tag_89:\n        /* \"ProposalNFT.sol\":1208:1366  interfaceId == type(IERC721).interfaceId ||... */\n      dup1\n      tag_90\n      jumpi\n      pop\n        /* \"ProposalNFT.sol\":1330:1366  super.supportsInterface(interfaceId) */\n      tag_91\n        /* \"ProposalNFT.sol\":1354:1365  interfaceId */\n      dup3\n        /* \"ProposalNFT.sol\":1330:1353  super.supportsInterface */\n      tag_92\n        /* \"ProposalNFT.sol\":1330:1366  super.supportsInterface(interfaceId) */\n      jump\t// in\n    tag_91:\n        /* \"ProposalNFT.sol\":1208:1366  interfaceId == type(IERC721).interfaceId ||... */\n    tag_90:\n        /* \"ProposalNFT.sol\":1188:1366  return... */\n      swap1\n      pop\n        /* \"ProposalNFT.sol\":1019:1374  function supportsInterface(bytes4 interfaceId)... */\n      swap2\n      swap1\n      pop\n      jump\t// out\n        /* \"ProposalNFT.sol\":735:759  uint256 public count = 0 */\n    tag_29:\n      sload(0x06)\n      dup2\n      jump\t// out\n        /* \"ProposalNFT.sol\":420:451  string public name = \"Proposal\" */\n    tag_33:\n      0x00\n      dup1\n      sload\n      tag_93\n      swap1\n      tag_94\n      jump\t// in\n    tag_93:\n      dup1\n      0x1f\n      add\n      0x20\n      dup1\n      swap2\n      div\n      mul\n      0x20\n      add\n      mload(0x40)\n      swap1\n      dup2\n      add\n      0x40\n      mstore\n      dup1\n      swap3\n      swap2\n      swap1\n      dup2\n      dup2\n      mstore\n      0x20\n      add\n      dup3\n      dup1\n      sload\n      tag_95\n      swap1\n      tag_94\n      jump\t// in\n    tag_95:\n      dup1\n      iszero\n      tag_96\n      jumpi\n      dup1\n      0x1f\n      lt\n      tag_97\n      jumpi\n      0x0100\n      dup1\n      dup4\n      sload\n      div\n      mul\n      dup4\n      mstore\n      swap2\n      0x20\n      add\n      swap2\n      jump(tag_96)\n    tag_97:\n      dup3\n      add\n      swap2\n      swap1\n      0x00\n      mstore\n      keccak256(0x00, 0x20)\n      swap1\n    tag_98:\n      dup2\n      sload\n      dup2\n      mstore\n      swap1\n      0x01\n      add\n      swap1\n      0x20\n      add\n      dup1\n      dup4\n      gt\n      tag_98\n      jumpi\n      dup3\n      swap1\n      sub\n      0x1f\n      and\n      dup3\n      add\n      swap2\n    tag_96:\n      pop\n      pop\n      pop\n      pop\n      pop\n      dup2\n      jump\t// out\n        /* \"ProposalNFT.sol\":2765:2986  function getApproved(uint256 tokenId)... */\n    tag_39:\n        /* \"ProposalNFT.sol\":2886:2893  address */\n      0x00\n        /* \"ProposalNFT.sol\":2911:2934  _requireMinted(tokenId) */\n      tag_100\n        /* \"ProposalNFT.sol\":2926:2933  tokenId */\n      dup3\n        /* \"ProposalNFT.sol\":2911:2925  _requireMinted */\n      tag_101\n        /* \"ProposalNFT.sol\":2911:2934  _requireMinted(tokenId) */\n      jump\t// in\n    tag_100:\n        /* \"ProposalNFT.sol\":2954:2969  _tokenApprovals */\n      0x04\n        /* \"ProposalNFT.sol\":2954:2978  _tokenApprovals[tokenId] */\n      0x00\n        /* \"ProposalNFT.sol\":2970:2977  tokenId */\n      dup4\n        /* \"ProposalNFT.sol\":2954:2978  _tokenApprovals[tokenId] */\n      dup2\n      mstore\n      0x20\n      add\n      swap1\n      dup2\n      mstore\n      0x20\n      add\n      0x00\n      keccak256\n      0x00\n      swap1\n      sload\n      swap1\n      0x0100\n      exp\n      swap1\n      div\n      0xffffffffffffffffffffffffffffffffffffffff\n      and\n        /* \"ProposalNFT.sol\":2947:2978  return _tokenApprovals[tokenId] */\n      swap1\n      pop\n        /* \"ProposalNFT.sol\":2765:2986  function getApproved(uint256 tokenId)... */\n      swap2\n      swap1\n      pop\n      jump\t// out\n        /* \"ProposalNFT.sol\":2326:2757  function approve(address to, uint256 tokenId) public virtual override {... */\n    tag_45:\n        /* \"ProposalNFT.sol\":2407:2424  address tokeOwner */\n      0x00\n        /* \"ProposalNFT.sol\":2427:2452  Proposal.ownerOf(tokenId) */\n      tag_103\n        /* \"ProposalNFT.sol\":2444:2451  tokenId */\n      dup3\n        /* \"ProposalNFT.sol\":2427:2443  Proposal.ownerOf */\n      tag_55\n        /* \"ProposalNFT.sol\":2427:2452  Proposal.ownerOf(tokenId) */\n      jump\t// in\n    tag_103:\n        /* \"ProposalNFT.sol\":2407:2452  address tokeOwner = Proposal.ownerOf(tokenId) */\n      swap1\n      pop\n        /* \"ProposalNFT.sol\":2477:2486  tokeOwner */\n      dup1\n        /* \"ProposalNFT.sol\":2471:2486  to != tokeOwner */\n      0xffffffffffffffffffffffffffffffffffffffff\n      and\n        /* \"ProposalNFT.sol\":2471:2473  to */\n      dup4\n        /* \"ProposalNFT.sol\":2471:2486  to != tokeOwner */\n      0xffffffffffffffffffffffffffffffffffffffff\n      and\n      sub\n        /* \"ProposalNFT.sol\":2463:2524  require(to != tokeOwner, \"ERC721: approval to current owner\") */\n      tag_104\n      jumpi\n      mload(0x40)\n      0x08c379a000000000000000000000000000000000000000000000000000000000\n      dup2\n      mstore\n      0x04\n      add\n      tag_105\n      swap1\n      tag_106\n      jump\t// in\n    tag_105:\n      mload(0x40)\n      dup1\n      swap2\n      sub\n      swap1\n      revert\n    tag_104:\n        /* \"ProposalNFT.sol\":2573:2582  tokeOwner */\n      dup1\n        /* \"ProposalNFT.sol\":2559:2582  msg.sender == tokeOwner */\n      0xffffffffffffffffffffffffffffffffffffffff\n      and\n        /* \"ProposalNFT.sol\":2559:2569  msg.sender */\n      caller\n        /* \"ProposalNFT.sol\":2559:2582  msg.sender == tokeOwner */\n      0xffffffffffffffffffffffffffffffffffffffff\n      and\n      eq\n        /* \"ProposalNFT.sol\":2559:2625  msg.sender == tokeOwner || isApprovedForAll(tokeOwner, msg.sender) */\n      dup1\n      tag_107\n      jumpi\n      pop\n        /* \"ProposalNFT.sol\":2586:2625  isApprovedForAll(tokeOwner, msg.sender) */\n      tag_108\n        /* \"ProposalNFT.sol\":2603:2612  tokeOwner */\n      dup2\n        /* \"ProposalNFT.sol\":2614:2624  msg.sender */\n      caller\n        /* \"ProposalNFT.sol\":2586:2602  isApprovedForAll */\n      tag_86\n        /* \"ProposalNFT.sol\":2586:2625  isApprovedForAll(tokeOwner, msg.sender) */\n      jump\t// in\n    tag_108:\n        /* \"ProposalNFT.sol\":2559:2625  msg.sender == tokeOwner || isApprovedForAll(tokeOwner, msg.sender) */\n    tag_107:\n        /* \"ProposalNFT.sol\":2537:2715  require(... */\n      tag_109\n      jumpi\n      mload(0x40)\n      0x08c379a000000000000000000000000000000000000000000000000000000000\n      dup2\n      mstore\n      0x04\n      add\n      tag_110\n      swap1\n      tag_111\n      jump\t// in\n    tag_110:\n      mload(0x40)\n      dup1\n      swap2\n      sub\n      swap1\n      revert\n    tag_109:\n        /* \"ProposalNFT.sol\":2728:2749  _approve(to, tokenId) */\n      tag_112\n        /* \"ProposalNFT.sol\":2737:2739  to */\n      dup4\n        /* \"ProposalNFT.sol\":2741:2748  tokenId */\n      dup4\n        /* \"ProposalNFT.sol\":2728:2736  _approve */\n      tag_113\n        /* \"ProposalNFT.sol\":2728:2749  _approve(to, tokenId) */\n      jump\t// in\n    tag_112:\n        /* \"ProposalNFT.sol\":2396:2757  {... */\n      pop\n        /* \"ProposalNFT.sol\":2326:2757  function approve(address to, uint256 tokenId) public virtual override {... */\n      pop\n      pop\n      jump\t// out\n        /* \"ProposalNFT.sol\":3417:3788  function transferFrom(... */\n    tag_49:\n        /* \"ProposalNFT.sol\":3626:3665  _isApprovedOrOwner(msg.sender, tokenId) */\n      tag_115\n        /* \"ProposalNFT.sol\":3645:3655  msg.sender */\n      caller\n        /* \"ProposalNFT.sol\":3657:3664  tokenId */\n      dup3\n        /* \"ProposalNFT.sol\":3626:3644  _isApprovedOrOwner */\n      tag_116\n        /* \"ProposalNFT.sol\":3626:3665  _isApprovedOrOwner(msg.sender, tokenId) */\n      jump\t// in\n    tag_115:\n        /* \"ProposalNFT.sol\":3604:3739  require(... */\n      tag_117\n      jumpi\n      mload(0x40)\n      0x08c379a000000000000000000000000000000000000000000000000000000000\n      dup2\n      mstore\n      0x04\n      add\n      tag_118\n      swap1\n      tag_119\n      jump\t// in\n    tag_118:\n      mload(0x40)\n      dup1\n      swap2\n      sub\n      swap1\n      revert\n    tag_117:\n        /* \"ProposalNFT.sol\":3752:3780  _transfer(from, to, tokenId) */\n      tag_120\n        /* \"ProposalNFT.sol\":3762:3766  from */\n      dup4\n        /* \"ProposalNFT.sol\":3768:3770  to */\n      dup4\n        /* \"ProposalNFT.sol\":3772:3779  tokenId */\n      dup4\n        /* \"ProposalNFT.sol\":3752:3761  _transfer */\n      tag_121\n        /* \"ProposalNFT.sol\":3752:3780  _transfer(from, to, tokenId) */\n      jump\t// in\n    tag_120:\n        /* \"ProposalNFT.sol\":3417:3788  function transferFrom(... */\n      pop\n      pop\n      pop\n      jump\t// out\n        /* \"ProposalNFT.sol\":3796:3981  function safeTransferFrom(... */\n    tag_52:\n        /* \"ProposalNFT.sol\":3934:3973  safeTransferFrom(from, to, tokenId, \"\") */\n      tag_123\n        /* \"ProposalNFT.sol\":3951:3955  from */\n      dup4\n        /* \"ProposalNFT.sol\":3957:3959  to */\n      dup4\n        /* \"ProposalNFT.sol\":3961:3968  tokenId */\n      dup4\n        /* \"ProposalNFT.sol\":3934:3973  safeTransferFrom(from, to, tokenId, \"\") */\n      mload(0x40)\n      dup1\n      0x20\n      add\n      0x40\n      mstore\n      dup1\n      0x00\n      dup2\n      mstore\n      pop\n        /* \"ProposalNFT.sol\":3934:3950  safeTransferFrom */\n      tag_78\n        /* \"ProposalNFT.sol\":3934:3973  safeTransferFrom(from, to, tokenId, \"\") */\n      jump\t// in\n    tag_123:\n        /* \"ProposalNFT.sol\":3796:3981  function safeTransferFrom(... */\n      pop\n      pop\n      pop\n      jump\t// out\n        /* \"ProposalNFT.sol\":1687:1974  function ownerOf(uint256 tokenId)... */\n    tag_55:\n        /* \"ProposalNFT.sol\":1804:1811  address */\n      0x00\n        /* \"ProposalNFT.sol\":1829:1847  address tokenOwner */\n      dup1\n        /* \"ProposalNFT.sol\":1850:1857  _owners */\n      0x02\n        /* \"ProposalNFT.sol\":1850:1866  _owners[tokenId] */\n      0x00\n        /* \"ProposalNFT.sol\":1858:1865  tokenId */\n      dup5\n        /* \"ProposalNFT.sol\":1850:1866  _owners[tokenId] */\n      dup2\n      mstore\n      0x20\n      add\n      swap1\n      dup2\n      mstore\n      0x20\n      add\n      0x00\n      keccak256\n      0x00\n      swap1\n      sload\n      swap1\n      0x0100\n      exp\n      swap1\n      div\n      0xffffffffffffffffffffffffffffffffffffffff\n      and\n        /* \"ProposalNFT.sol\":1829:1866  address tokenOwner = _owners[tokenId] */\n      swap1\n      pop\n        /* \"ProposalNFT.sol\":1907:1908  0 */\n      0x00\n        /* \"ProposalNFT.sol\":1885:1909  tokenOwner != address(0) */\n      0xffffffffffffffffffffffffffffffffffffffff\n      and\n        /* \"ProposalNFT.sol\":1885:1895  tokenOwner */\n      dup2\n        /* \"ProposalNFT.sol\":1885:1909  tokenOwner != address(0) */\n      0xffffffffffffffffffffffffffffffffffffffff\n      and\n      sub\n        /* \"ProposalNFT.sol\":1877:1938  require(tokenOwner != address(0), \"ERC721: invalid token ID\") */\n      tag_125\n      jumpi\n      mload(0x40)\n      0x08c379a000000000000000000000000000000000000000000000000000000000\n      dup2\n      mstore\n      0x04\n      add\n      tag_126\n      swap1\n      tag_127\n      jump\t// in\n    tag_126:\n      mload(0x40)\n      dup1\n      swap2\n      sub\n      swap1\n      revert\n    tag_125:\n        /* \"ProposalNFT.sol\":1956:1966  tokenOwner */\n      dup1\n        /* \"ProposalNFT.sol\":1949:1966  return tokenOwner */\n      swap2\n      pop\n      pop\n        /* \"ProposalNFT.sol\":1687:1974  function ownerOf(uint256 tokenId)... */\n      swap2\n      swap1\n      pop\n      jump\t// out\n        /* \"ProposalNFT.sol\":1382:1679  function balanceOf(address owner_)... */\n    tag_60:\n        /* \"ProposalNFT.sol\":1500:1507  uint256 */\n      0x00\n        /* \"ProposalNFT.sol\":1565:1566  0 */\n      dup1\n        /* \"ProposalNFT.sol\":1547:1567  owner_ != address(0) */\n      0xffffffffffffffffffffffffffffffffffffffff\n      and\n        /* \"ProposalNFT.sol\":1547:1553  owner_ */\n      dup3\n        /* \"ProposalNFT.sol\":1547:1567  owner_ != address(0) */\n      0xffffffffffffffffffffffffffffffffffffffff\n      and\n      sub\n        /* \"ProposalNFT.sol\":1525:1636  require(... */\n      tag_129\n      jumpi\n      mload(0x40)\n      0x08c379a000000000000000000000000000000000000000000000000000000000\n      dup2\n      mstore\n      0x04\n      add\n      tag_130\n      swap1\n      tag_131\n      jump\t// in\n    tag_130:\n      mload(0x40)\n      dup1\n      swap2\n      sub\n      swap1\n      revert\n    tag_129:\n        /* \"ProposalNFT.sol\":1654:1663  _balances */\n      0x03\n        /* \"ProposalNFT.sol\":1654:1671  _balances[owner_] */\n      0x00\n        /* \"ProposalNFT.sol\":1664:1670  owner_ */\n      dup4\n        /* \"ProposalNFT.sol\":1654:1671  _balances[owner_] */\n      0xffffffffffffffffffffffffffffffffffffffff\n      and\n      0xffffffffffffffffffffffffffffffffffffffff\n      and\n      dup2\n      mstore\n      0x20\n      add\n      swap1\n      dup2\n      mstore\n      0x20\n      add\n      0x00\n      keccak256\n      sload\n        /* \"ProposalNFT.sol\":1647:1671  return _balances[owner_] */\n      swap1\n      pop\n        /* \"ProposalNFT.sol\":1382:1679  function balanceOf(address owner_)... */\n      swap2\n      swap1\n      pop\n      jump\t// out\n        /* \"ProposalNFT.sol\":914:1011  function mintTo(address who) public {... */\n    tag_64:\n        /* \"ProposalNFT.sol\":961:982  _safeMint(who, count) */\n      tag_133\n        /* \"ProposalNFT.sol\":971:974  who */\n      dup2\n        /* \"ProposalNFT.sol\":976:981  count */\n      sload(0x06)\n        /* \"ProposalNFT.sol\":961:970  _safeMint */\n      tag_134\n        /* \"ProposalNFT.sol\":961:982  _safeMint(who, count) */\n      jump\t// in\n    tag_133:\n        /* \"ProposalNFT.sol\":1002:1003  1 */\n      0x01\n        /* \"ProposalNFT.sol\":993:998  count */\n      0x06\n      0x00\n        /* \"ProposalNFT.sol\":993:1003  count += 1 */\n      dup3\n      dup3\n      sload\n      tag_135\n      swap2\n      swap1\n      tag_136\n      jump\t// in\n    tag_135:\n      swap3\n      pop\n      pop\n      dup2\n      swap1\n      sstore\n      pop\n        /* \"ProposalNFT.sol\":914:1011  function mintTo(address who) public {... */\n      pop\n      jump\t// out\n        /* \"ProposalNFT.sol\":766:798  address public memberNFTContract */\n    tag_66:\n      0x07\n      0x00\n      swap1\n      sload\n      swap1\n      0x0100\n      exp\n      swap1\n      div\n      0xffffffffffffffffffffffffffffffffffffffff\n      and\n      dup2\n      jump\t// out\n        /* \"ProposalNFT.sol\":458:486  string public symbol = \"PRO\" */\n    tag_69:\n      0x01\n      dup1\n      sload\n      tag_137\n      swap1\n      tag_94\n      jump\t// in\n    tag_137:\n      dup1\n      0x1f\n      add\n      0x20\n      dup1\n      swap2\n      div\n      mul\n      0x20\n      add\n      mload(0x40)\n      swap1\n      dup2\n      add\n      0x40\n      mstore\n      dup1\n      swap3\n      swap2\n      swap1\n      dup2\n      dup2\n      mstore\n      0x20\n      add\n      dup3\n      dup1\n      sload\n      tag_138\n      swap1\n      tag_94\n      jump\t// in\n    tag_138:\n      dup1\n      iszero\n      tag_139\n      jumpi\n      dup1\n      0x1f\n      lt\n      tag_140\n      jumpi\n      0x0100\n      dup1\n      dup4\n      sload\n      div\n      mul\n      dup4\n      mstore\n      swap2\n      0x20\n      add\n      swap2\n      jump(tag_139)\n    tag_140:\n      dup3\n      add\n      swap2\n      swap1\n      0x00\n      mstore\n      keccak256(0x00, 0x20)\n      swap1\n    tag_141:\n      dup2\n      sload\n      dup2\n      mstore\n      swap1\n      0x01\n      add\n      swap1\n      0x20\n      add\n      dup1\n      dup4\n      gt\n      tag_141\n      jumpi\n      dup3\n      swap1\n      sub\n      0x1f\n      and\n      dup3\n      add\n      swap2\n    tag_139:\n      pop\n      pop\n      pop\n      pop\n      pop\n      dup2\n      jump\t// out\n        /* \"ProposalNFT.sol\":2994:3179  function setApprovalForAll(address operator, bool approved)... */\n    tag_74:\n        /* \"ProposalNFT.sol\":3121:3171  _setApprovalForAll(msg.sender, operator, approved) */\n      tag_143\n        /* \"ProposalNFT.sol\":3140:3150  msg.sender */\n      caller\n        /* \"ProposalNFT.sol\":3152:3160  operator */\n      dup4\n        /* \"ProposalNFT.sol\":3162:3170  approved */\n      dup4\n        /* \"ProposalNFT.sol\":3121:3139  _setApprovalForAll */\n      tag_144\n        /* \"ProposalNFT.sol\":3121:3171  _setApprovalForAll(msg.sender, operator, approved) */\n      jump\t// in\n    tag_143:\n        /* \"ProposalNFT.sol\":2994:3179  function setApprovalForAll(address operator, bool approved)... */\n      pop\n      pop\n      jump\t// out\n        /* \"ProposalNFT.sol\":3989:4347  function safeTransferFrom(... */\n    tag_78:\n        /* \"ProposalNFT.sol\":4177:4216  _isApprovedOrOwner(msg.sender, tokenId) */\n      tag_146\n        /* \"ProposalNFT.sol\":4196:4206  msg.sender */\n      caller\n        /* \"ProposalNFT.sol\":4208:4215  tokenId */\n      dup4\n        /* \"ProposalNFT.sol\":4177:4195  _isApprovedOrOwner */\n      tag_116\n        /* \"ProposalNFT.sol\":4177:4216  _isApprovedOrOwner(msg.sender, tokenId) */\n      jump\t// in\n    tag_146:\n        /* \"ProposalNFT.sol\":4155:4290  require(... */\n      tag_147\n      jumpi\n      mload(0x40)\n      0x08c379a000000000000000000000000000000000000000000000000000000000\n      dup2\n      mstore\n      0x04\n      add\n      tag_148\n      swap1\n      tag_119\n      jump\t// in\n    tag_148:\n      mload(0x40)\n      dup1\n      swap2\n      sub\n      swap1\n      revert\n    tag_147:\n        /* \"ProposalNFT.sol\":4301:4339  _safeTransfer(from, to, tokenId, data) */\n      tag_149\n        /* \"ProposalNFT.sol\":4315:4319  from */\n      dup5\n        /* \"ProposalNFT.sol\":4321:4323  to */\n      dup5\n        /* \"ProposalNFT.sol\":4325:4332  tokenId */\n      dup5\n        /* \"ProposalNFT.sol\":4334:4338  data */\n      dup5\n        /* \"ProposalNFT.sol\":4301:4314  _safeTransfer */\n      tag_150\n        /* \"ProposalNFT.sol\":4301:4339  _safeTransfer(from, to, tokenId, data) */\n      jump\t// in\n    tag_149:\n        /* \"ProposalNFT.sol\":3989:4347  function safeTransferFrom(... */\n      pop\n      pop\n      pop\n      pop\n      jump\t// out\n        /* \"ProposalNFT.sol\":1982:2318  function tokenURI(uint256 tokenId)... */\n    tag_81:\n        /* \"ProposalNFT.sol\":2100:2113  string memory */\n      0x60\n        /* \"ProposalNFT.sol\":2131:2154  _requireMinted(tokenId) */\n      tag_152\n        /* \"ProposalNFT.sol\":2146:2153  tokenId */\n      dup3\n        /* \"ProposalNFT.sol\":2131:2145  _requireMinted */\n      tag_101\n        /* \"ProposalNFT.sol\":2131:2154  _requireMinted(tokenId) */\n      jump\t// in\n    tag_152:\n        /* \"ProposalNFT.sol\":2270:2295  Strings.toString(tokenId) */\n      tag_153\n        /* \"ProposalNFT.sol\":2287:2294  tokenId */\n      dup3\n        /* \"ProposalNFT.sol\":2270:2286  Strings.toString */\n      tag_154\n        /* \"ProposalNFT.sol\":2270:2295  Strings.toString(tokenId) */\n      jump\t// in\n    tag_153:\n        /* \"ProposalNFT.sol\":2185:2310  string.concat(... */\n      add(0x20, mload(0x40))\n      tag_155\n      swap2\n      swap1\n      tag_156\n      jump\t// in\n    tag_155:\n      mload(0x40)\n      0x20\n      dup2\n      dup4\n      sub\n      sub\n      dup2\n      mstore\n      swap1\n      0x40\n      mstore\n        /* \"ProposalNFT.sol\":2165:2310  return... */\n      swap1\n      pop\n        /* \"ProposalNFT.sol\":1982:2318  function tokenURI(uint256 tokenId)... */\n      swap2\n      swap1\n      pop\n      jump\t// out\n        /* \"ProposalNFT.sol\":3187:3409  function isApprovedForAll(address tokeOwner, address operator)... */\n    tag_86:\n        /* \"ProposalNFT.sol\":3333:3337  bool */\n      0x00\n        /* \"ProposalNFT.sol\":3362:3380  _operatorApprovals */\n      0x05\n        /* \"ProposalNFT.sol\":3362:3391  _operatorApprovals[tokeOwner] */\n      0x00\n        /* \"ProposalNFT.sol\":3381:3390  tokeOwner */\n      dup5\n        /* \"ProposalNFT.sol\":3362:3391  _operatorApprovals[tokeOwner] */\n      0xffffffffffffffffffffffffffffffffffffffff\n      and\n      0xffffffffffffffffffffffffffffffffffffffff\n      and\n      dup2\n      mstore\n      0x20\n      add\n      swap1\n      dup2\n      mstore\n      0x20\n      add\n      0x00\n      keccak256\n        /* \"ProposalNFT.sol\":3362:3401  _operatorApprovals[tokeOwner][operator] */\n      0x00\n        /* \"ProposalNFT.sol\":3392:3400  operator */\n      dup4\n        /* \"ProposalNFT.sol\":3362:3401  _operatorApprovals[tokeOwner][operator] */\n      0xffffffffffffffffffffffffffffffffffffffff\n      and\n      0xffffffffffffffffffffffffffffffffffffffff\n      and\n      dup2\n      mstore\n      0x20\n      add\n      swap1\n      dup2\n      mstore\n      0x20\n      add\n      0x00\n      keccak256\n      0x00\n      swap1\n      sload\n      swap1\n      0x0100\n      exp\n      swap1\n      div\n      0xff\n      and\n        /* \"ProposalNFT.sol\":3355:3401  return _operatorApprovals[tokeOwner][operator] */\n      swap1\n      pop\n        /* \"ProposalNFT.sol\":3187:3409  function isApprovedForAll(address tokeOwner, address operator)... */\n      swap3\n      swap2\n      pop\n      pop\n      jump\t// out\n        /* \"lib/ERC165.sol\":855:1012   */\n    tag_92:\n        /* \"lib/ERC165.sol\":940:944   */\n      0x00\n        /* \"lib/ERC165.sol\":979:1004   */\n      0x01ffc9a700000000000000000000000000000000000000000000000000000000\n        /* \"lib/ERC165.sol\":964:1004   */\n      not(0xffffffffffffffffffffffffffffffffffffffffffffffffffffffff)\n      and\n        /* \"lib/ERC165.sol\":964:975   */\n      dup3\n        /* \"lib/ERC165.sol\":964:1004   */\n      not(0xffffffffffffffffffffffffffffffffffffffffffffffffffffffff)\n      and\n      eq\n        /* \"lib/ERC165.sol\":957:1004   */\n      swap1\n      pop\n        /* \"lib/ERC165.sol\":855:1012   */\n      swap2\n      swap1\n      pop\n      jump\t// out\n        /* \"ProposalNFT.sol\":7066:7201  function _requireMinted(uint256 tokenId) internal view virtual {... */\n    tag_101:\n        /* \"ProposalNFT.sol\":7148:7164  _exists(tokenId) */\n      tag_160\n        /* \"ProposalNFT.sol\":7156:7163  tokenId */\n      dup2\n        /* \"ProposalNFT.sol\":7148:7155  _exists */\n      tag_161\n        /* \"ProposalNFT.sol\":7148:7164  _exists(tokenId) */\n      jump\t// in\n    tag_160:\n        /* \"ProposalNFT.sol\":7140:7193  require(_exists(tokenId), \"ERC721: invalid token ID\") */\n      tag_162\n      jumpi\n      mload(0x40)\n      0x08c379a000000000000000000000000000000000000000000000000000000000\n      dup2\n      mstore\n      0x04\n      add\n      tag_163\n      swap1\n      tag_127\n      jump\t// in\n    tag_163:\n      mload(0x40)\n      dup1\n      swap2\n      sub\n      swap1\n      revert\n    tag_162:\n        /* \"ProposalNFT.sol\":7066:7201  function _requireMinted(uint256 tokenId) internal view virtual {... */\n      pop\n      jump\t// out\n        /* \"ProposalNFT.sol\":6543:6719  function _approve(address to, uint256 tokenId) internal virtual {... */\n    tag_113:\n        /* \"ProposalNFT.sol\":6645:6647  to */\n      dup2\n        /* \"ProposalNFT.sol\":6618:6633  _tokenApprovals */\n      0x04\n        /* \"ProposalNFT.sol\":6618:6642  _tokenApprovals[tokenId] */\n      0x00\n        /* \"ProposalNFT.sol\":6634:6641  tokenId */\n      dup4\n        /* \"ProposalNFT.sol\":6618:6642  _tokenApprovals[tokenId] */\n      dup2\n      mstore\n      0x20\n      add\n      swap1\n      dup2\n      mstore\n      0x20\n      add\n      0x00\n      keccak256\n      0x00\n        /* \"ProposalNFT.sol\":6618:6647  _tokenApprovals[tokenId] = to */\n      0x0100\n      exp\n      dup2\n      sload\n      dup2\n      0xffffffffffffffffffffffffffffffffffffffff\n      mul\n      not\n      and\n      swap1\n      dup4\n      0xffffffffffffffffffffffffffffffffffffffff\n      and\n      mul\n      or\n      swap1\n      sstore\n      pop\n        /* \"ProposalNFT.sol\":6703:6710  tokenId */\n      dup1\n        /* \"ProposalNFT.sol\":6699:6701  to */\n      dup3\n        /* \"ProposalNFT.sol\":6663:6711  Approval(Proposal.ownerOf(tokenId), to, tokenId) */\n      0xffffffffffffffffffffffffffffffffffffffff\n      and\n        /* \"ProposalNFT.sol\":6672:6697  Proposal.ownerOf(tokenId) */\n      tag_165\n        /* \"ProposalNFT.sol\":6689:6696  tokenId */\n      dup4\n        /* \"ProposalNFT.sol\":6672:6688  Proposal.ownerOf */\n      tag_55\n        /* \"ProposalNFT.sol\":6672:6697  Proposal.ownerOf(tokenId) */\n      jump\t// in\n    tag_165:\n        /* \"ProposalNFT.sol\":6663:6711  Approval(Proposal.ownerOf(tokenId), to, tokenId) */\n      0xffffffffffffffffffffffffffffffffffffffff\n      and\n      0x8c5be1e5ebec7d5bd14f71427d1e84f3dd0314c0f7b2291e5b200ac8c7c3b925\n      mload(0x40)\n      mload(0x40)\n      dup1\n      swap2\n      sub\n      swap1\n      log4\n        /* \"ProposalNFT.sol\":6543:6719  function _approve(address to, uint256 tokenId) internal virtual {... */\n      pop\n      pop\n      jump\t// out\n        /* \"ProposalNFT.sol\":4848:5193  function _isApprovedOrOwner(address spender, uint256 tokenId)... */\n    tag_116:\n        /* \"ProposalNFT.sol\":4977:4981  bool */\n      0x00\n        /* \"ProposalNFT.sol\":4999:5016  address tokeOwner */\n      dup1\n        /* \"ProposalNFT.sol\":5019:5044  Proposal.ownerOf(tokenId) */\n      tag_167\n        /* \"ProposalNFT.sol\":5036:5043  tokenId */\n      dup4\n        /* \"ProposalNFT.sol\":5019:5035  Proposal.ownerOf */\n      tag_55\n        /* \"ProposalNFT.sol\":5019:5044  Proposal.ownerOf(tokenId) */\n      jump\t// in\n    tag_167:\n        /* \"ProposalNFT.sol\":4999:5044  address tokeOwner = Proposal.ownerOf(tokenId) */\n      swap1\n      pop\n        /* \"ProposalNFT.sol\":5074:5083  tokeOwner */\n      dup1\n        /* \"ProposalNFT.sol\":5063:5083  spender == tokeOwner */\n      0xffffffffffffffffffffffffffffffffffffffff\n      and\n        /* \"ProposalNFT.sol\":5063:5070  spender */\n      dup5\n        /* \"ProposalNFT.sol\":5063:5083  spender == tokeOwner */\n      0xffffffffffffffffffffffffffffffffffffffff\n      and\n      eq\n        /* \"ProposalNFT.sol\":5063:5136  spender == tokeOwner ||... */\n      dup1\n      tag_168\n      jumpi\n      pop\n        /* \"ProposalNFT.sol\":5100:5136  isApprovedForAll(tokeOwner, spender) */\n      tag_169\n        /* \"ProposalNFT.sol\":5117:5126  tokeOwner */\n      dup2\n        /* \"ProposalNFT.sol\":5128:5135  spender */\n      dup6\n        /* \"ProposalNFT.sol\":5100:5116  isApprovedForAll */\n      tag_86\n        /* \"ProposalNFT.sol\":5100:5136  isApprovedForAll(tokeOwner, spender) */\n      jump\t// in\n    tag_169:\n        /* \"ProposalNFT.sol\":5063:5136  spender == tokeOwner ||... */\n    tag_168:\n        /* \"ProposalNFT.sol\":5063:5184  spender == tokeOwner ||... */\n      dup1\n      tag_170\n      jumpi\n      pop\n        /* \"ProposalNFT.sol\":5177:5184  spender */\n      dup4\n        /* \"ProposalNFT.sol\":5153:5184  getApproved(tokenId) == spender */\n      0xffffffffffffffffffffffffffffffffffffffff\n      and\n        /* \"ProposalNFT.sol\":5153:5173  getApproved(tokenId) */\n      tag_171\n        /* \"ProposalNFT.sol\":5165:5172  tokenId */\n      dup5\n        /* \"ProposalNFT.sol\":5153:5164  getApproved */\n      tag_39\n        /* \"ProposalNFT.sol\":5153:5173  getApproved(tokenId) */\n      jump\t// in\n    tag_171:\n        /* \"ProposalNFT.sol\":5153:5184  getApproved(tokenId) == spender */\n      0xffffffffffffffffffffffffffffffffffffffff\n      and\n      eq\n        /* \"ProposalNFT.sol\":5063:5184  spender == tokeOwner ||... */\n    tag_170:\n        /* \"ProposalNFT.sol\":5055:5185  return (spender == tokeOwner ||... */\n      swap2\n      pop\n      pop\n        /* \"ProposalNFT.sol\":4848:5193  function _isApprovedOrOwner(address spender, uint256 tokenId)... */\n      swap3\n      swap2\n      pop\n      pop\n      jump\t// out\n        /* \"ProposalNFT.sol\":5974:6535  function _transfer(... */\n    tag_121:\n        /* \"ProposalNFT.sol\":6149:6153  from */\n      dup3\n        /* \"ProposalNFT.sol\":6120:6153  Proposal.ownerOf(tokenId) == from */\n      0xffffffffffffffffffffffffffffffffffffffff\n      and\n        /* \"ProposalNFT.sol\":6120:6145  Proposal.ownerOf(tokenId) */\n      tag_173\n        /* \"ProposalNFT.sol\":6137:6144  tokenId */\n      dup3\n        /* \"ProposalNFT.sol\":6120:6136  Proposal.ownerOf */\n      tag_55\n        /* \"ProposalNFT.sol\":6120:6145  Proposal.ownerOf(tokenId) */\n      jump\t// in\n    tag_173:\n        /* \"ProposalNFT.sol\":6120:6153  Proposal.ownerOf(tokenId) == from */\n      0xffffffffffffffffffffffffffffffffffffffff\n      and\n      eq\n        /* \"ProposalNFT.sol\":6098:6218  require(... */\n      tag_174\n      jumpi\n      mload(0x40)\n      0x08c379a000000000000000000000000000000000000000000000000000000000\n      dup2\n      mstore\n      0x04\n      add\n      tag_175\n      swap1\n      tag_176\n      jump\t// in\n    tag_175:\n      mload(0x40)\n      dup1\n      swap2\n      sub\n      swap1\n      revert\n    tag_174:\n        /* \"ProposalNFT.sol\":6251:6252  0 */\n      0x00\n        /* \"ProposalNFT.sol\":6237:6253  to != address(0) */\n      0xffffffffffffffffffffffffffffffffffffffff\n      and\n        /* \"ProposalNFT.sol\":6237:6239  to */\n      dup3\n        /* \"ProposalNFT.sol\":6237:6253  to != address(0) */\n      0xffffffffffffffffffffffffffffffffffffffff\n      and\n      sub\n        /* \"ProposalNFT.sol\":6229:6294  require(to != address(0), \"ERC721: transfer to the zero address\") */\n      tag_177\n      jumpi\n      mload(0x40)\n      0x08c379a000000000000000000000000000000000000000000000000000000000\n      dup2\n      mstore\n      0x04\n      add\n      tag_178\n      swap1\n      tag_179\n      jump\t// in\n    tag_178:\n      mload(0x40)\n      dup1\n      swap2\n      sub\n      swap1\n      revert\n    tag_177:\n        /* \"ProposalNFT.sol\":6359:6388  _approve(address(0), tokenId) */\n      tag_180\n        /* \"ProposalNFT.sol\":6376:6377  0 */\n      0x00\n        /* \"ProposalNFT.sol\":6380:6387  tokenId */\n      dup3\n        /* \"ProposalNFT.sol\":6359:6367  _approve */\n      tag_113\n        /* \"ProposalNFT.sol\":6359:6388  _approve(address(0), tokenId) */\n      jump\t// in\n    tag_180:\n        /* \"ProposalNFT.sol\":6420:6421  1 */\n      0x01\n        /* \"ProposalNFT.sol\":6401:6410  _balances */\n      0x03\n        /* \"ProposalNFT.sol\":6401:6416  _balances[from] */\n      0x00\n        /* \"ProposalNFT.sol\":6411:6415  from */\n      dup6\n        /* \"ProposalNFT.sol\":6401:6416  _balances[from] */\n      0xffffffffffffffffffffffffffffffffffffffff\n      and\n      0xffffffffffffffffffffffffffffffffffffffff\n      and\n      dup2\n      mstore\n      0x20\n      add\n      swap1\n      dup2\n      mstore\n      0x20\n      add\n      0x00\n      keccak256\n      0x00\n        /* \"ProposalNFT.sol\":6401:6421  _balances[from] -= 1 */\n      dup3\n      dup3\n      sload\n      tag_181\n      swap2\n      swap1\n      tag_182\n      jump\t// in\n    tag_181:\n      swap3\n      pop\n      pop\n      dup2\n      swap1\n      sstore\n      pop\n        /* \"ProposalNFT.sol\":6449:6450  1 */\n      0x01\n        /* \"ProposalNFT.sol\":6432:6441  _balances */\n      0x03\n        /* \"ProposalNFT.sol\":6432:6445  _balances[to] */\n      0x00\n        /* \"ProposalNFT.sol\":6442:6444  to */\n      dup5\n        /* \"ProposalNFT.sol\":6432:6445  _balances[to] */\n      0xffffffffffffffffffffffffffffffffffffffff\n      and\n      0xffffffffffffffffffffffffffffffffffffffff\n      and\n      dup2\n      mstore\n      0x20\n      add\n      swap1\n      dup2\n      mstore\n      0x20\n      add\n      0x00\n      keccak256\n      0x00\n        /* \"ProposalNFT.sol\":6432:6450  _balances[to] += 1 */\n      dup3\n      dup3\n      sload\n      tag_183\n      swap2\n      swap1\n      tag_136\n      jump\t// in\n    tag_183:\n      swap3\n      pop\n      pop\n      dup2\n      swap1\n      sstore\n      pop\n        /* \"ProposalNFT.sol\":6480:6482  to */\n      dup2\n        /* \"ProposalNFT.sol\":6461:6468  _owners */\n      0x02\n        /* \"ProposalNFT.sol\":6461:6477  _owners[tokenId] */\n      0x00\n        /* \"ProposalNFT.sol\":6469:6476  tokenId */\n      dup4\n        /* \"ProposalNFT.sol\":6461:6477  _owners[tokenId] */\n      dup2\n      mstore\n      0x20\n      add\n      swap1\n      dup2\n      mstore\n      0x20\n      add\n      0x00\n      keccak256\n      0x00\n        /* \"ProposalNFT.sol\":6461:6482  _owners[tokenId] = to */\n      0x0100\n      exp\n      dup2\n      sload\n      dup2\n      0xffffffffffffffffffffffffffffffffffffffff\n      mul\n      not\n      and\n      swap1\n      dup4\n      0xffffffffffffffffffffffffffffffffffffffff\n      and\n      mul\n      or\n      swap1\n      sstore\n      pop\n        /* \"ProposalNFT.sol\":6519:6526  tokenId */\n      dup1\n        /* \"ProposalNFT.sol\":6515:6517  to */\n      dup3\n        /* \"ProposalNFT.sol\":6500:6527  Transfer(from, to, tokenId) */\n      0xffffffffffffffffffffffffffffffffffffffff\n      and\n        /* \"ProposalNFT.sol\":6509:6513  from */\n      dup5\n        /* \"ProposalNFT.sol\":6500:6527  Transfer(from, to, tokenId) */\n      0xffffffffffffffffffffffffffffffffffffffff\n      and\n      0xddf252ad1be2c89b69c2b068fc378daa952ba7f163c4a11628f55a4df523b3ef\n      mload(0x40)\n      mload(0x40)\n      dup1\n      swap2\n      sub\n      swap1\n      log4\n        /* \"ProposalNFT.sol\":5974:6535  function _transfer(... */\n      pop\n      pop\n      pop\n      jump\t// out\n        /* \"ProposalNFT.sol\":5201:5311  function _safeMint(address to, uint256 tokenId) internal virtual {... */\n    tag_134:\n        /* \"ProposalNFT.sol\":5277:5303  _safeMint(to, tokenId, \"\") */\n      tag_185\n        /* \"ProposalNFT.sol\":5287:5289  to */\n      dup3\n        /* \"ProposalNFT.sol\":5291:5298  tokenId */\n      dup3\n        /* \"ProposalNFT.sol\":5277:5303  _safeMint(to, tokenId, \"\") */\n      mload(0x40)\n      dup1\n      0x20\n      add\n      0x40\n      mstore\n      dup1\n      0x00\n      dup2\n      mstore\n      pop\n        /* \"ProposalNFT.sol\":5277:5286  _safeMint */\n      tag_186\n        /* \"ProposalNFT.sol\":5277:5303  _safeMint(to, tokenId, \"\") */\n      jump\t// in\n    tag_185:\n        /* \"ProposalNFT.sol\":5201:5311  function _safeMint(address to, uint256 tokenId) internal virtual {... */\n      pop\n      pop\n      jump\t// out\n        /* \"ProposalNFT.sol\":6727:7058  function _setApprovalForAll(... */\n    tag_144:\n        /* \"ProposalNFT.sol\":6890:6898  operator */\n      dup2\n        /* \"ProposalNFT.sol\":6877:6898  tokeOwner != operator */\n      0xffffffffffffffffffffffffffffffffffffffff\n      and\n        /* \"ProposalNFT.sol\":6877:6886  tokeOwner */\n      dup4\n        /* \"ProposalNFT.sol\":6877:6898  tokeOwner != operator */\n      0xffffffffffffffffffffffffffffffffffffffff\n      and\n      sub\n        /* \"ProposalNFT.sol\":6869:6928  require(tokeOwner != operator, \"ERC721: approve to caller\") */\n      tag_188\n      jumpi\n      mload(0x40)\n      0x08c379a000000000000000000000000000000000000000000000000000000000\n      dup2\n      mstore\n      0x04\n      add\n      tag_189\n      swap1\n      tag_190\n      jump\t// in\n    tag_189:\n      mload(0x40)\n      dup1\n      swap2\n      sub\n      swap1\n      revert\n    tag_188:\n        /* \"ProposalNFT.sol\":6981:6989  approved */\n      dup1\n        /* \"ProposalNFT.sol\":6939:6957  _operatorApprovals */\n      0x05\n        /* \"ProposalNFT.sol\":6939:6968  _operatorApprovals[tokeOwner] */\n      0x00\n        /* \"ProposalNFT.sol\":6958:6967  tokeOwner */\n      dup6\n        /* \"ProposalNFT.sol\":6939:6968  _operatorApprovals[tokeOwner] */\n      0xffffffffffffffffffffffffffffffffffffffff\n      and\n      0xffffffffffffffffffffffffffffffffffffffff\n      and\n      dup2\n      mstore\n      0x20\n      add\n      swap1\n      dup2\n      mstore\n      0x20\n      add\n      0x00\n      keccak256\n        /* \"ProposalNFT.sol\":6939:6978  _operatorApprovals[tokeOwner][operator] */\n      0x00\n        /* \"ProposalNFT.sol\":6969:6977  operator */\n      dup5\n        /* \"ProposalNFT.sol\":6939:6978  _operatorApprovals[tokeOwner][operator] */\n      0xffffffffffffffffffffffffffffffffffffffff\n      and\n      0xffffffffffffffffffffffffffffffffffffffff\n      and\n      dup2\n      mstore\n      0x20\n      add\n      swap1\n      dup2\n      mstore\n      0x20\n      add\n      0x00\n      keccak256\n      0x00\n        /* \"ProposalNFT.sol\":6939:6989  _operatorApprovals[tokeOwner][operator] = approved */\n      0x0100\n      exp\n      dup2\n      sload\n      dup2\n      0xff\n      mul\n      not\n      and\n      swap1\n      dup4\n      iszero\n      iszero\n      mul\n      or\n      swap1\n      sstore\n      pop\n        /* \"ProposalNFT.sol\":7031:7039  operator */\n      dup2\n        /* \"ProposalNFT.sol\":7005:7050  ApprovalForAll(tokeOwner, operator, approved) */\n      0xffffffffffffffffffffffffffffffffffffffff\n      and\n        /* \"ProposalNFT.sol\":7020:7029  tokeOwner */\n      dup4\n        /* \"ProposalNFT.sol\":7005:7050  ApprovalForAll(tokeOwner, operator, approved) */\n      0xffffffffffffffffffffffffffffffffffffffff\n      and\n      0x17307eab39ab6107e8899845ad3d59bd9653f200f220920489ca2b5937696c31\n        /* \"ProposalNFT.sol\":7041:7049  approved */\n      dup4\n        /* \"ProposalNFT.sol\":7005:7050  ApprovalForAll(tokeOwner, operator, approved) */\n      mload(0x40)\n      tag_191\n      swap2\n      swap1\n      tag_27\n      jump\t// in\n    tag_191:\n      mload(0x40)\n      dup1\n      swap2\n      sub\n      swap1\n      log3\n        /* \"ProposalNFT.sol\":6727:7058  function _setApprovalForAll(... */\n      pop\n      pop\n      pop\n      jump\t// out\n        /* \"ProposalNFT.sol\":4355:4705  function _safeTransfer(... */\n    tag_150:\n        /* \"ProposalNFT.sol\":4511:4539  _transfer(from, to, tokenId) */\n      tag_193\n        /* \"ProposalNFT.sol\":4521:4525  from */\n      dup5\n        /* \"ProposalNFT.sol\":4527:4529  to */\n      dup5\n        /* \"ProposalNFT.sol\":4531:4538  tokenId */\n      dup5\n        /* \"ProposalNFT.sol\":4511:4520  _transfer */\n      tag_121\n        /* \"ProposalNFT.sol\":4511:4539  _transfer(from, to, tokenId) */\n      jump\t// in\n    tag_193:\n        /* \"ProposalNFT.sol\":4572:4619  _checkOnERC721Received(from, to, tokenId, data) */\n      tag_194\n        /* \"ProposalNFT.sol\":4595:4599  from */\n      dup5\n        /* \"ProposalNFT.sol\":4601:4603  to */\n      dup5\n        /* \"ProposalNFT.sol\":4605:4612  tokenId */\n      dup5\n        /* \"ProposalNFT.sol\":4614:4618  data */\n      dup5\n        /* \"ProposalNFT.sol\":4572:4594  _checkOnERC721Received */\n      tag_195\n        /* \"ProposalNFT.sol\":4572:4619  _checkOnERC721Received(from, to, tokenId, data) */\n      jump\t// in\n    tag_194:\n        /* \"ProposalNFT.sol\":4550:4697  require(... */\n      tag_196\n      jumpi\n      mload(0x40)\n      0x08c379a000000000000000000000000000000000000000000000000000000000\n      dup2\n      mstore\n      0x04\n      add\n      tag_197\n      swap1\n      tag_198\n      jump\t// in\n    tag_197:\n      mload(0x40)\n      dup1\n      swap2\n      sub\n      swap1\n      revert\n    tag_196:\n        /* \"ProposalNFT.sol\":4355:4705  function _safeTransfer(... */\n      pop\n      pop\n      pop\n      pop\n      jump\t// out\n        /* \"lib/Strings.sol\":408:1131   */\n    tag_154:\n        /* \"lib/Strings.sol\":464:477   */\n      0x60\n        /* \"lib/Strings.sol\":694:695   */\n      0x00\n        /* \"lib/Strings.sol\":685:690   */\n      dup3\n        /* \"lib/Strings.sol\":685:695   */\n      sub\n        /* \"lib/Strings.sol\":681:734   */\n      tag_200\n      jumpi\n        /* \"lib/Strings.sol\":712:722   */\n      mload(0x40)\n      dup1\n      0x40\n      add\n      0x40\n      mstore\n      dup1\n      0x01\n      dup2\n      mstore\n      0x20\n      add\n      0x3000000000000000000000000000000000000000000000000000000000000000\n      dup2\n      mstore\n      pop\n      swap1\n      pop\n      jump(tag_199)\n        /* \"lib/Strings.sol\":681:734   */\n    tag_200:\n        /* \"lib/Strings.sol\":744:756   */\n      0x00\n        /* \"lib/Strings.sol\":759:764   */\n      dup3\n        /* \"lib/Strings.sol\":744:764   */\n      swap1\n      pop\n        /* \"lib/Strings.sol\":775:789   */\n      0x00\n        /* \"lib/Strings.sol\":800:878   */\n    tag_201:\n        /* \"lib/Strings.sol\":815:816   */\n      0x00\n        /* \"lib/Strings.sol\":807:811   */\n      dup3\n        /* \"lib/Strings.sol\":807:816   */\n      eq\n        /* \"lib/Strings.sol\":800:878   */\n      tag_202\n      jumpi\n        /* \"lib/Strings.sol\":833:841   */\n      dup1\n      dup1\n      tag_203\n      swap1\n      tag_204\n      jump\t// in\n    tag_203:\n      swap2\n      pop\n      pop\n        /* \"lib/Strings.sol\":864:866   */\n      0x0a\n        /* \"lib/Strings.sol\":856:866   */\n      dup3\n      tag_205\n      swap2\n      swap1\n      tag_206\n      jump\t// in\n    tag_205:\n      swap2\n      pop\n        /* \"lib/Strings.sol\":800:878   */\n      jump(tag_201)\n    tag_202:\n        /* \"lib/Strings.sol\":888:907   */\n      0x00\n        /* \"lib/Strings.sol\":920:926   */\n      dup2\n        /* \"lib/Strings.sol\":910:927   */\n      0xffffffffffffffff\n      dup2\n      gt\n      iszero\n      tag_207\n      jumpi\n      tag_208\n      tag_209\n      jump\t// in\n    tag_208:\n    tag_207:\n      mload(0x40)\n      swap1\n      dup1\n      dup3\n      mstore\n      dup1\n      0x1f\n      add\n      not(0x1f)\n      and\n      0x20\n      add\n      dup3\n      add\n      0x40\n      mstore\n      dup1\n      iszero\n      tag_210\n      jumpi\n      dup2\n      0x20\n      add\n      0x01\n      dup3\n      mul\n      dup1\n      calldatasize\n      dup4\n      calldatacopy\n      dup1\n      dup3\n      add\n      swap2\n      pop\n      pop\n      swap1\n      pop\n    tag_210:\n      pop\n        /* \"lib/Strings.sol\":888:927   */\n      swap1\n      pop\n        /* \"lib/Strings.sol\":938:1092   */\n    tag_211:\n        /* \"lib/Strings.sol\":954:955   */\n      0x00\n        /* \"lib/Strings.sol\":945:950   */\n      dup6\n        /* \"lib/Strings.sol\":945:955   */\n      eq\n        /* \"lib/Strings.sol\":938:1092   */\n      tag_212\n      jumpi\n        /* \"lib/Strings.sol\":982:983   */\n      0x01\n        /* \"lib/Strings.sol\":972:983   */\n      dup3\n      tag_213\n      swap2\n      swap1\n      tag_182\n      jump\t// in\n    tag_213:\n      swap2\n      pop\n        /* \"lib/Strings.sol\":1049:1051   */\n      0x0a\n        /* \"lib/Strings.sol\":1041:1046   */\n      dup6\n        /* \"lib/Strings.sol\":1041:1051   */\n      tag_214\n      swap2\n      swap1\n      tag_215\n      jump\t// in\n    tag_214:\n        /* \"lib/Strings.sol\":1028:1030   */\n      0x30\n        /* \"lib/Strings.sol\":1028:1052   */\n      tag_216\n      swap2\n      swap1\n      tag_136\n      jump\t// in\n    tag_216:\n        /* \"lib/Strings.sol\":1015:1054   */\n      0xf8\n      shl\n        /* \"lib/Strings.sol\":998:1004   */\n      dup2\n        /* \"lib/Strings.sol\":1005:1011   */\n      dup4\n        /* \"lib/Strings.sol\":998:1012   */\n      dup2\n      mload\n      dup2\n      lt\n      tag_217\n      jumpi\n      tag_218\n      tag_219\n      jump\t// in\n    tag_218:\n    tag_217:\n      0x20\n      add\n      add\n        /* \"lib/Strings.sol\":998:1054   */\n      swap1\n      not(0xffffffffffffffffffffffffffffffffffffffffffffffffffffffffffffff)\n      and\n      swap1\n      dup2\n      0x00\n      byte\n      swap1\n      mstore8\n      pop\n        /* \"lib/Strings.sol\":1078:1080   */\n      0x0a\n        /* \"lib/Strings.sol\":1069:1080   */\n      dup6\n      tag_220\n      swap2\n      swap1\n      tag_206\n      jump\t// in\n    tag_220:\n      swap5\n      pop\n        /* \"lib/Strings.sol\":938:1092   */\n      jump(tag_211)\n    tag_212:\n        /* \"lib/Strings.sol\":1116:1122   */\n      dup1\n        /* \"lib/Strings.sol\":1102:1123   */\n      swap4\n      pop\n      pop\n      pop\n      pop\n        /* \"lib/Strings.sol\":408:1131   */\n    tag_199:\n      swap2\n      swap1\n      pop\n      jump\t// out\n        /* \"ProposalNFT.sol\":4713:4840  function _exists(uint256 tokenId) internal view virtual returns (bool) {... */\n    tag_161:\n        /* \"ProposalNFT.sol\":4778:4782  bool */\n      0x00\n        /* \"ProposalNFT.sol\":4830:4831  0 */\n      dup1\n        /* \"ProposalNFT.sol\":4802:4832  _owners[tokenId] != address(0) */\n      0xffffffffffffffffffffffffffffffffffffffff\n      and\n        /* \"ProposalNFT.sol\":4802:4809  _owners */\n      0x02\n        /* \"ProposalNFT.sol\":4802:4818  _owners[tokenId] */\n      0x00\n        /* \"ProposalNFT.sol\":4810:4817  tokenId */\n      dup5\n        /* \"ProposalNFT.sol\":4802:4818  _owners[tokenId] */\n      dup2\n      mstore\n      0x20\n      add\n      swap1\n      dup2\n      mstore\n      0x20\n      add\n      0x00\n      keccak256\n      0x00\n      swap1\n      sload\n      swap1\n      0x0100\n      exp\n      swap1\n      div\n      0xffffffffffffffffffffffffffffffffffffffff\n      and\n        /* \"ProposalNFT.sol\":4802:4832  _owners[tokenId] != address(0) */\n      0xffffffffffffffffffffffffffffffffffffffff\n      and\n      eq\n      iszero\n        /* \"ProposalNFT.sol\":4795:4832  return _owners[tokenId] != address(0) */\n      swap1\n      pop\n        /* \"ProposalNFT.sol\":4713:4840  function _exists(uint256 tokenId) internal view virtual returns (bool) {... */\n      swap2\n      swap1\n      pop\n      jump\t// out\n        /* \"ProposalNFT.sol\":5319:5638  function _safeMint(... */\n    tag_186:\n        /* \"ProposalNFT.sol\":5448:5466  _mint(to, tokenId) */\n      tag_223\n        /* \"ProposalNFT.sol\":5454:5456  to */\n      dup4\n        /* \"ProposalNFT.sol\":5458:5465  tokenId */\n      dup4\n        /* \"ProposalNFT.sol\":5448:5453  _mint */\n      tag_224\n        /* \"ProposalNFT.sol\":5448:5466  _mint(to, tokenId) */\n      jump\t// in\n    tag_223:\n        /* \"ProposalNFT.sol\":5499:5552  _checkOnERC721Received(address(0), to, tokenId, data) */\n      tag_225\n        /* \"ProposalNFT.sol\":5530:5531  0 */\n      0x00\n        /* \"ProposalNFT.sol\":5534:5536  to */\n      dup5\n        /* \"ProposalNFT.sol\":5538:5545  tokenId */\n      dup5\n        /* \"ProposalNFT.sol\":5547:5551  data */\n      dup5\n        /* \"ProposalNFT.sol\":5499:5521  _checkOnERC721Received */\n      tag_195\n        /* \"ProposalNFT.sol\":5499:5552  _checkOnERC721Received(address(0), to, tokenId, data) */\n      jump\t// in\n    tag_225:\n        /* \"ProposalNFT.sol\":5477:5630  require(... */\n      tag_226\n      jumpi\n      mload(0x40)\n      0x08c379a000000000000000000000000000000000000000000000000000000000\n      dup2\n      mstore\n      0x04\n      add\n      tag_227\n      swap1\n      tag_198\n      jump\t// in\n    tag_227:\n      mload(0x40)\n      dup1\n      swap2\n      sub\n      swap1\n      revert\n    tag_226:\n        /* \"ProposalNFT.sol\":5319:5638  function _safeMint(... */\n      pop\n      pop\n      pop\n      jump\t// out\n        /* \"ProposalNFT.sol\":7209:8244  function _checkOnERC721Received(... */\n    tag_195:\n        /* \"ProposalNFT.sol\":7363:7367  bool */\n      0x00\n        /* \"ProposalNFT.sol\":7401:7402  0 */\n      dup1\n        /* \"ProposalNFT.sol\":7384:7386  to */\n      dup5\n        /* \"ProposalNFT.sol\":7384:7398  to.code.length */\n      0xffffffffffffffffffffffffffffffffffffffff\n      and\n      extcodesize\n        /* \"ProposalNFT.sol\":7384:7402  to.code.length > 0 */\n      gt\n        /* \"ProposalNFT.sol\":7380:8237  if (to.code.length > 0) {... */\n      iszero\n      tag_229\n      jumpi\n        /* \"ProposalNFT.sol\":7456:7458  to */\n      dup4\n        /* \"ProposalNFT.sol\":7440:7476  IERC721Receiver(to).onERC721Received */\n      0xffffffffffffffffffffffffffffffffffffffff\n      and\n      0x150b7a02\n        /* \"ProposalNFT.sol\":7499:7509  msg.sender */\n      caller\n        /* \"ProposalNFT.sol\":7532:7536  from */\n      dup8\n        /* \"ProposalNFT.sol\":7559:7566  tokenId */\n      dup7\n        /* \"ProposalNFT.sol\":7589:7593  data */\n      dup7\n        /* \"ProposalNFT.sol\":7440:7612  IERC721Receiver(to).onERC721Received(... */\n      mload(0x40)\n      dup6\n      0xffffffff\n      and\n      0xe0\n      shl\n      dup2\n      mstore\n      0x04\n      add\n      tag_230\n      swap5\n      swap4\n      swap3\n      swap2\n      swap1\n      tag_231\n      jump\t// in\n    tag_230:\n      0x20\n      mload(0x40)\n      dup1\n      dup4\n      sub\n      dup2\n      0x00\n      dup8\n      gas\n      call\n      swap3\n      pop\n      pop\n      pop\n      dup1\n      iszero\n      tag_232\n      jumpi\n      pop\n      mload(0x40)\n      returndatasize\n      not(0x1f)\n      0x1f\n      dup3\n      add\n      and\n      dup3\n      add\n      dup1\n      0x40\n      mstore\n      pop\n      dup2\n      add\n      swap1\n      tag_233\n      swap2\n      swap1\n      tag_234\n      jump\t// in\n    tag_233:\n      0x01\n    tag_232:\n        /* \"ProposalNFT.sol\":7419:8182  try... */\n      tag_235\n      jumpi\n      returndatasize\n      dup1\n      0x00\n      dup2\n      eq\n      tag_240\n      jumpi\n      mload(0x40)\n      swap2\n      pop\n      and(add(returndatasize, 0x3f), not(0x1f))\n      dup3\n      add\n      0x40\n      mstore\n      returndatasize\n      dup3\n      mstore\n      returndatasize\n      0x00\n      0x20\n      dup5\n      add\n      returndatacopy\n      jump(tag_239)\n    tag_240:\n      0x60\n      swap2\n      pop\n    tag_239:\n      pop\n        /* \"ProposalNFT.sol\":7812:7813  0 */\n      0x00\n        /* \"ProposalNFT.sol\":7795:7801  reason */\n      dup2\n        /* \"ProposalNFT.sol\":7795:7808  reason.length */\n      mload\n        /* \"ProposalNFT.sol\":7795:7813  reason.length == 0 */\n      sub\n        /* \"ProposalNFT.sol\":7791:8167  if (reason.length == 0) {... */\n      tag_241\n      jumpi\n        /* \"ProposalNFT.sol\":7838:7946  revert(... */\n      mload(0x40)\n      0x08c379a000000000000000000000000000000000000000000000000000000000\n      dup2\n      mstore\n      0x04\n      add\n      tag_242\n      swap1\n      tag_198\n      jump\t// in\n    tag_242:\n      mload(0x40)\n      dup1\n      swap2\n      sub\n      swap1\n      revert\n        /* \"ProposalNFT.sol\":7791:8167  if (reason.length == 0) {... */\n    tag_241:\n        /* \"ProposalNFT.sol\":8117:8123  reason */\n      dup1\n        /* \"ProposalNFT.sol\":8111:8124  mload(reason) */\n      mload\n        /* \"ProposalNFT.sol\":8102:8108  reason */\n      dup2\n        /* \"ProposalNFT.sol\":8098:8100  32 */\n      0x20\n        /* \"ProposalNFT.sol\":8094:8109  add(32, reason) */\n      add\n        /* \"ProposalNFT.sol\":8087:8125  revert(add(32, reason), mload(reason)) */\n      revert\n        /* \"ProposalNFT.sol\":7419:8182  try... */\n    tag_235:\n        /* \"ProposalNFT.sol\":7686:7727  IERC721Receiver.onERC721Received.selector */\n      shl(0xe0, 0x150b7a02)\n        /* \"ProposalNFT.sol\":7676:7727  retval == IERC721Receiver.onERC721Received.selector */\n      not(0xffffffffffffffffffffffffffffffffffffffffffffffffffffffff)\n      and\n        /* \"ProposalNFT.sol\":7676:7682  retval */\n      dup2\n        /* \"ProposalNFT.sol\":7676:7727  retval == IERC721Receiver.onERC721Received.selector */\n      not(0xffffffffffffffffffffffffffffffffffffffffffffffffffffffff)\n      and\n      eq\n        /* \"ProposalNFT.sol\":7669:7727  return retval == IERC721Receiver.onERC721Received.selector */\n      swap2\n      pop\n      pop\n      jump(tag_228)\n        /* \"ProposalNFT.sol\":7380:8237  if (to.code.length > 0) {... */\n    tag_229:\n        /* \"ProposalNFT.sol\":8221:8225  true */\n      0x01\n        /* \"ProposalNFT.sol\":8214:8225  return true */\n      swap1\n      pop\n        /* \"ProposalNFT.sol\":7209:8244  function _checkOnERC721Received(... */\n    tag_228:\n      swap5\n      swap4\n      pop\n      pop\n      pop\n      pop\n      jump\t// out\n        /* \"ProposalNFT.sol\":5646:5966  function _mint(address to, uint256 tokenId) internal virtual {... */\n    tag_224:\n        /* \"ProposalNFT.sol\":5740:5741  0 */\n      0x00\n        /* \"ProposalNFT.sol\":5726:5742  to != address(0) */\n      0xffffffffffffffffffffffffffffffffffffffff\n      and\n        /* \"ProposalNFT.sol\":5726:5728  to */\n      dup3\n        /* \"ProposalNFT.sol\":5726:5742  to != address(0) */\n      0xffffffffffffffffffffffffffffffffffffffff\n      and\n      sub\n        /* \"ProposalNFT.sol\":5718:5779  require(to != address(0), \"ERC721: mint to the zero address\") */\n      tag_247\n      jumpi\n      mload(0x40)\n      0x08c379a000000000000000000000000000000000000000000000000000000000\n      dup2\n      mstore\n      0x04\n      add\n      tag_248\n      swap1\n      tag_249\n      jump\t// in\n    tag_248:\n      mload(0x40)\n      dup1\n      swap2\n      sub\n      swap1\n      revert\n    tag_247:\n        /* \"ProposalNFT.sol\":5799:5815  _exists(tokenId) */\n      tag_250\n        /* \"ProposalNFT.sol\":5807:5814  tokenId */\n      dup2\n        /* \"ProposalNFT.sol\":5799:5806  _exists */\n      tag_161\n        /* \"ProposalNFT.sol\":5799:5815  _exists(tokenId) */\n      jump\t// in\n    tag_250:\n        /* \"ProposalNFT.sol\":5798:5815  !_exists(tokenId) */\n      iszero\n        /* \"ProposalNFT.sol\":5790:5848  require(!_exists(tokenId), \"ERC721: token already minted\") */\n      tag_251\n      jumpi\n      mload(0x40)\n      0x08c379a000000000000000000000000000000000000000000000000000000000\n      dup2\n      mstore\n      0x04\n      add\n      tag_252\n      swap1\n      tag_253\n      jump\t// in\n    tag_252:\n      mload(0x40)\n      dup1\n      swap2\n      sub\n      swap1\n      revert\n    tag_251:\n        /* \"ProposalNFT.sol\":5876:5877  1 */\n      0x01\n        /* \"ProposalNFT.sol\":5859:5868  _balances */\n      0x03\n        /* \"ProposalNFT.sol\":5859:5872  _balances[to] */\n      0x00\n        /* \"ProposalNFT.sol\":5869:5871  to */\n      dup5\n        /* \"ProposalNFT.sol\":5859:5872  _balances[to] */\n      0xffffffffffffffffffffffffffffffffffffffff\n      and\n      0xffffffffffffffffffffffffffffffffffffffff\n      and\n      dup2\n      mstore\n      0x20\n      add\n      swap1\n      dup2\n      mstore\n      0x20\n      add\n      0x00\n      keccak256\n      0x00\n        /* \"ProposalNFT.sol\":5859:5877  _balances[to] += 1 */\n      dup3\n      dup3\n      sload\n      tag_254\n      swap2\n      swap1\n      tag_136\n      jump\t// in\n    tag_254:\n      swap3\n      pop\n      pop\n      dup2\n      swap1\n      sstore\n      pop\n        /* \"ProposalNFT.sol\":5907:5909  to */\n      dup2\n        /* \"ProposalNFT.sol\":5888:5895  _owners */\n      0x02\n        /* \"ProposalNFT.sol\":5888:5904  _owners[tokenId] */\n      0x00\n        /* \"ProposalNFT.sol\":5896:5903  tokenId */\n      dup4\n        /* \"ProposalNFT.sol\":5888:5904  _owners[tokenId] */\n      dup2\n      mstore\n      0x20\n      add\n      swap1\n      dup2\n      mstore\n      0x20\n      add\n      0x00\n      keccak256\n      0x00\n        /* \"ProposalNFT.sol\":5888:5909  _owners[tokenId] = to */\n      0x0100\n      exp\n      dup2\n      sload\n      dup2\n      0xffffffffffffffffffffffffffffffffffffffff\n      mul\n      not\n      and\n      swap1\n      dup4\n      0xffffffffffffffffffffffffffffffffffffffff\n      and\n      mul\n      or\n      swap1\n      sstore\n      pop\n        /* \"ProposalNFT.sol\":5950:5957  tokenId */\n      dup1\n        /* \"ProposalNFT.sol\":5946:5948  to */\n      dup3\n        /* \"ProposalNFT.sol\":5925:5958  Transfer(address(0), to, tokenId) */\n      0xffffffffffffffffffffffffffffffffffffffff\n      and\n        /* \"ProposalNFT.sol\":5942:5943  0 */\n      0x00\n        /* \"ProposalNFT.sol\":5925:5958  Transfer(address(0), to, tokenId) */\n      0xffffffffffffffffffffffffffffffffffffffff\n      and\n      0xddf252ad1be2c89b69c2b068fc378daa952ba7f163c4a11628f55a4df523b3ef\n      mload(0x40)\n      mload(0x40)\n      dup1\n      swap2\n      sub\n      swap1\n      log4\n        /* \"ProposalNFT.sol\":5646:5966  function _mint(address to, uint256 tokenId) internal virtual {... */\n      pop\n      pop\n      jump\t// out\n        /* \"#utility.yul\":7:82   */\n    tag_255:\n        /* \"#utility.yul\":40:46   */\n      0x00\n        /* \"#utility.yul\":73:75   */\n      0x40\n        /* \"#utility.yul\":67:76   */\n      mload\n        /* \"#utility.yul\":57:76   */\n      swap1\n      pop\n        /* \"#utility.yul\":7:82   */\n      swap1\n      jump\t// out\n        /* \"#utility.yul\":88:205   */\n    tag_256:\n        /* \"#utility.yul\":197:198   */\n      0x00\n        /* \"#utility.yul\":194:195   */\n      dup1\n        /* \"#utility.yul\":187:199   */\n      revert\n        /* \"#utility.yul\":211:328   */\n    tag_257:\n        /* \"#utility.yul\":320:321   */\n      0x00\n        /* \"#utility.yul\":317:318   */\n      dup1\n        /* \"#utility.yul\":310:322   */\n      revert\n        /* \"#utility.yul\":334:483   */\n    tag_258:\n        /* \"#utility.yul\":370:377   */\n      0x00\n        /* \"#utility.yul\":410:476   */\n      0xffffffff00000000000000000000000000000000000000000000000000000000\n        /* \"#utility.yul\":403:408   */\n      dup3\n        /* \"#utility.yul\":399:477   */\n      and\n        /* \"#utility.yul\":388:477   */\n      swap1\n      pop\n        /* \"#utility.yul\":334:483   */\n      swap2\n      swap1\n      pop\n      jump\t// out\n        /* \"#utility.yul\":489:609   */\n    tag_259:\n        /* \"#utility.yul\":561:584   */\n      tag_325\n        /* \"#utility.yul\":578:583   */\n      dup2\n        /* \"#utility.yul\":561:584   */\n      tag_258\n      jump\t// in\n    tag_325:\n        /* \"#utility.yul\":554:559   */\n      dup2\n        /* \"#utility.yul\":551:585   */\n      eq\n        /* \"#utility.yul\":541:603   */\n      tag_326\n      jumpi\n        /* \"#utility.yul\":599:600   */\n      0x00\n        /* \"#utility.yul\":596:597   */\n      dup1\n        /* \"#utility.yul\":589:601   */\n      revert\n        /* \"#utility.yul\":541:603   */\n    tag_326:\n        /* \"#utility.yul\":489:609   */\n      pop\n      jump\t// out\n        /* \"#utility.yul\":615:752   */\n    tag_260:\n        /* \"#utility.yul\":660:665   */\n      0x00\n        /* \"#utility.yul\":698:704   */\n      dup2\n        /* \"#utility.yul\":685:705   */\n      calldataload\n        /* \"#utility.yul\":676:705   */\n      swap1\n      pop\n        /* \"#utility.yul\":714:746   */\n      tag_328\n        /* \"#utility.yul\":740:745   */\n      dup2\n        /* \"#utility.yul\":714:746   */\n      tag_259\n      jump\t// in\n    tag_328:\n        /* \"#utility.yul\":615:752   */\n      swap3\n      swap2\n      pop\n      pop\n      jump\t// out\n        /* \"#utility.yul\":758:1085   */\n    tag_24:\n        /* \"#utility.yul\":816:822   */\n      0x00\n        /* \"#utility.yul\":865:867   */\n      0x20\n        /* \"#utility.yul\":853:862   */\n      dup3\n        /* \"#utility.yul\":844:851   */\n      dup5\n        /* \"#utility.yul\":840:863   */\n      sub\n        /* \"#utility.yul\":836:868   */\n      slt\n        /* \"#utility.yul\":833:952   */\n      iszero\n      tag_330\n      jumpi\n        /* \"#utility.yul\":871:950   */\n      tag_331\n      tag_256\n      jump\t// in\n    tag_331:\n        /* \"#utility.yul\":833:952   */\n    tag_330:\n        /* \"#utility.yul\":991:992   */\n      0x00\n        /* \"#utility.yul\":1016:1068   */\n      tag_332\n        /* \"#utility.yul\":1060:1067   */\n      dup5\n        /* \"#utility.yul\":1051:1057   */\n      dup3\n        /* \"#utility.yul\":1040:1049   */\n      dup6\n        /* \"#utility.yul\":1036:1058   */\n      add\n        /* \"#utility.yul\":1016:1068   */\n      tag_260\n      jump\t// in\n    tag_332:\n        /* \"#utility.yul\":1006:1068   */\n      swap2\n      pop\n        /* \"#utility.yul\":962:1078   */\n      pop\n        /* \"#utility.yul\":758:1085   */\n      swap3\n      swap2\n      pop\n      pop\n      jump\t// out\n        /* \"#utility.yul\":1091:1181   */\n    tag_261:\n        /* \"#utility.yul\":1125:1132   */\n      0x00\n        /* \"#utility.yul\":1168:1173   */\n      dup2\n        /* \"#utility.yul\":1161:1174   */\n      iszero\n        /* \"#utility.yul\":1154:1175   */\n      iszero\n        /* \"#utility.yul\":1143:1175   */\n      swap1\n      pop\n        /* \"#utility.yul\":1091:1181   */\n      swap2\n      swap1\n      pop\n      jump\t// out\n        /* \"#utility.yul\":1187:1296   */\n    tag_262:\n        /* \"#utility.yul\":1268:1289   */\n      tag_335\n        /* \"#utility.yul\":1283:1288   */\n      dup2\n        /* \"#utility.yul\":1268:1289   */\n      tag_261\n      jump\t// in\n    tag_335:\n        /* \"#utility.yul\":1263:1266   */\n      dup3\n        /* \"#utility.yul\":1256:1290   */\n      mstore\n        /* \"#utility.yul\":1187:1296   */\n      pop\n      pop\n      jump\t// out\n        /* \"#utility.yul\":1302:1512   */\n    tag_27:\n        /* \"#utility.yul\":1389:1393   */\n      0x00\n        /* \"#utility.yul\":1427:1429   */\n      0x20\n        /* \"#utility.yul\":1416:1425   */\n      dup3\n        /* \"#utility.yul\":1412:1430   */\n      add\n        /* \"#utility.yul\":1404:1430   */\n      swap1\n      pop\n        /* \"#utility.yul\":1440:1505   */\n      tag_337\n        /* \"#utility.yul\":1502:1503   */\n      0x00\n        /* \"#utility.yul\":1491:1500   */\n      dup4\n        /* \"#utility.yul\":1487:1504   */\n      add\n        /* \"#utility.yul\":1478:1484   */\n      dup5\n        /* \"#utility.yul\":1440:1505   */\n      tag_262\n      jump\t// in\n    tag_337:\n        /* \"#utility.yul\":1302:1512   */\n      swap3\n      swap2\n      pop\n      pop\n      jump\t// out\n        /* \"#utility.yul\":1518:1595   */\n    tag_263:\n        /* \"#utility.yul\":1555:1562   */\n      0x00\n        /* \"#utility.yul\":1584:1589   */\n      dup2\n        /* \"#utility.yul\":1573:1589   */\n      swap1\n      pop\n        /* \"#utility.yul\":1518:1595   */\n      swap2\n      swap1\n      pop\n      jump\t// out\n        /* \"#utility.yul\":1601:1719   */\n    tag_264:\n        /* \"#utility.yul\":1688:1712   */\n      tag_340\n        /* \"#utility.yul\":1706:1711   */\n      dup2\n        /* \"#utility.yul\":1688:1712   */\n      tag_263\n      jump\t// in\n    tag_340:\n        /* \"#utility.yul\":1683:1686   */\n      dup3\n        /* \"#utility.yul\":1676:1713   */\n      mstore\n        /* \"#utility.yul\":1601:1719   */\n      pop\n      pop\n      jump\t// out\n        /* \"#utility.yul\":1725:1947   */\n    tag_31:\n        /* \"#utility.yul\":1818:1822   */\n      0x00\n        /* \"#utility.yul\":1856:1858   */\n      0x20\n        /* \"#utility.yul\":1845:1854   */\n      dup3\n        /* \"#utility.yul\":1841:1859   */\n      add\n        /* \"#utility.yul\":1833:1859   */\n      swap1\n      pop\n        /* \"#utility.yul\":1869:1940   */\n      tag_342\n        /* \"#utility.yul\":1937:1938   */\n      0x00\n        /* \"#utility.yul\":1926:1935   */\n      dup4\n        /* \"#utility.yul\":1922:1939   */\n      add\n        /* \"#utility.yul\":1913:1919   */\n      dup5\n        /* \"#utility.yul\":1869:1940   */\n      tag_264\n      jump\t// in\n    tag_342:\n        /* \"#utility.yul\":1725:1947   */\n      swap3\n      swap2\n      pop\n      pop\n      jump\t// out\n        /* \"#utility.yul\":1953:2052   */\n    tag_265:\n        /* \"#utility.yul\":2005:2011   */\n      0x00\n        /* \"#utility.yul\":2039:2044   */\n      dup2\n        /* \"#utility.yul\":2033:2045   */\n      mload\n        /* \"#utility.yul\":2023:2045   */\n      swap1\n      pop\n        /* \"#utility.yul\":1953:2052   */\n      swap2\n      swap1\n      pop\n      jump\t// out\n        /* \"#utility.yul\":2058:2227   */\n    tag_266:\n        /* \"#utility.yul\":2142:2153   */\n      0x00\n        /* \"#utility.yul\":2176:2182   */\n      dup3\n        /* \"#utility.yul\":2171:2174   */\n      dup3\n        /* \"#utility.yul\":2164:2183   */\n      mstore\n        /* \"#utility.yul\":2216:2220   */\n      0x20\n        /* \"#utility.yul\":2211:2214   */\n      dup3\n        /* \"#utility.yul\":2207:2221   */\n      add\n        /* \"#utility.yul\":2192:2221   */\n      swap1\n      pop\n        /* \"#utility.yul\":2058:2227   */\n      swap3\n      swap2\n      pop\n      pop\n      jump\t// out\n        /* \"#utility.yul\":2233:2479   */\n    tag_267:\n        /* \"#utility.yul\":2314:2315   */\n      0x00\n        /* \"#utility.yul\":2324:2437   */\n    tag_346:\n        /* \"#utility.yul\":2338:2344   */\n      dup4\n        /* \"#utility.yul\":2335:2336   */\n      dup2\n        /* \"#utility.yul\":2332:2345   */\n      lt\n        /* \"#utility.yul\":2324:2437   */\n      iszero\n      tag_348\n      jumpi\n        /* \"#utility.yul\":2423:2424   */\n      dup1\n        /* \"#utility.yul\":2418:2421   */\n      dup3\n        /* \"#utility.yul\":2414:2425   */\n      add\n        /* \"#utility.yul\":2408:2426   */\n      mload\n        /* \"#utility.yul\":2404:2405   */\n      dup2\n        /* \"#utility.yul\":2399:2402   */\n      dup5\n        /* \"#utility.yul\":2395:2406   */\n      add\n        /* \"#utility.yul\":2388:2427   */\n      mstore\n        /* \"#utility.yul\":2360:2362   */\n      0x20\n        /* \"#utility.yul\":2357:2358   */\n      dup2\n        /* \"#utility.yul\":2353:2363   */\n      add\n        /* \"#utility.yul\":2348:2363   */\n      swap1\n      pop\n        /* \"#utility.yul\":2324:2437   */\n      jump(tag_346)\n    tag_348:\n        /* \"#utility.yul\":2471:2472   */\n      0x00\n        /* \"#utility.yul\":2462:2468   */\n      dup5\n        /* \"#utility.yul\":2457:2460   */\n      dup5\n        /* \"#utility.yul\":2453:2469   */\n      add\n        /* \"#utility.yul\":2446:2473   */\n      mstore\n        /* \"#utility.yul\":2295:2479   */\n      pop\n        /* \"#utility.yul\":2233:2479   */\n      pop\n      pop\n      pop\n      jump\t// out\n        /* \"#utility.yul\":2485:2587   */\n    tag_268:\n        /* \"#utility.yul\":2526:2532   */\n      0x00\n        /* \"#utility.yul\":2577:2579   */\n      0x1f\n        /* \"#utility.yul\":2573:2580   */\n      not\n        /* \"#utility.yul\":2568:2570   */\n      0x1f\n        /* \"#utility.yul\":2561:2566   */\n      dup4\n        /* \"#utility.yul\":2557:2571   */\n      add\n        /* \"#utility.yul\":2553:2581   */\n      and\n        /* \"#utility.yul\":2543:2581   */\n      swap1\n      pop\n        /* \"#utility.yul\":2485:2587   */\n      swap2\n      swap1\n      pop\n      jump\t// out\n        /* \"#utility.yul\":2593:2970   */\n    tag_269:\n        /* \"#utility.yul\":2681:2684   */\n      0x00\n        /* \"#utility.yul\":2709:2748   */\n      tag_351\n        /* \"#utility.yul\":2742:2747   */\n      dup3\n        /* \"#utility.yul\":2709:2748   */\n      tag_265\n      jump\t// in\n    tag_351:\n        /* \"#utility.yul\":2764:2835   */\n      tag_352\n        /* \"#utility.yul\":2828:2834   */\n      dup2\n        /* \"#utility.yul\":2823:2826   */\n      dup6\n        /* \"#utility.yul\":2764:2835   */\n      tag_266\n      jump\t// in\n    tag_352:\n        /* \"#utility.yul\":2757:2835   */\n      swap4\n      pop\n        /* \"#utility.yul\":2844:2909   */\n      tag_353\n        /* \"#utility.yul\":2902:2908   */\n      dup2\n        /* \"#utility.yul\":2897:2900   */\n      dup6\n        /* \"#utility.yul\":2890:2894   */\n      0x20\n        /* \"#utility.yul\":2883:2888   */\n      dup7\n        /* \"#utility.yul\":2879:2895   */\n      add\n        /* \"#utility.yul\":2844:2909   */\n      tag_267\n      jump\t// in\n    tag_353:\n        /* \"#utility.yul\":2934:2963   */\n      tag_354\n        /* \"#utility.yul\":2956:2962   */\n      dup2\n        /* \"#utility.yul\":2934:2963   */\n      tag_268\n      jump\t// in\n    tag_354:\n        /* \"#utility.yul\":2929:2932   */\n      dup5\n        /* \"#utility.yul\":2925:2964   */\n      add\n        /* \"#utility.yul\":2918:2964   */\n      swap2\n      pop\n        /* \"#utility.yul\":2685:2970   */\n      pop\n        /* \"#utility.yul\":2593:2970   */\n      swap3\n      swap2\n      pop\n      pop\n      jump\t// out\n        /* \"#utility.yul\":2976:3289   */\n    tag_35:\n        /* \"#utility.yul\":3089:3093   */\n      0x00\n        /* \"#utility.yul\":3127:3129   */\n      0x20\n        /* \"#utility.yul\":3116:3125   */\n      dup3\n        /* \"#utility.yul\":3112:3130   */\n      add\n        /* \"#utility.yul\":3104:3130   */\n      swap1\n      pop\n        /* \"#utility.yul\":3176:3185   */\n      dup2\n        /* \"#utility.yul\":3170:3174   */\n      dup2\n        /* \"#utility.yul\":3166:3186   */\n      sub\n        /* \"#utility.yul\":3162:3163   */\n      0x00\n        /* \"#utility.yul\":3151:3160   */\n      dup4\n        /* \"#utility.yul\":3147:3164   */\n      add\n        /* \"#utility.yul\":3140:3187   */\n      mstore\n        /* \"#utility.yul\":3204:3282   */\n      tag_356\n        /* \"#utility.yul\":3277:3281   */\n      dup2\n        /* \"#utility.yul\":3268:3274   */\n      dup5\n        /* \"#utility.yul\":3204:3282   */\n      tag_269\n      jump\t// in\n    tag_356:\n        /* \"#utility.yul\":3196:3282   */\n      swap1\n      pop\n        /* \"#utility.yul\":2976:3289   */\n      swap3\n      swap2\n      pop\n      pop\n      jump\t// out\n        /* \"#utility.yul\":3295:3417   */\n    tag_270:\n        /* \"#utility.yul\":3368:3392   */\n      tag_358\n        /* \"#utility.yul\":3386:3391   */\n      dup2\n        /* \"#utility.yul\":3368:3392   */\n      tag_263\n      jump\t// in\n    tag_358:\n        /* \"#utility.yul\":3361:3366   */\n      dup2\n        /* \"#utility.yul\":3358:3393   */\n      eq\n        /* \"#utility.yul\":3348:3411   */\n      tag_359\n      jumpi\n        /* \"#utility.yul\":3407:3408   */\n      0x00\n        /* \"#utility.yul\":3404:3405   */\n      dup1\n        /* \"#utility.yul\":3397:3409   */\n      revert\n        /* \"#utility.yul\":3348:3411   */\n    tag_359:\n        /* \"#utility.yul\":3295:3417   */\n      pop\n      jump\t// out\n        /* \"#utility.yul\":3423:3562   */\n    tag_271:\n        /* \"#utility.yul\":3469:3474   */\n      0x00\n        /* \"#utility.yul\":3507:3513   */\n      dup2\n        /* \"#utility.yul\":3494:3514   */\n      calldataload\n        /* \"#utility.yul\":3485:3514   */\n      swap1\n      pop\n        /* \"#utility.yul\":3523:3556   */\n      tag_361\n        /* \"#utility.yul\":3550:3555   */\n      dup2\n        /* \"#utility.yul\":3523:3556   */\n      tag_270\n      jump\t// in\n    tag_361:\n        /* \"#utility.yul\":3423:3562   */\n      swap3\n      swap2\n      pop\n      pop\n      jump\t// out\n        /* \"#utility.yul\":3568:3897   */\n    tag_38:\n        /* \"#utility.yul\":3627:3633   */\n      0x00\n        /* \"#utility.yul\":3676:3678   */\n      0x20\n        /* \"#utility.yul\":3664:3673   */\n      dup3\n        /* \"#utility.yul\":3655:3662   */\n      dup5\n        /* \"#utility.yul\":3651:3674   */\n      sub\n        /* \"#utility.yul\":3647:3679   */\n      slt\n        /* \"#utility.yul\":3644:3763   */\n      iszero\n      tag_363\n      jumpi\n        /* \"#utility.yul\":3682:3761   */\n      tag_364\n      tag_256\n      jump\t// in\n    tag_364:\n        /* \"#utility.yul\":3644:3763   */\n    tag_363:\n        /* \"#utility.yul\":3802:3803   */\n      0x00\n        /* \"#utility.yul\":3827:3880   */\n      tag_365\n        /* \"#utility.yul\":3872:3879   */\n      dup5\n        /* \"#utility.yul\":3863:3869   */\n      dup3\n        /* \"#utility.yul\":3852:3861   */\n      dup6\n        /* \"#utility.yul\":3848:3870   */\n      add\n        /* \"#utility.yul\":3827:3880   */\n      tag_271\n      jump\t// in\n    tag_365:\n        /* \"#utility.yul\":3817:3880   */\n      swap2\n      pop\n        /* \"#utility.yul\":3773:3890   */\n      pop\n        /* \"#utility.yul\":3568:3897   */\n      swap3\n      swap2\n      pop\n      pop\n      jump\t// out\n        /* \"#utility.yul\":3903:4029   */\n    tag_272:\n        /* \"#utility.yul\":3940:3947   */\n      0x00\n        /* \"#utility.yul\":3980:4022   */\n      0xffffffffffffffffffffffffffffffffffffffff\n        /* \"#utility.yul\":3973:3978   */\n      dup3\n        /* \"#utility.yul\":3969:4023   */\n      and\n        /* \"#utility.yul\":3958:4023   */\n      swap1\n      pop\n        /* \"#utility.yul\":3903:4029   */\n      swap2\n      swap1\n      pop\n      jump\t// out\n        /* \"#utility.yul\":4035:4131   */\n    tag_273:\n        /* \"#utility.yul\":4072:4079   */\n      0x00\n        /* \"#utility.yul\":4101:4125   */\n      tag_368\n        /* \"#utility.yul\":4119:4124   */\n      dup3\n        /* \"#utility.yul\":4101:4125   */\n      tag_272\n      jump\t// in\n    tag_368:\n        /* \"#utility.yul\":4090:4125   */\n      swap1\n      pop\n        /* \"#utility.yul\":4035:4131   */\n      swap2\n      swap1\n      pop\n      jump\t// out\n        /* \"#utility.yul\":4137:4255   */\n    tag_274:\n        /* \"#utility.yul\":4224:4248   */\n      tag_370\n        /* \"#utility.yul\":4242:4247   */\n      dup2\n        /* \"#utility.yul\":4224:4248   */\n      tag_273\n      jump\t// in\n    tag_370:\n        /* \"#utility.yul\":4219:4222   */\n      dup3\n        /* \"#utility.yul\":4212:4249   */\n      mstore\n        /* \"#utility.yul\":4137:4255   */\n      pop\n      pop\n      jump\t// out\n        /* \"#utility.yul\":4261:4483   */\n    tag_41:\n        /* \"#utility.yul\":4354:4358   */\n      0x00\n        /* \"#utility.yul\":4392:4394   */\n      0x20\n        /* \"#utility.yul\":4381:4390   */\n      dup3\n        /* \"#utility.yul\":4377:4395   */\n      add\n        /* \"#utility.yul\":4369:4395   */\n      swap1\n      pop\n        /* \"#utility.yul\":4405:4476   */\n      tag_372\n        /* \"#utility.yul\":4473:4474   */\n      0x00\n        /* \"#utility.yul\":4462:4471   */\n      dup4\n        /* \"#utility.yul\":4458:4475   */\n      add\n        /* \"#utility.yul\":4449:4455   */\n      dup5\n        /* \"#utility.yul\":4405:4476   */\n      tag_274\n      jump\t// in\n    tag_372:\n        /* \"#utility.yul\":4261:4483   */\n      swap3\n      swap2\n      pop\n      pop\n      jump\t// out\n        /* \"#utility.yul\":4489:4611   */\n    tag_275:\n        /* \"#utility.yul\":4562:4586   */\n      tag_374\n        /* \"#utility.yul\":4580:4585   */\n      dup2\n        /* \"#utility.yul\":4562:4586   */\n      tag_273\n      jump\t// in\n    tag_374:\n        /* \"#utility.yul\":4555:4560   */\n      dup2\n        /* \"#utility.yul\":4552:4587   */\n      eq\n        /* \"#utility.yul\":4542:4605   */\n      tag_375\n      jumpi\n        /* \"#utility.yul\":4601:4602   */\n      0x00\n        /* \"#utility.yul\":4598:4599   */\n      dup1\n        /* \"#utility.yul\":4591:4603   */\n      revert\n        /* \"#utility.yul\":4542:4605   */\n    tag_375:\n        /* \"#utility.yul\":4489:4611   */\n      pop\n      jump\t// out\n        /* \"#utility.yul\":4617:4756   */\n    tag_276:\n        /* \"#utility.yul\":4663:4668   */\n      0x00\n        /* \"#utility.yul\":4701:4707   */\n      dup2\n        /* \"#utility.yul\":4688:4708   */\n      calldataload\n        /* \"#utility.yul\":4679:4708   */\n      swap1\n      pop\n        /* \"#utility.yul\":4717:4750   */\n      tag_377\n        /* \"#utility.yul\":4744:4749   */\n      dup2\n        /* \"#utility.yul\":4717:4750   */\n      tag_275\n      jump\t// in\n    tag_377:\n        /* \"#utility.yul\":4617:4756   */\n      swap3\n      swap2\n      pop\n      pop\n      jump\t// out\n        /* \"#utility.yul\":4762:5236   */\n    tag_44:\n        /* \"#utility.yul\":4830:4836   */\n      0x00\n        /* \"#utility.yul\":4838:4844   */\n      dup1\n        /* \"#utility.yul\":4887:4889   */\n      0x40\n        /* \"#utility.yul\":4875:4884   */\n      dup4\n        /* \"#utility.yul\":4866:4873   */\n      dup6\n        /* \"#utility.yul\":4862:4885   */\n      sub\n        /* \"#utility.yul\":4858:4890   */\n      slt\n        /* \"#utility.yul\":4855:4974   */\n      iszero\n      tag_379\n      jumpi\n        /* \"#utility.yul\":4893:4972   */\n      tag_380\n      tag_256\n      jump\t// in\n    tag_380:\n        /* \"#utility.yul\":4855:4974   */\n    tag_379:\n        /* \"#utility.yul\":5013:5014   */\n      0x00\n        /* \"#utility.yul\":5038:5091   */\n      tag_381\n        /* \"#utility.yul\":5083:5090   */\n      dup6\n        /* \"#utility.yul\":5074:5080   */\n      dup3\n        /* \"#utility.yul\":5063:5072   */\n      dup7\n        /* \"#utility.yul\":5059:5081   */\n      add\n        /* \"#utility.yul\":5038:5091   */\n      tag_276\n      jump\t// in\n    tag_381:\n        /* \"#utility.yul\":5028:5091   */\n      swap3\n      pop\n        /* \"#utility.yul\":4984:5101   */\n      pop\n        /* \"#utility.yul\":5140:5142   */\n      0x20\n        /* \"#utility.yul\":5166:5219   */\n      tag_382\n        /* \"#utility.yul\":5211:5218   */\n      dup6\n        /* \"#utility.yul\":5202:5208   */\n      dup3\n        /* \"#utility.yul\":5191:5200   */\n      dup7\n        /* \"#utility.yul\":5187:5209   */\n      add\n        /* \"#utility.yul\":5166:5219   */\n      tag_271\n      jump\t// in\n    tag_382:\n        /* \"#utility.yul\":5156:5219   */\n      swap2\n      pop\n        /* \"#utility.yul\":5111:5229   */\n      pop\n        /* \"#utility.yul\":4762:5236   */\n      swap3\n      pop\n      swap3\n      swap1\n      pop\n      jump\t// out\n        /* \"#utility.yul\":5242:5861   */\n    tag_48:\n        /* \"#utility.yul\":5319:5325   */\n      0x00\n        /* \"#utility.yul\":5327:5333   */\n      dup1\n        /* \"#utility.yul\":5335:5341   */\n      0x00\n        /* \"#utility.yul\":5384:5386   */\n      0x60\n        /* \"#utility.yul\":5372:5381   */\n      dup5\n        /* \"#utility.yul\":5363:5370   */\n      dup7\n        /* \"#utility.yul\":5359:5382   */\n      sub\n        /* \"#utility.yul\":5355:5387   */\n      slt\n        /* \"#utility.yul\":5352:5471   */\n      iszero\n      tag_384\n      jumpi\n        /* \"#utility.yul\":5390:5469   */\n      tag_385\n      tag_256\n      jump\t// in\n    tag_385:\n        /* \"#utility.yul\":5352:5471   */\n    tag_384:\n        /* \"#utility.yul\":5510:5511   */\n      0x00\n        /* \"#utility.yul\":5535:5588   */\n      tag_386\n        /* \"#utility.yul\":5580:5587   */\n      dup7\n        /* \"#utility.yul\":5571:5577   */\n      dup3\n        /* \"#utility.yul\":5560:5569   */\n      dup8\n        /* \"#utility.yul\":5556:5578   */\n      add\n        /* \"#utility.yul\":5535:5588   */\n      tag_276\n      jump\t// in\n    tag_386:\n        /* \"#utility.yul\":5525:5588   */\n      swap4\n      pop\n        /* \"#utility.yul\":5481:5598   */\n      pop\n        /* \"#utility.yul\":5637:5639   */\n      0x20\n        /* \"#utility.yul\":5663:5716   */\n      tag_387\n        /* \"#utility.yul\":5708:5715   */\n      dup7\n        /* \"#utility.yul\":5699:5705   */\n      dup3\n        /* \"#utility.yul\":5688:5697   */\n      dup8\n        /* \"#utility.yul\":5684:5706   */\n      add\n        /* \"#utility.yul\":5663:5716   */\n      tag_276\n      jump\t// in\n    tag_387:\n        /* \"#utility.yul\":5653:5716   */\n      swap3\n      pop\n        /* \"#utility.yul\":5608:5726   */\n      pop\n        /* \"#utility.yul\":5765:5767   */\n      0x40\n        /* \"#utility.yul\":5791:5844   */\n      tag_388\n        /* \"#utility.yul\":5836:5843   */\n      dup7\n        /* \"#utility.yul\":5827:5833   */\n      dup3\n        /* \"#utility.yul\":5816:5825   */\n      dup8\n        /* \"#utility.yul\":5812:5834   */\n      add\n        /* \"#utility.yul\":5791:5844   */\n      tag_271\n      jump\t// in\n    tag_388:\n        /* \"#utility.yul\":5781:5844   */\n      swap2\n      pop\n        /* \"#utility.yul\":5736:5854   */\n      pop\n        /* \"#utility.yul\":5242:5861   */\n      swap3\n      pop\n      swap3\n      pop\n      swap3\n      jump\t// out\n        /* \"#utility.yul\":5867:6196   */\n    tag_59:\n        /* \"#utility.yul\":5926:5932   */\n      0x00\n        /* \"#utility.yul\":5975:5977   */\n      0x20\n        /* \"#utility.yul\":5963:5972   */\n      dup3\n        /* \"#utility.yul\":5954:5961   */\n      dup5\n        /* \"#utility.yul\":5950:5973   */\n      sub\n        /* \"#utility.yul\":5946:5978   */\n      slt\n        /* \"#utility.yul\":5943:6062   */\n      iszero\n      tag_390\n      jumpi\n        /* \"#utility.yul\":5981:6060   */\n      tag_391\n      tag_256\n      jump\t// in\n    tag_391:\n        /* \"#utility.yul\":5943:6062   */\n    tag_390:\n        /* \"#utility.yul\":6101:6102   */\n      0x00\n        /* \"#utility.yul\":6126:6179   */\n      tag_392\n        /* \"#utility.yul\":6171:6178   */\n      dup5\n        /* \"#utility.yul\":6162:6168   */\n      dup3\n        /* \"#utility.yul\":6151:6160   */\n      dup6\n        /* \"#utility.yul\":6147:6169   */\n      add\n        /* \"#utility.yul\":6126:6179   */\n      tag_276\n      jump\t// in\n    tag_392:\n        /* \"#utility.yul\":6116:6179   */\n      swap2\n      pop\n        /* \"#utility.yul\":6072:6189   */\n      pop\n        /* \"#utility.yul\":5867:6196   */\n      swap3\n      swap2\n      pop\n      pop\n      jump\t// out\n        /* \"#utility.yul\":6202:6318   */\n    tag_277:\n        /* \"#utility.yul\":6272:6293   */\n      tag_394\n        /* \"#utility.yul\":6287:6292   */\n      dup2\n        /* \"#utility.yul\":6272:6293   */\n      tag_261\n      jump\t// in\n    tag_394:\n        /* \"#utility.yul\":6265:6270   */\n      dup2\n        /* \"#utility.yul\":6262:6294   */\n      eq\n        /* \"#utility.yul\":6252:6312   */\n      tag_395\n      jumpi\n        /* \"#utility.yul\":6308:6309   */\n      0x00\n        /* \"#utility.yul\":6305:6306   */\n      dup1\n        /* \"#utility.yul\":6298:6310   */\n      revert\n        /* \"#utility.yul\":6252:6312   */\n    tag_395:\n        /* \"#utility.yul\":6202:6318   */\n      pop\n      jump\t// out\n        /* \"#utility.yul\":6324:6457   */\n    tag_278:\n        /* \"#utility.yul\":6367:6372   */\n      0x00\n        /* \"#utility.yul\":6405:6411   */\n      dup2\n        /* \"#utility.yul\":6392:6412   */\n      calldataload\n        /* \"#utility.yul\":6383:6412   */\n      swap1\n      pop\n        /* \"#utility.yul\":6421:6451   */\n      tag_397\n        /* \"#utility.yul\":6445:6450   */\n      dup2\n        /* \"#utility.yul\":6421:6451   */\n      tag_277\n      jump\t// in\n    tag_397:\n        /* \"#utility.yul\":6324:6457   */\n      swap3\n      swap2\n      pop\n      pop\n      jump\t// out\n        /* \"#utility.yul\":6463:6931   */\n    tag_73:\n        /* \"#utility.yul\":6528:6534   */\n      0x00\n        /* \"#utility.yul\":6536:6542   */\n      dup1\n        /* \"#utility.yul\":6585:6587   */\n      0x40\n        /* \"#utility.yul\":6573:6582   */\n      dup4\n        /* \"#utility.yul\":6564:6571   */\n      dup6\n        /* \"#utility.yul\":6560:6583   */\n      sub\n        /* \"#utility.yul\":6556:6588   */\n      slt\n        /* \"#utility.yul\":6553:6672   */\n      iszero\n      tag_399\n      jumpi\n        /* \"#utility.yul\":6591:6670   */\n      tag_400\n      tag_256\n      jump\t// in\n    tag_400:\n        /* \"#utility.yul\":6553:6672   */\n    tag_399:\n        /* \"#utility.yul\":6711:6712   */\n      0x00\n        /* \"#utility.yul\":6736:6789   */\n      tag_401\n        /* \"#utility.yul\":6781:6788   */\n      dup6\n        /* \"#utility.yul\":6772:6778   */\n      dup3\n        /* \"#utility.yul\":6761:6770   */\n      dup7\n        /* \"#utility.yul\":6757:6779   */\n      add\n        /* \"#utility.yul\":6736:6789   */\n      tag_276\n      jump\t// in\n    tag_401:\n        /* \"#utility.yul\":6726:6789   */\n      swap3\n      pop\n        /* \"#utility.yul\":6682:6799   */\n      pop\n        /* \"#utility.yul\":6838:6840   */\n      0x20\n        /* \"#utility.yul\":6864:6914   */\n      tag_402\n        /* \"#utility.yul\":6906:6913   */\n      dup6\n        /* \"#utility.yul\":6897:6903   */\n      dup3\n        /* \"#utility.yul\":6886:6895   */\n      dup7\n        /* \"#utility.yul\":6882:6904   */\n      add\n        /* \"#utility.yul\":6864:6914   */\n      tag_278\n      jump\t// in\n    tag_402:\n        /* \"#utility.yul\":6854:6914   */\n      swap2\n      pop\n        /* \"#utility.yul\":6809:6924   */\n      pop\n        /* \"#utility.yul\":6463:6931   */\n      swap3\n      pop\n      swap3\n      swap1\n      pop\n      jump\t// out\n        /* \"#utility.yul\":6937:7054   */\n    tag_279:\n        /* \"#utility.yul\":7046:7047   */\n      0x00\n        /* \"#utility.yul\":7043:7044   */\n      dup1\n        /* \"#utility.yul\":7036:7048   */\n      revert\n        /* \"#utility.yul\":7060:7177   */\n    tag_280:\n        /* \"#utility.yul\":7169:7170   */\n      0x00\n        /* \"#utility.yul\":7166:7167   */\n      dup1\n        /* \"#utility.yul\":7159:7171   */\n      revert\n        /* \"#utility.yul\":7183:7363   */\n    tag_209:\n        /* \"#utility.yul\":7231:7308   */\n      0x4e487b7100000000000000000000000000000000000000000000000000000000\n        /* \"#utility.yul\":7228:7229   */\n      0x00\n        /* \"#utility.yul\":7221:7309   */\n      mstore\n        /* \"#utility.yul\":7328:7332   */\n      0x41\n        /* \"#utility.yul\":7325:7326   */\n      0x04\n        /* \"#utility.yul\":7318:7333   */\n      mstore\n        /* \"#utility.yul\":7352:7356   */\n      0x24\n        /* \"#utility.yul\":7349:7350   */\n      0x00\n        /* \"#utility.yul\":7342:7357   */\n      revert\n        /* \"#utility.yul\":7369:7650   */\n    tag_281:\n        /* \"#utility.yul\":7452:7479   */\n      tag_407\n        /* \"#utility.yul\":7474:7478   */\n      dup3\n        /* \"#utility.yul\":7452:7479   */\n      tag_268\n      jump\t// in\n    tag_407:\n        /* \"#utility.yul\":7444:7450   */\n      dup2\n        /* \"#utility.yul\":7440:7480   */\n      add\n        /* \"#utility.yul\":7582:7588   */\n      dup2\n        /* \"#utility.yul\":7570:7580   */\n      dup2\n        /* \"#utility.yul\":7567:7589   */\n      lt\n        /* \"#utility.yul\":7546:7564   */\n      0xffffffffffffffff\n        /* \"#utility.yul\":7534:7544   */\n      dup3\n        /* \"#utility.yul\":7531:7565   */\n      gt\n        /* \"#utility.yul\":7528:7590   */\n      or\n        /* \"#utility.yul\":7525:7613   */\n      iszero\n      tag_408\n      jumpi\n        /* \"#utility.yul\":7593:7611   */\n      tag_409\n      tag_209\n      jump\t// in\n    tag_409:\n        /* \"#utility.yul\":7525:7613   */\n    tag_408:\n        /* \"#utility.yul\":7633:7643   */\n      dup1\n        /* \"#utility.yul\":7629:7631   */\n      0x40\n        /* \"#utility.yul\":7622:7644   */\n      mstore\n        /* \"#utility.yul\":7412:7650   */\n      pop\n        /* \"#utility.yul\":7369:7650   */\n      pop\n      pop\n      jump\t// out\n        /* \"#utility.yul\":7656:7785   */\n    tag_282:\n        /* \"#utility.yul\":7690:7696   */\n      0x00\n        /* \"#utility.yul\":7717:7737   */\n      tag_411\n      tag_255\n      jump\t// in\n    tag_411:\n        /* \"#utility.yul\":7707:7737   */\n      swap1\n      pop\n        /* \"#utility.yul\":7746:7779   */\n      tag_412\n        /* \"#utility.yul\":7774:7778   */\n      dup3\n        /* \"#utility.yul\":7766:7772   */\n      dup3\n        /* \"#utility.yul\":7746:7779   */\n      tag_281\n      jump\t// in\n    tag_412:\n        /* \"#utility.yul\":7656:7785   */\n      swap2\n      swap1\n      pop\n      jump\t// out\n        /* \"#utility.yul\":7791:8098   */\n    tag_283:\n        /* \"#utility.yul\":7852:7856   */\n      0x00\n        /* \"#utility.yul\":7942:7960   */\n      0xffffffffffffffff\n        /* \"#utility.yul\":7934:7940   */\n      dup3\n        /* \"#utility.yul\":7931:7961   */\n      gt\n        /* \"#utility.yul\":7928:7984   */\n      iszero\n      tag_414\n      jumpi\n        /* \"#utility.yul\":7964:7982   */\n      tag_415\n      tag_209\n      jump\t// in\n    tag_415:\n        /* \"#utility.yul\":7928:7984   */\n    tag_414:\n        /* \"#utility.yul\":8002:8031   */\n      tag_416\n        /* \"#utility.yul\":8024:8030   */\n      dup3\n        /* \"#utility.yul\":8002:8031   */\n      tag_268\n      jump\t// in\n    tag_416:\n        /* \"#utility.yul\":7994:8031   */\n      swap1\n      pop\n        /* \"#utility.yul\":8086:8090   */\n      0x20\n        /* \"#utility.yul\":8080:8084   */\n      dup2\n        /* \"#utility.yul\":8076:8091   */\n      add\n        /* \"#utility.yul\":8068:8091   */\n      swap1\n      pop\n        /* \"#utility.yul\":7791:8098   */\n      swap2\n      swap1\n      pop\n      jump\t// out\n        /* \"#utility.yul\":8104:8250   */\n    tag_284:\n        /* \"#utility.yul\":8201:8207   */\n      dup3\n        /* \"#utility.yul\":8196:8199   */\n      dup2\n        /* \"#utility.yul\":8191:8194   */\n      dup4\n        /* \"#utility.yul\":8178:8208   */\n      calldatacopy\n        /* \"#utility.yul\":8242:8243   */\n      0x00\n        /* \"#utility.yul\":8233:8239   */\n      dup4\n        /* \"#utility.yul\":8228:8231   */\n      dup4\n        /* \"#utility.yul\":8224:8240   */\n      add\n        /* \"#utility.yul\":8217:8244   */\n      mstore\n        /* \"#utility.yul\":8104:8250   */\n      pop\n      pop\n      pop\n      jump\t// out\n        /* \"#utility.yul\":8256:8679   */\n    tag_285:\n        /* \"#utility.yul\":8333:8338   */\n      0x00\n        /* \"#utility.yul\":8358:8423   */\n      tag_419\n        /* \"#utility.yul\":8374:8422   */\n      tag_420\n        /* \"#utility.yul\":8415:8421   */\n      dup5\n        /* \"#utility.yul\":8374:8422   */\n      tag_283\n      jump\t// in\n    tag_420:\n        /* \"#utility.yul\":8358:8423   */\n      tag_282\n      jump\t// in\n    tag_419:\n        /* \"#utility.yul\":8349:8423   */\n      swap1\n      pop\n        /* \"#utility.yul\":8446:8452   */\n      dup3\n        /* \"#utility.yul\":8439:8444   */\n      dup2\n        /* \"#utility.yul\":8432:8453   */\n      mstore\n        /* \"#utility.yul\":8484:8488   */\n      0x20\n        /* \"#utility.yul\":8477:8482   */\n      dup2\n        /* \"#utility.yul\":8473:8489   */\n      add\n        /* \"#utility.yul\":8522:8525   */\n      dup5\n        /* \"#utility.yul\":8513:8519   */\n      dup5\n        /* \"#utility.yul\":8508:8511   */\n      dup5\n        /* \"#utility.yul\":8504:8520   */\n      add\n        /* \"#utility.yul\":8501:8526   */\n      gt\n        /* \"#utility.yul\":8498:8610   */\n      iszero\n      tag_421\n      jumpi\n        /* \"#utility.yul\":8529:8608   */\n      tag_422\n      tag_280\n      jump\t// in\n    tag_422:\n        /* \"#utility.yul\":8498:8610   */\n    tag_421:\n        /* \"#utility.yul\":8619:8673   */\n      tag_423\n        /* \"#utility.yul\":8666:8672   */\n      dup5\n        /* \"#utility.yul\":8661:8664   */\n      dup3\n        /* \"#utility.yul\":8656:8659   */\n      dup6\n        /* \"#utility.yul\":8619:8673   */\n      tag_284\n      jump\t// in\n    tag_423:\n        /* \"#utility.yul\":8339:8679   */\n      pop\n        /* \"#utility.yul\":8256:8679   */\n      swap4\n      swap3\n      pop\n      pop\n      pop\n      jump\t// out\n        /* \"#utility.yul\":8698:9036   */\n    tag_286:\n        /* \"#utility.yul\":8753:8758   */\n      0x00\n        /* \"#utility.yul\":8802:8805   */\n      dup3\n        /* \"#utility.yul\":8795:8799   */\n      0x1f\n        /* \"#utility.yul\":8787:8793   */\n      dup4\n        /* \"#utility.yul\":8783:8800   */\n      add\n        /* \"#utility.yul\":8779:8806   */\n      slt\n        /* \"#utility.yul\":8769:8891   */\n      tag_425\n      jumpi\n        /* \"#utility.yul\":8810:8889   */\n      tag_426\n      tag_279\n      jump\t// in\n    tag_426:\n        /* \"#utility.yul\":8769:8891   */\n    tag_425:\n        /* \"#utility.yul\":8927:8933   */\n      dup2\n        /* \"#utility.yul\":8914:8934   */\n      calldataload\n        /* \"#utility.yul\":8952:9030   */\n      tag_427\n        /* \"#utility.yul\":9026:9029   */\n      dup5\n        /* \"#utility.yul\":9018:9024   */\n      dup3\n        /* \"#utility.yul\":9011:9015   */\n      0x20\n        /* \"#utility.yul\":9003:9009   */\n      dup7\n        /* \"#utility.yul\":8999:9016   */\n      add\n        /* \"#utility.yul\":8952:9030   */\n      tag_285\n      jump\t// in\n    tag_427:\n        /* \"#utility.yul\":8943:9030   */\n      swap2\n      pop\n        /* \"#utility.yul\":8759:9036   */\n      pop\n        /* \"#utility.yul\":8698:9036   */\n      swap3\n      swap2\n      pop\n      pop\n      jump\t// out\n        /* \"#utility.yul\":9042:9985   */\n    tag_77:\n        /* \"#utility.yul\":9137:9143   */\n      0x00\n        /* \"#utility.yul\":9145:9151   */\n      dup1\n        /* \"#utility.yul\":9153:9159   */\n      0x00\n        /* \"#utility.yul\":9161:9167   */\n      dup1\n        /* \"#utility.yul\":9210:9213   */\n      0x80\n        /* \"#utility.yul\":9198:9207   */\n      dup6\n        /* \"#utility.yul\":9189:9196   */\n      dup8\n        /* \"#utility.yul\":9185:9208   */\n      sub\n        /* \"#utility.yul\":9181:9214   */\n      slt\n        /* \"#utility.yul\":9178:9298   */\n      iszero\n      tag_429\n      jumpi\n        /* \"#utility.yul\":9217:9296   */\n      tag_430\n      tag_256\n      jump\t// in\n    tag_430:\n        /* \"#utility.yul\":9178:9298   */\n    tag_429:\n        /* \"#utility.yul\":9337:9338   */\n      0x00\n        /* \"#utility.yul\":9362:9415   */\n      tag_431\n        /* \"#utility.yul\":9407:9414   */\n      dup8\n        /* \"#utility.yul\":9398:9404   */\n      dup3\n        /* \"#utility.yul\":9387:9396   */\n      dup9\n        /* \"#utility.yul\":9383:9405   */\n      add\n        /* \"#utility.yul\":9362:9415   */\n      tag_276\n      jump\t// in\n    tag_431:\n        /* \"#utility.yul\":9352:9415   */\n      swap5\n      pop\n        /* \"#utility.yul\":9308:9425   */\n      pop\n        /* \"#utility.yul\":9464:9466   */\n      0x20\n        /* \"#utility.yul\":9490:9543   */\n      tag_432\n        /* \"#utility.yul\":9535:9542   */\n      dup8\n        /* \"#utility.yul\":9526:9532   */\n      dup3\n        /* \"#utility.yul\":9515:9524   */\n      dup9\n        /* \"#utility.yul\":9511:9533   */\n      add\n        /* \"#utility.yul\":9490:9543   */\n      tag_276\n      jump\t// in\n    tag_432:\n        /* \"#utility.yul\":9480:9543   */\n      swap4\n      pop\n        /* \"#utility.yul\":9435:9553   */\n      pop\n        /* \"#utility.yul\":9592:9594   */\n      0x40\n        /* \"#utility.yul\":9618:9671   */\n      tag_433\n        /* \"#utility.yul\":9663:9670   */\n      dup8\n        /* \"#utility.yul\":9654:9660   */\n      dup3\n        /* \"#utility.yul\":9643:9652   */\n      dup9\n        /* \"#utility.yul\":9639:9661   */\n      add\n        /* \"#utility.yul\":9618:9671   */\n      tag_271\n      jump\t// in\n    tag_433:\n        /* \"#utility.yul\":9608:9671   */\n      swap3\n      pop\n        /* \"#utility.yul\":9563:9681   */\n      pop\n        /* \"#utility.yul\":9748:9750   */\n      0x60\n        /* \"#utility.yul\":9737:9746   */\n      dup6\n        /* \"#utility.yul\":9733:9751   */\n      add\n        /* \"#utility.yul\":9720:9752   */\n      calldataload\n        /* \"#utility.yul\":9779:9797   */\n      0xffffffffffffffff\n        /* \"#utility.yul\":9771:9777   */\n      dup2\n        /* \"#utility.yul\":9768:9798   */\n      gt\n        /* \"#utility.yul\":9765:9882   */\n      iszero\n      tag_434\n      jumpi\n        /* \"#utility.yul\":9801:9880   */\n      tag_435\n      tag_257\n      jump\t// in\n    tag_435:\n        /* \"#utility.yul\":9765:9882   */\n    tag_434:\n        /* \"#utility.yul\":9906:9968   */\n      tag_436\n        /* \"#utility.yul\":9960:9967   */\n      dup8\n        /* \"#utility.yul\":9951:9957   */\n      dup3\n        /* \"#utility.yul\":9940:9949   */\n      dup9\n        /* \"#utility.yul\":9936:9958   */\n      add\n        /* \"#utility.yul\":9906:9968   */\n      tag_286\n      jump\t// in\n    tag_436:\n        /* \"#utility.yul\":9896:9968   */\n      swap2\n      pop\n        /* \"#utility.yul\":9691:9978   */\n      pop\n        /* \"#utility.yul\":9042:9985   */\n      swap3\n      swap6\n      swap2\n      swap5\n      pop\n      swap3\n      pop\n      jump\t// out\n        /* \"#utility.yul\":9991:10465   */\n    tag_85:\n        /* \"#utility.yul\":10059:10065   */\n      0x00\n        /* \"#utility.yul\":10067:10073   */\n      dup1\n        /* \"#utility.yul\":10116:10118   */\n      0x40\n        /* \"#utility.yul\":10104:10113   */\n      dup4\n        /* \"#utility.yul\":10095:10102   */\n      dup6\n        /* \"#utility.yul\":10091:10114   */\n      sub\n        /* \"#utility.yul\":10087:10119   */\n      slt\n        /* \"#utility.yul\":10084:10203   */\n      iszero\n      tag_438\n      jumpi\n        /* \"#utility.yul\":10122:10201   */\n      tag_439\n      tag_256\n      jump\t// in\n    tag_439:\n        /* \"#utility.yul\":10084:10203   */\n    tag_438:\n        /* \"#utility.yul\":10242:10243   */\n      0x00\n        /* \"#utility.yul\":10267:10320   */\n      tag_440\n        /* \"#utility.yul\":10312:10319   */\n      dup6\n        /* \"#utility.yul\":10303:10309   */\n      dup3\n        /* \"#utility.yul\":10292:10301   */\n      dup7\n        /* \"#utility.yul\":10288:10310   */\n      add\n        /* \"#utility.yul\":10267:10320   */\n      tag_276\n      jump\t// in\n    tag_440:\n        /* \"#utility.yul\":10257:10320   */\n      swap3\n      pop\n        /* \"#utility.yul\":10213:10330   */\n      pop\n        /* \"#utility.yul\":10369:10371   */\n      0x20\n        /* \"#utility.yul\":10395:10448   */\n      tag_441\n        /* \"#utility.yul\":10440:10447   */\n      dup6\n        /* \"#utility.yul\":10431:10437   */\n      dup3\n        /* \"#utility.yul\":10420:10429   */\n      dup7\n        /* \"#utility.yul\":10416:10438   */\n      add\n        /* \"#utility.yul\":10395:10448   */\n      tag_276\n      jump\t// in\n    tag_441:\n        /* \"#utility.yul\":10385:10448   */\n      swap2\n      pop\n        /* \"#utility.yul\":10340:10458   */\n      pop\n        /* \"#utility.yul\":9991:10465   */\n      swap3\n      pop\n      swap3\n      swap1\n      pop\n      jump\t// out\n        /* \"#utility.yul\":10471:10651   */\n    tag_287:\n        /* \"#utility.yul\":10519:10596   */\n      0x4e487b7100000000000000000000000000000000000000000000000000000000\n        /* \"#utility.yul\":10516:10517   */\n      0x00\n        /* \"#utility.yul\":10509:10597   */\n      mstore\n        /* \"#utility.yul\":10616:10620   */\n      0x22\n        /* \"#utility.yul\":10613:10614   */\n      0x04\n        /* \"#utility.yul\":10606:10621   */\n      mstore\n        /* \"#utility.yul\":10640:10644   */\n      0x24\n        /* \"#utility.yul\":10637:10638   */\n      0x00\n        /* \"#utility.yul\":10630:10645   */\n      revert\n        /* \"#utility.yul\":10657:10977   */\n    tag_94:\n        /* \"#utility.yul\":10701:10707   */\n      0x00\n        /* \"#utility.yul\":10738:10739   */\n      0x02\n        /* \"#utility.yul\":10732:10736   */\n      dup3\n        /* \"#utility.yul\":10728:10740   */\n      div\n        /* \"#utility.yul\":10718:10740   */\n      swap1\n      pop\n        /* \"#utility.yul\":10785:10786   */\n      0x01\n        /* \"#utility.yul\":10779:10783   */\n      dup3\n        /* \"#utility.yul\":10775:10787   */\n      and\n        /* \"#utility.yul\":10806:10824   */\n      dup1\n        /* \"#utility.yul\":10796:10877   */\n      tag_444\n      jumpi\n        /* \"#utility.yul\":10862:10866   */\n      0x7f\n        /* \"#utility.yul\":10854:10860   */\n      dup3\n        /* \"#utility.yul\":10850:10867   */\n      and\n        /* \"#utility.yul\":10840:10867   */\n      swap2\n      pop\n        /* \"#utility.yul\":10796:10877   */\n    tag_444:\n        /* \"#utility.yul\":10924:10926   */\n      0x20\n        /* \"#utility.yul\":10916:10922   */\n      dup3\n        /* \"#utility.yul\":10913:10927   */\n      lt\n        /* \"#utility.yul\":10893:10911   */\n      dup2\n        /* \"#utility.yul\":10890:10928   */\n      sub\n        /* \"#utility.yul\":10887:10971   */\n      tag_445\n      jumpi\n        /* \"#utility.yul\":10943:10961   */\n      tag_446\n      tag_287\n      jump\t// in\n    tag_446:\n        /* \"#utility.yul\":10887:10971   */\n    tag_445:\n        /* \"#utility.yul\":10708:10977   */\n      pop\n        /* \"#utility.yul\":10657:10977   */\n      swap2\n      swap1\n      pop\n      jump\t// out\n        /* \"#utility.yul\":10983:11203   */\n    tag_288:\n        /* \"#utility.yul\":11123:11157   */\n      0x4552433732313a20617070726f76616c20746f2063757272656e74206f776e65\n        /* \"#utility.yul\":11119:11120   */\n      0x00\n        /* \"#utility.yul\":11111:11117   */\n      dup3\n        /* \"#utility.yul\":11107:11121   */\n      add\n        /* \"#utility.yul\":11100:11158   */\n      mstore\n        /* \"#utility.yul\":11192:11195   */\n      0x7200000000000000000000000000000000000000000000000000000000000000\n        /* \"#utility.yul\":11187:11189   */\n      0x20\n        /* \"#utility.yul\":11179:11185   */\n      dup3\n        /* \"#utility.yul\":11175:11190   */\n      add\n        /* \"#utility.yul\":11168:11196   */\n      mstore\n        /* \"#utility.yul\":10983:11203   */\n      pop\n      jump\t// out\n        /* \"#utility.yul\":11209:11575   */\n    tag_289:\n        /* \"#utility.yul\":11351:11354   */\n      0x00\n        /* \"#utility.yul\":11372:11439   */\n      tag_449\n        /* \"#utility.yul\":11436:11438   */\n      0x21\n        /* \"#utility.yul\":11431:11434   */\n      dup4\n        /* \"#utility.yul\":11372:11439   */\n      tag_266\n      jump\t// in\n    tag_449:\n        /* \"#utility.yul\":11365:11439   */\n      swap2\n      pop\n        /* \"#utility.yul\":11448:11541   */\n      tag_450\n        /* \"#utility.yul\":11537:11540   */\n      dup3\n        /* \"#utility.yul\":11448:11541   */\n      tag_288\n      jump\t// in\n    tag_450:\n        /* \"#utility.yul\":11566:11568   */\n      0x40\n        /* \"#utility.yul\":11561:11564   */\n      dup3\n        /* \"#utility.yul\":11557:11569   */\n      add\n        /* \"#utility.yul\":11550:11569   */\n      swap1\n      pop\n        /* \"#utility.yul\":11209:11575   */\n      swap2\n      swap1\n      pop\n      jump\t// out\n        /* \"#utility.yul\":11581:12000   */\n    tag_106:\n        /* \"#utility.yul\":11747:11751   */\n      0x00\n        /* \"#utility.yul\":11785:11787   */\n      0x20\n        /* \"#utility.yul\":11774:11783   */\n      dup3\n        /* \"#utility.yul\":11770:11788   */\n      add\n        /* \"#utility.yul\":11762:11788   */\n      swap1\n      pop\n        /* \"#utility.yul\":11834:11843   */\n      dup2\n        /* \"#utility.yul\":11828:11832   */\n      dup2\n        /* \"#utility.yul\":11824:11844   */\n      sub\n        /* \"#utility.yul\":11820:11821   */\n      0x00\n        /* \"#utility.yul\":11809:11818   */\n      dup4\n        /* \"#utility.yul\":11805:11822   */\n      add\n        /* \"#utility.yul\":11798:11845   */\n      mstore\n        /* \"#utility.yul\":11862:11993   */\n      tag_452\n        /* \"#utility.yul\":11988:11992   */\n      dup2\n        /* \"#utility.yul\":11862:11993   */\n      tag_289\n      jump\t// in\n    tag_452:\n        /* \"#utility.yul\":11854:11993   */\n      swap1\n      pop\n        /* \"#utility.yul\":11581:12000   */\n      swap2\n      swap1\n      pop\n      jump\t// out\n        /* \"#utility.yul\":12006:12255   */\n    tag_290:\n        /* \"#utility.yul\":12146:12180   */\n      0x4552433732313a20617070726f76652063616c6c6572206973206e6f7420746f\n        /* \"#utility.yul\":12142:12143   */\n      0x00\n        /* \"#utility.yul\":12134:12140   */\n      dup3\n        /* \"#utility.yul\":12130:12144   */\n      add\n        /* \"#utility.yul\":12123:12181   */\n      mstore\n        /* \"#utility.yul\":12215:12247   */\n      0x6b656e206f776e6572206e6f7220617070726f76656420666f7220616c6c0000\n        /* \"#utility.yul\":12210:12212   */\n      0x20\n        /* \"#utility.yul\":12202:12208   */\n      dup3\n        /* \"#utility.yul\":12198:12213   */\n      add\n        /* \"#utility.yul\":12191:12248   */\n      mstore\n        /* \"#utility.yul\":12006:12255   */\n      pop\n      jump\t// out\n        /* \"#utility.yul\":12261:12627   */\n    tag_291:\n        /* \"#utility.yul\":12403:12406   */\n      0x00\n        /* \"#utility.yul\":12424:12491   */\n      tag_455\n        /* \"#utility.yul\":12488:12490   */\n      0x3e\n        /* \"#utility.yul\":12483:12486   */\n      dup4\n        /* \"#utility.yul\":12424:12491   */\n      tag_266\n      jump\t// in\n    tag_455:\n        /* \"#utility.yul\":12417:12491   */\n      swap2\n      pop\n        /* \"#utility.yul\":12500:12593   */\n      tag_456\n        /* \"#utility.yul\":12589:12592   */\n      dup3\n        /* \"#utility.yul\":12500:12593   */\n      tag_290\n      jump\t// in\n    tag_456:\n        /* \"#utility.yul\":12618:12620   */\n      0x40\n        /* \"#utility.yul\":12613:12616   */\n      dup3\n        /* \"#utility.yul\":12609:12621   */\n      add\n        /* \"#utility.yul\":12602:12621   */\n      swap1\n      pop\n        /* \"#utility.yul\":12261:12627   */\n      swap2\n      swap1\n      pop\n      jump\t// out\n        /* \"#utility.yul\":12633:13052   */\n    tag_111:\n        /* \"#utility.yul\":12799:12803   */\n      0x00\n        /* \"#utility.yul\":12837:12839   */\n      0x20\n        /* \"#utility.yul\":12826:12835   */\n      dup3\n        /* \"#utility.yul\":12822:12840   */\n      add\n        /* \"#utility.yul\":12814:12840   */\n      swap1\n      pop\n        /* \"#utility.yul\":12886:12895   */\n      dup2\n        /* \"#utility.yul\":12880:12884   */\n      dup2\n        /* \"#utility.yul\":12876:12896   */\n      sub\n        /* \"#utility.yul\":12872:12873   */\n      0x00\n        /* \"#utility.yul\":12861:12870   */\n      dup4\n        /* \"#utility.yul\":12857:12874   */\n      add\n        /* \"#utility.yul\":12850:12897   */\n      mstore\n        /* \"#utility.yul\":12914:13045   */\n      tag_458\n        /* \"#utility.yul\":13040:13044   */\n      dup2\n        /* \"#utility.yul\":12914:13045   */\n      tag_291\n      jump\t// in\n    tag_458:\n        /* \"#utility.yul\":12906:13045   */\n      swap1\n      pop\n        /* \"#utility.yul\":12633:13052   */\n      swap2\n      swap1\n      pop\n      jump\t// out\n        /* \"#utility.yul\":13058:13291   */\n    tag_292:\n        /* \"#utility.yul\":13198:13232   */\n      0x4552433732313a2063616c6c6572206973206e6f7420746f6b656e206f776e65\n        /* \"#utility.yul\":13194:13195   */\n      0x00\n        /* \"#utility.yul\":13186:13192   */\n      dup3\n        /* \"#utility.yul\":13182:13196   */\n      add\n        /* \"#utility.yul\":13175:13233   */\n      mstore\n        /* \"#utility.yul\":13267:13283   */\n      0x72206e6f7220617070726f766564000000000000000000000000000000000000\n        /* \"#utility.yul\":13262:13264   */\n      0x20\n        /* \"#utility.yul\":13254:13260   */\n      dup3\n        /* \"#utility.yul\":13250:13265   */\n      add\n        /* \"#utility.yul\":13243:13284   */\n      mstore\n        /* \"#utility.yul\":13058:13291   */\n      pop\n      jump\t// out\n        /* \"#utility.yul\":13297:13663   */\n    tag_293:\n        /* \"#utility.yul\":13439:13442   */\n      0x00\n        /* \"#utility.yul\":13460:13527   */\n      tag_461\n        /* \"#utility.yul\":13524:13526   */\n      0x2e\n        /* \"#utility.yul\":13519:13522   */\n      dup4\n        /* \"#utility.yul\":13460:13527   */\n      tag_266\n      jump\t// in\n    tag_461:\n        /* \"#utility.yul\":13453:13527   */\n      swap2\n      pop\n        /* \"#utility.yul\":13536:13629   */\n      tag_462\n        /* \"#utility.yul\":13625:13628   */\n      dup3\n        /* \"#utility.yul\":13536:13629   */\n      tag_292\n      jump\t// in\n    tag_462:\n        /* \"#utility.yul\":13654:13656   */\n      0x40\n        /* \"#utility.yul\":13649:13652   */\n      dup3\n        /* \"#utility.yul\":13645:13657   */\n      add\n        /* \"#utility.yul\":13638:13657   */\n      swap1\n      pop\n        /* \"#utility.yul\":13297:13663   */\n      swap2\n      swap1\n      pop\n      jump\t// out\n        /* \"#utility.yul\":13669:14088   */\n    tag_119:\n        /* \"#utility.yul\":13835:13839   */\n      0x00\n        /* \"#utility.yul\":13873:13875   */\n      0x20\n        /* \"#utility.yul\":13862:13871   */\n      dup3\n        /* \"#utility.yul\":13858:13876   */\n      add\n        /* \"#utility.yul\":13850:13876   */\n      swap1\n      pop\n        /* \"#utility.yul\":13922:13931   */\n      dup2\n        /* \"#utility.yul\":13916:13920   */\n      dup2\n        /* \"#utility.yul\":13912:13932   */\n      sub\n        /* \"#utility.yul\":13908:13909   */\n      0x00\n        /* \"#utility.yul\":13897:13906   */\n      dup4\n        /* \"#utility.yul\":13893:13910   */\n      add\n        /* \"#utility.yul\":13886:13933   */\n      mstore\n        /* \"#utility.yul\":13950:14081   */\n      tag_464\n        /* \"#utility.yul\":14076:14080   */\n      dup2\n        /* \"#utility.yul\":13950:14081   */\n      tag_293\n      jump\t// in\n    tag_464:\n        /* \"#utility.yul\":13942:14081   */\n      swap1\n      pop\n        /* \"#utility.yul\":13669:14088   */\n      swap2\n      swap1\n      pop\n      jump\t// out\n        /* \"#utility.yul\":14094:14268   */\n    tag_294:\n        /* \"#utility.yul\":14234:14260   */\n      0x4552433732313a20696e76616c696420746f6b656e2049440000000000000000\n        /* \"#utility.yul\":14230:14231   */\n      0x00\n        /* \"#utility.yul\":14222:14228   */\n      dup3\n        /* \"#utility.yul\":14218:14232   */\n      add\n        /* \"#utility.yul\":14211:14261   */\n      mstore\n        /* \"#utility.yul\":14094:14268   */\n      pop\n      jump\t// out\n        /* \"#utility.yul\":14274:14640   */\n    tag_295:\n        /* \"#utility.yul\":14416:14419   */\n      0x00\n        /* \"#utility.yul\":14437:14504   */\n      tag_467\n        /* \"#utility.yul\":14501:14503   */\n      0x18\n        /* \"#utility.yul\":14496:14499   */\n      dup4\n        /* \"#utility.yul\":14437:14504   */\n      tag_266\n      jump\t// in\n    tag_467:\n        /* \"#utility.yul\":14430:14504   */\n      swap2\n      pop\n        /* \"#utility.yul\":14513:14606   */\n      tag_468\n        /* \"#utility.yul\":14602:14605   */\n      dup3\n        /* \"#utility.yul\":14513:14606   */\n      tag_294\n      jump\t// in\n    tag_468:\n        /* \"#utility.yul\":14631:14633   */\n      0x20\n        /* \"#utility.yul\":14626:14629   */\n      dup3\n        /* \"#utility.yul\":14622:14634   */\n      add\n        /* \"#utility.yul\":14615:14634   */\n      swap1\n      pop\n        /* \"#utility.yul\":14274:14640   */\n      swap2\n      swap1\n      pop\n      jump\t// out\n        /* \"#utility.yul\":14646:15065   */\n    tag_127:\n        /* \"#utility.yul\":14812:14816   */\n      0x00\n        /* \"#utility.yul\":14850:14852   */\n      0x20\n        /* \"#utility.yul\":14839:14848   */\n      dup3\n        /* \"#utility.yul\":14835:14853   */\n      add\n        /* \"#utility.yul\":14827:14853   */\n      swap1\n      pop\n        /* \"#utility.yul\":14899:14908   */\n      dup2\n        /* \"#utility.yul\":14893:14897   */\n      dup2\n        /* \"#utility.yul\":14889:14909   */\n      sub\n        /* \"#utility.yul\":14885:14886   */\n      0x00\n        /* \"#utility.yul\":14874:14883   */\n      dup4\n        /* \"#utility.yul\":14870:14887   */\n      add\n        /* \"#utility.yul\":14863:14910   */\n      mstore\n        /* \"#utility.yul\":14927:15058   */\n      tag_470\n        /* \"#utility.yul\":15053:15057   */\n      dup2\n        /* \"#utility.yul\":14927:15058   */\n      tag_295\n      jump\t// in\n    tag_470:\n        /* \"#utility.yul\":14919:15058   */\n      swap1\n      pop\n        /* \"#utility.yul\":14646:15065   */\n      swap2\n      swap1\n      pop\n      jump\t// out\n        /* \"#utility.yul\":15071:15299   */\n    tag_296:\n        /* \"#utility.yul\":15211:15245   */\n      0x4552433732313a2061646472657373207a65726f206973206e6f742061207661\n        /* \"#utility.yul\":15207:15208   */\n      0x00\n        /* \"#utility.yul\":15199:15205   */\n      dup3\n        /* \"#utility.yul\":15195:15209   */\n      add\n        /* \"#utility.yul\":15188:15246   */\n      mstore\n        /* \"#utility.yul\":15280:15291   */\n      0x6c6964206f776e65720000000000000000000000000000000000000000000000\n        /* \"#utility.yul\":15275:15277   */\n      0x20\n        /* \"#utility.yul\":15267:15273   */\n      dup3\n        /* \"#utility.yul\":15263:15278   */\n      add\n        /* \"#utility.yul\":15256:15292   */\n      mstore\n        /* \"#utility.yul\":15071:15299   */\n      pop\n      jump\t// out\n        /* \"#utility.yul\":15305:15671   */\n    tag_297:\n        /* \"#utility.yul\":15447:15450   */\n      0x00\n        /* \"#utility.yul\":15468:15535   */\n      tag_473\n        /* \"#utility.yul\":15532:15534   */\n      0x29\n        /* \"#utility.yul\":15527:15530   */\n      dup4\n        /* \"#utility.yul\":15468:15535   */\n      tag_266\n      jump\t// in\n    tag_473:\n        /* \"#utility.yul\":15461:15535   */\n      swap2\n      pop\n        /* \"#utility.yul\":15544:15637   */\n      tag_474\n        /* \"#utility.yul\":15633:15636   */\n      dup3\n        /* \"#utility.yul\":15544:15637   */\n      tag_296\n      jump\t// in\n    tag_474:\n        /* \"#utility.yul\":15662:15664   */\n      0x40\n        /* \"#utility.yul\":15657:15660   */\n      dup3\n        /* \"#utility.yul\":15653:15665   */\n      add\n        /* \"#utility.yul\":15646:15665   */\n      swap1\n      pop\n        /* \"#utility.yul\":15305:15671   */\n      swap2\n      swap1\n      pop\n      jump\t// out\n        /* \"#utility.yul\":15677:16096   */\n    tag_131:\n        /* \"#utility.yul\":15843:15847   */\n      0x00\n        /* \"#utility.yul\":15881:15883   */\n      0x20\n        /* \"#utility.yul\":15870:15879   */\n      dup3\n        /* \"#utility.yul\":15866:15884   */\n      add\n        /* \"#utility.yul\":15858:15884   */\n      swap1\n      pop\n        /* \"#utility.yul\":15930:15939   */\n      dup2\n        /* \"#utility.yul\":15924:15928   */\n      dup2\n        /* \"#utility.yul\":15920:15940   */\n      sub\n        /* \"#utility.yul\":15916:15917   */\n      0x00\n        /* \"#utility.yul\":15905:15914   */\n      dup4\n        /* \"#utility.yul\":15901:15918   */\n      add\n        /* \"#utility.yul\":15894:15941   */\n      mstore\n        /* \"#utility.yul\":15958:16089   */\n      tag_476\n        /* \"#utility.yul\":16084:16088   */\n      dup2\n        /* \"#utility.yul\":15958:16089   */\n      tag_297\n      jump\t// in\n    tag_476:\n        /* \"#utility.yul\":15950:16089   */\n      swap1\n      pop\n        /* \"#utility.yul\":15677:16096   */\n      swap2\n      swap1\n      pop\n      jump\t// out\n        /* \"#utility.yul\":16102:16282   */\n    tag_298:\n        /* \"#utility.yul\":16150:16227   */\n      0x4e487b7100000000000000000000000000000000000000000000000000000000\n        /* \"#utility.yul\":16147:16148   */\n      0x00\n        /* \"#utility.yul\":16140:16228   */\n      mstore\n        /* \"#utility.yul\":16247:16251   */\n      0x11\n        /* \"#utility.yul\":16244:16245   */\n      0x04\n        /* \"#utility.yul\":16237:16252   */\n      mstore\n        /* \"#utility.yul\":16271:16275   */\n      0x24\n        /* \"#utility.yul\":16268:16269   */\n      0x00\n        /* \"#utility.yul\":16261:16276   */\n      revert\n        /* \"#utility.yul\":16288:16479   */\n    tag_136:\n        /* \"#utility.yul\":16328:16331   */\n      0x00\n        /* \"#utility.yul\":16347:16367   */\n      tag_479\n        /* \"#utility.yul\":16365:16366   */\n      dup3\n        /* \"#utility.yul\":16347:16367   */\n      tag_263\n      jump\t// in\n    tag_479:\n        /* \"#utility.yul\":16342:16367   */\n      swap2\n      pop\n        /* \"#utility.yul\":16381:16401   */\n      tag_480\n        /* \"#utility.yul\":16399:16400   */\n      dup4\n        /* \"#utility.yul\":16381:16401   */\n      tag_263\n      jump\t// in\n    tag_480:\n        /* \"#utility.yul\":16376:16401   */\n      swap3\n      pop\n        /* \"#utility.yul\":16424:16425   */\n      dup3\n        /* \"#utility.yul\":16421:16422   */\n      dup3\n        /* \"#utility.yul\":16417:16426   */\n      add\n        /* \"#utility.yul\":16410:16426   */\n      swap1\n      pop\n        /* \"#utility.yul\":16445:16448   */\n      dup1\n        /* \"#utility.yul\":16442:16443   */\n      dup3\n        /* \"#utility.yul\":16439:16449   */\n      gt\n        /* \"#utility.yul\":16436:16472   */\n      iszero\n      tag_481\n      jumpi\n        /* \"#utility.yul\":16452:16470   */\n      tag_482\n      tag_298\n      jump\t// in\n    tag_482:\n        /* \"#utility.yul\":16436:16472   */\n    tag_481:\n        /* \"#utility.yul\":16288:16479   */\n      swap3\n      swap2\n      pop\n      pop\n      jump\t// out\n        /* \"#utility.yul\":16485:16699   */\n    tag_299:\n        /* \"#utility.yul\":16654:16688   */\n      0x68747470733a2f2f7777772e6c61626f722e6c616e642f70726f706f73616c2f\n        /* \"#utility.yul\":16649:16652   */\n      dup2\n        /* \"#utility.yul\":16642:16689   */\n      mstore\n        /* \"#utility.yul\":16485:16699   */\n      pop\n      jump\t// out\n        /* \"#utility.yul\":16709:16865   */\n    tag_300:\n        /* \"#utility.yul\":16811:16822   */\n      0x00\n        /* \"#utility.yul\":16852:16855   */\n      dup2\n        /* \"#utility.yul\":16837:16855   */\n      swap1\n      pop\n        /* \"#utility.yul\":16709:16865   */\n      swap3\n      swap2\n      pop\n      pop\n      jump\t// out\n        /* \"#utility.yul\":16875:17285   */\n    tag_301:\n        /* \"#utility.yul\":16981:16984   */\n      0x00\n        /* \"#utility.yul\":17013:17052   */\n      tag_486\n        /* \"#utility.yul\":17046:17051   */\n      dup3\n        /* \"#utility.yul\":17013:17052   */\n      tag_265\n      jump\t// in\n    tag_486:\n        /* \"#utility.yul\":17072:17161   */\n      tag_487\n        /* \"#utility.yul\":17154:17160   */\n      dup2\n        /* \"#utility.yul\":17149:17152   */\n      dup6\n        /* \"#utility.yul\":17072:17161   */\n      tag_300\n      jump\t// in\n    tag_487:\n        /* \"#utility.yul\":17065:17161   */\n      swap4\n      pop\n        /* \"#utility.yul\":17174:17239   */\n      tag_488\n        /* \"#utility.yul\":17232:17238   */\n      dup2\n        /* \"#utility.yul\":17227:17230   */\n      dup6\n        /* \"#utility.yul\":17220:17224   */\n      0x20\n        /* \"#utility.yul\":17213:17218   */\n      dup7\n        /* \"#utility.yul\":17209:17225   */\n      add\n        /* \"#utility.yul\":17174:17239   */\n      tag_267\n      jump\t// in\n    tag_488:\n        /* \"#utility.yul\":17268:17274   */\n      dup1\n        /* \"#utility.yul\":17263:17266   */\n      dup5\n        /* \"#utility.yul\":17259:17275   */\n      add\n        /* \"#utility.yul\":17252:17275   */\n      swap2\n      pop\n        /* \"#utility.yul\":16985:17285   */\n      pop\n        /* \"#utility.yul\":16875:17285   */\n      swap3\n      swap2\n      pop\n      pop\n      jump\t// out\n        /* \"#utility.yul\":17295:17857   */\n    tag_156:\n        /* \"#utility.yul\":17518:17521   */\n      0x00\n        /* \"#utility.yul\":17537:17675   */\n      tag_490\n        /* \"#utility.yul\":17671:17674   */\n      dup3\n        /* \"#utility.yul\":17537:17675   */\n      tag_299\n      jump\t// in\n    tag_490:\n        /* \"#utility.yul\":17704:17706   */\n      0x20\n        /* \"#utility.yul\":17699:17702   */\n      dup3\n        /* \"#utility.yul\":17695:17707   */\n      add\n        /* \"#utility.yul\":17688:17707   */\n      swap2\n      pop\n        /* \"#utility.yul\":17728:17823   */\n      tag_491\n        /* \"#utility.yul\":17819:17822   */\n      dup3\n        /* \"#utility.yul\":17810:17816   */\n      dup5\n        /* \"#utility.yul\":17728:17823   */\n      tag_301\n      jump\t// in\n    tag_491:\n        /* \"#utility.yul\":17721:17823   */\n      swap2\n      pop\n        /* \"#utility.yul\":17844:17847   */\n      dup2\n        /* \"#utility.yul\":17837:17847   */\n      swap1\n      pop\n        /* \"#utility.yul\":17295:17857   */\n      swap3\n      swap2\n      pop\n      pop\n      jump\t// out\n        /* \"#utility.yul\":17867:18103   */\n    tag_302:\n        /* \"#utility.yul\":18011:18045   */\n      0x4552433732313a207472616e736665722066726f6d20696e636f727265637420\n        /* \"#utility.yul\":18007:18008   */\n      0x00\n        /* \"#utility.yul\":17999:18005   */\n      dup3\n        /* \"#utility.yul\":17995:18009   */\n      add\n        /* \"#utility.yul\":17988:18046   */\n      mstore\n        /* \"#utility.yul\":18084:18091   */\n      0x6f776e6572000000000000000000000000000000000000000000000000000000\n        /* \"#utility.yul\":18079:18081   */\n      0x20\n        /* \"#utility.yul\":18071:18077   */\n      dup3\n        /* \"#utility.yul\":18067:18082   */\n      add\n        /* \"#utility.yul\":18060:18092   */\n      mstore\n        /* \"#utility.yul\":17867:18103   */\n      pop\n      jump\t// out\n        /* \"#utility.yul\":18113:18495   */\n    tag_303:\n        /* \"#utility.yul\":18255:18258   */\n      0x00\n        /* \"#utility.yul\":18280:18347   */\n      tag_494\n        /* \"#utility.yul\":18344:18346   */\n      0x25\n        /* \"#utility.yul\":18339:18342   */\n      dup4\n        /* \"#utility.yul\":18280:18347   */\n      tag_266\n      jump\t// in\n    tag_494:\n        /* \"#utility.yul\":18273:18347   */\n      swap2\n      pop\n        /* \"#utility.yul\":18360:18453   */\n      tag_495\n        /* \"#utility.yul\":18449:18452   */\n      dup3\n        /* \"#utility.yul\":18360:18453   */\n      tag_302\n      jump\t// in\n    tag_495:\n        /* \"#utility.yul\":18482:18484   */\n      0x40\n        /* \"#utility.yul\":18477:18480   */\n      dup3\n        /* \"#utility.yul\":18473:18485   */\n      add\n        /* \"#utility.yul\":18466:18485   */\n      swap1\n      pop\n        /* \"#utility.yul\":18113:18495   */\n      swap2\n      swap1\n      pop\n      jump\t// out\n        /* \"#utility.yul\":18505:18940   */\n    tag_176:\n        /* \"#utility.yul\":18671:18675   */\n      0x00\n        /* \"#utility.yul\":18713:18715   */\n      0x20\n        /* \"#utility.yul\":18702:18711   */\n      dup3\n        /* \"#utility.yul\":18698:18716   */\n      add\n        /* \"#utility.yul\":18690:18716   */\n      swap1\n      pop\n        /* \"#utility.yul\":18766:18775   */\n      dup2\n        /* \"#utility.yul\":18760:18764   */\n      dup2\n        /* \"#utility.yul\":18756:18776   */\n      sub\n        /* \"#utility.yul\":18752:18753   */\n      0x00\n        /* \"#utility.yul\":18741:18750   */\n      dup4\n        /* \"#utility.yul\":18737:18754   */\n      add\n        /* \"#utility.yul\":18730:18777   */\n      mstore\n        /* \"#utility.yul\":18798:18929   */\n      tag_497\n        /* \"#utility.yul\":18924:18928   */\n      dup2\n        /* \"#utility.yul\":18798:18929   */\n      tag_303\n      jump\t// in\n    tag_497:\n        /* \"#utility.yul\":18790:18929   */\n      swap1\n      pop\n        /* \"#utility.yul\":18505:18940   */\n      swap2\n      swap1\n      pop\n      jump\t// out\n        /* \"#utility.yul\":18950:19185   */\n    tag_304:\n        /* \"#utility.yul\":19094:19128   */\n      0x4552433732313a207472616e7366657220746f20746865207a65726f20616464\n        /* \"#utility.yul\":19090:19091   */\n      0x00\n        /* \"#utility.yul\":19082:19088   */\n      dup3\n        /* \"#utility.yul\":19078:19092   */\n      add\n        /* \"#utility.yul\":19071:19129   */\n      mstore\n        /* \"#utility.yul\":19167:19173   */\n      0x7265737300000000000000000000000000000000000000000000000000000000\n        /* \"#utility.yul\":19162:19164   */\n      0x20\n        /* \"#utility.yul\":19154:19160   */\n      dup3\n        /* \"#utility.yul\":19150:19165   */\n      add\n        /* \"#utility.yul\":19143:19174   */\n      mstore\n        /* \"#utility.yul\":18950:19185   */\n      pop\n      jump\t// out\n        /* \"#utility.yul\":19195:19577   */\n    tag_305:\n        /* \"#utility.yul\":19337:19340   */\n      0x00\n        /* \"#utility.yul\":19362:19429   */\n      tag_500\n        /* \"#utility.yul\":19426:19428   */\n      0x24\n        /* \"#utility.yul\":19421:19424   */\n      dup4\n        /* \"#utility.yul\":19362:19429   */\n      tag_266\n      jump\t// in\n    tag_500:\n        /* \"#utility.yul\":19355:19429   */\n      swap2\n      pop\n        /* \"#utility.yul\":19442:19535   */\n      tag_501\n        /* \"#utility.yul\":19531:19534   */\n      dup3\n        /* \"#utility.yul\":19442:19535   */\n      tag_304\n      jump\t// in\n    tag_501:\n        /* \"#utility.yul\":19564:19566   */\n      0x40\n        /* \"#utility.yul\":19559:19562   */\n      dup3\n        /* \"#utility.yul\":19555:19567   */\n      add\n        /* \"#utility.yul\":19548:19567   */\n      swap1\n      pop\n        /* \"#utility.yul\":19195:19577   */\n      swap2\n      swap1\n      pop\n      jump\t// out\n        /* \"#utility.yul\":19587:20022   */\n    tag_179:\n        /* \"#utility.yul\":19753:19757   */\n      0x00\n        /* \"#utility.yul\":19795:19797   */\n      0x20\n        /* \"#utility.yul\":19784:19793   */\n      dup3\n        /* \"#utility.yul\":19780:19798   */\n      add\n        /* \"#utility.yul\":19772:19798   */\n      swap1\n      pop\n        /* \"#utility.yul\":19848:19857   */\n      dup2\n        /* \"#utility.yul\":19842:19846   */\n      dup2\n        /* \"#utility.yul\":19838:19858   */\n      sub\n        /* \"#utility.yul\":19834:19835   */\n      0x00\n        /* \"#utility.yul\":19823:19832   */\n      dup4\n        /* \"#utility.yul\":19819:19836   */\n      add\n        /* \"#utility.yul\":19812:19859   */\n      mstore\n        /* \"#utility.yul\":19880:20011   */\n      tag_503\n        /* \"#utility.yul\":20006:20010   */\n      dup2\n        /* \"#utility.yul\":19880:20011   */\n      tag_305\n      jump\t// in\n    tag_503:\n        /* \"#utility.yul\":19872:20011   */\n      swap1\n      pop\n        /* \"#utility.yul\":19587:20022   */\n      swap2\n      swap1\n      pop\n      jump\t// out\n        /* \"#utility.yul\":20032:20246   */\n    tag_182:\n        /* \"#utility.yul\":20072:20076   */\n      0x00\n        /* \"#utility.yul\":20096:20116   */\n      tag_505\n        /* \"#utility.yul\":20114:20115   */\n      dup3\n        /* \"#utility.yul\":20096:20116   */\n      tag_263\n      jump\t// in\n    tag_505:\n        /* \"#utility.yul\":20091:20116   */\n      swap2\n      pop\n        /* \"#utility.yul\":20134:20154   */\n      tag_506\n        /* \"#utility.yul\":20152:20153   */\n      dup4\n        /* \"#utility.yul\":20134:20154   */\n      tag_263\n      jump\t// in\n    tag_506:\n        /* \"#utility.yul\":20129:20154   */\n      swap3\n      pop\n        /* \"#utility.yul\":20182:20183   */\n      dup3\n        /* \"#utility.yul\":20179:20180   */\n      dup3\n        /* \"#utility.yul\":20175:20184   */\n      sub\n        /* \"#utility.yul\":20167:20184   */\n      swap1\n      pop\n        /* \"#utility.yul\":20210:20211   */\n      dup2\n        /* \"#utility.yul\":20204:20208   */\n      dup2\n        /* \"#utility.yul\":20201:20212   */\n      gt\n        /* \"#utility.yul\":20198:20235   */\n      iszero\n      tag_507\n      jumpi\n        /* \"#utility.yul\":20215:20233   */\n      tag_508\n      tag_298\n      jump\t// in\n    tag_508:\n        /* \"#utility.yul\":20198:20235   */\n    tag_507:\n        /* \"#utility.yul\":20032:20246   */\n      swap3\n      swap2\n      pop\n      pop\n      jump\t// out\n        /* \"#utility.yul\":20256:20439   */\n    tag_306:\n        /* \"#utility.yul\":20400:20427   */\n      0x4552433732313a20617070726f766520746f2063616c6c657200000000000000\n        /* \"#utility.yul\":20396:20397   */\n      0x00\n        /* \"#utility.yul\":20388:20394   */\n      dup3\n        /* \"#utility.yul\":20384:20398   */\n      add\n        /* \"#utility.yul\":20377:20428   */\n      mstore\n        /* \"#utility.yul\":20256:20439   */\n      pop\n      jump\t// out\n        /* \"#utility.yul\":20449:20831   */\n    tag_307:\n        /* \"#utility.yul\":20591:20594   */\n      0x00\n        /* \"#utility.yul\":20616:20683   */\n      tag_511\n        /* \"#utility.yul\":20680:20682   */\n      0x19\n        /* \"#utility.yul\":20675:20678   */\n      dup4\n        /* \"#utility.yul\":20616:20683   */\n      tag_266\n      jump\t// in\n    tag_511:\n        /* \"#utility.yul\":20609:20683   */\n      swap2\n      pop\n        /* \"#utility.yul\":20696:20789   */\n      tag_512\n        /* \"#utility.yul\":20785:20788   */\n      dup3\n        /* \"#utility.yul\":20696:20789   */\n      tag_306\n      jump\t// in\n    tag_512:\n        /* \"#utility.yul\":20818:20820   */\n      0x20\n        /* \"#utility.yul\":20813:20816   */\n      dup3\n        /* \"#utility.yul\":20809:20821   */\n      add\n        /* \"#utility.yul\":20802:20821   */\n      swap1\n      pop\n        /* \"#utility.yul\":20449:20831   */\n      swap2\n      swap1\n      pop\n      jump\t// out\n        /* \"#utility.yul\":20841:21276   */\n    tag_190:\n        /* \"#utility.yul\":21007:21011   */\n      0x00\n        /* \"#utility.yul\":21049:21051   */\n      0x20\n        /* \"#utility.yul\":21038:21047   */\n      dup3\n        /* \"#utility.yul\":21034:21052   */\n      add\n        /* \"#utility.yul\":21026:21052   */\n      swap1\n      pop\n        /* \"#utility.yul\":21102:21111   */\n      dup2\n        /* \"#utility.yul\":21096:21100   */\n      dup2\n        /* \"#utility.yul\":21092:21112   */\n      sub\n        /* \"#utility.yul\":21088:21089   */\n      0x00\n        /* \"#utility.yul\":21077:21086   */\n      dup4\n        /* \"#utility.yul\":21073:21090   */\n      add\n        /* \"#utility.yul\":21066:21113   */\n      mstore\n        /* \"#utility.yul\":21134:21265   */\n      tag_514\n        /* \"#utility.yul\":21260:21264   */\n      dup2\n        /* \"#utility.yul\":21134:21265   */\n      tag_307\n      jump\t// in\n    tag_514:\n        /* \"#utility.yul\":21126:21265   */\n      swap1\n      pop\n        /* \"#utility.yul\":20841:21276   */\n      swap2\n      swap1\n      pop\n      jump\t// out\n        /* \"#utility.yul\":21286:21535   */\n    tag_308:\n        /* \"#utility.yul\":21430:21464   */\n      0x4552433732313a207472616e7366657220746f206e6f6e204552433732315265\n        /* \"#utility.yul\":21426:21427   */\n      0x00\n        /* \"#utility.yul\":21418:21424   */\n      dup3\n        /* \"#utility.yul\":21414:21428   */\n      add\n        /* \"#utility.yul\":21407:21465   */\n      mstore\n        /* \"#utility.yul\":21503:21523   */\n      0x63656976657220696d706c656d656e7465720000000000000000000000000000\n        /* \"#utility.yul\":21498:21500   */\n      0x20\n        /* \"#utility.yul\":21490:21496   */\n      dup3\n        /* \"#utility.yul\":21486:21501   */\n      add\n        /* \"#utility.yul\":21479:21524   */\n      mstore\n        /* \"#utility.yul\":21286:21535   */\n      pop\n      jump\t// out\n        /* \"#utility.yul\":21545:21927   */\n    tag_309:\n        /* \"#utility.yul\":21687:21690   */\n      0x00\n        /* \"#utility.yul\":21712:21779   */\n      tag_517\n        /* \"#utility.yul\":21776:21778   */\n      0x32\n        /* \"#utility.yul\":21771:21774   */\n      dup4\n        /* \"#utility.yul\":21712:21779   */\n      tag_266\n      jump\t// in\n    tag_517:\n        /* \"#utility.yul\":21705:21779   */\n      swap2\n      pop\n        /* \"#utility.yul\":21792:21885   */\n      tag_518\n        /* \"#utility.yul\":21881:21884   */\n      dup3\n        /* \"#utility.yul\":21792:21885   */\n      tag_308\n      jump\t// in\n    tag_518:\n        /* \"#utility.yul\":21914:21916   */\n      0x40\n        /* \"#utility.yul\":21909:21912   */\n      dup3\n        /* \"#utility.yul\":21905:21917   */\n      add\n        /* \"#utility.yul\":21898:21917   */\n      swap1\n      pop\n        /* \"#utility.yul\":21545:21927   */\n      swap2\n      swap1\n      pop\n      jump\t// out\n        /* \"#utility.yul\":21937:22372   */\n    tag_198:\n        /* \"#utility.yul\":22103:22107   */\n      0x00\n        /* \"#utility.yul\":22145:22147   */\n      0x20\n        /* \"#utility.yul\":22134:22143   */\n      dup3\n        /* \"#utility.yul\":22130:22148   */\n      add\n        /* \"#utility.yul\":22122:22148   */\n      swap1\n      pop\n        /* \"#utility.yul\":22198:22207   */\n      dup2\n        /* \"#utility.yul\":22192:22196   */\n      dup2\n        /* \"#utility.yul\":22188:22208   */\n      sub\n        /* \"#utility.yul\":22184:22185   */\n      0x00\n        /* \"#utility.yul\":22173:22182   */\n      dup4\n        /* \"#utility.yul\":22169:22186   */\n      add\n        /* \"#utility.yul\":22162:22209   */\n      mstore\n        /* \"#utility.yul\":22230:22361   */\n      tag_520\n        /* \"#utility.yul\":22356:22360   */\n      dup2\n        /* \"#utility.yul\":22230:22361   */\n      tag_309\n      jump\t// in\n    tag_520:\n        /* \"#utility.yul\":22222:22361   */\n      swap1\n      pop\n        /* \"#utility.yul\":21937:22372   */\n      swap2\n      swap1\n      pop\n      jump\t// out\n        /* \"#utility.yul\":22382:22631   */\n    tag_204:\n        /* \"#utility.yul\":22421:22424   */\n      0x00\n        /* \"#utility.yul\":22448:22472   */\n      tag_522\n        /* \"#utility.yul\":22466:22471   */\n      dup3\n        /* \"#utility.yul\":22448:22472   */\n      tag_263\n      jump\t// in\n    tag_522:\n        /* \"#utility.yul\":22439:22472   */\n      swap2\n      pop\n        /* \"#utility.yul\":22498:22564   */\n      0xffffffffffffffffffffffffffffffffffffffffffffffffffffffffffffffff\n        /* \"#utility.yul\":22491:22496   */\n      dup3\n        /* \"#utility.yul\":22488:22565   */\n      sub\n        /* \"#utility.yul\":22485:22588   */\n      tag_523\n      jumpi\n        /* \"#utility.yul\":22568:22586   */\n      tag_524\n      tag_298\n      jump\t// in\n    tag_524:\n        /* \"#utility.yul\":22485:22588   */\n    tag_523:\n        /* \"#utility.yul\":22619:22620   */\n      0x01\n        /* \"#utility.yul\":22612:22617   */\n      dup3\n        /* \"#utility.yul\":22608:22621   */\n      add\n        /* \"#utility.yul\":22601:22621   */\n      swap1\n      pop\n        /* \"#utility.yul\":22382:22631   */\n      swap2\n      swap1\n      pop\n      jump\t// out\n        /* \"#utility.yul\":22641:22837   */\n    tag_310:\n        /* \"#utility.yul\":22693:22770   */\n      0x4e487b7100000000000000000000000000000000000000000000000000000000\n        /* \"#utility.yul\":22690:22691   */\n      0x00\n        /* \"#utility.yul\":22683:22771   */\n      mstore\n        /* \"#utility.yul\":22794:22798   */\n      0x12\n        /* \"#utility.yul\":22791:22792   */\n      0x04\n        /* \"#utility.yul\":22784:22799   */\n      mstore\n        /* \"#utility.yul\":22822:22826   */\n      0x24\n        /* \"#utility.yul\":22819:22820   */\n      0x00\n        /* \"#utility.yul\":22812:22827   */\n      revert\n        /* \"#utility.yul\":22847:23052   */\n    tag_206:\n        /* \"#utility.yul\":22887:22888   */\n      0x00\n        /* \"#utility.yul\":22908:22928   */\n      tag_527\n        /* \"#utility.yul\":22926:22927   */\n      dup3\n        /* \"#utility.yul\":22908:22928   */\n      tag_263\n      jump\t// in\n    tag_527:\n        /* \"#utility.yul\":22903:22928   */\n      swap2\n      pop\n        /* \"#utility.yul\":22946:22966   */\n      tag_528\n        /* \"#utility.yul\":22964:22965   */\n      dup4\n        /* \"#utility.yul\":22946:22966   */\n      tag_263\n      jump\t// in\n    tag_528:\n        /* \"#utility.yul\":22941:22966   */\n      swap3\n      pop\n        /* \"#utility.yul\":22989:22990   */\n      dup3\n        /* \"#utility.yul\":22979:23014   */\n      tag_529\n      jumpi\n        /* \"#utility.yul\":22994:23012   */\n      tag_530\n      tag_310\n      jump\t// in\n    tag_530:\n        /* \"#utility.yul\":22979:23014   */\n    tag_529:\n        /* \"#utility.yul\":23040:23041   */\n      dup3\n        /* \"#utility.yul\":23037:23038   */\n      dup3\n        /* \"#utility.yul\":23033:23042   */\n      div\n        /* \"#utility.yul\":23028:23042   */\n      swap1\n      pop\n        /* \"#utility.yul\":22847:23052   */\n      swap3\n      swap2\n      pop\n      pop\n      jump\t// out\n        /* \"#utility.yul\":23062:23258   */\n    tag_215:\n        /* \"#utility.yul\":23094:23095   */\n      0x00\n        /* \"#utility.yul\":23115:23135   */\n      tag_532\n        /* \"#utility.yul\":23133:23134   */\n      dup3\n        /* \"#utility.yul\":23115:23135   */\n      tag_263\n      jump\t// in\n    tag_532:\n        /* \"#utility.yul\":23110:23135   */\n      swap2\n      pop\n        /* \"#utility.yul\":23153:23173   */\n      tag_533\n        /* \"#utility.yul\":23171:23172   */\n      dup4\n        /* \"#utility.yul\":23153:23173   */\n      tag_263\n      jump\t// in\n    tag_533:\n        /* \"#utility.yul\":23148:23173   */\n      swap3\n      pop\n        /* \"#utility.yul\":23196:23197   */\n      dup3\n        /* \"#utility.yul\":23186:23221   */\n      tag_534\n      jumpi\n        /* \"#utility.yul\":23201:23219   */\n      tag_535\n      tag_310\n      jump\t// in\n    tag_535:\n        /* \"#utility.yul\":23186:23221   */\n    tag_534:\n        /* \"#utility.yul\":23246:23247   */\n      dup3\n        /* \"#utility.yul\":23243:23244   */\n      dup3\n        /* \"#utility.yul\":23239:23248   */\n      mod\n        /* \"#utility.yul\":23234:23248   */\n      swap1\n      pop\n        /* \"#utility.yul\":23062:23258   */\n      swap3\n      swap2\n      pop\n      pop\n      jump\t// out\n        /* \"#utility.yul\":23268:23464   */\n    tag_219:\n        /* \"#utility.yul\":23320:23397   */\n      0x4e487b7100000000000000000000000000000000000000000000000000000000\n        /* \"#utility.yul\":23317:23318   */\n      0x00\n        /* \"#utility.yul\":23310:23398   */\n      mstore\n        /* \"#utility.yul\":23421:23425   */\n      0x32\n        /* \"#utility.yul\":23418:23419   */\n      0x04\n        /* \"#utility.yul\":23411:23426   */\n      mstore\n        /* \"#utility.yul\":23449:23453   */\n      0x24\n        /* \"#utility.yul\":23446:23447   */\n      0x00\n        /* \"#utility.yul\":23439:23454   */\n      revert\n        /* \"#utility.yul\":23474:23580   */\n    tag_311:\n        /* \"#utility.yul\":23525:23531   */\n      0x00\n        /* \"#utility.yul\":23563:23568   */\n      dup2\n        /* \"#utility.yul\":23557:23569   */\n      mload\n        /* \"#utility.yul\":23547:23569   */\n      swap1\n      pop\n        /* \"#utility.yul\":23474:23580   */\n      swap2\n      swap1\n      pop\n      jump\t// out\n        /* \"#utility.yul\":23590:23770   */\n    tag_312:\n        /* \"#utility.yul\":23673:23684   */\n      0x00\n        /* \"#utility.yul\":23711:23717   */\n      dup3\n        /* \"#utility.yul\":23706:23709   */\n      dup3\n        /* \"#utility.yul\":23699:23718   */\n      mstore\n        /* \"#utility.yul\":23755:23759   */\n      0x20\n        /* \"#utility.yul\":23750:23753   */\n      dup3\n        /* \"#utility.yul\":23746:23760   */\n      add\n        /* \"#utility.yul\":23731:23760   */\n      swap1\n      pop\n        /* \"#utility.yul\":23590:23770   */\n      swap3\n      swap2\n      pop\n      pop\n      jump\t// out\n        /* \"#utility.yul\":23780:24173   */\n    tag_313:\n        /* \"#utility.yul\":23866:23869   */\n      0x00\n        /* \"#utility.yul\":23898:23936   */\n      tag_540\n        /* \"#utility.yul\":23930:23935   */\n      dup3\n        /* \"#utility.yul\":23898:23936   */\n      tag_311\n      jump\t// in\n    tag_540:\n        /* \"#utility.yul\":23956:24026   */\n      tag_541\n        /* \"#utility.yul\":24019:24025   */\n      dup2\n        /* \"#utility.yul\":24014:24017   */\n      dup6\n        /* \"#utility.yul\":23956:24026   */\n      tag_312\n      jump\t// in\n    tag_541:\n        /* \"#utility.yul\":23949:24026   */\n      swap4\n      pop\n        /* \"#utility.yul\":24039:24104   */\n      tag_542\n        /* \"#utility.yul\":24097:24103   */\n      dup2\n        /* \"#utility.yul\":24092:24095   */\n      dup6\n        /* \"#utility.yul\":24085:24089   */\n      0x20\n        /* \"#utility.yul\":24078:24083   */\n      dup7\n        /* \"#utility.yul\":24074:24090   */\n      add\n        /* \"#utility.yul\":24039:24104   */\n      tag_267\n      jump\t// in\n    tag_542:\n        /* \"#utility.yul\":24133:24162   */\n      tag_543\n        /* \"#utility.yul\":24155:24161   */\n      dup2\n        /* \"#utility.yul\":24133:24162   */\n      tag_268\n      jump\t// in\n    tag_543:\n        /* \"#utility.yul\":24128:24131   */\n      dup5\n        /* \"#utility.yul\":24124:24163   */\n      add\n        /* \"#utility.yul\":24117:24163   */\n      swap2\n      pop\n        /* \"#utility.yul\":23870:24173   */\n      pop\n        /* \"#utility.yul\":23780:24173   */\n      swap3\n      swap2\n      pop\n      pop\n      jump\t// out\n        /* \"#utility.yul\":24183:24851   */\n    tag_231:\n        /* \"#utility.yul\":24378:24382   */\n      0x00\n        /* \"#utility.yul\":24420:24423   */\n      0x80\n        /* \"#utility.yul\":24409:24418   */\n      dup3\n        /* \"#utility.yul\":24405:24424   */\n      add\n        /* \"#utility.yul\":24397:24424   */\n      swap1\n      pop\n        /* \"#utility.yul\":24438:24509   */\n      tag_545\n        /* \"#utility.yul\":24506:24507   */\n      0x00\n        /* \"#utility.yul\":24495:24504   */\n      dup4\n        /* \"#utility.yul\":24491:24508   */\n      add\n        /* \"#utility.yul\":24482:24488   */\n      dup8\n        /* \"#utility.yul\":24438:24509   */\n      tag_274\n      jump\t// in\n    tag_545:\n        /* \"#utility.yul\":24523:24595   */\n      tag_546\n        /* \"#utility.yul\":24591:24593   */\n      0x20\n        /* \"#utility.yul\":24580:24589   */\n      dup4\n        /* \"#utility.yul\":24576:24594   */\n      add\n        /* \"#utility.yul\":24567:24573   */\n      dup7\n        /* \"#utility.yul\":24523:24595   */\n      tag_274\n      jump\t// in\n    tag_546:\n        /* \"#utility.yul\":24609:24681   */\n      tag_547\n        /* \"#utility.yul\":24677:24679   */\n      0x40\n        /* \"#utility.yul\":24666:24675   */\n      dup4\n        /* \"#utility.yul\":24662:24680   */\n      add\n        /* \"#utility.yul\":24653:24659   */\n      dup6\n        /* \"#utility.yul\":24609:24681   */\n      tag_264\n      jump\t// in\n    tag_547:\n        /* \"#utility.yul\":24732:24741   */\n      dup2\n        /* \"#utility.yul\":24726:24730   */\n      dup2\n        /* \"#utility.yul\":24722:24742   */\n      sub\n        /* \"#utility.yul\":24717:24719   */\n      0x60\n        /* \"#utility.yul\":24706:24715   */\n      dup4\n        /* \"#utility.yul\":24702:24720   */\n      add\n        /* \"#utility.yul\":24695:24743   */\n      mstore\n        /* \"#utility.yul\":24764:24840   */\n      tag_548\n        /* \"#utility.yul\":24835:24839   */\n      dup2\n        /* \"#utility.yul\":24826:24832   */\n      dup5\n        /* \"#utility.yul\":24764:24840   */\n      tag_313\n      jump\t// in\n    tag_548:\n        /* \"#utility.yul\":24756:24840   */\n      swap1\n      pop\n        /* \"#utility.yul\":24183:24851   */\n      swap6\n      swap5\n      pop\n      pop\n      pop\n      pop\n      pop\n      jump\t// out\n        /* \"#utility.yul\":24861:25014   */\n    tag_314:\n        /* \"#utility.yul\":24917:24922   */\n      0x00\n        /* \"#utility.yul\":24952:24958   */\n      dup2\n        /* \"#utility.yul\":24946:24959   */\n      mload\n        /* \"#utility.yul\":24937:24959   */\n      swap1\n      pop\n        /* \"#utility.yul\":24972:25004   */\n      tag_550\n        /* \"#utility.yul\":24998:25003   */\n      dup2\n        /* \"#utility.yul\":24972:25004   */\n      tag_259\n      jump\t// in\n    tag_550:\n        /* \"#utility.yul\":24861:25014   */\n      swap3\n      swap2\n      pop\n      pop\n      jump\t// out\n        /* \"#utility.yul\":25024:25397   */\n    tag_234:\n        /* \"#utility.yul\":25093:25099   */\n      0x00\n        /* \"#utility.yul\":25146:25148   */\n      0x20\n        /* \"#utility.yul\":25134:25143   */\n      dup3\n        /* \"#utility.yul\":25125:25132   */\n      dup5\n        /* \"#utility.yul\":25121:25144   */\n      sub\n        /* \"#utility.yul\":25117:25149   */\n      slt\n        /* \"#utility.yul\":25114:25233   */\n      iszero\n      tag_552\n      jumpi\n        /* \"#utility.yul\":25152:25231   */\n      tag_553\n      tag_256\n      jump\t// in\n    tag_553:\n        /* \"#utility.yul\":25114:25233   */\n    tag_552:\n        /* \"#utility.yul\":25280:25281   */\n      0x00\n        /* \"#utility.yul\":25309:25372   */\n      tag_554\n        /* \"#utility.yul\":25364:25371   */\n      dup5\n        /* \"#utility.yul\":25355:25361   */\n      dup3\n        /* \"#utility.yul\":25344:25353   */\n      dup6\n        /* \"#utility.yul\":25340:25362   */\n      add\n        /* \"#utility.yul\":25309:25372   */\n      tag_314\n      jump\t// in\n    tag_554:\n        /* \"#utility.yul\":25299:25372   */\n      swap2\n      pop\n        /* \"#utility.yul\":25247:25386   */\n      pop\n        /* \"#utility.yul\":25024:25397   */\n      swap3\n      swap2\n      pop\n      pop\n      jump\t// out\n        /* \"#utility.yul\":25407:25597   */\n    tag_315:\n        /* \"#utility.yul\":25551:25585   */\n      0x4552433732313a206d696e7420746f20746865207a65726f2061646472657373\n        /* \"#utility.yul\":25547:25548   */\n      0x00\n        /* \"#utility.yul\":25539:25545   */\n      dup3\n        /* \"#utility.yul\":25535:25549   */\n      add\n        /* \"#utility.yul\":25528:25586   */\n      mstore\n        /* \"#utility.yul\":25407:25597   */\n      pop\n      jump\t// out\n        /* \"#utility.yul\":25607:25989   */\n    tag_316:\n        /* \"#utility.yul\":25749:25752   */\n      0x00\n        /* \"#utility.yul\":25774:25841   */\n      tag_557\n        /* \"#utility.yul\":25838:25840   */\n      0x20\n        /* \"#utility.yul\":25833:25836   */\n      dup4\n        /* \"#utility.yul\":25774:25841   */\n      tag_266\n      jump\t// in\n    tag_557:\n        /* \"#utility.yul\":25767:25841   */\n      swap2\n      pop\n        /* \"#utility.yul\":25854:25947   */\n      tag_558\n        /* \"#utility.yul\":25943:25946   */\n      dup3\n        /* \"#utility.yul\":25854:25947   */\n      tag_315\n      jump\t// in\n    tag_558:\n        /* \"#utility.yul\":25976:25978   */\n      0x20\n        /* \"#utility.yul\":25971:25974   */\n      dup3\n        /* \"#utility.yul\":25967:25979   */\n      add\n        /* \"#utility.yul\":25960:25979   */\n      swap1\n      pop\n        /* \"#utility.yul\":25607:25989   */\n      swap2\n      swap1\n      pop\n      jump\t// out\n        /* \"#utility.yul\":25999:26434   */\n    tag_249:\n        /* \"#utility.yul\":26165:26169   */\n      0x00\n        /* \"#utility.yul\":26207:26209   */\n      0x20\n        /* \"#utility.yul\":26196:26205   */\n      dup3\n        /* \"#utility.yul\":26192:26210   */\n      add\n        /* \"#utility.yul\":26184:26210   */\n      swap1\n      pop\n        /* \"#utility.yul\":26260:26269   */\n      dup2\n        /* \"#utility.yul\":26254:26258   */\n      dup2\n        /* \"#utility.yul\":26250:26270   */\n      sub\n        /* \"#utility.yul\":26246:26247   */\n      0x00\n        /* \"#utility.yul\":26235:26244   */\n      dup4\n        /* \"#utility.yul\":26231:26248   */\n      add\n        /* \"#utility.yul\":26224:26271   */\n      mstore\n        /* \"#utility.yul\":26292:26423   */\n      tag_560\n        /* \"#utility.yul\":26418:26422   */\n      dup2\n        /* \"#utility.yul\":26292:26423   */\n      tag_316\n      jump\t// in\n    tag_560:\n        /* \"#utility.yul\":26284:26423   */\n      swap1\n      pop\n        /* \"#utility.yul\":25999:26434   */\n      swap2\n      swap1\n      pop\n      jump\t// out\n        /* \"#utility.yul\":26444:26630   */\n    tag_317:\n        /* \"#utility.yul\":26588:26618   */\n      0x4552433732313a20746f6b656e20616c7265616479206d696e74656400000000\n        /* \"#utility.yul\":26584:26585   */\n      0x00\n        /* \"#utility.yul\":26576:26582   */\n      dup3\n        /* \"#utility.yul\":26572:26586   */\n      add\n        /* \"#utility.yul\":26565:26619   */\n      mstore\n        /* \"#utility.yul\":26444:26630   */\n      pop\n      jump\t// out\n        /* \"#utility.yul\":26640:27022   */\n    tag_318:\n        /* \"#utility.yul\":26782:26785   */\n      0x00\n        /* \"#utility.yul\":26807:26874   */\n      tag_563\n        /* \"#utility.yul\":26871:26873   */\n      0x1c\n        /* \"#utility.yul\":26866:26869   */\n      dup4\n        /* \"#utility.yul\":26807:26874   */\n      tag_266\n      jump\t// in\n    tag_563:\n        /* \"#utility.yul\":26800:26874   */\n      swap2\n      pop\n        /* \"#utility.yul\":26887:26980   */\n      tag_564\n        /* \"#utility.yul\":26976:26979   */\n      dup3\n        /* \"#utility.yul\":26887:26980   */\n      tag_317\n      jump\t// in\n    tag_564:\n        /* \"#utility.yul\":27009:27011   */\n      0x20\n        /* \"#utility.yul\":27004:27007   */\n      dup3\n        /* \"#utility.yul\":27000:27012   */\n      add\n        /* \"#utility.yul\":26993:27012   */\n      swap1\n      pop\n        /* \"#utility.yul\":26640:27022   */\n      swap2\n      swap1\n      pop\n      jump\t// out\n        /* \"#utility.yul\":27032:27467   */\n    tag_253:\n        /* \"#utility.yul\":27198:27202   */\n      0x00\n        /* \"#utility.yul\":27240:27242   */\n      0x20\n        /* \"#utility.yul\":27229:27238   */\n      dup3\n        /* \"#utility.yul\":27225:27243   */\n      add\n        /* \"#utility.yul\":27217:27243   */\n      swap1\n      pop\n        /* \"#utility.yul\":27293:27302   */\n      dup2\n        /* \"#utility.yul\":27287:27291   */\n      dup2\n        /* \"#utility.yul\":27283:27303   */\n      sub\n        /* \"#utility.yul\":27279:27280   */\n      0x00\n        /* \"#utility.yul\":27268:27277   */\n      dup4\n        /* \"#utility.yul\":27264:27281   */\n      add\n        /* \"#utility.yul\":27257:27304   */\n      mstore\n        /* \"#utility.yul\":27325:27456   */\n      tag_566\n        /* \"#utility.yul\":27451:27455   */\n      dup2\n        /* \"#utility.yul\":27325:27456   */\n      tag_318\n      jump\t// in\n    tag_566:\n        /* \"#utility.yul\":27317:27456   */\n      swap1\n      pop\n        /* \"#utility.yul\":27032:27467   */\n      swap2\n      swap1\n      pop\n      jump\t// out\n\n    auxdata: 0xa2646970667358221220da1cbcefa0e760f98a6a1bb63d3bdffceb9b04f0d8f009a5d01d73a742ef9dbe64736f6c63430008110033\n}\n","bytecode":{"linkReferences":{},"object":"60806040526040518060400160405280600881526020017f50726f706f73616c000000000000000000000000000000000000000000000000815250600090816200004a91906200038c565b506040518060400160405280600381526020017f50524f0000000000000000000000000000000000000000000000000000000000815250600190816200009191906200038c565b506000600655348015620000a457600080fd5b50604051620029c3380380620029c38339818101604052810190620000ca9190620004dd565b80600760006101000a81548173ffffffffffffffffffffffffffffffffffffffff021916908373ffffffffffffffffffffffffffffffffffffffff160217905550506200050f565b600081519050919050565b7f4e487b7100000000000000000000000000000000000000000000000000000000600052604160045260246000fd5b7f4e487b7100000000000000000000000000000000000000000000000000000000600052602260045260246000fd5b600060028204905060018216806200019457607f821691505b602082108103620001aa57620001a96200014c565b5b50919050565b60008190508160005260206000209050919050565b60006020601f8301049050919050565b600082821b905092915050565b600060088302620002147fffffffffffffffffffffffffffffffffffffffffffffffffffffffffffffffff82620001d5565b620002208683620001d5565b95508019841693508086168417925050509392505050565b6000819050919050565b6000819050919050565b60006200026d62000267620002618462000238565b62000242565b62000238565b9050919050565b6000819050919050565b62000289836200024c565b620002a1620002988262000274565b848454620001e2565b825550505050565b600090565b620002b8620002a9565b620002c58184846200027e565b505050565b5b81811015620002ed57620002e1600082620002ae565b600181019050620002cb565b5050565b601f8211156200033c576200030681620001b0565b6200031184620001c5565b8101602085101562000321578190505b620003396200033085620001c5565b830182620002ca565b50505b505050565b600082821c905092915050565b6000620003616000198460080262000341565b1980831691505092915050565b60006200037c83836200034e565b9150826002028217905092915050565b620003978262000112565b67ffffffffffffffff811115620003b357620003b26200011d565b5b620003bf82546200017b565b620003cc828285620002f1565b600060209050601f831160018114620004045760008415620003ef578287015190505b620003fb85826200036e565b8655506200046b565b601f1984166200041486620001b0565b60005b828110156200043e5784890151825560018201915060208501945060208101905062000417565b868310156200045e57848901516200045a601f8916826200034e565b8355505b6001600288020188555050505b505050505050565b600080fd5b600073ffffffffffffffffffffffffffffffffffffffff82169050919050565b6000620004a58262000478565b9050919050565b620004b78162000498565b8114620004c357600080fd5b50565b600081519050620004d781620004ac565b92915050565b600060208284031215620004f657620004f562000473565b5b60006200050684828501620004c6565b91505092915050565b6124a4806200051f6000396000f3fe608060405234801561001057600080fd5b50600436106101005760003560e01c806370a0823111610097578063a22cb46511610066578063a22cb465146102ad578063b88d4fde146102c9578063c87b56dd146102e5578063e985e9c51461031557610100565b806370a0823114610225578063755edd17146102555780637c2c25ae1461027157806395d89b411461028f57610100565b8063095ea7b3116100d3578063095ea7b3146101a157806323b872dd146101bd57806342842e0e146101d95780636352211e146101f557610100565b806301ffc9a71461010557806306661abd1461013557806306fdde0314610153578063081812fc14610171575b600080fd5b61011f600480360381019061011a9190611608565b610345565b60405161012c9190611650565b60405180910390f35b61013d610427565b60405161014a9190611684565b60405180910390f35b61015b61042d565b604051610168919061172f565b60405180910390f35b61018b6004803603810190610186919061177d565b6104bb565b60405161019891906117eb565b60405180910390f35b6101bb60048036038101906101b69190611832565b610501565b005b6101d760048036038101906101d29190611872565b61060a565b005b6101f360048036038101906101ee9190611872565b610663565b005b61020f600480360381019061020a919061177d565b610683565b60405161021c91906117eb565b60405180910390f35b61023f600480360381019061023a91906118c5565b610734565b60405161024c9190611684565b60405180910390f35b61026f600480360381019061026a91906118c5565b6107eb565b005b610279610814565b60405161028691906117eb565b60405180910390f35b61029761083a565b6040516102a4919061172f565b60405180910390f35b6102c760048036038101906102c2919061191e565b6108c8565b005b6102e360048036038101906102de9190611a93565b6108d7565b005b6102ff60048036038101906102fa919061177d565b610932565b60405161030c919061172f565b60405180910390f35b61032f600480360381019061032a9190611b16565b61096c565b60405161033c9190611650565b60405180910390f35b60007f80ac58cd000000000000000000000000000000000000000000000000000000007bffffffffffffffffffffffffffffffffffffffffffffffffffffffff1916827bffffffffffffffffffffffffffffffffffffffffffffffffffffffff1916148061041057507f5b5e139f000000000000000000000000000000000000000000000000000000007bffffffffffffffffffffffffffffffffffffffffffffffffffffffff1916827bffffffffffffffffffffffffffffffffffffffffffffffffffffffff1916145b80610420575061041f82610a00565b5b9050919050565b60065481565b6000805461043a90611b85565b80601f016020809104026020016040519081016040528092919081815260200182805461046690611b85565b80156104b35780601f10610488576101008083540402835291602001916104b3565b820191906000526020600020905b81548152906001019060200180831161049657829003601f168201915b505050505081565b60006104c682610a6a565b6004600083815260200190815260200160002060009054906101000a900473ffffffffffffffffffffffffffffffffffffffff169050919050565b600061050c82610683565b90508073ffffffffffffffffffffffffffffffffffffffff168373ffffffffffffffffffffffffffffffffffffffff160361057c576040517f08c379a000000000000000000000000000000000000000000000000000000000815260040161057390611c28565b60405180910390fd5b8073ffffffffffffffffffffffffffffffffffffffff163373ffffffffffffffffffffffffffffffffffffffff1614806105bc57506105bb813361096c565b5b6105fb576040517f08c379a00000000000000000000000000000000000000000000000000000000081526004016105f290611cba565b60405180910390fd5b6106058383610ab5565b505050565b6106143382610b6e565b610653576040517f08c379a000000000000000000000000000000000000000000000000000000000815260040161064a90611d4c565b60405180910390fd5b61065e838383610c03565b505050565b61067e838383604051806020016040528060008152506108d7565b505050565b6000806002600084815260200190815260200160002060009054906101000a900473ffffffffffffffffffffffffffffffffffffffff169050600073ffffffffffffffffffffffffffffffffffffffff168173ffffffffffffffffffffffffffffffffffffffff160361072b576040517f08c379a000000000000000000000000000000000000000000000000000000000815260040161072290611db8565b60405180910390fd5b80915050919050565b60008073ffffffffffffffffffffffffffffffffffffffff168273ffffffffffffffffffffffffffffffffffffffff16036107a4576040517f08c379a000000000000000000000000000000000000000000000000000000000815260040161079b90611e4a565b60405180910390fd5b600360008373ffffffffffffffffffffffffffffffffffffffff1673ffffffffffffffffffffffffffffffffffffffff168152602001908152602001600020549050919050565b6107f781600654610e53565b60016006600082825461080a9190611e99565b9250508190555050565b600760009054906101000a900473ffffffffffffffffffffffffffffffffffffffff1681565b6001805461084790611b85565b80601f016020809104026020016040519081016040528092919081815260200182805461087390611b85565b80156108c05780601f10610895576101008083540402835291602001916108c0565b820191906000526020600020905b8154815290600101906020018083116108a357829003601f168201915b505050505081565b6108d3338383610e71565b5050565b6108e13383610b6e565b610920576040517f08c379a000000000000000000000000000000000000000000000000000000000815260040161091790611d4c565b60405180910390fd5b61092c84848484610fdd565b50505050565b606061093d82610a6a565b61094682611039565b6040516020016109569190611f2f565b6040516020818303038152906040529050919050565b6000600560008473ffffffffffffffffffffffffffffffffffffffff1673ffffffffffffffffffffffffffffffffffffffff16815260200190815260200160002060008373ffffffffffffffffffffffffffffffffffffffff1673ffffffffffffffffffffffffffffffffffffffff16815260200190815260200160002060009054906101000a900460ff16905092915050565b60007f01ffc9a7000000000000000000000000000000000000000000000000000000007bffffffffffffffffffffffffffffffffffffffffffffffffffffffff1916827bffffffffffffffffffffffffffffffffffffffffffffffffffffffff1916149050919050565b610a7381611199565b610ab2576040517f08c379a0000000000000000000000000000000000000000000000000000000008152600401610aa990611db8565b60405180910390fd5b50565b816004600083815260200190815260200160002060006101000a81548173ffffffffffffffffffffffffffffffffffffffff021916908373ffffffffffffffffffffffffffffffffffffffff160217905550808273ffffffffffffffffffffffffffffffffffffffff16610b2883610683565b73ffffffffffffffffffffffffffffffffffffffff167f8c5be1e5ebec7d5bd14f71427d1e84f3dd0314c0f7b2291e5b200ac8c7c3b92560405160405180910390a45050565b600080610b7a83610683565b90508073ffffffffffffffffffffffffffffffffffffffff168473ffffffffffffffffffffffffffffffffffffffff161480610bbc5750610bbb818561096c565b5b80610bfa57508373ffffffffffffffffffffffffffffffffffffffff16610be2846104bb565b73ffffffffffffffffffffffffffffffffffffffff16145b91505092915050565b8273ffffffffffffffffffffffffffffffffffffffff16610c2382610683565b73ffffffffffffffffffffffffffffffffffffffff1614610c79576040517f08c379a0000000000000000000000000000000000000000000000000000000008152600401610c7090611fc7565b60405180910390fd5b600073ffffffffffffffffffffffffffffffffffffffff168273ffffffffffffffffffffffffffffffffffffffff1603610ce8576040517f08c379a0000000000000000000000000000000000000000000000000000000008152600401610cdf90612059565b60405180910390fd5b610cf3600082610ab5565b6001600360008573ffffffffffffffffffffffffffffffffffffffff1673ffffffffffffffffffffffffffffffffffffffff1681526020019081526020016000206000828254610d439190612079565b925050819055506001600360008473ffffffffffffffffffffffffffffffffffffffff1673ffffffffffffffffffffffffffffffffffffffff1681526020019081526020016000206000828254610d9a9190611e99565b92505081905550816002600083815260200190815260200160002060006101000a81548173ffffffffffffffffffffffffffffffffffffffff021916908373ffffffffffffffffffffffffffffffffffffffff160217905550808273ffffffffffffffffffffffffffffffffffffffff168473ffffffffffffffffffffffffffffffffffffffff167fddf252ad1be2c89b69c2b068fc378daa952ba7f163c4a11628f55a4df523b3ef60405160405180910390a4505050565b610e6d828260405180602001604052806000815250611205565b5050565b8173ffffffffffffffffffffffffffffffffffffffff168373ffffffffffffffffffffffffffffffffffffffff1603610edf576040517f08c379a0000000000000000000000000000000000000000000000000000000008152600401610ed6906120f9565b60405180910390fd5b80600560008573ffffffffffffffffffffffffffffffffffffffff1673ffffffffffffffffffffffffffffffffffffffff16815260200190815260200160002060008473ffffffffffffffffffffffffffffffffffffffff1673ffffffffffffffffffffffffffffffffffffffff16815260200190815260200160002060006101000a81548160ff0219169083151502179055508173ffffffffffffffffffffffffffffffffffffffff168373ffffffffffffffffffffffffffffffffffffffff167f17307eab39ab6107e8899845ad3d59bd9653f200f220920489ca2b5937696c3183604051610fd09190611650565b60405180910390a3505050565b610fe8848484610c03565b610ff484848484611260565b611033576040517f08c379a000000000000000000000000000000000000000000000000000000000815260040161102a9061218b565b60405180910390fd5b50505050565b606060008203611080576040518060400160405280600181526020017f30000000000000000000000000000000000000000000000000000000000000008152509050611194565b600082905060005b600082146110b257808061109b906121ab565b915050600a826110ab9190612222565b9150611088565b60008167ffffffffffffffff8111156110ce576110cd611968565b5b6040519080825280601f01601f1916602001820160405280156111005781602001600182028036833780820191505090505b5090505b6000851461118d576001826111199190612079565b9150600a856111289190612253565b60306111349190611e99565b60f81b81838151811061114a57611149612284565b5b60200101907effffffffffffffffffffffffffffffffffffffffffffffffffffffffffffff1916908160001a905350600a856111869190612222565b9450611104565b8093505050505b919050565b60008073ffffffffffffffffffffffffffffffffffffffff166002600084815260200190815260200160002060009054906101000a900473ffffffffffffffffffffffffffffffffffffffff1673ffffffffffffffffffffffffffffffffffffffff1614159050919050565b61120f83836113db565b61121c6000848484611260565b61125b576040517f08c379a00000000000000000000000000000000000000000000000000000000081526004016112529061218b565b60405180910390fd5b505050565b6000808473ffffffffffffffffffffffffffffffffffffffff163b11156113ce578373ffffffffffffffffffffffffffffffffffffffff1663150b7a02338786866040518563ffffffff1660e01b81526004016112c09493929190612308565b6020604051808303816000875af19250505080156112fc57506040513d601f19601f820116820180604052508101906112f99190612369565b60015b61137e573d806000811461132c576040519150601f19603f3d011682016040523d82523d6000602084013e611331565b606091505b506000815103611376576040517f08c379a000000000000000000000000000000000000000000000000000000000815260040161136d9061218b565b60405180910390fd5b805181602001fd5b63150b7a0260e01b7bffffffffffffffffffffffffffffffffffffffffffffffffffffffff1916817bffffffffffffffffffffffffffffffffffffffffffffffffffffffff1916149150506113d3565b600190505b949350505050565b600073ffffffffffffffffffffffffffffffffffffffff168273ffffffffffffffffffffffffffffffffffffffff160361144a576040517f08c379a0000000000000000000000000000000000000000000000000000000008152600401611441906123e2565b60405180910390fd5b61145381611199565b15611493576040517f08c379a000000000000000000000000000000000000000000000000000000000815260040161148a9061244e565b60405180910390fd5b6001600360008473ffffffffffffffffffffffffffffffffffffffff1673ffffffffffffffffffffffffffffffffffffffff16815260200190815260200160002060008282546114e39190611e99565b92505081905550816002600083815260200190815260200160002060006101000a81548173ffffffffffffffffffffffffffffffffffffffff021916908373ffffffffffffffffffffffffffffffffffffffff160217905550808273ffffffffffffffffffffffffffffffffffffffff16600073ffffffffffffffffffffffffffffffffffffffff167fddf252ad1be2c89b69c2b068fc378daa952ba7f163c4a11628f55a4df523b3ef60405160405180910390a45050565b6000604051905090565b600080fd5b600080fd5b60007fffffffff0000000000000000000000000000000000000000000000000000000082169050919050565b6115e5816115b0565b81146115f057600080fd5b50565b600081359050611602816115dc565b92915050565b60006020828403121561161e5761161d6115a6565b5b600061162c848285016115f3565b91505092915050565b60008115159050919050565b61164a81611635565b82525050565b60006020820190506116656000830184611641565b92915050565b6000819050919050565b61167e8161166b565b82525050565b60006020820190506116996000830184611675565b92915050565b600081519050919050565b600082825260208201905092915050565b60005b838110156116d95780820151818401526020810190506116be565b60008484015250505050565b6000601f19601f8301169050919050565b60006117018261169f565b61170b81856116aa565b935061171b8185602086016116bb565b611724816116e5565b840191505092915050565b6000602082019050818103600083015261174981846116f6565b905092915050565b61175a8161166b565b811461176557600080fd5b50565b60008135905061177781611751565b92915050565b600060208284031215611793576117926115a6565b5b60006117a184828501611768565b91505092915050565b600073ffffffffffffffffffffffffffffffffffffffff82169050919050565b60006117d5826117aa565b9050919050565b6117e5816117ca565b82525050565b600060208201905061180060008301846117dc565b92915050565b61180f816117ca565b811461181a57600080fd5b50565b60008135905061182c81611806565b92915050565b60008060408385031215611849576118486115a6565b5b60006118578582860161181d565b925050602061186885828601611768565b9150509250929050565b60008060006060848603121561188b5761188a6115a6565b5b60006118998682870161181d565b93505060206118aa8682870161181d565b92505060406118bb86828701611768565b9150509250925092565b6000602082840312156118db576118da6115a6565b5b60006118e98482850161181d565b91505092915050565b6118fb81611635565b811461190657600080fd5b50565b600081359050611918816118f2565b92915050565b60008060408385031215611935576119346115a6565b5b60006119438582860161181d565b925050602061195485828601611909565b9150509250929050565b600080fd5b600080fd5b7f4e487b7100000000000000000000000000000000000000000000000000000000600052604160045260246000fd5b6119a0826116e5565b810181811067ffffffffffffffff821117156119bf576119be611968565b5b80604052505050565b60006119d261159c565b90506119de8282611997565b919050565b600067ffffffffffffffff8211156119fe576119fd611968565b5b611a07826116e5565b9050602081019050919050565b82818337600083830152505050565b6000611a36611a31846119e3565b6119c8565b905082815260208101848484011115611a5257611a51611963565b5b611a5d848285611a14565b509392505050565b600082601f830112611a7a57611a7961195e565b5b8135611a8a848260208601611a23565b91505092915050565b60008060008060808587031215611aad57611aac6115a6565b5b6000611abb8782880161181d565b9450506020611acc8782880161181d565b9350506040611add87828801611768565b925050606085013567ffffffffffffffff811115611afe57611afd6115ab565b5b611b0a87828801611a65565b91505092959194509250565b60008060408385031215611b2d57611b2c6115a6565b5b6000611b3b8582860161181d565b9250506020611b4c8582860161181d565b9150509250929050565b7f4e487b7100000000000000000000000000000000000000000000000000000000600052602260045260246000fd5b60006002820490506001821680611b9d57607f821691505b602082108103611bb057611baf611b56565b5b50919050565b7f4552433732313a20617070726f76616c20746f2063757272656e74206f776e6560008201527f7200000000000000000000000000000000000000000000000000000000000000602082015250565b6000611c126021836116aa565b9150611c1d82611bb6565b604082019050919050565b60006020820190508181036000830152611c4181611c05565b9050919050565b7f4552433732313a20617070726f76652063616c6c6572206973206e6f7420746f60008201527f6b656e206f776e6572206e6f7220617070726f76656420666f7220616c6c0000602082015250565b6000611ca4603e836116aa565b9150611caf82611c48565b604082019050919050565b60006020820190508181036000830152611cd381611c97565b9050919050565b7f4552433732313a2063616c6c6572206973206e6f7420746f6b656e206f776e6560008201527f72206e6f7220617070726f766564000000000000000000000000000000000000602082015250565b6000611d36602e836116aa565b9150611d4182611cda565b604082019050919050565b60006020820190508181036000830152611d6581611d29565b9050919050565b7f4552433732313a20696e76616c696420746f6b656e2049440000000000000000600082015250565b6000611da26018836116aa565b9150611dad82611d6c565b602082019050919050565b60006020820190508181036000830152611dd181611d95565b9050919050565b7f4552433732313a2061646472657373207a65726f206973206e6f74206120766160008201527f6c6964206f776e65720000000000000000000000000000000000000000000000602082015250565b6000611e346029836116aa565b9150611e3f82611dd8565b604082019050919050565b60006020820190508181036000830152611e6381611e27565b9050919050565b7f4e487b7100000000000000000000000000000000000000000000000000000000600052601160045260246000fd5b6000611ea48261166b565b9150611eaf8361166b565b9250828201905080821115611ec757611ec6611e6a565b5b92915050565b7f68747470733a2f2f7777772e6c61626f722e6c616e642f70726f706f73616c2f815250565b600081905092915050565b6000611f098261169f565b611f138185611ef3565b9350611f238185602086016116bb565b80840191505092915050565b6000611f3a82611ecd565b602082019150611f4a8284611efe565b915081905092915050565b7f4552433732313a207472616e736665722066726f6d20696e636f72726563742060008201527f6f776e6572000000000000000000000000000000000000000000000000000000602082015250565b6000611fb16025836116aa565b9150611fbc82611f55565b604082019050919050565b60006020820190508181036000830152611fe081611fa4565b9050919050565b7f4552433732313a207472616e7366657220746f20746865207a65726f2061646460008201527f7265737300000000000000000000000000000000000000000000000000000000602082015250565b60006120436024836116aa565b915061204e82611fe7565b604082019050919050565b6000602082019050818103600083015261207281612036565b9050919050565b60006120848261166b565b915061208f8361166b565b92508282039050818111156120a7576120a6611e6a565b5b92915050565b7f4552433732313a20617070726f766520746f2063616c6c657200000000000000600082015250565b60006120e36019836116aa565b91506120ee826120ad565b602082019050919050565b60006020820190508181036000830152612112816120d6565b9050919050565b7f4552433732313a207472616e7366657220746f206e6f6e20455243373231526560008201527f63656976657220696d706c656d656e7465720000000000000000000000000000602082015250565b60006121756032836116aa565b915061218082612119565b604082019050919050565b600060208201905081810360008301526121a481612168565b9050919050565b60006121b68261166b565b91507fffffffffffffffffffffffffffffffffffffffffffffffffffffffffffffffff82036121e8576121e7611e6a565b5b600182019050919050565b7f4e487b7100000000000000000000000000000000000000000000000000000000600052601260045260246000fd5b600061222d8261166b565b91506122388361166b565b925082612248576122476121f3565b5b828204905092915050565b600061225e8261166b565b91506122698361166b565b925082612279576122786121f3565b5b828206905092915050565b7f4e487b7100000000000000000000000000000000000000000000000000000000600052603260045260246000fd5b600081519050919050565b600082825260208201905092915050565b60006122da826122b3565b6122e481856122be565b93506122f48185602086016116bb565b6122fd816116e5565b840191505092915050565b600060808201905061231d60008301876117dc565b61232a60208301866117dc565b6123376040830185611675565b818103606083015261234981846122cf565b905095945050505050565b600081519050612363816115dc565b92915050565b60006020828403121561237f5761237e6115a6565b5b600061238d84828501612354565b91505092915050565b7f4552433732313a206d696e7420746f20746865207a65726f2061646472657373600082015250565b60006123cc6020836116aa565b91506123d782612396565b602082019050919050565b600060208201905081810360008301526123fb816123bf565b9050919050565b7f4552433732313a20746f6b656e20616c7265616479206d696e74656400000000600082015250565b6000612438601c836116aa565b915061244382612402565b602082019050919050565b600060208201905081810360008301526124678161242b565b905091905056fea2646970667358221220da1cbcefa0e760f98a6a1bb63d3bdffceb9b04f0d8f009a5d01d73a742ef9dbe64736f6c63430008110033","opcodes":"PUSH1 0x80 PUSH1 0x40 MSTORE PUSH1 0x40 MLOAD DUP1 PUSH1 0x40 ADD PUSH1 0x40 MSTORE DUP1 PUSH1 0x8 DUP2 MSTORE PUSH1 0x20 ADD PUSH32 0x50726F706F73616C000000000000000000000000000000000000000000000000 DUP2 MSTORE POP PUSH1 0x0 SWAP1 DUP2 PUSH3 0x4A SWAP2 SWAP1 PUSH3 0x38C JUMP JUMPDEST POP PUSH1 0x40 MLOAD DUP1 PUSH1 0x40 ADD PUSH1 0x40 MSTORE DUP1 PUSH1 0x3 DUP2 MSTORE PUSH1 0x20 ADD PUSH32 0x50524F0000000000000000000000000000000000000000000000000000000000 DUP2 MSTORE POP PUSH1 0x1 SWAP1 DUP2 PUSH3 0x91 SWAP2 SWAP1 PUSH3 0x38C JUMP JUMPDEST POP PUSH1 0x0 PUSH1 0x6 SSTORE CALLVALUE DUP1 ISZERO PUSH3 0xA4 JUMPI PUSH1 0x0 DUP1 REVERT JUMPDEST POP PUSH1 0x40 MLOAD PUSH3 0x29C3 CODESIZE SUB DUP1 PUSH3 0x29C3 DUP4 CODECOPY DUP2 DUP2 ADD PUSH1 0x40 MSTORE DUP2 ADD SWAP1 PUSH3 0xCA SWAP2 SWAP1 PUSH3 0x4DD JUMP JUMPDEST DUP1 PUSH1 0x7 PUSH1 0x0 PUSH2 0x100 EXP DUP2 SLOAD DUP2 PUSH20 0xFFFFFFFFFFFFFFFFFFFFFFFFFFFFFFFFFFFFFFFF MUL NOT AND SWAP1 DUP4 PUSH20 0xFFFFFFFFFFFFFFFFFFFFFFFFFFFFFFFFFFFFFFFF AND MUL OR SWAP1 SSTORE POP POP PUSH3 0x50F JUMP JUMPDEST PUSH1 0x0 DUP2 MLOAD SWAP1 POP SWAP2 SWAP1 POP JUMP JUMPDEST PUSH32 0x4E487B7100000000000000000000000000000000000000000000000000000000 PUSH1 0x0 MSTORE PUSH1 0x41 PUSH1 0x4 MSTORE PUSH1 0x24 PUSH1 0x0 REVERT JUMPDEST PUSH32 0x4E487B7100000000000000000000000000000000000000000000000000000000 PUSH1 0x0 MSTORE PUSH1 0x22 PUSH1 0x4 MSTORE PUSH1 0x24 PUSH1 0x0 REVERT JUMPDEST PUSH1 0x0 PUSH1 0x2 DUP3 DIV SWAP1 POP PUSH1 0x1 DUP3 AND DUP1 PUSH3 0x194 JUMPI PUSH1 0x7F DUP3 AND SWAP2 POP JUMPDEST PUSH1 0x20 DUP3 LT DUP2 SUB PUSH3 0x1AA JUMPI PUSH3 0x1A9 PUSH3 0x14C JUMP JUMPDEST JUMPDEST POP SWAP2 SWAP1 POP JUMP JUMPDEST PUSH1 0x0 DUP2 SWAP1 POP DUP2 PUSH1 0x0 MSTORE PUSH1 0x20 PUSH1 0x0 KECCAK256 SWAP1 POP SWAP2 SWAP1 POP JUMP JUMPDEST PUSH1 0x0 PUSH1 0x20 PUSH1 0x1F DUP4 ADD DIV SWAP1 POP SWAP2 SWAP1 POP JUMP JUMPDEST PUSH1 0x0 DUP3 DUP3 SHL SWAP1 POP SWAP3 SWAP2 POP POP JUMP JUMPDEST PUSH1 0x0 PUSH1 0x8 DUP4 MUL PUSH3 0x214 PUSH32 0xFFFFFFFFFFFFFFFFFFFFFFFFFFFFFFFFFFFFFFFFFFFFFFFFFFFFFFFFFFFFFFFF DUP3 PUSH3 0x1D5 JUMP JUMPDEST PUSH3 0x220 DUP7 DUP4 PUSH3 0x1D5 JUMP JUMPDEST SWAP6 POP DUP1 NOT DUP5 AND SWAP4 POP DUP1 DUP7 AND DUP5 OR SWAP3 POP POP POP SWAP4 SWAP3 POP POP POP JUMP JUMPDEST PUSH1 0x0 DUP2 SWAP1 POP SWAP2 SWAP1 POP JUMP JUMPDEST PUSH1 0x0 DUP2 SWAP1 POP SWAP2 SWAP1 POP JUMP JUMPDEST PUSH1 0x0 PUSH3 0x26D PUSH3 0x267 PUSH3 0x261 DUP5 PUSH3 0x238 JUMP JUMPDEST PUSH3 0x242 JUMP JUMPDEST PUSH3 0x238 JUMP JUMPDEST SWAP1 POP SWAP2 SWAP1 POP JUMP JUMPDEST PUSH1 0x0 DUP2 SWAP1 POP SWAP2 SWAP1 POP JUMP JUMPDEST PUSH3 0x289 DUP4 PUSH3 0x24C JUMP JUMPDEST PUSH3 0x2A1 PUSH3 0x298 DUP3 PUSH3 0x274 JUMP JUMPDEST DUP5 DUP5 SLOAD PUSH3 0x1E2 JUMP JUMPDEST DUP3 SSTORE POP POP POP POP JUMP JUMPDEST PUSH1 0x0 SWAP1 JUMP JUMPDEST PUSH3 0x2B8 PUSH3 0x2A9 JUMP JUMPDEST PUSH3 0x2C5 DUP2 DUP5 DUP5 PUSH3 0x27E JUMP JUMPDEST POP POP POP JUMP JUMPDEST JUMPDEST DUP2 DUP2 LT ISZERO PUSH3 0x2ED JUMPI PUSH3 0x2E1 PUSH1 0x0 DUP3 PUSH3 0x2AE JUMP JUMPDEST PUSH1 0x1 DUP2 ADD SWAP1 POP PUSH3 0x2CB JUMP JUMPDEST POP POP JUMP JUMPDEST PUSH1 0x1F DUP3 GT ISZERO PUSH3 0x33C JUMPI PUSH3 0x306 DUP2 PUSH3 0x1B0 JUMP JUMPDEST PUSH3 0x311 DUP5 PUSH3 0x1C5 JUMP JUMPDEST DUP2 ADD PUSH1 0x20 DUP6 LT ISZERO PUSH3 0x321 JUMPI DUP2 SWAP1 POP JUMPDEST PUSH3 0x339 PUSH3 0x330 DUP6 PUSH3 0x1C5 JUMP JUMPDEST DUP4 ADD DUP3 PUSH3 0x2CA JUMP JUMPDEST POP POP JUMPDEST POP POP POP JUMP JUMPDEST PUSH1 0x0 DUP3 DUP3 SHR SWAP1 POP SWAP3 SWAP2 POP POP JUMP JUMPDEST PUSH1 0x0 PUSH3 0x361 PUSH1 0x0 NOT DUP5 PUSH1 0x8 MUL PUSH3 0x341 JUMP JUMPDEST NOT DUP1 DUP4 AND SWAP2 POP POP SWAP3 SWAP2 POP POP JUMP JUMPDEST PUSH1 0x0 PUSH3 0x37C DUP4 DUP4 PUSH3 0x34E JUMP JUMPDEST SWAP2 POP DUP3 PUSH1 0x2 MUL DUP3 OR SWAP1 POP SWAP3 SWAP2 POP POP JUMP JUMPDEST PUSH3 0x397 DUP3 PUSH3 0x112 JUMP JUMPDEST PUSH8 0xFFFFFFFFFFFFFFFF DUP2 GT ISZERO PUSH3 0x3B3 JUMPI PUSH3 0x3B2 PUSH3 0x11D JUMP JUMPDEST JUMPDEST PUSH3 0x3BF DUP3 SLOAD PUSH3 0x17B JUMP JUMPDEST PUSH3 0x3CC DUP3 DUP3 DUP6 PUSH3 0x2F1 JUMP JUMPDEST PUSH1 0x0 PUSH1 0x20 SWAP1 POP PUSH1 0x1F DUP4 GT PUSH1 0x1 DUP2 EQ PUSH3 0x404 JUMPI PUSH1 0x0 DUP5 ISZERO PUSH3 0x3EF JUMPI DUP3 DUP8 ADD MLOAD SWAP1 POP JUMPDEST PUSH3 0x3FB DUP6 DUP3 PUSH3 0x36E JUMP JUMPDEST DUP7 SSTORE POP PUSH3 0x46B JUMP JUMPDEST PUSH1 0x1F NOT DUP5 AND PUSH3 0x414 DUP7 PUSH3 0x1B0 JUMP JUMPDEST PUSH1 0x0 JUMPDEST DUP3 DUP2 LT ISZERO PUSH3 0x43E JUMPI DUP5 DUP10 ADD MLOAD DUP3 SSTORE PUSH1 0x1 DUP3 ADD SWAP2 POP PUSH1 0x20 DUP6 ADD SWAP5 POP PUSH1 0x20 DUP2 ADD SWAP1 POP PUSH3 0x417 JUMP JUMPDEST DUP7 DUP4 LT ISZERO PUSH3 0x45E JUMPI DUP5 DUP10 ADD MLOAD PUSH3 0x45A PUSH1 0x1F DUP10 AND DUP3 PUSH3 0x34E JUMP JUMPDEST DUP4 SSTORE POP JUMPDEST PUSH1 0x1 PUSH1 0x2 DUP9 MUL ADD DUP9 SSTORE POP POP POP JUMPDEST POP POP POP POP POP POP JUMP JUMPDEST PUSH1 0x0 DUP1 REVERT JUMPDEST PUSH1 0x0 PUSH20 0xFFFFFFFFFFFFFFFFFFFFFFFFFFFFFFFFFFFFFFFF DUP3 AND SWAP1 POP SWAP2 SWAP1 POP JUMP JUMPDEST PUSH1 0x0 PUSH3 0x4A5 DUP3 PUSH3 0x478 JUMP JUMPDEST SWAP1 POP SWAP2 SWAP1 POP JUMP JUMPDEST PUSH3 0x4B7 DUP2 PUSH3 0x498 JUMP JUMPDEST DUP2 EQ PUSH3 0x4C3 JUMPI PUSH1 0x0 DUP1 REVERT JUMPDEST POP JUMP JUMPDEST PUSH1 0x0 DUP2 MLOAD SWAP1 POP PUSH3 0x4D7 DUP2 PUSH3 0x4AC JUMP JUMPDEST SWAP3 SWAP2 POP POP JUMP JUMPDEST PUSH1 0x0 PUSH1 0x20 DUP3 DUP5 SUB SLT ISZERO PUSH3 0x4F6 JUMPI PUSH3 0x4F5 PUSH3 0x473 JUMP JUMPDEST JUMPDEST PUSH1 0x0 PUSH3 0x506 DUP5 DUP3 DUP6 ADD PUSH3 0x4C6 JUMP JUMPDEST SWAP2 POP POP SWAP3 SWAP2 POP POP JUMP JUMPDEST PUSH2 0x24A4 DUP1 PUSH3 0x51F PUSH1 0x0 CODECOPY PUSH1 0x0 RETURN INVALID PUSH1 0x80 PUSH1 0x40 MSTORE CALLVALUE DUP1 ISZERO PUSH2 0x10 JUMPI PUSH1 0x0 DUP1 REVERT JUMPDEST POP PUSH1 0x4 CALLDATASIZE LT PUSH2 0x100 JUMPI PUSH1 0x0 CALLDATALOAD PUSH1 0xE0 SHR DUP1 PUSH4 0x70A08231 GT PUSH2 0x97 JUMPI DUP1 PUSH4 0xA22CB465 GT PUSH2 0x66 JUMPI DUP1 PUSH4 0xA22CB465 EQ PUSH2 0x2AD JUMPI DUP1 PUSH4 0xB88D4FDE EQ PUSH2 0x2C9 JUMPI DUP1 PUSH4 0xC87B56DD EQ PUSH2 0x2E5 JUMPI DUP1 PUSH4 0xE985E9C5 EQ PUSH2 0x315 JUMPI PUSH2 0x100 JUMP JUMPDEST DUP1 PUSH4 0x70A08231 EQ PUSH2 0x225 JUMPI DUP1 PUSH4 0x755EDD17 EQ PUSH2 0x255 JUMPI DUP1 PUSH4 0x7C2C25AE EQ PUSH2 0x271 JUMPI DUP1 PUSH4 0x95D89B41 EQ PUSH2 0x28F JUMPI PUSH2 0x100 JUMP JUMPDEST DUP1 PUSH4 0x95EA7B3 GT PUSH2 0xD3 JUMPI DUP1 PUSH4 0x95EA7B3 EQ PUSH2 0x1A1 JUMPI DUP1 PUSH4 0x23B872DD EQ PUSH2 0x1BD JUMPI DUP1 PUSH4 0x42842E0E EQ PUSH2 0x1D9 JUMPI DUP1 PUSH4 0x6352211E EQ PUSH2 0x1F5 JUMPI PUSH2 0x100 JUMP JUMPDEST DUP1 PUSH4 0x1FFC9A7 EQ PUSH2 0x105 JUMPI DUP1 PUSH4 0x6661ABD EQ PUSH2 0x135 JUMPI DUP1 PUSH4 0x6FDDE03 EQ PUSH2 0x153 JUMPI DUP1 PUSH4 0x81812FC EQ PUSH2 0x171 JUMPI JUMPDEST PUSH1 0x0 DUP1 REVERT JUMPDEST PUSH2 0x11F PUSH1 0x4 DUP1 CALLDATASIZE SUB DUP2 ADD SWAP1 PUSH2 0x11A SWAP2 SWAP1 PUSH2 0x1608 JUMP JUMPDEST PUSH2 0x345 JUMP JUMPDEST PUSH1 0x40 MLOAD PUSH2 0x12C SWAP2 SWAP1 PUSH2 0x1650 JUMP JUMPDEST PUSH1 0x40 MLOAD DUP1 SWAP2 SUB SWAP1 RETURN JUMPDEST PUSH2 0x13D PUSH2 0x427 JUMP JUMPDEST PUSH1 0x40 MLOAD PUSH2 0x14A SWAP2 SWAP1 PUSH2 0x1684 JUMP JUMPDEST PUSH1 0x40 MLOAD DUP1 SWAP2 SUB SWAP1 RETURN JUMPDEST PUSH2 0x15B PUSH2 0x42D JUMP JUMPDEST PUSH1 0x40 MLOAD PUSH2 0x168 SWAP2 SWAP1 PUSH2 0x172F JUMP JUMPDEST PUSH1 0x40 MLOAD DUP1 SWAP2 SUB SWAP1 RETURN JUMPDEST PUSH2 0x18B PUSH1 0x4 DUP1 CALLDATASIZE SUB DUP2 ADD SWAP1 PUSH2 0x186 SWAP2 SWAP1 PUSH2 0x177D JUMP JUMPDEST PUSH2 0x4BB JUMP JUMPDEST PUSH1 0x40 MLOAD PUSH2 0x198 SWAP2 SWAP1 PUSH2 0x17EB JUMP JUMPDEST PUSH1 0x40 MLOAD DUP1 SWAP2 SUB SWAP1 RETURN JUMPDEST PUSH2 0x1BB PUSH1 0x4 DUP1 CALLDATASIZE SUB DUP2 ADD SWAP1 PUSH2 0x1B6 SWAP2 SWAP1 PUSH2 0x1832 JUMP JUMPDEST PUSH2 0x501 JUMP JUMPDEST STOP JUMPDEST PUSH2 0x1D7 PUSH1 0x4 DUP1 CALLDATASIZE SUB DUP2 ADD SWAP1 PUSH2 0x1D2 SWAP2 SWAP1 PUSH2 0x1872 JUMP JUMPDEST PUSH2 0x60A JUMP JUMPDEST STOP JUMPDEST PUSH2 0x1F3 PUSH1 0x4 DUP1 CALLDATASIZE SUB DUP2 ADD SWAP1 PUSH2 0x1EE SWAP2 SWAP1 PUSH2 0x1872 JUMP JUMPDEST PUSH2 0x663 JUMP JUMPDEST STOP JUMPDEST PUSH2 0x20F PUSH1 0x4 DUP1 CALLDATASIZE SUB DUP2 ADD SWAP1 PUSH2 0x20A SWAP2 SWAP1 PUSH2 0x177D JUMP JUMPDEST PUSH2 0x683 JUMP JUMPDEST PUSH1 0x40 MLOAD PUSH2 0x21C SWAP2 SWAP1 PUSH2 0x17EB JUMP JUMPDEST PUSH1 0x40 MLOAD DUP1 SWAP2 SUB SWAP1 RETURN JUMPDEST PUSH2 0x23F PUSH1 0x4 DUP1 CALLDATASIZE SUB DUP2 ADD SWAP1 PUSH2 0x23A SWAP2 SWAP1 PUSH2 0x18C5 JUMP JUMPDEST PUSH2 0x734 JUMP JUMPDEST PUSH1 0x40 MLOAD PUSH2 0x24C SWAP2 SWAP1 PUSH2 0x1684 JUMP JUMPDEST PUSH1 0x40 MLOAD DUP1 SWAP2 SUB SWAP1 RETURN JUMPDEST PUSH2 0x26F PUSH1 0x4 DUP1 CALLDATASIZE SUB DUP2 ADD SWAP1 PUSH2 0x26A SWAP2 SWAP1 PUSH2 0x18C5 JUMP JUMPDEST PUSH2 0x7EB JUMP JUMPDEST STOP JUMPDEST PUSH2 0x279 PUSH2 0x814 JUMP JUMPDEST PUSH1 0x40 MLOAD PUSH2 0x286 SWAP2 SWAP1 PUSH2 0x17EB JUMP JUMPDEST PUSH1 0x40 MLOAD DUP1 SWAP2 SUB SWAP1 RETURN JUMPDEST PUSH2 0x297 PUSH2 0x83A JUMP JUMPDEST PUSH1 0x40 MLOAD PUSH2 0x2A4 SWAP2 SWAP1 PUSH2 0x172F JUMP JUMPDEST PUSH1 0x40 MLOAD DUP1 SWAP2 SUB SWAP1 RETURN JUMPDEST PUSH2 0x2C7 PUSH1 0x4 DUP1 CALLDATASIZE SUB DUP2 ADD SWAP1 PUSH2 0x2C2 SWAP2 SWAP1 PUSH2 0x191E JUMP JUMPDEST PUSH2 0x8C8 JUMP JUMPDEST STOP JUMPDEST PUSH2 0x2E3 PUSH1 0x4 DUP1 CALLDATASIZE SUB DUP2 ADD SWAP1 PUSH2 0x2DE SWAP2 SWAP1 PUSH2 0x1A93 JUMP JUMPDEST PUSH2 0x8D7 JUMP JUMPDEST STOP JUMPDEST PUSH2 0x2FF PUSH1 0x4 DUP1 CALLDATASIZE SUB DUP2 ADD SWAP1 PUSH2 0x2FA SWAP2 SWAP1 PUSH2 0x177D JUMP JUMPDEST PUSH2 0x932 JUMP JUMPDEST PUSH1 0x40 MLOAD PUSH2 0x30C SWAP2 SWAP1 PUSH2 0x172F JUMP JUMPDEST PUSH1 0x40 MLOAD DUP1 SWAP2 SUB SWAP1 RETURN JUMPDEST PUSH2 0x32F PUSH1 0x4 DUP1 CALLDATASIZE SUB DUP2 ADD SWAP1 PUSH2 0x32A SWAP2 SWAP1 PUSH2 0x1B16 JUMP JUMPDEST PUSH2 0x96C JUMP JUMPDEST PUSH1 0x40 MLOAD PUSH2 0x33C SWAP2 SWAP1 PUSH2 0x1650 JUMP JUMPDEST PUSH1 0x40 MLOAD DUP1 SWAP2 SUB SWAP1 RETURN JUMPDEST PUSH1 0x0 PUSH32 0x80AC58CD00000000000000000000000000000000000000000000000000000000 PUSH28 0xFFFFFFFFFFFFFFFFFFFFFFFFFFFFFFFFFFFFFFFFFFFFFFFFFFFFFFFF NOT AND DUP3 PUSH28 0xFFFFFFFFFFFFFFFFFFFFFFFFFFFFFFFFFFFFFFFFFFFFFFFFFFFFFFFF NOT AND EQ DUP1 PUSH2 0x410 JUMPI POP PUSH32 0x5B5E139F00000000000000000000000000000000000000000000000000000000 PUSH28 0xFFFFFFFFFFFFFFFFFFFFFFFFFFFFFFFFFFFFFFFFFFFFFFFFFFFFFFFF NOT AND DUP3 PUSH28 0xFFFFFFFFFFFFFFFFFFFFFFFFFFFFFFFFFFFFFFFFFFFFFFFFFFFFFFFF NOT AND EQ JUMPDEST DUP1 PUSH2 0x420 JUMPI POP PUSH2 0x41F DUP3 PUSH2 0xA00 JUMP JUMPDEST JUMPDEST SWAP1 POP SWAP2 SWAP1 POP JUMP JUMPDEST PUSH1 0x6 SLOAD DUP2 JUMP JUMPDEST PUSH1 0x0 DUP1 SLOAD PUSH2 0x43A SWAP1 PUSH2 0x1B85 JUMP JUMPDEST DUP1 PUSH1 0x1F ADD PUSH1 0x20 DUP1 SWAP2 DIV MUL PUSH1 0x20 ADD PUSH1 0x40 MLOAD SWAP1 DUP2 ADD PUSH1 0x40 MSTORE DUP1 SWAP3 SWAP2 SWAP1 DUP2 DUP2 MSTORE PUSH1 0x20 ADD DUP3 DUP1 SLOAD PUSH2 0x466 SWAP1 PUSH2 0x1B85 JUMP JUMPDEST DUP1 ISZERO PUSH2 0x4B3 JUMPI DUP1 PUSH1 0x1F LT PUSH2 0x488 JUMPI PUSH2 0x100 DUP1 DUP4 SLOAD DIV MUL DUP4 MSTORE SWAP2 PUSH1 0x20 ADD SWAP2 PUSH2 0x4B3 JUMP JUMPDEST DUP3 ADD SWAP2 SWAP1 PUSH1 0x0 MSTORE PUSH1 0x20 PUSH1 0x0 KECCAK256 SWAP1 JUMPDEST DUP2 SLOAD DUP2 MSTORE SWAP1 PUSH1 0x1 ADD SWAP1 PUSH1 0x20 ADD DUP1 DUP4 GT PUSH2 0x496 JUMPI DUP3 SWAP1 SUB PUSH1 0x1F AND DUP3 ADD SWAP2 JUMPDEST POP POP POP POP POP DUP2 JUMP JUMPDEST PUSH1 0x0 PUSH2 0x4C6 DUP3 PUSH2 0xA6A JUMP JUMPDEST PUSH1 0x4 PUSH1 0x0 DUP4 DUP2 MSTORE PUSH1 0x20 ADD SWAP1 DUP2 MSTORE PUSH1 0x20 ADD PUSH1 0x0 KECCAK256 PUSH1 0x0 SWAP1 SLOAD SWAP1 PUSH2 0x100 EXP SWAP1 DIV PUSH20 0xFFFFFFFFFFFFFFFFFFFFFFFFFFFFFFFFFFFFFFFF AND SWAP1 POP SWAP2 SWAP1 POP JUMP JUMPDEST PUSH1 0x0 PUSH2 0x50C DUP3 PUSH2 0x683 JUMP JUMPDEST SWAP1 POP DUP1 PUSH20 0xFFFFFFFFFFFFFFFFFFFFFFFFFFFFFFFFFFFFFFFF AND DUP4 PUSH20 0xFFFFFFFFFFFFFFFFFFFFFFFFFFFFFFFFFFFFFFFF AND SUB PUSH2 0x57C JUMPI PUSH1 0x40 MLOAD PUSH32 0x8C379A000000000000000000000000000000000000000000000000000000000 DUP2 MSTORE PUSH1 0x4 ADD PUSH2 0x573 SWAP1 PUSH2 0x1C28 JUMP JUMPDEST PUSH1 0x40 MLOAD DUP1 SWAP2 SUB SWAP1 REVERT JUMPDEST DUP1 PUSH20 0xFFFFFFFFFFFFFFFFFFFFFFFFFFFFFFFFFFFFFFFF AND CALLER PUSH20 0xFFFFFFFFFFFFFFFFFFFFFFFFFFFFFFFFFFFFFFFF AND EQ DUP1 PUSH2 0x5BC JUMPI POP PUSH2 0x5BB DUP2 CALLER PUSH2 0x96C JUMP JUMPDEST JUMPDEST PUSH2 0x5FB JUMPI PUSH1 0x40 MLOAD PUSH32 0x8C379A000000000000000000000000000000000000000000000000000000000 DUP2 MSTORE PUSH1 0x4 ADD PUSH2 0x5F2 SWAP1 PUSH2 0x1CBA JUMP JUMPDEST PUSH1 0x40 MLOAD DUP1 SWAP2 SUB SWAP1 REVERT JUMPDEST PUSH2 0x605 DUP4 DUP4 PUSH2 0xAB5 JUMP JUMPDEST POP POP POP JUMP JUMPDEST PUSH2 0x614 CALLER DUP3 PUSH2 0xB6E JUMP JUMPDEST PUSH2 0x653 JUMPI PUSH1 0x40 MLOAD PUSH32 0x8C379A000000000000000000000000000000000000000000000000000000000 DUP2 MSTORE PUSH1 0x4 ADD PUSH2 0x64A SWAP1 PUSH2 0x1D4C JUMP JUMPDEST PUSH1 0x40 MLOAD DUP1 SWAP2 SUB SWAP1 REVERT JUMPDEST PUSH2 0x65E DUP4 DUP4 DUP4 PUSH2 0xC03 JUMP JUMPDEST POP POP POP JUMP JUMPDEST PUSH2 0x67E DUP4 DUP4 DUP4 PUSH1 0x40 MLOAD DUP1 PUSH1 0x20 ADD PUSH1 0x40 MSTORE DUP1 PUSH1 0x0 DUP2 MSTORE POP PUSH2 0x8D7 JUMP JUMPDEST POP POP POP JUMP JUMPDEST PUSH1 0x0 DUP1 PUSH1 0x2 PUSH1 0x0 DUP5 DUP2 MSTORE PUSH1 0x20 ADD SWAP1 DUP2 MSTORE PUSH1 0x20 ADD PUSH1 0x0 KECCAK256 PUSH1 0x0 SWAP1 SLOAD SWAP1 PUSH2 0x100 EXP SWAP1 DIV PUSH20 0xFFFFFFFFFFFFFFFFFFFFFFFFFFFFFFFFFFFFFFFF AND SWAP1 POP PUSH1 0x0 PUSH20 0xFFFFFFFFFFFFFFFFFFFFFFFFFFFFFFFFFFFFFFFF AND DUP2 PUSH20 0xFFFFFFFFFFFFFFFFFFFFFFFFFFFFFFFFFFFFFFFF AND SUB PUSH2 0x72B JUMPI PUSH1 0x40 MLOAD PUSH32 0x8C379A000000000000000000000000000000000000000000000000000000000 DUP2 MSTORE PUSH1 0x4 ADD PUSH2 0x722 SWAP1 PUSH2 0x1DB8 JUMP JUMPDEST PUSH1 0x40 MLOAD DUP1 SWAP2 SUB SWAP1 REVERT JUMPDEST DUP1 SWAP2 POP POP SWAP2 SWAP1 POP JUMP JUMPDEST PUSH1 0x0 DUP1 PUSH20 0xFFFFFFFFFFFFFFFFFFFFFFFFFFFFFFFFFFFFFFFF AND DUP3 PUSH20 0xFFFFFFFFFFFFFFFFFFFFFFFFFFFFFFFFFFFFFFFF AND SUB PUSH2 0x7A4 JUMPI PUSH1 0x40 MLOAD PUSH32 0x8C379A000000000000000000000000000000000000000000000000000000000 DUP2 MSTORE PUSH1 0x4 ADD PUSH2 0x79B SWAP1 PUSH2 0x1E4A JUMP JUMPDEST PUSH1 0x40 MLOAD DUP1 SWAP2 SUB SWAP1 REVERT JUMPDEST PUSH1 0x3 PUSH1 0x0 DUP4 PUSH20 0xFFFFFFFFFFFFFFFFFFFFFFFFFFFFFFFFFFFFFFFF AND PUSH20 0xFFFFFFFFFFFFFFFFFFFFFFFFFFFFFFFFFFFFFFFF AND DUP2 MSTORE PUSH1 0x20 ADD SWAP1 DUP2 MSTORE PUSH1 0x20 ADD PUSH1 0x0 KECCAK256 SLOAD SWAP1 POP SWAP2 SWAP1 POP JUMP JUMPDEST PUSH2 0x7F7 DUP2 PUSH1 0x6 SLOAD PUSH2 0xE53 JUMP JUMPDEST PUSH1 0x1 PUSH1 0x6 PUSH1 0x0 DUP3 DUP3 SLOAD PUSH2 0x80A SWAP2 SWAP1 PUSH2 0x1E99 JUMP JUMPDEST SWAP3 POP POP DUP2 SWAP1 SSTORE POP POP JUMP JUMPDEST PUSH1 0x7 PUSH1 0x0 SWAP1 SLOAD SWAP1 PUSH2 0x100 EXP SWAP1 DIV PUSH20 0xFFFFFFFFFFFFFFFFFFFFFFFFFFFFFFFFFFFFFFFF AND DUP2 JUMP JUMPDEST PUSH1 0x1 DUP1 SLOAD PUSH2 0x847 SWAP1 PUSH2 0x1B85 JUMP JUMPDEST DUP1 PUSH1 0x1F ADD PUSH1 0x20 DUP1 SWAP2 DIV MUL PUSH1 0x20 ADD PUSH1 0x40 MLOAD SWAP1 DUP2 ADD PUSH1 0x40 MSTORE DUP1 SWAP3 SWAP2 SWAP1 DUP2 DUP2 MSTORE PUSH1 0x20 ADD DUP3 DUP1 SLOAD PUSH2 0x873 SWAP1 PUSH2 0x1B85 JUMP JUMPDEST DUP1 ISZERO PUSH2 0x8C0 JUMPI DUP1 PUSH1 0x1F LT PUSH2 0x895 JUMPI PUSH2 0x100 DUP1 DUP4 SLOAD DIV MUL DUP4 MSTORE SWAP2 PUSH1 0x20 ADD SWAP2 PUSH2 0x8C0 JUMP JUMPDEST DUP3 ADD SWAP2 SWAP1 PUSH1 0x0 MSTORE PUSH1 0x20 PUSH1 0x0 KECCAK256 SWAP1 JUMPDEST DUP2 SLOAD DUP2 MSTORE SWAP1 PUSH1 0x1 ADD SWAP1 PUSH1 0x20 ADD DUP1 DUP4 GT PUSH2 0x8A3 JUMPI DUP3 SWAP1 SUB PUSH1 0x1F AND DUP3 ADD SWAP2 JUMPDEST POP POP POP POP POP DUP2 JUMP JUMPDEST PUSH2 0x8D3 CALLER DUP4 DUP4 PUSH2 0xE71 JUMP JUMPDEST POP POP JUMP JUMPDEST PUSH2 0x8E1 CALLER DUP4 PUSH2 0xB6E JUMP JUMPDEST PUSH2 0x920 JUMPI PUSH1 0x40 MLOAD PUSH32 0x8C379A000000000000000000000000000000000000000000000000000000000 DUP2 MSTORE PUSH1 0x4 ADD PUSH2 0x917 SWAP1 PUSH2 0x1D4C JUMP JUMPDEST PUSH1 0x40 MLOAD DUP1 SWAP2 SUB SWAP1 REVERT JUMPDEST PUSH2 0x92C DUP5 DUP5 DUP5 DUP5 PUSH2 0xFDD JUMP JUMPDEST POP POP POP POP JUMP JUMPDEST PUSH1 0x60 PUSH2 0x93D DUP3 PUSH2 0xA6A JUMP JUMPDEST PUSH2 0x946 DUP3 PUSH2 0x1039 JUMP JUMPDEST PUSH1 0x40 MLOAD PUSH1 0x20 ADD PUSH2 0x956 SWAP2 SWAP1 PUSH2 0x1F2F JUMP JUMPDEST PUSH1 0x40 MLOAD PUSH1 0x20 DUP2 DUP4 SUB SUB DUP2 MSTORE SWAP1 PUSH1 0x40 MSTORE SWAP1 POP SWAP2 SWAP1 POP JUMP JUMPDEST PUSH1 0x0 PUSH1 0x5 PUSH1 0x0 DUP5 PUSH20 0xFFFFFFFFFFFFFFFFFFFFFFFFFFFFFFFFFFFFFFFF AND PUSH20 0xFFFFFFFFFFFFFFFFFFFFFFFFFFFFFFFFFFFFFFFF AND DUP2 MSTORE PUSH1 0x20 ADD SWAP1 DUP2 MSTORE PUSH1 0x20 ADD PUSH1 0x0 KECCAK256 PUSH1 0x0 DUP4 PUSH20 0xFFFFFFFFFFFFFFFFFFFFFFFFFFFFFFFFFFFFFFFF AND PUSH20 0xFFFFFFFFFFFFFFFFFFFFFFFFFFFFFFFFFFFFFFFF AND DUP2 MSTORE PUSH1 0x20 ADD SWAP1 DUP2 MSTORE PUSH1 0x20 ADD PUSH1 0x0 KECCAK256 PUSH1 0x0 SWAP1 SLOAD SWAP1 PUSH2 0x100 EXP SWAP1 DIV PUSH1 0xFF AND SWAP1 POP SWAP3 SWAP2 POP POP JUMP JUMPDEST PUSH1 0x0 PUSH32 0x1FFC9A700000000000000000000000000000000000000000000000000000000 PUSH28 0xFFFFFFFFFFFFFFFFFFFFFFFFFFFFFFFFFFFFFFFFFFFFFFFFFFFFFFFF NOT AND DUP3 PUSH28 0xFFFFFFFFFFFFFFFFFFFFFFFFFFFFFFFFFFFFFFFFFFFFFFFFFFFFFFFF NOT AND EQ SWAP1 POP SWAP2 SWAP1 POP JUMP JUMPDEST PUSH2 0xA73 DUP2 PUSH2 0x1199 JUMP JUMPDEST PUSH2 0xAB2 JUMPI PUSH1 0x40 MLOAD PUSH32 0x8C379A000000000000000000000000000000000000000000000000000000000 DUP2 MSTORE PUSH1 0x4 ADD PUSH2 0xAA9 SWAP1 PUSH2 0x1DB8 JUMP JUMPDEST PUSH1 0x40 MLOAD DUP1 SWAP2 SUB SWAP1 REVERT JUMPDEST POP JUMP JUMPDEST DUP2 PUSH1 0x4 PUSH1 0x0 DUP4 DUP2 MSTORE PUSH1 0x20 ADD SWAP1 DUP2 MSTORE PUSH1 0x20 ADD PUSH1 0x0 KECCAK256 PUSH1 0x0 PUSH2 0x100 EXP DUP2 SLOAD DUP2 PUSH20 0xFFFFFFFFFFFFFFFFFFFFFFFFFFFFFFFFFFFFFFFF MUL NOT AND SWAP1 DUP4 PUSH20 0xFFFFFFFFFFFFFFFFFFFFFFFFFFFFFFFFFFFFFFFF AND MUL OR SWAP1 SSTORE POP DUP1 DUP3 PUSH20 0xFFFFFFFFFFFFFFFFFFFFFFFFFFFFFFFFFFFFFFFF AND PUSH2 0xB28 DUP4 PUSH2 0x683 JUMP JUMPDEST PUSH20 0xFFFFFFFFFFFFFFFFFFFFFFFFFFFFFFFFFFFFFFFF AND PUSH32 0x8C5BE1E5EBEC7D5BD14F71427D1E84F3DD0314C0F7B2291E5B200AC8C7C3B925 PUSH1 0x40 MLOAD PUSH1 0x40 MLOAD DUP1 SWAP2 SUB SWAP1 LOG4 POP POP JUMP JUMPDEST PUSH1 0x0 DUP1 PUSH2 0xB7A DUP4 PUSH2 0x683 JUMP JUMPDEST SWAP1 POP DUP1 PUSH20 0xFFFFFFFFFFFFFFFFFFFFFFFFFFFFFFFFFFFFFFFF AND DUP5 PUSH20 0xFFFFFFFFFFFFFFFFFFFFFFFFFFFFFFFFFFFFFFFF AND EQ DUP1 PUSH2 0xBBC JUMPI POP PUSH2 0xBBB DUP2 DUP6 PUSH2 0x96C JUMP JUMPDEST JUMPDEST DUP1 PUSH2 0xBFA JUMPI POP DUP4 PUSH20 0xFFFFFFFFFFFFFFFFFFFFFFFFFFFFFFFFFFFFFFFF AND PUSH2 0xBE2 DUP5 PUSH2 0x4BB JUMP JUMPDEST PUSH20 0xFFFFFFFFFFFFFFFFFFFFFFFFFFFFFFFFFFFFFFFF AND EQ JUMPDEST SWAP2 POP POP SWAP3 SWAP2 POP POP JUMP JUMPDEST DUP3 PUSH20 0xFFFFFFFFFFFFFFFFFFFFFFFFFFFFFFFFFFFFFFFF AND PUSH2 0xC23 DUP3 PUSH2 0x683 JUMP JUMPDEST PUSH20 0xFFFFFFFFFFFFFFFFFFFFFFFFFFFFFFFFFFFFFFFF AND EQ PUSH2 0xC79 JUMPI PUSH1 0x40 MLOAD PUSH32 0x8C379A000000000000000000000000000000000000000000000000000000000 DUP2 MSTORE PUSH1 0x4 ADD PUSH2 0xC70 SWAP1 PUSH2 0x1FC7 JUMP JUMPDEST PUSH1 0x40 MLOAD DUP1 SWAP2 SUB SWAP1 REVERT JUMPDEST PUSH1 0x0 PUSH20 0xFFFFFFFFFFFFFFFFFFFFFFFFFFFFFFFFFFFFFFFF AND DUP3 PUSH20 0xFFFFFFFFFFFFFFFFFFFFFFFFFFFFFFFFFFFFFFFF AND SUB PUSH2 0xCE8 JUMPI PUSH1 0x40 MLOAD PUSH32 0x8C379A000000000000000000000000000000000000000000000000000000000 DUP2 MSTORE PUSH1 0x4 ADD PUSH2 0xCDF SWAP1 PUSH2 0x2059 JUMP JUMPDEST PUSH1 0x40 MLOAD DUP1 SWAP2 SUB SWAP1 REVERT JUMPDEST PUSH2 0xCF3 PUSH1 0x0 DUP3 PUSH2 0xAB5 JUMP JUMPDEST PUSH1 0x1 PUSH1 0x3 PUSH1 0x0 DUP6 PUSH20 0xFFFFFFFFFFFFFFFFFFFFFFFFFFFFFFFFFFFFFFFF AND PUSH20 0xFFFFFFFFFFFFFFFFFFFFFFFFFFFFFFFFFFFFFFFF AND DUP2 MSTORE PUSH1 0x20 ADD SWAP1 DUP2 MSTORE PUSH1 0x20 ADD PUSH1 0x0 KECCAK256 PUSH1 0x0 DUP3 DUP3 SLOAD PUSH2 0xD43 SWAP2 SWAP1 PUSH2 0x2079 JUMP JUMPDEST SWAP3 POP POP DUP2 SWAP1 SSTORE POP PUSH1 0x1 PUSH1 0x3 PUSH1 0x0 DUP5 PUSH20 0xFFFFFFFFFFFFFFFFFFFFFFFFFFFFFFFFFFFFFFFF AND PUSH20 0xFFFFFFFFFFFFFFFFFFFFFFFFFFFFFFFFFFFFFFFF AND DUP2 MSTORE PUSH1 0x20 ADD SWAP1 DUP2 MSTORE PUSH1 0x20 ADD PUSH1 0x0 KECCAK256 PUSH1 0x0 DUP3 DUP3 SLOAD PUSH2 0xD9A SWAP2 SWAP1 PUSH2 0x1E99 JUMP JUMPDEST SWAP3 POP POP DUP2 SWAP1 SSTORE POP DUP2 PUSH1 0x2 PUSH1 0x0 DUP4 DUP2 MSTORE PUSH1 0x20 ADD SWAP1 DUP2 MSTORE PUSH1 0x20 ADD PUSH1 0x0 KECCAK256 PUSH1 0x0 PUSH2 0x100 EXP DUP2 SLOAD DUP2 PUSH20 0xFFFFFFFFFFFFFFFFFFFFFFFFFFFFFFFFFFFFFFFF MUL NOT AND SWAP1 DUP4 PUSH20 0xFFFFFFFFFFFFFFFFFFFFFFFFFFFFFFFFFFFFFFFF AND MUL OR SWAP1 SSTORE POP DUP1 DUP3 PUSH20 0xFFFFFFFFFFFFFFFFFFFFFFFFFFFFFFFFFFFFFFFF AND DUP5 PUSH20 0xFFFFFFFFFFFFFFFFFFFFFFFFFFFFFFFFFFFFFFFF AND PUSH32 0xDDF252AD1BE2C89B69C2B068FC378DAA952BA7F163C4A11628F55A4DF523B3EF PUSH1 0x40 MLOAD PUSH1 0x40 MLOAD DUP1 SWAP2 SUB SWAP1 LOG4 POP POP POP JUMP JUMPDEST PUSH2 0xE6D DUP3 DUP3 PUSH1 0x40 MLOAD DUP1 PUSH1 0x20 ADD PUSH1 0x40 MSTORE DUP1 PUSH1 0x0 DUP2 MSTORE POP PUSH2 0x1205 JUMP JUMPDEST POP POP JUMP JUMPDEST DUP2 PUSH20 0xFFFFFFFFFFFFFFFFFFFFFFFFFFFFFFFFFFFFFFFF AND DUP4 PUSH20 0xFFFFFFFFFFFFFFFFFFFFFFFFFFFFFFFFFFFFFFFF AND SUB PUSH2 0xEDF JUMPI PUSH1 0x40 MLOAD PUSH32 0x8C379A000000000000000000000000000000000000000000000000000000000 DUP2 MSTORE PUSH1 0x4 ADD PUSH2 0xED6 SWAP1 PUSH2 0x20F9 JUMP JUMPDEST PUSH1 0x40 MLOAD DUP1 SWAP2 SUB SWAP1 REVERT JUMPDEST DUP1 PUSH1 0x5 PUSH1 0x0 DUP6 PUSH20 0xFFFFFFFFFFFFFFFFFFFFFFFFFFFFFFFFFFFFFFFF AND PUSH20 0xFFFFFFFFFFFFFFFFFFFFFFFFFFFFFFFFFFFFFFFF AND DUP2 MSTORE PUSH1 0x20 ADD SWAP1 DUP2 MSTORE PUSH1 0x20 ADD PUSH1 0x0 KECCAK256 PUSH1 0x0 DUP5 PUSH20 0xFFFFFFFFFFFFFFFFFFFFFFFFFFFFFFFFFFFFFFFF AND PUSH20 0xFFFFFFFFFFFFFFFFFFFFFFFFFFFFFFFFFFFFFFFF AND DUP2 MSTORE PUSH1 0x20 ADD SWAP1 DUP2 MSTORE PUSH1 0x20 ADD PUSH1 0x0 KECCAK256 PUSH1 0x0 PUSH2 0x100 EXP DUP2 SLOAD DUP2 PUSH1 0xFF MUL NOT AND SWAP1 DUP4 ISZERO ISZERO MUL OR SWAP1 SSTORE POP DUP2 PUSH20 0xFFFFFFFFFFFFFFFFFFFFFFFFFFFFFFFFFFFFFFFF AND DUP4 PUSH20 0xFFFFFFFFFFFFFFFFFFFFFFFFFFFFFFFFFFFFFFFF AND PUSH32 0x17307EAB39AB6107E8899845AD3D59BD9653F200F220920489CA2B5937696C31 DUP4 PUSH1 0x40 MLOAD PUSH2 0xFD0 SWAP2 SWAP1 PUSH2 0x1650 JUMP JUMPDEST PUSH1 0x40 MLOAD DUP1 SWAP2 SUB SWAP1 LOG3 POP POP POP JUMP JUMPDEST PUSH2 0xFE8 DUP5 DUP5 DUP5 PUSH2 0xC03 JUMP JUMPDEST PUSH2 0xFF4 DUP5 DUP5 DUP5 DUP5 PUSH2 0x1260 JUMP JUMPDEST PUSH2 0x1033 JUMPI PUSH1 0x40 MLOAD PUSH32 0x8C379A000000000000000000000000000000000000000000000000000000000 DUP2 MSTORE PUSH1 0x4 ADD PUSH2 0x102A SWAP1 PUSH2 0x218B JUMP JUMPDEST PUSH1 0x40 MLOAD DUP1 SWAP2 SUB SWAP1 REVERT JUMPDEST POP POP POP POP JUMP JUMPDEST PUSH1 0x60 PUSH1 0x0 DUP3 SUB PUSH2 0x1080 JUMPI PUSH1 0x40 MLOAD DUP1 PUSH1 0x40 ADD PUSH1 0x40 MSTORE DUP1 PUSH1 0x1 DUP2 MSTORE PUSH1 0x20 ADD PUSH32 0x3000000000000000000000000000000000000000000000000000000000000000 DUP2 MSTORE POP SWAP1 POP PUSH2 0x1194 JUMP JUMPDEST PUSH1 0x0 DUP3 SWAP1 POP PUSH1 0x0 JUMPDEST PUSH1 0x0 DUP3 EQ PUSH2 0x10B2 JUMPI DUP1 DUP1 PUSH2 0x109B SWAP1 PUSH2 0x21AB JUMP JUMPDEST SWAP2 POP POP PUSH1 0xA DUP3 PUSH2 0x10AB SWAP2 SWAP1 PUSH2 0x2222 JUMP JUMPDEST SWAP2 POP PUSH2 0x1088 JUMP JUMPDEST PUSH1 0x0 DUP2 PUSH8 0xFFFFFFFFFFFFFFFF DUP2 GT ISZERO PUSH2 0x10CE JUMPI PUSH2 0x10CD PUSH2 0x1968 JUMP JUMPDEST JUMPDEST PUSH1 0x40 MLOAD SWAP1 DUP1 DUP3 MSTORE DUP1 PUSH1 0x1F ADD PUSH1 0x1F NOT AND PUSH1 0x20 ADD DUP3 ADD PUSH1 0x40 MSTORE DUP1 ISZERO PUSH2 0x1100 JUMPI DUP2 PUSH1 0x20 ADD PUSH1 0x1 DUP3 MUL DUP1 CALLDATASIZE DUP4 CALLDATACOPY DUP1 DUP3 ADD SWAP2 POP POP SWAP1 POP JUMPDEST POP SWAP1 POP JUMPDEST PUSH1 0x0 DUP6 EQ PUSH2 0x118D JUMPI PUSH1 0x1 DUP3 PUSH2 0x1119 SWAP2 SWAP1 PUSH2 0x2079 JUMP JUMPDEST SWAP2 POP PUSH1 0xA DUP6 PUSH2 0x1128 SWAP2 SWAP1 PUSH2 0x2253 JUMP JUMPDEST PUSH1 0x30 PUSH2 0x1134 SWAP2 SWAP1 PUSH2 0x1E99 JUMP JUMPDEST PUSH1 0xF8 SHL DUP2 DUP4 DUP2 MLOAD DUP2 LT PUSH2 0x114A JUMPI PUSH2 0x1149 PUSH2 0x2284 JUMP JUMPDEST JUMPDEST PUSH1 0x20 ADD ADD SWAP1 PUSH31 0xFFFFFFFFFFFFFFFFFFFFFFFFFFFFFFFFFFFFFFFFFFFFFFFFFFFFFFFFFFFFFF NOT AND SWAP1 DUP2 PUSH1 0x0 BYTE SWAP1 MSTORE8 POP PUSH1 0xA DUP6 PUSH2 0x1186 SWAP2 SWAP1 PUSH2 0x2222 JUMP JUMPDEST SWAP5 POP PUSH2 0x1104 JUMP JUMPDEST DUP1 SWAP4 POP POP POP POP JUMPDEST SWAP2 SWAP1 POP JUMP JUMPDEST PUSH1 0x0 DUP1 PUSH20 0xFFFFFFFFFFFFFFFFFFFFFFFFFFFFFFFFFFFFFFFF AND PUSH1 0x2 PUSH1 0x0 DUP5 DUP2 MSTORE PUSH1 0x20 ADD SWAP1 DUP2 MSTORE PUSH1 0x20 ADD PUSH1 0x0 KECCAK256 PUSH1 0x0 SWAP1 SLOAD SWAP1 PUSH2 0x100 EXP SWAP1 DIV PUSH20 0xFFFFFFFFFFFFFFFFFFFFFFFFFFFFFFFFFFFFFFFF AND PUSH20 0xFFFFFFFFFFFFFFFFFFFFFFFFFFFFFFFFFFFFFFFF AND EQ ISZERO SWAP1 POP SWAP2 SWAP1 POP JUMP JUMPDEST PUSH2 0x120F DUP4 DUP4 PUSH2 0x13DB JUMP JUMPDEST PUSH2 0x121C PUSH1 0x0 DUP5 DUP5 DUP5 PUSH2 0x1260 JUMP JUMPDEST PUSH2 0x125B JUMPI PUSH1 0x40 MLOAD PUSH32 0x8C379A000000000000000000000000000000000000000000000000000000000 DUP2 MSTORE PUSH1 0x4 ADD PUSH2 0x1252 SWAP1 PUSH2 0x218B JUMP JUMPDEST PUSH1 0x40 MLOAD DUP1 SWAP2 SUB SWAP1 REVERT JUMPDEST POP POP POP JUMP JUMPDEST PUSH1 0x0 DUP1 DUP5 PUSH20 0xFFFFFFFFFFFFFFFFFFFFFFFFFFFFFFFFFFFFFFFF AND EXTCODESIZE GT ISZERO PUSH2 0x13CE JUMPI DUP4 PUSH20 0xFFFFFFFFFFFFFFFFFFFFFFFFFFFFFFFFFFFFFFFF AND PUSH4 0x150B7A02 CALLER DUP8 DUP7 DUP7 PUSH1 0x40 MLOAD DUP6 PUSH4 0xFFFFFFFF AND PUSH1 0xE0 SHL DUP2 MSTORE PUSH1 0x4 ADD PUSH2 0x12C0 SWAP5 SWAP4 SWAP3 SWAP2 SWAP1 PUSH2 0x2308 JUMP JUMPDEST PUSH1 0x20 PUSH1 0x40 MLOAD DUP1 DUP4 SUB DUP2 PUSH1 0x0 DUP8 GAS CALL SWAP3 POP POP POP DUP1 ISZERO PUSH2 0x12FC JUMPI POP PUSH1 0x40 MLOAD RETURNDATASIZE PUSH1 0x1F NOT PUSH1 0x1F DUP3 ADD AND DUP3 ADD DUP1 PUSH1 0x40 MSTORE POP DUP2 ADD SWAP1 PUSH2 0x12F9 SWAP2 SWAP1 PUSH2 0x2369 JUMP JUMPDEST PUSH1 0x1 JUMPDEST PUSH2 0x137E JUMPI RETURNDATASIZE DUP1 PUSH1 0x0 DUP2 EQ PUSH2 0x132C JUMPI PUSH1 0x40 MLOAD SWAP2 POP PUSH1 0x1F NOT PUSH1 0x3F RETURNDATASIZE ADD AND DUP3 ADD PUSH1 0x40 MSTORE RETURNDATASIZE DUP3 MSTORE RETURNDATASIZE PUSH1 0x0 PUSH1 0x20 DUP5 ADD RETURNDATACOPY PUSH2 0x1331 JUMP JUMPDEST PUSH1 0x60 SWAP2 POP JUMPDEST POP PUSH1 0x0 DUP2 MLOAD SUB PUSH2 0x1376 JUMPI PUSH1 0x40 MLOAD PUSH32 0x8C379A000000000000000000000000000000000000000000000000000000000 DUP2 MSTORE PUSH1 0x4 ADD PUSH2 0x136D SWAP1 PUSH2 0x218B JUMP JUMPDEST PUSH1 0x40 MLOAD DUP1 SWAP2 SUB SWAP1 REVERT JUMPDEST DUP1 MLOAD DUP2 PUSH1 0x20 ADD REVERT JUMPDEST PUSH4 0x150B7A02 PUSH1 0xE0 SHL PUSH28 0xFFFFFFFFFFFFFFFFFFFFFFFFFFFFFFFFFFFFFFFFFFFFFFFFFFFFFFFF NOT AND DUP2 PUSH28 0xFFFFFFFFFFFFFFFFFFFFFFFFFFFFFFFFFFFFFFFFFFFFFFFFFFFFFFFF NOT AND EQ SWAP2 POP POP PUSH2 0x13D3 JUMP JUMPDEST PUSH1 0x1 SWAP1 POP JUMPDEST SWAP5 SWAP4 POP POP POP POP JUMP JUMPDEST PUSH1 0x0 PUSH20 0xFFFFFFFFFFFFFFFFFFFFFFFFFFFFFFFFFFFFFFFF AND DUP3 PUSH20 0xFFFFFFFFFFFFFFFFFFFFFFFFFFFFFFFFFFFFFFFF AND SUB PUSH2 0x144A JUMPI PUSH1 0x40 MLOAD PUSH32 0x8C379A000000000000000000000000000000000000000000000000000000000 DUP2 MSTORE PUSH1 0x4 ADD PUSH2 0x1441 SWAP1 PUSH2 0x23E2 JUMP JUMPDEST PUSH1 0x40 MLOAD DUP1 SWAP2 SUB SWAP1 REVERT JUMPDEST PUSH2 0x1453 DUP2 PUSH2 0x1199 JUMP JUMPDEST ISZERO PUSH2 0x1493 JUMPI PUSH1 0x40 MLOAD PUSH32 0x8C379A000000000000000000000000000000000000000000000000000000000 DUP2 MSTORE PUSH1 0x4 ADD PUSH2 0x148A SWAP1 PUSH2 0x244E JUMP JUMPDEST PUSH1 0x40 MLOAD DUP1 SWAP2 SUB SWAP1 REVERT JUMPDEST PUSH1 0x1 PUSH1 0x3 PUSH1 0x0 DUP5 PUSH20 0xFFFFFFFFFFFFFFFFFFFFFFFFFFFFFFFFFFFFFFFF AND PUSH20 0xFFFFFFFFFFFFFFFFFFFFFFFFFFFFFFFFFFFFFFFF AND DUP2 MSTORE PUSH1 0x20 ADD SWAP1 DUP2 MSTORE PUSH1 0x20 ADD PUSH1 0x0 KECCAK256 PUSH1 0x0 DUP3 DUP3 SLOAD PUSH2 0x14E3 SWAP2 SWAP1 PUSH2 0x1E99 JUMP JUMPDEST SWAP3 POP POP DUP2 SWAP1 SSTORE POP DUP2 PUSH1 0x2 PUSH1 0x0 DUP4 DUP2 MSTORE PUSH1 0x20 ADD SWAP1 DUP2 MSTORE PUSH1 0x20 ADD PUSH1 0x0 KECCAK256 PUSH1 0x0 PUSH2 0x100 EXP DUP2 SLOAD DUP2 PUSH20 0xFFFFFFFFFFFFFFFFFFFFFFFFFFFFFFFFFFFFFFFF MUL NOT AND SWAP1 DUP4 PUSH20 0xFFFFFFFFFFFFFFFFFFFFFFFFFFFFFFFFFFFFFFFF AND MUL OR SWAP1 SSTORE POP DUP1 DUP3 PUSH20 0xFFFFFFFFFFFFFFFFFFFFFFFFFFFFFFFFFFFFFFFF AND PUSH1 0x0 PUSH20 0xFFFFFFFFFFFFFFFFFFFFFFFFFFFFFFFFFFFFFFFF AND PUSH32 0xDDF252AD1BE2C89B69C2B068FC378DAA952BA7F163C4A11628F55A4DF523B3EF PUSH1 0x40 MLOAD PUSH1 0x40 MLOAD DUP1 SWAP2 SUB SWAP1 LOG4 POP POP JUMP JUMPDEST PUSH1 0x0 PUSH1 0x40 MLOAD SWAP1 POP SWAP1 JUMP JUMPDEST PUSH1 0x0 DUP1 REVERT JUMPDEST PUSH1 0x0 DUP1 REVERT JUMPDEST PUSH1 0x0 PUSH32 0xFFFFFFFF00000000000000000000000000000000000000000000000000000000 DUP3 AND SWAP1 POP SWAP2 SWAP1 POP JUMP JUMPDEST PUSH2 0x15E5 DUP2 PUSH2 0x15B0 JUMP JUMPDEST DUP2 EQ PUSH2 0x15F0 JUMPI PUSH1 0x0 DUP1 REVERT JUMPDEST POP JUMP JUMPDEST PUSH1 0x0 DUP2 CALLDATALOAD SWAP1 POP PUSH2 0x1602 DUP2 PUSH2 0x15DC JUMP JUMPDEST SWAP3 SWAP2 POP POP JUMP JUMPDEST PUSH1 0x0 PUSH1 0x20 DUP3 DUP5 SUB SLT ISZERO PUSH2 0x161E JUMPI PUSH2 0x161D PUSH2 0x15A6 JUMP JUMPDEST JUMPDEST PUSH1 0x0 PUSH2 0x162C DUP5 DUP3 DUP6 ADD PUSH2 0x15F3 JUMP JUMPDEST SWAP2 POP POP SWAP3 SWAP2 POP POP JUMP JUMPDEST PUSH1 0x0 DUP2 ISZERO ISZERO SWAP1 POP SWAP2 SWAP1 POP JUMP JUMPDEST PUSH2 0x164A DUP2 PUSH2 0x1635 JUMP JUMPDEST DUP3 MSTORE POP POP JUMP JUMPDEST PUSH1 0x0 PUSH1 0x20 DUP3 ADD SWAP1 POP PUSH2 0x1665 PUSH1 0x0 DUP4 ADD DUP5 PUSH2 0x1641 JUMP JUMPDEST SWAP3 SWAP2 POP POP JUMP JUMPDEST PUSH1 0x0 DUP2 SWAP1 POP SWAP2 SWAP1 POP JUMP JUMPDEST PUSH2 0x167E DUP2 PUSH2 0x166B JUMP JUMPDEST DUP3 MSTORE POP POP JUMP JUMPDEST PUSH1 0x0 PUSH1 0x20 DUP3 ADD SWAP1 POP PUSH2 0x1699 PUSH1 0x0 DUP4 ADD DUP5 PUSH2 0x1675 JUMP JUMPDEST SWAP3 SWAP2 POP POP JUMP JUMPDEST PUSH1 0x0 DUP2 MLOAD SWAP1 POP SWAP2 SWAP1 POP JUMP JUMPDEST PUSH1 0x0 DUP3 DUP3 MSTORE PUSH1 0x20 DUP3 ADD SWAP1 POP SWAP3 SWAP2 POP POP JUMP JUMPDEST PUSH1 0x0 JUMPDEST DUP4 DUP2 LT ISZERO PUSH2 0x16D9 JUMPI DUP1 DUP3 ADD MLOAD DUP2 DUP5 ADD MSTORE PUSH1 0x20 DUP2 ADD SWAP1 POP PUSH2 0x16BE JUMP JUMPDEST PUSH1 0x0 DUP5 DUP5 ADD MSTORE POP POP POP POP JUMP JUMPDEST PUSH1 0x0 PUSH1 0x1F NOT PUSH1 0x1F DUP4 ADD AND SWAP1 POP SWAP2 SWAP1 POP JUMP JUMPDEST PUSH1 0x0 PUSH2 0x1701 DUP3 PUSH2 0x169F JUMP JUMPDEST PUSH2 0x170B DUP2 DUP6 PUSH2 0x16AA JUMP JUMPDEST SWAP4 POP PUSH2 0x171B DUP2 DUP6 PUSH1 0x20 DUP7 ADD PUSH2 0x16BB JUMP JUMPDEST PUSH2 0x1724 DUP2 PUSH2 0x16E5 JUMP JUMPDEST DUP5 ADD SWAP2 POP POP SWAP3 SWAP2 POP POP JUMP JUMPDEST PUSH1 0x0 PUSH1 0x20 DUP3 ADD SWAP1 POP DUP2 DUP2 SUB PUSH1 0x0 DUP4 ADD MSTORE PUSH2 0x1749 DUP2 DUP5 PUSH2 0x16F6 JUMP JUMPDEST SWAP1 POP SWAP3 SWAP2 POP POP JUMP JUMPDEST PUSH2 0x175A DUP2 PUSH2 0x166B JUMP JUMPDEST DUP2 EQ PUSH2 0x1765 JUMPI PUSH1 0x0 DUP1 REVERT JUMPDEST POP JUMP JUMPDEST PUSH1 0x0 DUP2 CALLDATALOAD SWAP1 POP PUSH2 0x1777 DUP2 PUSH2 0x1751 JUMP JUMPDEST SWAP3 SWAP2 POP POP JUMP JUMPDEST PUSH1 0x0 PUSH1 0x20 DUP3 DUP5 SUB SLT ISZERO PUSH2 0x1793 JUMPI PUSH2 0x1792 PUSH2 0x15A6 JUMP JUMPDEST JUMPDEST PUSH1 0x0 PUSH2 0x17A1 DUP5 DUP3 DUP6 ADD PUSH2 0x1768 JUMP JUMPDEST SWAP2 POP POP SWAP3 SWAP2 POP POP JUMP JUMPDEST PUSH1 0x0 PUSH20 0xFFFFFFFFFFFFFFFFFFFFFFFFFFFFFFFFFFFFFFFF DUP3 AND SWAP1 POP SWAP2 SWAP1 POP JUMP JUMPDEST PUSH1 0x0 PUSH2 0x17D5 DUP3 PUSH2 0x17AA JUMP JUMPDEST SWAP1 POP SWAP2 SWAP1 POP JUMP JUMPDEST PUSH2 0x17E5 DUP2 PUSH2 0x17CA JUMP JUMPDEST DUP3 MSTORE POP POP JUMP JUMPDEST PUSH1 0x0 PUSH1 0x20 DUP3 ADD SWAP1 POP PUSH2 0x1800 PUSH1 0x0 DUP4 ADD DUP5 PUSH2 0x17DC JUMP JUMPDEST SWAP3 SWAP2 POP POP JUMP JUMPDEST PUSH2 0x180F DUP2 PUSH2 0x17CA JUMP JUMPDEST DUP2 EQ PUSH2 0x181A JUMPI PUSH1 0x0 DUP1 REVERT JUMPDEST POP JUMP JUMPDEST PUSH1 0x0 DUP2 CALLDATALOAD SWAP1 POP PUSH2 0x182C DUP2 PUSH2 0x1806 JUMP JUMPDEST SWAP3 SWAP2 POP POP JUMP JUMPDEST PUSH1 0x0 DUP1 PUSH1 0x40 DUP4 DUP6 SUB SLT ISZERO PUSH2 0x1849 JUMPI PUSH2 0x1848 PUSH2 0x15A6 JUMP JUMPDEST JUMPDEST PUSH1 0x0 PUSH2 0x1857 DUP6 DUP3 DUP7 ADD PUSH2 0x181D JUMP JUMPDEST SWAP3 POP POP PUSH1 0x20 PUSH2 0x1868 DUP6 DUP3 DUP7 ADD PUSH2 0x1768 JUMP JUMPDEST SWAP2 POP POP SWAP3 POP SWAP3 SWAP1 POP JUMP JUMPDEST PUSH1 0x0 DUP1 PUSH1 0x0 PUSH1 0x60 DUP5 DUP7 SUB SLT ISZERO PUSH2 0x188B JUMPI PUSH2 0x188A PUSH2 0x15A6 JUMP JUMPDEST JUMPDEST PUSH1 0x0 PUSH2 0x1899 DUP7 DUP3 DUP8 ADD PUSH2 0x181D JUMP JUMPDEST SWAP4 POP POP PUSH1 0x20 PUSH2 0x18AA DUP7 DUP3 DUP8 ADD PUSH2 0x181D JUMP JUMPDEST SWAP3 POP POP PUSH1 0x40 PUSH2 0x18BB DUP7 DUP3 DUP8 ADD PUSH2 0x1768 JUMP JUMPDEST SWAP2 POP POP SWAP3 POP SWAP3 POP SWAP3 JUMP JUMPDEST PUSH1 0x0 PUSH1 0x20 DUP3 DUP5 SUB SLT ISZERO PUSH2 0x18DB JUMPI PUSH2 0x18DA PUSH2 0x15A6 JUMP JUMPDEST JUMPDEST PUSH1 0x0 PUSH2 0x18E9 DUP5 DUP3 DUP6 ADD PUSH2 0x181D JUMP JUMPDEST SWAP2 POP POP SWAP3 SWAP2 POP POP JUMP JUMPDEST PUSH2 0x18FB DUP2 PUSH2 0x1635 JUMP JUMPDEST DUP2 EQ PUSH2 0x1906 JUMPI PUSH1 0x0 DUP1 REVERT JUMPDEST POP JUMP JUMPDEST PUSH1 0x0 DUP2 CALLDATALOAD SWAP1 POP PUSH2 0x1918 DUP2 PUSH2 0x18F2 JUMP JUMPDEST SWAP3 SWAP2 POP POP JUMP JUMPDEST PUSH1 0x0 DUP1 PUSH1 0x40 DUP4 DUP6 SUB SLT ISZERO PUSH2 0x1935 JUMPI PUSH2 0x1934 PUSH2 0x15A6 JUMP JUMPDEST JUMPDEST PUSH1 0x0 PUSH2 0x1943 DUP6 DUP3 DUP7 ADD PUSH2 0x181D JUMP JUMPDEST SWAP3 POP POP PUSH1 0x20 PUSH2 0x1954 DUP6 DUP3 DUP7 ADD PUSH2 0x1909 JUMP JUMPDEST SWAP2 POP POP SWAP3 POP SWAP3 SWAP1 POP JUMP JUMPDEST PUSH1 0x0 DUP1 REVERT JUMPDEST PUSH1 0x0 DUP1 REVERT JUMPDEST PUSH32 0x4E487B7100000000000000000000000000000000000000000000000000000000 PUSH1 0x0 MSTORE PUSH1 0x41 PUSH1 0x4 MSTORE PUSH1 0x24 PUSH1 0x0 REVERT JUMPDEST PUSH2 0x19A0 DUP3 PUSH2 0x16E5 JUMP JUMPDEST DUP2 ADD DUP2 DUP2 LT PUSH8 0xFFFFFFFFFFFFFFFF DUP3 GT OR ISZERO PUSH2 0x19BF JUMPI PUSH2 0x19BE PUSH2 0x1968 JUMP JUMPDEST JUMPDEST DUP1 PUSH1 0x40 MSTORE POP POP POP JUMP JUMPDEST PUSH1 0x0 PUSH2 0x19D2 PUSH2 0x159C JUMP JUMPDEST SWAP1 POP PUSH2 0x19DE DUP3 DUP3 PUSH2 0x1997 JUMP JUMPDEST SWAP2 SWAP1 POP JUMP JUMPDEST PUSH1 0x0 PUSH8 0xFFFFFFFFFFFFFFFF DUP3 GT ISZERO PUSH2 0x19FE JUMPI PUSH2 0x19FD PUSH2 0x1968 JUMP JUMPDEST JUMPDEST PUSH2 0x1A07 DUP3 PUSH2 0x16E5 JUMP JUMPDEST SWAP1 POP PUSH1 0x20 DUP2 ADD SWAP1 POP SWAP2 SWAP1 POP JUMP JUMPDEST DUP3 DUP2 DUP4 CALLDATACOPY PUSH1 0x0 DUP4 DUP4 ADD MSTORE POP POP POP JUMP JUMPDEST PUSH1 0x0 PUSH2 0x1A36 PUSH2 0x1A31 DUP5 PUSH2 0x19E3 JUMP JUMPDEST PUSH2 0x19C8 JUMP JUMPDEST SWAP1 POP DUP3 DUP2 MSTORE PUSH1 0x20 DUP2 ADD DUP5 DUP5 DUP5 ADD GT ISZERO PUSH2 0x1A52 JUMPI PUSH2 0x1A51 PUSH2 0x1963 JUMP JUMPDEST JUMPDEST PUSH2 0x1A5D DUP5 DUP3 DUP6 PUSH2 0x1A14 JUMP JUMPDEST POP SWAP4 SWAP3 POP POP POP JUMP JUMPDEST PUSH1 0x0 DUP3 PUSH1 0x1F DUP4 ADD SLT PUSH2 0x1A7A JUMPI PUSH2 0x1A79 PUSH2 0x195E JUMP JUMPDEST JUMPDEST DUP2 CALLDATALOAD PUSH2 0x1A8A DUP5 DUP3 PUSH1 0x20 DUP7 ADD PUSH2 0x1A23 JUMP JUMPDEST SWAP2 POP POP SWAP3 SWAP2 POP POP JUMP JUMPDEST PUSH1 0x0 DUP1 PUSH1 0x0 DUP1 PUSH1 0x80 DUP6 DUP8 SUB SLT ISZERO PUSH2 0x1AAD JUMPI PUSH2 0x1AAC PUSH2 0x15A6 JUMP JUMPDEST JUMPDEST PUSH1 0x0 PUSH2 0x1ABB DUP8 DUP3 DUP9 ADD PUSH2 0x181D JUMP JUMPDEST SWAP5 POP POP PUSH1 0x20 PUSH2 0x1ACC DUP8 DUP3 DUP9 ADD PUSH2 0x181D JUMP JUMPDEST SWAP4 POP POP PUSH1 0x40 PUSH2 0x1ADD DUP8 DUP3 DUP9 ADD PUSH2 0x1768 JUMP JUMPDEST SWAP3 POP POP PUSH1 0x60 DUP6 ADD CALLDATALOAD PUSH8 0xFFFFFFFFFFFFFFFF DUP2 GT ISZERO PUSH2 0x1AFE JUMPI PUSH2 0x1AFD PUSH2 0x15AB JUMP JUMPDEST JUMPDEST PUSH2 0x1B0A DUP8 DUP3 DUP9 ADD PUSH2 0x1A65 JUMP JUMPDEST SWAP2 POP POP SWAP3 SWAP6 SWAP2 SWAP5 POP SWAP3 POP JUMP JUMPDEST PUSH1 0x0 DUP1 PUSH1 0x40 DUP4 DUP6 SUB SLT ISZERO PUSH2 0x1B2D JUMPI PUSH2 0x1B2C PUSH2 0x15A6 JUMP JUMPDEST JUMPDEST PUSH1 0x0 PUSH2 0x1B3B DUP6 DUP3 DUP7 ADD PUSH2 0x181D JUMP JUMPDEST SWAP3 POP POP PUSH1 0x20 PUSH2 0x1B4C DUP6 DUP3 DUP7 ADD PUSH2 0x181D JUMP JUMPDEST SWAP2 POP POP SWAP3 POP SWAP3 SWAP1 POP JUMP JUMPDEST PUSH32 0x4E487B7100000000000000000000000000000000000000000000000000000000 PUSH1 0x0 MSTORE PUSH1 0x22 PUSH1 0x4 MSTORE PUSH1 0x24 PUSH1 0x0 REVERT JUMPDEST PUSH1 0x0 PUSH1 0x2 DUP3 DIV SWAP1 POP PUSH1 0x1 DUP3 AND DUP1 PUSH2 0x1B9D JUMPI PUSH1 0x7F DUP3 AND SWAP2 POP JUMPDEST PUSH1 0x20 DUP3 LT DUP2 SUB PUSH2 0x1BB0 JUMPI PUSH2 0x1BAF PUSH2 0x1B56 JUMP JUMPDEST JUMPDEST POP SWAP2 SWAP1 POP JUMP JUMPDEST PUSH32 0x4552433732313A20617070726F76616C20746F2063757272656E74206F776E65 PUSH1 0x0 DUP3 ADD MSTORE PUSH32 0x7200000000000000000000000000000000000000000000000000000000000000 PUSH1 0x20 DUP3 ADD MSTORE POP JUMP JUMPDEST PUSH1 0x0 PUSH2 0x1C12 PUSH1 0x21 DUP4 PUSH2 0x16AA JUMP JUMPDEST SWAP2 POP PUSH2 0x1C1D DUP3 PUSH2 0x1BB6 JUMP JUMPDEST PUSH1 0x40 DUP3 ADD SWAP1 POP SWAP2 SWAP1 POP JUMP JUMPDEST PUSH1 0x0 PUSH1 0x20 DUP3 ADD SWAP1 POP DUP2 DUP2 SUB PUSH1 0x0 DUP4 ADD MSTORE PUSH2 0x1C41 DUP2 PUSH2 0x1C05 JUMP JUMPDEST SWAP1 POP SWAP2 SWAP1 POP JUMP JUMPDEST PUSH32 0x4552433732313A20617070726F76652063616C6C6572206973206E6F7420746F PUSH1 0x0 DUP3 ADD MSTORE PUSH32 0x6B656E206F776E6572206E6F7220617070726F76656420666F7220616C6C0000 PUSH1 0x20 DUP3 ADD MSTORE POP JUMP JUMPDEST PUSH1 0x0 PUSH2 0x1CA4 PUSH1 0x3E DUP4 PUSH2 0x16AA JUMP JUMPDEST SWAP2 POP PUSH2 0x1CAF DUP3 PUSH2 0x1C48 JUMP JUMPDEST PUSH1 0x40 DUP3 ADD SWAP1 POP SWAP2 SWAP1 POP JUMP JUMPDEST PUSH1 0x0 PUSH1 0x20 DUP3 ADD SWAP1 POP DUP2 DUP2 SUB PUSH1 0x0 DUP4 ADD MSTORE PUSH2 0x1CD3 DUP2 PUSH2 0x1C97 JUMP JUMPDEST SWAP1 POP SWAP2 SWAP1 POP JUMP JUMPDEST PUSH32 0x4552433732313A2063616C6C6572206973206E6F7420746F6B656E206F776E65 PUSH1 0x0 DUP3 ADD MSTORE PUSH32 0x72206E6F7220617070726F766564000000000000000000000000000000000000 PUSH1 0x20 DUP3 ADD MSTORE POP JUMP JUMPDEST PUSH1 0x0 PUSH2 0x1D36 PUSH1 0x2E DUP4 PUSH2 0x16AA JUMP JUMPDEST SWAP2 POP PUSH2 0x1D41 DUP3 PUSH2 0x1CDA JUMP JUMPDEST PUSH1 0x40 DUP3 ADD SWAP1 POP SWAP2 SWAP1 POP JUMP JUMPDEST PUSH1 0x0 PUSH1 0x20 DUP3 ADD SWAP1 POP DUP2 DUP2 SUB PUSH1 0x0 DUP4 ADD MSTORE PUSH2 0x1D65 DUP2 PUSH2 0x1D29 JUMP JUMPDEST SWAP1 POP SWAP2 SWAP1 POP JUMP JUMPDEST PUSH32 0x4552433732313A20696E76616C696420746F6B656E2049440000000000000000 PUSH1 0x0 DUP3 ADD MSTORE POP JUMP JUMPDEST PUSH1 0x0 PUSH2 0x1DA2 PUSH1 0x18 DUP4 PUSH2 0x16AA JUMP JUMPDEST SWAP2 POP PUSH2 0x1DAD DUP3 PUSH2 0x1D6C JUMP JUMPDEST PUSH1 0x20 DUP3 ADD SWAP1 POP SWAP2 SWAP1 POP JUMP JUMPDEST PUSH1 0x0 PUSH1 0x20 DUP3 ADD SWAP1 POP DUP2 DUP2 SUB PUSH1 0x0 DUP4 ADD MSTORE PUSH2 0x1DD1 DUP2 PUSH2 0x1D95 JUMP JUMPDEST SWAP1 POP SWAP2 SWAP1 POP JUMP JUMPDEST PUSH32 0x4552433732313A2061646472657373207A65726F206973206E6F742061207661 PUSH1 0x0 DUP3 ADD MSTORE PUSH32 0x6C6964206F776E65720000000000000000000000000000000000000000000000 PUSH1 0x20 DUP3 ADD MSTORE POP JUMP JUMPDEST PUSH1 0x0 PUSH2 0x1E34 PUSH1 0x29 DUP4 PUSH2 0x16AA JUMP JUMPDEST SWAP2 POP PUSH2 0x1E3F DUP3 PUSH2 0x1DD8 JUMP JUMPDEST PUSH1 0x40 DUP3 ADD SWAP1 POP SWAP2 SWAP1 POP JUMP JUMPDEST PUSH1 0x0 PUSH1 0x20 DUP3 ADD SWAP1 POP DUP2 DUP2 SUB PUSH1 0x0 DUP4 ADD MSTORE PUSH2 0x1E63 DUP2 PUSH2 0x1E27 JUMP JUMPDEST SWAP1 POP SWAP2 SWAP1 POP JUMP JUMPDEST PUSH32 0x4E487B7100000000000000000000000000000000000000000000000000000000 PUSH1 0x0 MSTORE PUSH1 0x11 PUSH1 0x4 MSTORE PUSH1 0x24 PUSH1 0x0 REVERT JUMPDEST PUSH1 0x0 PUSH2 0x1EA4 DUP3 PUSH2 0x166B JUMP JUMPDEST SWAP2 POP PUSH2 0x1EAF DUP4 PUSH2 0x166B JUMP JUMPDEST SWAP3 POP DUP3 DUP3 ADD SWAP1 POP DUP1 DUP3 GT ISZERO PUSH2 0x1EC7 JUMPI PUSH2 0x1EC6 PUSH2 0x1E6A JUMP JUMPDEST JUMPDEST SWAP3 SWAP2 POP POP JUMP JUMPDEST PUSH32 0x68747470733A2F2F7777772E6C61626F722E6C616E642F70726F706F73616C2F DUP2 MSTORE POP JUMP JUMPDEST PUSH1 0x0 DUP2 SWAP1 POP SWAP3 SWAP2 POP POP JUMP JUMPDEST PUSH1 0x0 PUSH2 0x1F09 DUP3 PUSH2 0x169F JUMP JUMPDEST PUSH2 0x1F13 DUP2 DUP6 PUSH2 0x1EF3 JUMP JUMPDEST SWAP4 POP PUSH2 0x1F23 DUP2 DUP6 PUSH1 0x20 DUP7 ADD PUSH2 0x16BB JUMP JUMPDEST DUP1 DUP5 ADD SWAP2 POP POP SWAP3 SWAP2 POP POP JUMP JUMPDEST PUSH1 0x0 PUSH2 0x1F3A DUP3 PUSH2 0x1ECD JUMP JUMPDEST PUSH1 0x20 DUP3 ADD SWAP2 POP PUSH2 0x1F4A DUP3 DUP5 PUSH2 0x1EFE JUMP JUMPDEST SWAP2 POP DUP2 SWAP1 POP SWAP3 SWAP2 POP POP JUMP JUMPDEST PUSH32 0x4552433732313A207472616E736665722066726F6D20696E636F727265637420 PUSH1 0x0 DUP3 ADD MSTORE PUSH32 0x6F776E6572000000000000000000000000000000000000000000000000000000 PUSH1 0x20 DUP3 ADD MSTORE POP JUMP JUMPDEST PUSH1 0x0 PUSH2 0x1FB1 PUSH1 0x25 DUP4 PUSH2 0x16AA JUMP JUMPDEST SWAP2 POP PUSH2 0x1FBC DUP3 PUSH2 0x1F55 JUMP JUMPDEST PUSH1 0x40 DUP3 ADD SWAP1 POP SWAP2 SWAP1 POP JUMP JUMPDEST PUSH1 0x0 PUSH1 0x20 DUP3 ADD SWAP1 POP DUP2 DUP2 SUB PUSH1 0x0 DUP4 ADD MSTORE PUSH2 0x1FE0 DUP2 PUSH2 0x1FA4 JUMP JUMPDEST SWAP1 POP SWAP2 SWAP1 POP JUMP JUMPDEST PUSH32 0x4552433732313A207472616E7366657220746F20746865207A65726F20616464 PUSH1 0x0 DUP3 ADD MSTORE PUSH32 0x7265737300000000000000000000000000000000000000000000000000000000 PUSH1 0x20 DUP3 ADD MSTORE POP JUMP JUMPDEST PUSH1 0x0 PUSH2 0x2043 PUSH1 0x24 DUP4 PUSH2 0x16AA JUMP JUMPDEST SWAP2 POP PUSH2 0x204E DUP3 PUSH2 0x1FE7 JUMP JUMPDEST PUSH1 0x40 DUP3 ADD SWAP1 POP SWAP2 SWAP1 POP JUMP JUMPDEST PUSH1 0x0 PUSH1 0x20 DUP3 ADD SWAP1 POP DUP2 DUP2 SUB PUSH1 0x0 DUP4 ADD MSTORE PUSH2 0x2072 DUP2 PUSH2 0x2036 JUMP JUMPDEST SWAP1 POP SWAP2 SWAP1 POP JUMP JUMPDEST PUSH1 0x0 PUSH2 0x2084 DUP3 PUSH2 0x166B JUMP JUMPDEST SWAP2 POP PUSH2 0x208F DUP4 PUSH2 0x166B JUMP JUMPDEST SWAP3 POP DUP3 DUP3 SUB SWAP1 POP DUP2 DUP2 GT ISZERO PUSH2 0x20A7 JUMPI PUSH2 0x20A6 PUSH2 0x1E6A JUMP JUMPDEST JUMPDEST SWAP3 SWAP2 POP POP JUMP JUMPDEST PUSH32 0x4552433732313A20617070726F766520746F2063616C6C657200000000000000 PUSH1 0x0 DUP3 ADD MSTORE POP JUMP JUMPDEST PUSH1 0x0 PUSH2 0x20E3 PUSH1 0x19 DUP4 PUSH2 0x16AA JUMP JUMPDEST SWAP2 POP PUSH2 0x20EE DUP3 PUSH2 0x20AD JUMP JUMPDEST PUSH1 0x20 DUP3 ADD SWAP1 POP SWAP2 SWAP1 POP JUMP JUMPDEST PUSH1 0x0 PUSH1 0x20 DUP3 ADD SWAP1 POP DUP2 DUP2 SUB PUSH1 0x0 DUP4 ADD MSTORE PUSH2 0x2112 DUP2 PUSH2 0x20D6 JUMP JUMPDEST SWAP1 POP SWAP2 SWAP1 POP JUMP JUMPDEST PUSH32 0x4552433732313A207472616E7366657220746F206E6F6E204552433732315265 PUSH1 0x0 DUP3 ADD MSTORE PUSH32 0x63656976657220696D706C656D656E7465720000000000000000000000000000 PUSH1 0x20 DUP3 ADD MSTORE POP JUMP JUMPDEST PUSH1 0x0 PUSH2 0x2175 PUSH1 0x32 DUP4 PUSH2 0x16AA JUMP JUMPDEST SWAP2 POP PUSH2 0x2180 DUP3 PUSH2 0x2119 JUMP JUMPDEST PUSH1 0x40 DUP3 ADD SWAP1 POP SWAP2 SWAP1 POP JUMP JUMPDEST PUSH1 0x0 PUSH1 0x20 DUP3 ADD SWAP1 POP DUP2 DUP2 SUB PUSH1 0x0 DUP4 ADD MSTORE PUSH2 0x21A4 DUP2 PUSH2 0x2168 JUMP JUMPDEST SWAP1 POP SWAP2 SWAP1 POP JUMP JUMPDEST PUSH1 0x0 PUSH2 0x21B6 DUP3 PUSH2 0x166B JUMP JUMPDEST SWAP2 POP PUSH32 0xFFFFFFFFFFFFFFFFFFFFFFFFFFFFFFFFFFFFFFFFFFFFFFFFFFFFFFFFFFFFFFFF DUP3 SUB PUSH2 0x21E8 JUMPI PUSH2 0x21E7 PUSH2 0x1E6A JUMP JUMPDEST JUMPDEST PUSH1 0x1 DUP3 ADD SWAP1 POP SWAP2 SWAP1 POP JUMP JUMPDEST PUSH32 0x4E487B7100000000000000000000000000000000000000000000000000000000 PUSH1 0x0 MSTORE PUSH1 0x12 PUSH1 0x4 MSTORE PUSH1 0x24 PUSH1 0x0 REVERT JUMPDEST PUSH1 0x0 PUSH2 0x222D DUP3 PUSH2 0x166B JUMP JUMPDEST SWAP2 POP PUSH2 0x2238 DUP4 PUSH2 0x166B JUMP JUMPDEST SWAP3 POP DUP3 PUSH2 0x2248 JUMPI PUSH2 0x2247 PUSH2 0x21F3 JUMP JUMPDEST JUMPDEST DUP3 DUP3 DIV SWAP1 POP SWAP3 SWAP2 POP POP JUMP JUMPDEST PUSH1 0x0 PUSH2 0x225E DUP3 PUSH2 0x166B JUMP JUMPDEST SWAP2 POP PUSH2 0x2269 DUP4 PUSH2 0x166B JUMP JUMPDEST SWAP3 POP DUP3 PUSH2 0x2279 JUMPI PUSH2 0x2278 PUSH2 0x21F3 JUMP JUMPDEST JUMPDEST DUP3 DUP3 MOD SWAP1 POP SWAP3 SWAP2 POP POP JUMP JUMPDEST PUSH32 0x4E487B7100000000000000000000000000000000000000000000000000000000 PUSH1 0x0 MSTORE PUSH1 0x32 PUSH1 0x4 MSTORE PUSH1 0x24 PUSH1 0x0 REVERT JUMPDEST PUSH1 0x0 DUP2 MLOAD SWAP1 POP SWAP2 SWAP1 POP JUMP JUMPDEST PUSH1 0x0 DUP3 DUP3 MSTORE PUSH1 0x20 DUP3 ADD SWAP1 POP SWAP3 SWAP2 POP POP JUMP JUMPDEST PUSH1 0x0 PUSH2 0x22DA DUP3 PUSH2 0x22B3 JUMP JUMPDEST PUSH2 0x22E4 DUP2 DUP6 PUSH2 0x22BE JUMP JUMPDEST SWAP4 POP PUSH2 0x22F4 DUP2 DUP6 PUSH1 0x20 DUP7 ADD PUSH2 0x16BB JUMP JUMPDEST PUSH2 0x22FD DUP2 PUSH2 0x16E5 JUMP JUMPDEST DUP5 ADD SWAP2 POP POP SWAP3 SWAP2 POP POP JUMP JUMPDEST PUSH1 0x0 PUSH1 0x80 DUP3 ADD SWAP1 POP PUSH2 0x231D PUSH1 0x0 DUP4 ADD DUP8 PUSH2 0x17DC JUMP JUMPDEST PUSH2 0x232A PUSH1 0x20 DUP4 ADD DUP7 PUSH2 0x17DC JUMP JUMPDEST PUSH2 0x2337 PUSH1 0x40 DUP4 ADD DUP6 PUSH2 0x1675 JUMP JUMPDEST DUP2 DUP2 SUB PUSH1 0x60 DUP4 ADD MSTORE PUSH2 0x2349 DUP2 DUP5 PUSH2 0x22CF JUMP JUMPDEST SWAP1 POP SWAP6 SWAP5 POP POP POP POP POP JUMP JUMPDEST PUSH1 0x0 DUP2 MLOAD SWAP1 POP PUSH2 0x2363 DUP2 PUSH2 0x15DC JUMP JUMPDEST SWAP3 SWAP2 POP POP JUMP JUMPDEST PUSH1 0x0 PUSH1 0x20 DUP3 DUP5 SUB SLT ISZERO PUSH2 0x237F JUMPI PUSH2 0x237E PUSH2 0x15A6 JUMP JUMPDEST JUMPDEST PUSH1 0x0 PUSH2 0x238D DUP5 DUP3 DUP6 ADD PUSH2 0x2354 JUMP JUMPDEST SWAP2 POP POP SWAP3 SWAP2 POP POP JUMP JUMPDEST PUSH32 0x4552433732313A206D696E7420746F20746865207A65726F2061646472657373 PUSH1 0x0 DUP3 ADD MSTORE POP JUMP JUMPDEST PUSH1 0x0 PUSH2 0x23CC PUSH1 0x20 DUP4 PUSH2 0x16AA JUMP JUMPDEST SWAP2 POP PUSH2 0x23D7 DUP3 PUSH2 0x2396 JUMP JUMPDEST PUSH1 0x20 DUP3 ADD SWAP1 POP SWAP2 SWAP1 POP JUMP JUMPDEST PUSH1 0x0 PUSH1 0x20 DUP3 ADD SWAP1 POP DUP2 DUP2 SUB PUSH1 0x0 DUP4 ADD MSTORE PUSH2 0x23FB DUP2 PUSH2 0x23BF JUMP JUMPDEST SWAP1 POP SWAP2 SWAP1 POP JUMP JUMPDEST PUSH32 0x4552433732313A20746F6B656E20616C7265616479206D696E74656400000000 PUSH1 0x0 DUP3 ADD MSTORE POP JUMP JUMPDEST PUSH1 0x0 PUSH2 0x2438 PUSH1 0x1C DUP4 PUSH2 0x16AA JUMP JUMPDEST SWAP2 POP PUSH2 0x2443 DUP3 PUSH2 0x2402 JUMP JUMPDEST PUSH1 0x20 DUP3 ADD SWAP1 POP SWAP2 SWAP1 POP JUMP JUMPDEST PUSH1 0x0 PUSH1 0x20 DUP3 ADD SWAP1 POP DUP2 DUP2 SUB PUSH1 0x0 DUP4 ADD MSTORE PUSH2 0x2467 DUP2 PUSH2 0x242B JUMP JUMPDEST SWAP1 POP SWAP2 SWAP1 POP JUMP INVALID LOG2 PUSH5 0x6970667358 0x22 SLT KECCAK256 0xDA SHR 0xBC 0xEF LOG0 0xE7 PUSH1 0xF9 DUP11 PUSH11 0x1BB63D3BDFFCEB9B04F0D8 CREATE MULMOD 0xA5 0xD0 SAR PUSH20 0xA742EF9DBE64736F6C6343000811003300000000 "},"gasEstimates":{"creation":{"codeDepositCost":"1876000","executionCost":"infinite","totalCost":"infinite"},"external":{"approve(address,uint256)":"infinite","balanceOf(address)":"2899","count()":"2475","getApproved(uint256)":"5279","isApprovedForAll(address,address)":"infinite","memberNFTContract()":"2581","mintTo(address)":"infinite","name()":"infinite","ownerOf(uint256)":"3045","safeTransferFrom(address,address,uint256)":"infinite","safeTransferFrom(address,address,uint256,bytes)":"infinite","setApprovalForAll(address,bool)":"infinite","supportsInterface(bytes4)":"797","symbol()":"infinite","tokenURI(uint256)":"infinite","transferFrom(address,address,uint256)":"infinite"},"internal":{"_approve(address,uint256)":"infinite","_checkOnERC721Received(address,address,uint256,bytes memory)":"infinite","_exists(uint256)":"2269","_isApprovedOrOwner(address,uint256)":"infinite","_mint(address,uint256)":"infinite","_requireMinted(uint256)":"infinite","_safeMint(address,uint256)":"infinite","_safeMint(address,uint256,bytes memory)":"infinite","_safeTransfer(address,address,uint256,bytes memory)":"infinite","_setApprovalForAll(address,address,bool)":"infinite","_transfer(address,address,uint256)":"infinite"}},"methodIdentifiers":{"approve(address,uint256)":"095ea7b3","balanceOf(address)":"70a08231","count()":"06661abd","getApproved(uint256)":"081812fc","isApprovedForAll(address,address)":"e985e9c5","memberNFTContract()":"7c2c25ae","mintTo(address)":"755edd17","name()":"06fdde03","ownerOf(uint256)":"6352211e","safeTransferFrom(address,address,uint256)":"42842e0e","safeTransferFrom(address,address,uint256,bytes)":"b88d4fde","setApprovalForAll(address,bool)":"a22cb465","supportsInterface(bytes4)":"01ffc9a7","symbol()":"95d89b41","tokenURI(uint256)":"c87b56dd","transferFrom(address,address,uint256)":"23b872dd"}},"storageLayout":{"storage":[{"astId":1177,"contract":"ProposalNFT.sol:Proposal","label":"name","offset":0,"slot":"0","type":"t_string_storage"},{"astId":1180,"contract":"ProposalNFT.sol:Proposal","label":"symbol","offset":0,"slot":"1","type":"t_string_storage"},{"astId":1184,"contract":"ProposalNFT.sol:Proposal","label":"_owners","offset":0,"slot":"2","type":"t_mapping(t_uint256,t_address)"},{"astId":1188,"contract":"ProposalNFT.sol:Proposal","label":"_balances","offset":0,"slot":"3","type":"t_mapping(t_address,t_uint256)"},{"astId":1192,"contract":"ProposalNFT.sol:Proposal","label":"_tokenApprovals","offset":0,"slot":"4","type":"t_mapping(t_uint256,t_address)"},{"astId":1198,"contract":"ProposalNFT.sol:Proposal","label":"_operatorApprovals","offset":0,"slot":"5","type":"t_mapping(t_address,t_mapping(t_address,t_bool))"},{"astId":1201,"contract":"ProposalNFT.sol:Proposal","label":"count","offset":0,"slot":"6","type":"t_uint256"},{"astId":1203,"contract":"ProposalNFT.sol:Proposal","label":"memberNFTContract","offset":0,"slot":"7","type":"t_address"}],"types":{"t_address":{"encoding":"inplace","label":"address","numberOfBytes":"20"},"t_bool":{"encoding":"inplace","label":"bool","numberOfBytes":"1"},"t_mapping(t_address,t_bool)":{"encoding":"mapping","key":"t_address","label":"mapping(address => bool)","numberOfBytes":"32","value":"t_bool"},"t_mapping(t_address,t_mapping(t_address,t_bool))":{"encoding":"mapping","key":"t_address","label":"mapping(address => mapping(address => bool))","numberOfBytes":"32","value":"t_mapping(t_address,t_bool)"},"t_mapping(t_address,t_uint256)":{"encoding":"mapping","key":"t_address","label":"mapping(address => uint256)","numberOfBytes":"32","value":"t_uint256"},"t_mapping(t_uint256,t_address)":{"encoding":"mapping","key":"t_uint256","label":"mapping(uint256 => address)","numberOfBytes":"32","value":"t_address"},"t_string_storage":{"encoding":"bytes","label":"string","numberOfBytes":"32"},"t_uint256":{"encoding":"inplace","label":"uint256","numberOfBytes":"32"}}},"userdoc":{"kind":"user","methods":{},"version":1}}